{
  "contractName": "PropertyTitle",
  "abi": [
    {
      "inputs": [
        {
          "internalType": "address",
          "name": "_creator",
          "type": "address"
        },
        {
          "internalType": "address payable",
          "name": "_owner",
          "type": "address"
        },
        {
          "internalType": "string",
          "name": "_country",
          "type": "string"
        },
        {
          "internalType": "string",
          "name": "_city",
          "type": "string"
        },
        {
          "internalType": "string",
          "name": "_street",
          "type": "string"
        },
        {
          "internalType": "string",
          "name": "_streeNumber",
          "type": "string"
        },
        {
          "internalType": "uint256",
          "name": "_apartmentNumber",
          "type": "uint256"
        },
        {
          "internalType": "uint256",
          "name": "_squareMeters",
          "type": "uint256"
        }
      ],
      "stateMutability": "nonpayable",
      "type": "constructor"
    },
    {
      "inputs": [],
      "name": "contractState",
      "outputs": [
        {
          "internalType": "enum PropertyTitleContractState",
          "name": "",
          "type": "uint8"
        }
      ],
      "stateMutability": "view",
      "type": "function",
      "constant": true
    },
    {
      "inputs": [],
      "name": "creator",
      "outputs": [
        {
          "internalType": "address",
          "name": "",
          "type": "address"
        }
      ],
      "stateMutability": "view",
      "type": "function",
      "constant": true
    },
    {
      "inputs": [],
      "name": "owner",
      "outputs": [
        {
          "internalType": "address payable",
          "name": "",
          "type": "address"
        }
      ],
      "stateMutability": "view",
      "type": "function",
      "constant": true
    },
    {
      "inputs": [],
      "name": "propertyDetails",
      "outputs": [
        {
          "internalType": "enum HousingTenure",
          "name": "tenureType",
          "type": "uint8"
        },
        {
          "internalType": "string",
          "name": "country",
          "type": "string"
        },
        {
          "internalType": "string",
          "name": "city",
          "type": "string"
        },
        {
          "internalType": "string",
          "name": "street",
          "type": "string"
        },
        {
          "internalType": "string",
          "name": "streetNumber",
          "type": "string"
        },
        {
          "internalType": "uint256",
          "name": "apartmentNumber",
          "type": "uint256"
        },
        {
          "internalType": "uint256",
          "name": "squareMetres",
          "type": "uint256"
        }
      ],
      "stateMutability": "view",
      "type": "function",
      "constant": true
    },
    {
      "inputs": [],
      "name": "requiredDocuments",
      "outputs": [
        {
          "internalType": "bool",
          "name": "proofOfIdentity",
          "type": "bool"
        },
        {
          "internalType": "bool",
          "name": "propertyTitleDeeds",
          "type": "bool"
        },
        {
          "internalType": "bool",
          "name": "energyPerformanceCertificate",
          "type": "bool"
        },
        {
          "internalType": "bool",
          "name": "extensionsAndAlterationsDocumentation",
          "type": "bool"
        },
        {
          "internalType": "bool",
          "name": "utilityBillsPaid",
          "type": "bool"
        }
      ],
      "stateMutability": "view",
      "type": "function",
      "constant": true
    },
    {
      "inputs": [],
      "name": "sellingPriceFractionalPart",
      "outputs": [
        {
          "internalType": "uint256",
          "name": "",
          "type": "uint256"
        }
      ],
      "stateMutability": "view",
      "type": "function",
      "constant": true
    },
    {
      "inputs": [],
      "name": "sellingPriceFractionalPartLength",
      "outputs": [
        {
          "internalType": "uint256",
          "name": "",
          "type": "uint256"
        }
      ],
      "stateMutability": "view",
      "type": "function",
      "constant": true
    },
    {
      "inputs": [],
      "name": "sellingPriceIntegralPart",
      "outputs": [
        {
          "internalType": "uint256",
          "name": "",
          "type": "uint256"
        }
      ],
      "stateMutability": "view",
      "type": "function",
      "constant": true
    },
    {
      "inputs": [
        {
          "internalType": "address payable",
          "name": "_owner",
          "type": "address"
        },
        {
          "internalType": "enum PropertyTitleContractState",
          "name": "_contractState",
          "type": "uint8"
        }
      ],
      "name": "modifyContractState",
      "outputs": [],
      "stateMutability": "nonpayable",
      "type": "function"
    },
    {
      "inputs": [
        {
          "internalType": "enum HousingTenure",
          "name": "_tenureType",
          "type": "uint8"
        },
        {
          "internalType": "uint256",
          "name": "_squareMetres",
          "type": "uint256"
        }
      ],
      "name": "insertPropertyDetails",
      "outputs": [],
      "stateMutability": "nonpayable",
      "type": "function"
    },
    {
      "inputs": [
        {
          "internalType": "string",
          "name": "_street",
          "type": "string"
        },
        {
          "internalType": "string",
          "name": "_streeNumber",
          "type": "string"
        }
      ],
      "name": "modifyPropertyAdress",
      "outputs": [],
      "stateMutability": "nonpayable",
      "type": "function"
    },
    {
      "inputs": [
        {
          "internalType": "enum HousingTenure",
          "name": "_tenureType",
          "type": "uint8"
        }
      ],
      "name": "modifyPropertyTenureType",
      "outputs": [],
      "stateMutability": "nonpayable",
      "type": "function"
    },
    {
      "inputs": [
        {
          "internalType": "uint256",
          "name": "_squareMetres",
          "type": "uint256"
        }
      ],
      "name": "modifyPropertySquareMetres",
      "outputs": [],
      "stateMutability": "nonpayable",
      "type": "function"
    },
    {
      "inputs": [
        {
          "internalType": "uint256",
          "name": "_sellingPriceIntegralPart",
          "type": "uint256"
        },
        {
          "internalType": "uint256",
          "name": "_sellingPriceFractionalPart",
          "type": "uint256"
        },
        {
          "internalType": "uint256",
          "name": "_sellingPriceFractionalPartLength",
          "type": "uint256"
        }
      ],
      "name": "addPropertyAsForSale",
      "outputs": [],
      "stateMutability": "nonpayable",
      "type": "function"
    },
    {
      "inputs": [],
      "name": "buyProperty",
      "outputs": [],
      "stateMutability": "payable",
      "type": "function",
      "payable": true
    },
    {
      "inputs": [],
      "name": "getContractDetails",
      "outputs": [
        {
          "internalType": "address",
          "name": "",
          "type": "address"
        },
        {
          "internalType": "address",
          "name": "",
          "type": "address"
        },
        {
          "internalType": "enum PropertyTitleContractState",
          "name": "",
          "type": "uint8"
        }
      ],
      "stateMutability": "view",
      "type": "function",
      "constant": true
    },
    {
      "inputs": [],
      "name": "validatePropertyDebts",
      "outputs": [
        {
          "internalType": "bool",
          "name": "",
          "type": "bool"
        }
      ],
      "stateMutability": "view",
      "type": "function",
      "constant": true
    },
    {
      "inputs": [],
      "name": "checkIfUserIsRegistrar",
      "outputs": [
        {
          "internalType": "bool",
          "name": "",
          "type": "bool"
        }
      ],
      "stateMutability": "view",
      "type": "function",
      "constant": true
    },
    {
      "inputs": [
        {
          "internalType": "string",
          "name": "firstString",
          "type": "string"
        },
        {
          "internalType": "string",
          "name": "secondString",
          "type": "string"
        }
      ],
      "name": "checkStringsEquality",
      "outputs": [
        {
          "internalType": "bool",
          "name": "",
          "type": "bool"
        }
      ],
      "stateMutability": "pure",
      "type": "function",
      "constant": true
    },
    {
      "inputs": [
        {
          "internalType": "string",
          "name": "stringToSearchFor",
          "type": "string"
        },
        {
          "internalType": "string[]",
          "name": "stringsArray",
          "type": "string[]"
        }
      ],
      "name": "checkIfStringIsFoundInStringsArray",
      "outputs": [
        {
          "internalType": "bool",
          "name": "",
          "type": "bool"
        }
      ],
      "stateMutability": "pure",
      "type": "function",
      "constant": true
    }
  ],
  "bytecode": "0x60806040523480156200001157600080fd5b5060405162002d1e38038062002d1e8339818101604052810190620000379190620003eb565b87600460006101000a81548173ffffffffffffffffffffffffffffffffffffffff021916908373ffffffffffffffffffffffffffffffffffffffff16021790555086600560006101000a81548173ffffffffffffffffffffffffffffffffffffffff021916908373ffffffffffffffffffffffffffffffffffffffff16021790555060026000806101000a81548160ff02191690836003811115620000e157620000e062000530565b5b02179055508560066001019081620000fa9190620007a0565b5084600660020190816200010f9190620007a0565b508360066003019081620001249190620007a0565b508260066004019081620001399190620007a0565b5081600660050181905550806006800181905550600760018190555061021660028190555060038081905550505050505050505062000887565b6000604051905090565b600080fd5b600080fd5b600073ffffffffffffffffffffffffffffffffffffffff82169050919050565b6000620001b48262000187565b9050919050565b620001c681620001a7565b8114620001d257600080fd5b50565b600081519050620001e681620001bb565b92915050565b6000620001f98262000187565b9050919050565b6200020b81620001ec565b81146200021757600080fd5b50565b6000815190506200022b8162000200565b92915050565b600080fd5b600080fd5b6000601f19601f8301169050919050565b7f4e487b7100000000000000000000000000000000000000000000000000000000600052604160045260246000fd5b62000286826200023b565b810181811067ffffffffffffffff82111715620002a857620002a76200024c565b5b80604052505050565b6000620002bd62000173565b9050620002cb82826200027b565b919050565b600067ffffffffffffffff821115620002ee57620002ed6200024c565b5b620002f9826200023b565b9050602081019050919050565b60005b838110156200032657808201518184015260208101905062000309565b60008484015250505050565b6000620003496200034384620002d0565b620002b1565b90508281526020810184848401111562000368576200036762000236565b5b6200037584828562000306565b509392505050565b600082601f83011262000395576200039462000231565b5b8151620003a784826020860162000332565b91505092915050565b6000819050919050565b620003c581620003b0565b8114620003d157600080fd5b50565b600081519050620003e581620003ba565b92915050565b600080600080600080600080610100898b0312156200040f576200040e6200017d565b5b60006200041f8b828c01620001d5565b9850506020620004328b828c016200021a565b975050604089015167ffffffffffffffff81111562000456576200045562000182565b5b620004648b828c016200037d565b965050606089015167ffffffffffffffff81111562000488576200048762000182565b5b620004968b828c016200037d565b955050608089015167ffffffffffffffff811115620004ba57620004b962000182565b5b620004c88b828c016200037d565b94505060a089015167ffffffffffffffff811115620004ec57620004eb62000182565b5b620004fa8b828c016200037d565b93505060c06200050d8b828c01620003d4565b92505060e0620005208b828c01620003d4565b9150509295985092959890939650565b7f4e487b7100000000000000000000000000000000000000000000000000000000600052602160045260246000fd5b600081519050919050565b7f4e487b7100000000000000000000000000000000000000000000000000000000600052602260045260246000fd5b60006002820490506001821680620005b257607f821691505b602082108103620005c857620005c76200056a565b5b50919050565b60008190508160005260206000209050919050565b60006020601f8301049050919050565b600082821b905092915050565b600060088302620006327fffffffffffffffffffffffffffffffffffffffffffffffffffffffffffffffff82620005f3565b6200063e8683620005f3565b95508019841693508086168417925050509392505050565b6000819050919050565b6000620006816200067b6200067584620003b0565b62000656565b620003b0565b9050919050565b6000819050919050565b6200069d8362000660565b620006b5620006ac8262000688565b84845462000600565b825550505050565b600090565b620006cc620006bd565b620006d981848462000692565b505050565b5b818110156200070157620006f5600082620006c2565b600181019050620006df565b5050565b601f82111562000750576200071a81620005ce565b6200072584620005e3565b8101602085101562000735578190505b6200074d6200074485620005e3565b830182620006de565b50505b505050565b600082821c905092915050565b6000620007756000198460080262000755565b1980831691505092915050565b600062000790838362000762565b9150826002028217905092915050565b620007ab826200055f565b67ffffffffffffffff811115620007c757620007c66200024c565b5b620007d3825462000599565b620007e082828562000705565b600060209050601f83116001811462000818576000841562000803578287015190505b6200080f858262000782565b8655506200087f565b601f1984166200082886620005ce565b60005b8281101562000852578489015182556001820191506020850194506020810190506200082b565b868310156200087257848901516200086e601f89168262000762565b8355505b6001600288020188555050505b505050505050565b61248780620008976000396000f3fe60806040526004361061011e5760003560e01c806385209ee0116100a05780639dfc9117116100645780639dfc911714610393578063ab134bed146103c0578063b3cbb32c146103eb578063bac9cad514610428578063daca4eef146104535761011e565b806385209ee0146102c05780638d97bee8146102eb5780638da5cb5b1461031457806394a81f011461033f57806397035a071461036a5761011e565b80633d7a4492116100e75780633d7a4492146101fa578063446a4fe914610223578063451a308f1461024e5780635293c8381461025857806378b3c71e146102955761011e565b80627dc37214610123578063022439511461015457806302d05d3f1461017d5780630fbb26a1146101a857806311d82315146101d1575b600080fd5b34801561012f57600080fd5b50610138610482565b60405161014b9796959493929190611359565b60405180910390f35b34801561016057600080fd5b5061017b6004803603810190610176919061147b565b6106df565b005b34801561018957600080fd5b50610192610794565b60405161019f91906114dc565b60405180910390f35b3480156101b457600080fd5b506101cf60048036038101906101ca9190611523565b6107ba565b005b3480156101dd57600080fd5b506101f860048036038101906101f39190611550565b61089d565b005b34801561020657600080fd5b50610221600480360381019061021c91906116d8565b6109b8565b005b34801561022f57600080fd5b50610238610ab9565b604051610245919061176b565b60405180910390f35b610256610ac2565b005b34801561026457600080fd5b5061027f600480360381019061027a919061186c565b610d83565b60405161028c919061176b565b60405180910390f35b3480156102a157600080fd5b506102aa610de6565b6040516102b791906118e4565b60405180910390f35b3480156102cc57600080fd5b506102d5610dec565b6040516102e29190611947565b60405180910390f35b3480156102f757600080fd5b50610312600480360381019061030d9190611987565b610dfd565b005b34801561032057600080fd5b50610329610f0e565b60405161033691906119d6565b60405180910390f35b34801561034b57600080fd5b50610354610f34565b604051610361919061176b565b60405180910390f35b34801561037657600080fd5b50610391600480360381019061038c91906119f1565b610ff1565b005b34801561039f57600080fd5b506103a86110f8565b6040516103b793929190611a1e565b60405180910390f35b3480156103cc57600080fd5b506103d561115c565b6040516103e291906118e4565b60405180910390f35b3480156103f757600080fd5b50610412600480360381019061040d91906116d8565b611162565b60405161041f919061176b565b60405180910390f35b34801561043457600080fd5b5061043d6111ce565b60405161044a91906118e4565b60405180910390f35b34801561045f57600080fd5b506104686111d4565b604051610479959493929190611a55565b60405180910390f35b60068060000160009054906101000a900460ff16908060010180546104a690611ad7565b80601f01602080910402602001604051908101604052809291908181526020018280546104d290611ad7565b801561051f5780601f106104f45761010080835404028352916020019161051f565b820191906000526020600020905b81548152906001019060200180831161050257829003601f168201915b50505050509080600201805461053490611ad7565b80601f016020809104026020016040519081016040528092919081815260200182805461056090611ad7565b80156105ad5780601f10610582576101008083540402835291602001916105ad565b820191906000526020600020905b81548152906001019060200180831161059057829003601f168201915b5050505050908060030180546105c290611ad7565b80601f01602080910402602001604051908101604052809291908181526020018280546105ee90611ad7565b801561063b5780601f106106105761010080835404028352916020019161063b565b820191906000526020600020905b81548152906001019060200180831161061e57829003601f168201915b50505050509080600401805461065090611ad7565b80601f016020809104026020016040519081016040528092919081815260200182805461067c90611ad7565b80156106c95780601f1061069e576101008083540402835291602001916106c9565b820191906000526020600020905b8154815290600101906020018083116106ac57829003601f168201915b5050505050908060050154908060060154905087565b6106e7610ab9565b610726576040517f08c379a000000000000000000000000000000000000000000000000000000000815260040161071d90611b7a565b60405180910390fd5b81600560006101000a81548173ffffffffffffffffffffffffffffffffffffffff021916908373ffffffffffffffffffffffffffffffffffffffff160217905550806000806101000a81548160ff0219169083600381111561078b5761078a611239565b5b02179055505050565b600460009054906101000a900473ffffffffffffffffffffffffffffffffffffffff1681565b6107c2610f34565b610801576040517f08c379a00000000000000000000000000000000000000000000000000000000081526004016107f890611c0c565b60405180910390fd5b600560009054906101000a900473ffffffffffffffffffffffffffffffffffffffff1673ffffffffffffffffffffffffffffffffffffffff163373ffffffffffffffffffffffffffffffffffffffff1614610891576040517f08c379a000000000000000000000000000000000000000000000000000000000815260040161088890611c9e565b60405180910390fd5b80600680018190555050565b6108a5610f34565b6108e4576040517f08c379a00000000000000000000000000000000000000000000000000000000081526004016108db90611c0c565b60405180910390fd5b600560009054906101000a900473ffffffffffffffffffffffffffffffffffffffff1673ffffffffffffffffffffffffffffffffffffffff163373ffffffffffffffffffffffffffffffffffffffff1614610974576040517f08c379a000000000000000000000000000000000000000000000000000000000815260040161096b90611c9e565b60405180910390fd5b82600181905550816002819055508060038190555060026000806101000a81548160ff021916908360038111156109ae576109ad611239565b5b0217905550505050565b6109c0610f34565b6109ff576040517f08c379a00000000000000000000000000000000000000000000000000000000081526004016109f690611c0c565b60405180910390fd5b600560009054906101000a900473ffffffffffffffffffffffffffffffffffffffff1673ffffffffffffffffffffffffffffffffffffffff163373ffffffffffffffffffffffffffffffffffffffff1614610a8f576040517f08c379a0000000000000000000000000000000000000000000000000000000008152600401610a8690611c9e565b60405180910390fd5b8160066003019081610aa19190611e6a565b508060066004019081610ab49190611e6a565b505050565b60006001905090565b60006006811115610ad657610ad5611239565b5b600660000160009054906101000a900460ff166006811115610afb57610afa611239565b5b1480610b3d575060036006811115610b1657610b15611239565b5b600660000160009054906101000a900460ff166006811115610b3b57610b3a611239565b5b145b610b7c576040517f08c379a0000000000000000000000000000000000000000000000000000000008152600401610b7390611fae565b60405180910390fd5b60026003811115610b9057610b8f611239565b5b60008054906101000a900460ff166003811115610bb057610baf611239565b5b14610bf0576040517f08c379a0000000000000000000000000000000000000000000000000000000008152600401610be79061201a565b60405180910390fd5b6000600354600a610c01919061219c565b670de0b6b3a7640000600254610c1791906121e7565b610c219190612270565b670de0b6b3a7640000600154610c3791906121e7565b610c4191906122a1565b9050600080600560009054906101000a900473ffffffffffffffffffffffffffffffffffffffff1673ffffffffffffffffffffffffffffffffffffffff1683604051610c8c90612306565b60006040518083038185875af1925050503d8060008114610cc9576040519150601f19603f3d011682016040523d82523d6000602084013e610cce565b606091505b509150915081610d13576040517f08c379a0000000000000000000000000000000000000000000000000000000008152600401610d0a90612367565b60405180910390fd5b60016000806101000a81548160ff02191690836003811115610d3857610d37611239565b5b021790555033600560006101000a81548173ffffffffffffffffffffffffffffffffffffffff021916908373ffffffffffffffffffffffffffffffffffffffff160217905550505050565b600080600090505b8251811015610dda57610db884848381518110610dab57610daa612387565b5b6020026020010151611162565b15610dc7576001915050610de0565b8080610dd2906123b6565b915050610d8b565b50600090505b92915050565b60025481565b60008054906101000a900460ff1681565b600560009054906101000a900473ffffffffffffffffffffffffffffffffffffffff1673ffffffffffffffffffffffffffffffffffffffff163373ffffffffffffffffffffffffffffffffffffffff1614610e8d576040517f08c379a0000000000000000000000000000000000000000000000000000000008152600401610e8490611c9e565b60405180910390fd5b610e95610f34565b610ed4576040517f08c379a0000000000000000000000000000000000000000000000000000000008152600401610ecb90611c0c565b60405180910390fd5b81600660000160006101000a81548160ff02191690836006811115610efc57610efb611239565b5b02179055508060068001819055505050565b600560009054906101000a900473ffffffffffffffffffffffffffffffffffffffff1681565b6000610fdc60066003018054610f4990611ad7565b80601f0160208091040260200160405190810160405280929190818152602001828054610f7590611ad7565b8015610fc25780601f10610f9757610100808354040283529160200191610fc2565b820191906000526020600020905b815481529060010190602001808311610fa557829003601f168201915b505050505060405180602001604052806000815250611162565b610fe95760019050610fee565b600090505b90565b610ff9610f34565b611038576040517f08c379a000000000000000000000000000000000000000000000000000000000815260040161102f90611c0c565b60405180910390fd5b600560009054906101000a900473ffffffffffffffffffffffffffffffffffffffff1673ffffffffffffffffffffffffffffffffffffffff163373ffffffffffffffffffffffffffffffffffffffff16146110c8576040517f08c379a00000000000000000000000000000000000000000000000000000000081526004016110bf90611c9e565b60405180910390fd5b80600660000160006101000a81548160ff021916908360068111156110f0576110ef611239565b5b021790555050565b6000806000600460009054906101000a900473ffffffffffffffffffffffffffffffffffffffff16600560009054906101000a900473ffffffffffffffffffffffffffffffffffffffff1660008054906101000a900460ff16925092509250909192565b60015481565b6000815183511461117657600090506111c8565b81604051602001611187919061243a565b60405160208183030381529060405280519060200120836040516020016111ae919061243a565b604051602081830303815290604052805190602001201490505b92915050565b60035481565b600d8060000160009054906101000a900460ff16908060000160019054906101000a900460ff16908060000160029054906101000a900460ff16908060000160039054906101000a900460ff16908060000160049054906101000a900460ff16905085565b7f4e487b7100000000000000000000000000000000000000000000000000000000600052602160045260246000fd5b6007811061127957611278611239565b5b50565b600081905061128a82611268565b919050565b600061129a8261127c565b9050919050565b6112aa8161128f565b82525050565b600081519050919050565b600082825260208201905092915050565b60005b838110156112ea5780820151818401526020810190506112cf565b60008484015250505050565b6000601f19601f8301169050919050565b6000611312826112b0565b61131c81856112bb565b935061132c8185602086016112cc565b611335816112f6565b840191505092915050565b6000819050919050565b61135381611340565b82525050565b600060e08201905061136e600083018a6112a1565b81810360208301526113808189611307565b905081810360408301526113948188611307565b905081810360608301526113a88187611307565b905081810360808301526113bc8186611307565b90506113cb60a083018561134a565b6113d860c083018461134a565b98975050505050505050565b6000604051905090565b600080fd5b600080fd5b600073ffffffffffffffffffffffffffffffffffffffff82169050919050565b6000611423826113f8565b9050919050565b61143381611418565b811461143e57600080fd5b50565b6000813590506114508161142a565b92915050565b6004811061146357600080fd5b50565b60008135905061147581611456565b92915050565b60008060408385031215611492576114916113ee565b5b60006114a085828601611441565b92505060206114b185828601611466565b9150509250929050565b60006114c6826113f8565b9050919050565b6114d6816114bb565b82525050565b60006020820190506114f160008301846114cd565b92915050565b61150081611340565b811461150b57600080fd5b50565b60008135905061151d816114f7565b92915050565b600060208284031215611539576115386113ee565b5b60006115478482850161150e565b91505092915050565b600080600060608486031215611569576115686113ee565b5b60006115778682870161150e565b93505060206115888682870161150e565b92505060406115998682870161150e565b9150509250925092565b600080fd5b600080fd5b7f4e487b7100000000000000000000000000000000000000000000000000000000600052604160045260246000fd5b6115e5826112f6565b810181811067ffffffffffffffff82111715611604576116036115ad565b5b80604052505050565b60006116176113e4565b905061162382826115dc565b919050565b600067ffffffffffffffff821115611643576116426115ad565b5b61164c826112f6565b9050602081019050919050565b82818337600083830152505050565b600061167b61167684611628565b61160d565b905082815260208101848484011115611697576116966115a8565b5b6116a2848285611659565b509392505050565b600082601f8301126116bf576116be6115a3565b5b81356116cf848260208601611668565b91505092915050565b600080604083850312156116ef576116ee6113ee565b5b600083013567ffffffffffffffff81111561170d5761170c6113f3565b5b611719858286016116aa565b925050602083013567ffffffffffffffff81111561173a576117396113f3565b5b611746858286016116aa565b9150509250929050565b60008115159050919050565b61176581611750565b82525050565b6000602082019050611780600083018461175c565b92915050565b600067ffffffffffffffff8211156117a1576117a06115ad565b5b602082029050602081019050919050565b600080fd5b60006117ca6117c584611786565b61160d565b905080838252602082019050602084028301858111156117ed576117ec6117b2565b5b835b8181101561183457803567ffffffffffffffff811115611812576118116115a3565b5b80860161181f89826116aa565b855260208501945050506020810190506117ef565b5050509392505050565b600082601f830112611853576118526115a3565b5b81356118638482602086016117b7565b91505092915050565b60008060408385031215611883576118826113ee565b5b600083013567ffffffffffffffff8111156118a1576118a06113f3565b5b6118ad858286016116aa565b925050602083013567ffffffffffffffff8111156118ce576118cd6113f3565b5b6118da8582860161183e565b9150509250929050565b60006020820190506118f9600083018461134a565b92915050565b600481106119105761190f611239565b5b50565b6000819050611921826118ff565b919050565b600061193182611913565b9050919050565b61194181611926565b82525050565b600060208201905061195c6000830184611938565b92915050565b6007811061196f57600080fd5b50565b60008135905061198181611962565b92915050565b6000806040838503121561199e5761199d6113ee565b5b60006119ac85828601611972565b92505060206119bd8582860161150e565b9150509250929050565b6119d081611418565b82525050565b60006020820190506119eb60008301846119c7565b92915050565b600060208284031215611a0757611a066113ee565b5b6000611a1584828501611972565b91505092915050565b6000606082019050611a3360008301866114cd565b611a4060208301856114cd565b611a4d6040830184611938565b949350505050565b600060a082019050611a6a600083018861175c565b611a77602083018761175c565b611a84604083018661175c565b611a91606083018561175c565b611a9e608083018461175c565b9695505050505050565b7f4e487b7100000000000000000000000000000000000000000000000000000000600052602260045260246000fd5b60006002820490506001821680611aef57607f821691505b602082108103611b0257611b01611aa8565b5b50919050565b7f4f6e6c792061207265676973746572656420726567697374726172206861732060008201527f61636365737320746f207468697320616374696f6e2e00000000000000000000602082015250565b6000611b646036836112bb565b9150611b6f82611b08565b604082019050919050565b60006020820190508181036000830152611b9381611b57565b9050919050565b7f5468652070726f7065727479206973206e6f74206c6567616c6c7920616c726960008201527f6768742e00000000000000000000000000000000000000000000000000000000602082015250565b6000611bf66024836112bb565b9150611c0182611b9a565b604082019050919050565b60006020820190508181036000830152611c2581611be9565b9050919050565b7f4f6e6c7920746865206f776e6572206f662074686520436f6e7472616374206860008201527f61732061636365737320746f2074686973210000000000000000000000000000602082015250565b6000611c886032836112bb565b9150611c9382611c2c565b604082019050919050565b60006020820190508181036000830152611cb781611c7b565b9050919050565b60008190508160005260206000209050919050565b60006020601f8301049050919050565b600082821b905092915050565b600060088302611d207fffffffffffffffffffffffffffffffffffffffffffffffffffffffffffffffff82611ce3565b611d2a8683611ce3565b95508019841693508086168417925050509392505050565b6000819050919050565b6000611d67611d62611d5d84611340565b611d42565b611340565b9050919050565b6000819050919050565b611d8183611d4c565b611d95611d8d82611d6e565b848454611cf0565b825550505050565b600090565b611daa611d9d565b611db5818484611d78565b505050565b5b81811015611dd957611dce600082611da2565b600181019050611dbb565b5050565b601f821115611e1e57611def81611cbe565b611df884611cd3565b81016020851015611e07578190505b611e1b611e1385611cd3565b830182611dba565b50505b505050565b600082821c905092915050565b6000611e4160001984600802611e23565b1980831691505092915050565b6000611e5a8383611e30565b9150826002028217905092915050565b611e73826112b0565b67ffffffffffffffff811115611e8c57611e8b6115ad565b5b611e968254611ad7565b611ea1828285611ddd565b600060209050601f831160018114611ed45760008415611ec2578287015190505b611ecc8582611e4e565b865550611f34565b601f198416611ee286611cbe565b60005b82811015611f0a57848901518255600182019150602085019450602081019050611ee5565b86831015611f275784890151611f23601f891682611e30565b8355505b6001600288020188555050505b505050505050565b7f546869732070726f706572747927732074656e757265207479706520646f657360008201527f206e6f7420737570706f7274206265696e6720736f6c64000000000000000000602082015250565b6000611f986037836112bb565b9150611fa382611f3c565b604082019050919050565b60006020820190508181036000830152611fc781611f8b565b9050919050565b7f546869732070726f7065727479206973206e6f7420666f722073616c652e0000600082015250565b6000612004601e836112bb565b915061200f82611fce565b602082019050919050565b6000602082019050818103600083015261203381611ff7565b9050919050565b7f4e487b7100000000000000000000000000000000000000000000000000000000600052601160045260246000fd5b60008160011c9050919050565b6000808291508390505b60018511156120c05780860481111561209c5761209b61203a565b5b60018516156120ab5780820291505b80810290506120b985612069565b9450612080565b94509492505050565b6000826120d95760019050612195565b816120e75760009050612195565b81600181146120fd576002811461210757612136565b6001915050612195565b60ff8411156121195761211861203a565b5b8360020a9150848211156121305761212f61203a565b5b50612195565b5060208310610133831016604e8410600b841016171561216b5782820a9050838111156121665761216561203a565b5b612195565b6121788484846001612076565b9250905081840481111561218f5761218e61203a565b5b81810290505b9392505050565b60006121a782611340565b91506121b283611340565b92506121df7fffffffffffffffffffffffffffffffffffffffffffffffffffffffffffffffff84846120c9565b905092915050565b60006121f282611340565b91506121fd83611340565b9250817fffffffffffffffffffffffffffffffffffffffffffffffffffffffffffffffff04831182151516156122365761223561203a565b5b828202905092915050565b7f4e487b7100000000000000000000000000000000000000000000000000000000600052601260045260246000fd5b600061227b82611340565b915061228683611340565b92508261229657612295612241565b5b828204905092915050565b60006122ac82611340565b91506122b783611340565b92508282019050808211156122cf576122ce61203a565b5b92915050565b600081905092915050565b50565b60006122f06000836122d5565b91506122fb826122e0565b600082019050919050565b6000612311826122e3565b9150819050919050565b7f4661696c656420746f2073656e642045746865722e0000000000000000000000600082015250565b60006123516015836112bb565b915061235c8261231b565b602082019050919050565b6000602082019050818103600083015261238081612344565b9050919050565b7f4e487b7100000000000000000000000000000000000000000000000000000000600052603260045260246000fd5b60006123c182611340565b91507fffffffffffffffffffffffffffffffffffffffffffffffffffffffffffffffff82036123f3576123f261203a565b5b600182019050919050565b600081905092915050565b6000612414826112b0565b61241e81856123fe565b935061242e8185602086016112cc565b80840191505092915050565b60006124468284612409565b91508190509291505056fea264697066735822122041e7cca25191fa72645a3e6821be923156f995d6a35f7ff297e3fa2e671ab87d64736f6c63430008100033",
  "immutableReferences": {},
  "source": "//SPDX-License-Identifier: MIT\r\npragma solidity ^0.8.15;\r\n\r\nenum PropertyTitleContractState { INITIALIZED, OWNED, FOR_SALE, NO_LONGER_RELEVANT }\r\n\r\nenum HousingTenure {\r\n    OWNER_OCCUPANCY,\r\n    TENANCY,\r\n    COOPERATIVE,\r\n    CONDOMIUM,\r\n    PUBLIC_HOUSING,\r\n    SQUATTING,\r\n    LAND_TRUST\r\n}\r\n\r\nstruct PropertyDetails {\r\n    HousingTenure tenureType;\r\n    string country;\r\n    string city;\r\n    string street;\r\n    string streetNumber;\r\n    uint256 apartmentNumber;\r\n    uint256 squareMetres;\r\n}\r\n\r\nstruct RequiredPropertyDocuments {\r\n    bool proofOfIdentity;\r\n    bool propertyTitleDeeds;\r\n    bool energyPerformanceCertificate;\r\n    bool extensionsAndAlterationsDocumentation;\r\n    bool utilityBillsPaid;\r\n}\r\n\r\n\r\ncontract PropertyTitle {\r\n    PropertyTitleContractState public contractState;\r\n    uint256 public sellingPriceIntegralPart;\r\n    uint256 public sellingPriceFractionalPart;\r\n    uint256 public sellingPriceFractionalPartLength;\r\n    address public creator;\r\n    address payable public owner;\r\n    PropertyDetails public propertyDetails;\r\n    RequiredPropertyDocuments public requiredDocuments;\r\n\r\n    constructor(\r\n        address _creator,\r\n        address payable _owner,\r\n        string memory _country,\r\n        string memory _city,\r\n        string memory _street,\r\n        string memory _streeNumber,\r\n        uint256 _apartmentNumber,\r\n        uint256 _squareMeters\r\n    )\r\n    {\r\n        creator = _creator;\r\n        owner = _owner;\r\n        contractState = PropertyTitleContractState.FOR_SALE;\r\n        propertyDetails.country = _country;\r\n        propertyDetails.city = _city;\r\n        propertyDetails.street = _street;\r\n        propertyDetails.streetNumber = _streeNumber;\r\n        propertyDetails.apartmentNumber = _apartmentNumber;\r\n        propertyDetails.squareMetres = _squareMeters;\r\n\r\n        sellingPriceIntegralPart = 7;\r\n        sellingPriceFractionalPart = 534;\r\n        sellingPriceFractionalPartLength = 3;\r\n    }\r\n\r\n    function modifyContractState(\r\n        address payable _owner, \r\n        PropertyTitleContractState _contractState\r\n    )\r\n        external \r\n        onlyIfUserIsRegistrar\r\n    {\r\n        owner = _owner;\r\n        contractState = _contractState;\r\n    }\r\n\r\n    function insertPropertyDetails(\r\n        HousingTenure _tenureType,\r\n        uint256 _squareMetres\r\n    )\r\n        external\r\n        onlyOwner\r\n        onlyIfLegallyAllowed\r\n    {\r\n        propertyDetails.tenureType = _tenureType;\r\n        propertyDetails.squareMetres = _squareMetres;\r\n    }\r\n\r\n    function modifyPropertyAdress(string memory _street, string memory _streeNumber) external onlyIfLegallyAllowed onlyOwner {\r\n        propertyDetails.street = _street;\r\n        propertyDetails.streetNumber = _streeNumber;\r\n    }\r\n\r\n    function modifyPropertyTenureType(HousingTenure _tenureType) external onlyIfLegallyAllowed onlyOwner {\r\n        propertyDetails.tenureType = _tenureType;\r\n    }\r\n\r\n    function modifyPropertySquareMetres(uint256 _squareMetres) external onlyIfLegallyAllowed onlyOwner {\r\n        propertyDetails.squareMetres = _squareMetres;\r\n    }\r\n\r\n    function addPropertyAsForSale(\r\n        uint256 _sellingPriceIntegralPart, \r\n        uint256 _sellingPriceFractionalPart, \r\n        uint256 _sellingPriceFractionalPartLength\r\n    ) \r\n        external \r\n        onlyIfLegallyAllowed \r\n        onlyOwner \r\n    {\r\n        sellingPriceIntegralPart = _sellingPriceIntegralPart;\r\n        sellingPriceFractionalPart = _sellingPriceFractionalPart;\r\n        sellingPriceFractionalPartLength = _sellingPriceFractionalPartLength;\r\n        contractState = PropertyTitleContractState.FOR_SALE;\r\n    }\r\n\r\n    function buyProperty() external payable onlyIfPropertyForSale {\r\n        uint256 sellingPriceWeiValue = (sellingPriceIntegralPart * 10**18) + (sellingPriceFractionalPart * 10**18 / 10**sellingPriceFractionalPartLength);\r\n        (bool sent, bytes memory data) = owner.call{value: sellingPriceWeiValue }(\"\");\r\n        require(sent, \"Failed to send Ether.\");\r\n        contractState = PropertyTitleContractState.OWNED;\r\n        owner = payable(msg.sender);\r\n    }\r\n\r\n    function getContractDetails() public view returns (address, address, PropertyTitleContractState) {\r\n        return (creator, owner, contractState);\r\n    }\r\n\r\n    function validatePropertyDebts() public view returns (bool) {\r\n        /// TODO\r\n        if (!checkStringsEquality(propertyDetails.street, '')) {\r\n            return true;\r\n        }\r\n        return false;\r\n        /// TODO\r\n    }\r\n\r\n    function checkIfUserIsRegistrar() public view returns (bool) {\r\n        //address currentUser = msg.sender;\r\n        // registrarsArray = CentralContract.getRegistrarsArray();\r\n        // for (uint256 i = 0; i < registrarsArray.length; i++) {\r\n        //     if (currentUser == registrarsArray[i]) {\r\n        //         return true;\r\n        //     }\r\n        // }\r\n        return true;\r\n    }\r\n\r\n    function checkStringsEquality(string memory firstString, string memory secondString) public pure returns (bool) {\r\n        if (bytes(firstString).length != bytes(secondString).length) {\r\n            return false;\r\n        } else {\r\n            return keccak256(abi.encodePacked(firstString)) == keccak256(abi.encodePacked(secondString));\r\n        }\r\n    }\r\n\r\n    function checkIfStringIsFoundInStringsArray(\r\n        string memory stringToSearchFor,\r\n        string[] memory stringsArray\r\n    )\r\n        public\r\n        pure\r\n        returns (bool)\r\n    {\r\n        for (uint256 i = 0; i < stringsArray.length; i++) {\r\n            if (checkStringsEquality(stringToSearchFor, stringsArray[i])) {\r\n                return true;\r\n            }\r\n        }\r\n\r\n        return false;\r\n    }\r\n\r\n\r\n    modifier onlyCreator {\r\n        require(msg.sender == creator, \"Only the creator of the Contract has access to this!\");\r\n        _;\r\n    }\r\n\r\n    modifier onlyOwner {\r\n        require(msg.sender == owner, \"Only the owner of the Contract has access to this!\");\r\n        _;\r\n    }\r\n\r\n    modifier onlyIfLegallyAllowed {\r\n        require(validatePropertyDebts(), \"The property is not legally alright.\");\r\n        _;\r\n    }\r\n\r\n    modifier onlyIfUserIsRegistrar {\r\n        require(checkIfUserIsRegistrar(), \"Only a registered registrar has access to this action.\");\r\n        _;\r\n    }\r\n\r\n    modifier onlyIfPropertyForSale {\r\n        require(propertyDetails.tenureType == HousingTenure.OWNER_OCCUPANCY || propertyDetails.tenureType == HousingTenure.CONDOMIUM,\r\n            \"This property's tenure type does not support being sold\");\r\n        require(contractState == PropertyTitleContractState.FOR_SALE, \"This property is not for sale.\");\r\n        _;\r\n    }\r\n}",
  "sourcePath": "D:\\Propty\\propty\\contracts\\contracts\\PropertyTitle.sol",
  "compiler": {
    "name": "solc",
    "version": "0.8.16+commit.07a7930e.Emscripten.clang"
  },
  "schemaVersion": "3.4.9",
  "updatedAt": "2022-09-25T11:08:05.599Z",
  "networkType": "ethereum",
  "devdoc": {
    "kind": "dev",
    "methods": {},
    "version": 1
  },
  "userdoc": {
    "kind": "user",
    "methods": {},
    "version": 1
  }
}