{
  "contractName": "PropertyTitle",
  "abi": [
    {
      "inputs": [
        {
          "internalType": "address",
          "name": "_creator",
          "type": "address"
        },
        {
          "internalType": "address",
          "name": "_owner",
          "type": "address"
        },
        {
          "internalType": "string",
          "name": "_country",
          "type": "string"
        },
        {
          "internalType": "string",
          "name": "_city",
          "type": "string"
        },
        {
          "internalType": "string",
          "name": "_street",
          "type": "string"
        },
        {
          "internalType": "string",
          "name": "_streeNumber",
          "type": "string"
        },
        {
          "internalType": "uint256",
          "name": "_apartmentNumber",
          "type": "uint256"
        },
        {
          "internalType": "uint256",
          "name": "_squareMeters",
          "type": "uint256"
        },
        {
          "internalType": "uint256",
          "name": "_sellingPriceIntegralPart",
          "type": "uint256"
        },
        {
          "internalType": "uint256",
          "name": "_sellingPriceFractionalPart",
          "type": "uint256"
        },
        {
          "internalType": "uint256",
          "name": "_sellingPriceFractionalPartLength",
          "type": "uint256"
        }
      ],
      "stateMutability": "nonpayable",
      "type": "constructor"
    },
    {
      "inputs": [],
      "name": "contractState",
      "outputs": [
        {
          "internalType": "enum PropertyTitleContractState",
          "name": "",
          "type": "uint8"
        }
      ],
      "stateMutability": "view",
      "type": "function"
    },
    {
      "inputs": [],
      "name": "creator",
      "outputs": [
        {
          "internalType": "address",
          "name": "",
          "type": "address"
        }
      ],
      "stateMutability": "view",
      "type": "function"
    },
    {
      "inputs": [],
      "name": "owner",
      "outputs": [
        {
          "internalType": "address",
          "name": "",
          "type": "address"
        }
      ],
      "stateMutability": "view",
      "type": "function"
    },
    {
      "inputs": [],
      "name": "propertyDetails",
      "outputs": [
        {
          "internalType": "enum HousingTenure",
          "name": "tenureType",
          "type": "uint8"
        },
        {
          "internalType": "string",
          "name": "country",
          "type": "string"
        },
        {
          "internalType": "string",
          "name": "city",
          "type": "string"
        },
        {
          "internalType": "string",
          "name": "street",
          "type": "string"
        },
        {
          "internalType": "string",
          "name": "streetNumber",
          "type": "string"
        },
        {
          "internalType": "uint256",
          "name": "apartmentNumber",
          "type": "uint256"
        },
        {
          "internalType": "uint256",
          "name": "squareMeters",
          "type": "uint256"
        }
      ],
      "stateMutability": "view",
      "type": "function"
    },
    {
      "inputs": [],
      "name": "requiredDocuments",
      "outputs": [
        {
          "internalType": "string",
          "name": "proofOfIdentityState",
          "type": "string"
        },
        {
          "internalType": "string",
          "name": "propertyTitleDeedsState",
          "type": "string"
        },
        {
          "internalType": "string",
          "name": "energyPerformanceCertificateState",
          "type": "string"
        },
        {
          "internalType": "string",
          "name": "extensionsAndAlterationsDocumentationState",
          "type": "string"
        },
        {
          "internalType": "string",
          "name": "utilityBillsPaidState",
          "type": "string"
        }
      ],
      "stateMutability": "view",
      "type": "function"
    },
    {
      "inputs": [],
      "name": "sellingPrice",
      "outputs": [
        {
          "internalType": "uint256",
          "name": "sellingPriceIntegralPart",
          "type": "uint256"
        },
        {
          "internalType": "uint256",
          "name": "sellingPriceFractionalPart",
          "type": "uint256"
        },
        {
          "internalType": "uint256",
          "name": "sellingPriceFractionalPartLength",
          "type": "uint256"
        }
      ],
      "stateMutability": "view",
      "type": "function"
    },
    {
      "stateMutability": "payable",
      "type": "receive"
    },
    {
      "inputs": [
        {
          "internalType": "address payable",
          "name": "_owner",
          "type": "address"
        },
        {
          "internalType": "enum PropertyTitleContractState",
          "name": "_contractState",
          "type": "uint8"
        }
      ],
      "name": "modifyContractStateAndOwner",
      "outputs": [],
      "stateMutability": "nonpayable",
      "type": "function"
    },
    {
      "inputs": [
        {
          "internalType": "enum HousingTenure",
          "name": "_tenureType",
          "type": "uint8"
        },
        {
          "internalType": "uint256",
          "name": "_squareMeters",
          "type": "uint256"
        }
      ],
      "name": "insertPropertyDetails",
      "outputs": [],
      "stateMutability": "nonpayable",
      "type": "function"
    },
    {
      "inputs": [
        {
          "internalType": "enum PropertyTitleContractState",
          "name": "_contractState",
          "type": "uint8"
        }
      ],
      "name": "modifyContractState",
      "outputs": [],
      "stateMutability": "nonpayable",
      "type": "function"
    },
    {
      "inputs": [
        {
          "internalType": "string",
          "name": "_street",
          "type": "string"
        },
        {
          "internalType": "string",
          "name": "_streeNumber",
          "type": "string"
        }
      ],
      "name": "modifyPropertyAdress",
      "outputs": [],
      "stateMutability": "nonpayable",
      "type": "function"
    },
    {
      "inputs": [
        {
          "internalType": "uint256",
          "name": "_sellingPriceIntegralPart",
          "type": "uint256"
        },
        {
          "internalType": "uint256",
          "name": "_sellingPriceFractionalPart",
          "type": "uint256"
        },
        {
          "internalType": "uint256",
          "name": "_sellingPriceFractionalPartLength",
          "type": "uint256"
        },
        {
          "internalType": "enum HousingTenure",
          "name": "_tenureType",
          "type": "uint8"
        },
        {
          "internalType": "uint256",
          "name": "_squareMeters",
          "type": "uint256"
        }
      ],
      "name": "modifyPropertyPriceAndTenureAndMeters",
      "outputs": [],
      "stateMutability": "nonpayable",
      "type": "function"
    },
    {
      "inputs": [
        {
          "internalType": "enum HousingTenure",
          "name": "_tenureType",
          "type": "uint8"
        }
      ],
      "name": "modifyPropertyTenureType",
      "outputs": [],
      "stateMutability": "nonpayable",
      "type": "function"
    },
    {
      "inputs": [
        {
          "internalType": "uint256",
          "name": "_squareMeters",
          "type": "uint256"
        }
      ],
      "name": "modifyPropertySquareMeters",
      "outputs": [],
      "stateMutability": "nonpayable",
      "type": "function"
    },
    {
      "inputs": [
        {
          "internalType": "uint256",
          "name": "_sellingPriceIntegralPart",
          "type": "uint256"
        },
        {
          "internalType": "uint256",
          "name": "_sellingPriceFractionalPart",
          "type": "uint256"
        },
        {
          "internalType": "uint256",
          "name": "_sellingPriceFractionalPartLength",
          "type": "uint256"
        }
      ],
      "name": "setPropertySellingPrice",
      "outputs": [],
      "stateMutability": "nonpayable",
      "type": "function"
    },
    {
      "inputs": [
        {
          "internalType": "string",
          "name": "_proofOfIdentity",
          "type": "string"
        },
        {
          "internalType": "string",
          "name": "_propertyTitleDeeds",
          "type": "string"
        },
        {
          "internalType": "string",
          "name": "_energyPerformanceCertificate",
          "type": "string"
        },
        {
          "internalType": "string",
          "name": "_extensionsAndAlterationsDocumentation",
          "type": "string"
        },
        {
          "internalType": "string",
          "name": "_utilityBillsPaid",
          "type": "string"
        },
        {
          "internalType": "enum PropertyTitleContractState",
          "name": "_contractState",
          "type": "uint8"
        }
      ],
      "name": "setRequiredDocumentsStateAndContractState",
      "outputs": [],
      "stateMutability": "nonpayable",
      "type": "function"
    },
    {
      "inputs": [],
      "name": "getPropertySellingPrice",
      "outputs": [
        {
          "internalType": "uint256",
          "name": "",
          "type": "uint256"
        }
      ],
      "stateMutability": "view",
      "type": "function"
    },
    {
      "inputs": [],
      "name": "getContractDetails",
      "outputs": [
        {
          "internalType": "address",
          "name": "",
          "type": "address"
        },
        {
          "internalType": "address",
          "name": "",
          "type": "address"
        },
        {
          "internalType": "enum PropertyTitleContractState",
          "name": "",
          "type": "uint8"
        }
      ],
      "stateMutability": "view",
      "type": "function"
    },
    {
      "inputs": [],
      "name": "getFullPropertyAddress",
      "outputs": [
        {
          "internalType": "string",
          "name": "",
          "type": "string"
        }
      ],
      "stateMutability": "view",
      "type": "function"
    },
    {
      "inputs": [],
      "name": "checkIfAllDocumentsAreProvided",
      "outputs": [
        {
          "internalType": "bool",
          "name": "",
          "type": "bool"
        }
      ],
      "stateMutability": "view",
      "type": "function"
    },
    {
      "inputs": [
        {
          "internalType": "string",
          "name": "firstString",
          "type": "string"
        },
        {
          "internalType": "string",
          "name": "secondString",
          "type": "string"
        }
      ],
      "name": "checkStringsEquality",
      "outputs": [
        {
          "internalType": "bool",
          "name": "",
          "type": "bool"
        }
      ],
      "stateMutability": "pure",
      "type": "function"
    },
    {
      "inputs": [
        {
          "internalType": "string",
          "name": "stringToSearchFor",
          "type": "string"
        },
        {
          "internalType": "string[]",
          "name": "stringsArray",
          "type": "string[]"
        }
      ],
      "name": "checkIfStringIsFoundInStringsArray",
      "outputs": [
        {
          "internalType": "bool",
          "name": "",
          "type": "bool"
        }
      ],
      "stateMutability": "pure",
      "type": "function"
    }
  ],
  "bytecode": "0x60806040523480156200001157600080fd5b50604051620026e8380380620026e8833981016040819052620000349162000322565b60048054600160a060020a038d8116600160a060020a03199283161790925560058054928d16929091169190911790556000805460ff1916905560076200007c8a82620004ec565b5060086200008b8982620004ec565b5060096200009a8882620004ec565b50600a620000a98782620004ec565b50600b859055600c848155600184905560028390556003829055604080518082019091529081527f4e6f742050726f766964656400000000000000000000000000000000000000006020820152600d90620001059082620004ec565b5060408051808201909152600c81527f4e6f742050726f766964656400000000000000000000000000000000000000006020820152600e90620001499082620004ec565b5060408051808201909152600c81527f4e6f742050726f766964656400000000000000000000000000000000000000006020820152600f906200018d9082620004ec565b5060408051808201909152600c81527f4e6f742050726f766964656400000000000000000000000000000000000000006020820152601090620001d19082620004ec565b5060408051808201909152600c81527f4e6f742050726f766964656400000000000000000000000000000000000000006020820152601190620002159082620004ec565b505050505050505050505050620005be565b8051600160a060020a03811681146200023f57600080fd5b919050565b7f4e487b7100000000000000000000000000000000000000000000000000000000600052604160045260246000fd5b600082601f8301126200028557600080fd5b81516001604060020a0380821115620002a257620002a262000244565b604051601f8301601f19908116603f01168101908282118183101715620002cd57620002cd62000244565b81604052838152602092508683858801011115620002ea57600080fd5b600091505b838210156200030e5785820183015181830184015290820190620002ef565b600093810190920192909252949350505050565b60008060008060008060008060008060006101608c8e0312156200034557600080fd5b620003508c62000227565b9a506200036060208d0162000227565b995060408c01516001604060020a038111156200037c57600080fd5b6200038a8e828f0162000273565b99505060608c01516001604060020a03811115620003a757600080fd5b620003b58e828f0162000273565b98505060808c01516001604060020a03811115620003d257600080fd5b620003e08e828f0162000273565b97505060a08c01516001604060020a03811115620003fd57600080fd5b6200040b8e828f0162000273565b96505060c08c0151945060e08c015193506101008c015192506101208c015191506101408c015190509295989b509295989b9093969950565b6002810460018216806200045957607f821691505b60208210810362000493577f4e487b7100000000000000000000000000000000000000000000000000000000600052602260045260246000fd5b50919050565b601f821115620004e7576000818152602081206020601f86010481016020861015620004c25750805b6020601f860104820191505b81811015620004e357828155600101620004ce565b5050505b505050565b81516001604060020a0381111562000508576200050862000244565b620005208162000519845462000444565b8462000499565b602080601f8311600181146200055c57600084156200053f5750858301515b60028086026008870290910a6000190419821617865550620004e3565b600085815260208120601f198616915b828110156200058d578886015182559484019460019091019084016200056c565b5085821015620005ae57878501516008601f88160260020a60001904191681555b5050505050600202600101905550565b61211a80620005ce6000396000f3fe60806040526004361061014a576000357c01000000000000000000000000000000000000000000000000000000009004806385209ee0116100c857806397035a071161008c57806397035a07146105eb5780639dfc91171461060b578063b3cbb32c1461063f578063b6366d921461065f578063daca4eef1461067f578063f5cfb032146106a557600080fd5b806385209ee01461054f57806385329517146105765780638d97bee8146105965780638da5cb5b146105b6578063953fe3cc146105d657600080fd5b80635293c8381161010f5780635293c8381461049a578063536f5c36146104ca57806372b50109146104ed57806374bdde491461050d578063790d15de1461052d57600080fd5b80627dc372146103b557806302d05d3f146103e657806312821b5e1461041e5780633d7a44921461045857806341fa17661461047a57600080fd5b366103b05760006006805460ff1690811115610168576101686115cc565b148061018a575060036006805460ff1690811115610188576101886115cc565b145b6102045760405160e560020a62461bcd02815260206004820152603760248201527f546869732070726f706572747927732074656e757265207479706520646f657360448201527f206e6f7420737570706f7274206265696e6720736f6c6400000000000000000060648201526084015b60405180910390fd5b600260005460ff16600381111561021d5761021d6115cc565b1461026d5760405160e560020a62461bcd02815260206004820152601e60248201527f546869732070726f7065727479206973206e6f7420666f722073616c652e000060448201526064016101fb565b600360005460ff166003811115610286576102866115cc565b036102a65760405160e560020a62461bcd0281526004016101fb906115e5565b6003546000906102b790601261165b565b6102c290600a611755565b6002546102cf9190611768565b6001546102e490670de0b6b3a7640000611768565b6102ee9190611787565b905033318111156103445760405160e560020a62461bcd02815260206004820152601260248201527f496e73756666696369656e742066756e6473000000000000000000000000000060448201526064016101fb565b600554604051600160a060020a03909116903480156108fc02916000818181858888f1935050505015801561037d573d6000803e3d6000fd5b506000805460ff19166001179055600580543373ffffffffffffffffffffffffffffffffffffffff199091168117909155005b600080fd5b3480156103c157600080fd5b506103ca6106c5565b6040516103dd97969594939291906117ea565b60405180910390f35b3480156103f257600080fd5b5060045461040690600160a060020a031681565b604051600160a060020a0390911681526020016103dd565b34801561042a57600080fd5b5060015460025460035461043d92919083565b604080519384526020840192909252908201526060016103dd565b34801561046457600080fd5b5061047861047336600461191e565b610916565b005b34801561048657600080fd5b50610478610495366004611996565b6109c1565b3480156104a657600080fd5b506104ba6104b53660046119dd565b610a93565b60405190151581526020016103dd565b3480156104d657600080fd5b506104df610af0565b6040519081526020016103dd565b3480156104f957600080fd5b50610478610508366004611ad2565b610b3a565b34801561051957600080fd5b50610478610528366004611b13565b610c6d565b34801561053957600080fd5b50610542610dbd565b6040516103dd9190611bf4565b34801561055b57600080fd5b506000546105699060ff1681565b6040516103dd9190611c1b565b34801561058257600080fd5b50610478610591366004611c29565b610def565b3480156105a257600080fd5b506104786105b1366004611c55565b610e8a565b3480156105c257600080fd5b5060055461040690600160a060020a031681565b3480156105e257600080fd5b506104ba610f40565b3480156105f757600080fd5b50610478610606366004611c7f565b611087565b34801561061757600080fd5b506004546005546000546040516103dd93600160a060020a0390811693169160ff1690611c9a565b34801561064b57600080fd5b506104ba61065a36600461191e565b61114d565b34801561066b57600080fd5b5061047861067a366004611cc7565b6111b6565b34801561068b57600080fd5b5061069461125a565b6040516103dd959493929190611ce0565b3480156106b157600080fd5b506104786106c0366004611d4d565b611524565b600680546007805460ff90921692916106dd90611d68565b80601f016020809104026020016040519081016040528092919081815260200182805461070990611d68565b80156107565780601f1061072b57610100808354040283529160200191610756565b820191906000526020600020905b81548152906001019060200180831161073957829003601f168201915b50505050509080600201805461076b90611d68565b80601f016020809104026020016040519081016040528092919081815260200182805461079790611d68565b80156107e45780601f106107b9576101008083540402835291602001916107e4565b820191906000526020600020905b8154815290600101906020018083116107c757829003601f168201915b5050505050908060030180546107f990611d68565b80601f016020809104026020016040519081016040528092919081815260200182805461082590611d68565b80156108725780601f1061084757610100808354040283529160200191610872565b820191906000526020600020905b81548152906001019060200180831161085557829003601f168201915b50505050509080600401805461088790611d68565b80601f01602080910402602001604051908101604052809291908181526020018280546108b390611d68565b80156109005780601f106108d557610100808354040283529160200191610900565b820191906000526020600020905b8154815290600101906020018083116108e357829003601f168201915b5050505050908060050154908060060154905087565b61091e610f40565b61093d5760405160e560020a62461bcd0281526004016101fb90611da5565b600554600160a060020a0316331461096a5760405160e560020a62461bcd0281526004016101fb90611e02565b600360005460ff166003811115610983576109836115cc565b036109a35760405160e560020a62461bcd0281526004016101fb906115e5565b60096109af8382611ead565b50600a6109bc8282611ead565b505050565b6109c9610f40565b6109e85760405160e560020a62461bcd0281526004016101fb90611da5565b600554600160a060020a03163314610a155760405160e560020a62461bcd0281526004016101fb90611e02565b600360005460ff166003811115610a2e57610a2e6115cc565b03610a4e5760405160e560020a62461bcd0281526004016101fb906115e5565b60018581556002859055600384905560068054849260ff19909116908383811115610a7b57610a7b6115cc565b0217905550600c5550506000805460ff191690555050565b6000805b8251811015610ae457610ac384848381518110610ab657610ab6611f73565b602002602001015161114d565b15610ad2576001915050610aea565b80610adc81611f8c565b915050610a97565b50600090505b92915050565b6003546000908190610b0390601261165b565b610b0e90600a611755565b600254610b1b9190611768565b600154610b3090670de0b6b3a7640000611768565b610aea9190611787565b600480546040517ff33c4ff90000000000000000000000000000000000000000000000000000000081523392810192909252600160a060020a03169063f33c4ff990602401602060405180830381865afa158015610b9c573d6000803e3d6000fd5b505050506040513d601f19601f82011682018060405250810190610bc09190611fa5565b1515600114610be45760405160e560020a62461bcd0281526004016101fb90611fc7565b600360005460ff166003811115610bfd57610bfd6115cc565b03610c1d5760405160e560020a62461bcd0281526004016101fb906115e5565b6005805473ffffffffffffffffffffffffffffffffffffffff1916600160a060020a0384161790556000805482919060ff19166001836003811115610c6457610c646115cc565b02179055505050565b600480546040517ff33c4ff90000000000000000000000000000000000000000000000000000000081523392810192909252600160a060020a03169063f33c4ff990602401602060405180830381865afa158015610ccf573d6000803e3d6000fd5b505050506040513d601f19601f82011682018060405250810190610cf39190611fa5565b1515600114610d175760405160e560020a62461bcd0281526004016101fb90611fc7565b600360005460ff166003811115610d3057610d306115cc565b03610d505760405160e560020a62461bcd0281526004016101fb906115e5565b600d610d5c8782611ead565b50600e610d698682611ead565b50600f610d768582611ead565b506010610d838482611ead565b506011610d908382611ead565b506000805482919060ff19166001836003811115610db057610db06115cc565b0217905550505050505050565b604051606090610ddb90600790600890600990600a90602001612097565b604051602081830303815290604052905090565b610df7610f40565b610e165760405160e560020a62461bcd0281526004016101fb90611da5565b600554600160a060020a03163314610e435760405160e560020a62461bcd0281526004016101fb90611e02565b600360005460ff166003811115610e5c57610e5c6115cc565b03610e7c5760405160e560020a62461bcd0281526004016101fb906115e5565b600192909255600255600355565b600554600160a060020a03163314610eb75760405160e560020a62461bcd0281526004016101fb90611e02565b610ebf610f40565b610ede5760405160e560020a62461bcd0281526004016101fb90611da5565b600360005460ff166003811115610ef757610ef76115cc565b03610f175760405160e560020a62461bcd0281526004016101fb906115e5565b6006805483919060ff191660018383811115610f3557610f356115cc565b0217905550600c5550565b600061100e600d6000018054610f5590611d68565b80601f0160208091040260200160405190810160405280929190818152602001828054610f8190611d68565b8015610fce5780601f10610fa357610100808354040283529160200191610fce565b820191906000526020600020905b815481529060010190602001808311610fb157829003601f168201915b50505050506040518060400160405280600881526020017f50726f766964656400000000000000000000000000000000000000000000000081525061114d565b80156110285750611028600d6001018054610f5590611d68565b80156110425750611042600d6002018054610f5590611d68565b801561105c575061105c600d6003018054610f5590611d68565b80156110765750611076600d6004018054610f5590611d68565b156110815750600190565b50600090565b61108f610f40565b6110ae5760405160e560020a62461bcd0281526004016101fb90611da5565b600554600160a060020a031633146110db5760405160e560020a62461bcd0281526004016101fb90611e02565b600360005460ff1660038111156110f4576110f46115cc565b036111145760405160e560020a62461bcd0281526004016101fb906115e5565b6006805482919060ff191660018383811115611132576111326115cc565b021790555060008054819060ff19166001825b021790555050565b6000815183511461116057506000610aea565b8160405160200161117191906120c8565b604051602081830303815290604052805190602001208360405160200161119891906120c8565b60405160208183030381529060405280519060200120149050610aea565b6111be610f40565b6111dd5760405160e560020a62461bcd0281526004016101fb90611da5565b600554600160a060020a0316331461120a5760405160e560020a62461bcd0281526004016101fb90611e02565b600360005460ff166003811115611223576112236115cc565b036112435760405160e560020a62461bcd0281526004016101fb906115e5565b600c81905560008054819060ff1916600182611145565b600d8054819061126990611d68565b80601f016020809104026020016040519081016040528092919081815260200182805461129590611d68565b80156112e25780601f106112b7576101008083540402835291602001916112e2565b820191906000526020600020905b8154815290600101906020018083116112c557829003601f168201915b5050505050908060010180546112f790611d68565b80601f016020809104026020016040519081016040528092919081815260200182805461132390611d68565b80156113705780601f1061134557610100808354040283529160200191611370565b820191906000526020600020905b81548152906001019060200180831161135357829003601f168201915b50505050509080600201805461138590611d68565b80601f01602080910402602001604051908101604052809291908181526020018280546113b190611d68565b80156113fe5780601f106113d3576101008083540402835291602001916113fe565b820191906000526020600020905b8154815290600101906020018083116113e157829003601f168201915b50505050509080600301805461141390611d68565b80601f016020809104026020016040519081016040528092919081815260200182805461143f90611d68565b801561148c5780601f106114615761010080835404028352916020019161148c565b820191906000526020600020905b81548152906001019060200180831161146f57829003601f168201915b5050505050908060040180546114a190611d68565b80601f01602080910402602001604051908101604052809291908181526020018280546114cd90611d68565b801561151a5780601f106114ef5761010080835404028352916020019161151a565b820191906000526020600020905b8154815290600101906020018083116114fd57829003601f168201915b5050505050905085565b61152c610f40565b61154b5760405160e560020a62461bcd0281526004016101fb90611da5565b600554600160a060020a031633146115785760405160e560020a62461bcd0281526004016101fb90611e02565b600360005460ff166003811115611591576115916115cc565b036115b15760405160e560020a62461bcd0281526004016101fb906115e5565b6000805482919060ff19166001836003811115611145576111455b60e060020a634e487b7102600052602160045260246000fd5b60208082526032908201527f546869732050726f7065727479205469746c6520436f6e74726163742069732060408201527f6e6f206c6f6e6765722072656c6176616e740000000000000000000000000000606082015260800190565b60e060020a634e487b7102600052601160045260246000fd5b81810381811115610aea57610aea611642565b600181815b808511156116ab57816000190482111561168f5761168f611642565b8085161561169c57918102915b60029094049390800290611673565b509250929050565b6000826116c257506001610aea565b816116cf57506000610aea565b81600181146116e557600281146116ef5761170c565b6001915050610aea565b60ff84111561170057611700611642565b8360020a915050610aea565b5060208310610133831016604e8410600b841016171561172f575081810a610aea565b611739838361166e565b806000190482111561174d5761174d611642565b029392505050565b600061176183836116b3565b9392505050565b600081600019048311821515161561178257611782611642565b500290565b80820180821115610aea57610aea611642565b60005b838110156117b557818101518382015260200161179d565b50506000910152565b600081518084526117d681602086016020860161179a565b601f01601f19169290920160200192915050565b6000600789106117fc576117fc6115cc565b88825260e0602083015261181360e08301896117be565b828103604084015261182581896117be565b9050828103606084015261183981886117be565b9050828103608084015261184d81876117be565b60a0840195909552505060c0015295945050505050565b60e060020a634e487b7102600052604160045260246000fd5b604051601f8201601f1916810167ffffffffffffffff811182821017156118a6576118a6611864565b604052919050565b600082601f8301126118bf57600080fd5b813567ffffffffffffffff8111156118d9576118d9611864565b6118ec601f8201601f191660200161187d565b81815284602083860101111561190157600080fd5b816020850160208301376000918101602001919091529392505050565b6000806040838503121561193157600080fd5b823567ffffffffffffffff8082111561194957600080fd5b611955868387016118ae565b9350602085013591508082111561196b57600080fd5b50611978858286016118ae565b9150509250929050565b80356007811061199157600080fd5b919050565b600080600080600060a086880312156119ae57600080fd5b8535945060208601359350604086013592506119cc60608701611982565b949793965091946080013592915050565b600080604083850312156119f057600080fd5b823567ffffffffffffffff80821115611a0857600080fd5b611a14868387016118ae565b9350602091508185013581811115611a2b57600080fd5b8501601f81018713611a3c57600080fd5b803582811115611a4e57611a4e611864565b838102611a5c85820161187d565b918252828101850191858101908a841115611a7657600080fd5b86850192505b83831015611ab257823586811115611a945760008081fd5b611aa28c89838901016118ae565b8352509186019190860190611a7c565b809750505050505050509250929050565b80356004811061199157600080fd5b60008060408385031215611ae557600080fd5b8235600160a060020a0381168114611afc57600080fd5b9150611b0a60208401611ac3565b90509250929050565b60008060008060008060c08789031215611b2c57600080fd5b863567ffffffffffffffff80821115611b4457600080fd5b611b508a838b016118ae565b97506020890135915080821115611b6657600080fd5b611b728a838b016118ae565b96506040890135915080821115611b8857600080fd5b611b948a838b016118ae565b95506060890135915080821115611baa57600080fd5b611bb68a838b016118ae565b94506080890135915080821115611bcc57600080fd5b50611bd989828a016118ae565b925050611be860a08801611ac3565b90509295509295509295565b60208152600061176160208301846117be565b60048110611c1757611c176115cc565b9052565b60208101610aea8284611c07565b600080600060608486031215611c3e57600080fd5b505081359360208301359350604090920135919050565b60008060408385031215611c6857600080fd5b611c7183611982565b946020939093013593505050565b600060208284031215611c9157600080fd5b61176182611982565b600160a060020a0384811682528316602082015260608101611cbf6040830184611c07565b949350505050565b600060208284031215611cd957600080fd5b5035919050565b60a081526000611cf360a08301886117be565b8281036020840152611d0581886117be565b90508281036040840152611d1981876117be565b90508281036060840152611d2d81866117be565b90508281036080840152611d4181856117be565b98975050505050505050565b600060208284031215611d5f57600080fd5b61176182611ac3565b600281046001821680611d7c57607f821691505b602082108103611d9f5760e060020a634e487b7102600052602260045260246000fd5b50919050565b60208082526024908201527f5468652070726f7065727479206973206e6f74206c6567616c6c7920616c726960408201527f6768742e00000000000000000000000000000000000000000000000000000000606082015260800190565b60208082526032908201527f4f6e6c7920746865206f776e6572206f662074686520436f6e7472616374206860408201527f61732061636365737320746f2074686973210000000000000000000000000000606082015260800190565b601f8211156109bc576000818152602081206020601f86010481016020861015611e865750805b6020601f860104820191505b81811015611ea557828155600101611e92565b505050505050565b815167ffffffffffffffff811115611ec757611ec7611864565b611edb81611ed58454611d68565b84611e5f565b602080601f831160018114611f145760008415611ef85750858301515b60028086026008870290910a6000190419821617865550611ea5565b600085815260208120601f198616915b82811015611f4357888601518255948401946001909101908401611f24565b5085821015611f6357878501516008601f88160260020a60001904191681555b5050505050600202600101905550565b60e060020a634e487b7102600052603260045260246000fd5b600060018201611f9e57611f9e611642565b5060010190565b600060208284031215611fb757600080fd5b8151801515811461176157600080fd5b60208082526036908201527f4f6e6c792061207265676973746572656420726567697374726172206861732060408201527f61636365737320746f207468697320616374696f6e2e00000000000000000000606082015260800190565b6000815461203181611d68565b60018281168015612049576001811461205e5761208d565b60ff198416875282151583028701945061208d565b8560005260208060002060005b858110156120845781548a82015290840190820161206b565b50505082870194505b5050505092915050565b60006120be6120b86120b26120ac858a612024565b88612024565b86612024565b84612024565b9695505050505050565b600082516120da81846020870161179a565b919091019291505056fea26469706673582212204062e15577df2f00090d795e1ecb8f8cf128405f5ea2684867faad8babf31b5f64736f6c63430008100033",
  "immutableReferences": {},
  "source": "//SPDX-License-Identifier: MIT\r\npragma solidity ^0.8.15;\r\n\r\ninterface ITitleCreatingContract {\r\n    function checkIfUserIsRegistrar(address _userAddress) external view returns (bool);\r\n}\r\n\r\nenum PropertyTitleContractState { PENDING, OWNED, FOR_SALE, NO_LONGER_RELEVANT }\r\n\r\nenum HousingTenure {\r\n    OWNER_OCCUPANCY,\r\n    TENANCY,\r\n    COOPERATIVE,\r\n    CONDOMIUM,\r\n    PUBLIC_HOUSING,\r\n    SQUATTING,\r\n    LAND_TRUST\r\n}\r\n\r\nstruct PropertyDetails {\r\n    HousingTenure tenureType;\r\n    string country;\r\n    string city;\r\n    string street;\r\n    string streetNumber;\r\n    uint256 apartmentNumber;\r\n    uint256 squareMeters;\r\n}\r\n\r\nstruct RequiredPropertyDocuments {\r\n    string proofOfIdentityState;\r\n    string propertyTitleDeedsState;\r\n    string energyPerformanceCertificateState;\r\n    string extensionsAndAlterationsDocumentationState;\r\n    string utilityBillsPaidState;\r\n}\r\n\r\nstruct SellingPrice {\r\n    uint256 sellingPriceIntegralPart;\r\n    uint256 sellingPriceFractionalPart;\r\n    uint256 sellingPriceFractionalPartLength;\r\n}\r\n\r\n\r\ncontract PropertyTitle {\r\n    PropertyTitleContractState public contractState;\r\n    SellingPrice public sellingPrice;\r\n    address public creator;\r\n    address public owner;\r\n    PropertyDetails public propertyDetails;\r\n    RequiredPropertyDocuments public requiredDocuments;\r\n\r\n    constructor(\r\n        address _creator,\r\n        address _owner,\r\n        string memory _country,\r\n        string memory _city,\r\n        string memory _street,\r\n        string memory _streeNumber,\r\n        uint256 _apartmentNumber,\r\n        uint256 _squareMeters,\r\n        uint256 _sellingPriceIntegralPart,\r\n        uint256 _sellingPriceFractionalPart,\r\n        uint256  _sellingPriceFractionalPartLength\r\n    )\r\n    {\r\n        creator = _creator;\r\n        owner = _owner;\r\n        contractState = PropertyTitleContractState.PENDING;\r\n        propertyDetails.country = _country;\r\n        propertyDetails.city = _city;\r\n        propertyDetails.street = _street;\r\n        propertyDetails.streetNumber = _streeNumber;\r\n        propertyDetails.apartmentNumber = _apartmentNumber;\r\n        propertyDetails.squareMeters = _squareMeters;\r\n        sellingPrice.sellingPriceIntegralPart = _sellingPriceIntegralPart;\r\n        sellingPrice.sellingPriceFractionalPart = _sellingPriceFractionalPart;\r\n        sellingPrice.sellingPriceFractionalPartLength = _sellingPriceFractionalPartLength;\r\n\r\n        requiredDocuments.proofOfIdentityState = 'Not Provided';\r\n        requiredDocuments.propertyTitleDeedsState = 'Not Provided';\r\n        requiredDocuments.energyPerformanceCertificateState = 'Not Provided';\r\n        requiredDocuments.extensionsAndAlterationsDocumentationState = 'Not Provided';\r\n        requiredDocuments.utilityBillsPaidState = 'Not Provided';\r\n    }\r\n\r\n    receive() external payable onlyIfPropertyForSale onlyRelevantProperty \r\n    {\r\n        uint256 sellingPriceWeiValue = (sellingPrice.sellingPriceIntegralPart * 10**18) + (sellingPrice.sellingPriceFractionalPart * 10**(18-sellingPrice.sellingPriceFractionalPartLength));\r\n        require(msg.sender.balance >= sellingPriceWeiValue, 'Insufficient funds');\r\n        payable(owner).transfer(msg.value);\r\n        contractState = PropertyTitleContractState.OWNED;\r\n        owner = payable(msg.sender);\r\n    }\r\n\r\n    function modifyContractStateAndOwner(\r\n        address payable _owner, \r\n        PropertyTitleContractState _contractState\r\n    )\r\n        external \r\n        onlyRegistrar\r\n        onlyRelevantProperty\r\n    {\r\n        owner = _owner;\r\n        contractState = _contractState;\r\n    }\r\n\r\n    function insertPropertyDetails(\r\n        HousingTenure _tenureType,\r\n        uint256 _squareMeters\r\n    )\r\n        external\r\n        onlyOwner\r\n        onlyIfLegallyAllowed\r\n        onlyRelevantProperty\r\n    {\r\n        propertyDetails.tenureType = _tenureType;\r\n        propertyDetails.squareMeters = _squareMeters;\r\n    }\r\n\r\n    function modifyContractState(PropertyTitleContractState _contractState) external onlyIfLegallyAllowed onlyOwner onlyRelevantProperty {\r\n        contractState = _contractState;\r\n    }\r\n\r\n    function modifyPropertyAdress(string memory _street, string memory _streeNumber) external onlyIfLegallyAllowed onlyOwner onlyRelevantProperty {\r\n        propertyDetails.street = _street;\r\n        propertyDetails.streetNumber = _streeNumber;\r\n    }\r\n\r\n    function modifyPropertyPriceAndTenureAndMeters(\r\n        uint256 _sellingPriceIntegralPart, \r\n        uint256 _sellingPriceFractionalPart, \r\n        uint256 _sellingPriceFractionalPartLength,\r\n        HousingTenure _tenureType,\r\n        uint256 _squareMeters\r\n    )\r\n        external\r\n        onlyIfLegallyAllowed\r\n        onlyOwner\r\n        onlyRelevantProperty\r\n    {\r\n        sellingPrice.sellingPriceIntegralPart = _sellingPriceIntegralPart;\r\n        sellingPrice.sellingPriceFractionalPart = _sellingPriceFractionalPart;\r\n        sellingPrice.sellingPriceFractionalPartLength = _sellingPriceFractionalPartLength;\r\n        propertyDetails.tenureType = _tenureType;\r\n        propertyDetails.squareMeters = _squareMeters;\r\n        contractState = PropertyTitleContractState.PENDING;\r\n    }\r\n\r\n    function modifyPropertyTenureType(HousingTenure _tenureType) external onlyIfLegallyAllowed onlyOwner onlyRelevantProperty {\r\n        propertyDetails.tenureType = _tenureType;\r\n        contractState = PropertyTitleContractState.PENDING;\r\n    }\r\n\r\n    function modifyPropertySquareMeters(uint256 _squareMeters) external onlyIfLegallyAllowed onlyOwner onlyRelevantProperty {\r\n        propertyDetails.squareMeters = _squareMeters;\r\n        contractState = PropertyTitleContractState.PENDING;\r\n    }\r\n\r\n    function setPropertySellingPrice(\r\n        uint256 _sellingPriceIntegralPart, \r\n        uint256 _sellingPriceFractionalPart, \r\n        uint256 _sellingPriceFractionalPartLength\r\n    ) \r\n        external \r\n        onlyIfLegallyAllowed \r\n        onlyOwner \r\n        onlyRelevantProperty\r\n    {\r\n        sellingPrice.sellingPriceIntegralPart = _sellingPriceIntegralPart;\r\n        sellingPrice.sellingPriceFractionalPart = _sellingPriceFractionalPart;\r\n        sellingPrice.sellingPriceFractionalPartLength = _sellingPriceFractionalPartLength;\r\n    }\r\n\r\n    function setRequiredDocumentsStateAndContractState(\r\n        string memory _proofOfIdentity,\r\n        string memory _propertyTitleDeeds,\r\n        string memory _energyPerformanceCertificate,\r\n        string memory _extensionsAndAlterationsDocumentation,\r\n        string memory _utilityBillsPaid,\r\n        PropertyTitleContractState _contractState\r\n    )\r\n        external\r\n        onlyRegistrar\r\n        onlyRelevantProperty\r\n    {\r\n        requiredDocuments.proofOfIdentityState = _proofOfIdentity;\r\n        requiredDocuments.propertyTitleDeedsState = _propertyTitleDeeds;\r\n        requiredDocuments.energyPerformanceCertificateState = _energyPerformanceCertificate;\r\n        requiredDocuments.extensionsAndAlterationsDocumentationState = _extensionsAndAlterationsDocumentation;\r\n        requiredDocuments.utilityBillsPaidState = _utilityBillsPaid;\r\n        contractState = _contractState;\r\n    }\r\n\r\n    function getPropertySellingPrice() public view returns (uint256) {\r\n        uint256 sellingPriceWeiValue = (sellingPrice.sellingPriceIntegralPart * 10**18) + (sellingPrice.sellingPriceFractionalPart * 10**(18-sellingPrice.sellingPriceFractionalPartLength));\r\n        return sellingPriceWeiValue;\r\n    }\r\n\r\n    function getContractDetails() public view returns (address, address, PropertyTitleContractState) {\r\n        return (creator, owner, contractState);\r\n    }\r\n\r\n    function getFullPropertyAddress() public view returns (string memory) {\r\n        return string.concat(propertyDetails.country, propertyDetails.city, propertyDetails.street, propertyDetails.streetNumber);\r\n    }\r\n\r\n    function checkIfAllDocumentsAreProvided() public view returns (bool) {\r\n        if (checkStringsEquality(requiredDocuments.proofOfIdentityState, 'Provided') \r\n            && checkStringsEquality(requiredDocuments.propertyTitleDeedsState, 'Provided') \r\n            && checkStringsEquality(requiredDocuments.energyPerformanceCertificateState, 'Provided') \r\n            && checkStringsEquality(requiredDocuments.extensionsAndAlterationsDocumentationState, 'Provided') \r\n            && checkStringsEquality(requiredDocuments.utilityBillsPaidState, 'Provided')) {\r\n                return true;\r\n        }\r\n        return false;\r\n    }\r\n\r\n    function checkStringsEquality(string memory firstString, string memory secondString) public pure returns (bool) {\r\n        if (bytes(firstString).length != bytes(secondString).length) {\r\n            return false;\r\n        } else {\r\n            return keccak256(abi.encodePacked(firstString)) == keccak256(abi.encodePacked(secondString));\r\n        }\r\n    }\r\n\r\n    function checkIfStringIsFoundInStringsArray(\r\n        string memory stringToSearchFor,\r\n        string[] memory stringsArray\r\n    )\r\n        public\r\n        pure\r\n        returns (bool)\r\n    {\r\n        for (uint256 i = 0; i < stringsArray.length; i++) {\r\n            if (checkStringsEquality(stringToSearchFor, stringsArray[i])) {\r\n                return true;\r\n            }\r\n        }\r\n\r\n        return false;\r\n    }\r\n\r\n\r\n    modifier onlyCreator {\r\n        require(msg.sender == creator, \"Only the creator of the Contract has access to this!\");\r\n        _;\r\n    }\r\n\r\n    modifier onlyOwner {\r\n        require(msg.sender == owner, \"Only the owner of the Contract has access to this!\");\r\n        _;\r\n    }\r\n\r\n    modifier onlyIfLegallyAllowed {\r\n        require(checkIfAllDocumentsAreProvided(), \"The property is not legally alright.\");\r\n        _;\r\n    }\r\n\r\n    modifier onlyRegistrar {\r\n        require(ITitleCreatingContract(creator).checkIfUserIsRegistrar(msg.sender) == true, \"Only a registered registrar has access to this action.\");\r\n        _;\r\n    }\r\n\r\n    modifier onlyIfPropertyForSale {\r\n        require(propertyDetails.tenureType == HousingTenure.OWNER_OCCUPANCY || propertyDetails.tenureType == HousingTenure.CONDOMIUM,\r\n            \"This property's tenure type does not support being sold\");\r\n        require(contractState == PropertyTitleContractState.FOR_SALE, \"This property is not for sale.\");\r\n        _;\r\n    }\r\n\r\n    modifier onlyRelevantProperty {\r\n        require(contractState != PropertyTitleContractState.NO_LONGER_RELEVANT, \r\n            'This Property Title Contract is no longer relavant');\r\n        _;\r\n    }\r\n}",
  "sourcePath": "D:\\Propty\\propty\\contracts\\contracts\\PropertyTitle.sol",
  "compiler": {
    "name": "solc",
    "version": "0.8.16+commit.07a7930e.Emscripten.clang"
  },
  "schemaVersion": "3.4.9",
  "updatedAt": "2022-12-10T18:50:36.132Z",
  "devdoc": {
    "kind": "dev",
    "methods": {},
    "version": 1
  },
  "userdoc": {
    "kind": "user",
    "methods": {},
    "version": 1
  }
}