{
  "contractName": "PropertyTitle",
  "abi": [
    {
      "inputs": [
        {
          "internalType": "address",
          "name": "_creator",
          "type": "address"
        },
        {
          "internalType": "address",
          "name": "_owner",
          "type": "address"
        },
        {
          "internalType": "string",
          "name": "_country",
          "type": "string"
        },
        {
          "internalType": "string",
          "name": "_city",
          "type": "string"
        },
        {
          "internalType": "string",
          "name": "_street",
          "type": "string"
        },
        {
          "internalType": "string",
          "name": "_streeNumber",
          "type": "string"
        },
        {
          "internalType": "uint256",
          "name": "_apartmentNumber",
          "type": "uint256"
        },
        {
          "internalType": "uint256",
          "name": "_squareMeters",
          "type": "uint256"
        },
        {
          "internalType": "uint256",
          "name": "_sellingPriceIntegralPart",
          "type": "uint256"
        },
        {
          "internalType": "uint256",
          "name": "_sellingPriceFractionalPart",
          "type": "uint256"
        },
        {
          "internalType": "uint256",
          "name": "_sellingPriceFractionalPartLength",
          "type": "uint256"
        }
      ],
      "stateMutability": "nonpayable",
      "type": "constructor"
    },
    {
      "inputs": [],
      "name": "contractState",
      "outputs": [
        {
          "internalType": "enum PropertyTitleContractState",
          "name": "",
          "type": "uint8"
        }
      ],
      "stateMutability": "view",
      "type": "function"
    },
    {
      "inputs": [],
      "name": "creator",
      "outputs": [
        {
          "internalType": "address",
          "name": "",
          "type": "address"
        }
      ],
      "stateMutability": "view",
      "type": "function"
    },
    {
      "inputs": [],
      "name": "owner",
      "outputs": [
        {
          "internalType": "address",
          "name": "",
          "type": "address"
        }
      ],
      "stateMutability": "view",
      "type": "function"
    },
    {
      "inputs": [],
      "name": "propertyDetails",
      "outputs": [
        {
          "internalType": "enum HousingTenure",
          "name": "tenureType",
          "type": "uint8"
        },
        {
          "internalType": "string",
          "name": "country",
          "type": "string"
        },
        {
          "internalType": "string",
          "name": "city",
          "type": "string"
        },
        {
          "internalType": "string",
          "name": "street",
          "type": "string"
        },
        {
          "internalType": "string",
          "name": "streetNumber",
          "type": "string"
        },
        {
          "internalType": "uint256",
          "name": "apartmentNumber",
          "type": "uint256"
        },
        {
          "internalType": "uint256",
          "name": "squareMeters",
          "type": "uint256"
        }
      ],
      "stateMutability": "view",
      "type": "function"
    },
    {
      "inputs": [],
      "name": "requiredDocuments",
      "outputs": [
        {
          "internalType": "bool",
          "name": "proofOfIdentity",
          "type": "bool"
        },
        {
          "internalType": "bool",
          "name": "propertyTitleDeeds",
          "type": "bool"
        },
        {
          "internalType": "bool",
          "name": "energyPerformanceCertificate",
          "type": "bool"
        },
        {
          "internalType": "bool",
          "name": "extensionsAndAlterationsDocumentation",
          "type": "bool"
        },
        {
          "internalType": "bool",
          "name": "utilityBillsPaid",
          "type": "bool"
        }
      ],
      "stateMutability": "view",
      "type": "function"
    },
    {
      "inputs": [],
      "name": "sellingPrice",
      "outputs": [
        {
          "internalType": "uint256",
          "name": "sellingPriceIntegralPart",
          "type": "uint256"
        },
        {
          "internalType": "uint256",
          "name": "sellingPriceFractionalPart",
          "type": "uint256"
        },
        {
          "internalType": "uint256",
          "name": "sellingPriceFractionalPartLength",
          "type": "uint256"
        }
      ],
      "stateMutability": "view",
      "type": "function"
    },
    {
      "stateMutability": "payable",
      "type": "receive"
    },
    {
      "inputs": [
        {
          "internalType": "address payable",
          "name": "_owner",
          "type": "address"
        },
        {
          "internalType": "enum PropertyTitleContractState",
          "name": "_contractState",
          "type": "uint8"
        }
      ],
      "name": "modifyContractStateAndOwner",
      "outputs": [],
      "stateMutability": "nonpayable",
      "type": "function"
    },
    {
      "inputs": [
        {
          "internalType": "enum HousingTenure",
          "name": "_tenureType",
          "type": "uint8"
        },
        {
          "internalType": "uint256",
          "name": "_squareMeters",
          "type": "uint256"
        }
      ],
      "name": "insertPropertyDetails",
      "outputs": [],
      "stateMutability": "nonpayable",
      "type": "function"
    },
    {
      "inputs": [
        {
          "internalType": "enum PropertyTitleContractState",
          "name": "_contractState",
          "type": "uint8"
        }
      ],
      "name": "modifyContractState",
      "outputs": [],
      "stateMutability": "nonpayable",
      "type": "function"
    },
    {
      "inputs": [
        {
          "internalType": "string",
          "name": "_street",
          "type": "string"
        },
        {
          "internalType": "string",
          "name": "_streeNumber",
          "type": "string"
        }
      ],
      "name": "modifyPropertyAdress",
      "outputs": [],
      "stateMutability": "nonpayable",
      "type": "function"
    },
    {
      "inputs": [
        {
          "internalType": "uint256",
          "name": "_sellingPriceIntegralPart",
          "type": "uint256"
        },
        {
          "internalType": "uint256",
          "name": "_sellingPriceFractionalPart",
          "type": "uint256"
        },
        {
          "internalType": "uint256",
          "name": "_sellingPriceFractionalPartLength",
          "type": "uint256"
        },
        {
          "internalType": "enum HousingTenure",
          "name": "_tenureType",
          "type": "uint8"
        },
        {
          "internalType": "uint256",
          "name": "_squareMeters",
          "type": "uint256"
        }
      ],
      "name": "modifyPropertyPriceAndTenureAndMeters",
      "outputs": [],
      "stateMutability": "nonpayable",
      "type": "function"
    },
    {
      "inputs": [
        {
          "internalType": "enum HousingTenure",
          "name": "_tenureType",
          "type": "uint8"
        }
      ],
      "name": "modifyPropertyTenureType",
      "outputs": [],
      "stateMutability": "nonpayable",
      "type": "function"
    },
    {
      "inputs": [
        {
          "internalType": "uint256",
          "name": "_squareMeters",
          "type": "uint256"
        }
      ],
      "name": "modifyPropertySquareMeters",
      "outputs": [],
      "stateMutability": "nonpayable",
      "type": "function"
    },
    {
      "inputs": [
        {
          "internalType": "uint256",
          "name": "_sellingPriceIntegralPart",
          "type": "uint256"
        },
        {
          "internalType": "uint256",
          "name": "_sellingPriceFractionalPart",
          "type": "uint256"
        },
        {
          "internalType": "uint256",
          "name": "_sellingPriceFractionalPartLength",
          "type": "uint256"
        }
      ],
      "name": "setPropertySellingPrice",
      "outputs": [],
      "stateMutability": "nonpayable",
      "type": "function"
    },
    {
      "inputs": [
        {
          "internalType": "bool",
          "name": "_proofOfIdentity",
          "type": "bool"
        },
        {
          "internalType": "bool",
          "name": "_propertyTitleDeeds",
          "type": "bool"
        },
        {
          "internalType": "bool",
          "name": "_energyPerformanceCertificate",
          "type": "bool"
        },
        {
          "internalType": "bool",
          "name": "_extensionsAndAlterationsDocumentation",
          "type": "bool"
        },
        {
          "internalType": "bool",
          "name": "_utilityBillsPaid",
          "type": "bool"
        }
      ],
      "name": "setRequiredDocumentsState",
      "outputs": [],
      "stateMutability": "nonpayable",
      "type": "function"
    },
    {
      "inputs": [],
      "name": "getPropertySellingPrice",
      "outputs": [
        {
          "internalType": "uint256",
          "name": "",
          "type": "uint256"
        }
      ],
      "stateMutability": "view",
      "type": "function"
    },
    {
      "inputs": [],
      "name": "getContractDetails",
      "outputs": [
        {
          "internalType": "address",
          "name": "",
          "type": "address"
        },
        {
          "internalType": "address",
          "name": "",
          "type": "address"
        },
        {
          "internalType": "enum PropertyTitleContractState",
          "name": "",
          "type": "uint8"
        }
      ],
      "stateMutability": "view",
      "type": "function"
    },
    {
      "inputs": [],
      "name": "getFullPropertyAddress",
      "outputs": [
        {
          "internalType": "string",
          "name": "",
          "type": "string"
        }
      ],
      "stateMutability": "view",
      "type": "function"
    },
    {
      "inputs": [],
      "name": "checkIfAllDocumentsAreProvided",
      "outputs": [
        {
          "internalType": "bool",
          "name": "",
          "type": "bool"
        }
      ],
      "stateMutability": "view",
      "type": "function"
    },
    {
      "inputs": [
        {
          "internalType": "string",
          "name": "firstString",
          "type": "string"
        },
        {
          "internalType": "string",
          "name": "secondString",
          "type": "string"
        }
      ],
      "name": "checkStringsEquality",
      "outputs": [
        {
          "internalType": "bool",
          "name": "",
          "type": "bool"
        }
      ],
      "stateMutability": "pure",
      "type": "function"
    },
    {
      "inputs": [
        {
          "internalType": "string",
          "name": "stringToSearchFor",
          "type": "string"
        },
        {
          "internalType": "string[]",
          "name": "stringsArray",
          "type": "string[]"
        }
      ],
      "name": "checkIfStringIsFoundInStringsArray",
      "outputs": [
        {
          "internalType": "bool",
          "name": "",
          "type": "bool"
        }
      ],
      "stateMutability": "pure",
      "type": "function"
    }
  ],
  "bytecode": "0x60806040523480156200001157600080fd5b506040516200210e3803806200210e8339810160408190526200003491620001c7565b60048054600160a060020a038d8116600160a060020a03199283161790925560058054928d16929091169190911790556000805460ff1916905560076200007c8a8262000391565b5060086200008b898262000391565b5060096200009a888262000391565b50600a620000a9878262000391565b50600b94909455600c929092556001556002556003555062000463945050505050565b8051600160a060020a0381168114620000e457600080fd5b919050565b7f4e487b7100000000000000000000000000000000000000000000000000000000600052604160045260246000fd5b600082601f8301126200012a57600080fd5b81516001604060020a0380821115620001475762000147620000e9565b604051601f8301601f19908116603f01168101908282118183101715620001725762000172620000e9565b816040528381526020925086838588010111156200018f57600080fd5b600091505b83821015620001b3578582018301518183018401529082019062000194565b600093810190920192909252949350505050565b60008060008060008060008060008060006101608c8e031215620001ea57600080fd5b620001f58c620000cc565b9a506200020560208d01620000cc565b995060408c01516001604060020a038111156200022157600080fd5b6200022f8e828f0162000118565b99505060608c01516001604060020a038111156200024c57600080fd5b6200025a8e828f0162000118565b98505060808c01516001604060020a038111156200027757600080fd5b620002858e828f0162000118565b97505060a08c01516001604060020a03811115620002a257600080fd5b620002b08e828f0162000118565b96505060c08c0151945060e08c015193506101008c015192506101208c015191506101408c015190509295989b509295989b9093969950565b600281046001821680620002fe57607f821691505b60208210810362000338577f4e487b7100000000000000000000000000000000000000000000000000000000600052602260045260246000fd5b50919050565b601f8211156200038c576000818152602081206020601f86010481016020861015620003675750805b6020601f860104820191505b81811015620003885782815560010162000373565b5050505b505050565b81516001604060020a03811115620003ad57620003ad620000e9565b620003c581620003be8454620002e9565b846200033e565b602080601f831160018114620004015760008415620003e45750858301515b60028086026008870290910a600019041982161786555062000388565b600085815260208120601f198616915b82811015620004325788860151825594840194600190910190840162000411565b50858210156200045357878501516008601f88160260020a60001904191681555b5050505050600202600101905550565b611c9b80620004736000396000f3fe60806040526004361061014a576000357c01000000000000000000000000000000000000000000000000000000009004806385329517116100c85780639dfc91171161008c5780639dfc9117146105eb578063aae68f6c1461061f578063b3cbb32c1461063f578063b6366d921461065f578063daca4eef1461067f578063f5cfb032146106f357600080fd5b806385329517146105565780638d97bee8146105765780638da5cb5b14610596578063953fe3cc146105b657806397035a07146105cb57600080fd5b80635293c8381161010f5780635293c8381461049a578063536f5c36146104ca57806372b50109146104ed578063790d15de1461050d57806385209ee01461052f57600080fd5b80627dc372146103b557806302d05d3f146103e657806312821b5e1461041e5780633d7a44921461045857806341fa17661461047a57600080fd5b366103b05760006006805460ff16908111156101685761016861123a565b148061018a575060036006805460ff16908111156101885761018861123a565b145b6102045760405160e560020a62461bcd02815260206004820152603760248201527f546869732070726f706572747927732074656e757265207479706520646f657360448201527f206e6f7420737570706f7274206265696e6720736f6c6400000000000000000060648201526084015b60405180910390fd5b600260005460ff16600381111561021d5761021d61123a565b1461026d5760405160e560020a62461bcd02815260206004820152601e60248201527f546869732070726f7065727479206973206e6f7420666f722073616c652e000060448201526064016101fb565b600360005460ff1660038111156102865761028661123a565b036102a65760405160e560020a62461bcd0281526004016101fb90611253565b6003546000906102b79060126112c9565b6102c290600a6113c3565b6002546102cf91906113d6565b6001546102e490670de0b6b3a76400006113d6565b6102ee91906113f5565b905033318111156103445760405160e560020a62461bcd02815260206004820152601260248201527f496e73756666696369656e742066756e6473000000000000000000000000000060448201526064016101fb565b600554604051600160a060020a03909116903480156108fc02916000818181858888f1935050505015801561037d573d6000803e3d6000fd5b506000805460ff19166001179055600580543373ffffffffffffffffffffffffffffffffffffffff199091168117909155005b600080fd5b3480156103c157600080fd5b506103ca610713565b6040516103dd9796959493929190611458565b60405180910390f35b3480156103f257600080fd5b5060045461040690600160a060020a031681565b604051600160a060020a0390911681526020016103dd565b34801561042a57600080fd5b5060015460025460035461043d92919083565b604080519384526020840192909252908201526060016103dd565b34801561046457600080fd5b5061047861047336600461158c565b610964565b005b34801561048657600080fd5b50610478610495366004611604565b610a0f565b3480156104a657600080fd5b506104ba6104b536600461164b565b610ad7565b60405190151581526020016103dd565b3480156104d657600080fd5b506104df610b34565b6040519081526020016103dd565b3480156104f957600080fd5b50610478610508366004611740565b610b7e565b34801561051957600080fd5b50610522610cb1565b6040516103dd9190611781565b34801561053b57600080fd5b506000546105499060ff1681565b6040516103dd91906117a8565b34801561056257600080fd5b506104786105713660046117b6565b610cdd565b34801561058257600080fd5b506104786105913660046117e2565b610d78565b3480156105a257600080fd5b5060055461040690600160a060020a031681565b3480156105c257600080fd5b506104ba610e2e565b3480156105d757600080fd5b506104786105e636600461180c565b610e9a565b3480156105f757600080fd5b506004546005546000546040516103dd93600160a060020a0390811693169160ff1690611827565b34801561062b57600080fd5b5061047861063a366004611865565b610f4d565b34801561064b57600080fd5b506104ba61065a36600461158c565b611097565b34801561066b57600080fd5b5061047861067a3660046118d6565b611100565b34801561068b57600080fd5b50600d546106c19060ff808216916101008104821691620100008204811691630100000081048216916401000000009091041685565b60408051951515865293151560208601529115159284019290925290151560608301521515608082015260a0016103dd565b3480156106ff57600080fd5b5061047861070e3660046118ef565b611192565b600680546007805460ff909216929161072b9061190a565b80601f01602080910402602001604051908101604052809291908181526020018280546107579061190a565b80156107a45780601f10610779576101008083540402835291602001916107a4565b820191906000526020600020905b81548152906001019060200180831161078757829003601f168201915b5050505050908060020180546107b99061190a565b80601f01602080910402602001604051908101604052809291908181526020018280546107e59061190a565b80156108325780601f1061080757610100808354040283529160200191610832565b820191906000526020600020905b81548152906001019060200180831161081557829003601f168201915b5050505050908060030180546108479061190a565b80601f01602080910402602001604051908101604052809291908181526020018280546108739061190a565b80156108c05780601f10610895576101008083540402835291602001916108c0565b820191906000526020600020905b8154815290600101906020018083116108a357829003601f168201915b5050505050908060040180546108d59061190a565b80601f01602080910402602001604051908101604052809291908181526020018280546109019061190a565b801561094e5780601f106109235761010080835404028352916020019161094e565b820191906000526020600020905b81548152906001019060200180831161093157829003601f168201915b5050505050908060050154908060060154905087565b61096c610e2e565b61098b5760405160e560020a62461bcd0281526004016101fb90611947565b600554600160a060020a031633146109b85760405160e560020a62461bcd0281526004016101fb906119a4565b600360005460ff1660038111156109d1576109d161123a565b036109f15760405160e560020a62461bcd0281526004016101fb90611253565b60096109fd8382611a4f565b50600a610a0a8282611a4f565b505050565b610a17610e2e565b610a365760405160e560020a62461bcd0281526004016101fb90611947565b600554600160a060020a03163314610a635760405160e560020a62461bcd0281526004016101fb906119a4565b600360005460ff166003811115610a7c57610a7c61123a565b03610a9c5760405160e560020a62461bcd0281526004016101fb90611253565b60018581556002859055600384905560068054849260ff19909116908383811115610ac957610ac961123a565b0217905550600c5550505050565b6000805b8251811015610b2857610b0784848381518110610afa57610afa611b15565b6020026020010151611097565b15610b16576001915050610b2e565b80610b2081611b2e565b915050610adb565b50600090505b92915050565b6003546000908190610b479060126112c9565b610b5290600a6113c3565b600254610b5f91906113d6565b600154610b7490670de0b6b3a76400006113d6565b610b2e91906113f5565b600480546040517ff33c4ff90000000000000000000000000000000000000000000000000000000081523392810192909252600160a060020a03169063f33c4ff990602401602060405180830381865afa158015610be0573d6000803e3d6000fd5b505050506040513d601f19601f82011682018060405250810190610c049190611b47565b1515600114610c285760405160e560020a62461bcd0281526004016101fb90611b64565b600360005460ff166003811115610c4157610c4161123a565b03610c615760405160e560020a62461bcd0281526004016101fb90611253565b6005805473ffffffffffffffffffffffffffffffffffffffff1916600160a060020a0384161790556000805482919060ff19166001836003811115610ca857610ca861123a565b02179055505050565b604051606090610cc990600790600890602001611c34565b604051602081830303815290604052905090565b610ce5610e2e565b610d045760405160e560020a62461bcd0281526004016101fb90611947565b600554600160a060020a03163314610d315760405160e560020a62461bcd0281526004016101fb906119a4565b600360005460ff166003811115610d4a57610d4a61123a565b03610d6a5760405160e560020a62461bcd0281526004016101fb90611253565b600192909255600255600355565b600554600160a060020a03163314610da55760405160e560020a62461bcd0281526004016101fb906119a4565b610dad610e2e565b610dcc5760405160e560020a62461bcd0281526004016101fb90611947565b600360005460ff166003811115610de557610de561123a565b03610e055760405160e560020a62461bcd0281526004016101fb90611253565b6006805483919060ff191660018383811115610e2357610e2361123a565b0217905550600c5550565b600d5460009060ff168015610e4a5750600d54610100900460ff165b8015610e5e5750600d5462010000900460ff165b8015610e735750600d546301000000900460ff165b8015610e895750600d54640100000000900460ff165b15610e945750600190565b50600090565b610ea2610e2e565b610ec15760405160e560020a62461bcd0281526004016101fb90611947565b600554600160a060020a03163314610eee5760405160e560020a62461bcd0281526004016101fb906119a4565b600360005460ff166003811115610f0757610f0761123a565b03610f275760405160e560020a62461bcd0281526004016101fb90611253565b6006805482919060ff191660018383811115610f4557610f4561123a565b021790555050565b600480546040517ff33c4ff90000000000000000000000000000000000000000000000000000000081523392810192909252600160a060020a03169063f33c4ff990602401602060405180830381865afa158015610faf573d6000803e3d6000fd5b505050506040513d601f19601f82011682018060405250810190610fd39190611b47565b1515600114610ff75760405160e560020a62461bcd0281526004016101fb90611b64565b600360005460ff1660038111156110105761101061123a565b036110305760405160e560020a62461bcd0281526004016101fb90611253565b600d805461ffff191695151561ff00191695909517610100941515949094029390931763ffff00001916620100009215159290920263ff0000001916919091176301000000911515919091021764ff00000000191664010000000091151591909102179055565b600081518351146110aa57506000610b2e565b816040516020016110bb9190611c49565b60405160208183030381529060405280519060200120836040516020016110e29190611c49565b60405160208183030381529060405280519060200120149050610b2e565b611108610e2e565b6111275760405160e560020a62461bcd0281526004016101fb90611947565b600554600160a060020a031633146111545760405160e560020a62461bcd0281526004016101fb906119a4565b600360005460ff16600381111561116d5761116d61123a565b0361118d5760405160e560020a62461bcd0281526004016101fb90611253565b600c55565b61119a610e2e565b6111b95760405160e560020a62461bcd0281526004016101fb90611947565b600554600160a060020a031633146111e65760405160e560020a62461bcd0281526004016101fb906119a4565b600360005460ff1660038111156111ff576111ff61123a565b0361121f5760405160e560020a62461bcd0281526004016101fb90611253565b6000805482919060ff19166001836003811115610f4557610f455b60e060020a634e487b7102600052602160045260246000fd5b60208082526032908201527f546869732050726f7065727479205469746c6520436f6e74726163742069732060408201527f6e6f206c6f6e6765722072656c6176616e740000000000000000000000000000606082015260800190565b60e060020a634e487b7102600052601160045260246000fd5b81810381811115610b2e57610b2e6112b0565b600181815b808511156113195781600019048211156112fd576112fd6112b0565b8085161561130a57918102915b600290940493908002906112e1565b509250929050565b60008261133057506001610b2e565b8161133d57506000610b2e565b8160018114611353576002811461135d5761137a565b6001915050610b2e565b60ff84111561136e5761136e6112b0565b8360020a915050610b2e565b5060208310610133831016604e8410600b841016171561139d575081810a610b2e565b6113a783836112dc565b80600019048211156113bb576113bb6112b0565b029392505050565b60006113cf8383611321565b9392505050565b60008160001904831182151516156113f0576113f06112b0565b500290565b80820180821115610b2e57610b2e6112b0565b60005b8381101561142357818101518382015260200161140b565b50506000910152565b60008151808452611444816020860160208601611408565b601f01601f19169290920160200192915050565b60006007891061146a5761146a61123a565b88825260e0602083015261148160e083018961142c565b8281036040840152611493818961142c565b905082810360608401526114a7818861142c565b905082810360808401526114bb818761142c565b60a0840195909552505060c0015295945050505050565b60e060020a634e487b7102600052604160045260246000fd5b604051601f8201601f1916810167ffffffffffffffff81118282101715611514576115146114d2565b604052919050565b600082601f83011261152d57600080fd5b813567ffffffffffffffff811115611547576115476114d2565b61155a601f8201601f19166020016114eb565b81815284602083860101111561156f57600080fd5b816020850160208301376000918101602001919091529392505050565b6000806040838503121561159f57600080fd5b823567ffffffffffffffff808211156115b757600080fd5b6115c38683870161151c565b935060208501359150808211156115d957600080fd5b506115e68582860161151c565b9150509250929050565b8035600781106115ff57600080fd5b919050565b600080600080600060a0868803121561161c57600080fd5b85359450602086013593506040860135925061163a606087016115f0565b949793965091946080013592915050565b6000806040838503121561165e57600080fd5b823567ffffffffffffffff8082111561167657600080fd5b6116828683870161151c565b935060209150818501358181111561169957600080fd5b8501601f810187136116aa57600080fd5b8035828111156116bc576116bc6114d2565b8381026116ca8582016114eb565b918252828101850191858101908a8411156116e457600080fd5b86850192505b83831015611720578235868111156117025760008081fd5b6117108c898389010161151c565b83525091860191908601906116ea565b809750505050505050509250929050565b8035600481106115ff57600080fd5b6000806040838503121561175357600080fd5b8235600160a060020a038116811461176a57600080fd5b915061177860208401611731565b90509250929050565b6020815260006113cf602083018461142c565b600481106117a4576117a461123a565b9052565b60208101610b2e8284611794565b6000806000606084860312156117cb57600080fd5b505081359360208301359350604090920135919050565b600080604083850312156117f557600080fd5b6117fe836115f0565b946020939093013593505050565b60006020828403121561181e57600080fd5b6113cf826115f0565b600160a060020a038481168252831660208201526060810161184c6040830184611794565b949350505050565b801515811461186257600080fd5b50565b600080600080600060a0868803121561187d57600080fd5b853561188881611854565b9450602086013561189881611854565b935060408601356118a881611854565b925060608601356118b881611854565b915060808601356118c881611854565b809150509295509295909350565b6000602082840312156118e857600080fd5b5035919050565b60006020828403121561190157600080fd5b6113cf82611731565b60028104600182168061191e57607f821691505b6020821081036119415760e060020a634e487b7102600052602260045260246000fd5b50919050565b60208082526024908201527f5468652070726f7065727479206973206e6f74206c6567616c6c7920616c726960408201527f6768742e00000000000000000000000000000000000000000000000000000000606082015260800190565b60208082526032908201527f4f6e6c7920746865206f776e6572206f662074686520436f6e7472616374206860408201527f61732061636365737320746f2074686973210000000000000000000000000000606082015260800190565b601f821115610a0a576000818152602081206020601f86010481016020861015611a285750805b6020601f860104820191505b81811015611a4757828155600101611a34565b505050505050565b815167ffffffffffffffff811115611a6957611a696114d2565b611a7d81611a77845461190a565b84611a01565b602080601f831160018114611ab65760008415611a9a5750858301515b60028086026008870290910a6000190419821617865550611a47565b600085815260208120601f198616915b82811015611ae557888601518255948401946001909101908401611ac6565b5085821015611b0557878501516008601f88160260020a60001904191681555b5050505050600202600101905550565b60e060020a634e487b7102600052603260045260246000fd5b600060018201611b4057611b406112b0565b5060010190565b600060208284031215611b5957600080fd5b81516113cf81611854565b60208082526036908201527f4f6e6c792061207265676973746572656420726567697374726172206861732060408201527f61636365737320746f207468697320616374696f6e2e00000000000000000000606082015260800190565b60008154611bce8161190a565b60018281168015611be65760018114611bfb57611c2a565b60ff1984168752821515830287019450611c2a565b8560005260208060002060005b85811015611c215781548a820152908401908201611c08565b50505082870194505b5050505092915050565b600061184c611c438386611bc1565b84611bc1565b60008251611c5b818460208701611408565b919091019291505056fea2646970667358221220361d37feba40106da91c42188e84b7948cba7a47ca41550496ba5032a8923adb64736f6c63430008100033",
  "immutableReferences": {},
  "source": "//SPDX-License-Identifier: MIT\r\npragma solidity ^0.8.15;\r\n\r\ninterface ITitleCreatingContract {\r\n    function checkIfUserIsRegistrar(address _userAddress) external view returns (bool);\r\n}\r\n\r\nenum PropertyTitleContractState { PENDING, OWNED, FOR_SALE, NO_LONGER_RELEVANT }\r\n\r\nenum HousingTenure {\r\n    OWNER_OCCUPANCY,\r\n    TENANCY,\r\n    COOPERATIVE,\r\n    CONDOMIUM,\r\n    PUBLIC_HOUSING,\r\n    SQUATTING,\r\n    LAND_TRUST\r\n}\r\n\r\nstruct PropertyDetails {\r\n    HousingTenure tenureType;\r\n    string country;\r\n    string city;\r\n    string street;\r\n    string streetNumber;\r\n    uint256 apartmentNumber;\r\n    uint256 squareMeters;\r\n}\r\n\r\nstruct RequiredPropertyDocuments {\r\n    bool proofOfIdentity;\r\n    bool propertyTitleDeeds;\r\n    bool energyPerformanceCertificate;\r\n    bool extensionsAndAlterationsDocumentation;\r\n    bool utilityBillsPaid;\r\n}\r\n\r\nstruct SellingPrice {\r\n    uint256 sellingPriceIntegralPart;\r\n    uint256 sellingPriceFractionalPart;\r\n    uint256 sellingPriceFractionalPartLength;\r\n}\r\n\r\n\r\ncontract PropertyTitle {\r\n    PropertyTitleContractState public contractState;\r\n    SellingPrice public sellingPrice;\r\n    address public creator;\r\n    address public owner;\r\n    PropertyDetails public propertyDetails;\r\n    RequiredPropertyDocuments public requiredDocuments;\r\n\r\n    constructor(\r\n        address _creator,\r\n        address _owner,\r\n        string memory _country,\r\n        string memory _city,\r\n        string memory _street,\r\n        string memory _streeNumber,\r\n        uint256 _apartmentNumber,\r\n        uint256 _squareMeters,\r\n        uint256 _sellingPriceIntegralPart,\r\n        uint256 _sellingPriceFractionalPart,\r\n        uint256  _sellingPriceFractionalPartLength\r\n    )\r\n    {\r\n        creator = _creator;\r\n        owner = _owner;\r\n        contractState = PropertyTitleContractState.PENDING;\r\n        propertyDetails.country = _country;\r\n        propertyDetails.city = _city;\r\n        propertyDetails.street = _street;\r\n        propertyDetails.streetNumber = _streeNumber;\r\n        propertyDetails.apartmentNumber = _apartmentNumber;\r\n        propertyDetails.squareMeters = _squareMeters;\r\n        sellingPrice.sellingPriceIntegralPart = _sellingPriceIntegralPart;\r\n        sellingPrice.sellingPriceFractionalPart = _sellingPriceFractionalPart;\r\n        sellingPrice.sellingPriceFractionalPartLength = _sellingPriceFractionalPartLength;\r\n    }\r\n\r\n    receive() external payable onlyIfPropertyForSale onlyRelevantProperty \r\n    {\r\n        uint256 sellingPriceWeiValue = (sellingPrice.sellingPriceIntegralPart * 10**18) + (sellingPrice.sellingPriceFractionalPart * 10**(18-sellingPrice.sellingPriceFractionalPartLength));\r\n        require(msg.sender.balance >= sellingPriceWeiValue, 'Insufficient funds');\r\n        payable(owner).transfer(msg.value);\r\n        contractState = PropertyTitleContractState.OWNED;\r\n        owner = payable(msg.sender);\r\n    }\r\n\r\n    function modifyContractStateAndOwner(\r\n        address payable _owner, \r\n        PropertyTitleContractState _contractState\r\n    )\r\n        external \r\n        onlyRegistrar\r\n        onlyRelevantProperty\r\n    {\r\n        owner = _owner;\r\n        contractState = _contractState;\r\n    }\r\n\r\n    function insertPropertyDetails(\r\n        HousingTenure _tenureType,\r\n        uint256 _squareMeters\r\n    )\r\n        external\r\n        onlyOwner\r\n        onlyIfLegallyAllowed\r\n        onlyRelevantProperty\r\n    {\r\n        propertyDetails.tenureType = _tenureType;\r\n        propertyDetails.squareMeters = _squareMeters;\r\n    }\r\n\r\n    function modifyContractState(PropertyTitleContractState _contractState) external onlyIfLegallyAllowed onlyOwner onlyRelevantProperty {\r\n        contractState = _contractState;\r\n    }\r\n\r\n    function modifyPropertyAdress(string memory _street, string memory _streeNumber) external onlyIfLegallyAllowed onlyOwner onlyRelevantProperty {\r\n        propertyDetails.street = _street;\r\n        propertyDetails.streetNumber = _streeNumber;\r\n    }\r\n\r\n    function modifyPropertyPriceAndTenureAndMeters(\r\n        uint256 _sellingPriceIntegralPart, \r\n        uint256 _sellingPriceFractionalPart, \r\n        uint256 _sellingPriceFractionalPartLength,\r\n        HousingTenure _tenureType,\r\n        uint256 _squareMeters\r\n    )\r\n        external\r\n        onlyIfLegallyAllowed\r\n        onlyOwner\r\n        onlyRelevantProperty\r\n    {\r\n        sellingPrice.sellingPriceIntegralPart = _sellingPriceIntegralPart;\r\n        sellingPrice.sellingPriceFractionalPart = _sellingPriceFractionalPart;\r\n        sellingPrice.sellingPriceFractionalPartLength = _sellingPriceFractionalPartLength;\r\n        propertyDetails.tenureType = _tenureType;\r\n        propertyDetails.squareMeters = _squareMeters;\r\n    }\r\n\r\n    function modifyPropertyTenureType(HousingTenure _tenureType) external onlyIfLegallyAllowed onlyOwner onlyRelevantProperty {\r\n        propertyDetails.tenureType = _tenureType;\r\n    }\r\n\r\n    function modifyPropertySquareMeters(uint256 _squareMeters) external onlyIfLegallyAllowed onlyOwner onlyRelevantProperty {\r\n        propertyDetails.squareMeters = _squareMeters;\r\n    }\r\n\r\n    function setPropertySellingPrice(\r\n        uint256 _sellingPriceIntegralPart, \r\n        uint256 _sellingPriceFractionalPart, \r\n        uint256 _sellingPriceFractionalPartLength\r\n    ) \r\n        external \r\n        onlyIfLegallyAllowed \r\n        onlyOwner \r\n        onlyRelevantProperty\r\n    {\r\n        sellingPrice.sellingPriceIntegralPart = _sellingPriceIntegralPart;\r\n        sellingPrice.sellingPriceFractionalPart = _sellingPriceFractionalPart;\r\n        sellingPrice.sellingPriceFractionalPartLength = _sellingPriceFractionalPartLength;\r\n    }\r\n\r\n    function setRequiredDocumentsState(\r\n        bool _proofOfIdentity,\r\n        bool _propertyTitleDeeds,\r\n        bool _energyPerformanceCertificate,\r\n        bool _extensionsAndAlterationsDocumentation,\r\n        bool _utilityBillsPaid\r\n    )\r\n        external\r\n        onlyRegistrar\r\n        onlyRelevantProperty\r\n    {\r\n        requiredDocuments.proofOfIdentity = _proofOfIdentity;\r\n        requiredDocuments.propertyTitleDeeds = _propertyTitleDeeds;\r\n        requiredDocuments.energyPerformanceCertificate = _energyPerformanceCertificate;\r\n        requiredDocuments.extensionsAndAlterationsDocumentation = _extensionsAndAlterationsDocumentation;\r\n        requiredDocuments.utilityBillsPaid = _utilityBillsPaid;\r\n    }\r\n\r\n    function getPropertySellingPrice() public view returns (uint256) {\r\n        uint256 sellingPriceWeiValue = (sellingPrice.sellingPriceIntegralPart * 10**18) + (sellingPrice.sellingPriceFractionalPart * 10**(18-sellingPrice.sellingPriceFractionalPartLength));\r\n        return sellingPriceWeiValue;\r\n    }\r\n\r\n    function getContractDetails() public view returns (address, address, PropertyTitleContractState) {\r\n        return (creator, owner, contractState);\r\n    }\r\n\r\n    function getFullPropertyAddress() public view returns (string memory) {\r\n        return string(abi.encodePacked(propertyDetails.country, propertyDetails.city));\r\n    }\r\n\r\n    function checkIfAllDocumentsAreProvided() public view returns (bool) {\r\n        if (requiredDocuments.proofOfIdentity && requiredDocuments.propertyTitleDeeds && requiredDocuments.energyPerformanceCertificate && \r\n            requiredDocuments.extensionsAndAlterationsDocumentation && requiredDocuments.utilityBillsPaid) {\r\n                return true;\r\n        }\r\n        return false;\r\n    }\r\n\r\n    function checkStringsEquality(string memory firstString, string memory secondString) public pure returns (bool) {\r\n        if (bytes(firstString).length != bytes(secondString).length) {\r\n            return false;\r\n        } else {\r\n            return keccak256(abi.encodePacked(firstString)) == keccak256(abi.encodePacked(secondString));\r\n        }\r\n    }\r\n\r\n    function checkIfStringIsFoundInStringsArray(\r\n        string memory stringToSearchFor,\r\n        string[] memory stringsArray\r\n    )\r\n        public\r\n        pure\r\n        returns (bool)\r\n    {\r\n        for (uint256 i = 0; i < stringsArray.length; i++) {\r\n            if (checkStringsEquality(stringToSearchFor, stringsArray[i])) {\r\n                return true;\r\n            }\r\n        }\r\n\r\n        return false;\r\n    }\r\n\r\n\r\n    modifier onlyCreator {\r\n        require(msg.sender == creator, \"Only the creator of the Contract has access to this!\");\r\n        _;\r\n    }\r\n\r\n    modifier onlyOwner {\r\n        require(msg.sender == owner, \"Only the owner of the Contract has access to this!\");\r\n        _;\r\n    }\r\n\r\n    modifier onlyIfLegallyAllowed {\r\n        require(checkIfAllDocumentsAreProvided(), \"The property is not legally alright.\");\r\n        _;\r\n    }\r\n\r\n    modifier onlyRegistrar {\r\n        require(ITitleCreatingContract(creator).checkIfUserIsRegistrar(msg.sender) == true, \"Only a registered registrar has access to this action.\");\r\n        _;\r\n    }\r\n\r\n    modifier onlyIfPropertyForSale {\r\n        require(propertyDetails.tenureType == HousingTenure.OWNER_OCCUPANCY || propertyDetails.tenureType == HousingTenure.CONDOMIUM,\r\n            \"This property's tenure type does not support being sold\");\r\n        require(contractState == PropertyTitleContractState.FOR_SALE, \"This property is not for sale.\");\r\n        _;\r\n    }\r\n\r\n    modifier onlyRelevantProperty {\r\n        require(contractState != PropertyTitleContractState.NO_LONGER_RELEVANT, \r\n            'This Property Title Contract is no longer relavant');\r\n        _;\r\n    }\r\n}",
  "sourcePath": "D:\\Propty\\propty\\contracts\\contracts\\PropertyTitle.sol",
  "compiler": {
    "name": "solc",
    "version": "0.8.16+commit.07a7930e.Emscripten.clang"
  },
  "schemaVersion": "3.4.9",
  "updatedAt": "2022-12-01T19:03:09.695Z",
  "devdoc": {
    "kind": "dev",
    "methods": {},
    "version": 1
  },
  "userdoc": {
    "kind": "user",
    "methods": {},
    "version": 1
  }
}