{
  "contractName": "PropertyTitle",
  "abi": [
    {
      "inputs": [
        {
          "internalType": "address",
          "name": "_creator",
          "type": "address"
        },
        {
          "internalType": "address payable",
          "name": "_owner",
          "type": "address"
        },
        {
          "internalType": "string",
          "name": "_country",
          "type": "string"
        },
        {
          "internalType": "string",
          "name": "_city",
          "type": "string"
        },
        {
          "internalType": "string",
          "name": "_street",
          "type": "string"
        },
        {
          "internalType": "string",
          "name": "_streeNumber",
          "type": "string"
        },
        {
          "internalType": "uint256",
          "name": "_apartmentNumber",
          "type": "uint256"
        },
        {
          "internalType": "uint256",
          "name": "_squareMeters",
          "type": "uint256"
        }
      ],
      "stateMutability": "nonpayable",
      "type": "constructor"
    },
    {
      "inputs": [],
      "name": "contractState",
      "outputs": [
        {
          "internalType": "enum PropertyTitleContractState",
          "name": "",
          "type": "uint8"
        }
      ],
      "stateMutability": "view",
      "type": "function",
      "constant": true
    },
    {
      "inputs": [],
      "name": "creator",
      "outputs": [
        {
          "internalType": "address",
          "name": "",
          "type": "address"
        }
      ],
      "stateMutability": "view",
      "type": "function",
      "constant": true
    },
    {
      "inputs": [],
      "name": "owner",
      "outputs": [
        {
          "internalType": "address payable",
          "name": "",
          "type": "address"
        }
      ],
      "stateMutability": "view",
      "type": "function",
      "constant": true
    },
    {
      "inputs": [],
      "name": "propertyDetails",
      "outputs": [
        {
          "internalType": "enum HousingTenure",
          "name": "tenureType",
          "type": "uint8"
        },
        {
          "internalType": "string",
          "name": "country",
          "type": "string"
        },
        {
          "internalType": "string",
          "name": "city",
          "type": "string"
        },
        {
          "internalType": "string",
          "name": "street",
          "type": "string"
        },
        {
          "internalType": "string",
          "name": "streetNumber",
          "type": "string"
        },
        {
          "internalType": "uint256",
          "name": "apartmentNumber",
          "type": "uint256"
        },
        {
          "internalType": "uint256",
          "name": "squareMetres",
          "type": "uint256"
        }
      ],
      "stateMutability": "view",
      "type": "function",
      "constant": true
    },
    {
      "inputs": [],
      "name": "requiredDocuments",
      "outputs": [
        {
          "internalType": "bool",
          "name": "proofOfIdentity",
          "type": "bool"
        },
        {
          "internalType": "bool",
          "name": "propertyTitleDeeds",
          "type": "bool"
        },
        {
          "internalType": "bool",
          "name": "energyPerformanceCertificate",
          "type": "bool"
        },
        {
          "internalType": "bool",
          "name": "extensionsAndAlterationsDocumentation",
          "type": "bool"
        },
        {
          "internalType": "bool",
          "name": "utilityBillsPaid",
          "type": "bool"
        }
      ],
      "stateMutability": "view",
      "type": "function",
      "constant": true
    },
    {
      "inputs": [],
      "name": "sellingPriceFractionalPart",
      "outputs": [
        {
          "internalType": "uint256",
          "name": "",
          "type": "uint256"
        }
      ],
      "stateMutability": "view",
      "type": "function",
      "constant": true
    },
    {
      "inputs": [],
      "name": "sellingPriceFractionalPartLength",
      "outputs": [
        {
          "internalType": "uint256",
          "name": "",
          "type": "uint256"
        }
      ],
      "stateMutability": "view",
      "type": "function",
      "constant": true
    },
    {
      "inputs": [],
      "name": "sellingPriceIntegralPart",
      "outputs": [
        {
          "internalType": "uint256",
          "name": "",
          "type": "uint256"
        }
      ],
      "stateMutability": "view",
      "type": "function",
      "constant": true
    },
    {
      "inputs": [
        {
          "internalType": "address payable",
          "name": "_owner",
          "type": "address"
        },
        {
          "internalType": "enum PropertyTitleContractState",
          "name": "_contractState",
          "type": "uint8"
        }
      ],
      "name": "modifyContractState",
      "outputs": [],
      "stateMutability": "nonpayable",
      "type": "function"
    },
    {
      "inputs": [
        {
          "internalType": "enum HousingTenure",
          "name": "_tenureType",
          "type": "uint8"
        },
        {
          "internalType": "uint256",
          "name": "_squareMetres",
          "type": "uint256"
        }
      ],
      "name": "insertPropertyDetails",
      "outputs": [],
      "stateMutability": "nonpayable",
      "type": "function"
    },
    {
      "inputs": [
        {
          "internalType": "string",
          "name": "_street",
          "type": "string"
        },
        {
          "internalType": "string",
          "name": "_streeNumber",
          "type": "string"
        }
      ],
      "name": "modifyPropertyAdress",
      "outputs": [],
      "stateMutability": "nonpayable",
      "type": "function"
    },
    {
      "inputs": [
        {
          "internalType": "enum HousingTenure",
          "name": "_tenureType",
          "type": "uint8"
        }
      ],
      "name": "modifyPropertyTenureType",
      "outputs": [],
      "stateMutability": "nonpayable",
      "type": "function"
    },
    {
      "inputs": [
        {
          "internalType": "uint256",
          "name": "_squareMetres",
          "type": "uint256"
        }
      ],
      "name": "modifyPropertySquareMetres",
      "outputs": [],
      "stateMutability": "nonpayable",
      "type": "function"
    },
    {
      "inputs": [
        {
          "internalType": "uint256",
          "name": "_sellingPriceIntegralPart",
          "type": "uint256"
        },
        {
          "internalType": "uint256",
          "name": "_sellingPriceFractionalPart",
          "type": "uint256"
        },
        {
          "internalType": "uint256",
          "name": "_sellingPriceFractionalPartLength",
          "type": "uint256"
        }
      ],
      "name": "setPropertySellingPrice",
      "outputs": [],
      "stateMutability": "nonpayable",
      "type": "function"
    },
    {
      "inputs": [],
      "name": "buyProperty",
      "outputs": [],
      "stateMutability": "payable",
      "type": "function",
      "payable": true
    },
    {
      "inputs": [],
      "name": "getContractDetails",
      "outputs": [
        {
          "internalType": "address",
          "name": "",
          "type": "address"
        },
        {
          "internalType": "address",
          "name": "",
          "type": "address"
        },
        {
          "internalType": "enum PropertyTitleContractState",
          "name": "",
          "type": "uint8"
        }
      ],
      "stateMutability": "view",
      "type": "function",
      "constant": true
    },
    {
      "inputs": [],
      "name": "validatePropertyDebts",
      "outputs": [
        {
          "internalType": "bool",
          "name": "",
          "type": "bool"
        }
      ],
      "stateMutability": "view",
      "type": "function",
      "constant": true
    },
    {
      "inputs": [],
      "name": "checkIfUserIsRegistrar",
      "outputs": [
        {
          "internalType": "bool",
          "name": "",
          "type": "bool"
        }
      ],
      "stateMutability": "view",
      "type": "function",
      "constant": true
    },
    {
      "inputs": [
        {
          "internalType": "string",
          "name": "firstString",
          "type": "string"
        },
        {
          "internalType": "string",
          "name": "secondString",
          "type": "string"
        }
      ],
      "name": "checkStringsEquality",
      "outputs": [
        {
          "internalType": "bool",
          "name": "",
          "type": "bool"
        }
      ],
      "stateMutability": "pure",
      "type": "function",
      "constant": true
    },
    {
      "inputs": [
        {
          "internalType": "string",
          "name": "stringToSearchFor",
          "type": "string"
        },
        {
          "internalType": "string[]",
          "name": "stringsArray",
          "type": "string[]"
        }
      ],
      "name": "checkIfStringIsFoundInStringsArray",
      "outputs": [
        {
          "internalType": "bool",
          "name": "",
          "type": "bool"
        }
      ],
      "stateMutability": "pure",
      "type": "function",
      "constant": true
    }
  ],
  "bytecode": "0x60806040523480156200001157600080fd5b5060405162002c6a38038062002c6a8339818101604052810190620000379190620003eb565b87600460006101000a81548173ffffffffffffffffffffffffffffffffffffffff021916908373ffffffffffffffffffffffffffffffffffffffff16021790555086600560006101000a81548173ffffffffffffffffffffffffffffffffffffffff021916908373ffffffffffffffffffffffffffffffffffffffff16021790555060026000806101000a81548160ff02191690836003811115620000e157620000e062000530565b5b02179055508560066001019081620000fa9190620007a0565b5084600660020190816200010f9190620007a0565b508360066003019081620001249190620007a0565b508260066004019081620001399190620007a0565b5081600660050181905550806006800181905550600760018190555061021660028190555060038081905550505050505050505062000887565b6000604051905090565b600080fd5b600080fd5b600073ffffffffffffffffffffffffffffffffffffffff82169050919050565b6000620001b48262000187565b9050919050565b620001c681620001a7565b8114620001d257600080fd5b50565b600081519050620001e681620001bb565b92915050565b6000620001f98262000187565b9050919050565b6200020b81620001ec565b81146200021757600080fd5b50565b6000815190506200022b8162000200565b92915050565b600080fd5b600080fd5b6000601f19601f8301169050919050565b7f4e487b7100000000000000000000000000000000000000000000000000000000600052604160045260246000fd5b62000286826200023b565b810181811067ffffffffffffffff82111715620002a857620002a76200024c565b5b80604052505050565b6000620002bd62000173565b9050620002cb82826200027b565b919050565b600067ffffffffffffffff821115620002ee57620002ed6200024c565b5b620002f9826200023b565b9050602081019050919050565b60005b838110156200032657808201518184015260208101905062000309565b60008484015250505050565b6000620003496200034384620002d0565b620002b1565b90508281526020810184848401111562000368576200036762000236565b5b6200037584828562000306565b509392505050565b600082601f83011262000395576200039462000231565b5b8151620003a784826020860162000332565b91505092915050565b6000819050919050565b620003c581620003b0565b8114620003d157600080fd5b50565b600081519050620003e581620003ba565b92915050565b600080600080600080600080610100898b0312156200040f576200040e6200017d565b5b60006200041f8b828c01620001d5565b9850506020620004328b828c016200021a565b975050604089015167ffffffffffffffff81111562000456576200045562000182565b5b620004648b828c016200037d565b965050606089015167ffffffffffffffff81111562000488576200048762000182565b5b620004968b828c016200037d565b955050608089015167ffffffffffffffff811115620004ba57620004b962000182565b5b620004c88b828c016200037d565b94505060a089015167ffffffffffffffff811115620004ec57620004eb62000182565b5b620004fa8b828c016200037d565b93505060c06200050d8b828c01620003d4565b92505060e0620005208b828c01620003d4565b9150509295985092959890939650565b7f4e487b7100000000000000000000000000000000000000000000000000000000600052602160045260246000fd5b600081519050919050565b7f4e487b7100000000000000000000000000000000000000000000000000000000600052602260045260246000fd5b60006002820490506001821680620005b257607f821691505b602082108103620005c857620005c76200056a565b5b50919050565b60008190508160005260206000209050919050565b60006020601f8301049050919050565b600082821b905092915050565b600060088302620006327fffffffffffffffffffffffffffffffffffffffffffffffffffffffffffffffff82620005f3565b6200063e8683620005f3565b95508019841693508086168417925050509392505050565b6000819050919050565b6000620006816200067b6200067584620003b0565b62000656565b620003b0565b9050919050565b6000819050919050565b6200069d8362000660565b620006b5620006ac8262000688565b84845462000600565b825550505050565b600090565b620006cc620006bd565b620006d981848462000692565b505050565b5b818110156200070157620006f5600082620006c2565b600181019050620006df565b5050565b601f82111562000750576200071a81620005ce565b6200072584620005e3565b8101602085101562000735578190505b6200074d6200074485620005e3565b830182620006de565b50505b505050565b600082821c905092915050565b6000620007756000198460080262000755565b1980831691505092915050565b600062000790838362000762565b9150826002028217905092915050565b620007ab826200055f565b67ffffffffffffffff811115620007c757620007c66200024c565b5b620007d3825462000599565b620007e082828562000705565b600060209050601f83116001811462000818576000841562000803578287015190505b6200080f858262000782565b8655506200087f565b601f1984166200082886620005ce565b60005b8281101562000852578489015182556001820191506020850194506020810190506200082b565b868310156200087257848901516200086e601f89168262000762565b8355505b6001600288020188555050505b505050505050565b6123d380620008976000396000f3fe60806040526004361061011e5760003560e01c806385329517116100a05780639dfc9117116100645780639dfc911714610393578063ab134bed146103c0578063b3cbb32c146103eb578063bac9cad514610428578063daca4eef146104535761011e565b806385329517146102c25780638d97bee8146102eb5780638da5cb5b1461031457806394a81f011461033f57806397035a071461036a5761011e565b8063446a4fe9116100e7578063446a4fe9146101fa578063451a308f146102255780635293c8381461022f57806378b3c71e1461026c57806385209ee0146102975761011e565b80627dc37214610123578063022439511461015457806302d05d3f1461017d5780630fbb26a1146101a85780633d7a4492146101d1575b600080fd5b34801561012f57600080fd5b50610138610482565b60405161014b97969594939291906112a5565b60405180910390f35b34801561016057600080fd5b5061017b600480360381019061017691906113c7565b6106df565b005b34801561018957600080fd5b50610192610794565b60405161019f9190611428565b60405180910390f35b3480156101b457600080fd5b506101cf60048036038101906101ca919061146f565b6107ba565b005b3480156101dd57600080fd5b506101f860048036038101906101f391906115d1565b61089d565b005b34801561020657600080fd5b5061020f61099e565b60405161021c9190611664565b60405180910390f35b61022d6109a7565b005b34801561023b57600080fd5b5061025660048036038101906102519190611765565b610c68565b6040516102639190611664565b60405180910390f35b34801561027857600080fd5b50610281610ccb565b60405161028e91906117dd565b60405180910390f35b3480156102a357600080fd5b506102ac610cd1565b6040516102b99190611840565b60405180910390f35b3480156102ce57600080fd5b506102e960048036038101906102e4919061185b565b610ce2565b005b3480156102f757600080fd5b50610312600480360381019061030d91906118d3565b610dfd565b005b34801561032057600080fd5b50610329610f0e565b6040516103369190611922565b60405180910390f35b34801561034b57600080fd5b50610354610f34565b6040516103619190611664565b60405180910390f35b34801561037657600080fd5b50610391600480360381019061038c919061193d565b610f3d565b005b34801561039f57600080fd5b506103a8611044565b6040516103b79392919061196a565b60405180910390f35b3480156103cc57600080fd5b506103d56110a8565b6040516103e291906117dd565b60405180910390f35b3480156103f757600080fd5b50610412600480360381019061040d91906115d1565b6110ae565b60405161041f9190611664565b60405180910390f35b34801561043457600080fd5b5061043d61111a565b60405161044a91906117dd565b60405180910390f35b34801561045f57600080fd5b50610468611120565b6040516104799594939291906119a1565b60405180910390f35b60068060000160009054906101000a900460ff16908060010180546104a690611a23565b80601f01602080910402602001604051908101604052809291908181526020018280546104d290611a23565b801561051f5780601f106104f45761010080835404028352916020019161051f565b820191906000526020600020905b81548152906001019060200180831161050257829003601f168201915b50505050509080600201805461053490611a23565b80601f016020809104026020016040519081016040528092919081815260200182805461056090611a23565b80156105ad5780601f10610582576101008083540402835291602001916105ad565b820191906000526020600020905b81548152906001019060200180831161059057829003601f168201915b5050505050908060030180546105c290611a23565b80601f01602080910402602001604051908101604052809291908181526020018280546105ee90611a23565b801561063b5780601f106106105761010080835404028352916020019161063b565b820191906000526020600020905b81548152906001019060200180831161061e57829003601f168201915b50505050509080600401805461065090611a23565b80601f016020809104026020016040519081016040528092919081815260200182805461067c90611a23565b80156106c95780601f1061069e576101008083540402835291602001916106c9565b820191906000526020600020905b8154815290600101906020018083116106ac57829003601f168201915b5050505050908060050154908060060154905087565b6106e761099e565b610726576040517f08c379a000000000000000000000000000000000000000000000000000000000815260040161071d90611ac6565b60405180910390fd5b81600560006101000a81548173ffffffffffffffffffffffffffffffffffffffff021916908373ffffffffffffffffffffffffffffffffffffffff160217905550806000806101000a81548160ff0219169083600381111561078b5761078a611185565b5b02179055505050565b600460009054906101000a900473ffffffffffffffffffffffffffffffffffffffff1681565b6107c2610f34565b610801576040517f08c379a00000000000000000000000000000000000000000000000000000000081526004016107f890611b58565b60405180910390fd5b600560009054906101000a900473ffffffffffffffffffffffffffffffffffffffff1673ffffffffffffffffffffffffffffffffffffffff163373ffffffffffffffffffffffffffffffffffffffff1614610891576040517f08c379a000000000000000000000000000000000000000000000000000000000815260040161088890611bea565b60405180910390fd5b80600680018190555050565b6108a5610f34565b6108e4576040517f08c379a00000000000000000000000000000000000000000000000000000000081526004016108db90611b58565b60405180910390fd5b600560009054906101000a900473ffffffffffffffffffffffffffffffffffffffff1673ffffffffffffffffffffffffffffffffffffffff163373ffffffffffffffffffffffffffffffffffffffff1614610974576040517f08c379a000000000000000000000000000000000000000000000000000000000815260040161096b90611bea565b60405180910390fd5b81600660030190816109869190611db6565b5080600660040190816109999190611db6565b505050565b60006001905090565b600060068111156109bb576109ba611185565b5b600660000160009054906101000a900460ff1660068111156109e0576109df611185565b5b1480610a225750600360068111156109fb576109fa611185565b5b600660000160009054906101000a900460ff166006811115610a2057610a1f611185565b5b145b610a61576040517f08c379a0000000000000000000000000000000000000000000000000000000008152600401610a5890611efa565b60405180910390fd5b60026003811115610a7557610a74611185565b5b60008054906101000a900460ff166003811115610a9557610a94611185565b5b14610ad5576040517f08c379a0000000000000000000000000000000000000000000000000000000008152600401610acc90611f66565b60405180910390fd5b6000600354600a610ae691906120e8565b670de0b6b3a7640000600254610afc9190612133565b610b0691906121bc565b670de0b6b3a7640000600154610b1c9190612133565b610b2691906121ed565b9050600080600560009054906101000a900473ffffffffffffffffffffffffffffffffffffffff1673ffffffffffffffffffffffffffffffffffffffff1683604051610b7190612252565b60006040518083038185875af1925050503d8060008114610bae576040519150601f19603f3d011682016040523d82523d6000602084013e610bb3565b606091505b509150915081610bf8576040517f08c379a0000000000000000000000000000000000000000000000000000000008152600401610bef906122b3565b60405180910390fd5b60016000806101000a81548160ff02191690836003811115610c1d57610c1c611185565b5b021790555033600560006101000a81548173ffffffffffffffffffffffffffffffffffffffff021916908373ffffffffffffffffffffffffffffffffffffffff160217905550505050565b600080600090505b8251811015610cbf57610c9d84848381518110610c9057610c8f6122d3565b5b60200260200101516110ae565b15610cac576001915050610cc5565b8080610cb790612302565b915050610c70565b50600090505b92915050565b60025481565b60008054906101000a900460ff1681565b610cea610f34565b610d29576040517f08c379a0000000000000000000000000000000000000000000000000000000008152600401610d2090611b58565b60405180910390fd5b600560009054906101000a900473ffffffffffffffffffffffffffffffffffffffff1673ffffffffffffffffffffffffffffffffffffffff163373ffffffffffffffffffffffffffffffffffffffff1614610db9576040517f08c379a0000000000000000000000000000000000000000000000000000000008152600401610db090611bea565b60405180910390fd5b82600181905550816002819055508060038190555060026000806101000a81548160ff02191690836003811115610df357610df2611185565b5b0217905550505050565b600560009054906101000a900473ffffffffffffffffffffffffffffffffffffffff1673ffffffffffffffffffffffffffffffffffffffff163373ffffffffffffffffffffffffffffffffffffffff1614610e8d576040517f08c379a0000000000000000000000000000000000000000000000000000000008152600401610e8490611bea565b60405180910390fd5b610e95610f34565b610ed4576040517f08c379a0000000000000000000000000000000000000000000000000000000008152600401610ecb90611b58565b60405180910390fd5b81600660000160006101000a81548160ff02191690836006811115610efc57610efb611185565b5b02179055508060068001819055505050565b600560009054906101000a900473ffffffffffffffffffffffffffffffffffffffff1681565b60006001905090565b610f45610f34565b610f84576040517f08c379a0000000000000000000000000000000000000000000000000000000008152600401610f7b90611b58565b60405180910390fd5b600560009054906101000a900473ffffffffffffffffffffffffffffffffffffffff1673ffffffffffffffffffffffffffffffffffffffff163373ffffffffffffffffffffffffffffffffffffffff1614611014576040517f08c379a000000000000000000000000000000000000000000000000000000000815260040161100b90611bea565b60405180910390fd5b80600660000160006101000a81548160ff0219169083600681111561103c5761103b611185565b5b021790555050565b6000806000600460009054906101000a900473ffffffffffffffffffffffffffffffffffffffff16600560009054906101000a900473ffffffffffffffffffffffffffffffffffffffff1660008054906101000a900460ff16925092509250909192565b60015481565b600081518351146110c25760009050611114565b816040516020016110d39190612386565b60405160208183030381529060405280519060200120836040516020016110fa9190612386565b604051602081830303815290604052805190602001201490505b92915050565b60035481565b600d8060000160009054906101000a900460ff16908060000160019054906101000a900460ff16908060000160029054906101000a900460ff16908060000160039054906101000a900460ff16908060000160049054906101000a900460ff16905085565b7f4e487b7100000000000000000000000000000000000000000000000000000000600052602160045260246000fd5b600781106111c5576111c4611185565b5b50565b60008190506111d6826111b4565b919050565b60006111e6826111c8565b9050919050565b6111f6816111db565b82525050565b600081519050919050565b600082825260208201905092915050565b60005b8381101561123657808201518184015260208101905061121b565b60008484015250505050565b6000601f19601f8301169050919050565b600061125e826111fc565b6112688185611207565b9350611278818560208601611218565b61128181611242565b840191505092915050565b6000819050919050565b61129f8161128c565b82525050565b600060e0820190506112ba600083018a6111ed565b81810360208301526112cc8189611253565b905081810360408301526112e08188611253565b905081810360608301526112f48187611253565b905081810360808301526113088186611253565b905061131760a0830185611296565b61132460c0830184611296565b98975050505050505050565b6000604051905090565b600080fd5b600080fd5b600073ffffffffffffffffffffffffffffffffffffffff82169050919050565b600061136f82611344565b9050919050565b61137f81611364565b811461138a57600080fd5b50565b60008135905061139c81611376565b92915050565b600481106113af57600080fd5b50565b6000813590506113c1816113a2565b92915050565b600080604083850312156113de576113dd61133a565b5b60006113ec8582860161138d565b92505060206113fd858286016113b2565b9150509250929050565b600061141282611344565b9050919050565b61142281611407565b82525050565b600060208201905061143d6000830184611419565b92915050565b61144c8161128c565b811461145757600080fd5b50565b60008135905061146981611443565b92915050565b6000602082840312156114855761148461133a565b5b60006114938482850161145a565b91505092915050565b600080fd5b600080fd5b7f4e487b7100000000000000000000000000000000000000000000000000000000600052604160045260246000fd5b6114de82611242565b810181811067ffffffffffffffff821117156114fd576114fc6114a6565b5b80604052505050565b6000611510611330565b905061151c82826114d5565b919050565b600067ffffffffffffffff82111561153c5761153b6114a6565b5b61154582611242565b9050602081019050919050565b82818337600083830152505050565b600061157461156f84611521565b611506565b9050828152602081018484840111156115905761158f6114a1565b5b61159b848285611552565b509392505050565b600082601f8301126115b8576115b761149c565b5b81356115c8848260208601611561565b91505092915050565b600080604083850312156115e8576115e761133a565b5b600083013567ffffffffffffffff8111156116065761160561133f565b5b611612858286016115a3565b925050602083013567ffffffffffffffff8111156116335761163261133f565b5b61163f858286016115a3565b9150509250929050565b60008115159050919050565b61165e81611649565b82525050565b60006020820190506116796000830184611655565b92915050565b600067ffffffffffffffff82111561169a576116996114a6565b5b602082029050602081019050919050565b600080fd5b60006116c36116be8461167f565b611506565b905080838252602082019050602084028301858111156116e6576116e56116ab565b5b835b8181101561172d57803567ffffffffffffffff81111561170b5761170a61149c565b5b80860161171889826115a3565b855260208501945050506020810190506116e8565b5050509392505050565b600082601f83011261174c5761174b61149c565b5b813561175c8482602086016116b0565b91505092915050565b6000806040838503121561177c5761177b61133a565b5b600083013567ffffffffffffffff81111561179a5761179961133f565b5b6117a6858286016115a3565b925050602083013567ffffffffffffffff8111156117c7576117c661133f565b5b6117d385828601611737565b9150509250929050565b60006020820190506117f26000830184611296565b92915050565b6004811061180957611808611185565b5b50565b600081905061181a826117f8565b919050565b600061182a8261180c565b9050919050565b61183a8161181f565b82525050565b60006020820190506118556000830184611831565b92915050565b6000806000606084860312156118745761187361133a565b5b60006118828682870161145a565b93505060206118938682870161145a565b92505060406118a48682870161145a565b9150509250925092565b600781106118bb57600080fd5b50565b6000813590506118cd816118ae565b92915050565b600080604083850312156118ea576118e961133a565b5b60006118f8858286016118be565b92505060206119098582860161145a565b9150509250929050565b61191c81611364565b82525050565b60006020820190506119376000830184611913565b92915050565b6000602082840312156119535761195261133a565b5b6000611961848285016118be565b91505092915050565b600060608201905061197f6000830186611419565b61198c6020830185611419565b6119996040830184611831565b949350505050565b600060a0820190506119b66000830188611655565b6119c36020830187611655565b6119d06040830186611655565b6119dd6060830185611655565b6119ea6080830184611655565b9695505050505050565b7f4e487b7100000000000000000000000000000000000000000000000000000000600052602260045260246000fd5b60006002820490506001821680611a3b57607f821691505b602082108103611a4e57611a4d6119f4565b5b50919050565b7f4f6e6c792061207265676973746572656420726567697374726172206861732060008201527f61636365737320746f207468697320616374696f6e2e00000000000000000000602082015250565b6000611ab0603683611207565b9150611abb82611a54565b604082019050919050565b60006020820190508181036000830152611adf81611aa3565b9050919050565b7f5468652070726f7065727479206973206e6f74206c6567616c6c7920616c726960008201527f6768742e00000000000000000000000000000000000000000000000000000000602082015250565b6000611b42602483611207565b9150611b4d82611ae6565b604082019050919050565b60006020820190508181036000830152611b7181611b35565b9050919050565b7f4f6e6c7920746865206f776e6572206f662074686520436f6e7472616374206860008201527f61732061636365737320746f2074686973210000000000000000000000000000602082015250565b6000611bd4603283611207565b9150611bdf82611b78565b604082019050919050565b60006020820190508181036000830152611c0381611bc7565b9050919050565b60008190508160005260206000209050919050565b60006020601f8301049050919050565b600082821b905092915050565b600060088302611c6c7fffffffffffffffffffffffffffffffffffffffffffffffffffffffffffffffff82611c2f565b611c768683611c2f565b95508019841693508086168417925050509392505050565b6000819050919050565b6000611cb3611cae611ca98461128c565b611c8e565b61128c565b9050919050565b6000819050919050565b611ccd83611c98565b611ce1611cd982611cba565b848454611c3c565b825550505050565b600090565b611cf6611ce9565b611d01818484611cc4565b505050565b5b81811015611d2557611d1a600082611cee565b600181019050611d07565b5050565b601f821115611d6a57611d3b81611c0a565b611d4484611c1f565b81016020851015611d53578190505b611d67611d5f85611c1f565b830182611d06565b50505b505050565b600082821c905092915050565b6000611d8d60001984600802611d6f565b1980831691505092915050565b6000611da68383611d7c565b9150826002028217905092915050565b611dbf826111fc565b67ffffffffffffffff811115611dd857611dd76114a6565b5b611de28254611a23565b611ded828285611d29565b600060209050601f831160018114611e205760008415611e0e578287015190505b611e188582611d9a565b865550611e80565b601f198416611e2e86611c0a565b60005b82811015611e5657848901518255600182019150602085019450602081019050611e31565b86831015611e735784890151611e6f601f891682611d7c565b8355505b6001600288020188555050505b505050505050565b7f546869732070726f706572747927732074656e757265207479706520646f657360008201527f206e6f7420737570706f7274206265696e6720736f6c64000000000000000000602082015250565b6000611ee4603783611207565b9150611eef82611e88565b604082019050919050565b60006020820190508181036000830152611f1381611ed7565b9050919050565b7f546869732070726f7065727479206973206e6f7420666f722073616c652e0000600082015250565b6000611f50601e83611207565b9150611f5b82611f1a565b602082019050919050565b60006020820190508181036000830152611f7f81611f43565b9050919050565b7f4e487b7100000000000000000000000000000000000000000000000000000000600052601160045260246000fd5b60008160011c9050919050565b6000808291508390505b600185111561200c57808604811115611fe857611fe7611f86565b5b6001851615611ff75780820291505b808102905061200585611fb5565b9450611fcc565b94509492505050565b60008261202557600190506120e1565b8161203357600090506120e1565b8160018114612049576002811461205357612082565b60019150506120e1565b60ff84111561206557612064611f86565b5b8360020a91508482111561207c5761207b611f86565b5b506120e1565b5060208310610133831016604e8410600b84101617156120b75782820a9050838111156120b2576120b1611f86565b5b6120e1565b6120c48484846001611fc2565b925090508184048111156120db576120da611f86565b5b81810290505b9392505050565b60006120f38261128c565b91506120fe8361128c565b925061212b7fffffffffffffffffffffffffffffffffffffffffffffffffffffffffffffffff8484612015565b905092915050565b600061213e8261128c565b91506121498361128c565b9250817fffffffffffffffffffffffffffffffffffffffffffffffffffffffffffffffff048311821515161561218257612181611f86565b5b828202905092915050565b7f4e487b7100000000000000000000000000000000000000000000000000000000600052601260045260246000fd5b60006121c78261128c565b91506121d28361128c565b9250826121e2576121e161218d565b5b828204905092915050565b60006121f88261128c565b91506122038361128c565b925082820190508082111561221b5761221a611f86565b5b92915050565b600081905092915050565b50565b600061223c600083612221565b91506122478261222c565b600082019050919050565b600061225d8261222f565b9150819050919050565b7f4661696c656420746f2073656e642045746865722e0000000000000000000000600082015250565b600061229d601583611207565b91506122a882612267565b602082019050919050565b600060208201905081810360008301526122cc81612290565b9050919050565b7f4e487b7100000000000000000000000000000000000000000000000000000000600052603260045260246000fd5b600061230d8261128c565b91507fffffffffffffffffffffffffffffffffffffffffffffffffffffffffffffffff820361233f5761233e611f86565b5b600182019050919050565b600081905092915050565b6000612360826111fc565b61236a818561234a565b935061237a818560208601611218565b80840191505092915050565b60006123928284612355565b91508190509291505056fea26469706673582212209d3e2749dc286f451f720c39fd407e5137ed50ca87fc4f2f82ebe2de9b4927dd64736f6c63430008100033",
  "immutableReferences": {},
  "source": "//SPDX-License-Identifier: MIT\r\npragma solidity ^0.8.15;\r\n\r\nenum PropertyTitleContractState { INITIALIZED, OWNED, FOR_SALE, NO_LONGER_RELEVANT }\r\n\r\nenum HousingTenure {\r\n    OWNER_OCCUPANCY,\r\n    TENANCY,\r\n    COOPERATIVE,\r\n    CONDOMIUM,\r\n    PUBLIC_HOUSING,\r\n    SQUATTING,\r\n    LAND_TRUST\r\n}\r\n\r\nstruct PropertyDetails {\r\n    HousingTenure tenureType;\r\n    string country;\r\n    string city;\r\n    string street;\r\n    string streetNumber;\r\n    uint256 apartmentNumber;\r\n    uint256 squareMetres;\r\n}\r\n\r\nstruct RequiredPropertyDocuments {\r\n    bool proofOfIdentity;\r\n    bool propertyTitleDeeds;\r\n    bool energyPerformanceCertificate;\r\n    bool extensionsAndAlterationsDocumentation;\r\n    bool utilityBillsPaid;\r\n}\r\n\r\n\r\ncontract PropertyTitle {\r\n    PropertyTitleContractState public contractState;\r\n    uint256 public sellingPriceIntegralPart;\r\n    uint256 public sellingPriceFractionalPart;\r\n    uint256 public sellingPriceFractionalPartLength;\r\n    address public creator;\r\n    address payable public owner;\r\n    PropertyDetails public propertyDetails;\r\n    RequiredPropertyDocuments public requiredDocuments;\r\n\r\n    constructor(\r\n        address _creator,\r\n        address payable _owner,\r\n        string memory _country,\r\n        string memory _city,\r\n        string memory _street,\r\n        string memory _streeNumber,\r\n        uint256 _apartmentNumber,\r\n        uint256 _squareMeters\r\n    )\r\n    {\r\n        creator = _creator;\r\n        owner = _owner;\r\n        contractState = PropertyTitleContractState.FOR_SALE;\r\n        propertyDetails.country = _country;\r\n        propertyDetails.city = _city;\r\n        propertyDetails.street = _street;\r\n        propertyDetails.streetNumber = _streeNumber;\r\n        propertyDetails.apartmentNumber = _apartmentNumber;\r\n        propertyDetails.squareMetres = _squareMeters;\r\n\r\n        sellingPriceIntegralPart = 7;\r\n        sellingPriceFractionalPart = 534;\r\n        sellingPriceFractionalPartLength = 3;\r\n    }\r\n\r\n    function modifyContractState(\r\n        address payable _owner, \r\n        PropertyTitleContractState _contractState\r\n    )\r\n        external \r\n        onlyIfUserIsRegistrar\r\n    {\r\n        owner = _owner;\r\n        contractState = _contractState;\r\n    }\r\n\r\n    function insertPropertyDetails(\r\n        HousingTenure _tenureType,\r\n        uint256 _squareMetres\r\n    )\r\n        external\r\n        onlyOwner\r\n        onlyIfLegallyAllowed\r\n    {\r\n        propertyDetails.tenureType = _tenureType;\r\n        propertyDetails.squareMetres = _squareMetres;\r\n    }\r\n\r\n    function modifyPropertyAdress(string memory _street, string memory _streeNumber) external onlyIfLegallyAllowed onlyOwner {\r\n        propertyDetails.street = _street;\r\n        propertyDetails.streetNumber = _streeNumber;\r\n    }\r\n\r\n    function modifyPropertyTenureType(HousingTenure _tenureType) external onlyIfLegallyAllowed onlyOwner {\r\n        propertyDetails.tenureType = _tenureType;\r\n    }\r\n\r\n    function modifyPropertySquareMetres(uint256 _squareMetres) external onlyIfLegallyAllowed onlyOwner {\r\n        propertyDetails.squareMetres = _squareMetres;\r\n    }\r\n\r\n    function setPropertySellingPrice(\r\n        uint256 _sellingPriceIntegralPart, \r\n        uint256 _sellingPriceFractionalPart, \r\n        uint256 _sellingPriceFractionalPartLength\r\n    ) \r\n        external \r\n        onlyIfLegallyAllowed \r\n        onlyOwner \r\n    {\r\n        sellingPriceIntegralPart = _sellingPriceIntegralPart;\r\n        sellingPriceFractionalPart = _sellingPriceFractionalPart;\r\n        sellingPriceFractionalPartLength = _sellingPriceFractionalPartLength;\r\n        contractState = PropertyTitleContractState.FOR_SALE;\r\n    }\r\n\r\n    function buyProperty() external payable onlyIfPropertyForSale {\r\n        uint256 sellingPriceWeiValue = (sellingPriceIntegralPart * 10**18) + (sellingPriceFractionalPart * 10**18 / 10**sellingPriceFractionalPartLength);\r\n        (bool sent, bytes memory data) = owner.call{value: sellingPriceWeiValue }(\"\");\r\n        require(sent, \"Failed to send Ether.\");\r\n        contractState = PropertyTitleContractState.OWNED;\r\n        owner = payable(msg.sender);\r\n    }\r\n\r\n    function getContractDetails() public view returns (address, address, PropertyTitleContractState) {\r\n        return (creator, owner, contractState);\r\n    }\r\n\r\n    function validatePropertyDebts() public view returns (bool) {\r\n        /// TODO\r\n        return true;\r\n        /// TODO\r\n    }\r\n\r\n    function checkIfUserIsRegistrar() public view returns (bool) {\r\n        //address currentUser = msg.sender;\r\n        // registrarsArray = CentralContract.getRegistrarsArray();\r\n        // for (uint256 i = 0; i < registrarsArray.length; i++) {\r\n        //     if (currentUser == registrarsArray[i]) {\r\n        //         return true;\r\n        //     }\r\n        // }\r\n        return true;\r\n    }\r\n\r\n    function checkStringsEquality(string memory firstString, string memory secondString) public pure returns (bool) {\r\n        if (bytes(firstString).length != bytes(secondString).length) {\r\n            return false;\r\n        } else {\r\n            return keccak256(abi.encodePacked(firstString)) == keccak256(abi.encodePacked(secondString));\r\n        }\r\n    }\r\n\r\n    function checkIfStringIsFoundInStringsArray(\r\n        string memory stringToSearchFor,\r\n        string[] memory stringsArray\r\n    )\r\n        public\r\n        pure\r\n        returns (bool)\r\n    {\r\n        for (uint256 i = 0; i < stringsArray.length; i++) {\r\n            if (checkStringsEquality(stringToSearchFor, stringsArray[i])) {\r\n                return true;\r\n            }\r\n        }\r\n\r\n        return false;\r\n    }\r\n\r\n\r\n    modifier onlyCreator {\r\n        require(msg.sender == creator, \"Only the creator of the Contract has access to this!\");\r\n        _;\r\n    }\r\n\r\n    modifier onlyOwner {\r\n        require(msg.sender == owner, \"Only the owner of the Contract has access to this!\");\r\n        _;\r\n    }\r\n\r\n    modifier onlyIfLegallyAllowed {\r\n        require(validatePropertyDebts(), \"The property is not legally alright.\");\r\n        _;\r\n    }\r\n\r\n    modifier onlyIfUserIsRegistrar {\r\n        require(checkIfUserIsRegistrar(), \"Only a registered registrar has access to this action.\");\r\n        _;\r\n    }\r\n\r\n    modifier onlyIfPropertyForSale {\r\n        require(propertyDetails.tenureType == HousingTenure.OWNER_OCCUPANCY || propertyDetails.tenureType == HousingTenure.CONDOMIUM,\r\n            \"This property's tenure type does not support being sold\");\r\n        require(contractState == PropertyTitleContractState.FOR_SALE, \"This property is not for sale.\");\r\n        _;\r\n    }\r\n}",
  "sourcePath": "D:\\Propty\\propty\\contracts\\contracts\\PropertyTitle.sol",
  "compiler": {
    "name": "solc",
    "version": "0.8.16+commit.07a7930e.Emscripten.clang"
  },
  "schemaVersion": "3.4.9",
  "updatedAt": "2022-09-27T18:08:53.966Z",
  "networkType": "ethereum",
  "devdoc": {
    "kind": "dev",
    "methods": {},
    "version": 1
  },
  "userdoc": {
    "kind": "user",
    "methods": {},
    "version": 1
  }
}