{
  "contractName": "PropertyTitle",
  "abi": [
    {
      "inputs": [
        {
          "internalType": "address",
          "name": "_creator",
          "type": "address"
        },
        {
          "internalType": "address payable",
          "name": "_owner",
          "type": "address"
        },
        {
          "internalType": "string",
          "name": "_propertyAddress",
          "type": "string"
        }
      ],
      "stateMutability": "nonpayable",
      "type": "constructor"
    },
    {
      "inputs": [],
      "name": "contractState",
      "outputs": [
        {
          "internalType": "enum PropertyTitleContractState",
          "name": "",
          "type": "uint8"
        }
      ],
      "stateMutability": "view",
      "type": "function"
    },
    {
      "inputs": [],
      "name": "creator",
      "outputs": [
        {
          "internalType": "address",
          "name": "",
          "type": "address"
        }
      ],
      "stateMutability": "view",
      "type": "function"
    },
    {
      "inputs": [],
      "name": "owner",
      "outputs": [
        {
          "internalType": "address payable",
          "name": "",
          "type": "address"
        }
      ],
      "stateMutability": "view",
      "type": "function"
    },
    {
      "inputs": [],
      "name": "propertyDetails",
      "outputs": [
        {
          "internalType": "string",
          "name": "propertyAddress",
          "type": "string"
        },
        {
          "internalType": "string",
          "name": "propertyDescription",
          "type": "string"
        },
        {
          "internalType": "enum HousingTenure",
          "name": "tenureType",
          "type": "uint8"
        },
        {
          "internalType": "uint256",
          "name": "squareMetres",
          "type": "uint256"
        }
      ],
      "stateMutability": "view",
      "type": "function"
    },
    {
      "inputs": [],
      "name": "requiredDocuments",
      "outputs": [
        {
          "internalType": "bool",
          "name": "proofOfIdentity",
          "type": "bool"
        },
        {
          "internalType": "bool",
          "name": "propertyTitleDeeds",
          "type": "bool"
        },
        {
          "internalType": "bool",
          "name": "energyPerformanceCertificate",
          "type": "bool"
        },
        {
          "internalType": "bool",
          "name": "extensionsAndAlterationsDocumentation",
          "type": "bool"
        },
        {
          "internalType": "bool",
          "name": "utilityBillsPaid",
          "type": "bool"
        }
      ],
      "stateMutability": "view",
      "type": "function"
    },
    {
      "inputs": [],
      "name": "sellingPrice",
      "outputs": [
        {
          "internalType": "uint256",
          "name": "",
          "type": "uint256"
        }
      ],
      "stateMutability": "view",
      "type": "function"
    },
    {
      "inputs": [
        {
          "internalType": "address payable",
          "name": "_owner",
          "type": "address"
        },
        {
          "internalType": "enum PropertyTitleContractState",
          "name": "_contractState",
          "type": "uint8"
        }
      ],
      "name": "modifyContractState",
      "outputs": [],
      "stateMutability": "nonpayable",
      "type": "function"
    },
    {
      "inputs": [
        {
          "internalType": "string",
          "name": "_propertyDescription",
          "type": "string"
        },
        {
          "internalType": "enum HousingTenure",
          "name": "_tenureType",
          "type": "uint8"
        },
        {
          "internalType": "uint256",
          "name": "_squareMetres",
          "type": "uint256"
        }
      ],
      "name": "insertPropertyDetails",
      "outputs": [],
      "stateMutability": "nonpayable",
      "type": "function"
    },
    {
      "inputs": [
        {
          "internalType": "string",
          "name": "_address",
          "type": "string"
        }
      ],
      "name": "modifyPropertyAdress",
      "outputs": [],
      "stateMutability": "nonpayable",
      "type": "function"
    },
    {
      "inputs": [
        {
          "internalType": "string",
          "name": "_description",
          "type": "string"
        }
      ],
      "name": "modifyPropertyDescription",
      "outputs": [],
      "stateMutability": "nonpayable",
      "type": "function"
    },
    {
      "inputs": [
        {
          "internalType": "enum HousingTenure",
          "name": "_tenureType",
          "type": "uint8"
        }
      ],
      "name": "modifyPropertyTenureType",
      "outputs": [],
      "stateMutability": "nonpayable",
      "type": "function"
    },
    {
      "inputs": [
        {
          "internalType": "uint256",
          "name": "_squareMetres",
          "type": "uint256"
        }
      ],
      "name": "modifyPropertySquareMetres",
      "outputs": [],
      "stateMutability": "nonpayable",
      "type": "function"
    },
    {
      "inputs": [
        {
          "internalType": "uint256",
          "name": "_sellingPrice",
          "type": "uint256"
        }
      ],
      "name": "addPropertyAsForSale",
      "outputs": [],
      "stateMutability": "nonpayable",
      "type": "function"
    },
    {
      "inputs": [],
      "name": "buyProperty",
      "outputs": [],
      "stateMutability": "payable",
      "type": "function"
    },
    {
      "inputs": [],
      "name": "getContractDetails",
      "outputs": [
        {
          "internalType": "address",
          "name": "",
          "type": "address"
        },
        {
          "internalType": "address",
          "name": "",
          "type": "address"
        },
        {
          "internalType": "enum PropertyTitleContractState",
          "name": "",
          "type": "uint8"
        }
      ],
      "stateMutability": "view",
      "type": "function"
    },
    {
      "inputs": [],
      "name": "validatePropertyDebts",
      "outputs": [
        {
          "internalType": "bool",
          "name": "",
          "type": "bool"
        }
      ],
      "stateMutability": "view",
      "type": "function"
    },
    {
      "inputs": [],
      "name": "checkIfUserIsRegistrar",
      "outputs": [
        {
          "internalType": "bool",
          "name": "",
          "type": "bool"
        }
      ],
      "stateMutability": "view",
      "type": "function"
    },
    {
      "inputs": [
        {
          "internalType": "string",
          "name": "firstString",
          "type": "string"
        },
        {
          "internalType": "string",
          "name": "secondString",
          "type": "string"
        }
      ],
      "name": "checkStringsEquality",
      "outputs": [
        {
          "internalType": "bool",
          "name": "",
          "type": "bool"
        }
      ],
      "stateMutability": "pure",
      "type": "function"
    },
    {
      "inputs": [
        {
          "internalType": "string",
          "name": "stringToSearchFor",
          "type": "string"
        },
        {
          "internalType": "string[]",
          "name": "stringsArray",
          "type": "string[]"
        }
      ],
      "name": "checkIfStringIsFoundInStringsArray",
      "outputs": [
        {
          "internalType": "bool",
          "name": "",
          "type": "bool"
        }
      ],
      "stateMutability": "pure",
      "type": "function"
    }
  ],
  "bytecode": "0x60806040523480156200001157600080fd5b506040516200299838038062002998833981810160405281019062000037919062000341565b826000806101000a81548173ffffffffffffffffffffffffffffffffffffffff021916908373ffffffffffffffffffffffffffffffffffffffff16021790555081600160006101000a81548173ffffffffffffffffffffffffffffffffffffffff021916908373ffffffffffffffffffffffffffffffffffffffff1602179055506000600160146101000a81548160ff02191690836003811115620000e157620000e0620003bc565b5b02179055508060026000019081620000fa919062000636565b505050506200071d565b6000604051905090565b600080fd5b600080fd5b600073ffffffffffffffffffffffffffffffffffffffff82169050919050565b6000620001458262000118565b9050919050565b620001578162000138565b81146200016357600080fd5b50565b60008151905062000177816200014c565b92915050565b60006200018a8262000118565b9050919050565b6200019c816200017d565b8114620001a857600080fd5b50565b600081519050620001bc8162000191565b92915050565b600080fd5b600080fd5b6000601f19601f8301169050919050565b7f4e487b7100000000000000000000000000000000000000000000000000000000600052604160045260246000fd5b6200021782620001cc565b810181811067ffffffffffffffff82111715620002395762000238620001dd565b5b80604052505050565b60006200024e62000104565b90506200025c82826200020c565b919050565b600067ffffffffffffffff8211156200027f576200027e620001dd565b5b6200028a82620001cc565b9050602081019050919050565b60005b83811015620002b75780820151818401526020810190506200029a565b60008484015250505050565b6000620002da620002d48462000261565b62000242565b905082815260208101848484011115620002f957620002f8620001c7565b5b6200030684828562000297565b509392505050565b600082601f830112620003265762000325620001c2565b5b815162000338848260208601620002c3565b91505092915050565b6000806000606084860312156200035d576200035c6200010e565b5b60006200036d8682870162000166565b93505060206200038086828701620001ab565b925050604084015167ffffffffffffffff811115620003a457620003a362000113565b5b620003b2868287016200030e565b9150509250925092565b7f4e487b7100000000000000000000000000000000000000000000000000000000600052602160045260246000fd5b600081519050919050565b7f4e487b7100000000000000000000000000000000000000000000000000000000600052602260045260246000fd5b600060028204905060018216806200043e57607f821691505b602082108103620004545762000453620003f6565b5b50919050565b60008190508160005260206000209050919050565b60006020601f8301049050919050565b600082821b905092915050565b600060088302620004be7fffffffffffffffffffffffffffffffffffffffffffffffffffffffffffffffff826200047f565b620004ca86836200047f565b95508019841693508086168417925050509392505050565b6000819050919050565b6000819050919050565b600062000517620005116200050b84620004e2565b620004ec565b620004e2565b9050919050565b6000819050919050565b6200053383620004f6565b6200054b62000542826200051e565b8484546200048c565b825550505050565b600090565b6200056262000553565b6200056f81848462000528565b505050565b5b8181101562000597576200058b60008262000558565b60018101905062000575565b5050565b601f821115620005e657620005b0816200045a565b620005bb846200046f565b81016020851015620005cb578190505b620005e3620005da856200046f565b83018262000574565b50505b505050565b600082821c905092915050565b60006200060b60001984600802620005eb565b1980831691505092915050565b6000620006268383620005f8565b9150826002028217905092915050565b6200064182620003eb565b67ffffffffffffffff8111156200065d576200065c620001dd565b5b62000669825462000425565b620006768282856200059b565b600060209050601f831160018114620006ae576000841562000699578287015190505b620006a5858262000618565b86555062000715565b601f198416620006be866200045a565b60005b82811015620006e857848901518255600182019150602085019450602081019050620006c1565b8683101562000708578489015162000704601f891682620005f8565b8355505b6001600288020188555050505b505050505050565b61226b806200072d6000396000f3fe6080604052600436106101135760003560e01c806345503a74116100a057806397035a071161006457806397035a071461035c5780639dfc911714610385578063b3cbb32c146103b2578063daca4eef146103ef578063e15abe421461041e57610113565b806345503a74146102755780635293c8381461029e57806385209ee0146102db5780638da5cb5b1461030657806394a81f011461033157610113565b806312821b5e116100e757806312821b5e146101c35780632d2ea266146101ee5780633243e78414610217578063446a4fe914610240578063451a308f1461026b57610113565b80627dc37214610118578063022439511461014657806302d05d3f1461016f5780630fbb26a11461019a575b600080fd5b34801561012457600080fd5b5061012d610447565b60405161013d9493929190611281565b60405180910390f35b34801561015257600080fd5b5061016d6004803603810190610168919061136b565b610582565b005b34801561017b57600080fd5b50610184610638565b60405161019191906113cc565b60405180910390f35b3480156101a657600080fd5b506101c160048036038101906101bc9190611413565b61065c565b005b3480156101cf57600080fd5b506101d8610740565b6040516101e59190611440565b60405180910390f35b3480156101fa57600080fd5b5061021560048036038101906102109190611590565b610746565b005b34801561022357600080fd5b5061023e6004803603810190610239919061165e565b610833565b005b34801561024c57600080fd5b5061025561095b565b60405161026291906116ed565b60405180910390f35b610273610964565b005b34801561028157600080fd5b5061029c60048036038101906102979190611413565b610bd3565b005b3480156102aa57600080fd5b506102c560048036038101906102c091906117e9565b610cdf565b6040516102d291906116ed565b60405180910390f35b3480156102e757600080fd5b506102f0610d42565b6040516102fd91906118a9565b60405180910390f35b34801561031257600080fd5b5061031b610d55565b60405161032891906118d3565b60405180910390f35b34801561033d57600080fd5b50610346610d7b565b60405161035391906116ed565b60405180910390f35b34801561036857600080fd5b50610383600480360381019061037e91906118ee565b610e38565b005b34801561039157600080fd5b5061039a610f3e565b6040516103a99392919061191b565b60405180910390f35b3480156103be57600080fd5b506103d960048036038101906103d49190611952565b610fa3565b6040516103e691906116ed565b60405180910390f35b3480156103fb57600080fd5b5061040461100f565b6040516104159594939291906119ca565b60405180910390f35b34801561042a57600080fd5b5061044560048036038101906104409190611590565b611074565b005b600280600001805461045890611a4c565b80601f016020809104026020016040519081016040528092919081815260200182805461048490611a4c565b80156104d15780601f106104a6576101008083540402835291602001916104d1565b820191906000526020600020905b8154815290600101906020018083116104b457829003601f168201915b5050505050908060010180546104e690611a4c565b80601f016020809104026020016040519081016040528092919081815260200182805461051290611a4c565b801561055f5780601f106105345761010080835404028352916020019161055f565b820191906000526020600020905b81548152906001019060200180831161054257829003601f168201915b5050505050908060020160009054906101000a900460ff16908060030154905084565b61058a61095b565b6105c9576040517f08c379a00000000000000000000000000000000000000000000000000000000081526004016105c090611aef565b60405180910390fd5b81600160006101000a81548173ffffffffffffffffffffffffffffffffffffffff021916908373ffffffffffffffffffffffffffffffffffffffff16021790555080600160146101000a81548160ff0219169083600381111561062f5761062e6111f1565b5b02179055505050565b60008054906101000a900473ffffffffffffffffffffffffffffffffffffffff1681565b610664610d7b565b6106a3576040517f08c379a000000000000000000000000000000000000000000000000000000000815260040161069a90611b81565b60405180910390fd5b600160009054906101000a900473ffffffffffffffffffffffffffffffffffffffff1673ffffffffffffffffffffffffffffffffffffffff163373ffffffffffffffffffffffffffffffffffffffff1614610733576040517f08c379a000000000000000000000000000000000000000000000000000000000815260040161072a90611c13565b60405180910390fd5b8060026003018190555050565b60065481565b61074e610d7b565b61078d576040517f08c379a000000000000000000000000000000000000000000000000000000000815260040161078490611b81565b60405180910390fd5b600160009054906101000a900473ffffffffffffffffffffffffffffffffffffffff1673ffffffffffffffffffffffffffffffffffffffff163373ffffffffffffffffffffffffffffffffffffffff161461081d576040517f08c379a000000000000000000000000000000000000000000000000000000000815260040161081490611c13565b60405180910390fd5b806002600001908161082f9190611ddf565b5050565b600160009054906101000a900473ffffffffffffffffffffffffffffffffffffffff1673ffffffffffffffffffffffffffffffffffffffff163373ffffffffffffffffffffffffffffffffffffffff16146108c3576040517f08c379a00000000000000000000000000000000000000000000000000000000081526004016108ba90611c13565b60405180910390fd5b6108cb610d7b565b61090a576040517f08c379a000000000000000000000000000000000000000000000000000000000815260040161090190611b81565b60405180910390fd5b83836002600101918261091e929190611ebc565b50816002800160006101000a81548160ff02191690836006811115610946576109456111f1565b5b02179055508060026003018190555050505050565b60006001905090565b60006006811115610978576109776111f1565b5b6002800160009054906101000a900460ff16600681111561099c5761099b6111f1565b5b14806109dd5750600360068111156109b7576109b66111f1565b5b6002800160009054906101000a900460ff1660068111156109db576109da6111f1565b5b145b610a1c576040517f08c379a0000000000000000000000000000000000000000000000000000000008152600401610a1390611ffe565b60405180910390fd5b60026003811115610a3057610a2f6111f1565b5b600160149054906101000a900460ff166003811115610a5257610a516111f1565b5b14610a92576040517f08c379a0000000000000000000000000000000000000000000000000000000008152600401610a899061206a565b60405180910390fd5b600080600160009054906101000a900473ffffffffffffffffffffffffffffffffffffffff1673ffffffffffffffffffffffffffffffffffffffff16600654604051610add906120bb565b60006040518083038185875af1925050503d8060008114610b1a576040519150601f19603f3d011682016040523d82523d6000602084013e610b1f565b606091505b509150915081610b64576040517f08c379a0000000000000000000000000000000000000000000000000000000008152600401610b5b9061211c565b60405180910390fd5b60018060146101000a81548160ff02191690836003811115610b8957610b886111f1565b5b021790555033600160006101000a81548173ffffffffffffffffffffffffffffffffffffffff021916908373ffffffffffffffffffffffffffffffffffffffff1602179055505050565b610bdb610d7b565b610c1a576040517f08c379a0000000000000000000000000000000000000000000000000000000008152600401610c1190611b81565b60405180910390fd5b600160009054906101000a900473ffffffffffffffffffffffffffffffffffffffff1673ffffffffffffffffffffffffffffffffffffffff163373ffffffffffffffffffffffffffffffffffffffff1614610caa576040517f08c379a0000000000000000000000000000000000000000000000000000000008152600401610ca190611c13565b60405180910390fd5b806006819055506002600160146101000a81548160ff02191690836003811115610cd757610cd66111f1565b5b021790555050565b600080600090505b8251811015610d3657610d1484848381518110610d0757610d0661213c565b5b6020026020010151610fa3565b15610d23576001915050610d3c565b8080610d2e9061219a565b915050610ce7565b50600090505b92915050565b600160149054906101000a900460ff1681565b600160009054906101000a900473ffffffffffffffffffffffffffffffffffffffff1681565b6000610e2360026000018054610d9090611a4c565b80601f0160208091040260200160405190810160405280929190818152602001828054610dbc90611a4c565b8015610e095780601f10610dde57610100808354040283529160200191610e09565b820191906000526020600020905b815481529060010190602001808311610dec57829003601f168201915b505050505060405180602001604052806000815250610fa3565b610e305760019050610e35565b600090505b90565b610e40610d7b565b610e7f576040517f08c379a0000000000000000000000000000000000000000000000000000000008152600401610e7690611b81565b60405180910390fd5b600160009054906101000a900473ffffffffffffffffffffffffffffffffffffffff1673ffffffffffffffffffffffffffffffffffffffff163373ffffffffffffffffffffffffffffffffffffffff1614610f0f576040517f08c379a0000000000000000000000000000000000000000000000000000000008152600401610f0690611c13565b60405180910390fd5b806002800160006101000a81548160ff02191690836006811115610f3657610f356111f1565b5b021790555050565b60008060008060009054906101000a900473ffffffffffffffffffffffffffffffffffffffff16600160009054906101000a900473ffffffffffffffffffffffffffffffffffffffff16600160149054906101000a900460ff16925092509250909192565b60008151835114610fb75760009050611009565b81604051602001610fc8919061221e565b6040516020818303038152906040528051906020012083604051602001610fef919061221e565b604051602081830303815290604052805190602001201490505b92915050565b60078060000160009054906101000a900460ff16908060000160019054906101000a900460ff16908060000160029054906101000a900460ff16908060000160039054906101000a900460ff16908060000160049054906101000a900460ff16905085565b61107c610d7b565b6110bb576040517f08c379a00000000000000000000000000000000000000000000000000000000081526004016110b290611b81565b60405180910390fd5b600160009054906101000a900473ffffffffffffffffffffffffffffffffffffffff1673ffffffffffffffffffffffffffffffffffffffff163373ffffffffffffffffffffffffffffffffffffffff161461114b576040517f08c379a000000000000000000000000000000000000000000000000000000000815260040161114290611c13565b60405180910390fd5b806002600101908161115d9190611ddf565b5050565b600081519050919050565b600082825260208201905092915050565b60005b8381101561119b578082015181840152602081019050611180565b60008484015250505050565b6000601f19601f8301169050919050565b60006111c382611161565b6111cd818561116c565b93506111dd81856020860161117d565b6111e6816111a7565b840191505092915050565b7f4e487b7100000000000000000000000000000000000000000000000000000000600052602160045260246000fd5b60078110611231576112306111f1565b5b50565b600081905061124282611220565b919050565b600061125282611234565b9050919050565b61126281611247565b82525050565b6000819050919050565b61127b81611268565b82525050565b6000608082019050818103600083015261129b81876111b8565b905081810360208301526112af81866111b8565b90506112be6040830185611259565b6112cb6060830184611272565b95945050505050565b6000604051905090565b600080fd5b600080fd5b600073ffffffffffffffffffffffffffffffffffffffff82169050919050565b6000611313826112e8565b9050919050565b61132381611308565b811461132e57600080fd5b50565b6000813590506113408161131a565b92915050565b6004811061135357600080fd5b50565b60008135905061136581611346565b92915050565b60008060408385031215611382576113816112de565b5b600061139085828601611331565b92505060206113a185828601611356565b9150509250929050565b60006113b6826112e8565b9050919050565b6113c6816113ab565b82525050565b60006020820190506113e160008301846113bd565b92915050565b6113f081611268565b81146113fb57600080fd5b50565b60008135905061140d816113e7565b92915050565b600060208284031215611429576114286112de565b5b6000611437848285016113fe565b91505092915050565b60006020820190506114556000830184611272565b92915050565b600080fd5b600080fd5b7f4e487b7100000000000000000000000000000000000000000000000000000000600052604160045260246000fd5b61149d826111a7565b810181811067ffffffffffffffff821117156114bc576114bb611465565b5b80604052505050565b60006114cf6112d4565b90506114db8282611494565b919050565b600067ffffffffffffffff8211156114fb576114fa611465565b5b611504826111a7565b9050602081019050919050565b82818337600083830152505050565b600061153361152e846114e0565b6114c5565b90508281526020810184848401111561154f5761154e611460565b5b61155a848285611511565b509392505050565b600082601f8301126115775761157661145b565b5b8135611587848260208601611520565b91505092915050565b6000602082840312156115a6576115a56112de565b5b600082013567ffffffffffffffff8111156115c4576115c36112e3565b5b6115d084828501611562565b91505092915050565b600080fd5b600080fd5b60008083601f8401126115f9576115f861145b565b5b8235905067ffffffffffffffff811115611616576116156115d9565b5b602083019150836001820283011115611632576116316115de565b5b9250929050565b6007811061164657600080fd5b50565b60008135905061165881611639565b92915050565b60008060008060608587031215611678576116776112de565b5b600085013567ffffffffffffffff811115611696576116956112e3565b5b6116a2878288016115e3565b945094505060206116b587828801611649565b92505060406116c6878288016113fe565b91505092959194509250565b60008115159050919050565b6116e7816116d2565b82525050565b600060208201905061170260008301846116de565b92915050565b600067ffffffffffffffff82111561172357611722611465565b5b602082029050602081019050919050565b600061174761174284611708565b6114c5565b9050808382526020820190506020840283018581111561176a576117696115de565b5b835b818110156117b157803567ffffffffffffffff81111561178f5761178e61145b565b5b80860161179c8982611562565b8552602085019450505060208101905061176c565b5050509392505050565b600082601f8301126117d0576117cf61145b565b5b81356117e0848260208601611734565b91505092915050565b60008060408385031215611800576117ff6112de565b5b600083013567ffffffffffffffff81111561181e5761181d6112e3565b5b61182a85828601611562565b925050602083013567ffffffffffffffff81111561184b5761184a6112e3565b5b611857858286016117bb565b9150509250929050565b60048110611872576118716111f1565b5b50565b600081905061188382611861565b919050565b600061189382611875565b9050919050565b6118a381611888565b82525050565b60006020820190506118be600083018461189a565b92915050565b6118cd81611308565b82525050565b60006020820190506118e860008301846118c4565b92915050565b600060208284031215611904576119036112de565b5b600061191284828501611649565b91505092915050565b600060608201905061193060008301866113bd565b61193d60208301856113bd565b61194a604083018461189a565b949350505050565b60008060408385031215611969576119686112de565b5b600083013567ffffffffffffffff811115611987576119866112e3565b5b61199385828601611562565b925050602083013567ffffffffffffffff8111156119b4576119b36112e3565b5b6119c085828601611562565b9150509250929050565b600060a0820190506119df60008301886116de565b6119ec60208301876116de565b6119f960408301866116de565b611a0660608301856116de565b611a1360808301846116de565b9695505050505050565b7f4e487b7100000000000000000000000000000000000000000000000000000000600052602260045260246000fd5b60006002820490506001821680611a6457607f821691505b602082108103611a7757611a76611a1d565b5b50919050565b7f4f6e6c792061207265676973746572656420726567697374726172206861732060008201527f61636365737320746f207468697320616374696f6e2e00000000000000000000602082015250565b6000611ad960368361116c565b9150611ae482611a7d565b604082019050919050565b60006020820190508181036000830152611b0881611acc565b9050919050565b7f5468652070726f7065727479206973206e6f74206c6567616c6c7920616c726960008201527f6768742e00000000000000000000000000000000000000000000000000000000602082015250565b6000611b6b60248361116c565b9150611b7682611b0f565b604082019050919050565b60006020820190508181036000830152611b9a81611b5e565b9050919050565b7f4f6e6c7920746865206f776e6572206f662074686520436f6e7472616374206860008201527f61732061636365737320746f2074686973210000000000000000000000000000602082015250565b6000611bfd60328361116c565b9150611c0882611ba1565b604082019050919050565b60006020820190508181036000830152611c2c81611bf0565b9050919050565b60008190508160005260206000209050919050565b60006020601f8301049050919050565b600082821b905092915050565b600060088302611c957fffffffffffffffffffffffffffffffffffffffffffffffffffffffffffffffff82611c58565b611c9f8683611c58565b95508019841693508086168417925050509392505050565b6000819050919050565b6000611cdc611cd7611cd284611268565b611cb7565b611268565b9050919050565b6000819050919050565b611cf683611cc1565b611d0a611d0282611ce3565b848454611c65565b825550505050565b600090565b611d1f611d12565b611d2a818484611ced565b505050565b5b81811015611d4e57611d43600082611d17565b600181019050611d30565b5050565b601f821115611d9357611d6481611c33565b611d6d84611c48565b81016020851015611d7c578190505b611d90611d8885611c48565b830182611d2f565b50505b505050565b600082821c905092915050565b6000611db660001984600802611d98565b1980831691505092915050565b6000611dcf8383611da5565b9150826002028217905092915050565b611de882611161565b67ffffffffffffffff811115611e0157611e00611465565b5b611e0b8254611a4c565b611e16828285611d52565b600060209050601f831160018114611e495760008415611e37578287015190505b611e418582611dc3565b865550611ea9565b601f198416611e5786611c33565b60005b82811015611e7f57848901518255600182019150602085019450602081019050611e5a565b86831015611e9c5784890151611e98601f891682611da5565b8355505b6001600288020188555050505b505050505050565b600082905092915050565b611ec68383611eb1565b67ffffffffffffffff811115611edf57611ede611465565b5b611ee98254611a4c565b611ef4828285611d52565b6000601f831160018114611f235760008415611f11578287013590505b611f1b8582611dc3565b865550611f83565b601f198416611f3186611c33565b60005b82811015611f5957848901358255600182019150602085019450602081019050611f34565b86831015611f765784890135611f72601f891682611da5565b8355505b6001600288020188555050505b50505050505050565b7f546869732070726f706572747927732074656e757265207479706520646f657360008201527f206e6f7420737570706f7274206265696e6720736f6c64000000000000000000602082015250565b6000611fe860378361116c565b9150611ff382611f8c565b604082019050919050565b6000602082019050818103600083015261201781611fdb565b9050919050565b7f546869732070726f7065727479206973206e6f7420666f722073616c652e0000600082015250565b6000612054601e8361116c565b915061205f8261201e565b602082019050919050565b6000602082019050818103600083015261208381612047565b9050919050565b600081905092915050565b50565b60006120a560008361208a565b91506120b082612095565b600082019050919050565b60006120c682612098565b9150819050919050565b7f4661696c656420746f2073656e642045746865722e0000000000000000000000600082015250565b600061210660158361116c565b9150612111826120d0565b602082019050919050565b60006020820190508181036000830152612135816120f9565b9050919050565b7f4e487b7100000000000000000000000000000000000000000000000000000000600052603260045260246000fd5b7f4e487b7100000000000000000000000000000000000000000000000000000000600052601160045260246000fd5b60006121a582611268565b91507fffffffffffffffffffffffffffffffffffffffffffffffffffffffffffffffff82036121d7576121d661216b565b5b600182019050919050565b600081905092915050565b60006121f882611161565b61220281856121e2565b935061221281856020860161117d565b80840191505092915050565b600061222a82846121ed565b91508190509291505056fea2646970667358221220e110af186e102483f8eb3bd1870a80cd1061441e3f23c7e4de6da632a63fedf564736f6c63430008100033",
  "immutableReferences": {},
  "source": "//SPDX-License-Identifier: MIT\r\npragma solidity ^0.8.15;\r\n\r\nenum PropertyTitleContractState { INITIALIZED, OWNED, FOR_SALE, NO_LONGER_RELEVANT }\r\n\r\nenum HousingTenure {\r\n    OWNER_OCCUPANCY,\r\n    TENANCY,\r\n    COOPERATIVE,\r\n    CONDOMIUM,\r\n    PUBLIC_HOUSING,\r\n    SQUATTING,\r\n    LAND_TRUST\r\n}\r\n\r\nstruct PropertyDetails {\r\n    string propertyAddress;\r\n    string propertyDescription;\r\n    HousingTenure tenureType;\r\n    uint256 squareMetres;\r\n}\r\n\r\nstruct RequiredPropertySellingDocuments {\r\n    bool proofOfIdentity;\r\n    bool propertyTitleDeeds;\r\n    bool energyPerformanceCertificate;\r\n    bool extensionsAndAlterationsDocumentation;\r\n    bool utilityBillsPaid;\r\n}\r\n\r\n\r\ncontract PropertyTitle {\r\n    address public creator;\r\n    address payable public owner;\r\n    PropertyTitleContractState public contractState;\r\n    PropertyDetails public propertyDetails;\r\n    uint256 public sellingPrice;\r\n    RequiredPropertySellingDocuments public requiredDocuments;\r\n\r\n    constructor(address _creator, address payable _owner, string memory _propertyAddress) {\r\n        creator = _creator;\r\n        owner = _owner;\r\n        contractState = PropertyTitleContractState.INITIALIZED;\r\n        propertyDetails.propertyAddress = _propertyAddress;\r\n    }\r\n\r\n    function modifyContractState(\r\n        address payable _owner, \r\n        PropertyTitleContractState _contractState\r\n    )\r\n        external \r\n        onlyIfUserIsRegistrar\r\n    {\r\n        owner = _owner;\r\n        contractState = _contractState;\r\n    }\r\n\r\n    function insertPropertyDetails(\r\n        string calldata _propertyDescription,\r\n        HousingTenure _tenureType,\r\n        uint256 _squareMetres\r\n    )\r\n        external\r\n        onlyOwner\r\n        onlyIfLegallyAllowed\r\n    {\r\n        propertyDetails.propertyDescription = _propertyDescription;\r\n        propertyDetails.tenureType = _tenureType;\r\n        propertyDetails.squareMetres = _squareMetres;\r\n    }\r\n\r\n    function modifyPropertyAdress(string memory _address) external onlyIfLegallyAllowed onlyOwner {\r\n        propertyDetails.propertyAddress = _address;\r\n    }\r\n\r\n    function modifyPropertyDescription(string memory _description) external onlyIfLegallyAllowed onlyOwner {\r\n        propertyDetails.propertyDescription = _description;\r\n    }\r\n\r\n    function modifyPropertyTenureType(HousingTenure _tenureType) external onlyIfLegallyAllowed onlyOwner {\r\n        propertyDetails.tenureType = _tenureType;\r\n    }\r\n\r\n    function modifyPropertySquareMetres(uint256 _squareMetres) external onlyIfLegallyAllowed onlyOwner {\r\n        propertyDetails.squareMetres = _squareMetres;\r\n    }\r\n\r\n    function addPropertyAsForSale(uint256 _sellingPrice) external onlyIfLegallyAllowed onlyOwner {\r\n        sellingPrice = _sellingPrice;\r\n        contractState = PropertyTitleContractState.FOR_SALE;\r\n    }\r\n\r\n    function buyProperty() external payable onlyIfPropertyForSale {\r\n        (bool sent, bytes memory data) = owner.call{value: sellingPrice}(\"\");\r\n        require(sent, \"Failed to send Ether.\");\r\n        contractState = PropertyTitleContractState.OWNED;\r\n        owner = payable(msg.sender);\r\n    }\r\n\r\n    function getContractDetails() public view returns (address, address, PropertyTitleContractState) {\r\n        return (creator, owner, contractState);\r\n    }\r\n\r\n    function validatePropertyDebts() public view returns (bool) {\r\n        /// TODO\r\n        if (!checkStringsEquality(propertyDetails.propertyAddress, '')) {\r\n            return true;\r\n        }\r\n        return false;\r\n        /// TODO\r\n    }\r\n\r\n    function checkIfUserIsRegistrar() public view returns (bool) {\r\n        //address currentUser = msg.sender;\r\n        // registrarsArray = CentralContract.getRegistrarsArray();\r\n        // for (uint256 i = 0; i < registrarsArray.length; i++) {\r\n        //     if (currentUser == registrarsArray[i]) {\r\n        //         return true;\r\n        //     }\r\n        // }\r\n        return true;\r\n    }\r\n\r\n    function checkStringsEquality(string memory firstString, string memory secondString) public pure returns (bool) {\r\n        if (bytes(firstString).length != bytes(secondString).length) {\r\n            return false;\r\n        } else {\r\n            return keccak256(abi.encodePacked(firstString)) == keccak256(abi.encodePacked(secondString));\r\n        }\r\n    }\r\n\r\n    function checkIfStringIsFoundInStringsArray(\r\n        string memory stringToSearchFor,\r\n        string[] memory stringsArray\r\n    )\r\n        public\r\n        pure\r\n        returns (bool)\r\n    {\r\n        for (uint256 i = 0; i < stringsArray.length; i++) {\r\n            if (checkStringsEquality(stringToSearchFor, stringsArray[i])) {\r\n                return true;\r\n            }\r\n        }\r\n\r\n        return false;\r\n    }\r\n\r\n\r\n    modifier onlyCreator {\r\n        require(msg.sender == creator, \"Only the creator of the Contract has access to this!\");\r\n        _;\r\n    }\r\n\r\n    modifier onlyOwner {\r\n        require(msg.sender == owner, \"Only the owner of the Contract has access to this!\");\r\n        _;\r\n    }\r\n\r\n    modifier onlyIfLegallyAllowed {\r\n        require(validatePropertyDebts(), \"The property is not legally alright.\");\r\n        _;\r\n    }\r\n\r\n    modifier onlyIfUserIsRegistrar {\r\n        require(checkIfUserIsRegistrar(), \"Only a registered registrar has access to this action.\");\r\n        _;\r\n    }\r\n\r\n    modifier onlyIfPropertyForSale {\r\n        require(propertyDetails.tenureType == HousingTenure.OWNER_OCCUPANCY || propertyDetails.tenureType == HousingTenure.CONDOMIUM,\r\n            \"This property's tenure type does not support being sold\");\r\n        require(contractState == PropertyTitleContractState.FOR_SALE, \"This property is not for sale.\");\r\n        _;\r\n    }\r\n}",
  "sourcePath": "D:\\Propty\\propty\\contracts\\contracts\\PropertyTitle.sol",
  "compiler": {
    "name": "solc",
    "version": "0.8.16+commit.07a7930e.Emscripten.clang"
  },
  "schemaVersion": "3.4.9",
  "updatedAt": "2022-09-07T16:51:22.935Z",
  "devdoc": {
    "kind": "dev",
    "methods": {},
    "version": 1
  },
  "userdoc": {
    "kind": "user",
    "methods": {},
    "version": 1
  }
}