{
  "contractName": "PropertyTitle",
  "abi": [
    {
      "inputs": [
        {
          "internalType": "address",
          "name": "_creator",
          "type": "address"
        },
        {
          "internalType": "address",
          "name": "_owner",
          "type": "address"
        },
        {
          "internalType": "string",
          "name": "_country",
          "type": "string"
        },
        {
          "internalType": "string",
          "name": "_city",
          "type": "string"
        },
        {
          "internalType": "string",
          "name": "_street",
          "type": "string"
        },
        {
          "internalType": "string",
          "name": "_streeNumber",
          "type": "string"
        },
        {
          "internalType": "uint256",
          "name": "_apartmentNumber",
          "type": "uint256"
        },
        {
          "internalType": "uint256",
          "name": "_squareMeters",
          "type": "uint256"
        }
      ],
      "stateMutability": "nonpayable",
      "type": "constructor"
    },
    {
      "inputs": [],
      "name": "contractState",
      "outputs": [
        {
          "internalType": "enum PropertyTitleContractState",
          "name": "",
          "type": "uint8"
        }
      ],
      "stateMutability": "view",
      "type": "function",
      "constant": true
    },
    {
      "inputs": [],
      "name": "creator",
      "outputs": [
        {
          "internalType": "address",
          "name": "",
          "type": "address"
        }
      ],
      "stateMutability": "view",
      "type": "function",
      "constant": true
    },
    {
      "inputs": [],
      "name": "owner",
      "outputs": [
        {
          "internalType": "address",
          "name": "",
          "type": "address"
        }
      ],
      "stateMutability": "view",
      "type": "function",
      "constant": true
    },
    {
      "inputs": [],
      "name": "propertyDetails",
      "outputs": [
        {
          "internalType": "enum HousingTenure",
          "name": "tenureType",
          "type": "uint8"
        },
        {
          "internalType": "string",
          "name": "country",
          "type": "string"
        },
        {
          "internalType": "string",
          "name": "city",
          "type": "string"
        },
        {
          "internalType": "string",
          "name": "street",
          "type": "string"
        },
        {
          "internalType": "string",
          "name": "streetNumber",
          "type": "string"
        },
        {
          "internalType": "uint256",
          "name": "apartmentNumber",
          "type": "uint256"
        },
        {
          "internalType": "uint256",
          "name": "squareMetres",
          "type": "uint256"
        }
      ],
      "stateMutability": "view",
      "type": "function",
      "constant": true
    },
    {
      "inputs": [],
      "name": "requiredDocuments",
      "outputs": [
        {
          "internalType": "bool",
          "name": "proofOfIdentity",
          "type": "bool"
        },
        {
          "internalType": "bool",
          "name": "propertyTitleDeeds",
          "type": "bool"
        },
        {
          "internalType": "bool",
          "name": "energyPerformanceCertificate",
          "type": "bool"
        },
        {
          "internalType": "bool",
          "name": "extensionsAndAlterationsDocumentation",
          "type": "bool"
        },
        {
          "internalType": "bool",
          "name": "utilityBillsPaid",
          "type": "bool"
        }
      ],
      "stateMutability": "view",
      "type": "function",
      "constant": true
    },
    {
      "inputs": [],
      "name": "sellingPriceFractionalPart",
      "outputs": [
        {
          "internalType": "uint256",
          "name": "",
          "type": "uint256"
        }
      ],
      "stateMutability": "view",
      "type": "function",
      "constant": true
    },
    {
      "inputs": [],
      "name": "sellingPriceFractionalPartLength",
      "outputs": [
        {
          "internalType": "uint256",
          "name": "",
          "type": "uint256"
        }
      ],
      "stateMutability": "view",
      "type": "function",
      "constant": true
    },
    {
      "inputs": [],
      "name": "sellingPriceIntegralPart",
      "outputs": [
        {
          "internalType": "uint256",
          "name": "",
          "type": "uint256"
        }
      ],
      "stateMutability": "view",
      "type": "function",
      "constant": true
    },
    {
      "stateMutability": "payable",
      "type": "receive",
      "payable": true
    },
    {
      "inputs": [
        {
          "internalType": "address payable",
          "name": "_owner",
          "type": "address"
        },
        {
          "internalType": "enum PropertyTitleContractState",
          "name": "_contractState",
          "type": "uint8"
        }
      ],
      "name": "modifyContractState",
      "outputs": [],
      "stateMutability": "nonpayable",
      "type": "function"
    },
    {
      "inputs": [
        {
          "internalType": "enum HousingTenure",
          "name": "_tenureType",
          "type": "uint8"
        },
        {
          "internalType": "uint256",
          "name": "_squareMetres",
          "type": "uint256"
        }
      ],
      "name": "insertPropertyDetails",
      "outputs": [],
      "stateMutability": "nonpayable",
      "type": "function"
    },
    {
      "inputs": [
        {
          "internalType": "string",
          "name": "_street",
          "type": "string"
        },
        {
          "internalType": "string",
          "name": "_streeNumber",
          "type": "string"
        }
      ],
      "name": "modifyPropertyAdress",
      "outputs": [],
      "stateMutability": "nonpayable",
      "type": "function"
    },
    {
      "inputs": [
        {
          "internalType": "enum HousingTenure",
          "name": "_tenureType",
          "type": "uint8"
        }
      ],
      "name": "modifyPropertyTenureType",
      "outputs": [],
      "stateMutability": "nonpayable",
      "type": "function"
    },
    {
      "inputs": [
        {
          "internalType": "uint256",
          "name": "_squareMetres",
          "type": "uint256"
        }
      ],
      "name": "modifyPropertySquareMetres",
      "outputs": [],
      "stateMutability": "nonpayable",
      "type": "function"
    },
    {
      "inputs": [
        {
          "internalType": "uint256",
          "name": "_sellingPriceIntegralPart",
          "type": "uint256"
        },
        {
          "internalType": "uint256",
          "name": "_sellingPriceFractionalPart",
          "type": "uint256"
        },
        {
          "internalType": "uint256",
          "name": "_sellingPriceFractionalPartLength",
          "type": "uint256"
        }
      ],
      "name": "setPropertySellingPrice",
      "outputs": [],
      "stateMutability": "nonpayable",
      "type": "function"
    },
    {
      "inputs": [],
      "name": "getPropertySellingPrice",
      "outputs": [
        {
          "internalType": "uint256",
          "name": "",
          "type": "uint256"
        }
      ],
      "stateMutability": "view",
      "type": "function",
      "constant": true
    },
    {
      "inputs": [],
      "name": "getContractDetails",
      "outputs": [
        {
          "internalType": "address",
          "name": "",
          "type": "address"
        },
        {
          "internalType": "address",
          "name": "",
          "type": "address"
        },
        {
          "internalType": "enum PropertyTitleContractState",
          "name": "",
          "type": "uint8"
        }
      ],
      "stateMutability": "view",
      "type": "function",
      "constant": true
    },
    {
      "inputs": [],
      "name": "validatePropertyDebts",
      "outputs": [
        {
          "internalType": "bool",
          "name": "",
          "type": "bool"
        }
      ],
      "stateMutability": "view",
      "type": "function",
      "constant": true
    },
    {
      "inputs": [],
      "name": "checkIfUserIsRegistrar",
      "outputs": [
        {
          "internalType": "bool",
          "name": "",
          "type": "bool"
        }
      ],
      "stateMutability": "view",
      "type": "function",
      "constant": true
    },
    {
      "inputs": [
        {
          "internalType": "string",
          "name": "firstString",
          "type": "string"
        },
        {
          "internalType": "string",
          "name": "secondString",
          "type": "string"
        }
      ],
      "name": "checkStringsEquality",
      "outputs": [
        {
          "internalType": "bool",
          "name": "",
          "type": "bool"
        }
      ],
      "stateMutability": "pure",
      "type": "function",
      "constant": true
    },
    {
      "inputs": [
        {
          "internalType": "string",
          "name": "stringToSearchFor",
          "type": "string"
        },
        {
          "internalType": "string[]",
          "name": "stringsArray",
          "type": "string[]"
        }
      ],
      "name": "checkIfStringIsFoundInStringsArray",
      "outputs": [
        {
          "internalType": "bool",
          "name": "",
          "type": "bool"
        }
      ],
      "stateMutability": "pure",
      "type": "function",
      "constant": true
    }
  ],
  "bytecode": "0x60806040523480156200001157600080fd5b5060405162002bef38038062002bef8339818101604052810190620000379190620003a6565b87600460006101000a81548173ffffffffffffffffffffffffffffffffffffffff021916908373ffffffffffffffffffffffffffffffffffffffff16021790555086600560006101000a81548173ffffffffffffffffffffffffffffffffffffffff021916908373ffffffffffffffffffffffffffffffffffffffff16021790555060026000806101000a81548160ff02191690836003811115620000e157620000e0620004eb565b5b02179055508560066001019081620000fa91906200075b565b5084600660020190816200010f91906200075b565b5083600660030190816200012491906200075b565b5082600660040190816200013991906200075b565b5081600660050181905550806006800181905550600760018190555061021660028190555060038081905550505050505050505062000842565b6000604051905090565b600080fd5b600080fd5b600073ffffffffffffffffffffffffffffffffffffffff82169050919050565b6000620001b48262000187565b9050919050565b620001c681620001a7565b8114620001d257600080fd5b50565b600081519050620001e681620001bb565b92915050565b600080fd5b600080fd5b6000601f19601f8301169050919050565b7f4e487b7100000000000000000000000000000000000000000000000000000000600052604160045260246000fd5b6200024182620001f6565b810181811067ffffffffffffffff8211171562000263576200026262000207565b5b80604052505050565b60006200027862000173565b905062000286828262000236565b919050565b600067ffffffffffffffff821115620002a957620002a862000207565b5b620002b482620001f6565b9050602081019050919050565b60005b83811015620002e1578082015181840152602081019050620002c4565b60008484015250505050565b600062000304620002fe846200028b565b6200026c565b905082815260208101848484011115620003235762000322620001f1565b5b62000330848285620002c1565b509392505050565b600082601f83011262000350576200034f620001ec565b5b815162000362848260208601620002ed565b91505092915050565b6000819050919050565b62000380816200036b565b81146200038c57600080fd5b50565b600081519050620003a08162000375565b92915050565b600080600080600080600080610100898b031215620003ca57620003c96200017d565b5b6000620003da8b828c01620001d5565b9850506020620003ed8b828c01620001d5565b975050604089015167ffffffffffffffff81111562000411576200041062000182565b5b6200041f8b828c0162000338565b965050606089015167ffffffffffffffff81111562000443576200044262000182565b5b620004518b828c0162000338565b955050608089015167ffffffffffffffff81111562000475576200047462000182565b5b620004838b828c0162000338565b94505060a089015167ffffffffffffffff811115620004a757620004a662000182565b5b620004b58b828c0162000338565b93505060c0620004c88b828c016200038f565b92505060e0620004db8b828c016200038f565b9150509295985092959890939650565b7f4e487b7100000000000000000000000000000000000000000000000000000000600052602160045260246000fd5b600081519050919050565b7f4e487b7100000000000000000000000000000000000000000000000000000000600052602260045260246000fd5b600060028204905060018216806200056d57607f821691505b60208210810362000583576200058262000525565b5b50919050565b60008190508160005260206000209050919050565b60006020601f8301049050919050565b600082821b905092915050565b600060088302620005ed7fffffffffffffffffffffffffffffffffffffffffffffffffffffffffffffffff82620005ae565b620005f98683620005ae565b95508019841693508086168417925050509392505050565b6000819050919050565b60006200063c6200063662000630846200036b565b62000611565b6200036b565b9050919050565b6000819050919050565b62000658836200061b565b62000670620006678262000643565b848454620005bb565b825550505050565b600090565b6200068762000678565b620006948184846200064d565b505050565b5b81811015620006bc57620006b06000826200067d565b6001810190506200069a565b5050565b601f8211156200070b57620006d58162000589565b620006e0846200059e565b81016020851015620006f0578190505b62000708620006ff856200059e565b83018262000699565b50505b505050565b600082821c905092915050565b6000620007306000198460080262000710565b1980831691505092915050565b60006200074b83836200071d565b9150826002028217905092915050565b62000766826200051a565b67ffffffffffffffff81111562000782576200078162000207565b5b6200078e825462000554565b6200079b828285620006c0565b600060209050601f831160018114620007d35760008415620007be578287015190505b620007ca85826200073d565b8655506200083a565b601f198416620007e38662000589565b60005b828110156200080d57848901518255600182019150602085019450602081019050620007e6565b868310156200082d578489015162000829601f8916826200071d565b8355505b6001600288020188555050505b505050505050565b61239d80620008526000396000f3fe6080604052600436106101225760003560e01c806385329517116100a05780639dfc9117116100645780639dfc911714610666578063ab134bed14610693578063b3cbb32c146106be578063bac9cad5146106fb578063daca4eef14610726576103d0565b806385329517146105955780638d97bee8146105be5780638da5cb5b146105e757806394a81f011461061257806397035a071461063d576103d0565b8063446a4fe9116100e7578063446a4fe9146104ac5780635293c838146104d7578063536f5c361461051457806378b3c71e1461053f57806385209ee01461056a576103d0565b80627dc372146103d5578063022439511461040657806302d05d3f1461042f5780630fbb26a11461045a5780633d7a449214610483576103d0565b366103d0576000600681111561013b5761013a6111eb565b5b600660000160009054906101000a900460ff1660068111156101605761015f6111eb565b5b14806101a257506003600681111561017b5761017a6111eb565b5b600660000160009054906101000a900460ff1660068111156101a05761019f6111eb565b5b145b6101e1576040517f08c379a00000000000000000000000000000000000000000000000000000000081526004016101d89061129d565b60405180910390fd5b600260038111156101f5576101f46111eb565b5b60008054906101000a900460ff166003811115610215576102146111eb565b5b14610255576040517f08c379a000000000000000000000000000000000000000000000000000000000815260040161024c90611309565b60405180910390fd5b600060035460126102669190611362565b600a61027291906114c9565b60025461027f9190611514565b670de0b6b3a76400006001546102959190611514565b61029f919061156e565b9050803373ffffffffffffffffffffffffffffffffffffffff163110156102fb576040517f08c379a00000000000000000000000000000000000000000000000000000000081526004016102f2906115ee565b60405180910390fd5b600560009054906101000a900473ffffffffffffffffffffffffffffffffffffffff1673ffffffffffffffffffffffffffffffffffffffff166108fc349081150290604051600060405180830381858888f19350505050158015610363573d6000803e3d6000fd5b5060016000806101000a81548160ff02191690836003811115610389576103886111eb565b5b021790555033600560006101000a81548173ffffffffffffffffffffffffffffffffffffffff021916908373ffffffffffffffffffffffffffffffffffffffff1602179055005b600080fd5b3480156103e157600080fd5b506103ea610755565b6040516103fd97969594939291906116e4565b60405180910390f35b34801561041257600080fd5b5061042d60048036038101906104289190611806565b6109b2565b005b34801561043b57600080fd5b50610444610a67565b6040516104519190611867565b60405180910390f35b34801561046657600080fd5b50610481600480360381019061047c91906118ae565b610a8d565b005b34801561048f57600080fd5b506104aa60048036038101906104a59190611a10565b610b70565b005b3480156104b857600080fd5b506104c1610c71565b6040516104ce9190611aa3565b60405180910390f35b3480156104e357600080fd5b506104fe60048036038101906104f99190611ba4565b610c7a565b60405161050b9190611aa3565b60405180910390f35b34801561052057600080fd5b50610529610cdd565b6040516105369190611c1c565b60405180910390f35b34801561054b57600080fd5b50610554610d31565b6040516105619190611c1c565b60405180910390f35b34801561057657600080fd5b5061057f610d37565b60405161058c9190611c7f565b60405180910390f35b3480156105a157600080fd5b506105bc60048036038101906105b79190611c9a565b610d48565b005b3480156105ca57600080fd5b506105e560048036038101906105e09190611d12565b610e63565b005b3480156105f357600080fd5b506105fc610f74565b6040516106099190611867565b60405180910390f35b34801561061e57600080fd5b50610627610f9a565b6040516106349190611aa3565b60405180910390f35b34801561064957600080fd5b50610664600480360381019061065f9190611d52565b610fa3565b005b34801561067257600080fd5b5061067b6110aa565b60405161068a93929190611d7f565b60405180910390f35b34801561069f57600080fd5b506106a861110e565b6040516106b59190611c1c565b60405180910390f35b3480156106ca57600080fd5b506106e560048036038101906106e09190611a10565b611114565b6040516106f29190611aa3565b60405180910390f35b34801561070757600080fd5b50610710611180565b60405161071d9190611c1c565b60405180910390f35b34801561073257600080fd5b5061073b611186565b60405161074c959493929190611db6565b60405180910390f35b60068060000160009054906101000a900460ff169080600101805461077990611e38565b80601f01602080910402602001604051908101604052809291908181526020018280546107a590611e38565b80156107f25780601f106107c7576101008083540402835291602001916107f2565b820191906000526020600020905b8154815290600101906020018083116107d557829003601f168201915b50505050509080600201805461080790611e38565b80601f016020809104026020016040519081016040528092919081815260200182805461083390611e38565b80156108805780601f1061085557610100808354040283529160200191610880565b820191906000526020600020905b81548152906001019060200180831161086357829003601f168201915b50505050509080600301805461089590611e38565b80601f01602080910402602001604051908101604052809291908181526020018280546108c190611e38565b801561090e5780601f106108e35761010080835404028352916020019161090e565b820191906000526020600020905b8154815290600101906020018083116108f157829003601f168201915b50505050509080600401805461092390611e38565b80601f016020809104026020016040519081016040528092919081815260200182805461094f90611e38565b801561099c5780601f106109715761010080835404028352916020019161099c565b820191906000526020600020905b81548152906001019060200180831161097f57829003601f168201915b5050505050908060050154908060060154905087565b6109ba610c71565b6109f9576040517f08c379a00000000000000000000000000000000000000000000000000000000081526004016109f090611edb565b60405180910390fd5b81600560006101000a81548173ffffffffffffffffffffffffffffffffffffffff021916908373ffffffffffffffffffffffffffffffffffffffff160217905550806000806101000a81548160ff02191690836003811115610a5e57610a5d6111eb565b5b02179055505050565b600460009054906101000a900473ffffffffffffffffffffffffffffffffffffffff1681565b610a95610f9a565b610ad4576040517f08c379a0000000000000000000000000000000000000000000000000000000008152600401610acb90611f6d565b60405180910390fd5b600560009054906101000a900473ffffffffffffffffffffffffffffffffffffffff1673ffffffffffffffffffffffffffffffffffffffff163373ffffffffffffffffffffffffffffffffffffffff1614610b64576040517f08c379a0000000000000000000000000000000000000000000000000000000008152600401610b5b90611fff565b60405180910390fd5b80600680018190555050565b610b78610f9a565b610bb7576040517f08c379a0000000000000000000000000000000000000000000000000000000008152600401610bae90611f6d565b60405180910390fd5b600560009054906101000a900473ffffffffffffffffffffffffffffffffffffffff1673ffffffffffffffffffffffffffffffffffffffff163373ffffffffffffffffffffffffffffffffffffffff1614610c47576040517f08c379a0000000000000000000000000000000000000000000000000000000008152600401610c3e90611fff565b60405180910390fd5b8160066003019081610c5991906121cb565b508060066004019081610c6c91906121cb565b505050565b60006001905090565b600080600090505b8251811015610cd157610caf84848381518110610ca257610ca161229d565b5b6020026020010151611114565b15610cbe576001915050610cd7565b8080610cc9906122cc565b915050610c82565b50600090505b92915050565b6000806003546012610cef9190611362565b600a610cfb91906114c9565b600254610d089190611514565b670de0b6b3a7640000600154610d1e9190611514565b610d28919061156e565b90508091505090565b60025481565b60008054906101000a900460ff1681565b610d50610f9a565b610d8f576040517f08c379a0000000000000000000000000000000000000000000000000000000008152600401610d8690611f6d565b60405180910390fd5b600560009054906101000a900473ffffffffffffffffffffffffffffffffffffffff1673ffffffffffffffffffffffffffffffffffffffff163373ffffffffffffffffffffffffffffffffffffffff1614610e1f576040517f08c379a0000000000000000000000000000000000000000000000000000000008152600401610e1690611fff565b60405180910390fd5b82600181905550816002819055508060038190555060026000806101000a81548160ff02191690836003811115610e5957610e586111eb565b5b0217905550505050565b600560009054906101000a900473ffffffffffffffffffffffffffffffffffffffff1673ffffffffffffffffffffffffffffffffffffffff163373ffffffffffffffffffffffffffffffffffffffff1614610ef3576040517f08c379a0000000000000000000000000000000000000000000000000000000008152600401610eea90611fff565b60405180910390fd5b610efb610f9a565b610f3a576040517f08c379a0000000000000000000000000000000000000000000000000000000008152600401610f3190611f6d565b60405180910390fd5b81600660000160006101000a81548160ff02191690836006811115610f6257610f616111eb565b5b02179055508060068001819055505050565b600560009054906101000a900473ffffffffffffffffffffffffffffffffffffffff1681565b60006001905090565b610fab610f9a565b610fea576040517f08c379a0000000000000000000000000000000000000000000000000000000008152600401610fe190611f6d565b60405180910390fd5b600560009054906101000a900473ffffffffffffffffffffffffffffffffffffffff1673ffffffffffffffffffffffffffffffffffffffff163373ffffffffffffffffffffffffffffffffffffffff161461107a576040517f08c379a000000000000000000000000000000000000000000000000000000000815260040161107190611fff565b60405180910390fd5b80600660000160006101000a81548160ff021916908360068111156110a2576110a16111eb565b5b021790555050565b6000806000600460009054906101000a900473ffffffffffffffffffffffffffffffffffffffff16600560009054906101000a900473ffffffffffffffffffffffffffffffffffffffff1660008054906101000a900460ff16925092509250909192565b60015481565b60008151835114611128576000905061117a565b816040516020016111399190612350565b60405160208183030381529060405280519060200120836040516020016111609190612350565b604051602081830303815290604052805190602001201490505b92915050565b60035481565b600d8060000160009054906101000a900460ff16908060000160019054906101000a900460ff16908060000160029054906101000a900460ff16908060000160039054906101000a900460ff16908060000160049054906101000a900460ff16905085565b7f4e487b7100000000000000000000000000000000000000000000000000000000600052602160045260246000fd5b600082825260208201905092915050565b7f546869732070726f706572747927732074656e757265207479706520646f657360008201527f206e6f7420737570706f7274206265696e6720736f6c64000000000000000000602082015250565b600061128760378361121a565b91506112928261122b565b604082019050919050565b600060208201905081810360008301526112b68161127a565b9050919050565b7f546869732070726f7065727479206973206e6f7420666f722073616c652e0000600082015250565b60006112f3601e8361121a565b91506112fe826112bd565b602082019050919050565b60006020820190508181036000830152611322816112e6565b9050919050565b6000819050919050565b7f4e487b7100000000000000000000000000000000000000000000000000000000600052601160045260246000fd5b600061136d82611329565b915061137883611329565b92508282039050818111156113905761138f611333565b5b92915050565b60008160011c9050919050565b6000808291508390505b60018511156113ed578086048111156113c9576113c8611333565b5b60018516156113d85780820291505b80810290506113e685611396565b94506113ad565b94509492505050565b60008261140657600190506114c2565b8161141457600090506114c2565b816001811461142a576002811461143457611463565b60019150506114c2565b60ff84111561144657611445611333565b5b8360020a91508482111561145d5761145c611333565b5b506114c2565b5060208310610133831016604e8410600b84101617156114985782820a90508381111561149357611492611333565b5b6114c2565b6114a584848460016113a3565b925090508184048111156114bc576114bb611333565b5b81810290505b9392505050565b60006114d482611329565b91506114df83611329565b925061150c7fffffffffffffffffffffffffffffffffffffffffffffffffffffffffffffffff84846113f6565b905092915050565b600061151f82611329565b915061152a83611329565b9250817fffffffffffffffffffffffffffffffffffffffffffffffffffffffffffffffff048311821515161561156357611562611333565b5b828202905092915050565b600061157982611329565b915061158483611329565b925082820190508082111561159c5761159b611333565b5b92915050565b7f496e73756666696369656e742066756e64730000000000000000000000000000600082015250565b60006115d860128361121a565b91506115e3826115a2565b602082019050919050565b60006020820190508181036000830152611607816115cb565b9050919050565b6007811061161f5761161e6111eb565b5b50565b60008190506116308261160e565b919050565b600061164082611622565b9050919050565b61165081611635565b82525050565b600081519050919050565b60005b8381101561167f578082015181840152602081019050611664565b60008484015250505050565b6000601f19601f8301169050919050565b60006116a782611656565b6116b1818561121a565b93506116c1818560208601611661565b6116ca8161168b565b840191505092915050565b6116de81611329565b82525050565b600060e0820190506116f9600083018a611647565b818103602083015261170b818961169c565b9050818103604083015261171f818861169c565b90508181036060830152611733818761169c565b90508181036080830152611747818661169c565b905061175660a08301856116d5565b61176360c08301846116d5565b98975050505050505050565b6000604051905090565b600080fd5b600080fd5b600073ffffffffffffffffffffffffffffffffffffffff82169050919050565b60006117ae82611783565b9050919050565b6117be816117a3565b81146117c957600080fd5b50565b6000813590506117db816117b5565b92915050565b600481106117ee57600080fd5b50565b600081359050611800816117e1565b92915050565b6000806040838503121561181d5761181c611779565b5b600061182b858286016117cc565b925050602061183c858286016117f1565b9150509250929050565b600061185182611783565b9050919050565b61186181611846565b82525050565b600060208201905061187c6000830184611858565b92915050565b61188b81611329565b811461189657600080fd5b50565b6000813590506118a881611882565b92915050565b6000602082840312156118c4576118c3611779565b5b60006118d284828501611899565b91505092915050565b600080fd5b600080fd5b7f4e487b7100000000000000000000000000000000000000000000000000000000600052604160045260246000fd5b61191d8261168b565b810181811067ffffffffffffffff8211171561193c5761193b6118e5565b5b80604052505050565b600061194f61176f565b905061195b8282611914565b919050565b600067ffffffffffffffff82111561197b5761197a6118e5565b5b6119848261168b565b9050602081019050919050565b82818337600083830152505050565b60006119b36119ae84611960565b611945565b9050828152602081018484840111156119cf576119ce6118e0565b5b6119da848285611991565b509392505050565b600082601f8301126119f7576119f66118db565b5b8135611a078482602086016119a0565b91505092915050565b60008060408385031215611a2757611a26611779565b5b600083013567ffffffffffffffff811115611a4557611a4461177e565b5b611a51858286016119e2565b925050602083013567ffffffffffffffff811115611a7257611a7161177e565b5b611a7e858286016119e2565b9150509250929050565b60008115159050919050565b611a9d81611a88565b82525050565b6000602082019050611ab86000830184611a94565b92915050565b600067ffffffffffffffff821115611ad957611ad86118e5565b5b602082029050602081019050919050565b600080fd5b6000611b02611afd84611abe565b611945565b90508083825260208201905060208402830185811115611b2557611b24611aea565b5b835b81811015611b6c57803567ffffffffffffffff811115611b4a57611b496118db565b5b808601611b5789826119e2565b85526020850194505050602081019050611b27565b5050509392505050565b600082601f830112611b8b57611b8a6118db565b5b8135611b9b848260208601611aef565b91505092915050565b60008060408385031215611bbb57611bba611779565b5b600083013567ffffffffffffffff811115611bd957611bd861177e565b5b611be5858286016119e2565b925050602083013567ffffffffffffffff811115611c0657611c0561177e565b5b611c1285828601611b76565b9150509250929050565b6000602082019050611c3160008301846116d5565b92915050565b60048110611c4857611c476111eb565b5b50565b6000819050611c5982611c37565b919050565b6000611c6982611c4b565b9050919050565b611c7981611c5e565b82525050565b6000602082019050611c946000830184611c70565b92915050565b600080600060608486031215611cb357611cb2611779565b5b6000611cc186828701611899565b9350506020611cd286828701611899565b9250506040611ce386828701611899565b9150509250925092565b60078110611cfa57600080fd5b50565b600081359050611d0c81611ced565b92915050565b60008060408385031215611d2957611d28611779565b5b6000611d3785828601611cfd565b9250506020611d4885828601611899565b9150509250929050565b600060208284031215611d6857611d67611779565b5b6000611d7684828501611cfd565b91505092915050565b6000606082019050611d946000830186611858565b611da16020830185611858565b611dae6040830184611c70565b949350505050565b600060a082019050611dcb6000830188611a94565b611dd86020830187611a94565b611de56040830186611a94565b611df26060830185611a94565b611dff6080830184611a94565b9695505050505050565b7f4e487b7100000000000000000000000000000000000000000000000000000000600052602260045260246000fd5b60006002820490506001821680611e5057607f821691505b602082108103611e6357611e62611e09565b5b50919050565b7f4f6e6c792061207265676973746572656420726567697374726172206861732060008201527f61636365737320746f207468697320616374696f6e2e00000000000000000000602082015250565b6000611ec560368361121a565b9150611ed082611e69565b604082019050919050565b60006020820190508181036000830152611ef481611eb8565b9050919050565b7f5468652070726f7065727479206973206e6f74206c6567616c6c7920616c726960008201527f6768742e00000000000000000000000000000000000000000000000000000000602082015250565b6000611f5760248361121a565b9150611f6282611efb565b604082019050919050565b60006020820190508181036000830152611f8681611f4a565b9050919050565b7f4f6e6c7920746865206f776e6572206f662074686520436f6e7472616374206860008201527f61732061636365737320746f2074686973210000000000000000000000000000602082015250565b6000611fe960328361121a565b9150611ff482611f8d565b604082019050919050565b6000602082019050818103600083015261201881611fdc565b9050919050565b60008190508160005260206000209050919050565b60006020601f8301049050919050565b600082821b905092915050565b6000600883026120817fffffffffffffffffffffffffffffffffffffffffffffffffffffffffffffffff82612044565b61208b8683612044565b95508019841693508086168417925050509392505050565b6000819050919050565b60006120c86120c36120be84611329565b6120a3565b611329565b9050919050565b6000819050919050565b6120e2836120ad565b6120f66120ee826120cf565b848454612051565b825550505050565b600090565b61210b6120fe565b6121168184846120d9565b505050565b5b8181101561213a5761212f600082612103565b60018101905061211c565b5050565b601f82111561217f576121508161201f565b61215984612034565b81016020851015612168578190505b61217c61217485612034565b83018261211b565b50505b505050565b600082821c905092915050565b60006121a260001984600802612184565b1980831691505092915050565b60006121bb8383612191565b9150826002028217905092915050565b6121d482611656565b67ffffffffffffffff8111156121ed576121ec6118e5565b5b6121f78254611e38565b61220282828561213e565b600060209050601f8311600181146122355760008415612223578287015190505b61222d85826121af565b865550612295565b601f1984166122438661201f565b60005b8281101561226b57848901518255600182019150602085019450602081019050612246565b868310156122885784890151612284601f891682612191565b8355505b6001600288020188555050505b505050505050565b7f4e487b7100000000000000000000000000000000000000000000000000000000600052603260045260246000fd5b60006122d782611329565b91507fffffffffffffffffffffffffffffffffffffffffffffffffffffffffffffffff820361230957612308611333565b5b600182019050919050565b600081905092915050565b600061232a82611656565b6123348185612314565b9350612344818560208601611661565b80840191505092915050565b600061235c828461231f565b91508190509291505056fea26469706673582212205ef678827ea7bf9025fcaaf083e93a9d25ae222ac2f75cb0e29e11bee60fcaa764736f6c63430008100033",
  "immutableReferences": {},
  "source": "//SPDX-License-Identifier: MIT\r\npragma solidity ^0.8.15;\r\n\r\nenum PropertyTitleContractState { INITIALIZED, OWNED, FOR_SALE, NO_LONGER_RELEVANT }\r\n\r\nenum HousingTenure {\r\n    OWNER_OCCUPANCY,\r\n    TENANCY,\r\n    COOPERATIVE,\r\n    CONDOMIUM,\r\n    PUBLIC_HOUSING,\r\n    SQUATTING,\r\n    LAND_TRUST\r\n}\r\n\r\nstruct PropertyDetails {\r\n    HousingTenure tenureType;\r\n    string country;\r\n    string city;\r\n    string street;\r\n    string streetNumber;\r\n    uint256 apartmentNumber;\r\n    uint256 squareMetres;\r\n}\r\n\r\nstruct RequiredPropertyDocuments {\r\n    bool proofOfIdentity;\r\n    bool propertyTitleDeeds;\r\n    bool energyPerformanceCertificate;\r\n    bool extensionsAndAlterationsDocumentation;\r\n    bool utilityBillsPaid;\r\n}\r\n\r\n\r\ncontract PropertyTitle {\r\n    PropertyTitleContractState public contractState;\r\n    uint256 public sellingPriceIntegralPart;\r\n    uint256 public sellingPriceFractionalPart;\r\n    uint256 public sellingPriceFractionalPartLength;\r\n    address public creator;\r\n    address public owner;\r\n    PropertyDetails public propertyDetails;\r\n    RequiredPropertyDocuments public requiredDocuments;\r\n\r\n    constructor(\r\n        address _creator,\r\n        address _owner,\r\n        string memory _country,\r\n        string memory _city,\r\n        string memory _street,\r\n        string memory _streeNumber,\r\n        uint256 _apartmentNumber,\r\n        uint256 _squareMeters\r\n    )\r\n    {\r\n        creator = _creator;\r\n        owner = _owner;\r\n        contractState = PropertyTitleContractState.FOR_SALE;\r\n        propertyDetails.country = _country;\r\n        propertyDetails.city = _city;\r\n        propertyDetails.street = _street;\r\n        propertyDetails.streetNumber = _streeNumber;\r\n        propertyDetails.apartmentNumber = _apartmentNumber;\r\n        propertyDetails.squareMetres = _squareMeters;\r\n\r\n        sellingPriceIntegralPart = 7;\r\n        sellingPriceFractionalPart = 534;\r\n        sellingPriceFractionalPartLength = 3;\r\n    }\r\n\r\n    receive() external payable onlyIfPropertyForSale\r\n    {\r\n        uint256 sellingPriceWeiValue = (sellingPriceIntegralPart * 10**18) + (sellingPriceFractionalPart * 10**(18-sellingPriceFractionalPartLength));\r\n        require(msg.sender.balance >= sellingPriceWeiValue, 'Insufficient funds');\r\n        payable(owner).transfer(msg.value);\r\n        contractState = PropertyTitleContractState.OWNED;\r\n        owner = payable(msg.sender);\r\n    }\r\n\r\n    function modifyContractState(\r\n        address payable _owner, \r\n        PropertyTitleContractState _contractState\r\n    )\r\n        external \r\n        onlyIfUserIsRegistrar\r\n    {\r\n        owner = _owner;\r\n        contractState = _contractState;\r\n    }\r\n\r\n    function insertPropertyDetails(\r\n        HousingTenure _tenureType,\r\n        uint256 _squareMetres\r\n    )\r\n        external\r\n        onlyOwner\r\n        onlyIfLegallyAllowed\r\n    {\r\n        propertyDetails.tenureType = _tenureType;\r\n        propertyDetails.squareMetres = _squareMetres;\r\n    }\r\n\r\n    function modifyPropertyAdress(string memory _street, string memory _streeNumber) external onlyIfLegallyAllowed onlyOwner {\r\n        propertyDetails.street = _street;\r\n        propertyDetails.streetNumber = _streeNumber;\r\n    }\r\n\r\n    function modifyPropertyTenureType(HousingTenure _tenureType) external onlyIfLegallyAllowed onlyOwner {\r\n        propertyDetails.tenureType = _tenureType;\r\n    }\r\n\r\n    function modifyPropertySquareMetres(uint256 _squareMetres) external onlyIfLegallyAllowed onlyOwner {\r\n        propertyDetails.squareMetres = _squareMetres;\r\n    }\r\n\r\n    function setPropertySellingPrice(\r\n        uint256 _sellingPriceIntegralPart, \r\n        uint256 _sellingPriceFractionalPart, \r\n        uint256 _sellingPriceFractionalPartLength\r\n    ) \r\n        external \r\n        onlyIfLegallyAllowed \r\n        onlyOwner \r\n    {\r\n        sellingPriceIntegralPart = _sellingPriceIntegralPart;\r\n        sellingPriceFractionalPart = _sellingPriceFractionalPart;\r\n        sellingPriceFractionalPartLength = _sellingPriceFractionalPartLength;\r\n        contractState = PropertyTitleContractState.FOR_SALE;\r\n    }\r\n\r\n    function getPropertySellingPrice() public view returns (uint256) {\r\n        uint256 sellingPriceWeiValue = (sellingPriceIntegralPart * 10**18) + (sellingPriceFractionalPart * 10**(18-sellingPriceFractionalPartLength));\r\n        return sellingPriceWeiValue;\r\n    }\r\n\r\n    function getContractDetails() public view returns (address, address, PropertyTitleContractState) {\r\n        return (creator, owner, contractState);\r\n    }\r\n\r\n    function validatePropertyDebts() public view returns (bool) {\r\n        /// TODO\r\n        return true;\r\n        /// TODO\r\n    }\r\n\r\n    function checkIfUserIsRegistrar() public view returns (bool) {\r\n        //address currentUser = msg.sender;\r\n        // registrarsArray = CentralContract.getRegistrarsArray();\r\n        // for (uint256 i = 0; i < registrarsArray.length; i++) {\r\n        //     if (currentUser == registrarsArray[i]) {\r\n        //         return true;\r\n        //     }\r\n        // }\r\n        return true;\r\n    }\r\n\r\n    function checkStringsEquality(string memory firstString, string memory secondString) public pure returns (bool) {\r\n        if (bytes(firstString).length != bytes(secondString).length) {\r\n            return false;\r\n        } else {\r\n            return keccak256(abi.encodePacked(firstString)) == keccak256(abi.encodePacked(secondString));\r\n        }\r\n    }\r\n\r\n    function checkIfStringIsFoundInStringsArray(\r\n        string memory stringToSearchFor,\r\n        string[] memory stringsArray\r\n    )\r\n        public\r\n        pure\r\n        returns (bool)\r\n    {\r\n        for (uint256 i = 0; i < stringsArray.length; i++) {\r\n            if (checkStringsEquality(stringToSearchFor, stringsArray[i])) {\r\n                return true;\r\n            }\r\n        }\r\n\r\n        return false;\r\n    }\r\n\r\n\r\n    modifier onlyCreator {\r\n        require(msg.sender == creator, \"Only the creator of the Contract has access to this!\");\r\n        _;\r\n    }\r\n\r\n    modifier onlyOwner {\r\n        require(msg.sender == owner, \"Only the owner of the Contract has access to this!\");\r\n        _;\r\n    }\r\n\r\n    modifier onlyIfLegallyAllowed {\r\n        require(validatePropertyDebts(), \"The property is not legally alright.\");\r\n        _;\r\n    }\r\n\r\n    modifier onlyIfUserIsRegistrar {\r\n        require(checkIfUserIsRegistrar(), \"Only a registered registrar has access to this action.\");\r\n        _;\r\n    }\r\n\r\n    modifier onlyIfPropertyForSale {\r\n        require(propertyDetails.tenureType == HousingTenure.OWNER_OCCUPANCY || propertyDetails.tenureType == HousingTenure.CONDOMIUM,\r\n            \"This property's tenure type does not support being sold\");\r\n        require(contractState == PropertyTitleContractState.FOR_SALE, \"This property is not for sale.\");\r\n        _;\r\n    }\r\n}",
  "sourcePath": "D:\\Propty\\propty\\contracts\\contracts\\PropertyTitle.sol",
  "compiler": {
    "name": "solc",
    "version": "0.8.16+commit.07a7930e.Emscripten.clang"
  },
  "schemaVersion": "3.4.9",
  "updatedAt": "2022-10-08T07:25:32.655Z",
  "networkType": "ethereum",
  "devdoc": {
    "kind": "dev",
    "methods": {},
    "version": 1
  },
  "userdoc": {
    "kind": "user",
    "methods": {},
    "version": 1
  }
}