{
  "contractName": "PropertyTitle",
  "abi": [
    {
      "inputs": [
        {
          "internalType": "address",
          "name": "_creator",
          "type": "address"
        },
        {
          "internalType": "address",
          "name": "_owner",
          "type": "address"
        },
        {
          "internalType": "string",
          "name": "_country",
          "type": "string"
        },
        {
          "internalType": "string",
          "name": "_city",
          "type": "string"
        },
        {
          "internalType": "string",
          "name": "_street",
          "type": "string"
        },
        {
          "internalType": "string",
          "name": "_streeNumber",
          "type": "string"
        },
        {
          "internalType": "uint256",
          "name": "_apartmentNumber",
          "type": "uint256"
        },
        {
          "internalType": "uint256",
          "name": "_squareMeters",
          "type": "uint256"
        },
        {
          "internalType": "uint256",
          "name": "_sellingPriceIntegralPart",
          "type": "uint256"
        },
        {
          "internalType": "uint256",
          "name": "_sellingPriceFractionalPart",
          "type": "uint256"
        },
        {
          "internalType": "uint256",
          "name": "_sellingPriceFractionalPartLength",
          "type": "uint256"
        }
      ],
      "stateMutability": "nonpayable",
      "type": "constructor"
    },
    {
      "inputs": [],
      "name": "contractState",
      "outputs": [
        {
          "internalType": "enum PropertyTitleContractState",
          "name": "",
          "type": "uint8"
        }
      ],
      "stateMutability": "view",
      "type": "function"
    },
    {
      "inputs": [],
      "name": "creator",
      "outputs": [
        {
          "internalType": "address",
          "name": "",
          "type": "address"
        }
      ],
      "stateMutability": "view",
      "type": "function"
    },
    {
      "inputs": [],
      "name": "owner",
      "outputs": [
        {
          "internalType": "address",
          "name": "",
          "type": "address"
        }
      ],
      "stateMutability": "view",
      "type": "function"
    },
    {
      "inputs": [],
      "name": "propertyDetails",
      "outputs": [
        {
          "internalType": "enum HousingTenure",
          "name": "tenureType",
          "type": "uint8"
        },
        {
          "internalType": "string",
          "name": "country",
          "type": "string"
        },
        {
          "internalType": "string",
          "name": "city",
          "type": "string"
        },
        {
          "internalType": "string",
          "name": "street",
          "type": "string"
        },
        {
          "internalType": "string",
          "name": "streetNumber",
          "type": "string"
        },
        {
          "internalType": "uint256",
          "name": "apartmentNumber",
          "type": "uint256"
        },
        {
          "internalType": "uint256",
          "name": "squareMeters",
          "type": "uint256"
        }
      ],
      "stateMutability": "view",
      "type": "function"
    },
    {
      "inputs": [],
      "name": "requiredDocuments",
      "outputs": [
        {
          "internalType": "bool",
          "name": "proofOfIdentity",
          "type": "bool"
        },
        {
          "internalType": "bool",
          "name": "propertyTitleDeeds",
          "type": "bool"
        },
        {
          "internalType": "bool",
          "name": "energyPerformanceCertificate",
          "type": "bool"
        },
        {
          "internalType": "bool",
          "name": "extensionsAndAlterationsDocumentation",
          "type": "bool"
        },
        {
          "internalType": "bool",
          "name": "utilityBillsPaid",
          "type": "bool"
        }
      ],
      "stateMutability": "view",
      "type": "function"
    },
    {
      "inputs": [],
      "name": "sellingPrice",
      "outputs": [
        {
          "internalType": "uint256",
          "name": "sellingPriceIntegralPart",
          "type": "uint256"
        },
        {
          "internalType": "uint256",
          "name": "sellingPriceFractionalPart",
          "type": "uint256"
        },
        {
          "internalType": "uint256",
          "name": "sellingPriceFractionalPartLength",
          "type": "uint256"
        }
      ],
      "stateMutability": "view",
      "type": "function"
    },
    {
      "stateMutability": "payable",
      "type": "receive"
    },
    {
      "inputs": [
        {
          "internalType": "address payable",
          "name": "_owner",
          "type": "address"
        },
        {
          "internalType": "enum PropertyTitleContractState",
          "name": "_contractState",
          "type": "uint8"
        }
      ],
      "name": "modifyContractStateAndOwner",
      "outputs": [],
      "stateMutability": "nonpayable",
      "type": "function"
    },
    {
      "inputs": [
        {
          "internalType": "enum HousingTenure",
          "name": "_tenureType",
          "type": "uint8"
        },
        {
          "internalType": "uint256",
          "name": "_squareMeters",
          "type": "uint256"
        }
      ],
      "name": "insertPropertyDetails",
      "outputs": [],
      "stateMutability": "nonpayable",
      "type": "function"
    },
    {
      "inputs": [
        {
          "internalType": "enum PropertyTitleContractState",
          "name": "_contractState",
          "type": "uint8"
        }
      ],
      "name": "modifyContractState",
      "outputs": [],
      "stateMutability": "nonpayable",
      "type": "function"
    },
    {
      "inputs": [
        {
          "internalType": "string",
          "name": "_street",
          "type": "string"
        },
        {
          "internalType": "string",
          "name": "_streeNumber",
          "type": "string"
        }
      ],
      "name": "modifyPropertyAdress",
      "outputs": [],
      "stateMutability": "nonpayable",
      "type": "function"
    },
    {
      "inputs": [
        {
          "internalType": "uint256",
          "name": "_sellingPriceIntegralPart",
          "type": "uint256"
        },
        {
          "internalType": "uint256",
          "name": "_sellingPriceFractionalPart",
          "type": "uint256"
        },
        {
          "internalType": "uint256",
          "name": "_sellingPriceFractionalPartLength",
          "type": "uint256"
        },
        {
          "internalType": "enum HousingTenure",
          "name": "_tenureType",
          "type": "uint8"
        },
        {
          "internalType": "uint256",
          "name": "_squareMeters",
          "type": "uint256"
        }
      ],
      "name": "modifyPropertyPriceAndTenureAndMeters",
      "outputs": [],
      "stateMutability": "nonpayable",
      "type": "function"
    },
    {
      "inputs": [
        {
          "internalType": "enum HousingTenure",
          "name": "_tenureType",
          "type": "uint8"
        }
      ],
      "name": "modifyPropertyTenureType",
      "outputs": [],
      "stateMutability": "nonpayable",
      "type": "function"
    },
    {
      "inputs": [
        {
          "internalType": "uint256",
          "name": "_squareMeters",
          "type": "uint256"
        }
      ],
      "name": "modifyPropertySquareMeters",
      "outputs": [],
      "stateMutability": "nonpayable",
      "type": "function"
    },
    {
      "inputs": [
        {
          "internalType": "uint256",
          "name": "_sellingPriceIntegralPart",
          "type": "uint256"
        },
        {
          "internalType": "uint256",
          "name": "_sellingPriceFractionalPart",
          "type": "uint256"
        },
        {
          "internalType": "uint256",
          "name": "_sellingPriceFractionalPartLength",
          "type": "uint256"
        }
      ],
      "name": "setPropertySellingPrice",
      "outputs": [],
      "stateMutability": "nonpayable",
      "type": "function"
    },
    {
      "inputs": [],
      "name": "getPropertySellingPrice",
      "outputs": [
        {
          "internalType": "uint256",
          "name": "",
          "type": "uint256"
        }
      ],
      "stateMutability": "view",
      "type": "function"
    },
    {
      "inputs": [],
      "name": "getContractDetails",
      "outputs": [
        {
          "internalType": "address",
          "name": "",
          "type": "address"
        },
        {
          "internalType": "address",
          "name": "",
          "type": "address"
        },
        {
          "internalType": "enum PropertyTitleContractState",
          "name": "",
          "type": "uint8"
        }
      ],
      "stateMutability": "view",
      "type": "function"
    },
    {
      "inputs": [],
      "name": "validatePropertyDebts",
      "outputs": [
        {
          "internalType": "bool",
          "name": "",
          "type": "bool"
        }
      ],
      "stateMutability": "view",
      "type": "function"
    },
    {
      "inputs": [],
      "name": "checkIfUserIsRegistrar",
      "outputs": [
        {
          "internalType": "bool",
          "name": "",
          "type": "bool"
        }
      ],
      "stateMutability": "view",
      "type": "function"
    },
    {
      "inputs": [
        {
          "internalType": "string",
          "name": "firstString",
          "type": "string"
        },
        {
          "internalType": "string",
          "name": "secondString",
          "type": "string"
        }
      ],
      "name": "checkStringsEquality",
      "outputs": [
        {
          "internalType": "bool",
          "name": "",
          "type": "bool"
        }
      ],
      "stateMutability": "pure",
      "type": "function"
    },
    {
      "inputs": [
        {
          "internalType": "string",
          "name": "stringToSearchFor",
          "type": "string"
        },
        {
          "internalType": "string[]",
          "name": "stringsArray",
          "type": "string[]"
        }
      ],
      "name": "checkIfStringIsFoundInStringsArray",
      "outputs": [
        {
          "internalType": "bool",
          "name": "",
          "type": "bool"
        }
      ],
      "stateMutability": "pure",
      "type": "function"
    }
  ],
  "bytecode": "0x60806040523480156200001157600080fd5b50604051620034d1380380620034d18339818101604052810190620000379190620003ae565b8a600460006101000a81548173ffffffffffffffffffffffffffffffffffffffff021916908373ffffffffffffffffffffffffffffffffffffffff16021790555089600560006101000a81548173ffffffffffffffffffffffffffffffffffffffff021916908373ffffffffffffffffffffffffffffffffffffffff16021790555060008060006101000a81548160ff02191690836003811115620000e157620000e062000537565b5b02179055508860066001019081620000fa9190620007a7565b5087600660020190816200010f9190620007a7565b508660066003019081620001249190620007a7565b508560066004019081620001399190620007a7565b5084600660050181905550836006800181905550826001600001819055508160018001819055508060016002018190555050505050505050505050506200088e565b6000604051905090565b600080fd5b600080fd5b600073ffffffffffffffffffffffffffffffffffffffff82169050919050565b6000620001bc826200018f565b9050919050565b620001ce81620001af565b8114620001da57600080fd5b50565b600081519050620001ee81620001c3565b92915050565b600080fd5b600080fd5b6000601f19601f8301169050919050565b7f4e487b7100000000000000000000000000000000000000000000000000000000600052604160045260246000fd5b6200024982620001fe565b810181811067ffffffffffffffff821117156200026b576200026a6200020f565b5b80604052505050565b6000620002806200017b565b90506200028e82826200023e565b919050565b600067ffffffffffffffff821115620002b157620002b06200020f565b5b620002bc82620001fe565b9050602081019050919050565b60005b83811015620002e9578082015181840152602081019050620002cc565b60008484015250505050565b60006200030c620003068462000293565b62000274565b9050828152602081018484840111156200032b576200032a620001f9565b5b62000338848285620002c9565b509392505050565b600082601f830112620003585762000357620001f4565b5b81516200036a848260208601620002f5565b91505092915050565b6000819050919050565b620003888162000373565b81146200039457600080fd5b50565b600081519050620003a8816200037d565b92915050565b60008060008060008060008060008060006101608c8e031215620003d757620003d662000185565b5b6000620003e78e828f01620001dd565b9b50506020620003fa8e828f01620001dd565b9a505060408c015167ffffffffffffffff8111156200041e576200041d6200018a565b5b6200042c8e828f0162000340565b99505060608c015167ffffffffffffffff81111562000450576200044f6200018a565b5b6200045e8e828f0162000340565b98505060808c015167ffffffffffffffff8111156200048257620004816200018a565b5b620004908e828f0162000340565b97505060a08c015167ffffffffffffffff811115620004b457620004b36200018a565b5b620004c28e828f0162000340565b96505060c0620004d58e828f0162000397565b95505060e0620004e88e828f0162000397565b945050610100620004fc8e828f0162000397565b935050610120620005108e828f0162000397565b925050610140620005248e828f0162000397565b9150509295989b509295989b9093969950565b7f4e487b7100000000000000000000000000000000000000000000000000000000600052602160045260246000fd5b600081519050919050565b7f4e487b7100000000000000000000000000000000000000000000000000000000600052602260045260246000fd5b60006002820490506001821680620005b957607f821691505b602082108103620005cf57620005ce62000571565b5b50919050565b60008190508160005260206000209050919050565b60006020601f8301049050919050565b600082821b905092915050565b600060088302620006397fffffffffffffffffffffffffffffffffffffffffffffffffffffffffffffffff82620005fa565b620006458683620005fa565b95508019841693508086168417925050509392505050565b6000819050919050565b600062000688620006826200067c8462000373565b6200065d565b62000373565b9050919050565b6000819050919050565b620006a48362000667565b620006bc620006b3826200068f565b84845462000607565b825550505050565b600090565b620006d3620006c4565b620006e081848462000699565b505050565b5b818110156200070857620006fc600082620006c9565b600181019050620006e6565b5050565b601f82111562000757576200072181620005d5565b6200072c84620005ea565b810160208510156200073c578190505b620007546200074b85620005ea565b830182620006e5565b50505b505050565b600082821c905092915050565b60006200077c600019846008026200075c565b1980831691505092915050565b600062000797838362000769565b9150826002028217905092915050565b620007b28262000566565b67ffffffffffffffff811115620007ce57620007cd6200020f565b5b620007da8254620005a0565b620007e78282856200070c565b600060209050601f8311600181146200081f57600084156200080a578287015190505b62000816858262000789565b86555062000886565b601f1984166200082f86620005d5565b60005b82811015620008595784890151825560018201915060208501945060208101905062000832565b8683101562000879578489015162000875601f89168262000769565b8355505b6001600288020188555050505b505050505050565b612c33806200089e6000396000f3fe6080604052600436106101225760003560e01c806385329517116100a05780639dfc9117116100645780639dfc9117146106e3578063b3cbb32c14610710578063b6366d921461074d578063daca4eef14610776578063f5cfb032146107a55761044b565b806385329517146106125780638d97bee81461063b5780638da5cb5b1461066457806394a81f011461068f57806397035a07146106ba5761044b565b8063446a4fe9116100e7578063446a4fe91461052b5780635293c83814610556578063536f5c361461059357806372b50109146105be57806385209ee0146105e75761044b565b80627dc3721461045057806302d05d3f1461048157806312821b5e146104ac5780633d7a4492146104d957806341fa1766146105025761044b565b3661044b576000600681111561013b5761013a6118b7565b5b600660000160009054906101000a900460ff1660068111156101605761015f6118b7565b5b14806101a257506003600681111561017b5761017a6118b7565b5b600660000160009054906101000a900460ff1660068111156101a05761019f6118b7565b5b145b6101e1576040517f08c379a00000000000000000000000000000000000000000000000000000000081526004016101d890611969565b60405180910390fd5b600260038111156101f5576101f46118b7565b5b60008054906101000a900460ff166003811115610215576102146118b7565b5b14610255576040517f08c379a000000000000000000000000000000000000000000000000000000000815260040161024c906119d5565b60405180910390fd5b600380811115610268576102676118b7565b5b60008054906101000a900460ff166003811115610288576102876118b7565b5b036102c8576040517f08c379a00000000000000000000000000000000000000000000000000000000081526004016102bf90611a67565b60405180910390fd5b600060016002015460126102dc9190611ac0565b600a6102e89190611c27565b60018001546102f79190611c72565b670de0b6b3a76400006001600001546103109190611c72565b61031a9190611ccc565b9050803373ffffffffffffffffffffffffffffffffffffffff16311015610376576040517f08c379a000000000000000000000000000000000000000000000000000000000815260040161036d90611d4c565b60405180910390fd5b600560009054906101000a900473ffffffffffffffffffffffffffffffffffffffff1673ffffffffffffffffffffffffffffffffffffffff166108fc349081150290604051600060405180830381858888f193505050501580156103de573d6000803e3d6000fd5b5060016000806101000a81548160ff02191690836003811115610404576104036118b7565b5b021790555033600560006101000a81548173ffffffffffffffffffffffffffffffffffffffff021916908373ffffffffffffffffffffffffffffffffffffffff1602179055005b600080fd5b34801561045c57600080fd5b506104656107ce565b6040516104789796959493929190611e42565b60405180910390f35b34801561048d57600080fd5b50610496610a2b565b6040516104a39190611f0e565b60405180910390f35b3480156104b857600080fd5b506104c1610a51565b6040516104d093929190611f29565b60405180910390f35b3480156104e557600080fd5b5061050060048036038101906104fb91906120a9565b610a69565b005b34801561050e57600080fd5b5061052960048036038101906105249190612172565b610bdd565b005b34801561053757600080fd5b50610540610d81565b60405161054d9190612208565b60405180910390f35b34801561056257600080fd5b5061057d60048036038101906105789190612309565b610d8a565b60405161058a9190612208565b60405180910390f35b34801561059f57600080fd5b506105a8610ded565b6040516105b59190612381565b60405180910390f35b3480156105ca57600080fd5b506105e560048036038101906105e091906123ff565b610e49565b005b3480156105f357600080fd5b506105fc61100c565b6040516106099190612487565b60405180910390f35b34801561061e57600080fd5b50610639600480360381019061063491906124a2565b61101d565b005b34801561064757600080fd5b50610662600480360381019061065d91906124f5565b611189565b005b34801561067057600080fd5b5061067961130d565b6040516106869190611f0e565b60405180910390f35b34801561069b57600080fd5b506106a4611333565b6040516106b19190612208565b60405180910390f35b3480156106c657600080fd5b506106e160048036038101906106dc9190612535565b61133c565b005b3480156106ef57600080fd5b506106f86114b6565b60405161070793929190612562565b60405180910390f35b34801561071c57600080fd5b50610737600480360381019061073291906120a9565b61151a565b6040516107449190612208565b60405180910390f35b34801561075957600080fd5b50610774600480360381019061076f9190612599565b611586565b005b34801561078257600080fd5b5061078b6116dc565b60405161079c9594939291906125c6565b60405180910390f35b3480156107b157600080fd5b506107cc60048036038101906107c79190612619565b611741565b005b60068060000160009054906101000a900460ff16908060010180546107f290612675565b80601f016020809104026020016040519081016040528092919081815260200182805461081e90612675565b801561086b5780601f106108405761010080835404028352916020019161086b565b820191906000526020600020905b81548152906001019060200180831161084e57829003601f168201915b50505050509080600201805461088090612675565b80601f01602080910402602001604051908101604052809291908181526020018280546108ac90612675565b80156108f95780601f106108ce576101008083540402835291602001916108f9565b820191906000526020600020905b8154815290600101906020018083116108dc57829003601f168201915b50505050509080600301805461090e90612675565b80601f016020809104026020016040519081016040528092919081815260200182805461093a90612675565b80156109875780601f1061095c57610100808354040283529160200191610987565b820191906000526020600020905b81548152906001019060200180831161096a57829003601f168201915b50505050509080600401805461099c90612675565b80601f01602080910402602001604051908101604052809291908181526020018280546109c890612675565b8015610a155780601f106109ea57610100808354040283529160200191610a15565b820191906000526020600020905b8154815290600101906020018083116109f857829003601f168201915b5050505050908060050154908060060154905087565b600460009054906101000a900473ffffffffffffffffffffffffffffffffffffffff1681565b60018060000154908060010154908060020154905083565b610a71611333565b610ab0576040517f08c379a0000000000000000000000000000000000000000000000000000000008152600401610aa790612718565b60405180910390fd5b600560009054906101000a900473ffffffffffffffffffffffffffffffffffffffff1673ffffffffffffffffffffffffffffffffffffffff163373ffffffffffffffffffffffffffffffffffffffff1614610b40576040517f08c379a0000000000000000000000000000000000000000000000000000000008152600401610b37906127aa565b60405180910390fd5b600380811115610b5357610b526118b7565b5b60008054906101000a900460ff166003811115610b7357610b726118b7565b5b03610bb3576040517f08c379a0000000000000000000000000000000000000000000000000000000008152600401610baa90611a67565b60405180910390fd5b8160066003019081610bc59190612976565b508060066004019081610bd89190612976565b505050565b610be5611333565b610c24576040517f08c379a0000000000000000000000000000000000000000000000000000000008152600401610c1b90612718565b60405180910390fd5b600560009054906101000a900473ffffffffffffffffffffffffffffffffffffffff1673ffffffffffffffffffffffffffffffffffffffff163373ffffffffffffffffffffffffffffffffffffffff1614610cb4576040517f08c379a0000000000000000000000000000000000000000000000000000000008152600401610cab906127aa565b60405180910390fd5b600380811115610cc757610cc66118b7565b5b60008054906101000a900460ff166003811115610ce757610ce66118b7565b5b03610d27576040517f08c379a0000000000000000000000000000000000000000000000000000000008152600401610d1e90611a67565b60405180910390fd5b846001600001819055508360018001819055508260016002018190555081600660000160006101000a81548160ff02191690836006811115610d6c57610d6b6118b7565b5b02179055508060068001819055505050505050565b60006001905090565b600080600090505b8251811015610de157610dbf84848381518110610db257610db1612a48565b5b602002602001015161151a565b15610dce576001915050610de7565b8080610dd990612a77565b915050610d92565b50600090505b92915050565b6000806001600201546012610e029190611ac0565b600a610e0e9190611c27565b6001800154610e1d9190611c72565b670de0b6b3a7640000600160000154610e369190611c72565b610e409190611ccc565b90508091505090565b60011515600460009054906101000a900473ffffffffffffffffffffffffffffffffffffffff1673ffffffffffffffffffffffffffffffffffffffff1663f33c4ff9336040518263ffffffff1660e01b8152600401610ea89190611f0e565b602060405180830381865afa158015610ec5573d6000803e3d6000fd5b505050506040513d601f19601f82011682018060405250810190610ee99190612aeb565b151514610f2b576040517f08c379a0000000000000000000000000000000000000000000000000000000008152600401610f2290612b8a565b60405180910390fd5b600380811115610f3e57610f3d6118b7565b5b60008054906101000a900460ff166003811115610f5e57610f5d6118b7565b5b03610f9e576040517f08c379a0000000000000000000000000000000000000000000000000000000008152600401610f9590611a67565b60405180910390fd5b81600560006101000a81548173ffffffffffffffffffffffffffffffffffffffff021916908373ffffffffffffffffffffffffffffffffffffffff160217905550806000806101000a81548160ff02191690836003811115611003576110026118b7565b5b02179055505050565b60008054906101000a900460ff1681565b611025611333565b611064576040517f08c379a000000000000000000000000000000000000000000000000000000000815260040161105b90612718565b60405180910390fd5b600560009054906101000a900473ffffffffffffffffffffffffffffffffffffffff1673ffffffffffffffffffffffffffffffffffffffff163373ffffffffffffffffffffffffffffffffffffffff16146110f4576040517f08c379a00000000000000000000000000000000000000000000000000000000081526004016110eb906127aa565b60405180910390fd5b600380811115611107576111066118b7565b5b60008054906101000a900460ff166003811115611127576111266118b7565b5b03611167576040517f08c379a000000000000000000000000000000000000000000000000000000000815260040161115e90611a67565b60405180910390fd5b8260016000018190555081600180018190555080600160020181905550505050565b600560009054906101000a900473ffffffffffffffffffffffffffffffffffffffff1673ffffffffffffffffffffffffffffffffffffffff163373ffffffffffffffffffffffffffffffffffffffff1614611219576040517f08c379a0000000000000000000000000000000000000000000000000000000008152600401611210906127aa565b60405180910390fd5b611221611333565b611260576040517f08c379a000000000000000000000000000000000000000000000000000000000815260040161125790612718565b60405180910390fd5b600380811115611273576112726118b7565b5b60008054906101000a900460ff166003811115611293576112926118b7565b5b036112d3576040517f08c379a00000000000000000000000000000000000000000000000000000000081526004016112ca90611a67565b60405180910390fd5b81600660000160006101000a81548160ff021916908360068111156112fb576112fa6118b7565b5b02179055508060068001819055505050565b600560009054906101000a900473ffffffffffffffffffffffffffffffffffffffff1681565b60006001905090565b611344611333565b611383576040517f08c379a000000000000000000000000000000000000000000000000000000000815260040161137a90612718565b60405180910390fd5b600560009054906101000a900473ffffffffffffffffffffffffffffffffffffffff1673ffffffffffffffffffffffffffffffffffffffff163373ffffffffffffffffffffffffffffffffffffffff1614611413576040517f08c379a000000000000000000000000000000000000000000000000000000000815260040161140a906127aa565b60405180910390fd5b600380811115611426576114256118b7565b5b60008054906101000a900460ff166003811115611446576114456118b7565b5b03611486576040517f08c379a000000000000000000000000000000000000000000000000000000000815260040161147d90611a67565b60405180910390fd5b80600660000160006101000a81548160ff021916908360068111156114ae576114ad6118b7565b5b021790555050565b6000806000600460009054906101000a900473ffffffffffffffffffffffffffffffffffffffff16600560009054906101000a900473ffffffffffffffffffffffffffffffffffffffff1660008054906101000a900460ff16925092509250909192565b6000815183511461152e5760009050611580565b8160405160200161153f9190612be6565b60405160208183030381529060405280519060200120836040516020016115669190612be6565b604051602081830303815290604052805190602001201490505b92915050565b61158e611333565b6115cd576040517f08c379a00000000000000000000000000000000000000000000000000000000081526004016115c490612718565b60405180910390fd5b600560009054906101000a900473ffffffffffffffffffffffffffffffffffffffff1673ffffffffffffffffffffffffffffffffffffffff163373ffffffffffffffffffffffffffffffffffffffff161461165d576040517f08c379a0000000000000000000000000000000000000000000000000000000008152600401611654906127aa565b60405180910390fd5b6003808111156116705761166f6118b7565b5b60008054906101000a900460ff1660038111156116905761168f6118b7565b5b036116d0576040517f08c379a00000000000000000000000000000000000000000000000000000000081526004016116c790611a67565b60405180910390fd5b80600680018190555050565b600d8060000160009054906101000a900460ff16908060000160019054906101000a900460ff16908060000160029054906101000a900460ff16908060000160039054906101000a900460ff16908060000160049054906101000a900460ff16905085565b611749611333565b611788576040517f08c379a000000000000000000000000000000000000000000000000000000000815260040161177f90612718565b60405180910390fd5b600560009054906101000a900473ffffffffffffffffffffffffffffffffffffffff1673ffffffffffffffffffffffffffffffffffffffff163373ffffffffffffffffffffffffffffffffffffffff1614611818576040517f08c379a000000000000000000000000000000000000000000000000000000000815260040161180f906127aa565b60405180910390fd5b60038081111561182b5761182a6118b7565b5b60008054906101000a900460ff16600381111561184b5761184a6118b7565b5b0361188b576040517f08c379a000000000000000000000000000000000000000000000000000000000815260040161188290611a67565b60405180910390fd5b806000806101000a81548160ff021916908360038111156118af576118ae6118b7565b5b021790555050565b7f4e487b7100000000000000000000000000000000000000000000000000000000600052602160045260246000fd5b600082825260208201905092915050565b7f546869732070726f706572747927732074656e757265207479706520646f657360008201527f206e6f7420737570706f7274206265696e6720736f6c64000000000000000000602082015250565b60006119536037836118e6565b915061195e826118f7565b604082019050919050565b6000602082019050818103600083015261198281611946565b9050919050565b7f546869732070726f7065727479206973206e6f7420666f722073616c652e0000600082015250565b60006119bf601e836118e6565b91506119ca82611989565b602082019050919050565b600060208201905081810360008301526119ee816119b2565b9050919050565b7f546869732050726f7065727479205469746c6520436f6e74726163742069732060008201527f6e6f206c6f6e6765722072656c6176616e740000000000000000000000000000602082015250565b6000611a516032836118e6565b9150611a5c826119f5565b604082019050919050565b60006020820190508181036000830152611a8081611a44565b9050919050565b6000819050919050565b7f4e487b7100000000000000000000000000000000000000000000000000000000600052601160045260246000fd5b6000611acb82611a87565b9150611ad683611a87565b9250828203905081811115611aee57611aed611a91565b5b92915050565b60008160011c9050919050565b6000808291508390505b6001851115611b4b57808604811115611b2757611b26611a91565b5b6001851615611b365780820291505b8081029050611b4485611af4565b9450611b0b565b94509492505050565b600082611b645760019050611c20565b81611b725760009050611c20565b8160018114611b885760028114611b9257611bc1565b6001915050611c20565b60ff841115611ba457611ba3611a91565b5b8360020a915084821115611bbb57611bba611a91565b5b50611c20565b5060208310610133831016604e8410600b8410161715611bf65782820a905083811115611bf157611bf0611a91565b5b611c20565b611c038484846001611b01565b92509050818404811115611c1a57611c19611a91565b5b81810290505b9392505050565b6000611c3282611a87565b9150611c3d83611a87565b9250611c6a7fffffffffffffffffffffffffffffffffffffffffffffffffffffffffffffffff8484611b54565b905092915050565b6000611c7d82611a87565b9150611c8883611a87565b9250817fffffffffffffffffffffffffffffffffffffffffffffffffffffffffffffffff0483118215151615611cc157611cc0611a91565b5b828202905092915050565b6000611cd782611a87565b9150611ce283611a87565b9250828201905080821115611cfa57611cf9611a91565b5b92915050565b7f496e73756666696369656e742066756e64730000000000000000000000000000600082015250565b6000611d366012836118e6565b9150611d4182611d00565b602082019050919050565b60006020820190508181036000830152611d6581611d29565b9050919050565b60078110611d7d57611d7c6118b7565b5b50565b6000819050611d8e82611d6c565b919050565b6000611d9e82611d80565b9050919050565b611dae81611d93565b82525050565b600081519050919050565b60005b83811015611ddd578082015181840152602081019050611dc2565b60008484015250505050565b6000601f19601f8301169050919050565b6000611e0582611db4565b611e0f81856118e6565b9350611e1f818560208601611dbf565b611e2881611de9565b840191505092915050565b611e3c81611a87565b82525050565b600060e082019050611e57600083018a611da5565b8181036020830152611e698189611dfa565b90508181036040830152611e7d8188611dfa565b90508181036060830152611e918187611dfa565b90508181036080830152611ea58186611dfa565b9050611eb460a0830185611e33565b611ec160c0830184611e33565b98975050505050505050565b600073ffffffffffffffffffffffffffffffffffffffff82169050919050565b6000611ef882611ecd565b9050919050565b611f0881611eed565b82525050565b6000602082019050611f236000830184611eff565b92915050565b6000606082019050611f3e6000830186611e33565b611f4b6020830185611e33565b611f586040830184611e33565b949350505050565b6000604051905090565b600080fd5b600080fd5b600080fd5b600080fd5b7f4e487b7100000000000000000000000000000000000000000000000000000000600052604160045260246000fd5b611fb682611de9565b810181811067ffffffffffffffff82111715611fd557611fd4611f7e565b5b80604052505050565b6000611fe8611f60565b9050611ff48282611fad565b919050565b600067ffffffffffffffff82111561201457612013611f7e565b5b61201d82611de9565b9050602081019050919050565b82818337600083830152505050565b600061204c61204784611ff9565b611fde565b90508281526020810184848401111561206857612067611f79565b5b61207384828561202a565b509392505050565b600082601f8301126120905761208f611f74565b5b81356120a0848260208601612039565b91505092915050565b600080604083850312156120c0576120bf611f6a565b5b600083013567ffffffffffffffff8111156120de576120dd611f6f565b5b6120ea8582860161207b565b925050602083013567ffffffffffffffff81111561210b5761210a611f6f565b5b6121178582860161207b565b9150509250929050565b61212a81611a87565b811461213557600080fd5b50565b60008135905061214781612121565b92915050565b6007811061215a57600080fd5b50565b60008135905061216c8161214d565b92915050565b600080600080600060a0868803121561218e5761218d611f6a565b5b600061219c88828901612138565b95505060206121ad88828901612138565b94505060406121be88828901612138565b93505060606121cf8882890161215d565b92505060806121e088828901612138565b9150509295509295909350565b60008115159050919050565b612202816121ed565b82525050565b600060208201905061221d60008301846121f9565b92915050565b600067ffffffffffffffff82111561223e5761223d611f7e565b5b602082029050602081019050919050565b600080fd5b600061226761226284612223565b611fde565b9050808382526020820190506020840283018581111561228a5761228961224f565b5b835b818110156122d157803567ffffffffffffffff8111156122af576122ae611f74565b5b8086016122bc898261207b565b8552602085019450505060208101905061228c565b5050509392505050565b600082601f8301126122f0576122ef611f74565b5b8135612300848260208601612254565b91505092915050565b600080604083850312156123205761231f611f6a565b5b600083013567ffffffffffffffff81111561233e5761233d611f6f565b5b61234a8582860161207b565b925050602083013567ffffffffffffffff81111561236b5761236a611f6f565b5b612377858286016122db565b9150509250929050565b60006020820190506123966000830184611e33565b92915050565b60006123a782611ecd565b9050919050565b6123b78161239c565b81146123c257600080fd5b50565b6000813590506123d4816123ae565b92915050565b600481106123e757600080fd5b50565b6000813590506123f9816123da565b92915050565b6000806040838503121561241657612415611f6a565b5b6000612424858286016123c5565b9250506020612435858286016123ea565b9150509250929050565b600481106124505761244f6118b7565b5b50565b60008190506124618261243f565b919050565b600061247182612453565b9050919050565b61248181612466565b82525050565b600060208201905061249c6000830184612478565b92915050565b6000806000606084860312156124bb576124ba611f6a565b5b60006124c986828701612138565b93505060206124da86828701612138565b92505060406124eb86828701612138565b9150509250925092565b6000806040838503121561250c5761250b611f6a565b5b600061251a8582860161215d565b925050602061252b85828601612138565b9150509250929050565b60006020828403121561254b5761254a611f6a565b5b60006125598482850161215d565b91505092915050565b60006060820190506125776000830186611eff565b6125846020830185611eff565b6125916040830184612478565b949350505050565b6000602082840312156125af576125ae611f6a565b5b60006125bd84828501612138565b91505092915050565b600060a0820190506125db60008301886121f9565b6125e860208301876121f9565b6125f560408301866121f9565b61260260608301856121f9565b61260f60808301846121f9565b9695505050505050565b60006020828403121561262f5761262e611f6a565b5b600061263d848285016123ea565b91505092915050565b7f4e487b7100000000000000000000000000000000000000000000000000000000600052602260045260246000fd5b6000600282049050600182168061268d57607f821691505b6020821081036126a05761269f612646565b5b50919050565b7f5468652070726f7065727479206973206e6f74206c6567616c6c7920616c726960008201527f6768742e00000000000000000000000000000000000000000000000000000000602082015250565b60006127026024836118e6565b915061270d826126a6565b604082019050919050565b60006020820190508181036000830152612731816126f5565b9050919050565b7f4f6e6c7920746865206f776e6572206f662074686520436f6e7472616374206860008201527f61732061636365737320746f2074686973210000000000000000000000000000602082015250565b60006127946032836118e6565b915061279f82612738565b604082019050919050565b600060208201905081810360008301526127c381612787565b9050919050565b60008190508160005260206000209050919050565b60006020601f8301049050919050565b600082821b905092915050565b60006008830261282c7fffffffffffffffffffffffffffffffffffffffffffffffffffffffffffffffff826127ef565b61283686836127ef565b95508019841693508086168417925050509392505050565b6000819050919050565b600061287361286e61286984611a87565b61284e565b611a87565b9050919050565b6000819050919050565b61288d83612858565b6128a16128998261287a565b8484546127fc565b825550505050565b600090565b6128b66128a9565b6128c1818484612884565b505050565b5b818110156128e5576128da6000826128ae565b6001810190506128c7565b5050565b601f82111561292a576128fb816127ca565b612904846127df565b81016020851015612913578190505b61292761291f856127df565b8301826128c6565b50505b505050565b600082821c905092915050565b600061294d6000198460080261292f565b1980831691505092915050565b6000612966838361293c565b9150826002028217905092915050565b61297f82611db4565b67ffffffffffffffff81111561299857612997611f7e565b5b6129a28254612675565b6129ad8282856128e9565b600060209050601f8311600181146129e057600084156129ce578287015190505b6129d8858261295a565b865550612a40565b601f1984166129ee866127ca565b60005b82811015612a16578489015182556001820191506020850194506020810190506129f1565b86831015612a335784890151612a2f601f89168261293c565b8355505b6001600288020188555050505b505050505050565b7f4e487b7100000000000000000000000000000000000000000000000000000000600052603260045260246000fd5b6000612a8282611a87565b91507fffffffffffffffffffffffffffffffffffffffffffffffffffffffffffffffff8203612ab457612ab3611a91565b5b600182019050919050565b612ac8816121ed565b8114612ad357600080fd5b50565b600081519050612ae581612abf565b92915050565b600060208284031215612b0157612b00611f6a565b5b6000612b0f84828501612ad6565b91505092915050565b7f4f6e6c792061207265676973746572656420726567697374726172206861732060008201527f61636365737320746f207468697320616374696f6e2e00000000000000000000602082015250565b6000612b746036836118e6565b9150612b7f82612b18565b604082019050919050565b60006020820190508181036000830152612ba381612b67565b9050919050565b600081905092915050565b6000612bc082611db4565b612bca8185612baa565b9350612bda818560208601611dbf565b80840191505092915050565b6000612bf28284612bb5565b91508190509291505056fea2646970667358221220c42b0a7b7e93018af9ede58b978c137a3bf1f6f9673c585528c0e46f0546954e64736f6c63430008100033",
  "immutableReferences": {},
  "source": "//SPDX-License-Identifier: MIT\r\npragma solidity ^0.8.15;\r\n\r\ninterface ITitleCreatingContract {\r\n    function checkIfUserIsRegistrar(address _userAddress) external view returns (bool);\r\n}\r\n\r\nenum PropertyTitleContractState { PENDING, OWNED, FOR_SALE, NO_LONGER_RELEVANT }\r\n\r\nenum HousingTenure {\r\n    OWNER_OCCUPANCY,\r\n    TENANCY,\r\n    COOPERATIVE,\r\n    CONDOMIUM,\r\n    PUBLIC_HOUSING,\r\n    SQUATTING,\r\n    LAND_TRUST\r\n}\r\n\r\nstruct PropertyDetails {\r\n    HousingTenure tenureType;\r\n    string country;\r\n    string city;\r\n    string street;\r\n    string streetNumber;\r\n    uint256 apartmentNumber;\r\n    uint256 squareMeters;\r\n}\r\n\r\nstruct RequiredPropertyDocuments {\r\n    bool proofOfIdentity;\r\n    bool propertyTitleDeeds;\r\n    bool energyPerformanceCertificate;\r\n    bool extensionsAndAlterationsDocumentation;\r\n    bool utilityBillsPaid;\r\n}\r\n\r\nstruct SellingPrice {\r\n    uint256 sellingPriceIntegralPart;\r\n    uint256 sellingPriceFractionalPart;\r\n    uint256 sellingPriceFractionalPartLength;\r\n}\r\n\r\n\r\ncontract PropertyTitle {\r\n    PropertyTitleContractState public contractState;\r\n    SellingPrice public sellingPrice;\r\n    address public creator;\r\n    address public owner;\r\n    PropertyDetails public propertyDetails;\r\n    RequiredPropertyDocuments public requiredDocuments;\r\n\r\n    constructor(\r\n        address _creator,\r\n        address _owner,\r\n        string memory _country,\r\n        string memory _city,\r\n        string memory _street,\r\n        string memory _streeNumber,\r\n        uint256 _apartmentNumber,\r\n        uint256 _squareMeters,\r\n        uint256 _sellingPriceIntegralPart,\r\n        uint256 _sellingPriceFractionalPart,\r\n        uint256  _sellingPriceFractionalPartLength\r\n    )\r\n    {\r\n        creator = _creator;\r\n        owner = _owner;\r\n        contractState = PropertyTitleContractState.PENDING;\r\n        propertyDetails.country = _country;\r\n        propertyDetails.city = _city;\r\n        propertyDetails.street = _street;\r\n        propertyDetails.streetNumber = _streeNumber;\r\n        propertyDetails.apartmentNumber = _apartmentNumber;\r\n        propertyDetails.squareMeters = _squareMeters;\r\n        sellingPrice.sellingPriceIntegralPart = _sellingPriceIntegralPart;\r\n        sellingPrice.sellingPriceFractionalPart = _sellingPriceFractionalPart;\r\n        sellingPrice.sellingPriceFractionalPartLength = _sellingPriceFractionalPartLength;\r\n    }\r\n\r\n    receive() external payable onlyIfPropertyForSale onlyRelevantProperty \r\n    {\r\n        uint256 sellingPriceWeiValue = (sellingPrice.sellingPriceIntegralPart * 10**18) + (sellingPrice.sellingPriceFractionalPart * 10**(18-sellingPrice.sellingPriceFractionalPartLength));\r\n        require(msg.sender.balance >= sellingPriceWeiValue, 'Insufficient funds');\r\n        payable(owner).transfer(msg.value);\r\n        contractState = PropertyTitleContractState.OWNED;\r\n        owner = payable(msg.sender);\r\n    }\r\n\r\n    function modifyContractStateAndOwner(\r\n        address payable _owner, \r\n        PropertyTitleContractState _contractState\r\n    )\r\n        external \r\n        onlyIfUserIsRegistrar\r\n        onlyRelevantProperty\r\n    {\r\n        owner = _owner;\r\n        contractState = _contractState;\r\n    }\r\n\r\n    function insertPropertyDetails(\r\n        HousingTenure _tenureType,\r\n        uint256 _squareMeters\r\n    )\r\n        external\r\n        onlyOwner\r\n        onlyIfLegallyAllowed\r\n        onlyRelevantProperty\r\n    {\r\n        propertyDetails.tenureType = _tenureType;\r\n        propertyDetails.squareMeters = _squareMeters;\r\n    }\r\n\r\n    function modifyContractState(PropertyTitleContractState _contractState) external onlyIfLegallyAllowed onlyOwner onlyRelevantProperty {\r\n        contractState = _contractState;\r\n    }\r\n\r\n    function modifyPropertyAdress(string memory _street, string memory _streeNumber) external onlyIfLegallyAllowed onlyOwner onlyRelevantProperty {\r\n        propertyDetails.street = _street;\r\n        propertyDetails.streetNumber = _streeNumber;\r\n    }\r\n\r\n    function modifyPropertyPriceAndTenureAndMeters(\r\n        uint256 _sellingPriceIntegralPart, \r\n        uint256 _sellingPriceFractionalPart, \r\n        uint256 _sellingPriceFractionalPartLength,\r\n        HousingTenure _tenureType,\r\n        uint256 _squareMeters\r\n    )\r\n        external\r\n        onlyIfLegallyAllowed\r\n        onlyOwner\r\n        onlyRelevantProperty\r\n    {\r\n        sellingPrice.sellingPriceIntegralPart = _sellingPriceIntegralPart;\r\n        sellingPrice.sellingPriceFractionalPart = _sellingPriceFractionalPart;\r\n        sellingPrice.sellingPriceFractionalPartLength = _sellingPriceFractionalPartLength;\r\n        propertyDetails.tenureType = _tenureType;\r\n        propertyDetails.squareMeters = _squareMeters;\r\n    }\r\n\r\n    function modifyPropertyTenureType(HousingTenure _tenureType) external onlyIfLegallyAllowed onlyOwner onlyRelevantProperty {\r\n        propertyDetails.tenureType = _tenureType;\r\n    }\r\n\r\n    function modifyPropertySquareMeters(uint256 _squareMeters) external onlyIfLegallyAllowed onlyOwner onlyRelevantProperty {\r\n        propertyDetails.squareMeters = _squareMeters;\r\n    }\r\n\r\n    function setPropertySellingPrice(\r\n        uint256 _sellingPriceIntegralPart, \r\n        uint256 _sellingPriceFractionalPart, \r\n        uint256 _sellingPriceFractionalPartLength\r\n    ) \r\n        external \r\n        onlyIfLegallyAllowed \r\n        onlyOwner \r\n        onlyRelevantProperty\r\n    {\r\n        sellingPrice.sellingPriceIntegralPart = _sellingPriceIntegralPart;\r\n        sellingPrice.sellingPriceFractionalPart = _sellingPriceFractionalPart;\r\n        sellingPrice.sellingPriceFractionalPartLength = _sellingPriceFractionalPartLength;\r\n    }\r\n\r\n    function getPropertySellingPrice() public view returns (uint256) {\r\n        uint256 sellingPriceWeiValue = (sellingPrice.sellingPriceIntegralPart * 10**18) + (sellingPrice.sellingPriceFractionalPart * 10**(18-sellingPrice.sellingPriceFractionalPartLength));\r\n        return sellingPriceWeiValue;\r\n    }\r\n\r\n    function getContractDetails() public view returns (address, address, PropertyTitleContractState) {\r\n        return (creator, owner, contractState);\r\n    }\r\n\r\n    function validatePropertyDebts() public view returns (bool) {\r\n        /// TODO\r\n        return true;\r\n        /// TODO\r\n    }\r\n\r\n    function checkIfUserIsRegistrar() public view returns (bool) {\r\n        //address currentUser = msg.sender;\r\n        // registrarsArray = CentralContract.getRegistrarsArray();\r\n        // for (uint256 i = 0; i < registrarsArray.length; i++) {\r\n        //     if (currentUser == registrarsArray[i]) {\r\n        //         return true;\r\n        //     }\r\n        // }\r\n        return true;\r\n    }\r\n\r\n    function checkStringsEquality(string memory firstString, string memory secondString) public pure returns (bool) {\r\n        if (bytes(firstString).length != bytes(secondString).length) {\r\n            return false;\r\n        } else {\r\n            return keccak256(abi.encodePacked(firstString)) == keccak256(abi.encodePacked(secondString));\r\n        }\r\n    }\r\n\r\n    function checkIfStringIsFoundInStringsArray(\r\n        string memory stringToSearchFor,\r\n        string[] memory stringsArray\r\n    )\r\n        public\r\n        pure\r\n        returns (bool)\r\n    {\r\n        for (uint256 i = 0; i < stringsArray.length; i++) {\r\n            if (checkStringsEquality(stringToSearchFor, stringsArray[i])) {\r\n                return true;\r\n            }\r\n        }\r\n\r\n        return false;\r\n    }\r\n\r\n\r\n    modifier onlyCreator {\r\n        require(msg.sender == creator, \"Only the creator of the Contract has access to this!\");\r\n        _;\r\n    }\r\n\r\n    modifier onlyOwner {\r\n        require(msg.sender == owner, \"Only the owner of the Contract has access to this!\");\r\n        _;\r\n    }\r\n\r\n    modifier onlyIfLegallyAllowed {\r\n        require(validatePropertyDebts(), \"The property is not legally alright.\");\r\n        _;\r\n    }\r\n\r\n    modifier onlyIfUserIsRegistrar {\r\n        require(ITitleCreatingContract(creator).checkIfUserIsRegistrar(msg.sender) == true, \"Only a registered registrar has access to this action.\");\r\n        _;\r\n    }\r\n\r\n    modifier onlyIfPropertyForSale {\r\n        require(propertyDetails.tenureType == HousingTenure.OWNER_OCCUPANCY || propertyDetails.tenureType == HousingTenure.CONDOMIUM,\r\n            \"This property's tenure type does not support being sold\");\r\n        require(contractState == PropertyTitleContractState.FOR_SALE, \"This property is not for sale.\");\r\n        _;\r\n    }\r\n\r\n    modifier onlyRelevantProperty {\r\n        require(contractState != PropertyTitleContractState.NO_LONGER_RELEVANT, \r\n            'This Property Title Contract is no longer relavant');\r\n        _;\r\n    }\r\n}",
  "sourcePath": "D:\\Propty\\propty\\contracts\\contracts\\PropertyTitle.sol",
  "compiler": {
    "name": "solc",
    "version": "0.8.16+commit.07a7930e.Emscripten.clang"
  },
  "schemaVersion": "3.4.9",
  "updatedAt": "2022-11-13T06:50:51.568Z",
  "devdoc": {
    "kind": "dev",
    "methods": {},
    "version": 1
  },
  "userdoc": {
    "kind": "user",
    "methods": {},
    "version": 1
  }
}