{
  "contractName": "PropertyTitle",
  "abi": [
    {
      "inputs": [
        {
          "internalType": "address",
          "name": "_creator",
          "type": "address"
        },
        {
          "internalType": "address",
          "name": "_owner",
          "type": "address"
        },
        {
          "internalType": "string",
          "name": "_country",
          "type": "string"
        },
        {
          "internalType": "string",
          "name": "_city",
          "type": "string"
        },
        {
          "internalType": "string",
          "name": "_street",
          "type": "string"
        },
        {
          "internalType": "string",
          "name": "_streeNumber",
          "type": "string"
        },
        {
          "internalType": "uint256",
          "name": "_apartmentNumber",
          "type": "uint256"
        },
        {
          "internalType": "uint256",
          "name": "_squareMeters",
          "type": "uint256"
        },
        {
          "internalType": "uint256",
          "name": "_sellingPriceIntegralPart",
          "type": "uint256"
        },
        {
          "internalType": "uint256",
          "name": "_sellingPriceFractionalPart",
          "type": "uint256"
        },
        {
          "internalType": "uint256",
          "name": "_sellingPriceFractionalPartLength",
          "type": "uint256"
        }
      ],
      "stateMutability": "nonpayable",
      "type": "constructor"
    },
    {
      "anonymous": false,
      "inputs": [
        {
          "indexed": true,
          "internalType": "address",
          "name": "newOwnerAddress",
          "type": "address"
        },
        {
          "indexed": false,
          "internalType": "uint256",
          "name": "paidPrice",
          "type": "uint256"
        },
        {
          "indexed": false,
          "internalType": "uint256",
          "name": "timestamp",
          "type": "uint256"
        }
      ],
      "name": "NewPropertyTitleOwner",
      "type": "event"
    },
    {
      "inputs": [],
      "name": "contractState",
      "outputs": [
        {
          "internalType": "enum PropertyTitleContractState",
          "name": "",
          "type": "uint8"
        }
      ],
      "stateMutability": "view",
      "type": "function"
    },
    {
      "inputs": [],
      "name": "creator",
      "outputs": [
        {
          "internalType": "address",
          "name": "",
          "type": "address"
        }
      ],
      "stateMutability": "view",
      "type": "function"
    },
    {
      "inputs": [
        {
          "internalType": "uint256",
          "name": "",
          "type": "uint256"
        }
      ],
      "name": "newOwnerEventBlockNumbers",
      "outputs": [
        {
          "internalType": "uint256",
          "name": "",
          "type": "uint256"
        }
      ],
      "stateMutability": "view",
      "type": "function"
    },
    {
      "inputs": [],
      "name": "owner",
      "outputs": [
        {
          "internalType": "address",
          "name": "",
          "type": "address"
        }
      ],
      "stateMutability": "view",
      "type": "function"
    },
    {
      "inputs": [],
      "name": "propertyDetails",
      "outputs": [
        {
          "internalType": "enum HousingTenure",
          "name": "tenureType",
          "type": "uint8"
        },
        {
          "internalType": "string",
          "name": "country",
          "type": "string"
        },
        {
          "internalType": "string",
          "name": "city",
          "type": "string"
        },
        {
          "internalType": "string",
          "name": "street",
          "type": "string"
        },
        {
          "internalType": "string",
          "name": "streetNumber",
          "type": "string"
        },
        {
          "internalType": "uint256",
          "name": "apartmentNumber",
          "type": "uint256"
        },
        {
          "internalType": "uint256",
          "name": "squareMeters",
          "type": "uint256"
        }
      ],
      "stateMutability": "view",
      "type": "function"
    },
    {
      "inputs": [],
      "name": "requiredDocuments",
      "outputs": [
        {
          "internalType": "string",
          "name": "proofOfIdentityState",
          "type": "string"
        },
        {
          "internalType": "string",
          "name": "propertyTitleDeedsState",
          "type": "string"
        },
        {
          "internalType": "string",
          "name": "energyPerformanceCertificateState",
          "type": "string"
        },
        {
          "internalType": "string",
          "name": "extensionsAndAlterationsDocumentationState",
          "type": "string"
        },
        {
          "internalType": "string",
          "name": "utilityBillsPaidState",
          "type": "string"
        }
      ],
      "stateMutability": "view",
      "type": "function"
    },
    {
      "inputs": [],
      "name": "sellingPrice",
      "outputs": [
        {
          "internalType": "uint256",
          "name": "sellingPriceIntegralPart",
          "type": "uint256"
        },
        {
          "internalType": "uint256",
          "name": "sellingPriceFractionalPart",
          "type": "uint256"
        },
        {
          "internalType": "uint256",
          "name": "sellingPriceFractionalPartLength",
          "type": "uint256"
        }
      ],
      "stateMutability": "view",
      "type": "function"
    },
    {
      "stateMutability": "payable",
      "type": "receive"
    },
    {
      "inputs": [
        {
          "internalType": "address payable",
          "name": "_owner",
          "type": "address"
        },
        {
          "internalType": "enum PropertyTitleContractState",
          "name": "_contractState",
          "type": "uint8"
        }
      ],
      "name": "modifyContractStateAndOwner",
      "outputs": [],
      "stateMutability": "nonpayable",
      "type": "function"
    },
    {
      "inputs": [
        {
          "internalType": "enum HousingTenure",
          "name": "_tenureType",
          "type": "uint8"
        },
        {
          "internalType": "uint256",
          "name": "_squareMeters",
          "type": "uint256"
        }
      ],
      "name": "insertPropertyDetails",
      "outputs": [],
      "stateMutability": "nonpayable",
      "type": "function"
    },
    {
      "inputs": [
        {
          "internalType": "enum PropertyTitleContractState",
          "name": "_contractState",
          "type": "uint8"
        }
      ],
      "name": "modifyContractState",
      "outputs": [],
      "stateMutability": "nonpayable",
      "type": "function"
    },
    {
      "inputs": [
        {
          "internalType": "string",
          "name": "_street",
          "type": "string"
        },
        {
          "internalType": "string",
          "name": "_streeNumber",
          "type": "string"
        }
      ],
      "name": "modifyPropertyAdress",
      "outputs": [],
      "stateMutability": "nonpayable",
      "type": "function"
    },
    {
      "inputs": [
        {
          "internalType": "uint256",
          "name": "_sellingPriceIntegralPart",
          "type": "uint256"
        },
        {
          "internalType": "uint256",
          "name": "_sellingPriceFractionalPart",
          "type": "uint256"
        },
        {
          "internalType": "uint256",
          "name": "_sellingPriceFractionalPartLength",
          "type": "uint256"
        },
        {
          "internalType": "enum HousingTenure",
          "name": "_tenureType",
          "type": "uint8"
        },
        {
          "internalType": "uint256",
          "name": "_squareMeters",
          "type": "uint256"
        }
      ],
      "name": "modifyPropertyPriceAndTenureAndMeters",
      "outputs": [],
      "stateMutability": "nonpayable",
      "type": "function"
    },
    {
      "inputs": [
        {
          "internalType": "enum HousingTenure",
          "name": "_tenureType",
          "type": "uint8"
        }
      ],
      "name": "modifyPropertyTenureType",
      "outputs": [],
      "stateMutability": "nonpayable",
      "type": "function"
    },
    {
      "inputs": [
        {
          "internalType": "uint256",
          "name": "_squareMeters",
          "type": "uint256"
        }
      ],
      "name": "modifyPropertySquareMeters",
      "outputs": [],
      "stateMutability": "nonpayable",
      "type": "function"
    },
    {
      "inputs": [
        {
          "internalType": "uint256",
          "name": "_sellingPriceIntegralPart",
          "type": "uint256"
        },
        {
          "internalType": "uint256",
          "name": "_sellingPriceFractionalPart",
          "type": "uint256"
        },
        {
          "internalType": "uint256",
          "name": "_sellingPriceFractionalPartLength",
          "type": "uint256"
        }
      ],
      "name": "setPropertySellingPrice",
      "outputs": [],
      "stateMutability": "nonpayable",
      "type": "function"
    },
    {
      "inputs": [
        {
          "internalType": "string",
          "name": "_proofOfIdentity",
          "type": "string"
        },
        {
          "internalType": "string",
          "name": "_propertyTitleDeeds",
          "type": "string"
        },
        {
          "internalType": "string",
          "name": "_energyPerformanceCertificate",
          "type": "string"
        },
        {
          "internalType": "string",
          "name": "_extensionsAndAlterationsDocumentation",
          "type": "string"
        },
        {
          "internalType": "string",
          "name": "_utilityBillsPaid",
          "type": "string"
        },
        {
          "internalType": "enum PropertyTitleContractState",
          "name": "_contractState",
          "type": "uint8"
        }
      ],
      "name": "setRequiredDocumentsStateAndContractState",
      "outputs": [],
      "stateMutability": "nonpayable",
      "type": "function"
    },
    {
      "inputs": [],
      "name": "getContractNewOwnerBlockNumbers",
      "outputs": [
        {
          "internalType": "uint256[]",
          "name": "",
          "type": "uint256[]"
        }
      ],
      "stateMutability": "view",
      "type": "function"
    },
    {
      "inputs": [],
      "name": "getPropertySellingPrice",
      "outputs": [
        {
          "internalType": "uint256",
          "name": "",
          "type": "uint256"
        }
      ],
      "stateMutability": "view",
      "type": "function"
    },
    {
      "inputs": [],
      "name": "getContractDetails",
      "outputs": [
        {
          "internalType": "address",
          "name": "",
          "type": "address"
        },
        {
          "internalType": "address",
          "name": "",
          "type": "address"
        },
        {
          "internalType": "enum PropertyTitleContractState",
          "name": "",
          "type": "uint8"
        }
      ],
      "stateMutability": "view",
      "type": "function"
    },
    {
      "inputs": [],
      "name": "getFullPropertyAddress",
      "outputs": [
        {
          "internalType": "string",
          "name": "",
          "type": "string"
        }
      ],
      "stateMutability": "view",
      "type": "function"
    },
    {
      "inputs": [],
      "name": "checkIfAllDocumentsAreProvided",
      "outputs": [
        {
          "internalType": "bool",
          "name": "",
          "type": "bool"
        }
      ],
      "stateMutability": "view",
      "type": "function"
    },
    {
      "inputs": [
        {
          "internalType": "string",
          "name": "firstString",
          "type": "string"
        },
        {
          "internalType": "string",
          "name": "secondString",
          "type": "string"
        }
      ],
      "name": "checkStringsEquality",
      "outputs": [
        {
          "internalType": "bool",
          "name": "",
          "type": "bool"
        }
      ],
      "stateMutability": "pure",
      "type": "function"
    },
    {
      "inputs": [
        {
          "internalType": "string",
          "name": "stringToSearchFor",
          "type": "string"
        },
        {
          "internalType": "string[]",
          "name": "stringsArray",
          "type": "string[]"
        }
      ],
      "name": "checkIfStringIsFoundInStringsArray",
      "outputs": [
        {
          "internalType": "bool",
          "name": "",
          "type": "bool"
        }
      ],
      "stateMutability": "pure",
      "type": "function"
    }
  ],
  "bytecode": "0x60806040523480156200001157600080fd5b506040516200292d3803806200292d833981016040819052620000349162000322565b60048054600160a060020a038d8116600160a060020a03199283161790925560058054928d16929091169190911790556000805460ff1916905560076200007c8a82620004ec565b5060086200008b8982620004ec565b5060096200009a8882620004ec565b50600a620000a98782620004ec565b50600b859055600c848155600184905560028390556003829055604080518082019091529081527f4e6f742050726f766964656400000000000000000000000000000000000000006020820152600d90620001059082620004ec565b5060408051808201909152600c81527f4e6f742050726f766964656400000000000000000000000000000000000000006020820152600e90620001499082620004ec565b5060408051808201909152600c81527f4e6f742050726f766964656400000000000000000000000000000000000000006020820152600f906200018d9082620004ec565b5060408051808201909152600c81527f4e6f742050726f766964656400000000000000000000000000000000000000006020820152601090620001d19082620004ec565b5060408051808201909152600c81527f4e6f742050726f766964656400000000000000000000000000000000000000006020820152601190620002159082620004ec565b505050505050505050505050620005be565b8051600160a060020a03811681146200023f57600080fd5b919050565b7f4e487b7100000000000000000000000000000000000000000000000000000000600052604160045260246000fd5b600082601f8301126200028557600080fd5b81516001604060020a0380821115620002a257620002a262000244565b604051601f8301601f19908116603f01168101908282118183101715620002cd57620002cd62000244565b81604052838152602092508683858801011115620002ea57600080fd5b600091505b838210156200030e5785820183015181830184015290820190620002ef565b600093810190920192909252949350505050565b60008060008060008060008060008060006101608c8e0312156200034557600080fd5b620003508c62000227565b9a506200036060208d0162000227565b995060408c01516001604060020a038111156200037c57600080fd5b6200038a8e828f0162000273565b99505060608c01516001604060020a03811115620003a757600080fd5b620003b58e828f0162000273565b98505060808c01516001604060020a03811115620003d257600080fd5b620003e08e828f0162000273565b97505060a08c01516001604060020a03811115620003fd57600080fd5b6200040b8e828f0162000273565b96505060c08c0151945060e08c015193506101008c015192506101208c015191506101408c015190509295989b509295989b9093969950565b6002810460018216806200045957607f821691505b60208210810362000493577f4e487b7100000000000000000000000000000000000000000000000000000000600052602260045260246000fd5b50919050565b601f821115620004e7576000818152602081206020601f86010481016020861015620004c25750805b6020601f860104820191505b81811015620004e357828155600101620004ce565b5050505b505050565b81516001604060020a0381111562000508576200050862000244565b620005208162000519845462000444565b8462000499565b602080601f8311600181146200055c57600084156200053f5750858301515b60028086026008870290910a6000190419821617865550620004e3565b600085815260208120601f198616915b828110156200058d578886015182559484019460019091019084016200056c565b5085821015620005ae57878501516008601f88160260020a60001904191681555b5050505050600202600101905550565b61235f80620005ce6000396000f3fe608060405260043610610160576000357c01000000000000000000000000000000000000000000000000000000009004806385209ee0116100d35780639dfc91171161008c5780639dfc9117146106b8578063b3cbb32c146106ec578063b6366d921461070c578063daca4eef1461072c578063e75a8e8b14610752578063f5cfb0321461077257600080fd5b806385209ee0146105fc57806385329517146106235780638d97bee8146106435780638da5cb5b14610663578063953fe3cc1461068357806397035a071461069857600080fd5b806341fa17661161012557806341fa1766146105275780635293c83814610547578063536f5c361461057757806372b501091461059a57806374bdde49146105ba578063790d15de146105da57600080fd5b80627dc3721461044057806302d05d3f1461047157806312821b5e146104a95780633d0df5e5146104e35780633d7a44921461050557600080fd5b3661043b5760006006805460ff169081111561017e5761017e611770565b14806101a0575060036006805460ff169081111561019e5761019e611770565b145b61021a5760405160e560020a62461bcd02815260206004820152603760248201527f546869732070726f706572747927732074656e757265207479706520646f657360448201527f206e6f7420737570706f7274206265696e6720736f6c6400000000000000000060648201526084015b60405180910390fd5b600260005460ff16600381111561023357610233611770565b146102835760405160e560020a62461bcd02815260206004820152601e60248201527f546869732070726f7065727479206973206e6f7420666f722073616c652e00006044820152606401610211565b600360005460ff16600381111561029c5761029c611770565b036102bc5760405160e560020a62461bcd02815260040161021190611789565b6003546000906102cd9060126117ff565b6102d890600a6118f9565b6002546102e5919061190c565b6001546102fa90670de0b6b3a764000061190c565b610304919061192b565b9050333181111561035a5760405160e560020a62461bcd02815260206004820152601260248201527f496e73756666696369656e742066756e647300000000000000000000000000006044820152606401610211565b600554604051600160a060020a03909116903480156108fc02916000818181858888f19350505050158015610393573d6000803e3d6000fd5b506000805460ff19166001179055337f4ee5e828d146990939dfac61f9a68e6224e50d10265079de2a9c639e0f76b10b6103cb610792565b604080519182524260208301520160405180910390a260128054600181018255600091909152437fbb8a6a4669ba250d26cd7a459eca9d215f8307e33aebe50379bc5a3617ec3444909101556005805473ffffffffffffffffffffffffffffffffffffffff191633908117909155005b600080fd5b34801561044c57600080fd5b506104556107e2565b604051610468979695949392919061198e565b60405180910390f35b34801561047d57600080fd5b5060045461049190600160a060020a031681565b604051600160a060020a039091168152602001610468565b3480156104b557600080fd5b506001546002546003546104c892919083565b60408051938452602084019290925290820152606001610468565b3480156104ef57600080fd5b506104f8610a33565b6040516104689190611a08565b34801561051157600080fd5b50610525610520366004611b06565b610a8b565b005b34801561053357600080fd5b50610525610542366004611b7e565b610b36565b34801561055357600080fd5b50610567610562366004611bc5565b610c08565b6040519015158152602001610468565b34801561058357600080fd5b5061058c610792565b604051908152602001610468565b3480156105a657600080fd5b506105256105b5366004611cba565b610c63565b3480156105c657600080fd5b506105256105d5366004611cfb565b610dc3565b3480156105e657600080fd5b506105ef610f40565b6040516104689190611ddc565b34801561060857600080fd5b506000546106169060ff1681565b6040516104689190611e03565b34801561062f57600080fd5b5061052561063e366004611e11565b610f72565b34801561064f57600080fd5b5061052561065e366004611e3d565b61100d565b34801561066f57600080fd5b5060055461049190600160a060020a031681565b34801561068f57600080fd5b506105676110c3565b3480156106a457600080fd5b506105256106b3366004611e67565b61120a565b3480156106c457600080fd5b5060045460055460005460405161046893600160a060020a0390811693169160ff1690611e82565b3480156106f857600080fd5b50610567610707366004611b06565b6112d0565b34801561071857600080fd5b50610525610727366004611eaf565b611339565b34801561073857600080fd5b506107416113dd565b604051610468959493929190611ec8565b34801561075e57600080fd5b5061058c61076d366004611eaf565b6116a7565b34801561077e57600080fd5b5061052561078d366004611f35565b6116c8565b60035460009081906107a59060126117ff565b6107b090600a6118f9565b6002546107bd919061190c565b6001546107d290670de0b6b3a764000061190c565b6107dc919061192b565b92915050565b600680546007805460ff90921692916107fa90611f50565b80601f016020809104026020016040519081016040528092919081815260200182805461082690611f50565b80156108735780601f1061084857610100808354040283529160200191610873565b820191906000526020600020905b81548152906001019060200180831161085657829003601f168201915b50505050509080600201805461088890611f50565b80601f01602080910402602001604051908101604052809291908181526020018280546108b490611f50565b80156109015780601f106108d657610100808354040283529160200191610901565b820191906000526020600020905b8154815290600101906020018083116108e457829003601f168201915b50505050509080600301805461091690611f50565b80601f016020809104026020016040519081016040528092919081815260200182805461094290611f50565b801561098f5780601f106109645761010080835404028352916020019161098f565b820191906000526020600020905b81548152906001019060200180831161097257829003601f168201915b5050505050908060040180546109a490611f50565b80601f01602080910402602001604051908101604052809291908181526020018280546109d090611f50565b8015610a1d5780601f106109f257610100808354040283529160200191610a1d565b820191906000526020600020905b815481529060010190602001808311610a0057829003601f168201915b5050505050908060050154908060060154905087565b60606012805480602002602001604051908101604052809291908181526020018280548015610a8157602002820191906000526020600020905b815481526020019060010190808311610a6d575b5050505050905090565b610a936110c3565b610ab25760405160e560020a62461bcd02815260040161021190611f8d565b600554600160a060020a03163314610adf5760405160e560020a62461bcd02815260040161021190611fea565b600360005460ff166003811115610af857610af8611770565b03610b185760405160e560020a62461bcd02815260040161021190611789565b6009610b248382612095565b50600a610b318282612095565b505050565b610b3e6110c3565b610b5d5760405160e560020a62461bcd02815260040161021190611f8d565b600554600160a060020a03163314610b8a5760405160e560020a62461bcd02815260040161021190611fea565b600360005460ff166003811115610ba357610ba3611770565b03610bc35760405160e560020a62461bcd02815260040161021190611789565b60018581556002859055600384905560068054849260ff19909116908383811115610bf057610bf0611770565b0217905550600c5550506000805460ff191690555050565b6000805b8251811015610c5957610c3884848381518110610c2b57610c2b61215b565b60200260200101516112d0565b15610c475760019150506107dc565b80610c5181612174565b915050610c0c565b5060009392505050565b600480546040517ff33c4ff90000000000000000000000000000000000000000000000000000000081523392810192909252600160a060020a03169063f33c4ff990602401602060405180830381865afa158015610cc5573d6000803e3d6000fd5b505050506040513d601f19601f82011682018060405250810190610ce9919061218d565b1515600114610d0d5760405160e560020a62461bcd028152600401610211906121af565b600554600160a060020a03163303610d3a5760405160e560020a62461bcd0281526004016102119061220c565b600360005460ff166003811115610d5357610d53611770565b03610d735760405160e560020a62461bcd02815260040161021190611789565b6005805473ffffffffffffffffffffffffffffffffffffffff1916600160a060020a0384161790556000805482919060ff19166001836003811115610dba57610dba611770565b02179055505050565b600480546040517ff33c4ff90000000000000000000000000000000000000000000000000000000081523392810192909252600160a060020a03169063f33c4ff990602401602060405180830381865afa158015610e25573d6000803e3d6000fd5b505050506040513d601f19601f82011682018060405250810190610e49919061218d565b1515600114610e6d5760405160e560020a62461bcd028152600401610211906121af565b600554600160a060020a03163303610e9a5760405160e560020a62461bcd0281526004016102119061220c565b600360005460ff166003811115610eb357610eb3611770565b03610ed35760405160e560020a62461bcd02815260040161021190611789565b600d610edf8782612095565b50600e610eec8682612095565b50600f610ef98582612095565b506010610f068482612095565b506011610f138382612095565b506000805482919060ff19166001836003811115610f3357610f33611770565b0217905550505050505050565b604051606090610f5e90600790600890600990600a906020016122dc565b604051602081830303815290604052905090565b610f7a6110c3565b610f995760405160e560020a62461bcd02815260040161021190611f8d565b600554600160a060020a03163314610fc65760405160e560020a62461bcd02815260040161021190611fea565b600360005460ff166003811115610fdf57610fdf611770565b03610fff5760405160e560020a62461bcd02815260040161021190611789565b600192909255600255600355565b600554600160a060020a0316331461103a5760405160e560020a62461bcd02815260040161021190611fea565b6110426110c3565b6110615760405160e560020a62461bcd02815260040161021190611f8d565b600360005460ff16600381111561107a5761107a611770565b0361109a5760405160e560020a62461bcd02815260040161021190611789565b6006805483919060ff1916600183838111156110b8576110b8611770565b0217905550600c5550565b6000611191600d60000180546110d890611f50565b80601f016020809104026020016040519081016040528092919081815260200182805461110490611f50565b80156111515780601f1061112657610100808354040283529160200191611151565b820191906000526020600020905b81548152906001019060200180831161113457829003601f168201915b50505050506040518060400160405280600881526020017f50726f76696465640000000000000000000000000000000000000000000000008152506112d0565b80156111ab57506111ab600d60010180546110d890611f50565b80156111c557506111c5600d60020180546110d890611f50565b80156111df57506111df600d60030180546110d890611f50565b80156111f957506111f9600d60040180546110d890611f50565b156112045750600190565b50600090565b6112126110c3565b6112315760405160e560020a62461bcd02815260040161021190611f8d565b600554600160a060020a0316331461125e5760405160e560020a62461bcd02815260040161021190611fea565b600360005460ff16600381111561127757611277611770565b036112975760405160e560020a62461bcd02815260040161021190611789565b6006805482919060ff1916600183838111156112b5576112b5611770565b021790555060008054819060ff19166001825b021790555050565b600081518351146112e3575060006107dc565b816040516020016112f4919061230d565b604051602081830303815290604052805190602001208360405160200161131b919061230d565b604051602081830303815290604052805190602001201490506107dc565b6113416110c3565b6113605760405160e560020a62461bcd02815260040161021190611f8d565b600554600160a060020a0316331461138d5760405160e560020a62461bcd02815260040161021190611fea565b600360005460ff1660038111156113a6576113a6611770565b036113c65760405160e560020a62461bcd02815260040161021190611789565b600c81905560008054819060ff19166001826112c8565b600d805481906113ec90611f50565b80601f016020809104026020016040519081016040528092919081815260200182805461141890611f50565b80156114655780601f1061143a57610100808354040283529160200191611465565b820191906000526020600020905b81548152906001019060200180831161144857829003601f168201915b50505050509080600101805461147a90611f50565b80601f01602080910402602001604051908101604052809291908181526020018280546114a690611f50565b80156114f35780601f106114c8576101008083540402835291602001916114f3565b820191906000526020600020905b8154815290600101906020018083116114d657829003601f168201915b50505050509080600201805461150890611f50565b80601f016020809104026020016040519081016040528092919081815260200182805461153490611f50565b80156115815780601f1061155657610100808354040283529160200191611581565b820191906000526020600020905b81548152906001019060200180831161156457829003601f168201915b50505050509080600301805461159690611f50565b80601f01602080910402602001604051908101604052809291908181526020018280546115c290611f50565b801561160f5780601f106115e45761010080835404028352916020019161160f565b820191906000526020600020905b8154815290600101906020018083116115f257829003601f168201915b50505050509080600401805461162490611f50565b80601f016020809104026020016040519081016040528092919081815260200182805461165090611f50565b801561169d5780601f106116725761010080835404028352916020019161169d565b820191906000526020600020905b81548152906001019060200180831161168057829003601f168201915b5050505050905085565b601281815481106116b757600080fd5b600091825260209091200154905081565b6116d06110c3565b6116ef5760405160e560020a62461bcd02815260040161021190611f8d565b600554600160a060020a0316331461171c5760405160e560020a62461bcd02815260040161021190611fea565b600360005460ff16600381111561173557611735611770565b036117555760405160e560020a62461bcd02815260040161021190611789565b6000805482919060ff191660018360038111156112c8576112c85b60e060020a634e487b7102600052602160045260246000fd5b60208082526032908201527f546869732050726f7065727479205469746c6520436f6e74726163742069732060408201527f6e6f206c6f6e6765722072656c6176616e740000000000000000000000000000606082015260800190565b60e060020a634e487b7102600052601160045260246000fd5b818103818111156107dc576107dc6117e6565b600181815b8085111561184f578160001904821115611833576118336117e6565b8085161561184057918102915b60029094049390800290611817565b509250929050565b600082611866575060016107dc565b81611873575060006107dc565b81600181146118895760028114611893576118b0565b60019150506107dc565b60ff8411156118a4576118a46117e6565b8360020a9150506107dc565b5060208310610133831016604e8410600b84101617156118d3575081810a6107dc565b6118dd8383611812565b80600019048211156118f1576118f16117e6565b029392505050565b60006119058383611857565b9392505050565b6000816000190483118215151615611926576119266117e6565b500290565b808201808211156107dc576107dc6117e6565b60005b83811015611959578181015183820152602001611941565b50506000910152565b6000815180845261197a81602086016020860161193e565b601f01601f19169290920160200192915050565b6000600789106119a0576119a0611770565b88825260e060208301526119b760e0830189611962565b82810360408401526119c98189611962565b905082810360608401526119dd8188611962565b905082810360808401526119f18187611962565b60a0840195909552505060c0015295945050505050565b6020808252825182820181905260009190848201906040850190845b81811015611a4057835183529284019291840191600101611a24565b50909695505050505050565b60e060020a634e487b7102600052604160045260246000fd5b604051601f8201601f1916810167ffffffffffffffff81118282101715611a8e57611a8e611a4c565b604052919050565b600082601f830112611aa757600080fd5b813567ffffffffffffffff811115611ac157611ac1611a4c565b611ad4601f8201601f1916602001611a65565b818152846020838601011115611ae957600080fd5b816020850160208301376000918101602001919091529392505050565b60008060408385031215611b1957600080fd5b823567ffffffffffffffff80821115611b3157600080fd5b611b3d86838701611a96565b93506020850135915080821115611b5357600080fd5b50611b6085828601611a96565b9150509250929050565b803560078110611b7957600080fd5b919050565b600080600080600060a08688031215611b9657600080fd5b853594506020860135935060408601359250611bb460608701611b6a565b949793965091946080013592915050565b60008060408385031215611bd857600080fd5b823567ffffffffffffffff80821115611bf057600080fd5b611bfc86838701611a96565b9350602091508185013581811115611c1357600080fd5b8501601f81018713611c2457600080fd5b803582811115611c3657611c36611a4c565b838102611c44858201611a65565b918252828101850191858101908a841115611c5e57600080fd5b86850192505b83831015611c9a57823586811115611c7c5760008081fd5b611c8a8c8983890101611a96565b8352509186019190860190611c64565b809750505050505050509250929050565b803560048110611b7957600080fd5b60008060408385031215611ccd57600080fd5b8235600160a060020a0381168114611ce457600080fd5b9150611cf260208401611cab565b90509250929050565b60008060008060008060c08789031215611d1457600080fd5b863567ffffffffffffffff80821115611d2c57600080fd5b611d388a838b01611a96565b97506020890135915080821115611d4e57600080fd5b611d5a8a838b01611a96565b96506040890135915080821115611d7057600080fd5b611d7c8a838b01611a96565b95506060890135915080821115611d9257600080fd5b611d9e8a838b01611a96565b94506080890135915080821115611db457600080fd5b50611dc189828a01611a96565b925050611dd060a08801611cab565b90509295509295509295565b6020815260006119056020830184611962565b60048110611dff57611dff611770565b9052565b602081016107dc8284611def565b600080600060608486031215611e2657600080fd5b505081359360208301359350604090920135919050565b60008060408385031215611e5057600080fd5b611e5983611b6a565b946020939093013593505050565b600060208284031215611e7957600080fd5b61190582611b6a565b600160a060020a0384811682528316602082015260608101611ea76040830184611def565b949350505050565b600060208284031215611ec157600080fd5b5035919050565b60a081526000611edb60a0830188611962565b8281036020840152611eed8188611962565b90508281036040840152611f018187611962565b90508281036060840152611f158186611962565b90508281036080840152611f298185611962565b98975050505050505050565b600060208284031215611f4757600080fd5b61190582611cab565b600281046001821680611f6457607f821691505b602082108103611f875760e060020a634e487b7102600052602260045260246000fd5b50919050565b60208082526024908201527f5468652070726f7065727479206973206e6f74206c6567616c6c7920616c726960408201527f6768742e00000000000000000000000000000000000000000000000000000000606082015260800190565b60208082526032908201527f4f6e6c7920746865206f776e6572206f662074686520436f6e7472616374206860408201527f61732061636365737320746f2074686973210000000000000000000000000000606082015260800190565b601f821115610b31576000818152602081206020601f8601048101602086101561206e5750805b6020601f860104820191505b8181101561208d5782815560010161207a565b505050505050565b815167ffffffffffffffff8111156120af576120af611a4c565b6120c3816120bd8454611f50565b84612047565b602080601f8311600181146120fc57600084156120e05750858301515b60028086026008870290910a600019041982161786555061208d565b600085815260208120601f198616915b8281101561212b5788860151825594840194600190910190840161210c565b508582101561214b57878501516008601f88160260020a60001904191681555b5050505050600202600101905550565b60e060020a634e487b7102600052603260045260246000fd5b600060018201612186576121866117e6565b5060010190565b60006020828403121561219f57600080fd5b8151801515811461190557600080fd5b60208082526036908201527f4f6e6c792061207265676973746572656420726567697374726172206861732060408201527f61636365737320746f207468697320616374696f6e2e00000000000000000000606082015260800190565b60208082526026908201527f596f752063616e206e6f742076616c696461746520796f7572206f776e20707260408201527f6f70657274790000000000000000000000000000000000000000000000000000606082015260800190565b6000815461227681611f50565b6001828116801561228e57600181146122a3576122d2565b60ff19841687528215158302870194506122d2565b8560005260208060002060005b858110156122c95781548a8201529084019082016122b0565b50505082870194505b5050505092915050565b60006123036122fd6122f76122f1858a612269565b88612269565b86612269565b84612269565b9695505050505050565b6000825161231f81846020870161193e565b919091019291505056fea26469706673582212200ed67486759c08e0ab3eac170a933fbc80b79be5ec1448c35c3ad725d029915b64736f6c63430008100033",
  "immutableReferences": {},
  "source": "//SPDX-License-Identifier: MIT\r\npragma solidity ^0.8.15;\r\n\r\ninterface ITitleCreatingContract {\r\n    function checkIfUserIsRegistrar(address _userAddress) external view returns (bool);\r\n}\r\n\r\nenum PropertyTitleContractState { PENDING, OWNED, FOR_SALE, NO_LONGER_RELEVANT }\r\n\r\nenum HousingTenure {\r\n    OWNER_OCCUPANCY,\r\n    TENANCY,\r\n    COOPERATIVE,\r\n    CONDOMIUM,\r\n    PUBLIC_HOUSING,\r\n    SQUATTING,\r\n    LAND_TRUST\r\n}\r\n\r\nstruct PropertyDetails {\r\n    HousingTenure tenureType;\r\n    string country;\r\n    string city;\r\n    string street;\r\n    string streetNumber;\r\n    uint256 apartmentNumber;\r\n    uint256 squareMeters;\r\n}\r\n\r\nstruct RequiredPropertyDocuments {\r\n    string proofOfIdentityState;\r\n    string propertyTitleDeedsState;\r\n    string energyPerformanceCertificateState;\r\n    string extensionsAndAlterationsDocumentationState;\r\n    string utilityBillsPaidState;\r\n}\r\n\r\nstruct SellingPrice {\r\n    uint256 sellingPriceIntegralPart;\r\n    uint256 sellingPriceFractionalPart;\r\n    uint256 sellingPriceFractionalPartLength;\r\n}\r\n\r\n\r\ncontract PropertyTitle {\r\n    event NewPropertyTitleOwner(\r\n        address indexed newOwnerAddress,\r\n        uint256 paidPrice,\r\n        uint256 timestamp\r\n    );\r\n\r\n    PropertyTitleContractState public contractState;\r\n    SellingPrice public sellingPrice;\r\n    address public creator;\r\n    address public owner;\r\n    PropertyDetails public propertyDetails;\r\n    RequiredPropertyDocuments public requiredDocuments;\r\n    uint256[] public newOwnerEventBlockNumbers;\r\n\r\n    constructor(\r\n        address _creator,\r\n        address _owner,\r\n        string memory _country,\r\n        string memory _city,\r\n        string memory _street,\r\n        string memory _streeNumber,\r\n        uint256 _apartmentNumber,\r\n        uint256 _squareMeters,\r\n        uint256 _sellingPriceIntegralPart,\r\n        uint256 _sellingPriceFractionalPart,\r\n        uint256  _sellingPriceFractionalPartLength\r\n    )\r\n    {\r\n        creator = _creator;\r\n        owner = _owner;\r\n        contractState = PropertyTitleContractState.PENDING;\r\n        propertyDetails.country = _country;\r\n        propertyDetails.city = _city;\r\n        propertyDetails.street = _street;\r\n        propertyDetails.streetNumber = _streeNumber;\r\n        propertyDetails.apartmentNumber = _apartmentNumber;\r\n        propertyDetails.squareMeters = _squareMeters;\r\n        sellingPrice.sellingPriceIntegralPart = _sellingPriceIntegralPart;\r\n        sellingPrice.sellingPriceFractionalPart = _sellingPriceFractionalPart;\r\n        sellingPrice.sellingPriceFractionalPartLength = _sellingPriceFractionalPartLength;\r\n\r\n        requiredDocuments.proofOfIdentityState = 'Not Provided';\r\n        requiredDocuments.propertyTitleDeedsState = 'Not Provided';\r\n        requiredDocuments.energyPerformanceCertificateState = 'Not Provided';\r\n        requiredDocuments.extensionsAndAlterationsDocumentationState = 'Not Provided';\r\n        requiredDocuments.utilityBillsPaidState = 'Not Provided';\r\n    }\r\n\r\n    receive() external payable onlyIfPropertyForSale onlyRelevantProperty \r\n    {\r\n        uint256 sellingPriceWeiValue = (sellingPrice.sellingPriceIntegralPart * 10**18) + (sellingPrice.sellingPriceFractionalPart * 10**(18-sellingPrice.sellingPriceFractionalPartLength));\r\n        require(msg.sender.balance >= sellingPriceWeiValue, 'Insufficient funds');\r\n        payable(owner).transfer(msg.value);\r\n        contractState = PropertyTitleContractState.OWNED;\r\n        emit NewPropertyTitleOwner(msg.sender, getPropertySellingPrice(), block.timestamp);\r\n        newOwnerEventBlockNumbers.push(block.number);\r\n        owner = payable(msg.sender);\r\n    }\r\n\r\n    function modifyContractStateAndOwner(\r\n        address payable _owner, \r\n        PropertyTitleContractState _contractState\r\n    )\r\n        external \r\n        onlyRegistrar\r\n        onlyNotOwner\r\n        onlyRelevantProperty\r\n    {\r\n        owner = _owner;\r\n        contractState = _contractState;\r\n    }\r\n\r\n    function insertPropertyDetails(\r\n        HousingTenure _tenureType,\r\n        uint256 _squareMeters\r\n    )\r\n        external\r\n        onlyOwner\r\n        onlyIfLegallyAllowed\r\n        onlyRelevantProperty\r\n    {\r\n        propertyDetails.tenureType = _tenureType;\r\n        propertyDetails.squareMeters = _squareMeters;\r\n    }\r\n\r\n    function modifyContractState(PropertyTitleContractState _contractState) external onlyIfLegallyAllowed onlyOwner onlyRelevantProperty {\r\n        contractState = _contractState;\r\n    }\r\n\r\n    function modifyPropertyAdress(string memory _street, string memory _streeNumber) external onlyIfLegallyAllowed onlyOwner onlyRelevantProperty {\r\n        propertyDetails.street = _street;\r\n        propertyDetails.streetNumber = _streeNumber;\r\n    }\r\n\r\n    function modifyPropertyPriceAndTenureAndMeters(\r\n        uint256 _sellingPriceIntegralPart, \r\n        uint256 _sellingPriceFractionalPart, \r\n        uint256 _sellingPriceFractionalPartLength,\r\n        HousingTenure _tenureType,\r\n        uint256 _squareMeters\r\n    )\r\n        external\r\n        onlyIfLegallyAllowed\r\n        onlyOwner\r\n        onlyRelevantProperty\r\n    {\r\n        sellingPrice.sellingPriceIntegralPart = _sellingPriceIntegralPart;\r\n        sellingPrice.sellingPriceFractionalPart = _sellingPriceFractionalPart;\r\n        sellingPrice.sellingPriceFractionalPartLength = _sellingPriceFractionalPartLength;\r\n        propertyDetails.tenureType = _tenureType;\r\n        propertyDetails.squareMeters = _squareMeters;\r\n        contractState = PropertyTitleContractState.PENDING;\r\n    }\r\n\r\n    function modifyPropertyTenureType(HousingTenure _tenureType) external onlyIfLegallyAllowed onlyOwner onlyRelevantProperty {\r\n        propertyDetails.tenureType = _tenureType;\r\n        contractState = PropertyTitleContractState.PENDING;\r\n    }\r\n\r\n    function modifyPropertySquareMeters(uint256 _squareMeters) external onlyIfLegallyAllowed onlyOwner onlyRelevantProperty {\r\n        propertyDetails.squareMeters = _squareMeters;\r\n        contractState = PropertyTitleContractState.PENDING;\r\n    }\r\n\r\n    function setPropertySellingPrice(\r\n        uint256 _sellingPriceIntegralPart, \r\n        uint256 _sellingPriceFractionalPart, \r\n        uint256 _sellingPriceFractionalPartLength\r\n    ) \r\n        external \r\n        onlyIfLegallyAllowed \r\n        onlyOwner \r\n        onlyRelevantProperty\r\n    {\r\n        sellingPrice.sellingPriceIntegralPart = _sellingPriceIntegralPart;\r\n        sellingPrice.sellingPriceFractionalPart = _sellingPriceFractionalPart;\r\n        sellingPrice.sellingPriceFractionalPartLength = _sellingPriceFractionalPartLength;\r\n    }\r\n\r\n    function setRequiredDocumentsStateAndContractState(\r\n        string memory _proofOfIdentity,\r\n        string memory _propertyTitleDeeds,\r\n        string memory _energyPerformanceCertificate,\r\n        string memory _extensionsAndAlterationsDocumentation,\r\n        string memory _utilityBillsPaid,\r\n        PropertyTitleContractState _contractState\r\n    )\r\n        external\r\n        onlyRegistrar\r\n        onlyNotOwner\r\n        onlyRelevantProperty\r\n    {\r\n        requiredDocuments.proofOfIdentityState = _proofOfIdentity;\r\n        requiredDocuments.propertyTitleDeedsState = _propertyTitleDeeds;\r\n        requiredDocuments.energyPerformanceCertificateState = _energyPerformanceCertificate;\r\n        requiredDocuments.extensionsAndAlterationsDocumentationState = _extensionsAndAlterationsDocumentation;\r\n        requiredDocuments.utilityBillsPaidState = _utilityBillsPaid;\r\n        contractState = _contractState;\r\n    }\r\n\r\n    function getContractNewOwnerBlockNumbers() public view returns (uint256[] memory) {\r\n        return newOwnerEventBlockNumbers;\r\n    }\r\n\r\n    function getPropertySellingPrice() public view returns (uint256) {\r\n        uint256 sellingPriceWeiValue = (sellingPrice.sellingPriceIntegralPart * 10**18) + (sellingPrice.sellingPriceFractionalPart * 10**(18-sellingPrice.sellingPriceFractionalPartLength));\r\n        return sellingPriceWeiValue;\r\n    }\r\n\r\n    function getContractDetails() public view returns (address, address, PropertyTitleContractState) {\r\n        return (creator, owner, contractState);\r\n    }\r\n\r\n    function getFullPropertyAddress() public view returns (string memory) {\r\n        return string.concat(propertyDetails.country, propertyDetails.city, propertyDetails.street, propertyDetails.streetNumber);\r\n    }\r\n\r\n    function checkIfAllDocumentsAreProvided() public view returns (bool) {\r\n        if (checkStringsEquality(requiredDocuments.proofOfIdentityState, 'Provided') \r\n            && checkStringsEquality(requiredDocuments.propertyTitleDeedsState, 'Provided') \r\n            && checkStringsEquality(requiredDocuments.energyPerformanceCertificateState, 'Provided') \r\n            && checkStringsEquality(requiredDocuments.extensionsAndAlterationsDocumentationState, 'Provided') \r\n            && checkStringsEquality(requiredDocuments.utilityBillsPaidState, 'Provided')) {\r\n                return true;\r\n        }\r\n        return false;\r\n    }\r\n\r\n    function checkStringsEquality(string memory firstString, string memory secondString) public pure returns (bool) {\r\n        if (bytes(firstString).length != bytes(secondString).length) {\r\n            return false;\r\n        } else {\r\n            return keccak256(abi.encodePacked(firstString)) == keccak256(abi.encodePacked(secondString));\r\n        }\r\n    }\r\n\r\n    function checkIfStringIsFoundInStringsArray(\r\n        string memory stringToSearchFor,\r\n        string[] memory stringsArray\r\n    )\r\n        public\r\n        pure\r\n        returns (bool)\r\n    {\r\n        for (uint256 i = 0; i < stringsArray.length; i++) {\r\n            if (checkStringsEquality(stringToSearchFor, stringsArray[i])) {\r\n                return true;\r\n            }\r\n        }\r\n\r\n        return false;\r\n    }\r\n\r\n\r\n    modifier onlyCreator {\r\n        require(msg.sender == creator, \"Only the creator of the Contract has access to this!\");\r\n        _;\r\n    }\r\n\r\n    modifier onlyOwner {\r\n        require(msg.sender == owner, \"Only the owner of the Contract has access to this!\");\r\n        _;\r\n    }\r\n\r\n    modifier onlyIfLegallyAllowed {\r\n        require(checkIfAllDocumentsAreProvided(), \"The property is not legally alright.\");\r\n        _;\r\n    }\r\n\r\n    modifier onlyRegistrar {\r\n        require(ITitleCreatingContract(creator).checkIfUserIsRegistrar(msg.sender) == true, \"Only a registered registrar has access to this action.\");\r\n        _;\r\n    }\r\n\r\n    modifier onlyNotOwner {\r\n        require(msg.sender != owner, \"You can not validate your own property\");\r\n        _;\r\n    }\r\n\r\n    modifier onlyIfPropertyForSale {\r\n        require(propertyDetails.tenureType == HousingTenure.OWNER_OCCUPANCY || propertyDetails.tenureType == HousingTenure.CONDOMIUM,\r\n            \"This property's tenure type does not support being sold\");\r\n        require(contractState == PropertyTitleContractState.FOR_SALE, \"This property is not for sale.\");\r\n        _;\r\n    }\r\n\r\n    modifier onlyRelevantProperty {\r\n        require(contractState != PropertyTitleContractState.NO_LONGER_RELEVANT, \r\n            'This Property Title Contract is no longer relavant');\r\n        _;\r\n    }\r\n}",
  "sourcePath": "D:\\Propty\\propty\\contracts\\contracts\\PropertyTitle.sol",
  "compiler": {
    "name": "solc",
    "version": "0.8.16+commit.07a7930e.Emscripten.clang"
  },
  "schemaVersion": "3.4.9",
  "updatedAt": "2023-03-05T12:57:20.321Z",
  "devdoc": {
    "kind": "dev",
    "methods": {},
    "version": 1
  },
  "userdoc": {
    "kind": "user",
    "methods": {},
    "version": 1
  }
}