{
  "contractName": "PropertyTitle",
  "abi": [
    {
      "inputs": [
        {
          "internalType": "address",
          "name": "_creator",
          "type": "address"
        },
        {
          "internalType": "address",
          "name": "_owner",
          "type": "address"
        },
        {
          "internalType": "string",
          "name": "_country",
          "type": "string"
        },
        {
          "internalType": "string",
          "name": "_city",
          "type": "string"
        },
        {
          "internalType": "string",
          "name": "_street",
          "type": "string"
        },
        {
          "internalType": "string",
          "name": "_streeNumber",
          "type": "string"
        },
        {
          "internalType": "uint256",
          "name": "_apartmentNumber",
          "type": "uint256"
        },
        {
          "internalType": "uint256",
          "name": "_squareMeters",
          "type": "uint256"
        },
        {
          "internalType": "uint256",
          "name": "_sellingPriceIntegralPart",
          "type": "uint256"
        },
        {
          "internalType": "uint256",
          "name": "_sellingPriceFractionalPart",
          "type": "uint256"
        },
        {
          "internalType": "uint256",
          "name": "_sellingPriceFractionalPartLength",
          "type": "uint256"
        }
      ],
      "stateMutability": "nonpayable",
      "type": "constructor"
    },
    {
      "inputs": [],
      "name": "contractState",
      "outputs": [
        {
          "internalType": "enum PropertyTitleContractState",
          "name": "",
          "type": "uint8"
        }
      ],
      "stateMutability": "view",
      "type": "function"
    },
    {
      "inputs": [],
      "name": "creator",
      "outputs": [
        {
          "internalType": "address",
          "name": "",
          "type": "address"
        }
      ],
      "stateMutability": "view",
      "type": "function"
    },
    {
      "inputs": [],
      "name": "owner",
      "outputs": [
        {
          "internalType": "address",
          "name": "",
          "type": "address"
        }
      ],
      "stateMutability": "view",
      "type": "function"
    },
    {
      "inputs": [],
      "name": "propertyDetails",
      "outputs": [
        {
          "internalType": "enum HousingTenure",
          "name": "tenureType",
          "type": "uint8"
        },
        {
          "internalType": "string",
          "name": "country",
          "type": "string"
        },
        {
          "internalType": "string",
          "name": "city",
          "type": "string"
        },
        {
          "internalType": "string",
          "name": "street",
          "type": "string"
        },
        {
          "internalType": "string",
          "name": "streetNumber",
          "type": "string"
        },
        {
          "internalType": "uint256",
          "name": "apartmentNumber",
          "type": "uint256"
        },
        {
          "internalType": "uint256",
          "name": "squareMeters",
          "type": "uint256"
        }
      ],
      "stateMutability": "view",
      "type": "function"
    },
    {
      "inputs": [],
      "name": "requiredDocuments",
      "outputs": [
        {
          "internalType": "string",
          "name": "proofOfIdentityState",
          "type": "string"
        },
        {
          "internalType": "string",
          "name": "propertyTitleDeedsState",
          "type": "string"
        },
        {
          "internalType": "string",
          "name": "energyPerformanceCertificateState",
          "type": "string"
        },
        {
          "internalType": "string",
          "name": "extensionsAndAlterationsDocumentationState",
          "type": "string"
        },
        {
          "internalType": "string",
          "name": "utilityBillsPaidState",
          "type": "string"
        }
      ],
      "stateMutability": "view",
      "type": "function"
    },
    {
      "inputs": [],
      "name": "sellingPrice",
      "outputs": [
        {
          "internalType": "uint256",
          "name": "sellingPriceIntegralPart",
          "type": "uint256"
        },
        {
          "internalType": "uint256",
          "name": "sellingPriceFractionalPart",
          "type": "uint256"
        },
        {
          "internalType": "uint256",
          "name": "sellingPriceFractionalPartLength",
          "type": "uint256"
        }
      ],
      "stateMutability": "view",
      "type": "function"
    },
    {
      "stateMutability": "payable",
      "type": "receive"
    },
    {
      "inputs": [
        {
          "internalType": "address payable",
          "name": "_owner",
          "type": "address"
        },
        {
          "internalType": "enum PropertyTitleContractState",
          "name": "_contractState",
          "type": "uint8"
        }
      ],
      "name": "modifyContractStateAndOwner",
      "outputs": [],
      "stateMutability": "nonpayable",
      "type": "function"
    },
    {
      "inputs": [
        {
          "internalType": "enum HousingTenure",
          "name": "_tenureType",
          "type": "uint8"
        },
        {
          "internalType": "uint256",
          "name": "_squareMeters",
          "type": "uint256"
        }
      ],
      "name": "insertPropertyDetails",
      "outputs": [],
      "stateMutability": "nonpayable",
      "type": "function"
    },
    {
      "inputs": [
        {
          "internalType": "enum PropertyTitleContractState",
          "name": "_contractState",
          "type": "uint8"
        }
      ],
      "name": "modifyContractState",
      "outputs": [],
      "stateMutability": "nonpayable",
      "type": "function"
    },
    {
      "inputs": [
        {
          "internalType": "string",
          "name": "_street",
          "type": "string"
        },
        {
          "internalType": "string",
          "name": "_streeNumber",
          "type": "string"
        }
      ],
      "name": "modifyPropertyAdress",
      "outputs": [],
      "stateMutability": "nonpayable",
      "type": "function"
    },
    {
      "inputs": [
        {
          "internalType": "uint256",
          "name": "_sellingPriceIntegralPart",
          "type": "uint256"
        },
        {
          "internalType": "uint256",
          "name": "_sellingPriceFractionalPart",
          "type": "uint256"
        },
        {
          "internalType": "uint256",
          "name": "_sellingPriceFractionalPartLength",
          "type": "uint256"
        },
        {
          "internalType": "enum HousingTenure",
          "name": "_tenureType",
          "type": "uint8"
        },
        {
          "internalType": "uint256",
          "name": "_squareMeters",
          "type": "uint256"
        }
      ],
      "name": "modifyPropertyPriceAndTenureAndMeters",
      "outputs": [],
      "stateMutability": "nonpayable",
      "type": "function"
    },
    {
      "inputs": [
        {
          "internalType": "enum HousingTenure",
          "name": "_tenureType",
          "type": "uint8"
        }
      ],
      "name": "modifyPropertyTenureType",
      "outputs": [],
      "stateMutability": "nonpayable",
      "type": "function"
    },
    {
      "inputs": [
        {
          "internalType": "uint256",
          "name": "_squareMeters",
          "type": "uint256"
        }
      ],
      "name": "modifyPropertySquareMeters",
      "outputs": [],
      "stateMutability": "nonpayable",
      "type": "function"
    },
    {
      "inputs": [
        {
          "internalType": "uint256",
          "name": "_sellingPriceIntegralPart",
          "type": "uint256"
        },
        {
          "internalType": "uint256",
          "name": "_sellingPriceFractionalPart",
          "type": "uint256"
        },
        {
          "internalType": "uint256",
          "name": "_sellingPriceFractionalPartLength",
          "type": "uint256"
        }
      ],
      "name": "setPropertySellingPrice",
      "outputs": [],
      "stateMutability": "nonpayable",
      "type": "function"
    },
    {
      "inputs": [
        {
          "internalType": "string",
          "name": "_proofOfIdentity",
          "type": "string"
        },
        {
          "internalType": "string",
          "name": "_propertyTitleDeeds",
          "type": "string"
        },
        {
          "internalType": "string",
          "name": "_energyPerformanceCertificate",
          "type": "string"
        },
        {
          "internalType": "string",
          "name": "_extensionsAndAlterationsDocumentation",
          "type": "string"
        },
        {
          "internalType": "string",
          "name": "_utilityBillsPaid",
          "type": "string"
        },
        {
          "internalType": "enum PropertyTitleContractState",
          "name": "_contractState",
          "type": "uint8"
        }
      ],
      "name": "setRequiredDocumentsStateAndContractState",
      "outputs": [],
      "stateMutability": "nonpayable",
      "type": "function"
    },
    {
      "inputs": [],
      "name": "getPropertySellingPrice",
      "outputs": [
        {
          "internalType": "uint256",
          "name": "",
          "type": "uint256"
        }
      ],
      "stateMutability": "view",
      "type": "function"
    },
    {
      "inputs": [],
      "name": "getContractDetails",
      "outputs": [
        {
          "internalType": "address",
          "name": "",
          "type": "address"
        },
        {
          "internalType": "address",
          "name": "",
          "type": "address"
        },
        {
          "internalType": "enum PropertyTitleContractState",
          "name": "",
          "type": "uint8"
        }
      ],
      "stateMutability": "view",
      "type": "function"
    },
    {
      "inputs": [],
      "name": "getFullPropertyAddress",
      "outputs": [
        {
          "internalType": "string",
          "name": "",
          "type": "string"
        }
      ],
      "stateMutability": "view",
      "type": "function"
    },
    {
      "inputs": [],
      "name": "checkIfAllDocumentsAreProvided",
      "outputs": [
        {
          "internalType": "bool",
          "name": "",
          "type": "bool"
        }
      ],
      "stateMutability": "view",
      "type": "function"
    },
    {
      "inputs": [
        {
          "internalType": "string",
          "name": "firstString",
          "type": "string"
        },
        {
          "internalType": "string",
          "name": "secondString",
          "type": "string"
        }
      ],
      "name": "checkStringsEquality",
      "outputs": [
        {
          "internalType": "bool",
          "name": "",
          "type": "bool"
        }
      ],
      "stateMutability": "pure",
      "type": "function"
    },
    {
      "inputs": [
        {
          "internalType": "string",
          "name": "stringToSearchFor",
          "type": "string"
        },
        {
          "internalType": "string[]",
          "name": "stringsArray",
          "type": "string[]"
        }
      ],
      "name": "checkIfStringIsFoundInStringsArray",
      "outputs": [
        {
          "internalType": "bool",
          "name": "",
          "type": "bool"
        }
      ],
      "stateMutability": "pure",
      "type": "function"
    }
  ],
  "bytecode": "0x60806040523480156200001157600080fd5b506040516200279f3803806200279f833981016040819052620000349162000322565b60048054600160a060020a038d8116600160a060020a03199283161790925560058054928d16929091169190911790556000805460ff1916905560076200007c8a82620004ec565b5060086200008b8982620004ec565b5060096200009a8882620004ec565b50600a620000a98782620004ec565b50600b859055600c848155600184905560028390556003829055604080518082019091529081527f4e6f742050726f766964656400000000000000000000000000000000000000006020820152600d90620001059082620004ec565b5060408051808201909152600c81527f4e6f742050726f766964656400000000000000000000000000000000000000006020820152600e90620001499082620004ec565b5060408051808201909152600c81527f4e6f742050726f766964656400000000000000000000000000000000000000006020820152600f906200018d9082620004ec565b5060408051808201909152600c81527f4e6f742050726f766964656400000000000000000000000000000000000000006020820152601090620001d19082620004ec565b5060408051808201909152600c81527f4e6f742050726f766964656400000000000000000000000000000000000000006020820152601190620002159082620004ec565b505050505050505050505050620005be565b8051600160a060020a03811681146200023f57600080fd5b919050565b7f4e487b7100000000000000000000000000000000000000000000000000000000600052604160045260246000fd5b600082601f8301126200028557600080fd5b81516001604060020a0380821115620002a257620002a262000244565b604051601f8301601f19908116603f01168101908282118183101715620002cd57620002cd62000244565b81604052838152602092508683858801011115620002ea57600080fd5b600091505b838210156200030e5785820183015181830184015290820190620002ef565b600093810190920192909252949350505050565b60008060008060008060008060008060006101608c8e0312156200034557600080fd5b620003508c62000227565b9a506200036060208d0162000227565b995060408c01516001604060020a038111156200037c57600080fd5b6200038a8e828f0162000273565b99505060608c01516001604060020a03811115620003a757600080fd5b620003b58e828f0162000273565b98505060808c01516001604060020a03811115620003d257600080fd5b620003e08e828f0162000273565b97505060a08c01516001604060020a03811115620003fd57600080fd5b6200040b8e828f0162000273565b96505060c08c0151945060e08c015193506101008c015192506101208c015191506101408c015190509295989b509295989b9093969950565b6002810460018216806200045957607f821691505b60208210810362000493577f4e487b7100000000000000000000000000000000000000000000000000000000600052602260045260246000fd5b50919050565b601f821115620004e7576000818152602081206020601f86010481016020861015620004c25750805b6020601f860104820191505b81811015620004e357828155600101620004ce565b5050505b505050565b81516001604060020a0381111562000508576200050862000244565b620005208162000519845462000444565b8462000499565b602080601f8311600181146200055c57600084156200053f5750858301515b60028086026008870290910a6000190419821617865550620004e3565b600085815260208120601f198616915b828110156200058d578886015182559484019460019091019084016200056c565b5085821015620005ae57878501516008601f88160260020a60001904191681555b5050505050600202600101905550565b6121d180620005ce6000396000f3fe60806040526004361061014a576000357c01000000000000000000000000000000000000000000000000000000009004806385209ee0116100c857806397035a071161008c57806397035a07146105eb5780639dfc91171461060b578063b3cbb32c1461063f578063b6366d921461065f578063daca4eef1461067f578063f5cfb032146106a557600080fd5b806385209ee01461054f57806385329517146105765780638d97bee8146105965780638da5cb5b146105b6578063953fe3cc146105d657600080fd5b80635293c8381161010f5780635293c8381461049a578063536f5c36146104ca57806372b50109146104ed57806374bdde491461050d578063790d15de1461052d57600080fd5b80627dc372146103b557806302d05d3f146103e657806312821b5e1461041e5780633d7a44921461045857806341fa17661461047a57600080fd5b366103b05760006006805460ff169081111561016857610168611626565b148061018a575060036006805460ff169081111561018857610188611626565b145b6102045760405160e560020a62461bcd02815260206004820152603760248201527f546869732070726f706572747927732074656e757265207479706520646f657360448201527f206e6f7420737570706f7274206265696e6720736f6c6400000000000000000060648201526084015b60405180910390fd5b600260005460ff16600381111561021d5761021d611626565b1461026d5760405160e560020a62461bcd02815260206004820152601e60248201527f546869732070726f7065727479206973206e6f7420666f722073616c652e000060448201526064016101fb565b600360005460ff16600381111561028657610286611626565b036102a65760405160e560020a62461bcd0281526004016101fb9061163f565b6003546000906102b79060126116b5565b6102c290600a6117af565b6002546102cf91906117c2565b6001546102e490670de0b6b3a76400006117c2565b6102ee91906117e1565b905033318111156103445760405160e560020a62461bcd02815260206004820152601260248201527f496e73756666696369656e742066756e6473000000000000000000000000000060448201526064016101fb565b600554604051600160a060020a03909116903480156108fc02916000818181858888f1935050505015801561037d573d6000803e3d6000fd5b506000805460ff19166001179055600580543373ffffffffffffffffffffffffffffffffffffffff199091168117909155005b600080fd5b3480156103c157600080fd5b506103ca6106c5565b6040516103dd9796959493929190611844565b60405180910390f35b3480156103f257600080fd5b5060045461040690600160a060020a031681565b604051600160a060020a0390911681526020016103dd565b34801561042a57600080fd5b5060015460025460035461043d92919083565b604080519384526020840192909252908201526060016103dd565b34801561046457600080fd5b50610478610473366004611978565b610916565b005b34801561048657600080fd5b506104786104953660046119f0565b6109c1565b3480156104a657600080fd5b506104ba6104b5366004611a37565b610a93565b60405190151581526020016103dd565b3480156104d657600080fd5b506104df610af0565b6040519081526020016103dd565b3480156104f957600080fd5b50610478610508366004611b2c565b610b3a565b34801561051957600080fd5b50610478610528366004611b6d565b610c9a565b34801561053957600080fd5b50610542610e17565b6040516103dd9190611c4e565b34801561055b57600080fd5b506000546105699060ff1681565b6040516103dd9190611c75565b34801561058257600080fd5b50610478610591366004611c83565b610e49565b3480156105a257600080fd5b506104786105b1366004611caf565b610ee4565b3480156105c257600080fd5b5060055461040690600160a060020a031681565b3480156105e257600080fd5b506104ba610f9a565b3480156105f757600080fd5b50610478610606366004611cd9565b6110e1565b34801561061757600080fd5b506004546005546000546040516103dd93600160a060020a0390811693169160ff1690611cf4565b34801561064b57600080fd5b506104ba61065a366004611978565b6111a7565b34801561066b57600080fd5b5061047861067a366004611d21565b611210565b34801561068b57600080fd5b506106946112b4565b6040516103dd959493929190611d3a565b3480156106b157600080fd5b506104786106c0366004611da7565b61157e565b600680546007805460ff90921692916106dd90611dc2565b80601f016020809104026020016040519081016040528092919081815260200182805461070990611dc2565b80156107565780601f1061072b57610100808354040283529160200191610756565b820191906000526020600020905b81548152906001019060200180831161073957829003601f168201915b50505050509080600201805461076b90611dc2565b80601f016020809104026020016040519081016040528092919081815260200182805461079790611dc2565b80156107e45780601f106107b9576101008083540402835291602001916107e4565b820191906000526020600020905b8154815290600101906020018083116107c757829003601f168201915b5050505050908060030180546107f990611dc2565b80601f016020809104026020016040519081016040528092919081815260200182805461082590611dc2565b80156108725780601f1061084757610100808354040283529160200191610872565b820191906000526020600020905b81548152906001019060200180831161085557829003601f168201915b50505050509080600401805461088790611dc2565b80601f01602080910402602001604051908101604052809291908181526020018280546108b390611dc2565b80156109005780601f106108d557610100808354040283529160200191610900565b820191906000526020600020905b8154815290600101906020018083116108e357829003601f168201915b5050505050908060050154908060060154905087565b61091e610f9a565b61093d5760405160e560020a62461bcd0281526004016101fb90611dff565b600554600160a060020a0316331461096a5760405160e560020a62461bcd0281526004016101fb90611e5c565b600360005460ff16600381111561098357610983611626565b036109a35760405160e560020a62461bcd0281526004016101fb9061163f565b60096109af8382611f07565b50600a6109bc8282611f07565b505050565b6109c9610f9a565b6109e85760405160e560020a62461bcd0281526004016101fb90611dff565b600554600160a060020a03163314610a155760405160e560020a62461bcd0281526004016101fb90611e5c565b600360005460ff166003811115610a2e57610a2e611626565b03610a4e5760405160e560020a62461bcd0281526004016101fb9061163f565b60018581556002859055600384905560068054849260ff19909116908383811115610a7b57610a7b611626565b0217905550600c5550506000805460ff191690555050565b6000805b8251811015610ae457610ac384848381518110610ab657610ab6611fcd565b60200260200101516111a7565b15610ad2576001915050610aea565b80610adc81611fe6565b915050610a97565b50600090505b92915050565b6003546000908190610b039060126116b5565b610b0e90600a6117af565b600254610b1b91906117c2565b600154610b3090670de0b6b3a76400006117c2565b610aea91906117e1565b600480546040517ff33c4ff90000000000000000000000000000000000000000000000000000000081523392810192909252600160a060020a03169063f33c4ff990602401602060405180830381865afa158015610b9c573d6000803e3d6000fd5b505050506040513d601f19601f82011682018060405250810190610bc09190611fff565b1515600114610be45760405160e560020a62461bcd0281526004016101fb90612021565b600554600160a060020a03163303610c115760405160e560020a62461bcd0281526004016101fb9061207e565b600360005460ff166003811115610c2a57610c2a611626565b03610c4a5760405160e560020a62461bcd0281526004016101fb9061163f565b6005805473ffffffffffffffffffffffffffffffffffffffff1916600160a060020a0384161790556000805482919060ff19166001836003811115610c9157610c91611626565b02179055505050565b600480546040517ff33c4ff90000000000000000000000000000000000000000000000000000000081523392810192909252600160a060020a03169063f33c4ff990602401602060405180830381865afa158015610cfc573d6000803e3d6000fd5b505050506040513d601f19601f82011682018060405250810190610d209190611fff565b1515600114610d445760405160e560020a62461bcd0281526004016101fb90612021565b600554600160a060020a03163303610d715760405160e560020a62461bcd0281526004016101fb9061207e565b600360005460ff166003811115610d8a57610d8a611626565b03610daa5760405160e560020a62461bcd0281526004016101fb9061163f565b600d610db68782611f07565b50600e610dc38682611f07565b50600f610dd08582611f07565b506010610ddd8482611f07565b506011610dea8382611f07565b506000805482919060ff19166001836003811115610e0a57610e0a611626565b0217905550505050505050565b604051606090610e3590600790600890600990600a9060200161214e565b604051602081830303815290604052905090565b610e51610f9a565b610e705760405160e560020a62461bcd0281526004016101fb90611dff565b600554600160a060020a03163314610e9d5760405160e560020a62461bcd0281526004016101fb90611e5c565b600360005460ff166003811115610eb657610eb6611626565b03610ed65760405160e560020a62461bcd0281526004016101fb9061163f565b600192909255600255600355565b600554600160a060020a03163314610f115760405160e560020a62461bcd0281526004016101fb90611e5c565b610f19610f9a565b610f385760405160e560020a62461bcd0281526004016101fb90611dff565b600360005460ff166003811115610f5157610f51611626565b03610f715760405160e560020a62461bcd0281526004016101fb9061163f565b6006805483919060ff191660018383811115610f8f57610f8f611626565b0217905550600c5550565b6000611068600d6000018054610faf90611dc2565b80601f0160208091040260200160405190810160405280929190818152602001828054610fdb90611dc2565b80156110285780601f10610ffd57610100808354040283529160200191611028565b820191906000526020600020905b81548152906001019060200180831161100b57829003601f168201915b50505050506040518060400160405280600881526020017f50726f76696465640000000000000000000000000000000000000000000000008152506111a7565b80156110825750611082600d6001018054610faf90611dc2565b801561109c575061109c600d6002018054610faf90611dc2565b80156110b657506110b6600d6003018054610faf90611dc2565b80156110d057506110d0600d6004018054610faf90611dc2565b156110db5750600190565b50600090565b6110e9610f9a565b6111085760405160e560020a62461bcd0281526004016101fb90611dff565b600554600160a060020a031633146111355760405160e560020a62461bcd0281526004016101fb90611e5c565b600360005460ff16600381111561114e5761114e611626565b0361116e5760405160e560020a62461bcd0281526004016101fb9061163f565b6006805482919060ff19166001838381111561118c5761118c611626565b021790555060008054819060ff19166001825b021790555050565b600081518351146111ba57506000610aea565b816040516020016111cb919061217f565b60405160208183030381529060405280519060200120836040516020016111f2919061217f565b60405160208183030381529060405280519060200120149050610aea565b611218610f9a565b6112375760405160e560020a62461bcd0281526004016101fb90611dff565b600554600160a060020a031633146112645760405160e560020a62461bcd0281526004016101fb90611e5c565b600360005460ff16600381111561127d5761127d611626565b0361129d5760405160e560020a62461bcd0281526004016101fb9061163f565b600c81905560008054819060ff191660018261119f565b600d805481906112c390611dc2565b80601f01602080910402602001604051908101604052809291908181526020018280546112ef90611dc2565b801561133c5780601f106113115761010080835404028352916020019161133c565b820191906000526020600020905b81548152906001019060200180831161131f57829003601f168201915b50505050509080600101805461135190611dc2565b80601f016020809104026020016040519081016040528092919081815260200182805461137d90611dc2565b80156113ca5780601f1061139f576101008083540402835291602001916113ca565b820191906000526020600020905b8154815290600101906020018083116113ad57829003601f168201915b5050505050908060020180546113df90611dc2565b80601f016020809104026020016040519081016040528092919081815260200182805461140b90611dc2565b80156114585780601f1061142d57610100808354040283529160200191611458565b820191906000526020600020905b81548152906001019060200180831161143b57829003601f168201915b50505050509080600301805461146d90611dc2565b80601f016020809104026020016040519081016040528092919081815260200182805461149990611dc2565b80156114e65780601f106114bb576101008083540402835291602001916114e6565b820191906000526020600020905b8154815290600101906020018083116114c957829003601f168201915b5050505050908060040180546114fb90611dc2565b80601f016020809104026020016040519081016040528092919081815260200182805461152790611dc2565b80156115745780601f1061154957610100808354040283529160200191611574565b820191906000526020600020905b81548152906001019060200180831161155757829003601f168201915b5050505050905085565b611586610f9a565b6115a55760405160e560020a62461bcd0281526004016101fb90611dff565b600554600160a060020a031633146115d25760405160e560020a62461bcd0281526004016101fb90611e5c565b600360005460ff1660038111156115eb576115eb611626565b0361160b5760405160e560020a62461bcd0281526004016101fb9061163f565b6000805482919060ff1916600183600381111561119f5761119f5b60e060020a634e487b7102600052602160045260246000fd5b60208082526032908201527f546869732050726f7065727479205469746c6520436f6e74726163742069732060408201527f6e6f206c6f6e6765722072656c6176616e740000000000000000000000000000606082015260800190565b60e060020a634e487b7102600052601160045260246000fd5b81810381811115610aea57610aea61169c565b600181815b808511156117055781600019048211156116e9576116e961169c565b808516156116f657918102915b600290940493908002906116cd565b509250929050565b60008261171c57506001610aea565b8161172957506000610aea565b816001811461173f576002811461174957611766565b6001915050610aea565b60ff84111561175a5761175a61169c565b8360020a915050610aea565b5060208310610133831016604e8410600b8410161715611789575081810a610aea565b61179383836116c8565b80600019048211156117a7576117a761169c565b029392505050565b60006117bb838361170d565b9392505050565b60008160001904831182151516156117dc576117dc61169c565b500290565b80820180821115610aea57610aea61169c565b60005b8381101561180f5781810151838201526020016117f7565b50506000910152565b600081518084526118308160208601602086016117f4565b601f01601f19169290920160200192915050565b60006007891061185657611856611626565b88825260e0602083015261186d60e0830189611818565b828103604084015261187f8189611818565b905082810360608401526118938188611818565b905082810360808401526118a78187611818565b60a0840195909552505060c0015295945050505050565b60e060020a634e487b7102600052604160045260246000fd5b604051601f8201601f1916810167ffffffffffffffff81118282101715611900576119006118be565b604052919050565b600082601f83011261191957600080fd5b813567ffffffffffffffff811115611933576119336118be565b611946601f8201601f19166020016118d7565b81815284602083860101111561195b57600080fd5b816020850160208301376000918101602001919091529392505050565b6000806040838503121561198b57600080fd5b823567ffffffffffffffff808211156119a357600080fd5b6119af86838701611908565b935060208501359150808211156119c557600080fd5b506119d285828601611908565b9150509250929050565b8035600781106119eb57600080fd5b919050565b600080600080600060a08688031215611a0857600080fd5b853594506020860135935060408601359250611a26606087016119dc565b949793965091946080013592915050565b60008060408385031215611a4a57600080fd5b823567ffffffffffffffff80821115611a6257600080fd5b611a6e86838701611908565b9350602091508185013581811115611a8557600080fd5b8501601f81018713611a9657600080fd5b803582811115611aa857611aa86118be565b838102611ab68582016118d7565b918252828101850191858101908a841115611ad057600080fd5b86850192505b83831015611b0c57823586811115611aee5760008081fd5b611afc8c8983890101611908565b8352509186019190860190611ad6565b809750505050505050509250929050565b8035600481106119eb57600080fd5b60008060408385031215611b3f57600080fd5b8235600160a060020a0381168114611b5657600080fd5b9150611b6460208401611b1d565b90509250929050565b60008060008060008060c08789031215611b8657600080fd5b863567ffffffffffffffff80821115611b9e57600080fd5b611baa8a838b01611908565b97506020890135915080821115611bc057600080fd5b611bcc8a838b01611908565b96506040890135915080821115611be257600080fd5b611bee8a838b01611908565b95506060890135915080821115611c0457600080fd5b611c108a838b01611908565b94506080890135915080821115611c2657600080fd5b50611c3389828a01611908565b925050611c4260a08801611b1d565b90509295509295509295565b6020815260006117bb6020830184611818565b60048110611c7157611c71611626565b9052565b60208101610aea8284611c61565b600080600060608486031215611c9857600080fd5b505081359360208301359350604090920135919050565b60008060408385031215611cc257600080fd5b611ccb836119dc565b946020939093013593505050565b600060208284031215611ceb57600080fd5b6117bb826119dc565b600160a060020a0384811682528316602082015260608101611d196040830184611c61565b949350505050565b600060208284031215611d3357600080fd5b5035919050565b60a081526000611d4d60a0830188611818565b8281036020840152611d5f8188611818565b90508281036040840152611d738187611818565b90508281036060840152611d878186611818565b90508281036080840152611d9b8185611818565b98975050505050505050565b600060208284031215611db957600080fd5b6117bb82611b1d565b600281046001821680611dd657607f821691505b602082108103611df95760e060020a634e487b7102600052602260045260246000fd5b50919050565b60208082526024908201527f5468652070726f7065727479206973206e6f74206c6567616c6c7920616c726960408201527f6768742e00000000000000000000000000000000000000000000000000000000606082015260800190565b60208082526032908201527f4f6e6c7920746865206f776e6572206f662074686520436f6e7472616374206860408201527f61732061636365737320746f2074686973210000000000000000000000000000606082015260800190565b601f8211156109bc576000818152602081206020601f86010481016020861015611ee05750805b6020601f860104820191505b81811015611eff57828155600101611eec565b505050505050565b815167ffffffffffffffff811115611f2157611f216118be565b611f3581611f2f8454611dc2565b84611eb9565b602080601f831160018114611f6e5760008415611f525750858301515b60028086026008870290910a6000190419821617865550611eff565b600085815260208120601f198616915b82811015611f9d57888601518255948401946001909101908401611f7e565b5085821015611fbd57878501516008601f88160260020a60001904191681555b5050505050600202600101905550565b60e060020a634e487b7102600052603260045260246000fd5b600060018201611ff857611ff861169c565b5060010190565b60006020828403121561201157600080fd5b815180151581146117bb57600080fd5b60208082526036908201527f4f6e6c792061207265676973746572656420726567697374726172206861732060408201527f61636365737320746f207468697320616374696f6e2e00000000000000000000606082015260800190565b60208082526026908201527f596f752063616e206e6f742076616c696461746520796f7572206f776e20707260408201527f6f70657274790000000000000000000000000000000000000000000000000000606082015260800190565b600081546120e881611dc2565b60018281168015612100576001811461211557612144565b60ff1984168752821515830287019450612144565b8560005260208060002060005b8581101561213b5781548a820152908401908201612122565b50505082870194505b5050505092915050565b600061217561216f612169612163858a6120db565b886120db565b866120db565b846120db565b9695505050505050565b600082516121918184602087016117f4565b919091019291505056fea264697066735822122030d717c221a5776b38913bdeb62f3b328399de6dabf947eb1b39f9a04e371deb64736f6c63430008100033",
  "immutableReferences": {},
  "source": "//SPDX-License-Identifier: MIT\r\npragma solidity ^0.8.15;\r\n\r\ninterface ITitleCreatingContract {\r\n    function checkIfUserIsRegistrar(address _userAddress) external view returns (bool);\r\n}\r\n\r\nenum PropertyTitleContractState { PENDING, OWNED, FOR_SALE, NO_LONGER_RELEVANT }\r\n\r\nenum HousingTenure {\r\n    OWNER_OCCUPANCY,\r\n    TENANCY,\r\n    COOPERATIVE,\r\n    CONDOMIUM,\r\n    PUBLIC_HOUSING,\r\n    SQUATTING,\r\n    LAND_TRUST\r\n}\r\n\r\nstruct PropertyDetails {\r\n    HousingTenure tenureType;\r\n    string country;\r\n    string city;\r\n    string street;\r\n    string streetNumber;\r\n    uint256 apartmentNumber;\r\n    uint256 squareMeters;\r\n}\r\n\r\nstruct RequiredPropertyDocuments {\r\n    string proofOfIdentityState;\r\n    string propertyTitleDeedsState;\r\n    string energyPerformanceCertificateState;\r\n    string extensionsAndAlterationsDocumentationState;\r\n    string utilityBillsPaidState;\r\n}\r\n\r\nstruct SellingPrice {\r\n    uint256 sellingPriceIntegralPart;\r\n    uint256 sellingPriceFractionalPart;\r\n    uint256 sellingPriceFractionalPartLength;\r\n}\r\n\r\n\r\ncontract PropertyTitle {\r\n    PropertyTitleContractState public contractState;\r\n    SellingPrice public sellingPrice;\r\n    address public creator;\r\n    address public owner;\r\n    PropertyDetails public propertyDetails;\r\n    RequiredPropertyDocuments public requiredDocuments;\r\n\r\n    constructor(\r\n        address _creator,\r\n        address _owner,\r\n        string memory _country,\r\n        string memory _city,\r\n        string memory _street,\r\n        string memory _streeNumber,\r\n        uint256 _apartmentNumber,\r\n        uint256 _squareMeters,\r\n        uint256 _sellingPriceIntegralPart,\r\n        uint256 _sellingPriceFractionalPart,\r\n        uint256  _sellingPriceFractionalPartLength\r\n    )\r\n    {\r\n        creator = _creator;\r\n        owner = _owner;\r\n        contractState = PropertyTitleContractState.PENDING;\r\n        propertyDetails.country = _country;\r\n        propertyDetails.city = _city;\r\n        propertyDetails.street = _street;\r\n        propertyDetails.streetNumber = _streeNumber;\r\n        propertyDetails.apartmentNumber = _apartmentNumber;\r\n        propertyDetails.squareMeters = _squareMeters;\r\n        sellingPrice.sellingPriceIntegralPart = _sellingPriceIntegralPart;\r\n        sellingPrice.sellingPriceFractionalPart = _sellingPriceFractionalPart;\r\n        sellingPrice.sellingPriceFractionalPartLength = _sellingPriceFractionalPartLength;\r\n\r\n        requiredDocuments.proofOfIdentityState = 'Not Provided';\r\n        requiredDocuments.propertyTitleDeedsState = 'Not Provided';\r\n        requiredDocuments.energyPerformanceCertificateState = 'Not Provided';\r\n        requiredDocuments.extensionsAndAlterationsDocumentationState = 'Not Provided';\r\n        requiredDocuments.utilityBillsPaidState = 'Not Provided';\r\n    }\r\n\r\n    receive() external payable onlyIfPropertyForSale onlyRelevantProperty \r\n    {\r\n        uint256 sellingPriceWeiValue = (sellingPrice.sellingPriceIntegralPart * 10**18) + (sellingPrice.sellingPriceFractionalPart * 10**(18-sellingPrice.sellingPriceFractionalPartLength));\r\n        require(msg.sender.balance >= sellingPriceWeiValue, 'Insufficient funds');\r\n        payable(owner).transfer(msg.value);\r\n        contractState = PropertyTitleContractState.OWNED;\r\n        owner = payable(msg.sender);\r\n    }\r\n\r\n    function modifyContractStateAndOwner(\r\n        address payable _owner, \r\n        PropertyTitleContractState _contractState\r\n    )\r\n        external \r\n        onlyRegistrar\r\n        onlyNotOwner\r\n        onlyRelevantProperty\r\n    {\r\n        owner = _owner;\r\n        contractState = _contractState;\r\n    }\r\n\r\n    function insertPropertyDetails(\r\n        HousingTenure _tenureType,\r\n        uint256 _squareMeters\r\n    )\r\n        external\r\n        onlyOwner\r\n        onlyIfLegallyAllowed\r\n        onlyRelevantProperty\r\n    {\r\n        propertyDetails.tenureType = _tenureType;\r\n        propertyDetails.squareMeters = _squareMeters;\r\n    }\r\n\r\n    function modifyContractState(PropertyTitleContractState _contractState) external onlyIfLegallyAllowed onlyOwner onlyRelevantProperty {\r\n        contractState = _contractState;\r\n    }\r\n\r\n    function modifyPropertyAdress(string memory _street, string memory _streeNumber) external onlyIfLegallyAllowed onlyOwner onlyRelevantProperty {\r\n        propertyDetails.street = _street;\r\n        propertyDetails.streetNumber = _streeNumber;\r\n    }\r\n\r\n    function modifyPropertyPriceAndTenureAndMeters(\r\n        uint256 _sellingPriceIntegralPart, \r\n        uint256 _sellingPriceFractionalPart, \r\n        uint256 _sellingPriceFractionalPartLength,\r\n        HousingTenure _tenureType,\r\n        uint256 _squareMeters\r\n    )\r\n        external\r\n        onlyIfLegallyAllowed\r\n        onlyOwner\r\n        onlyRelevantProperty\r\n    {\r\n        sellingPrice.sellingPriceIntegralPart = _sellingPriceIntegralPart;\r\n        sellingPrice.sellingPriceFractionalPart = _sellingPriceFractionalPart;\r\n        sellingPrice.sellingPriceFractionalPartLength = _sellingPriceFractionalPartLength;\r\n        propertyDetails.tenureType = _tenureType;\r\n        propertyDetails.squareMeters = _squareMeters;\r\n        contractState = PropertyTitleContractState.PENDING;\r\n    }\r\n\r\n    function modifyPropertyTenureType(HousingTenure _tenureType) external onlyIfLegallyAllowed onlyOwner onlyRelevantProperty {\r\n        propertyDetails.tenureType = _tenureType;\r\n        contractState = PropertyTitleContractState.PENDING;\r\n    }\r\n\r\n    function modifyPropertySquareMeters(uint256 _squareMeters) external onlyIfLegallyAllowed onlyOwner onlyRelevantProperty {\r\n        propertyDetails.squareMeters = _squareMeters;\r\n        contractState = PropertyTitleContractState.PENDING;\r\n    }\r\n\r\n    function setPropertySellingPrice(\r\n        uint256 _sellingPriceIntegralPart, \r\n        uint256 _sellingPriceFractionalPart, \r\n        uint256 _sellingPriceFractionalPartLength\r\n    ) \r\n        external \r\n        onlyIfLegallyAllowed \r\n        onlyOwner \r\n        onlyRelevantProperty\r\n    {\r\n        sellingPrice.sellingPriceIntegralPart = _sellingPriceIntegralPart;\r\n        sellingPrice.sellingPriceFractionalPart = _sellingPriceFractionalPart;\r\n        sellingPrice.sellingPriceFractionalPartLength = _sellingPriceFractionalPartLength;\r\n    }\r\n\r\n    function setRequiredDocumentsStateAndContractState(\r\n        string memory _proofOfIdentity,\r\n        string memory _propertyTitleDeeds,\r\n        string memory _energyPerformanceCertificate,\r\n        string memory _extensionsAndAlterationsDocumentation,\r\n        string memory _utilityBillsPaid,\r\n        PropertyTitleContractState _contractState\r\n    )\r\n        external\r\n        onlyRegistrar\r\n        onlyNotOwner\r\n        onlyRelevantProperty\r\n    {\r\n        requiredDocuments.proofOfIdentityState = _proofOfIdentity;\r\n        requiredDocuments.propertyTitleDeedsState = _propertyTitleDeeds;\r\n        requiredDocuments.energyPerformanceCertificateState = _energyPerformanceCertificate;\r\n        requiredDocuments.extensionsAndAlterationsDocumentationState = _extensionsAndAlterationsDocumentation;\r\n        requiredDocuments.utilityBillsPaidState = _utilityBillsPaid;\r\n        contractState = _contractState;\r\n    }\r\n\r\n    function getPropertySellingPrice() public view returns (uint256) {\r\n        uint256 sellingPriceWeiValue = (sellingPrice.sellingPriceIntegralPart * 10**18) + (sellingPrice.sellingPriceFractionalPart * 10**(18-sellingPrice.sellingPriceFractionalPartLength));\r\n        return sellingPriceWeiValue;\r\n    }\r\n\r\n    function getContractDetails() public view returns (address, address, PropertyTitleContractState) {\r\n        return (creator, owner, contractState);\r\n    }\r\n\r\n    function getFullPropertyAddress() public view returns (string memory) {\r\n        return string.concat(propertyDetails.country, propertyDetails.city, propertyDetails.street, propertyDetails.streetNumber);\r\n    }\r\n\r\n    function checkIfAllDocumentsAreProvided() public view returns (bool) {\r\n        if (checkStringsEquality(requiredDocuments.proofOfIdentityState, 'Provided') \r\n            && checkStringsEquality(requiredDocuments.propertyTitleDeedsState, 'Provided') \r\n            && checkStringsEquality(requiredDocuments.energyPerformanceCertificateState, 'Provided') \r\n            && checkStringsEquality(requiredDocuments.extensionsAndAlterationsDocumentationState, 'Provided') \r\n            && checkStringsEquality(requiredDocuments.utilityBillsPaidState, 'Provided')) {\r\n                return true;\r\n        }\r\n        return false;\r\n    }\r\n\r\n    function checkStringsEquality(string memory firstString, string memory secondString) public pure returns (bool) {\r\n        if (bytes(firstString).length != bytes(secondString).length) {\r\n            return false;\r\n        } else {\r\n            return keccak256(abi.encodePacked(firstString)) == keccak256(abi.encodePacked(secondString));\r\n        }\r\n    }\r\n\r\n    function checkIfStringIsFoundInStringsArray(\r\n        string memory stringToSearchFor,\r\n        string[] memory stringsArray\r\n    )\r\n        public\r\n        pure\r\n        returns (bool)\r\n    {\r\n        for (uint256 i = 0; i < stringsArray.length; i++) {\r\n            if (checkStringsEquality(stringToSearchFor, stringsArray[i])) {\r\n                return true;\r\n            }\r\n        }\r\n\r\n        return false;\r\n    }\r\n\r\n\r\n    modifier onlyCreator {\r\n        require(msg.sender == creator, \"Only the creator of the Contract has access to this!\");\r\n        _;\r\n    }\r\n\r\n    modifier onlyOwner {\r\n        require(msg.sender == owner, \"Only the owner of the Contract has access to this!\");\r\n        _;\r\n    }\r\n\r\n    modifier onlyIfLegallyAllowed {\r\n        require(checkIfAllDocumentsAreProvided(), \"The property is not legally alright.\");\r\n        _;\r\n    }\r\n\r\n    modifier onlyRegistrar {\r\n        require(ITitleCreatingContract(creator).checkIfUserIsRegistrar(msg.sender) == true, \"Only a registered registrar has access to this action.\");\r\n        _;\r\n    }\r\n\r\n    modifier onlyNotOwner {\r\n        require(msg.sender != owner, \"You can not validate your own property\");\r\n        _;\r\n    }\r\n\r\n    modifier onlyIfPropertyForSale {\r\n        require(propertyDetails.tenureType == HousingTenure.OWNER_OCCUPANCY || propertyDetails.tenureType == HousingTenure.CONDOMIUM,\r\n            \"This property's tenure type does not support being sold\");\r\n        require(contractState == PropertyTitleContractState.FOR_SALE, \"This property is not for sale.\");\r\n        _;\r\n    }\r\n\r\n    modifier onlyRelevantProperty {\r\n        require(contractState != PropertyTitleContractState.NO_LONGER_RELEVANT, \r\n            'This Property Title Contract is no longer relavant');\r\n        _;\r\n    }\r\n}",
  "sourcePath": "D:\\Propty\\propty\\contracts\\contracts\\PropertyTitle.sol",
  "compiler": {
    "name": "solc",
    "version": "0.8.16+commit.07a7930e.Emscripten.clang"
  },
  "schemaVersion": "3.4.9",
  "updatedAt": "2022-12-11T09:59:59.103Z",
  "devdoc": {
    "kind": "dev",
    "methods": {},
    "version": 1
  },
  "userdoc": {
    "kind": "user",
    "methods": {},
    "version": 1
  }
}