{
  "contractName": "PropertyTitle",
  "abi": [
    {
      "inputs": [
        {
          "internalType": "address",
          "name": "_creator",
          "type": "address"
        },
        {
          "internalType": "address payable",
          "name": "_owner",
          "type": "address"
        },
        {
          "internalType": "string",
          "name": "_country",
          "type": "string"
        },
        {
          "internalType": "string",
          "name": "_city",
          "type": "string"
        },
        {
          "internalType": "string",
          "name": "_street",
          "type": "string"
        },
        {
          "internalType": "string",
          "name": "_streeNumber",
          "type": "string"
        }
      ],
      "stateMutability": "nonpayable",
      "type": "constructor"
    },
    {
      "inputs": [],
      "name": "contractState",
      "outputs": [
        {
          "internalType": "enum PropertyTitleContractState",
          "name": "",
          "type": "uint8"
        }
      ],
      "stateMutability": "view",
      "type": "function",
      "constant": true
    },
    {
      "inputs": [],
      "name": "creator",
      "outputs": [
        {
          "internalType": "address",
          "name": "",
          "type": "address"
        }
      ],
      "stateMutability": "view",
      "type": "function",
      "constant": true
    },
    {
      "inputs": [],
      "name": "owner",
      "outputs": [
        {
          "internalType": "address payable",
          "name": "",
          "type": "address"
        }
      ],
      "stateMutability": "view",
      "type": "function",
      "constant": true
    },
    {
      "inputs": [],
      "name": "propertyDetails",
      "outputs": [
        {
          "internalType": "enum HousingTenure",
          "name": "tenureType",
          "type": "uint8"
        },
        {
          "internalType": "string",
          "name": "country",
          "type": "string"
        },
        {
          "internalType": "string",
          "name": "city",
          "type": "string"
        },
        {
          "internalType": "string",
          "name": "street",
          "type": "string"
        },
        {
          "internalType": "string",
          "name": "streetNumber",
          "type": "string"
        },
        {
          "internalType": "uint256",
          "name": "streetApartment",
          "type": "uint256"
        },
        {
          "internalType": "string",
          "name": "propertyDescription",
          "type": "string"
        },
        {
          "internalType": "uint256",
          "name": "squareMetres",
          "type": "uint256"
        }
      ],
      "stateMutability": "view",
      "type": "function",
      "constant": true
    },
    {
      "inputs": [],
      "name": "requiredDocuments",
      "outputs": [
        {
          "internalType": "bool",
          "name": "proofOfIdentity",
          "type": "bool"
        },
        {
          "internalType": "bool",
          "name": "propertyTitleDeeds",
          "type": "bool"
        },
        {
          "internalType": "bool",
          "name": "energyPerformanceCertificate",
          "type": "bool"
        },
        {
          "internalType": "bool",
          "name": "extensionsAndAlterationsDocumentation",
          "type": "bool"
        },
        {
          "internalType": "bool",
          "name": "utilityBillsPaid",
          "type": "bool"
        }
      ],
      "stateMutability": "view",
      "type": "function",
      "constant": true
    },
    {
      "inputs": [],
      "name": "sellingPriceFractionalPart",
      "outputs": [
        {
          "internalType": "uint256",
          "name": "",
          "type": "uint256"
        }
      ],
      "stateMutability": "view",
      "type": "function",
      "constant": true
    },
    {
      "inputs": [],
      "name": "sellingPriceFractionalPartLength",
      "outputs": [
        {
          "internalType": "uint256",
          "name": "",
          "type": "uint256"
        }
      ],
      "stateMutability": "view",
      "type": "function",
      "constant": true
    },
    {
      "inputs": [],
      "name": "sellingPriceIntegralPart",
      "outputs": [
        {
          "internalType": "uint256",
          "name": "",
          "type": "uint256"
        }
      ],
      "stateMutability": "view",
      "type": "function",
      "constant": true
    },
    {
      "inputs": [
        {
          "internalType": "address payable",
          "name": "_owner",
          "type": "address"
        },
        {
          "internalType": "enum PropertyTitleContractState",
          "name": "_contractState",
          "type": "uint8"
        }
      ],
      "name": "modifyContractState",
      "outputs": [],
      "stateMutability": "nonpayable",
      "type": "function"
    },
    {
      "inputs": [
        {
          "internalType": "string",
          "name": "_propertyDescription",
          "type": "string"
        },
        {
          "internalType": "enum HousingTenure",
          "name": "_tenureType",
          "type": "uint8"
        },
        {
          "internalType": "uint256",
          "name": "_squareMetres",
          "type": "uint256"
        }
      ],
      "name": "insertPropertyDetails",
      "outputs": [],
      "stateMutability": "nonpayable",
      "type": "function"
    },
    {
      "inputs": [
        {
          "internalType": "string",
          "name": "_street",
          "type": "string"
        },
        {
          "internalType": "string",
          "name": "_streeNumber",
          "type": "string"
        }
      ],
      "name": "modifyPropertyAdress",
      "outputs": [],
      "stateMutability": "nonpayable",
      "type": "function"
    },
    {
      "inputs": [
        {
          "internalType": "string",
          "name": "_description",
          "type": "string"
        }
      ],
      "name": "modifyPropertyDescription",
      "outputs": [],
      "stateMutability": "nonpayable",
      "type": "function"
    },
    {
      "inputs": [
        {
          "internalType": "enum HousingTenure",
          "name": "_tenureType",
          "type": "uint8"
        }
      ],
      "name": "modifyPropertyTenureType",
      "outputs": [],
      "stateMutability": "nonpayable",
      "type": "function"
    },
    {
      "inputs": [
        {
          "internalType": "uint256",
          "name": "_squareMetres",
          "type": "uint256"
        }
      ],
      "name": "modifyPropertySquareMetres",
      "outputs": [],
      "stateMutability": "nonpayable",
      "type": "function"
    },
    {
      "inputs": [
        {
          "internalType": "uint256",
          "name": "_sellingPriceIntegralPart",
          "type": "uint256"
        },
        {
          "internalType": "uint256",
          "name": "_sellingPriceFractionalPart",
          "type": "uint256"
        },
        {
          "internalType": "uint256",
          "name": "_sellingPriceFractionalPartLength",
          "type": "uint256"
        }
      ],
      "name": "addPropertyAsForSale",
      "outputs": [],
      "stateMutability": "nonpayable",
      "type": "function"
    },
    {
      "inputs": [],
      "name": "buyProperty",
      "outputs": [],
      "stateMutability": "payable",
      "type": "function",
      "payable": true
    },
    {
      "inputs": [],
      "name": "getContractDetails",
      "outputs": [
        {
          "internalType": "address",
          "name": "",
          "type": "address"
        },
        {
          "internalType": "address",
          "name": "",
          "type": "address"
        },
        {
          "internalType": "enum PropertyTitleContractState",
          "name": "",
          "type": "uint8"
        }
      ],
      "stateMutability": "view",
      "type": "function",
      "constant": true
    },
    {
      "inputs": [],
      "name": "validatePropertyDebts",
      "outputs": [
        {
          "internalType": "bool",
          "name": "",
          "type": "bool"
        }
      ],
      "stateMutability": "view",
      "type": "function",
      "constant": true
    },
    {
      "inputs": [],
      "name": "checkIfUserIsRegistrar",
      "outputs": [
        {
          "internalType": "bool",
          "name": "",
          "type": "bool"
        }
      ],
      "stateMutability": "view",
      "type": "function",
      "constant": true
    },
    {
      "inputs": [
        {
          "internalType": "string",
          "name": "firstString",
          "type": "string"
        },
        {
          "internalType": "string",
          "name": "secondString",
          "type": "string"
        }
      ],
      "name": "checkStringsEquality",
      "outputs": [
        {
          "internalType": "bool",
          "name": "",
          "type": "bool"
        }
      ],
      "stateMutability": "pure",
      "type": "function",
      "constant": true
    },
    {
      "inputs": [
        {
          "internalType": "string",
          "name": "stringToSearchFor",
          "type": "string"
        },
        {
          "internalType": "string[]",
          "name": "stringsArray",
          "type": "string[]"
        }
      ],
      "name": "checkIfStringIsFoundInStringsArray",
      "outputs": [
        {
          "internalType": "bool",
          "name": "",
          "type": "bool"
        }
      ],
      "stateMutability": "pure",
      "type": "function",
      "constant": true
    }
  ],
  "bytecode": "0x60806040523480156200001157600080fd5b506040516200303b3803806200303b83398181016040528101906200003791906200039b565b85600460006101000a81548173ffffffffffffffffffffffffffffffffffffffff021916908373ffffffffffffffffffffffffffffffffffffffff16021790555084600560006101000a81548173ffffffffffffffffffffffffffffffffffffffff021916908373ffffffffffffffffffffffffffffffffffffffff16021790555060026000806101000a81548160ff02191690836003811115620000e157620000e0620004b3565b5b02179055508360066001019081620000fa91906200072d565b5082600660020190816200010f91906200072d565b5081600660030190816200012491906200072d565b5080600660040190816200013991906200072d565b5060076001819055506102166002819055506003808190555050505050505062000814565b6000604051905090565b600080fd5b600080fd5b600073ffffffffffffffffffffffffffffffffffffffff82169050919050565b60006200019f8262000172565b9050919050565b620001b18162000192565b8114620001bd57600080fd5b50565b600081519050620001d181620001a6565b92915050565b6000620001e48262000172565b9050919050565b620001f681620001d7565b81146200020257600080fd5b50565b6000815190506200021681620001eb565b92915050565b600080fd5b600080fd5b6000601f19601f8301169050919050565b7f4e487b7100000000000000000000000000000000000000000000000000000000600052604160045260246000fd5b620002718262000226565b810181811067ffffffffffffffff8211171562000293576200029262000237565b5b80604052505050565b6000620002a86200015e565b9050620002b6828262000266565b919050565b600067ffffffffffffffff821115620002d957620002d862000237565b5b620002e48262000226565b9050602081019050919050565b60005b8381101562000311578082015181840152602081019050620002f4565b60008484015250505050565b6000620003346200032e84620002bb565b6200029c565b90508281526020810184848401111562000353576200035262000221565b5b62000360848285620002f1565b509392505050565b600082601f83011262000380576200037f6200021c565b5b8151620003928482602086016200031d565b91505092915050565b60008060008060008060c08789031215620003bb57620003ba62000168565b5b6000620003cb89828a01620001c0565b9650506020620003de89828a0162000205565b955050604087015167ffffffffffffffff8111156200040257620004016200016d565b5b6200041089828a0162000368565b945050606087015167ffffffffffffffff8111156200043457620004336200016d565b5b6200044289828a0162000368565b935050608087015167ffffffffffffffff8111156200046657620004656200016d565b5b6200047489828a0162000368565b92505060a087015167ffffffffffffffff8111156200049857620004976200016d565b5b620004a689828a0162000368565b9150509295509295509295565b7f4e487b7100000000000000000000000000000000000000000000000000000000600052602160045260246000fd5b600081519050919050565b7f4e487b7100000000000000000000000000000000000000000000000000000000600052602260045260246000fd5b600060028204905060018216806200053557607f821691505b6020821081036200054b576200054a620004ed565b5b50919050565b60008190508160005260206000209050919050565b60006020601f8301049050919050565b600082821b905092915050565b600060088302620005b57fffffffffffffffffffffffffffffffffffffffffffffffffffffffffffffffff8262000576565b620005c1868362000576565b95508019841693508086168417925050509392505050565b6000819050919050565b6000819050919050565b60006200060e620006086200060284620005d9565b620005e3565b620005d9565b9050919050565b6000819050919050565b6200062a83620005ed565b62000642620006398262000615565b84845462000583565b825550505050565b600090565b620006596200064a565b620006668184846200061f565b505050565b5b818110156200068e57620006826000826200064f565b6001810190506200066c565b5050565b601f821115620006dd57620006a78162000551565b620006b28462000566565b81016020851015620006c2578190505b620006da620006d18562000566565b8301826200066b565b50505b505050565b600082821c905092915050565b60006200070260001984600802620006e2565b1980831691505092915050565b60006200071d8383620006ef565b9150826002028217905092915050565b6200073882620004e2565b67ffffffffffffffff81111562000754576200075362000237565b5b6200076082546200051c565b6200076d82828562000692565b600060209050601f831160018114620007a5576000841562000790578287015190505b6200079c85826200070f565b8655506200080c565b601f198416620007b58662000551565b60005b82811015620007df57848901518255600182019150602085019450602081019050620007b8565b86831015620007ff5784890151620007fb601f891682620006ef565b8355505b6001600288020188555050505b505050505050565b61281780620008246000396000f3fe6080604052600436106101295760003560e01c806378b3c71e116100ab5780639dfc91171161006f5780639dfc91171461039f578063ab134bed146103cc578063b3cbb32c146103f7578063bac9cad514610434578063daca4eef1461045f578063e15abe421461048e57610129565b806378b3c71e146102ca57806385209ee0146102f55780638da5cb5b1461032057806394a81f011461034b57806397035a071461037657610129565b80633243e784116100f25780633243e784146102065780633d7a44921461022f578063446a4fe914610258578063451a308f146102835780635293c8381461028d57610129565b80627dc3721461012e578063022439511461016057806302d05d3f146101895780630fbb26a1146101b457806311d82315146101dd575b600080fd5b34801561013a57600080fd5b506101436104b7565b604051610157989796959493929190611520565b60405180910390f35b34801561016c57600080fd5b5061018760048036038101906101829190611658565b6107a2565b005b34801561019557600080fd5b5061019e610857565b6040516101ab91906116b9565b60405180910390f35b3480156101c057600080fd5b506101db60048036038101906101d69190611700565b61087d565b005b3480156101e957600080fd5b5061020460048036038101906101ff919061172d565b610961565b005b34801561021257600080fd5b5061022d6004803603810190610228919061180a565b610a7c565b005b34801561023b57600080fd5b50610256600480360381019061025191906119ae565b610ba4565b005b34801561026457600080fd5b5061026d610ca5565b60405161027a9190611a41565b60405180910390f35b61028b610cae565b005b34801561029957600080fd5b506102b460048036038101906102af9190611b3d565b610f6f565b6040516102c19190611a41565b60405180910390f35b3480156102d657600080fd5b506102df610fd2565b6040516102ec9190611bb5565b60405180910390f35b34801561030157600080fd5b5061030a610fd8565b6040516103179190611c18565b60405180910390f35b34801561032c57600080fd5b50610335610fe9565b6040516103429190611c42565b60405180910390f35b34801561035757600080fd5b5061036061100f565b60405161036d9190611a41565b60405180910390f35b34801561038257600080fd5b5061039d60048036038101906103989190611c5d565b6110cc565b005b3480156103ab57600080fd5b506103b46111d3565b6040516103c393929190611c8a565b60405180910390f35b3480156103d857600080fd5b506103e1611237565b6040516103ee9190611bb5565b60405180910390f35b34801561040357600080fd5b5061041e600480360381019061041991906119ae565b61123d565b60405161042b9190611a41565b60405180910390f35b34801561044057600080fd5b506104496112a9565b6040516104569190611bb5565b60405180910390f35b34801561046b57600080fd5b506104746112af565b604051610485959493929190611cc1565b60405180910390f35b34801561049a57600080fd5b506104b560048036038101906104b09190611d14565b611314565b005b60068060000160009054906101000a900460ff16908060010180546104db90611d8c565b80601f016020809104026020016040519081016040528092919081815260200182805461050790611d8c565b80156105545780601f1061052957610100808354040283529160200191610554565b820191906000526020600020905b81548152906001019060200180831161053757829003601f168201915b50505050509080600201805461056990611d8c565b80601f016020809104026020016040519081016040528092919081815260200182805461059590611d8c565b80156105e25780601f106105b7576101008083540402835291602001916105e2565b820191906000526020600020905b8154815290600101906020018083116105c557829003601f168201915b5050505050908060030180546105f790611d8c565b80601f016020809104026020016040519081016040528092919081815260200182805461062390611d8c565b80156106705780601f1061064557610100808354040283529160200191610670565b820191906000526020600020905b81548152906001019060200180831161065357829003601f168201915b50505050509080600401805461068590611d8c565b80601f01602080910402602001604051908101604052809291908181526020018280546106b190611d8c565b80156106fe5780601f106106d3576101008083540402835291602001916106fe565b820191906000526020600020905b8154815290600101906020018083116106e157829003601f168201915b50505050509080600501549080600601805461071990611d8c565b80601f016020809104026020016040519081016040528092919081815260200182805461074590611d8c565b80156107925780601f1061076757610100808354040283529160200191610792565b820191906000526020600020905b81548152906001019060200180831161077557829003601f168201915b5050505050908060070154905088565b6107aa610ca5565b6107e9576040517f08c379a00000000000000000000000000000000000000000000000000000000081526004016107e090611e2f565b60405180910390fd5b81600560006101000a81548173ffffffffffffffffffffffffffffffffffffffff021916908373ffffffffffffffffffffffffffffffffffffffff160217905550806000806101000a81548160ff0219169083600381111561084e5761084d611400565b5b02179055505050565b600460009054906101000a900473ffffffffffffffffffffffffffffffffffffffff1681565b61088561100f565b6108c4576040517f08c379a00000000000000000000000000000000000000000000000000000000081526004016108bb90611ec1565b60405180910390fd5b600560009054906101000a900473ffffffffffffffffffffffffffffffffffffffff1673ffffffffffffffffffffffffffffffffffffffff163373ffffffffffffffffffffffffffffffffffffffff1614610954576040517f08c379a000000000000000000000000000000000000000000000000000000000815260040161094b90611f53565b60405180910390fd5b8060066007018190555050565b61096961100f565b6109a8576040517f08c379a000000000000000000000000000000000000000000000000000000000815260040161099f90611ec1565b60405180910390fd5b600560009054906101000a900473ffffffffffffffffffffffffffffffffffffffff1673ffffffffffffffffffffffffffffffffffffffff163373ffffffffffffffffffffffffffffffffffffffff1614610a38576040517f08c379a0000000000000000000000000000000000000000000000000000000008152600401610a2f90611f53565b60405180910390fd5b82600181905550816002819055508060038190555060026000806101000a81548160ff02191690836003811115610a7257610a71611400565b5b0217905550505050565b600560009054906101000a900473ffffffffffffffffffffffffffffffffffffffff1673ffffffffffffffffffffffffffffffffffffffff163373ffffffffffffffffffffffffffffffffffffffff1614610b0c576040517f08c379a0000000000000000000000000000000000000000000000000000000008152600401610b0390611f53565b60405180910390fd5b610b1461100f565b610b53576040517f08c379a0000000000000000000000000000000000000000000000000000000008152600401610b4a90611ec1565b60405180910390fd5b8383600680019182610b6692919061212a565b5081600660000160006101000a81548160ff02191690836006811115610b8f57610b8e611400565b5b02179055508060066007018190555050505050565b610bac61100f565b610beb576040517f08c379a0000000000000000000000000000000000000000000000000000000008152600401610be290611ec1565b60405180910390fd5b600560009054906101000a900473ffffffffffffffffffffffffffffffffffffffff1673ffffffffffffffffffffffffffffffffffffffff163373ffffffffffffffffffffffffffffffffffffffff1614610c7b576040517f08c379a0000000000000000000000000000000000000000000000000000000008152600401610c7290611f53565b60405180910390fd5b8160066003019081610c8d91906121fa565b508060066004019081610ca091906121fa565b505050565b60006001905090565b60006006811115610cc257610cc1611400565b5b600660000160009054906101000a900460ff166006811115610ce757610ce6611400565b5b1480610d29575060036006811115610d0257610d01611400565b5b600660000160009054906101000a900460ff166006811115610d2757610d26611400565b5b145b610d68576040517f08c379a0000000000000000000000000000000000000000000000000000000008152600401610d5f9061233e565b60405180910390fd5b60026003811115610d7c57610d7b611400565b5b60008054906101000a900460ff166003811115610d9c57610d9b611400565b5b14610ddc576040517f08c379a0000000000000000000000000000000000000000000000000000000008152600401610dd3906123aa565b60405180910390fd5b6000600354600a610ded919061252c565b670de0b6b3a7640000600254610e039190612577565b610e0d9190612600565b670de0b6b3a7640000600154610e239190612577565b610e2d9190612631565b9050600080600560009054906101000a900473ffffffffffffffffffffffffffffffffffffffff1673ffffffffffffffffffffffffffffffffffffffff1683604051610e7890612696565b60006040518083038185875af1925050503d8060008114610eb5576040519150601f19603f3d011682016040523d82523d6000602084013e610eba565b606091505b509150915081610eff576040517f08c379a0000000000000000000000000000000000000000000000000000000008152600401610ef6906126f7565b60405180910390fd5b60016000806101000a81548160ff02191690836003811115610f2457610f23611400565b5b021790555033600560006101000a81548173ffffffffffffffffffffffffffffffffffffffff021916908373ffffffffffffffffffffffffffffffffffffffff160217905550505050565b600080600090505b8251811015610fc657610fa484848381518110610f9757610f96612717565b5b602002602001015161123d565b15610fb3576001915050610fcc565b8080610fbe90612746565b915050610f77565b50600090505b92915050565b60025481565b60008054906101000a900460ff1681565b600560009054906101000a900473ffffffffffffffffffffffffffffffffffffffff1681565b60006110b76006600301805461102490611d8c565b80601f016020809104026020016040519081016040528092919081815260200182805461105090611d8c565b801561109d5780601f106110725761010080835404028352916020019161109d565b820191906000526020600020905b81548152906001019060200180831161108057829003601f168201915b50505050506040518060200160405280600081525061123d565b6110c457600190506110c9565b600090505b90565b6110d461100f565b611113576040517f08c379a000000000000000000000000000000000000000000000000000000000815260040161110a90611ec1565b60405180910390fd5b600560009054906101000a900473ffffffffffffffffffffffffffffffffffffffff1673ffffffffffffffffffffffffffffffffffffffff163373ffffffffffffffffffffffffffffffffffffffff16146111a3576040517f08c379a000000000000000000000000000000000000000000000000000000000815260040161119a90611f53565b60405180910390fd5b80600660000160006101000a81548160ff021916908360068111156111cb576111ca611400565b5b021790555050565b6000806000600460009054906101000a900473ffffffffffffffffffffffffffffffffffffffff16600560009054906101000a900473ffffffffffffffffffffffffffffffffffffffff1660008054906101000a900460ff16925092509250909192565b60015481565b6000815183511461125157600090506112a3565b8160405160200161126291906127ca565b604051602081830303815290604052805190602001208360405160200161128991906127ca565b604051602081830303815290604052805190602001201490505b92915050565b60035481565b600e8060000160009054906101000a900460ff16908060000160019054906101000a900460ff16908060000160029054906101000a900460ff16908060000160039054906101000a900460ff16908060000160049054906101000a900460ff16905085565b61131c61100f565b61135b576040517f08c379a000000000000000000000000000000000000000000000000000000000815260040161135290611ec1565b60405180910390fd5b600560009054906101000a900473ffffffffffffffffffffffffffffffffffffffff1673ffffffffffffffffffffffffffffffffffffffff163373ffffffffffffffffffffffffffffffffffffffff16146113eb576040517f08c379a00000000000000000000000000000000000000000000000000000000081526004016113e290611f53565b60405180910390fd5b806006800190816113fc91906121fa565b5050565b7f4e487b7100000000000000000000000000000000000000000000000000000000600052602160045260246000fd5b600781106114405761143f611400565b5b50565b60008190506114518261142f565b919050565b600061146182611443565b9050919050565b61147181611456565b82525050565b600081519050919050565b600082825260208201905092915050565b60005b838110156114b1578082015181840152602081019050611496565b60008484015250505050565b6000601f19601f8301169050919050565b60006114d982611477565b6114e38185611482565b93506114f3818560208601611493565b6114fc816114bd565b840191505092915050565b6000819050919050565b61151a81611507565b82525050565b600061010082019050611536600083018b611468565b8181036020830152611548818a6114ce565b9050818103604083015261155c81896114ce565b9050818103606083015261157081886114ce565b9050818103608083015261158481876114ce565b905061159360a0830186611511565b81810360c08301526115a581856114ce565b90506115b460e0830184611511565b9998505050505050505050565b6000604051905090565b600080fd5b600080fd5b600073ffffffffffffffffffffffffffffffffffffffff82169050919050565b6000611600826115d5565b9050919050565b611610816115f5565b811461161b57600080fd5b50565b60008135905061162d81611607565b92915050565b6004811061164057600080fd5b50565b60008135905061165281611633565b92915050565b6000806040838503121561166f5761166e6115cb565b5b600061167d8582860161161e565b925050602061168e85828601611643565b9150509250929050565b60006116a3826115d5565b9050919050565b6116b381611698565b82525050565b60006020820190506116ce60008301846116aa565b92915050565b6116dd81611507565b81146116e857600080fd5b50565b6000813590506116fa816116d4565b92915050565b600060208284031215611716576117156115cb565b5b6000611724848285016116eb565b91505092915050565b600080600060608486031215611746576117456115cb565b5b6000611754868287016116eb565b9350506020611765868287016116eb565b9250506040611776868287016116eb565b9150509250925092565b600080fd5b600080fd5b600080fd5b60008083601f8401126117a5576117a4611780565b5b8235905067ffffffffffffffff8111156117c2576117c1611785565b5b6020830191508360018202830111156117de576117dd61178a565b5b9250929050565b600781106117f257600080fd5b50565b600081359050611804816117e5565b92915050565b60008060008060608587031215611824576118236115cb565b5b600085013567ffffffffffffffff811115611842576118416115d0565b5b61184e8782880161178f565b94509450506020611861878288016117f5565b9250506040611872878288016116eb565b91505092959194509250565b600080fd5b7f4e487b7100000000000000000000000000000000000000000000000000000000600052604160045260246000fd5b6118bb826114bd565b810181811067ffffffffffffffff821117156118da576118d9611883565b5b80604052505050565b60006118ed6115c1565b90506118f982826118b2565b919050565b600067ffffffffffffffff82111561191957611918611883565b5b611922826114bd565b9050602081019050919050565b82818337600083830152505050565b600061195161194c846118fe565b6118e3565b90508281526020810184848401111561196d5761196c61187e565b5b61197884828561192f565b509392505050565b600082601f83011261199557611994611780565b5b81356119a584826020860161193e565b91505092915050565b600080604083850312156119c5576119c46115cb565b5b600083013567ffffffffffffffff8111156119e3576119e26115d0565b5b6119ef85828601611980565b925050602083013567ffffffffffffffff811115611a1057611a0f6115d0565b5b611a1c85828601611980565b9150509250929050565b60008115159050919050565b611a3b81611a26565b82525050565b6000602082019050611a566000830184611a32565b92915050565b600067ffffffffffffffff821115611a7757611a76611883565b5b602082029050602081019050919050565b6000611a9b611a9684611a5c565b6118e3565b90508083825260208201905060208402830185811115611abe57611abd61178a565b5b835b81811015611b0557803567ffffffffffffffff811115611ae357611ae2611780565b5b808601611af08982611980565b85526020850194505050602081019050611ac0565b5050509392505050565b600082601f830112611b2457611b23611780565b5b8135611b34848260208601611a88565b91505092915050565b60008060408385031215611b5457611b536115cb565b5b600083013567ffffffffffffffff811115611b7257611b716115d0565b5b611b7e85828601611980565b925050602083013567ffffffffffffffff811115611b9f57611b9e6115d0565b5b611bab85828601611b0f565b9150509250929050565b6000602082019050611bca6000830184611511565b92915050565b60048110611be157611be0611400565b5b50565b6000819050611bf282611bd0565b919050565b6000611c0282611be4565b9050919050565b611c1281611bf7565b82525050565b6000602082019050611c2d6000830184611c09565b92915050565b611c3c816115f5565b82525050565b6000602082019050611c576000830184611c33565b92915050565b600060208284031215611c7357611c726115cb565b5b6000611c81848285016117f5565b91505092915050565b6000606082019050611c9f60008301866116aa565b611cac60208301856116aa565b611cb96040830184611c09565b949350505050565b600060a082019050611cd66000830188611a32565b611ce36020830187611a32565b611cf06040830186611a32565b611cfd6060830185611a32565b611d0a6080830184611a32565b9695505050505050565b600060208284031215611d2a57611d296115cb565b5b600082013567ffffffffffffffff811115611d4857611d476115d0565b5b611d5484828501611980565b91505092915050565b7f4e487b7100000000000000000000000000000000000000000000000000000000600052602260045260246000fd5b60006002820490506001821680611da457607f821691505b602082108103611db757611db6611d5d565b5b50919050565b7f4f6e6c792061207265676973746572656420726567697374726172206861732060008201527f61636365737320746f207468697320616374696f6e2e00000000000000000000602082015250565b6000611e19603683611482565b9150611e2482611dbd565b604082019050919050565b60006020820190508181036000830152611e4881611e0c565b9050919050565b7f5468652070726f7065727479206973206e6f74206c6567616c6c7920616c726960008201527f6768742e00000000000000000000000000000000000000000000000000000000602082015250565b6000611eab602483611482565b9150611eb682611e4f565b604082019050919050565b60006020820190508181036000830152611eda81611e9e565b9050919050565b7f4f6e6c7920746865206f776e6572206f662074686520436f6e7472616374206860008201527f61732061636365737320746f2074686973210000000000000000000000000000602082015250565b6000611f3d603283611482565b9150611f4882611ee1565b604082019050919050565b60006020820190508181036000830152611f6c81611f30565b9050919050565b600082905092915050565b60008190508160005260206000209050919050565b60006020601f8301049050919050565b600082821b905092915050565b600060088302611fe07fffffffffffffffffffffffffffffffffffffffffffffffffffffffffffffffff82611fa3565b611fea8683611fa3565b95508019841693508086168417925050509392505050565b6000819050919050565b600061202761202261201d84611507565b612002565b611507565b9050919050565b6000819050919050565b6120418361200c565b61205561204d8261202e565b848454611fb0565b825550505050565b600090565b61206a61205d565b612075818484612038565b505050565b5b818110156120995761208e600082612062565b60018101905061207b565b5050565b601f8211156120de576120af81611f7e565b6120b884611f93565b810160208510156120c7578190505b6120db6120d385611f93565b83018261207a565b50505b505050565b600082821c905092915050565b6000612101600019846008026120e3565b1980831691505092915050565b600061211a83836120f0565b9150826002028217905092915050565b6121348383611f73565b67ffffffffffffffff81111561214d5761214c611883565b5b6121578254611d8c565b61216282828561209d565b6000601f831160018114612191576000841561217f578287013590505b612189858261210e565b8655506121f1565b601f19841661219f86611f7e565b60005b828110156121c7578489013582556001820191506020850194506020810190506121a2565b868310156121e457848901356121e0601f8916826120f0565b8355505b6001600288020188555050505b50505050505050565b61220382611477565b67ffffffffffffffff81111561221c5761221b611883565b5b6122268254611d8c565b61223182828561209d565b600060209050601f8311600181146122645760008415612252578287015190505b61225c858261210e565b8655506122c4565b601f19841661227286611f7e565b60005b8281101561229a57848901518255600182019150602085019450602081019050612275565b868310156122b757848901516122b3601f8916826120f0565b8355505b6001600288020188555050505b505050505050565b7f546869732070726f706572747927732074656e757265207479706520646f657360008201527f206e6f7420737570706f7274206265696e6720736f6c64000000000000000000602082015250565b6000612328603783611482565b9150612333826122cc565b604082019050919050565b600060208201905081810360008301526123578161231b565b9050919050565b7f546869732070726f7065727479206973206e6f7420666f722073616c652e0000600082015250565b6000612394601e83611482565b915061239f8261235e565b602082019050919050565b600060208201905081810360008301526123c381612387565b9050919050565b7f4e487b7100000000000000000000000000000000000000000000000000000000600052601160045260246000fd5b60008160011c9050919050565b6000808291508390505b60018511156124505780860481111561242c5761242b6123ca565b5b600185161561243b5780820291505b8081029050612449856123f9565b9450612410565b94509492505050565b6000826124695760019050612525565b816124775760009050612525565b816001811461248d5760028114612497576124c6565b6001915050612525565b60ff8411156124a9576124a86123ca565b5b8360020a9150848211156124c0576124bf6123ca565b5b50612525565b5060208310610133831016604e8410600b84101617156124fb5782820a9050838111156124f6576124f56123ca565b5b612525565b6125088484846001612406565b9250905081840481111561251f5761251e6123ca565b5b81810290505b9392505050565b600061253782611507565b915061254283611507565b925061256f7fffffffffffffffffffffffffffffffffffffffffffffffffffffffffffffffff8484612459565b905092915050565b600061258282611507565b915061258d83611507565b9250817fffffffffffffffffffffffffffffffffffffffffffffffffffffffffffffffff04831182151516156125c6576125c56123ca565b5b828202905092915050565b7f4e487b7100000000000000000000000000000000000000000000000000000000600052601260045260246000fd5b600061260b82611507565b915061261683611507565b925082612626576126256125d1565b5b828204905092915050565b600061263c82611507565b915061264783611507565b925082820190508082111561265f5761265e6123ca565b5b92915050565b600081905092915050565b50565b6000612680600083612665565b915061268b82612670565b600082019050919050565b60006126a182612673565b9150819050919050565b7f4661696c656420746f2073656e642045746865722e0000000000000000000000600082015250565b60006126e1601583611482565b91506126ec826126ab565b602082019050919050565b60006020820190508181036000830152612710816126d4565b9050919050565b7f4e487b7100000000000000000000000000000000000000000000000000000000600052603260045260246000fd5b600061275182611507565b91507fffffffffffffffffffffffffffffffffffffffffffffffffffffffffffffffff8203612783576127826123ca565b5b600182019050919050565b600081905092915050565b60006127a482611477565b6127ae818561278e565b93506127be818560208601611493565b80840191505092915050565b60006127d68284612799565b91508190509291505056fea264697066735822122050aaedbc9a9f9b696280b4214b70276a8cad751f480e3b5eb881aea4b916e80664736f6c63430008100033",
  "immutableReferences": {},
  "source": "//SPDX-License-Identifier: MIT\r\npragma solidity ^0.8.15;\r\n\r\nenum PropertyTitleContractState { INITIALIZED, OWNED, FOR_SALE, NO_LONGER_RELEVANT }\r\n\r\nenum HousingTenure {\r\n    OWNER_OCCUPANCY,\r\n    TENANCY,\r\n    COOPERATIVE,\r\n    CONDOMIUM,\r\n    PUBLIC_HOUSING,\r\n    SQUATTING,\r\n    LAND_TRUST\r\n}\r\n\r\nstruct PropertyDetails {\r\n    HousingTenure tenureType;\r\n    string country;\r\n    string city;\r\n    string street;\r\n    string streetNumber;\r\n    uint256 streetApartment;\r\n    string propertyDescription;\r\n    uint256 squareMetres;\r\n}\r\n\r\nstruct RequiredPropertySellingDocuments {\r\n    bool proofOfIdentity;\r\n    bool propertyTitleDeeds;\r\n    bool energyPerformanceCertificate;\r\n    bool extensionsAndAlterationsDocumentation;\r\n    bool utilityBillsPaid;\r\n}\r\n\r\n\r\ncontract PropertyTitle {\r\n    PropertyTitleContractState public contractState;\r\n    uint256 public sellingPriceIntegralPart;\r\n    uint256 public sellingPriceFractionalPart;\r\n    uint256 public sellingPriceFractionalPartLength;\r\n    address public creator;\r\n    address payable public owner;\r\n    PropertyDetails public propertyDetails;\r\n    RequiredPropertySellingDocuments public requiredDocuments;\r\n\r\n    constructor(\r\n        address _creator,\r\n        address payable _owner,\r\n        string memory _country,\r\n        string memory _city,\r\n        string memory _street,\r\n        string memory _streeNumber\r\n    )\r\n    {\r\n        creator = _creator;\r\n        owner = _owner;\r\n        contractState = PropertyTitleContractState.FOR_SALE;\r\n        propertyDetails.country = _country;\r\n        propertyDetails.city = _city;\r\n        propertyDetails.street = _street;\r\n        propertyDetails.streetNumber = _streeNumber;\r\n\r\n        sellingPriceIntegralPart = 7;\r\n        sellingPriceFractionalPart = 534;\r\n        sellingPriceFractionalPartLength = 3;\r\n    }\r\n\r\n    function modifyContractState(\r\n        address payable _owner, \r\n        PropertyTitleContractState _contractState\r\n    )\r\n        external \r\n        onlyIfUserIsRegistrar\r\n    {\r\n        owner = _owner;\r\n        contractState = _contractState;\r\n    }\r\n\r\n    function insertPropertyDetails(\r\n        string calldata _propertyDescription,\r\n        HousingTenure _tenureType,\r\n        uint256 _squareMetres\r\n    )\r\n        external\r\n        onlyOwner\r\n        onlyIfLegallyAllowed\r\n    {\r\n        propertyDetails.propertyDescription = _propertyDescription;\r\n        propertyDetails.tenureType = _tenureType;\r\n        propertyDetails.squareMetres = _squareMetres;\r\n    }\r\n\r\n    function modifyPropertyAdress(string memory _street, string memory _streeNumber) external onlyIfLegallyAllowed onlyOwner {\r\n        propertyDetails.street = _street;\r\n        propertyDetails.streetNumber = _streeNumber;\r\n    }\r\n\r\n    function modifyPropertyDescription(string memory _description) external onlyIfLegallyAllowed onlyOwner {\r\n        propertyDetails.propertyDescription = _description;\r\n    }\r\n\r\n    function modifyPropertyTenureType(HousingTenure _tenureType) external onlyIfLegallyAllowed onlyOwner {\r\n        propertyDetails.tenureType = _tenureType;\r\n    }\r\n\r\n    function modifyPropertySquareMetres(uint256 _squareMetres) external onlyIfLegallyAllowed onlyOwner {\r\n        propertyDetails.squareMetres = _squareMetres;\r\n    }\r\n\r\n    function addPropertyAsForSale(\r\n        uint256 _sellingPriceIntegralPart, \r\n        uint256 _sellingPriceFractionalPart, \r\n        uint256 _sellingPriceFractionalPartLength\r\n    ) \r\n        external \r\n        onlyIfLegallyAllowed \r\n        onlyOwner \r\n    {\r\n        sellingPriceIntegralPart = _sellingPriceIntegralPart;\r\n        sellingPriceFractionalPart = _sellingPriceFractionalPart;\r\n        sellingPriceFractionalPartLength = _sellingPriceFractionalPartLength;\r\n        contractState = PropertyTitleContractState.FOR_SALE;\r\n    }\r\n\r\n    function buyProperty() external payable onlyIfPropertyForSale {\r\n        uint256 sellingPriceWeiValue = (sellingPriceIntegralPart * 10**18) + (sellingPriceFractionalPart * 10**18 / 10**sellingPriceFractionalPartLength);\r\n        (bool sent, bytes memory data) = owner.call{value: sellingPriceWeiValue }(\"\");\r\n        require(sent, \"Failed to send Ether.\");\r\n        contractState = PropertyTitleContractState.OWNED;\r\n        owner = payable(msg.sender);\r\n    }\r\n\r\n    function getContractDetails() public view returns (address, address, PropertyTitleContractState) {\r\n        return (creator, owner, contractState);\r\n    }\r\n\r\n    function validatePropertyDebts() public view returns (bool) {\r\n        /// TODO\r\n        if (!checkStringsEquality(propertyDetails.street, '')) {\r\n            return true;\r\n        }\r\n        return false;\r\n        /// TODO\r\n    }\r\n\r\n    function checkIfUserIsRegistrar() public view returns (bool) {\r\n        //address currentUser = msg.sender;\r\n        // registrarsArray = CentralContract.getRegistrarsArray();\r\n        // for (uint256 i = 0; i < registrarsArray.length; i++) {\r\n        //     if (currentUser == registrarsArray[i]) {\r\n        //         return true;\r\n        //     }\r\n        // }\r\n        return true;\r\n    }\r\n\r\n    function checkStringsEquality(string memory firstString, string memory secondString) public pure returns (bool) {\r\n        if (bytes(firstString).length != bytes(secondString).length) {\r\n            return false;\r\n        } else {\r\n            return keccak256(abi.encodePacked(firstString)) == keccak256(abi.encodePacked(secondString));\r\n        }\r\n    }\r\n\r\n    function checkIfStringIsFoundInStringsArray(\r\n        string memory stringToSearchFor,\r\n        string[] memory stringsArray\r\n    )\r\n        public\r\n        pure\r\n        returns (bool)\r\n    {\r\n        for (uint256 i = 0; i < stringsArray.length; i++) {\r\n            if (checkStringsEquality(stringToSearchFor, stringsArray[i])) {\r\n                return true;\r\n            }\r\n        }\r\n\r\n        return false;\r\n    }\r\n\r\n\r\n    modifier onlyCreator {\r\n        require(msg.sender == creator, \"Only the creator of the Contract has access to this!\");\r\n        _;\r\n    }\r\n\r\n    modifier onlyOwner {\r\n        require(msg.sender == owner, \"Only the owner of the Contract has access to this!\");\r\n        _;\r\n    }\r\n\r\n    modifier onlyIfLegallyAllowed {\r\n        require(validatePropertyDebts(), \"The property is not legally alright.\");\r\n        _;\r\n    }\r\n\r\n    modifier onlyIfUserIsRegistrar {\r\n        require(checkIfUserIsRegistrar(), \"Only a registered registrar has access to this action.\");\r\n        _;\r\n    }\r\n\r\n    modifier onlyIfPropertyForSale {\r\n        require(propertyDetails.tenureType == HousingTenure.OWNER_OCCUPANCY || propertyDetails.tenureType == HousingTenure.CONDOMIUM,\r\n            \"This property's tenure type does not support being sold\");\r\n        require(contractState == PropertyTitleContractState.FOR_SALE, \"This property is not for sale.\");\r\n        _;\r\n    }\r\n}",
  "sourcePath": "D:\\Propty\\propty\\contracts\\contracts\\PropertyTitle.sol",
  "compiler": {
    "name": "solc",
    "version": "0.8.16+commit.07a7930e.Emscripten.clang"
  },
  "schemaVersion": "3.4.9",
  "updatedAt": "2022-09-18T12:58:46.178Z",
  "networkType": "ethereum",
  "devdoc": {
    "kind": "dev",
    "methods": {},
    "version": 1
  },
  "userdoc": {
    "kind": "user",
    "methods": {},
    "version": 1
  }
}