{
  "contractName": "PropertyTitle",
  "abi": [
    {
      "inputs": [
        {
          "internalType": "address",
          "name": "_creator",
          "type": "address"
        },
        {
          "internalType": "address",
          "name": "_owner",
          "type": "address"
        },
        {
          "internalType": "string",
          "name": "_country",
          "type": "string"
        },
        {
          "internalType": "string",
          "name": "_city",
          "type": "string"
        },
        {
          "internalType": "string",
          "name": "_street",
          "type": "string"
        },
        {
          "internalType": "string",
          "name": "_streeNumber",
          "type": "string"
        },
        {
          "internalType": "uint256",
          "name": "_apartmentNumber",
          "type": "uint256"
        },
        {
          "internalType": "uint256",
          "name": "_squareMeters",
          "type": "uint256"
        }
      ],
      "stateMutability": "nonpayable",
      "type": "constructor"
    },
    {
      "inputs": [],
      "name": "contractState",
      "outputs": [
        {
          "internalType": "enum PropertyTitleContractState",
          "name": "",
          "type": "uint8"
        }
      ],
      "stateMutability": "view",
      "type": "function",
      "constant": true
    },
    {
      "inputs": [],
      "name": "creator",
      "outputs": [
        {
          "internalType": "address",
          "name": "",
          "type": "address"
        }
      ],
      "stateMutability": "view",
      "type": "function",
      "constant": true
    },
    {
      "inputs": [],
      "name": "owner",
      "outputs": [
        {
          "internalType": "address",
          "name": "",
          "type": "address"
        }
      ],
      "stateMutability": "view",
      "type": "function",
      "constant": true
    },
    {
      "inputs": [],
      "name": "propertyDetails",
      "outputs": [
        {
          "internalType": "enum HousingTenure",
          "name": "tenureType",
          "type": "uint8"
        },
        {
          "internalType": "string",
          "name": "country",
          "type": "string"
        },
        {
          "internalType": "string",
          "name": "city",
          "type": "string"
        },
        {
          "internalType": "string",
          "name": "street",
          "type": "string"
        },
        {
          "internalType": "string",
          "name": "streetNumber",
          "type": "string"
        },
        {
          "internalType": "uint256",
          "name": "apartmentNumber",
          "type": "uint256"
        },
        {
          "internalType": "uint256",
          "name": "squareMeters",
          "type": "uint256"
        }
      ],
      "stateMutability": "view",
      "type": "function",
      "constant": true
    },
    {
      "inputs": [],
      "name": "requiredDocuments",
      "outputs": [
        {
          "internalType": "bool",
          "name": "proofOfIdentity",
          "type": "bool"
        },
        {
          "internalType": "bool",
          "name": "propertyTitleDeeds",
          "type": "bool"
        },
        {
          "internalType": "bool",
          "name": "energyPerformanceCertificate",
          "type": "bool"
        },
        {
          "internalType": "bool",
          "name": "extensionsAndAlterationsDocumentation",
          "type": "bool"
        },
        {
          "internalType": "bool",
          "name": "utilityBillsPaid",
          "type": "bool"
        }
      ],
      "stateMutability": "view",
      "type": "function",
      "constant": true
    },
    {
      "inputs": [],
      "name": "sellingPriceFractionalPart",
      "outputs": [
        {
          "internalType": "uint256",
          "name": "",
          "type": "uint256"
        }
      ],
      "stateMutability": "view",
      "type": "function",
      "constant": true
    },
    {
      "inputs": [],
      "name": "sellingPriceFractionalPartLength",
      "outputs": [
        {
          "internalType": "uint256",
          "name": "",
          "type": "uint256"
        }
      ],
      "stateMutability": "view",
      "type": "function",
      "constant": true
    },
    {
      "inputs": [],
      "name": "sellingPriceIntegralPart",
      "outputs": [
        {
          "internalType": "uint256",
          "name": "",
          "type": "uint256"
        }
      ],
      "stateMutability": "view",
      "type": "function",
      "constant": true
    },
    {
      "stateMutability": "payable",
      "type": "receive",
      "payable": true
    },
    {
      "inputs": [
        {
          "internalType": "address payable",
          "name": "_owner",
          "type": "address"
        },
        {
          "internalType": "enum PropertyTitleContractState",
          "name": "_contractState",
          "type": "uint8"
        }
      ],
      "name": "modifyContractStateAndOwner",
      "outputs": [],
      "stateMutability": "nonpayable",
      "type": "function"
    },
    {
      "inputs": [
        {
          "internalType": "enum HousingTenure",
          "name": "_tenureType",
          "type": "uint8"
        },
        {
          "internalType": "uint256",
          "name": "_squareMeters",
          "type": "uint256"
        }
      ],
      "name": "insertPropertyDetails",
      "outputs": [],
      "stateMutability": "nonpayable",
      "type": "function"
    },
    {
      "inputs": [
        {
          "internalType": "enum PropertyTitleContractState",
          "name": "_contractState",
          "type": "uint8"
        }
      ],
      "name": "modifyContractState",
      "outputs": [],
      "stateMutability": "nonpayable",
      "type": "function"
    },
    {
      "inputs": [
        {
          "internalType": "string",
          "name": "_street",
          "type": "string"
        },
        {
          "internalType": "string",
          "name": "_streeNumber",
          "type": "string"
        }
      ],
      "name": "modifyPropertyAdress",
      "outputs": [],
      "stateMutability": "nonpayable",
      "type": "function"
    },
    {
      "inputs": [
        {
          "internalType": "uint256",
          "name": "_sellingPriceIntegralPart",
          "type": "uint256"
        },
        {
          "internalType": "uint256",
          "name": "_sellingPriceFractionalPart",
          "type": "uint256"
        },
        {
          "internalType": "uint256",
          "name": "_sellingPriceFractionalPartLength",
          "type": "uint256"
        },
        {
          "internalType": "enum HousingTenure",
          "name": "_tenureType",
          "type": "uint8"
        },
        {
          "internalType": "uint256",
          "name": "_squareMeters",
          "type": "uint256"
        }
      ],
      "name": "modifyPropertyPriceAndTenureAndMeters",
      "outputs": [],
      "stateMutability": "nonpayable",
      "type": "function"
    },
    {
      "inputs": [
        {
          "internalType": "enum HousingTenure",
          "name": "_tenureType",
          "type": "uint8"
        }
      ],
      "name": "modifyPropertyTenureType",
      "outputs": [],
      "stateMutability": "nonpayable",
      "type": "function"
    },
    {
      "inputs": [
        {
          "internalType": "uint256",
          "name": "_squareMeters",
          "type": "uint256"
        }
      ],
      "name": "modifyPropertySquareMeters",
      "outputs": [],
      "stateMutability": "nonpayable",
      "type": "function"
    },
    {
      "inputs": [
        {
          "internalType": "uint256",
          "name": "_sellingPriceIntegralPart",
          "type": "uint256"
        },
        {
          "internalType": "uint256",
          "name": "_sellingPriceFractionalPart",
          "type": "uint256"
        },
        {
          "internalType": "uint256",
          "name": "_sellingPriceFractionalPartLength",
          "type": "uint256"
        }
      ],
      "name": "setPropertySellingPrice",
      "outputs": [],
      "stateMutability": "nonpayable",
      "type": "function"
    },
    {
      "inputs": [],
      "name": "getPropertySellingPrice",
      "outputs": [
        {
          "internalType": "uint256",
          "name": "",
          "type": "uint256"
        }
      ],
      "stateMutability": "view",
      "type": "function",
      "constant": true
    },
    {
      "inputs": [],
      "name": "getContractDetails",
      "outputs": [
        {
          "internalType": "address",
          "name": "",
          "type": "address"
        },
        {
          "internalType": "address",
          "name": "",
          "type": "address"
        },
        {
          "internalType": "enum PropertyTitleContractState",
          "name": "",
          "type": "uint8"
        }
      ],
      "stateMutability": "view",
      "type": "function",
      "constant": true
    },
    {
      "inputs": [],
      "name": "validatePropertyDebts",
      "outputs": [
        {
          "internalType": "bool",
          "name": "",
          "type": "bool"
        }
      ],
      "stateMutability": "view",
      "type": "function",
      "constant": true
    },
    {
      "inputs": [],
      "name": "checkIfUserIsRegistrar",
      "outputs": [
        {
          "internalType": "bool",
          "name": "",
          "type": "bool"
        }
      ],
      "stateMutability": "view",
      "type": "function",
      "constant": true
    },
    {
      "inputs": [
        {
          "internalType": "string",
          "name": "firstString",
          "type": "string"
        },
        {
          "internalType": "string",
          "name": "secondString",
          "type": "string"
        }
      ],
      "name": "checkStringsEquality",
      "outputs": [
        {
          "internalType": "bool",
          "name": "",
          "type": "bool"
        }
      ],
      "stateMutability": "pure",
      "type": "function",
      "constant": true
    },
    {
      "inputs": [
        {
          "internalType": "string",
          "name": "stringToSearchFor",
          "type": "string"
        },
        {
          "internalType": "string[]",
          "name": "stringsArray",
          "type": "string[]"
        }
      ],
      "name": "checkIfStringIsFoundInStringsArray",
      "outputs": [
        {
          "internalType": "bool",
          "name": "",
          "type": "bool"
        }
      ],
      "stateMutability": "pure",
      "type": "function",
      "constant": true
    }
  ],
  "bytecode": "0x60806040523480156200001157600080fd5b50604051620033863803806200338683398181016040528101906200003791906200038e565b87600460006101000a81548173ffffffffffffffffffffffffffffffffffffffff021916908373ffffffffffffffffffffffffffffffffffffffff16021790555086600560006101000a81548173ffffffffffffffffffffffffffffffffffffffff021916908373ffffffffffffffffffffffffffffffffffffffff16021790555060026000806101000a81548160ff02191690836003811115620000e157620000e0620004d3565b5b02179055508560066001019081620000fa919062000743565b5084600660020190816200010f919062000743565b50836006600301908162000124919062000743565b50826006600401908162000139919062000743565b508160066005018190555080600680018190555050505050505050506200082a565b6000604051905090565b600080fd5b600080fd5b600073ffffffffffffffffffffffffffffffffffffffff82169050919050565b60006200019c826200016f565b9050919050565b620001ae816200018f565b8114620001ba57600080fd5b50565b600081519050620001ce81620001a3565b92915050565b600080fd5b600080fd5b6000601f19601f8301169050919050565b7f4e487b7100000000000000000000000000000000000000000000000000000000600052604160045260246000fd5b6200022982620001de565b810181811067ffffffffffffffff821117156200024b576200024a620001ef565b5b80604052505050565b6000620002606200015b565b90506200026e82826200021e565b919050565b600067ffffffffffffffff821115620002915762000290620001ef565b5b6200029c82620001de565b9050602081019050919050565b60005b83811015620002c9578082015181840152602081019050620002ac565b60008484015250505050565b6000620002ec620002e68462000273565b62000254565b9050828152602081018484840111156200030b576200030a620001d9565b5b62000318848285620002a9565b509392505050565b600082601f830112620003385762000337620001d4565b5b81516200034a848260208601620002d5565b91505092915050565b6000819050919050565b620003688162000353565b81146200037457600080fd5b50565b60008151905062000388816200035d565b92915050565b600080600080600080600080610100898b031215620003b257620003b162000165565b5b6000620003c28b828c01620001bd565b9850506020620003d58b828c01620001bd565b975050604089015167ffffffffffffffff811115620003f957620003f86200016a565b5b620004078b828c0162000320565b965050606089015167ffffffffffffffff8111156200042b576200042a6200016a565b5b620004398b828c0162000320565b955050608089015167ffffffffffffffff8111156200045d576200045c6200016a565b5b6200046b8b828c0162000320565b94505060a089015167ffffffffffffffff8111156200048f576200048e6200016a565b5b6200049d8b828c0162000320565b93505060c0620004b08b828c0162000377565b92505060e0620004c38b828c0162000377565b9150509295985092959890939650565b7f4e487b7100000000000000000000000000000000000000000000000000000000600052602160045260246000fd5b600081519050919050565b7f4e487b7100000000000000000000000000000000000000000000000000000000600052602260045260246000fd5b600060028204905060018216806200055557607f821691505b6020821081036200056b576200056a6200050d565b5b50919050565b60008190508160005260206000209050919050565b60006020601f8301049050919050565b600082821b905092915050565b600060088302620005d57fffffffffffffffffffffffffffffffffffffffffffffffffffffffffffffffff8262000596565b620005e1868362000596565b95508019841693508086168417925050509392505050565b6000819050919050565b6000620006246200061e620006188462000353565b620005f9565b62000353565b9050919050565b6000819050919050565b620006408362000603565b620006586200064f826200062b565b848454620005a3565b825550505050565b600090565b6200066f62000660565b6200067c81848462000635565b505050565b5b81811015620006a4576200069860008262000665565b60018101905062000682565b5050565b601f821115620006f357620006bd8162000571565b620006c88462000586565b81016020851015620006d8578190505b620006f0620006e78562000586565b83018262000681565b50505b505050565b600082821c905092915050565b60006200071860001984600802620006f8565b1980831691505092915050565b600062000733838362000705565b9150826002028217905092915050565b6200074e8262000502565b67ffffffffffffffff8111156200076a5762000769620001ef565b5b6200077682546200053c565b62000783828285620006a8565b600060209050601f831160018114620007bb5760008415620007a6578287015190505b620007b2858262000725565b86555062000822565b601f198416620007cb8662000571565b60005b82811015620007f557848901518255600182019150602085019450602081019050620007ce565b8683101562000815578489015162000811601f89168262000705565b8355505b6001600288020188555050505b505050505050565b612b4c806200083a6000396000f3fe6080604052600436106101385760003560e01c80638d97bee8116100ab578063ab134bed1161006f578063ab134bed1461071c578063b3cbb32c14610747578063b6366d9214610784578063bac9cad5146107ad578063daca4eef146107d8578063f5cfb0321461080757610459565b80638d97bee8146106475780638da5cb5b1461067057806394a81f011461069b57806397035a07146106c65780639dfc9117146106ef57610459565b80635293c838116100fd5780635293c83814610537578063536f5c361461057457806372b501091461059f57806378b3c71e146105c857806385209ee0146105f3578063853295171461061e57610459565b80627dc3721461045e57806302d05d3f1461048f5780633d7a4492146104ba57806341fa1766146104e3578063446a4fe91461050c57610459565b36610459576000600681111561015157610150611860565b5b600660000160009054906101000a900460ff16600681111561017657610175611860565b5b14806101b857506003600681111561019157610190611860565b5b600660000160009054906101000a900460ff1660068111156101b6576101b5611860565b5b145b6101f7576040517f08c379a00000000000000000000000000000000000000000000000000000000081526004016101ee90611912565b60405180910390fd5b6002600381111561020b5761020a611860565b5b60008054906101000a900460ff16600381111561022b5761022a611860565b5b1461026b576040517f08c379a00000000000000000000000000000000000000000000000000000000081526004016102629061197e565b60405180910390fd5b60038081111561027e5761027d611860565b5b60008054906101000a900460ff16600381111561029e5761029d611860565b5b036102de576040517f08c379a00000000000000000000000000000000000000000000000000000000081526004016102d590611a10565b60405180910390fd5b600060035460126102ef9190611a69565b600a6102fb9190611bd0565b6002546103089190611c1b565b670de0b6b3a764000060015461031e9190611c1b565b6103289190611c75565b9050803373ffffffffffffffffffffffffffffffffffffffff16311015610384576040517f08c379a000000000000000000000000000000000000000000000000000000000815260040161037b90611cf5565b60405180910390fd5b600560009054906101000a900473ffffffffffffffffffffffffffffffffffffffff1673ffffffffffffffffffffffffffffffffffffffff166108fc349081150290604051600060405180830381858888f193505050501580156103ec573d6000803e3d6000fd5b5060016000806101000a81548160ff0219169083600381111561041257610411611860565b5b021790555033600560006101000a81548173ffffffffffffffffffffffffffffffffffffffff021916908373ffffffffffffffffffffffffffffffffffffffff1602179055005b600080fd5b34801561046a57600080fd5b50610473610830565b6040516104869796959493929190611deb565b60405180910390f35b34801561049b57600080fd5b506104a4610a8d565b6040516104b19190611eb7565b60405180910390f35b3480156104c657600080fd5b506104e160048036038101906104dc919061201b565b610ab3565b005b3480156104ef57600080fd5b5061050a600480360381019061050591906120e4565b610c27565b005b34801561051857600080fd5b50610521610dc3565b60405161052e919061217a565b60405180910390f35b34801561054357600080fd5b5061055e6004803603810190610559919061227b565b610dcc565b60405161056b919061217a565b60405180910390f35b34801561058057600080fd5b50610589610e2f565b60405161059691906122f3565b60405180910390f35b3480156105ab57600080fd5b506105c660048036038101906105c19190612371565b610e83565b005b3480156105d457600080fd5b506105dd610fab565b6040516105ea91906122f3565b60405180910390f35b3480156105ff57600080fd5b50610608610fb1565b60405161061591906123f9565b60405180910390f35b34801561062a57600080fd5b5061064560048036038101906106409190612414565b610fc2565b005b34801561065357600080fd5b5061066e60048036038101906106699190612467565b611126565b005b34801561067c57600080fd5b506106856112aa565b6040516106929190611eb7565b60405180910390f35b3480156106a757600080fd5b506106b06112d0565b6040516106bd919061217a565b60405180910390f35b3480156106d257600080fd5b506106ed60048036038101906106e891906124a7565b6112d9565b005b3480156106fb57600080fd5b50610704611453565b604051610713939291906124d4565b60405180910390f35b34801561072857600080fd5b506107316114b7565b60405161073e91906122f3565b60405180910390f35b34801561075357600080fd5b5061076e6004803603810190610769919061201b565b6114bd565b60405161077b919061217a565b60405180910390f35b34801561079057600080fd5b506107ab60048036038101906107a6919061250b565b611529565b005b3480156107b957600080fd5b506107c261167f565b6040516107cf91906122f3565b60405180910390f35b3480156107e457600080fd5b506107ed611685565b6040516107fe959493929190612538565b60405180910390f35b34801561081357600080fd5b5061082e6004803603810190610829919061258b565b6116ea565b005b60068060000160009054906101000a900460ff1690806001018054610854906125e7565b80601f0160208091040260200160405190810160405280929190818152602001828054610880906125e7565b80156108cd5780601f106108a2576101008083540402835291602001916108cd565b820191906000526020600020905b8154815290600101906020018083116108b057829003601f168201915b5050505050908060020180546108e2906125e7565b80601f016020809104026020016040519081016040528092919081815260200182805461090e906125e7565b801561095b5780601f106109305761010080835404028352916020019161095b565b820191906000526020600020905b81548152906001019060200180831161093e57829003601f168201915b505050505090806003018054610970906125e7565b80601f016020809104026020016040519081016040528092919081815260200182805461099c906125e7565b80156109e95780601f106109be576101008083540402835291602001916109e9565b820191906000526020600020905b8154815290600101906020018083116109cc57829003601f168201915b5050505050908060040180546109fe906125e7565b80601f0160208091040260200160405190810160405280929190818152602001828054610a2a906125e7565b8015610a775780601f10610a4c57610100808354040283529160200191610a77565b820191906000526020600020905b815481529060010190602001808311610a5a57829003601f168201915b5050505050908060050154908060060154905087565b600460009054906101000a900473ffffffffffffffffffffffffffffffffffffffff1681565b610abb6112d0565b610afa576040517f08c379a0000000000000000000000000000000000000000000000000000000008152600401610af19061268a565b60405180910390fd5b600560009054906101000a900473ffffffffffffffffffffffffffffffffffffffff1673ffffffffffffffffffffffffffffffffffffffff163373ffffffffffffffffffffffffffffffffffffffff1614610b8a576040517f08c379a0000000000000000000000000000000000000000000000000000000008152600401610b819061271c565b60405180910390fd5b600380811115610b9d57610b9c611860565b5b60008054906101000a900460ff166003811115610bbd57610bbc611860565b5b03610bfd576040517f08c379a0000000000000000000000000000000000000000000000000000000008152600401610bf490611a10565b60405180910390fd5b8160066003019081610c0f91906128e8565b508060066004019081610c2291906128e8565b505050565b610c2f6112d0565b610c6e576040517f08c379a0000000000000000000000000000000000000000000000000000000008152600401610c659061268a565b60405180910390fd5b600560009054906101000a900473ffffffffffffffffffffffffffffffffffffffff1673ffffffffffffffffffffffffffffffffffffffff163373ffffffffffffffffffffffffffffffffffffffff1614610cfe576040517f08c379a0000000000000000000000000000000000000000000000000000000008152600401610cf59061271c565b60405180910390fd5b600380811115610d1157610d10611860565b5b60008054906101000a900460ff166003811115610d3157610d30611860565b5b03610d71576040517f08c379a0000000000000000000000000000000000000000000000000000000008152600401610d6890611a10565b60405180910390fd5b84600181905550836002819055508260038190555081600660000160006101000a81548160ff02191690836006811115610dae57610dad611860565b5b02179055508060068001819055505050505050565b60006001905090565b600080600090505b8251811015610e2357610e0184848381518110610df457610df36129ba565b5b60200260200101516114bd565b15610e10576001915050610e29565b8080610e1b906129e9565b915050610dd4565b50600090505b92915050565b6000806003546012610e419190611a69565b600a610e4d9190611bd0565b600254610e5a9190611c1b565b670de0b6b3a7640000600154610e709190611c1b565b610e7a9190611c75565b90508091505090565b610e8b610dc3565b610eca576040517f08c379a0000000000000000000000000000000000000000000000000000000008152600401610ec190612aa3565b60405180910390fd5b600380811115610edd57610edc611860565b5b60008054906101000a900460ff166003811115610efd57610efc611860565b5b03610f3d576040517f08c379a0000000000000000000000000000000000000000000000000000000008152600401610f3490611a10565b60405180910390fd5b81600560006101000a81548173ffffffffffffffffffffffffffffffffffffffff021916908373ffffffffffffffffffffffffffffffffffffffff160217905550806000806101000a81548160ff02191690836003811115610fa257610fa1611860565b5b02179055505050565b60025481565b60008054906101000a900460ff1681565b610fca6112d0565b611009576040517f08c379a00000000000000000000000000000000000000000000000000000000081526004016110009061268a565b60405180910390fd5b600560009054906101000a900473ffffffffffffffffffffffffffffffffffffffff1673ffffffffffffffffffffffffffffffffffffffff163373ffffffffffffffffffffffffffffffffffffffff1614611099576040517f08c379a00000000000000000000000000000000000000000000000000000000081526004016110909061271c565b60405180910390fd5b6003808111156110ac576110ab611860565b5b60008054906101000a900460ff1660038111156110cc576110cb611860565b5b0361110c576040517f08c379a000000000000000000000000000000000000000000000000000000000815260040161110390611a10565b60405180910390fd5b826001819055508160028190555080600381905550505050565b600560009054906101000a900473ffffffffffffffffffffffffffffffffffffffff1673ffffffffffffffffffffffffffffffffffffffff163373ffffffffffffffffffffffffffffffffffffffff16146111b6576040517f08c379a00000000000000000000000000000000000000000000000000000000081526004016111ad9061271c565b60405180910390fd5b6111be6112d0565b6111fd576040517f08c379a00000000000000000000000000000000000000000000000000000000081526004016111f49061268a565b60405180910390fd5b6003808111156112105761120f611860565b5b60008054906101000a900460ff1660038111156112305761122f611860565b5b03611270576040517f08c379a000000000000000000000000000000000000000000000000000000000815260040161126790611a10565b60405180910390fd5b81600660000160006101000a81548160ff0219169083600681111561129857611297611860565b5b02179055508060068001819055505050565b600560009054906101000a900473ffffffffffffffffffffffffffffffffffffffff1681565b60006001905090565b6112e16112d0565b611320576040517f08c379a00000000000000000000000000000000000000000000000000000000081526004016113179061268a565b60405180910390fd5b600560009054906101000a900473ffffffffffffffffffffffffffffffffffffffff1673ffffffffffffffffffffffffffffffffffffffff163373ffffffffffffffffffffffffffffffffffffffff16146113b0576040517f08c379a00000000000000000000000000000000000000000000000000000000081526004016113a79061271c565b60405180910390fd5b6003808111156113c3576113c2611860565b5b60008054906101000a900460ff1660038111156113e3576113e2611860565b5b03611423576040517f08c379a000000000000000000000000000000000000000000000000000000000815260040161141a90611a10565b60405180910390fd5b80600660000160006101000a81548160ff0219169083600681111561144b5761144a611860565b5b021790555050565b6000806000600460009054906101000a900473ffffffffffffffffffffffffffffffffffffffff16600560009054906101000a900473ffffffffffffffffffffffffffffffffffffffff1660008054906101000a900460ff16925092509250909192565b60015481565b600081518351146114d15760009050611523565b816040516020016114e29190612aff565b60405160208183030381529060405280519060200120836040516020016115099190612aff565b604051602081830303815290604052805190602001201490505b92915050565b6115316112d0565b611570576040517f08c379a00000000000000000000000000000000000000000000000000000000081526004016115679061268a565b60405180910390fd5b600560009054906101000a900473ffffffffffffffffffffffffffffffffffffffff1673ffffffffffffffffffffffffffffffffffffffff163373ffffffffffffffffffffffffffffffffffffffff1614611600576040517f08c379a00000000000000000000000000000000000000000000000000000000081526004016115f79061271c565b60405180910390fd5b60038081111561161357611612611860565b5b60008054906101000a900460ff16600381111561163357611632611860565b5b03611673576040517f08c379a000000000000000000000000000000000000000000000000000000000815260040161166a90611a10565b60405180910390fd5b80600680018190555050565b60035481565b600d8060000160009054906101000a900460ff16908060000160019054906101000a900460ff16908060000160029054906101000a900460ff16908060000160039054906101000a900460ff16908060000160049054906101000a900460ff16905085565b6116f26112d0565b611731576040517f08c379a00000000000000000000000000000000000000000000000000000000081526004016117289061268a565b60405180910390fd5b600560009054906101000a900473ffffffffffffffffffffffffffffffffffffffff1673ffffffffffffffffffffffffffffffffffffffff163373ffffffffffffffffffffffffffffffffffffffff16146117c1576040517f08c379a00000000000000000000000000000000000000000000000000000000081526004016117b89061271c565b60405180910390fd5b6003808111156117d4576117d3611860565b5b60008054906101000a900460ff1660038111156117f4576117f3611860565b5b03611834576040517f08c379a000000000000000000000000000000000000000000000000000000000815260040161182b90611a10565b60405180910390fd5b806000806101000a81548160ff0219169083600381111561185857611857611860565b5b021790555050565b7f4e487b7100000000000000000000000000000000000000000000000000000000600052602160045260246000fd5b600082825260208201905092915050565b7f546869732070726f706572747927732074656e757265207479706520646f657360008201527f206e6f7420737570706f7274206265696e6720736f6c64000000000000000000602082015250565b60006118fc60378361188f565b9150611907826118a0565b604082019050919050565b6000602082019050818103600083015261192b816118ef565b9050919050565b7f546869732070726f7065727479206973206e6f7420666f722073616c652e0000600082015250565b6000611968601e8361188f565b915061197382611932565b602082019050919050565b600060208201905081810360008301526119978161195b565b9050919050565b7f546869732050726f7065727479205469746c6520436f6e74726163742069732060008201527f6e6f206c6f6e6765722072656c6176616e740000000000000000000000000000602082015250565b60006119fa60328361188f565b9150611a058261199e565b604082019050919050565b60006020820190508181036000830152611a29816119ed565b9050919050565b6000819050919050565b7f4e487b7100000000000000000000000000000000000000000000000000000000600052601160045260246000fd5b6000611a7482611a30565b9150611a7f83611a30565b9250828203905081811115611a9757611a96611a3a565b5b92915050565b60008160011c9050919050565b6000808291508390505b6001851115611af457808604811115611ad057611acf611a3a565b5b6001851615611adf5780820291505b8081029050611aed85611a9d565b9450611ab4565b94509492505050565b600082611b0d5760019050611bc9565b81611b1b5760009050611bc9565b8160018114611b315760028114611b3b57611b6a565b6001915050611bc9565b60ff841115611b4d57611b4c611a3a565b5b8360020a915084821115611b6457611b63611a3a565b5b50611bc9565b5060208310610133831016604e8410600b8410161715611b9f5782820a905083811115611b9a57611b99611a3a565b5b611bc9565b611bac8484846001611aaa565b92509050818404811115611bc357611bc2611a3a565b5b81810290505b9392505050565b6000611bdb82611a30565b9150611be683611a30565b9250611c137fffffffffffffffffffffffffffffffffffffffffffffffffffffffffffffffff8484611afd565b905092915050565b6000611c2682611a30565b9150611c3183611a30565b9250817fffffffffffffffffffffffffffffffffffffffffffffffffffffffffffffffff0483118215151615611c6a57611c69611a3a565b5b828202905092915050565b6000611c8082611a30565b9150611c8b83611a30565b9250828201905080821115611ca357611ca2611a3a565b5b92915050565b7f496e73756666696369656e742066756e64730000000000000000000000000000600082015250565b6000611cdf60128361188f565b9150611cea82611ca9565b602082019050919050565b60006020820190508181036000830152611d0e81611cd2565b9050919050565b60078110611d2657611d25611860565b5b50565b6000819050611d3782611d15565b919050565b6000611d4782611d29565b9050919050565b611d5781611d3c565b82525050565b600081519050919050565b60005b83811015611d86578082015181840152602081019050611d6b565b60008484015250505050565b6000601f19601f8301169050919050565b6000611dae82611d5d565b611db8818561188f565b9350611dc8818560208601611d68565b611dd181611d92565b840191505092915050565b611de581611a30565b82525050565b600060e082019050611e00600083018a611d4e565b8181036020830152611e128189611da3565b90508181036040830152611e268188611da3565b90508181036060830152611e3a8187611da3565b90508181036080830152611e4e8186611da3565b9050611e5d60a0830185611ddc565b611e6a60c0830184611ddc565b98975050505050505050565b600073ffffffffffffffffffffffffffffffffffffffff82169050919050565b6000611ea182611e76565b9050919050565b611eb181611e96565b82525050565b6000602082019050611ecc6000830184611ea8565b92915050565b6000604051905090565b600080fd5b600080fd5b600080fd5b600080fd5b7f4e487b7100000000000000000000000000000000000000000000000000000000600052604160045260246000fd5b611f2882611d92565b810181811067ffffffffffffffff82111715611f4757611f46611ef0565b5b80604052505050565b6000611f5a611ed2565b9050611f668282611f1f565b919050565b600067ffffffffffffffff821115611f8657611f85611ef0565b5b611f8f82611d92565b9050602081019050919050565b82818337600083830152505050565b6000611fbe611fb984611f6b565b611f50565b905082815260208101848484011115611fda57611fd9611eeb565b5b611fe5848285611f9c565b509392505050565b600082601f83011261200257612001611ee6565b5b8135612012848260208601611fab565b91505092915050565b6000806040838503121561203257612031611edc565b5b600083013567ffffffffffffffff8111156120505761204f611ee1565b5b61205c85828601611fed565b925050602083013567ffffffffffffffff81111561207d5761207c611ee1565b5b61208985828601611fed565b9150509250929050565b61209c81611a30565b81146120a757600080fd5b50565b6000813590506120b981612093565b92915050565b600781106120cc57600080fd5b50565b6000813590506120de816120bf565b92915050565b600080600080600060a08688031215612100576120ff611edc565b5b600061210e888289016120aa565b955050602061211f888289016120aa565b9450506040612130888289016120aa565b9350506060612141888289016120cf565b9250506080612152888289016120aa565b9150509295509295909350565b60008115159050919050565b6121748161215f565b82525050565b600060208201905061218f600083018461216b565b92915050565b600067ffffffffffffffff8211156121b0576121af611ef0565b5b602082029050602081019050919050565b600080fd5b60006121d96121d484612195565b611f50565b905080838252602082019050602084028301858111156121fc576121fb6121c1565b5b835b8181101561224357803567ffffffffffffffff81111561222157612220611ee6565b5b80860161222e8982611fed565b855260208501945050506020810190506121fe565b5050509392505050565b600082601f83011261226257612261611ee6565b5b81356122728482602086016121c6565b91505092915050565b6000806040838503121561229257612291611edc565b5b600083013567ffffffffffffffff8111156122b0576122af611ee1565b5b6122bc85828601611fed565b925050602083013567ffffffffffffffff8111156122dd576122dc611ee1565b5b6122e98582860161224d565b9150509250929050565b60006020820190506123086000830184611ddc565b92915050565b600061231982611e76565b9050919050565b6123298161230e565b811461233457600080fd5b50565b60008135905061234681612320565b92915050565b6004811061235957600080fd5b50565b60008135905061236b8161234c565b92915050565b6000806040838503121561238857612387611edc565b5b600061239685828601612337565b92505060206123a78582860161235c565b9150509250929050565b600481106123c2576123c1611860565b5b50565b60008190506123d3826123b1565b919050565b60006123e3826123c5565b9050919050565b6123f3816123d8565b82525050565b600060208201905061240e60008301846123ea565b92915050565b60008060006060848603121561242d5761242c611edc565b5b600061243b868287016120aa565b935050602061244c868287016120aa565b925050604061245d868287016120aa565b9150509250925092565b6000806040838503121561247e5761247d611edc565b5b600061248c858286016120cf565b925050602061249d858286016120aa565b9150509250929050565b6000602082840312156124bd576124bc611edc565b5b60006124cb848285016120cf565b91505092915050565b60006060820190506124e96000830186611ea8565b6124f66020830185611ea8565b61250360408301846123ea565b949350505050565b60006020828403121561252157612520611edc565b5b600061252f848285016120aa565b91505092915050565b600060a08201905061254d600083018861216b565b61255a602083018761216b565b612567604083018661216b565b612574606083018561216b565b612581608083018461216b565b9695505050505050565b6000602082840312156125a1576125a0611edc565b5b60006125af8482850161235c565b91505092915050565b7f4e487b7100000000000000000000000000000000000000000000000000000000600052602260045260246000fd5b600060028204905060018216806125ff57607f821691505b602082108103612612576126116125b8565b5b50919050565b7f5468652070726f7065727479206973206e6f74206c6567616c6c7920616c726960008201527f6768742e00000000000000000000000000000000000000000000000000000000602082015250565b600061267460248361188f565b915061267f82612618565b604082019050919050565b600060208201905081810360008301526126a381612667565b9050919050565b7f4f6e6c7920746865206f776e6572206f662074686520436f6e7472616374206860008201527f61732061636365737320746f2074686973210000000000000000000000000000602082015250565b600061270660328361188f565b9150612711826126aa565b604082019050919050565b60006020820190508181036000830152612735816126f9565b9050919050565b60008190508160005260206000209050919050565b60006020601f8301049050919050565b600082821b905092915050565b60006008830261279e7fffffffffffffffffffffffffffffffffffffffffffffffffffffffffffffffff82612761565b6127a88683612761565b95508019841693508086168417925050509392505050565b6000819050919050565b60006127e56127e06127db84611a30565b6127c0565b611a30565b9050919050565b6000819050919050565b6127ff836127ca565b61281361280b826127ec565b84845461276e565b825550505050565b600090565b61282861281b565b6128338184846127f6565b505050565b5b818110156128575761284c600082612820565b600181019050612839565b5050565b601f82111561289c5761286d8161273c565b61287684612751565b81016020851015612885578190505b61289961289185612751565b830182612838565b50505b505050565b600082821c905092915050565b60006128bf600019846008026128a1565b1980831691505092915050565b60006128d883836128ae565b9150826002028217905092915050565b6128f182611d5d565b67ffffffffffffffff81111561290a57612909611ef0565b5b61291482546125e7565b61291f82828561285b565b600060209050601f8311600181146129525760008415612940578287015190505b61294a85826128cc565b8655506129b2565b601f1984166129608661273c565b60005b8281101561298857848901518255600182019150602085019450602081019050612963565b868310156129a557848901516129a1601f8916826128ae565b8355505b6001600288020188555050505b505050505050565b7f4e487b7100000000000000000000000000000000000000000000000000000000600052603260045260246000fd5b60006129f482611a30565b91507fffffffffffffffffffffffffffffffffffffffffffffffffffffffffffffffff8203612a2657612a25611a3a565b5b600182019050919050565b7f4f6e6c792061207265676973746572656420726567697374726172206861732060008201527f61636365737320746f207468697320616374696f6e2e00000000000000000000602082015250565b6000612a8d60368361188f565b9150612a9882612a31565b604082019050919050565b60006020820190508181036000830152612abc81612a80565b9050919050565b600081905092915050565b6000612ad982611d5d565b612ae38185612ac3565b9350612af3818560208601611d68565b80840191505092915050565b6000612b0b8284612ace565b91508190509291505056fea2646970667358221220e523aac537dded9998a43ca94115666a73c0e587fbc0fe5975e794095281741e64736f6c63430008100033",
  "immutableReferences": {},
  "source": "//SPDX-License-Identifier: MIT\r\npragma solidity ^0.8.15;\r\n\r\nenum PropertyTitleContractState { PENDING, OWNED, FOR_SALE, NO_LONGER_RELEVANT }\r\n\r\nenum HousingTenure {\r\n    OWNER_OCCUPANCY,\r\n    TENANCY,\r\n    COOPERATIVE,\r\n    CONDOMIUM,\r\n    PUBLIC_HOUSING,\r\n    SQUATTING,\r\n    LAND_TRUST\r\n}\r\n\r\nstruct PropertyDetails {\r\n    HousingTenure tenureType;\r\n    string country;\r\n    string city;\r\n    string street;\r\n    string streetNumber;\r\n    uint256 apartmentNumber;\r\n    uint256 squareMeters;\r\n}\r\n\r\nstruct RequiredPropertyDocuments {\r\n    bool proofOfIdentity;\r\n    bool propertyTitleDeeds;\r\n    bool energyPerformanceCertificate;\r\n    bool extensionsAndAlterationsDocumentation;\r\n    bool utilityBillsPaid;\r\n}\r\n\r\n\r\ncontract PropertyTitle {\r\n    PropertyTitleContractState public contractState;\r\n    uint256 public sellingPriceIntegralPart;\r\n    uint256 public sellingPriceFractionalPart;\r\n    uint256 public sellingPriceFractionalPartLength;\r\n    address public creator;\r\n    address public owner;\r\n    PropertyDetails public propertyDetails;\r\n    RequiredPropertyDocuments public requiredDocuments;\r\n\r\n    constructor(\r\n        address _creator,\r\n        address _owner,\r\n        string memory _country,\r\n        string memory _city,\r\n        string memory _street,\r\n        string memory _streeNumber,\r\n        uint256 _apartmentNumber,\r\n        uint256 _squareMeters\r\n    )\r\n    {\r\n        creator = _creator;\r\n        owner = _owner;\r\n        contractState = PropertyTitleContractState.FOR_SALE;\r\n        propertyDetails.country = _country;\r\n        propertyDetails.city = _city;\r\n        propertyDetails.street = _street;\r\n        propertyDetails.streetNumber = _streeNumber;\r\n        propertyDetails.apartmentNumber = _apartmentNumber;\r\n        propertyDetails.squareMeters = _squareMeters;\r\n    }\r\n\r\n    receive() external payable onlyIfPropertyForSale onlyRelevantProperty\r\n    {\r\n        uint256 sellingPriceWeiValue = (sellingPriceIntegralPart * 10**18) + (sellingPriceFractionalPart * 10**(18-sellingPriceFractionalPartLength));\r\n        require(msg.sender.balance >= sellingPriceWeiValue, 'Insufficient funds');\r\n        payable(owner).transfer(msg.value);\r\n        contractState = PropertyTitleContractState.OWNED;\r\n        owner = payable(msg.sender);\r\n    }\r\n\r\n    function modifyContractStateAndOwner(\r\n        address payable _owner, \r\n        PropertyTitleContractState _contractState\r\n    )\r\n        external \r\n        onlyIfUserIsRegistrar\r\n        onlyRelevantProperty\r\n    {\r\n        owner = _owner;\r\n        contractState = _contractState;\r\n    }\r\n\r\n    function insertPropertyDetails(\r\n        HousingTenure _tenureType,\r\n        uint256 _squareMeters\r\n    )\r\n        external\r\n        onlyOwner\r\n        onlyIfLegallyAllowed\r\n        onlyRelevantProperty\r\n    {\r\n        propertyDetails.tenureType = _tenureType;\r\n        propertyDetails.squareMeters = _squareMeters;\r\n    }\r\n\r\n    function modifyContractState(PropertyTitleContractState _contractState) external onlyIfLegallyAllowed onlyOwner onlyRelevantProperty {\r\n        contractState = _contractState;\r\n    }\r\n\r\n    function modifyPropertyAdress(string memory _street, string memory _streeNumber) external onlyIfLegallyAllowed onlyOwner onlyRelevantProperty {\r\n        propertyDetails.street = _street;\r\n        propertyDetails.streetNumber = _streeNumber;\r\n    }\r\n\r\n    function modifyPropertyPriceAndTenureAndMeters(\r\n        uint256 _sellingPriceIntegralPart, \r\n        uint256 _sellingPriceFractionalPart, \r\n        uint256 _sellingPriceFractionalPartLength,\r\n        HousingTenure _tenureType,\r\n        uint256 _squareMeters\r\n    )\r\n        external\r\n        onlyIfLegallyAllowed\r\n        onlyOwner\r\n        onlyRelevantProperty\r\n    {\r\n        sellingPriceIntegralPart = _sellingPriceIntegralPart;\r\n        sellingPriceFractionalPart = _sellingPriceFractionalPart;\r\n        sellingPriceFractionalPartLength = _sellingPriceFractionalPartLength;\r\n        propertyDetails.tenureType = _tenureType;\r\n        propertyDetails.squareMeters = _squareMeters;\r\n    }\r\n\r\n    function modifyPropertyTenureType(HousingTenure _tenureType) external onlyIfLegallyAllowed onlyOwner onlyRelevantProperty {\r\n        propertyDetails.tenureType = _tenureType;\r\n    }\r\n\r\n    function modifyPropertySquareMeters(uint256 _squareMeters) external onlyIfLegallyAllowed onlyOwner onlyRelevantProperty {\r\n        propertyDetails.squareMeters = _squareMeters;\r\n    }\r\n\r\n    function setPropertySellingPrice(\r\n        uint256 _sellingPriceIntegralPart, \r\n        uint256 _sellingPriceFractionalPart, \r\n        uint256 _sellingPriceFractionalPartLength\r\n    ) \r\n        external \r\n        onlyIfLegallyAllowed \r\n        onlyOwner \r\n        onlyRelevantProperty\r\n    {\r\n        sellingPriceIntegralPart = _sellingPriceIntegralPart;\r\n        sellingPriceFractionalPart = _sellingPriceFractionalPart;\r\n        sellingPriceFractionalPartLength = _sellingPriceFractionalPartLength;\r\n    }\r\n\r\n    function getPropertySellingPrice() public view returns (uint256) {\r\n        uint256 sellingPriceWeiValue = (sellingPriceIntegralPart * 10**18) + (sellingPriceFractionalPart * 10**(18-sellingPriceFractionalPartLength));\r\n        return sellingPriceWeiValue;\r\n    }\r\n\r\n    function getContractDetails() public view returns (address, address, PropertyTitleContractState) {\r\n        return (creator, owner, contractState);\r\n    }\r\n\r\n    function validatePropertyDebts() public view returns (bool) {\r\n        /// TODO\r\n        return true;\r\n        /// TODO\r\n    }\r\n\r\n    function checkIfUserIsRegistrar() public view returns (bool) {\r\n        //address currentUser = msg.sender;\r\n        // registrarsArray = CentralContract.getRegistrarsArray();\r\n        // for (uint256 i = 0; i < registrarsArray.length; i++) {\r\n        //     if (currentUser == registrarsArray[i]) {\r\n        //         return true;\r\n        //     }\r\n        // }\r\n        return true;\r\n    }\r\n\r\n    function checkStringsEquality(string memory firstString, string memory secondString) public pure returns (bool) {\r\n        if (bytes(firstString).length != bytes(secondString).length) {\r\n            return false;\r\n        } else {\r\n            return keccak256(abi.encodePacked(firstString)) == keccak256(abi.encodePacked(secondString));\r\n        }\r\n    }\r\n\r\n    function checkIfStringIsFoundInStringsArray(\r\n        string memory stringToSearchFor,\r\n        string[] memory stringsArray\r\n    )\r\n        public\r\n        pure\r\n        returns (bool)\r\n    {\r\n        for (uint256 i = 0; i < stringsArray.length; i++) {\r\n            if (checkStringsEquality(stringToSearchFor, stringsArray[i])) {\r\n                return true;\r\n            }\r\n        }\r\n\r\n        return false;\r\n    }\r\n\r\n\r\n    modifier onlyCreator {\r\n        require(msg.sender == creator, \"Only the creator of the Contract has access to this!\");\r\n        _;\r\n    }\r\n\r\n    modifier onlyOwner {\r\n        require(msg.sender == owner, \"Only the owner of the Contract has access to this!\");\r\n        _;\r\n    }\r\n\r\n    modifier onlyIfLegallyAllowed {\r\n        require(validatePropertyDebts(), \"The property is not legally alright.\");\r\n        _;\r\n    }\r\n\r\n    modifier onlyIfUserIsRegistrar {\r\n        require(checkIfUserIsRegistrar(), \"Only a registered registrar has access to this action.\");\r\n        _;\r\n    }\r\n\r\n    modifier onlyIfPropertyForSale {\r\n        require(propertyDetails.tenureType == HousingTenure.OWNER_OCCUPANCY || propertyDetails.tenureType == HousingTenure.CONDOMIUM,\r\n            \"This property's tenure type does not support being sold\");\r\n        require(contractState == PropertyTitleContractState.FOR_SALE, \"This property is not for sale.\");\r\n        _;\r\n    }\r\n\r\n    modifier onlyRelevantProperty {\r\n        require(contractState != PropertyTitleContractState.NO_LONGER_RELEVANT, \r\n            'This Property Title Contract is no longer relavant');\r\n        _;\r\n    }\r\n}",
  "sourcePath": "D:\\Propty\\propty\\contracts\\contracts\\PropertyTitle.sol",
  "compiler": {
    "name": "solc",
    "version": "0.8.16+commit.07a7930e.Emscripten.clang"
  },
  "schemaVersion": "3.4.9",
  "updatedAt": "2022-10-14T05:46:56.893Z",
  "networkType": "ethereum",
  "devdoc": {
    "kind": "dev",
    "methods": {},
    "version": 1
  },
  "userdoc": {
    "kind": "user",
    "methods": {},
    "version": 1
  }
}