{
  "contractName": "TestEnum",
  "abi": [
    {
      "inputs": [],
      "stateMutability": "nonpayable",
      "type": "constructor"
    },
    {
      "inputs": [
        {
          "internalType": "enum PropertyTitleContractState",
          "name": "_prop",
          "type": "uint8"
        }
      ],
      "name": "setProp",
      "outputs": [],
      "stateMutability": "nonpayable",
      "type": "function"
    },
    {
      "inputs": [],
      "name": "getProp",
      "outputs": [
        {
          "internalType": "enum PropertyTitleContractState",
          "name": "",
          "type": "uint8"
        }
      ],
      "stateMutability": "view",
      "type": "function",
      "constant": true
    },
    {
      "inputs": [],
      "name": "getInitialized",
      "outputs": [
        {
          "internalType": "enum PropertyTitleContractState",
          "name": "",
          "type": "uint8"
        }
      ],
      "stateMutability": "pure",
      "type": "function",
      "constant": true
    },
    {
      "inputs": [],
      "name": "getOwned",
      "outputs": [
        {
          "internalType": "enum PropertyTitleContractState",
          "name": "",
          "type": "uint8"
        }
      ],
      "stateMutability": "pure",
      "type": "function",
      "constant": true
    },
    {
      "inputs": [],
      "name": "getForSale",
      "outputs": [
        {
          "internalType": "enum PropertyTitleContractState",
          "name": "",
          "type": "uint8"
        }
      ],
      "stateMutability": "pure",
      "type": "function",
      "constant": true
    },
    {
      "inputs": [],
      "name": "getNoLongerRelevant",
      "outputs": [
        {
          "internalType": "enum PropertyTitleContractState",
          "name": "",
          "type": "uint8"
        }
      ],
      "stateMutability": "pure",
      "type": "function",
      "constant": true
    }
  ],
  "bytecode": "0x608060405234801561001057600080fd5b506000600160006101000a81548160ff0219169083600381111561003757610036610041565b5b0217905550610070565b7f4e487b7100000000000000000000000000000000000000000000000000000000600052602160045260246000fd5b6106038061007f6000396000f3fe608060405234801561001057600080fd5b50600436106100625760003560e01c80634ce02c631461006757806361fd3f6214610083578063804c2cf8146100a1578063c3027525146100bf578063e4a1e1ba146100dd578063ee89dab4146100fb575b600080fd5b610081600480360381019061007c91906101ec565b610119565b005b61008b61018b565b6040516100989190610290565b60405180910390f35b6100a96101a2565b6040516100b69190610290565b60405180910390f35b6100c76101ab565b6040516100d49190610290565b60405180910390f35b6100e56101b4565b6040516100f29190610290565b60405180910390f35b6101036101bd565b6040516101109190610290565b60405180910390f35b6040518060400160405280600b81526020017f6a6667616a676d6e6a65670000000000000000000000000000000000000000008152506000908161015d91906104fb565b5080600160006101000a81548160ff0219169083600381111561018357610182610219565b5b021790555050565b6000600160009054906101000a900460ff16905090565b60006002905090565b60006001905090565b60006003905090565b600090565b600080fd5b600481106101d457600080fd5b50565b6000813590506101e6816101c7565b92915050565b600060208284031215610202576102016101c2565b5b6000610210848285016101d7565b91505092915050565b7f4e487b7100000000000000000000000000000000000000000000000000000000600052602160045260246000fd5b6004811061025957610258610219565b5b50565b600081905061026a82610248565b919050565b600061027a8261025c565b9050919050565b61028a8161026f565b82525050565b60006020820190506102a56000830184610281565b92915050565b600081519050919050565b7f4e487b7100000000000000000000000000000000000000000000000000000000600052604160045260246000fd5b7f4e487b7100000000000000000000000000000000000000000000000000000000600052602260045260246000fd5b6000600282049050600182168061032c57607f821691505b60208210810361033f5761033e6102e5565b5b50919050565b60008190508160005260206000209050919050565b60006020601f8301049050919050565b600082821b905092915050565b6000600883026103a77fffffffffffffffffffffffffffffffffffffffffffffffffffffffffffffffff8261036a565b6103b1868361036a565b95508019841693508086168417925050509392505050565b6000819050919050565b6000819050919050565b60006103f86103f36103ee846103c9565b6103d3565b6103c9565b9050919050565b6000819050919050565b610412836103dd565b61042661041e826103ff565b848454610377565b825550505050565b600090565b61043b61042e565b610446818484610409565b505050565b5b8181101561046a5761045f600082610433565b60018101905061044c565b5050565b601f8211156104af5761048081610345565b6104898461035a565b81016020851015610498578190505b6104ac6104a48561035a565b83018261044b565b50505b505050565b600082821c905092915050565b60006104d2600019846008026104b4565b1980831691505092915050565b60006104eb83836104c1565b9150826002028217905092915050565b610504826102ab565b67ffffffffffffffff81111561051d5761051c6102b6565b5b6105278254610314565b61053282828561046e565b600060209050601f8311600181146105655760008415610553578287015190505b61055d85826104df565b8655506105c5565b601f19841661057386610345565b60005b8281101561059b57848901518255600182019150602085019450602081019050610576565b868310156105b857848901516105b4601f8916826104c1565b8355505b6001600288020188555050505b50505050505056fea26469706673582212200d372da01b61625390dee4977f170cdc6da6d5e6226a989bf9a782fc13eb337764736f6c63430008100033",
  "immutableReferences": {},
  "source": "// SPDX-License-Identifier: MIT\r\npragma solidity >=0.4.22 <0.9.0;\r\n\r\nenum PropertyTitleContractState { INITIALIZED, OWNED, FOR_SALE, NO_LONGER_RELEVANT }\r\nstruct PropertyDetails {\r\n    string propertyAddress;\r\n    string propertyDescription;\r\n    uint256 squareMetres;\r\n}\r\ncontract TestEnum {\r\n  string oakd;\r\n  PropertyTitleContractState prop;\r\n\r\n  constructor() {\r\n    prop = PropertyTitleContractState.INITIALIZED;\r\n  }\r\n\r\n  function setProp(PropertyTitleContractState _prop) public {\r\n    oakd = 'jfgajgmnjeg';\r\n    prop = _prop;\r\n  }\r\n\r\n  function getProp() public view returns (PropertyTitleContractState) {\r\n    return prop;\r\n  }\r\n\r\n  function getInitialized() public pure returns (PropertyTitleContractState) {\r\n    return PropertyTitleContractState.INITIALIZED;\r\n  }\r\n  function getOwned() public pure returns (PropertyTitleContractState) {\r\n    return PropertyTitleContractState.OWNED;\r\n  }\r\n  function getForSale() public pure returns (PropertyTitleContractState) {\r\n    return PropertyTitleContractState.FOR_SALE;\r\n  }\r\n  function getNoLongerRelevant() public pure returns (PropertyTitleContractState) {\r\n    return PropertyTitleContractState.NO_LONGER_RELEVANT;\r\n  }\r\n}\r\n",
  "sourcePath": "D:\\Propty\\propty\\contracts\\contracts\\TestEnum.sol",
  "compiler": {
    "name": "solc",
    "version": "0.8.16+commit.07a7930e.Emscripten.clang"
  },
  "schemaVersion": "3.4.9",
  "updatedAt": "2022-09-07T16:51:28.875Z",
  "networkType": "ethereum",
  "devdoc": {
    "kind": "dev",
    "methods": {},
    "version": 1
  },
  "userdoc": {
    "kind": "user",
    "methods": {},
    "version": 1
  }
}