{
  "contractName": "TestEnum",
  "abi": [
    {
      "inputs": [],
      "stateMutability": "nonpayable",
      "type": "constructor"
    },
    {
      "inputs": [
        {
          "internalType": "enum PropertyTitleContractState",
          "name": "_prop",
          "type": "uint8"
        }
      ],
      "name": "setProp",
      "outputs": [],
      "stateMutability": "nonpayable",
      "type": "function"
    },
    {
      "inputs": [],
      "name": "getProp",
      "outputs": [
        {
          "internalType": "enum PropertyTitleContractState",
          "name": "",
          "type": "uint8"
        }
      ],
      "stateMutability": "view",
      "type": "function"
    },
    {
      "inputs": [],
      "name": "getInitialized",
      "outputs": [
        {
          "internalType": "enum PropertyTitleContractState",
          "name": "",
          "type": "uint8"
        }
      ],
      "stateMutability": "pure",
      "type": "function"
    },
    {
      "inputs": [],
      "name": "getOwned",
      "outputs": [
        {
          "internalType": "enum PropertyTitleContractState",
          "name": "",
          "type": "uint8"
        }
      ],
      "stateMutability": "pure",
      "type": "function"
    },
    {
      "inputs": [],
      "name": "getForSale",
      "outputs": [
        {
          "internalType": "enum PropertyTitleContractState",
          "name": "",
          "type": "uint8"
        }
      ],
      "stateMutability": "pure",
      "type": "function"
    },
    {
      "inputs": [],
      "name": "getNoLongerRelevant",
      "outputs": [
        {
          "internalType": "enum PropertyTitleContractState",
          "name": "",
          "type": "uint8"
        }
      ],
      "stateMutability": "pure",
      "type": "function"
    }
  ],
  "bytecode": "0x608060405234801561001057600080fd5b5060026000806101000a81548160ff0219169083600381111561003657610035610085565b5b02179055506040518060400160405280600b81526020017f75686672646968697574770000000000000000000000000000000000000000008152506001908161007f9190610304565b506103d6565b7f4e487b7100000000000000000000000000000000000000000000000000000000600052602160045260246000fd5b600081519050919050565b7f4e487b7100000000000000000000000000000000000000000000000000000000600052604160045260246000fd5b7f4e487b7100000000000000000000000000000000000000000000000000000000600052602260045260246000fd5b6000600282049050600182168061013557607f821691505b602082108103610148576101476100ee565b5b50919050565b60008190508160005260206000209050919050565b60006020601f8301049050919050565b600082821b905092915050565b6000600883026101b07fffffffffffffffffffffffffffffffffffffffffffffffffffffffffffffffff82610173565b6101ba8683610173565b95508019841693508086168417925050509392505050565b6000819050919050565b6000819050919050565b60006102016101fc6101f7846101d2565b6101dc565b6101d2565b9050919050565b6000819050919050565b61021b836101e6565b61022f61022782610208565b848454610180565b825550505050565b600090565b610244610237565b61024f818484610212565b505050565b5b818110156102735761026860008261023c565b600181019050610255565b5050565b601f8211156102b8576102898161014e565b61029284610163565b810160208510156102a1578190505b6102b56102ad85610163565b830182610254565b50505b505050565b600082821c905092915050565b60006102db600019846008026102bd565b1980831691505092915050565b60006102f483836102ca565b9150826002028217905092915050565b61030d826100b4565b67ffffffffffffffff811115610326576103256100bf565b5b610330825461011d565b61033b828285610277565b600060209050601f83116001811461036e576000841561035c578287015190505b61036685826102e8565b8655506103ce565b601f19841661037c8661014e565b60005b828110156103a45784890151825560018201915060208501945060208101905061037f565b868310156103c157848901516103bd601f8916826102ca565b8355505b6001600288020188555050505b505050505050565b61029a806103e56000396000f3fe608060405234801561001057600080fd5b50600436106100625760003560e01c80634ce02c631461006757806361fd3f6214610083578063804c2cf8146100a1578063c3027525146100bf578063e4a1e1ba146100dd578063ee89dab4146100fb575b600080fd5b610081600480360381019061007c91906101a5565b610119565b005b61008b610145565b6040516100989190610249565b60405180910390f35b6100a961015b565b6040516100b69190610249565b60405180910390f35b6100c7610164565b6040516100d49190610249565b60405180910390f35b6100e561016d565b6040516100f29190610249565b60405180910390f35b610103610176565b6040516101109190610249565b60405180910390f35b806000806101000a81548160ff0219169083600381111561013d5761013c6101d2565b5b021790555050565b60008060009054906101000a900460ff16905090565b60006002905090565b60006001905090565b60006003905090565b600090565b600080fd5b6004811061018d57600080fd5b50565b60008135905061019f81610180565b92915050565b6000602082840312156101bb576101ba61017b565b5b60006101c984828501610190565b91505092915050565b7f4e487b7100000000000000000000000000000000000000000000000000000000600052602160045260246000fd5b60048110610212576102116101d2565b5b50565b600081905061022382610201565b919050565b600061023382610215565b9050919050565b61024381610228565b82525050565b600060208201905061025e600083018461023a565b9291505056fea264697066735822122074e1d2bcebca7fc361b0ac7707251a471f00056b8126d0598e0b5ff0121c6f5e64736f6c63430008100033",
  "immutableReferences": {},
  "source": "// SPDX-License-Identifier: MIT\r\npragma solidity >=0.4.22 <0.9.0;\r\n\r\nenum PropertyTitleContractState { INITIALIZED, OWNED, FOR_SALE, NO_LONGER_RELEVANT }\r\nstruct PropertyDetails {\r\n    string propertyAddress;\r\n    string propertyDescription;\r\n    uint256 squareMetres;\r\n}\r\ncontract TestEnum {\r\n  PropertyTitleContractState prop;\r\n  string oakd;\r\n\r\n  constructor() {\r\n    prop = PropertyTitleContractState.FOR_SALE;\r\n    oakd = 'uhfrdihiutw';\r\n  }\r\n\r\n  function setProp(PropertyTitleContractState _prop) public {\r\n    prop = _prop;\r\n  }\r\n\r\n  function getProp() public view returns (PropertyTitleContractState) {\r\n    return prop;\r\n  }\r\n\r\n  function getInitialized() public pure returns (PropertyTitleContractState) {\r\n    return PropertyTitleContractState.INITIALIZED;\r\n  }\r\n  function getOwned() public pure returns (PropertyTitleContractState) {\r\n    return PropertyTitleContractState.OWNED;\r\n  }\r\n  function getForSale() public pure returns (PropertyTitleContractState) {\r\n    return PropertyTitleContractState.FOR_SALE;\r\n  }\r\n  function getNoLongerRelevant() public pure returns (PropertyTitleContractState) {\r\n    return PropertyTitleContractState.NO_LONGER_RELEVANT;\r\n  }\r\n}\r\n",
  "sourcePath": "D:\\Propty\\propty\\contracts\\contracts\\TestEnum.sol",
  "compiler": {
    "name": "solc",
    "version": "0.8.16+commit.07a7930e.Emscripten.clang"
  },
  "schemaVersion": "3.4.9",
  "updatedAt": "2022-09-27T18:08:47.087Z",
  "devdoc": {
    "kind": "dev",
    "methods": {},
    "version": 1
  },
  "userdoc": {
    "kind": "user",
    "methods": {},
    "version": 1
  }
}