{
  "contractName": "TestContract",
  "abi": [
    {
      "inputs": [
        {
          "internalType": "uint256",
          "name": "_number",
          "type": "uint256"
        }
      ],
      "stateMutability": "nonpayable",
      "type": "constructor"
    },
    {
      "inputs": [
        {
          "internalType": "uint256",
          "name": "_number",
          "type": "uint256"
        }
      ],
      "name": "setNumber",
      "outputs": [],
      "stateMutability": "nonpayable",
      "type": "function"
    }
  ],
  "bytecode": "0x608060405234801561001057600080fd5b506040516101983803806101988339818101604052810190610032919061007a565b80600081905550506100a7565b600080fd5b6000819050919050565b61005781610044565b811461006257600080fd5b50565b6000815190506100748161004e565b92915050565b6000602082840312156100905761008f61003f565b5b600061009e84828501610065565b91505092915050565b60e3806100b56000396000f3fe6080604052348015600f57600080fd5b506004361060285760003560e01c80633fb5c1cb14602d575b600080fd5b60436004803603810190603f91906085565b6045565b005b8060008190555050565b600080fd5b6000819050919050565b6065816054565b8114606f57600080fd5b50565b600081359050607f81605e565b92915050565b6000602082840312156098576097604f565b5b600060a4848285016072565b9150509291505056fea26469706673582212205ec58f307c2b14889ed851235578f74f14367afdd4df8700d23ac2986c5e7d8764736f6c63430008100033",
  "immutableReferences": {},
  "source": "// SPDX-License-Identifier: MIT\npragma solidity >=0.4.22 <0.9.0;\n\ncontract TestContract {\n  uint256 number;\n\n  constructor(uint256 _number) {\n    number = _number;\n  }\n\n  function setNumber(uint256 _number) public {\n    number = _number;\n  }\n}\n",
  "sourcePath": "D:\\Propty\\propty\\contracts\\contracts\\TestContract.sol",
  "compiler": {
    "name": "solc",
    "version": "0.8.16+commit.07a7930e.Emscripten.clang"
  },
  "schemaVersion": "3.4.9",
  "updatedAt": "2022-08-28T07:35:58.750Z",
  "networkType": "ethereum",
  "devdoc": {
    "kind": "dev",
    "methods": {},
    "version": 1
  },
  "userdoc": {
    "kind": "user",
    "methods": {},
    "version": 1
  }
}