{
  "contractName": "TitleCreatingContract",
  "abi": [
    {
      "inputs": [
        {
          "internalType": "address[]",
          "name": "_owners",
          "type": "address[]"
        }
      ],
      "stateMutability": "nonpayable",
      "type": "constructor"
    },
    {
      "inputs": [
        {
          "internalType": "uint256",
          "name": "",
          "type": "uint256"
        }
      ],
      "name": "owners",
      "outputs": [
        {
          "internalType": "address",
          "name": "",
          "type": "address"
        }
      ],
      "stateMutability": "view",
      "type": "function",
      "constant": true
    },
    {
      "inputs": [
        {
          "internalType": "address",
          "name": "",
          "type": "address"
        }
      ],
      "name": "propertyTitleContractsValidaty",
      "outputs": [
        {
          "internalType": "bool",
          "name": "",
          "type": "bool"
        }
      ],
      "stateMutability": "view",
      "type": "function",
      "constant": true
    },
    {
      "inputs": [
        {
          "internalType": "address",
          "name": "",
          "type": "address"
        }
      ],
      "name": "registrars",
      "outputs": [
        {
          "internalType": "bool",
          "name": "",
          "type": "bool"
        }
      ],
      "stateMutability": "view",
      "type": "function",
      "constant": true
    },
    {
      "inputs": [
        {
          "internalType": "uint256",
          "name": "",
          "type": "uint256"
        }
      ],
      "name": "titleContracts",
      "outputs": [
        {
          "internalType": "address",
          "name": "",
          "type": "address"
        }
      ],
      "stateMutability": "view",
      "type": "function",
      "constant": true
    },
    {
      "inputs": [
        {
          "internalType": "address[]",
          "name": "_registrars",
          "type": "address[]"
        }
      ],
      "name": "addRegistrars",
      "outputs": [],
      "stateMutability": "nonpayable",
      "type": "function"
    },
    {
      "inputs": [
        {
          "internalType": "address[]",
          "name": "_registrars",
          "type": "address[]"
        }
      ],
      "name": "removeRegistrars",
      "outputs": [],
      "stateMutability": "nonpayable",
      "type": "function"
    },
    {
      "inputs": [
        {
          "internalType": "address",
          "name": "_owner",
          "type": "address"
        },
        {
          "internalType": "string",
          "name": "_country",
          "type": "string"
        },
        {
          "internalType": "string",
          "name": "_city",
          "type": "string"
        },
        {
          "internalType": "string",
          "name": "_street",
          "type": "string"
        },
        {
          "internalType": "string",
          "name": "_streeNumber",
          "type": "string"
        },
        {
          "internalType": "uint256",
          "name": "_apartmentNumber",
          "type": "uint256"
        },
        {
          "internalType": "uint256",
          "name": "_squareMeters",
          "type": "uint256"
        }
      ],
      "name": "deployNewPropertyTitle",
      "outputs": [],
      "stateMutability": "nonpayable",
      "type": "function"
    },
    {
      "inputs": [
        {
          "internalType": "address",
          "name": "_contractAddress",
          "type": "address"
        }
      ],
      "name": "validatePropertyTitleContract",
      "outputs": [],
      "stateMutability": "nonpayable",
      "type": "function"
    },
    {
      "inputs": [
        {
          "internalType": "address",
          "name": "_userAddress",
          "type": "address"
        }
      ],
      "name": "checkIfUserIsRegistrar",
      "outputs": [
        {
          "internalType": "bool",
          "name": "",
          "type": "bool"
        }
      ],
      "stateMutability": "view",
      "type": "function",
      "constant": true
    },
    {
      "inputs": [],
      "name": "getContractOwners",
      "outputs": [
        {
          "internalType": "address[]",
          "name": "",
          "type": "address[]"
        }
      ],
      "stateMutability": "view",
      "type": "function",
      "constant": true
    }
  ],
  "bytecode": "0x60806040523480156200001157600080fd5b5060405162004b3038038062004b308339818101604052810190620000379190620002d0565b60005b8151811015620000da5760008282815181106200005c576200005b62000321565b5b60200260200101519080600181540180825580915050600190039060005260206000200160009091909190916101000a81548173ffffffffffffffffffffffffffffffffffffffff021916908373ffffffffffffffffffffffffffffffffffffffff1602179055508080620000d19062000389565b9150506200003a565b5050620003d6565b6000604051905090565b600080fd5b600080fd5b600080fd5b6000601f19601f8301169050919050565b7f4e487b7100000000000000000000000000000000000000000000000000000000600052604160045260246000fd5b6200014682620000fb565b810181811067ffffffffffffffff821117156200016857620001676200010c565b5b80604052505050565b60006200017d620000e2565b90506200018b82826200013b565b919050565b600067ffffffffffffffff821115620001ae57620001ad6200010c565b5b602082029050602081019050919050565b600080fd5b600073ffffffffffffffffffffffffffffffffffffffff82169050919050565b6000620001f182620001c4565b9050919050565b6200020381620001e4565b81146200020f57600080fd5b50565b6000815190506200022381620001f8565b92915050565b6000620002406200023a8462000190565b62000171565b90508083825260208201905060208402830185811115620002665762000265620001bf565b5b835b818110156200029357806200027e888262000212565b84526020840193505060208101905062000268565b5050509392505050565b600082601f830112620002b557620002b4620000f6565b5b8151620002c784826020860162000229565b91505092915050565b600060208284031215620002e957620002e8620000ec565b5b600082015167ffffffffffffffff8111156200030a5762000309620000f1565b5b62000318848285016200029d565b91505092915050565b7f4e487b7100000000000000000000000000000000000000000000000000000000600052603260045260246000fd5b7f4e487b7100000000000000000000000000000000000000000000000000000000600052601160045260246000fd5b6000819050919050565b600062000396826200037f565b91507fffffffffffffffffffffffffffffffffffffffffffffffffffffffffffffffff8203620003cb57620003ca62000350565b5b600182019050919050565b61474a80620003e66000396000f3fe60806040523480156200001157600080fd5b5060043610620000ac5760003560e01c80639ca1a68e116200006f5780639ca1a68e146200017d578063a210bee214620001b3578063c2168c5914620001e9578063d4950d911462000209578063f33c4ff9146200022b57620000ac565b8063025e7c2714620000b15780630c5f9aa314620000e757806333cf5ef814620001075780636afebda5146200012757806389aeca761462000147575b600080fd5b620000cf6004803603810190620000c991906200099b565b62000261565b604051620000de919062000a12565b60405180910390f35b620001056004803603810190620000ff919062000bd5565b620002a1565b005b6200012560048036038101906200011f919062000bd5565b62000430565b005b6200014560048036038101906200013f919062000cee565b620005be565b005b6200016560048036038101906200015f919062000e1d565b620006ce565b60405162000174919062000e6c565b60405180910390f35b6200019b600480360381019062000195919062000e1d565b620006ee565b604051620001aa919062000e6c565b60405180910390f35b620001d16004803603810190620001cb91906200099b565b6200070e565b604051620001e0919062000a12565b60405180910390f35b62000207600480360381019062000201919062000e1d565b6200074e565b005b620002136200083f565b60405162000222919062000f57565b60405180910390f35b62000249600480360381019062000243919062000e1d565b620008cf565b60405162000258919062000e6c565b60405180910390f35b600081815481106200027257600080fd5b906000526020600020016000915054906101000a900473ffffffffffffffffffffffffffffffffffffffff1681565b6000805b600080549050811015620003485760008181548110620002ca57620002c962000f7b565b5b9060005260206000200160009054906101000a900473ffffffffffffffffffffffffffffffffffffffff1673ffffffffffffffffffffffffffffffffffffffff163373ffffffffffffffffffffffffffffffffffffffff160362000332576001915062000348565b80806200033f9062000fd9565b915050620002a5565b50600115158115151462000393576040517f08c379a00000000000000000000000000000000000000000000000000000000081526004016200038a90620010ad565b60405180910390fd5b60005b82518110156200042b57600060016000858481518110620003bc57620003bb62000f7b565b5b602002602001015173ffffffffffffffffffffffffffffffffffffffff1673ffffffffffffffffffffffffffffffffffffffff16815260200190815260200160002060006101000a81548160ff0219169083151502179055508080620004229062000fd9565b91505062000396565b505050565b6000805b600080549050811015620004d7576000818154811062000459576200045862000f7b565b5b9060005260206000200160009054906101000a900473ffffffffffffffffffffffffffffffffffffffff1673ffffffffffffffffffffffffffffffffffffffff163373ffffffffffffffffffffffffffffffffffffffff1603620004c15760019150620004d7565b8080620004ce9062000fd9565b91505062000434565b50600115158115151462000522576040517f08c379a00000000000000000000000000000000000000000000000000000000081526004016200051990620010ad565b60405180910390fd5b60005b8251811015620005b95760018060008584815181106200054a576200054962000f7b565b5b602002602001015173ffffffffffffffffffffffffffffffffffffffff1673ffffffffffffffffffffffffffffffffffffffff16815260200190815260200160002060006101000a81548160ff0219169083151502179055508080620005b09062000fd9565b91505062000525565b505050565b60003088888888888888604051620005d6906200093e565b620005e998979695949392919062001158565b604051809103906000f08015801562000606573d6000803e3d6000fd5b5090506002819080600181540180825580915050600190039060005260206000200160009091909190916101000a81548173ffffffffffffffffffffffffffffffffffffffff021916908373ffffffffffffffffffffffffffffffffffffffff1602179055506000600360008373ffffffffffffffffffffffffffffffffffffffff1673ffffffffffffffffffffffffffffffffffffffff16815260200190815260200160002060006101000a81548160ff0219169083151502179055505050505050505050565b60016020528060005260406000206000915054906101000a900460ff1681565b60036020528060005260406000206000915054906101000a900460ff1681565b600281815481106200071f57600080fd5b906000526020600020016000915054906101000a900473ffffffffffffffffffffffffffffffffffffffff1681565b60011515600160003373ffffffffffffffffffffffffffffffffffffffff1673ffffffffffffffffffffffffffffffffffffffff16815260200190815260200160002060009054906101000a900460ff16151514620007e4576040517f08c379a0000000000000000000000000000000000000000000000000000000008152600401620007db9062001278565b60405180910390fd5b6001600360008373ffffffffffffffffffffffffffffffffffffffff1673ffffffffffffffffffffffffffffffffffffffff16815260200190815260200160002060006101000a81548160ff02191690831515021790555050565b60606000805480602002602001604051908101604052809291908181526020018280548015620008c557602002820191906000526020600020905b8160009054906101000a900473ffffffffffffffffffffffffffffffffffffffff1673ffffffffffffffffffffffffffffffffffffffff16815260200190600101908083116200087a575b5050505050905090565b600060011515600160008473ffffffffffffffffffffffffffffffffffffffff1673ffffffffffffffffffffffffffffffffffffffff16815260200190815260200160002060009054906101000a900460ff1615150362000934576001905062000939565b600090505b919050565b61347a806200129b83390190565b6000604051905090565b600080fd5b600080fd5b6000819050919050565b620009758162000960565b81146200098157600080fd5b50565b60008135905062000995816200096a565b92915050565b600060208284031215620009b457620009b362000956565b5b6000620009c48482850162000984565b91505092915050565b600073ffffffffffffffffffffffffffffffffffffffff82169050919050565b6000620009fa82620009cd565b9050919050565b62000a0c81620009ed565b82525050565b600060208201905062000a29600083018462000a01565b92915050565b600080fd5b6000601f19601f8301169050919050565b7f4e487b7100000000000000000000000000000000000000000000000000000000600052604160045260246000fd5b62000a7f8262000a34565b810181811067ffffffffffffffff8211171562000aa15762000aa062000a45565b5b80604052505050565b600062000ab66200094c565b905062000ac4828262000a74565b919050565b600067ffffffffffffffff82111562000ae75762000ae662000a45565b5b602082029050602081019050919050565b600080fd5b62000b0881620009ed565b811462000b1457600080fd5b50565b60008135905062000b288162000afd565b92915050565b600062000b4562000b3f8462000ac9565b62000aaa565b9050808382526020820190506020840283018581111562000b6b5762000b6a62000af8565b5b835b8181101562000b98578062000b83888262000b17565b84526020840193505060208101905062000b6d565b5050509392505050565b600082601f83011262000bba5762000bb962000a2f565b5b813562000bcc84826020860162000b2e565b91505092915050565b60006020828403121562000bee5762000bed62000956565b5b600082013567ffffffffffffffff81111562000c0f5762000c0e6200095b565b5b62000c1d8482850162000ba2565b91505092915050565b600080fd5b600067ffffffffffffffff82111562000c495762000c4862000a45565b5b62000c548262000a34565b9050602081019050919050565b82818337600083830152505050565b600062000c8762000c818462000c2b565b62000aaa565b90508281526020810184848401111562000ca65762000ca562000c26565b5b62000cb384828562000c61565b509392505050565b600082601f83011262000cd35762000cd262000a2f565b5b813562000ce584826020860162000c70565b91505092915050565b600080600080600080600060e0888a03121562000d105762000d0f62000956565b5b600062000d208a828b0162000b17565b975050602088013567ffffffffffffffff81111562000d445762000d436200095b565b5b62000d528a828b0162000cbb565b965050604088013567ffffffffffffffff81111562000d765762000d756200095b565b5b62000d848a828b0162000cbb565b955050606088013567ffffffffffffffff81111562000da85762000da76200095b565b5b62000db68a828b0162000cbb565b945050608088013567ffffffffffffffff81111562000dda5762000dd96200095b565b5b62000de88a828b0162000cbb565b93505060a062000dfb8a828b0162000984565b92505060c062000e0e8a828b0162000984565b91505092959891949750929550565b60006020828403121562000e365762000e3562000956565b5b600062000e468482850162000b17565b91505092915050565b60008115159050919050565b62000e668162000e4f565b82525050565b600060208201905062000e83600083018462000e5b565b92915050565b600081519050919050565b600082825260208201905092915050565b6000819050602082019050919050565b62000ec081620009ed565b82525050565b600062000ed4838362000eb5565b60208301905092915050565b6000602082019050919050565b600062000efa8262000e89565b62000f06818562000e94565b935062000f138362000ea5565b8060005b8381101562000f4a57815162000f2e888262000ec6565b975062000f3b8362000ee0565b92505060018101905062000f17565b5085935050505092915050565b6000602082019050818103600083015262000f73818462000eed565b905092915050565b7f4e487b7100000000000000000000000000000000000000000000000000000000600052603260045260246000fd5b7f4e487b7100000000000000000000000000000000000000000000000000000000600052601160045260246000fd5b600062000fe68262000960565b91507fffffffffffffffffffffffffffffffffffffffffffffffffffffffffffffffff82036200101b576200101a62000faa565b5b600182019050919050565b600082825260208201905092915050565b7f4f6e6c79206f6e65206f6620746865206f776e6572732068617320616363657360008201527f7320746f20746869732066756e6374696f6e616c6974792e0000000000000000602082015250565b60006200109560388362001026565b9150620010a28262001037565b604082019050919050565b60006020820190508181036000830152620010c88162001086565b9050919050565b600081519050919050565b60005b83811015620010fa578082015181840152602081019050620010dd565b60008484015250505050565b60006200111382620010cf565b6200111f818562001026565b935062001131818560208601620010da565b6200113c8162000a34565b840191505092915050565b620011528162000960565b82525050565b60006101008201905062001170600083018b62000a01565b6200117f602083018a62000a01565b818103604083015262001193818962001106565b90508181036060830152620011a9818862001106565b90508181036080830152620011bf818762001106565b905081810360a0830152620011d5818662001106565b9050620011e660c083018562001147565b620011f560e083018462001147565b9998505050505050505050565b7f4f6e6c79206f6e65206f6620746865207265676973747261727320686173206160008201527f636365737320746f20746869732066756e6374696f6e616c6974792e00000000602082015250565b600062001260603c8362001026565b91506200126d8262001202565b604082019050919050565b60006020820190508181036000830152620012938162001251565b905091905056fe60806040523480156200001157600080fd5b506040516200347a3803806200347a83398181016040528101906200003791906200038e565b87600460006101000a81548173ffffffffffffffffffffffffffffffffffffffff021916908373ffffffffffffffffffffffffffffffffffffffff16021790555086600560006101000a81548173ffffffffffffffffffffffffffffffffffffffff021916908373ffffffffffffffffffffffffffffffffffffffff16021790555060008060006101000a81548160ff02191690836003811115620000e157620000e0620004d3565b5b02179055508560066001019081620000fa919062000743565b5084600660020190816200010f919062000743565b50836006600301908162000124919062000743565b50826006600401908162000139919062000743565b508160066005018190555080600680018190555050505050505050506200082a565b6000604051905090565b600080fd5b600080fd5b600073ffffffffffffffffffffffffffffffffffffffff82169050919050565b60006200019c826200016f565b9050919050565b620001ae816200018f565b8114620001ba57600080fd5b50565b600081519050620001ce81620001a3565b92915050565b600080fd5b600080fd5b6000601f19601f8301169050919050565b7f4e487b7100000000000000000000000000000000000000000000000000000000600052604160045260246000fd5b6200022982620001de565b810181811067ffffffffffffffff821117156200024b576200024a620001ef565b5b80604052505050565b6000620002606200015b565b90506200026e82826200021e565b919050565b600067ffffffffffffffff821115620002915762000290620001ef565b5b6200029c82620001de565b9050602081019050919050565b60005b83811015620002c9578082015181840152602081019050620002ac565b60008484015250505050565b6000620002ec620002e68462000273565b62000254565b9050828152602081018484840111156200030b576200030a620001d9565b5b62000318848285620002a9565b509392505050565b600082601f830112620003385762000337620001d4565b5b81516200034a848260208601620002d5565b91505092915050565b6000819050919050565b620003688162000353565b81146200037457600080fd5b50565b60008151905062000388816200035d565b92915050565b600080600080600080600080610100898b031215620003b257620003b162000165565b5b6000620003c28b828c01620001bd565b9850506020620003d58b828c01620001bd565b975050604089015167ffffffffffffffff811115620003f957620003f86200016a565b5b620004078b828c0162000320565b965050606089015167ffffffffffffffff8111156200042b576200042a6200016a565b5b620004398b828c0162000320565b955050608089015167ffffffffffffffff8111156200045d576200045c6200016a565b5b6200046b8b828c0162000320565b94505060a089015167ffffffffffffffff8111156200048f576200048e6200016a565b5b6200049d8b828c0162000320565b93505060c0620004b08b828c0162000377565b92505060e0620004c38b828c0162000377565b9150509295985092959890939650565b7f4e487b7100000000000000000000000000000000000000000000000000000000600052602160045260246000fd5b600081519050919050565b7f4e487b7100000000000000000000000000000000000000000000000000000000600052602260045260246000fd5b600060028204905060018216806200055557607f821691505b6020821081036200056b576200056a6200050d565b5b50919050565b60008190508160005260206000209050919050565b60006020601f8301049050919050565b600082821b905092915050565b600060088302620005d57fffffffffffffffffffffffffffffffffffffffffffffffffffffffffffffffff8262000596565b620005e1868362000596565b95508019841693508086168417925050509392505050565b6000819050919050565b6000620006246200061e620006188462000353565b620005f9565b62000353565b9050919050565b6000819050919050565b620006408362000603565b620006586200064f826200062b565b848454620005a3565b825550505050565b600090565b6200066f62000660565b6200067c81848462000635565b505050565b5b81811015620006a4576200069860008262000665565b60018101905062000682565b5050565b601f821115620006f357620006bd8162000571565b620006c88462000586565b81016020851015620006d8578190505b620006f0620006e78562000586565b83018262000681565b50505b505050565b600082821c905092915050565b60006200071860001984600802620006f8565b1980831691505092915050565b600062000733838362000705565b9150826002028217905092915050565b6200074e8262000502565b67ffffffffffffffff8111156200076a5762000769620001ef565b5b6200077682546200053c565b62000783828285620006a8565b600060209050601f831160018114620007bb5760008415620007a6578287015190505b620007b2858262000725565b86555062000822565b601f198416620007cb8662000571565b60005b82811015620007f557848901518255600182019150602085019450602081019050620007ce565b8683101562000815578489015162000811601f89168262000705565b8355505b6001600288020188555050505b505050505050565b612c40806200083a6000396000f3fe6080604052600436106101385760003560e01c80638d97bee8116100ab578063ab134bed1161006f578063ab134bed1461071c578063b3cbb32c14610747578063b6366d9214610784578063bac9cad5146107ad578063daca4eef146107d8578063f5cfb0321461080757610459565b80638d97bee8146106475780638da5cb5b1461067057806394a81f011461069b57806397035a07146106c65780639dfc9117146106ef57610459565b80635293c838116100fd5780635293c83814610537578063536f5c361461057457806372b501091461059f57806378b3c71e146105c857806385209ee0146105f3578063853295171461061e57610459565b80627dc3721461045e57806302d05d3f1461048f5780633d7a4492146104ba57806341fa1766146104e3578063446a4fe91461050c57610459565b366104595760006006811115610151576101506118fb565b5b600660000160009054906101000a900460ff166006811115610176576101756118fb565b5b14806101b8575060036006811115610191576101906118fb565b5b600660000160009054906101000a900460ff1660068111156101b6576101b56118fb565b5b145b6101f7576040517f08c379a00000000000000000000000000000000000000000000000000000000081526004016101ee906119ad565b60405180910390fd5b6002600381111561020b5761020a6118fb565b5b60008054906101000a900460ff16600381111561022b5761022a6118fb565b5b1461026b576040517f08c379a000000000000000000000000000000000000000000000000000000000815260040161026290611a19565b60405180910390fd5b60038081111561027e5761027d6118fb565b5b60008054906101000a900460ff16600381111561029e5761029d6118fb565b5b036102de576040517f08c379a00000000000000000000000000000000000000000000000000000000081526004016102d590611aab565b60405180910390fd5b600060035460126102ef9190611b04565b600a6102fb9190611c6b565b6002546103089190611cb6565b670de0b6b3a764000060015461031e9190611cb6565b6103289190611d10565b9050803373ffffffffffffffffffffffffffffffffffffffff16311015610384576040517f08c379a000000000000000000000000000000000000000000000000000000000815260040161037b90611d90565b60405180910390fd5b600560009054906101000a900473ffffffffffffffffffffffffffffffffffffffff1673ffffffffffffffffffffffffffffffffffffffff166108fc349081150290604051600060405180830381858888f193505050501580156103ec573d6000803e3d6000fd5b5060016000806101000a81548160ff02191690836003811115610412576104116118fb565b5b021790555033600560006101000a81548173ffffffffffffffffffffffffffffffffffffffff021916908373ffffffffffffffffffffffffffffffffffffffff1602179055005b600080fd5b34801561046a57600080fd5b50610473610830565b6040516104869796959493929190611e86565b60405180910390f35b34801561049b57600080fd5b506104a4610a8d565b6040516104b19190611f52565b60405180910390f35b3480156104c657600080fd5b506104e160048036038101906104dc91906120b6565b610ab3565b005b3480156104ef57600080fd5b5061050a6004803603810190610505919061217f565b610c27565b005b34801561051857600080fd5b50610521610dc3565b60405161052e9190612215565b60405180910390f35b34801561054357600080fd5b5061055e60048036038101906105599190612316565b610dcc565b60405161056b9190612215565b60405180910390f35b34801561058057600080fd5b50610589610e2f565b604051610596919061238e565b60405180910390f35b3480156105ab57600080fd5b506105c660048036038101906105c1919061240c565b610e83565b005b3480156105d457600080fd5b506105dd611046565b6040516105ea919061238e565b60405180910390f35b3480156105ff57600080fd5b5061060861104c565b6040516106159190612494565b60405180910390f35b34801561062a57600080fd5b50610645600480360381019061064091906124af565b61105d565b005b34801561065357600080fd5b5061066e60048036038101906106699190612502565b6111c1565b005b34801561067c57600080fd5b50610685611345565b6040516106929190611f52565b60405180910390f35b3480156106a757600080fd5b506106b061136b565b6040516106bd9190612215565b60405180910390f35b3480156106d257600080fd5b506106ed60048036038101906106e89190612542565b611374565b005b3480156106fb57600080fd5b506107046114ee565b6040516107139392919061256f565b60405180910390f35b34801561072857600080fd5b50610731611552565b60405161073e919061238e565b60405180910390f35b34801561075357600080fd5b5061076e600480360381019061076991906120b6565b611558565b60405161077b9190612215565b60405180910390f35b34801561079057600080fd5b506107ab60048036038101906107a691906125a6565b6115c4565b005b3480156107b957600080fd5b506107c261171a565b6040516107cf919061238e565b60405180910390f35b3480156107e457600080fd5b506107ed611720565b6040516107fe9594939291906125d3565b60405180910390f35b34801561081357600080fd5b5061082e60048036038101906108299190612626565b611785565b005b60068060000160009054906101000a900460ff169080600101805461085490612682565b80601f016020809104026020016040519081016040528092919081815260200182805461088090612682565b80156108cd5780601f106108a2576101008083540402835291602001916108cd565b820191906000526020600020905b8154815290600101906020018083116108b057829003601f168201915b5050505050908060020180546108e290612682565b80601f016020809104026020016040519081016040528092919081815260200182805461090e90612682565b801561095b5780601f106109305761010080835404028352916020019161095b565b820191906000526020600020905b81548152906001019060200180831161093e57829003601f168201915b50505050509080600301805461097090612682565b80601f016020809104026020016040519081016040528092919081815260200182805461099c90612682565b80156109e95780601f106109be576101008083540402835291602001916109e9565b820191906000526020600020905b8154815290600101906020018083116109cc57829003601f168201915b5050505050908060040180546109fe90612682565b80601f0160208091040260200160405190810160405280929190818152602001828054610a2a90612682565b8015610a775780601f10610a4c57610100808354040283529160200191610a77565b820191906000526020600020905b815481529060010190602001808311610a5a57829003601f168201915b5050505050908060050154908060060154905087565b600460009054906101000a900473ffffffffffffffffffffffffffffffffffffffff1681565b610abb61136b565b610afa576040517f08c379a0000000000000000000000000000000000000000000000000000000008152600401610af190612725565b60405180910390fd5b600560009054906101000a900473ffffffffffffffffffffffffffffffffffffffff1673ffffffffffffffffffffffffffffffffffffffff163373ffffffffffffffffffffffffffffffffffffffff1614610b8a576040517f08c379a0000000000000000000000000000000000000000000000000000000008152600401610b81906127b7565b60405180910390fd5b600380811115610b9d57610b9c6118fb565b5b60008054906101000a900460ff166003811115610bbd57610bbc6118fb565b5b03610bfd576040517f08c379a0000000000000000000000000000000000000000000000000000000008152600401610bf490611aab565b60405180910390fd5b8160066003019081610c0f9190612983565b508060066004019081610c229190612983565b505050565b610c2f61136b565b610c6e576040517f08c379a0000000000000000000000000000000000000000000000000000000008152600401610c6590612725565b60405180910390fd5b600560009054906101000a900473ffffffffffffffffffffffffffffffffffffffff1673ffffffffffffffffffffffffffffffffffffffff163373ffffffffffffffffffffffffffffffffffffffff1614610cfe576040517f08c379a0000000000000000000000000000000000000000000000000000000008152600401610cf5906127b7565b60405180910390fd5b600380811115610d1157610d106118fb565b5b60008054906101000a900460ff166003811115610d3157610d306118fb565b5b03610d71576040517f08c379a0000000000000000000000000000000000000000000000000000000008152600401610d6890611aab565b60405180910390fd5b84600181905550836002819055508260038190555081600660000160006101000a81548160ff02191690836006811115610dae57610dad6118fb565b5b02179055508060068001819055505050505050565b60006001905090565b600080600090505b8251811015610e2357610e0184848381518110610df457610df3612a55565b5b6020026020010151611558565b15610e10576001915050610e29565b8080610e1b90612a84565b915050610dd4565b50600090505b92915050565b6000806003546012610e419190611b04565b600a610e4d9190611c6b565b600254610e5a9190611cb6565b670de0b6b3a7640000600154610e709190611cb6565b610e7a9190611d10565b90508091505090565b60011515600460009054906101000a900473ffffffffffffffffffffffffffffffffffffffff1673ffffffffffffffffffffffffffffffffffffffff1663f33c4ff9336040518263ffffffff1660e01b8152600401610ee29190611f52565b602060405180830381865afa158015610eff573d6000803e3d6000fd5b505050506040513d601f19601f82011682018060405250810190610f239190612af8565b151514610f65576040517f08c379a0000000000000000000000000000000000000000000000000000000008152600401610f5c90612b97565b60405180910390fd5b600380811115610f7857610f776118fb565b5b60008054906101000a900460ff166003811115610f9857610f976118fb565b5b03610fd8576040517f08c379a0000000000000000000000000000000000000000000000000000000008152600401610fcf90611aab565b60405180910390fd5b81600560006101000a81548173ffffffffffffffffffffffffffffffffffffffff021916908373ffffffffffffffffffffffffffffffffffffffff160217905550806000806101000a81548160ff0219169083600381111561103d5761103c6118fb565b5b02179055505050565b60025481565b60008054906101000a900460ff1681565b61106561136b565b6110a4576040517f08c379a000000000000000000000000000000000000000000000000000000000815260040161109b90612725565b60405180910390fd5b600560009054906101000a900473ffffffffffffffffffffffffffffffffffffffff1673ffffffffffffffffffffffffffffffffffffffff163373ffffffffffffffffffffffffffffffffffffffff1614611134576040517f08c379a000000000000000000000000000000000000000000000000000000000815260040161112b906127b7565b60405180910390fd5b600380811115611147576111466118fb565b5b60008054906101000a900460ff166003811115611167576111666118fb565b5b036111a7576040517f08c379a000000000000000000000000000000000000000000000000000000000815260040161119e90611aab565b60405180910390fd5b826001819055508160028190555080600381905550505050565b600560009054906101000a900473ffffffffffffffffffffffffffffffffffffffff1673ffffffffffffffffffffffffffffffffffffffff163373ffffffffffffffffffffffffffffffffffffffff1614611251576040517f08c379a0000000000000000000000000000000000000000000000000000000008152600401611248906127b7565b60405180910390fd5b61125961136b565b611298576040517f08c379a000000000000000000000000000000000000000000000000000000000815260040161128f90612725565b60405180910390fd5b6003808111156112ab576112aa6118fb565b5b60008054906101000a900460ff1660038111156112cb576112ca6118fb565b5b0361130b576040517f08c379a000000000000000000000000000000000000000000000000000000000815260040161130290611aab565b60405180910390fd5b81600660000160006101000a81548160ff02191690836006811115611333576113326118fb565b5b02179055508060068001819055505050565b600560009054906101000a900473ffffffffffffffffffffffffffffffffffffffff1681565b60006001905090565b61137c61136b565b6113bb576040517f08c379a00000000000000000000000000000000000000000000000000000000081526004016113b290612725565b60405180910390fd5b600560009054906101000a900473ffffffffffffffffffffffffffffffffffffffff1673ffffffffffffffffffffffffffffffffffffffff163373ffffffffffffffffffffffffffffffffffffffff161461144b576040517f08c379a0000000000000000000000000000000000000000000000000000000008152600401611442906127b7565b60405180910390fd5b60038081111561145e5761145d6118fb565b5b60008054906101000a900460ff16600381111561147e5761147d6118fb565b5b036114be576040517f08c379a00000000000000000000000000000000000000000000000000000000081526004016114b590611aab565b60405180910390fd5b80600660000160006101000a81548160ff021916908360068111156114e6576114e56118fb565b5b021790555050565b6000806000600460009054906101000a900473ffffffffffffffffffffffffffffffffffffffff16600560009054906101000a900473ffffffffffffffffffffffffffffffffffffffff1660008054906101000a900460ff16925092509250909192565b60015481565b6000815183511461156c57600090506115be565b8160405160200161157d9190612bf3565b60405160208183030381529060405280519060200120836040516020016115a49190612bf3565b604051602081830303815290604052805190602001201490505b92915050565b6115cc61136b565b61160b576040517f08c379a000000000000000000000000000000000000000000000000000000000815260040161160290612725565b60405180910390fd5b600560009054906101000a900473ffffffffffffffffffffffffffffffffffffffff1673ffffffffffffffffffffffffffffffffffffffff163373ffffffffffffffffffffffffffffffffffffffff161461169b576040517f08c379a0000000000000000000000000000000000000000000000000000000008152600401611692906127b7565b60405180910390fd5b6003808111156116ae576116ad6118fb565b5b60008054906101000a900460ff1660038111156116ce576116cd6118fb565b5b0361170e576040517f08c379a000000000000000000000000000000000000000000000000000000000815260040161170590611aab565b60405180910390fd5b80600680018190555050565b60035481565b600d8060000160009054906101000a900460ff16908060000160019054906101000a900460ff16908060000160029054906101000a900460ff16908060000160039054906101000a900460ff16908060000160049054906101000a900460ff16905085565b61178d61136b565b6117cc576040517f08c379a00000000000000000000000000000000000000000000000000000000081526004016117c390612725565b60405180910390fd5b600560009054906101000a900473ffffffffffffffffffffffffffffffffffffffff1673ffffffffffffffffffffffffffffffffffffffff163373ffffffffffffffffffffffffffffffffffffffff161461185c576040517f08c379a0000000000000000000000000000000000000000000000000000000008152600401611853906127b7565b60405180910390fd5b60038081111561186f5761186e6118fb565b5b60008054906101000a900460ff16600381111561188f5761188e6118fb565b5b036118cf576040517f08c379a00000000000000000000000000000000000000000000000000000000081526004016118c690611aab565b60405180910390fd5b806000806101000a81548160ff021916908360038111156118f3576118f26118fb565b5b021790555050565b7f4e487b7100000000000000000000000000000000000000000000000000000000600052602160045260246000fd5b600082825260208201905092915050565b7f546869732070726f706572747927732074656e757265207479706520646f657360008201527f206e6f7420737570706f7274206265696e6720736f6c64000000000000000000602082015250565b600061199760378361192a565b91506119a28261193b565b604082019050919050565b600060208201905081810360008301526119c68161198a565b9050919050565b7f546869732070726f7065727479206973206e6f7420666f722073616c652e0000600082015250565b6000611a03601e8361192a565b9150611a0e826119cd565b602082019050919050565b60006020820190508181036000830152611a32816119f6565b9050919050565b7f546869732050726f7065727479205469746c6520436f6e74726163742069732060008201527f6e6f206c6f6e6765722072656c6176616e740000000000000000000000000000602082015250565b6000611a9560328361192a565b9150611aa082611a39565b604082019050919050565b60006020820190508181036000830152611ac481611a88565b9050919050565b6000819050919050565b7f4e487b7100000000000000000000000000000000000000000000000000000000600052601160045260246000fd5b6000611b0f82611acb565b9150611b1a83611acb565b9250828203905081811115611b3257611b31611ad5565b5b92915050565b60008160011c9050919050565b6000808291508390505b6001851115611b8f57808604811115611b6b57611b6a611ad5565b5b6001851615611b7a5780820291505b8081029050611b8885611b38565b9450611b4f565b94509492505050565b600082611ba85760019050611c64565b81611bb65760009050611c64565b8160018114611bcc5760028114611bd657611c05565b6001915050611c64565b60ff841115611be857611be7611ad5565b5b8360020a915084821115611bff57611bfe611ad5565b5b50611c64565b5060208310610133831016604e8410600b8410161715611c3a5782820a905083811115611c3557611c34611ad5565b5b611c64565b611c478484846001611b45565b92509050818404811115611c5e57611c5d611ad5565b5b81810290505b9392505050565b6000611c7682611acb565b9150611c8183611acb565b9250611cae7fffffffffffffffffffffffffffffffffffffffffffffffffffffffffffffffff8484611b98565b905092915050565b6000611cc182611acb565b9150611ccc83611acb565b9250817fffffffffffffffffffffffffffffffffffffffffffffffffffffffffffffffff0483118215151615611d0557611d04611ad5565b5b828202905092915050565b6000611d1b82611acb565b9150611d2683611acb565b9250828201905080821115611d3e57611d3d611ad5565b5b92915050565b7f496e73756666696369656e742066756e64730000000000000000000000000000600082015250565b6000611d7a60128361192a565b9150611d8582611d44565b602082019050919050565b60006020820190508181036000830152611da981611d6d565b9050919050565b60078110611dc157611dc06118fb565b5b50565b6000819050611dd282611db0565b919050565b6000611de282611dc4565b9050919050565b611df281611dd7565b82525050565b600081519050919050565b60005b83811015611e21578082015181840152602081019050611e06565b60008484015250505050565b6000601f19601f8301169050919050565b6000611e4982611df8565b611e53818561192a565b9350611e63818560208601611e03565b611e6c81611e2d565b840191505092915050565b611e8081611acb565b82525050565b600060e082019050611e9b600083018a611de9565b8181036020830152611ead8189611e3e565b90508181036040830152611ec18188611e3e565b90508181036060830152611ed58187611e3e565b90508181036080830152611ee98186611e3e565b9050611ef860a0830185611e77565b611f0560c0830184611e77565b98975050505050505050565b600073ffffffffffffffffffffffffffffffffffffffff82169050919050565b6000611f3c82611f11565b9050919050565b611f4c81611f31565b82525050565b6000602082019050611f676000830184611f43565b92915050565b6000604051905090565b600080fd5b600080fd5b600080fd5b600080fd5b7f4e487b7100000000000000000000000000000000000000000000000000000000600052604160045260246000fd5b611fc382611e2d565b810181811067ffffffffffffffff82111715611fe257611fe1611f8b565b5b80604052505050565b6000611ff5611f6d565b90506120018282611fba565b919050565b600067ffffffffffffffff82111561202157612020611f8b565b5b61202a82611e2d565b9050602081019050919050565b82818337600083830152505050565b600061205961205484612006565b611feb565b90508281526020810184848401111561207557612074611f86565b5b612080848285612037565b509392505050565b600082601f83011261209d5761209c611f81565b5b81356120ad848260208601612046565b91505092915050565b600080604083850312156120cd576120cc611f77565b5b600083013567ffffffffffffffff8111156120eb576120ea611f7c565b5b6120f785828601612088565b925050602083013567ffffffffffffffff81111561211857612117611f7c565b5b61212485828601612088565b9150509250929050565b61213781611acb565b811461214257600080fd5b50565b6000813590506121548161212e565b92915050565b6007811061216757600080fd5b50565b6000813590506121798161215a565b92915050565b600080600080600060a0868803121561219b5761219a611f77565b5b60006121a988828901612145565b95505060206121ba88828901612145565b94505060406121cb88828901612145565b93505060606121dc8882890161216a565b92505060806121ed88828901612145565b9150509295509295909350565b60008115159050919050565b61220f816121fa565b82525050565b600060208201905061222a6000830184612206565b92915050565b600067ffffffffffffffff82111561224b5761224a611f8b565b5b602082029050602081019050919050565b600080fd5b600061227461226f84612230565b611feb565b905080838252602082019050602084028301858111156122975761229661225c565b5b835b818110156122de57803567ffffffffffffffff8111156122bc576122bb611f81565b5b8086016122c98982612088565b85526020850194505050602081019050612299565b5050509392505050565b600082601f8301126122fd576122fc611f81565b5b813561230d848260208601612261565b91505092915050565b6000806040838503121561232d5761232c611f77565b5b600083013567ffffffffffffffff81111561234b5761234a611f7c565b5b61235785828601612088565b925050602083013567ffffffffffffffff81111561237857612377611f7c565b5b612384858286016122e8565b9150509250929050565b60006020820190506123a36000830184611e77565b92915050565b60006123b482611f11565b9050919050565b6123c4816123a9565b81146123cf57600080fd5b50565b6000813590506123e1816123bb565b92915050565b600481106123f457600080fd5b50565b600081359050612406816123e7565b92915050565b6000806040838503121561242357612422611f77565b5b6000612431858286016123d2565b9250506020612442858286016123f7565b9150509250929050565b6004811061245d5761245c6118fb565b5b50565b600081905061246e8261244c565b919050565b600061247e82612460565b9050919050565b61248e81612473565b82525050565b60006020820190506124a96000830184612485565b92915050565b6000806000606084860312156124c8576124c7611f77565b5b60006124d686828701612145565b93505060206124e786828701612145565b92505060406124f886828701612145565b9150509250925092565b6000806040838503121561251957612518611f77565b5b60006125278582860161216a565b925050602061253885828601612145565b9150509250929050565b60006020828403121561255857612557611f77565b5b60006125668482850161216a565b91505092915050565b60006060820190506125846000830186611f43565b6125916020830185611f43565b61259e6040830184612485565b949350505050565b6000602082840312156125bc576125bb611f77565b5b60006125ca84828501612145565b91505092915050565b600060a0820190506125e86000830188612206565b6125f56020830187612206565b6126026040830186612206565b61260f6060830185612206565b61261c6080830184612206565b9695505050505050565b60006020828403121561263c5761263b611f77565b5b600061264a848285016123f7565b91505092915050565b7f4e487b7100000000000000000000000000000000000000000000000000000000600052602260045260246000fd5b6000600282049050600182168061269a57607f821691505b6020821081036126ad576126ac612653565b5b50919050565b7f5468652070726f7065727479206973206e6f74206c6567616c6c7920616c726960008201527f6768742e00000000000000000000000000000000000000000000000000000000602082015250565b600061270f60248361192a565b915061271a826126b3565b604082019050919050565b6000602082019050818103600083015261273e81612702565b9050919050565b7f4f6e6c7920746865206f776e6572206f662074686520436f6e7472616374206860008201527f61732061636365737320746f2074686973210000000000000000000000000000602082015250565b60006127a160328361192a565b91506127ac82612745565b604082019050919050565b600060208201905081810360008301526127d081612794565b9050919050565b60008190508160005260206000209050919050565b60006020601f8301049050919050565b600082821b905092915050565b6000600883026128397fffffffffffffffffffffffffffffffffffffffffffffffffffffffffffffffff826127fc565b61284386836127fc565b95508019841693508086168417925050509392505050565b6000819050919050565b600061288061287b61287684611acb565b61285b565b611acb565b9050919050565b6000819050919050565b61289a83612865565b6128ae6128a682612887565b848454612809565b825550505050565b600090565b6128c36128b6565b6128ce818484612891565b505050565b5b818110156128f2576128e76000826128bb565b6001810190506128d4565b5050565b601f82111561293757612908816127d7565b612911846127ec565b81016020851015612920578190505b61293461292c856127ec565b8301826128d3565b50505b505050565b600082821c905092915050565b600061295a6000198460080261293c565b1980831691505092915050565b60006129738383612949565b9150826002028217905092915050565b61298c82611df8565b67ffffffffffffffff8111156129a5576129a4611f8b565b5b6129af8254612682565b6129ba8282856128f6565b600060209050601f8311600181146129ed57600084156129db578287015190505b6129e58582612967565b865550612a4d565b601f1984166129fb866127d7565b60005b82811015612a23578489015182556001820191506020850194506020810190506129fe565b86831015612a405784890151612a3c601f891682612949565b8355505b6001600288020188555050505b505050505050565b7f4e487b7100000000000000000000000000000000000000000000000000000000600052603260045260246000fd5b6000612a8f82611acb565b91507fffffffffffffffffffffffffffffffffffffffffffffffffffffffffffffffff8203612ac157612ac0611ad5565b5b600182019050919050565b612ad5816121fa565b8114612ae057600080fd5b50565b600081519050612af281612acc565b92915050565b600060208284031215612b0e57612b0d611f77565b5b6000612b1c84828501612ae3565b91505092915050565b7f4f6e6c792061207265676973746572656420726567697374726172206861732060008201527f61636365737320746f207468697320616374696f6e2e00000000000000000000602082015250565b6000612b8160368361192a565b9150612b8c82612b25565b604082019050919050565b60006020820190508181036000830152612bb081612b74565b9050919050565b600081905092915050565b6000612bcd82611df8565b612bd78185612bb7565b9350612be7818560208601611e03565b80840191505092915050565b6000612bff8284612bc2565b91508190509291505056fea2646970667358221220ee927e0f9aa5285f84e6cb3425cf1f44a9821513c1c532a3cc39d16a9c8a7c2f64736f6c63430008100033a26469706673582212209f55d636a7ca1224baaf2a933d708fb9802e419c3545dc59ab67ef5c90c9a5aa64736f6c63430008100033",
  "immutableReferences": {},
  "source": "//SPDX-License-Identifier: MIT\r\npragma solidity ^0.8.15;\r\n\r\nimport \"./PropertyTitle.sol\";\r\n\r\n\r\ncontract TitleCreatingContract {\r\n    address[] public owners;\r\n    mapping (address => bool) public registrars;\r\n    address[] public titleContracts;\r\n    mapping (address => bool) public propertyTitleContractsValidaty;\r\n\r\n    constructor(address[] memory _owners)\r\n    {\r\n        for (uint256 i = 0; i < _owners.length; i++) {\r\n            owners.push(_owners[i]);\r\n        }\r\n    }\r\n\r\n    function addRegistrars(address[] memory _registrars) public onlyOwner {\r\n        for (uint256 i = 0; i < _registrars.length; i++) {\r\n            registrars[_registrars[i]] = true;\r\n        }\r\n    }\r\n\r\n    function removeRegistrars(address[] memory _registrars) public onlyOwner {\r\n        for (uint256 i = 0; i < _registrars.length; i++) {\r\n            registrars[_registrars[i]] = false;\r\n        }\r\n    }\r\n\r\n    function deployNewPropertyTitle(\r\n        address _owner,\r\n        string memory _country,\r\n        string memory _city,\r\n        string memory _street,\r\n        string memory _streeNumber,\r\n        uint256 _apartmentNumber,\r\n        uint256 _squareMeters\r\n    )\r\n        public\r\n    {\r\n        PropertyTitle propertyTitle = new PropertyTitle(\r\n            address(this),\r\n            _owner,\r\n            _country,\r\n            _city,\r\n            _street,\r\n            _streeNumber,\r\n            _apartmentNumber,\r\n            _squareMeters\r\n        );\r\n        titleContracts.push(address(propertyTitle));\r\n        propertyTitleContractsValidaty[address(propertyTitle)] = false;\r\n    }\r\n\r\n    function validatePropertyTitleContract(address _contractAddress) public onlyRegistrar {\r\n        propertyTitleContractsValidaty[_contractAddress] = true;\r\n    }\r\n\r\n    function checkIfUserIsRegistrar(address _userAddress) public view returns (bool) {\r\n        if (registrars[_userAddress] == true) {\r\n            return true;\r\n        }\r\n        return false;\r\n    }\r\n\r\n    function getContractOwners() public view returns (address[] memory) {\r\n        return owners;\r\n    }\r\n\r\n    modifier onlyRegistrar {\r\n        require(registrars[msg.sender] == true, \"Only one of the registrars has access to this functionality.\");\r\n        _;\r\n    }\r\n\r\n    modifier onlyOwner {\r\n        bool confirmedOwner = false;\r\n        for (uint256 i = 0; i < owners.length; i++) {\r\n            if (msg.sender == owners[i]) {\r\n                confirmedOwner = true;\r\n                break;\r\n            }\r\n        }\r\n        require(confirmedOwner == true, \"Only one of the owners has access to this functionality.\");\r\n        _;\r\n    }\r\n}",
  "sourcePath": "D:\\Propty\\propty\\contracts\\contracts\\TitleCreatingContract.sol",
  "compiler": {
    "name": "solc",
    "version": "0.8.16+commit.07a7930e.Emscripten.clang"
  },
  "schemaVersion": "3.4.9",
  "updatedAt": "2022-10-30T05:52:39.864Z",
  "networkType": "ethereum",
  "devdoc": {
    "kind": "dev",
    "methods": {},
    "version": 1
  },
  "userdoc": {
    "kind": "user",
    "methods": {},
    "version": 1
  }
}