{
  "contractName": "TitleCreatingContract",
  "abi": [
    {
      "inputs": [
        {
          "internalType": "address[]",
          "name": "_owners",
          "type": "address[]"
        }
      ],
      "stateMutability": "nonpayable",
      "type": "constructor"
    },
    {
      "inputs": [
        {
          "internalType": "address",
          "name": "",
          "type": "address"
        }
      ],
      "name": "isOwner",
      "outputs": [
        {
          "internalType": "bool",
          "name": "",
          "type": "bool"
        }
      ],
      "stateMutability": "view",
      "type": "function",
      "constant": true
    },
    {
      "inputs": [
        {
          "internalType": "address",
          "name": "",
          "type": "address"
        }
      ],
      "name": "isRegistrar",
      "outputs": [
        {
          "internalType": "bool",
          "name": "",
          "type": "bool"
        }
      ],
      "stateMutability": "view",
      "type": "function",
      "constant": true
    },
    {
      "inputs": [
        {
          "internalType": "uint256",
          "name": "",
          "type": "uint256"
        }
      ],
      "name": "owners",
      "outputs": [
        {
          "internalType": "address",
          "name": "",
          "type": "address"
        }
      ],
      "stateMutability": "view",
      "type": "function",
      "constant": true
    },
    {
      "inputs": [
        {
          "internalType": "address",
          "name": "",
          "type": "address"
        }
      ],
      "name": "propertyTitleContractsValidity",
      "outputs": [
        {
          "internalType": "bool",
          "name": "",
          "type": "bool"
        }
      ],
      "stateMutability": "view",
      "type": "function",
      "constant": true
    },
    {
      "inputs": [
        {
          "internalType": "uint256",
          "name": "",
          "type": "uint256"
        }
      ],
      "name": "registrars",
      "outputs": [
        {
          "internalType": "address",
          "name": "",
          "type": "address"
        }
      ],
      "stateMutability": "view",
      "type": "function",
      "constant": true
    },
    {
      "inputs": [
        {
          "internalType": "uint256",
          "name": "",
          "type": "uint256"
        }
      ],
      "name": "titleContracts",
      "outputs": [
        {
          "internalType": "address",
          "name": "",
          "type": "address"
        }
      ],
      "stateMutability": "view",
      "type": "function",
      "constant": true
    },
    {
      "inputs": [
        {
          "internalType": "address[]",
          "name": "_registrars",
          "type": "address[]"
        }
      ],
      "name": "addRegistrars",
      "outputs": [],
      "stateMutability": "nonpayable",
      "type": "function"
    },
    {
      "inputs": [
        {
          "internalType": "address[]",
          "name": "_registrars",
          "type": "address[]"
        }
      ],
      "name": "removeRegistrarRole",
      "outputs": [],
      "stateMutability": "nonpayable",
      "type": "function"
    },
    {
      "inputs": [
        {
          "internalType": "address[]",
          "name": "_registrars",
          "type": "address[]"
        }
      ],
      "name": "reactivateRegistrarRole",
      "outputs": [],
      "stateMutability": "nonpayable",
      "type": "function"
    },
    {
      "inputs": [
        {
          "internalType": "address",
          "name": "_owner",
          "type": "address"
        },
        {
          "internalType": "string",
          "name": "_country",
          "type": "string"
        },
        {
          "internalType": "string",
          "name": "_city",
          "type": "string"
        },
        {
          "internalType": "string",
          "name": "_street",
          "type": "string"
        },
        {
          "internalType": "string",
          "name": "_streeNumber",
          "type": "string"
        },
        {
          "internalType": "uint256",
          "name": "_apartmentNumber",
          "type": "uint256"
        },
        {
          "internalType": "uint256",
          "name": "_squareMeters",
          "type": "uint256"
        },
        {
          "internalType": "uint256",
          "name": "_sellingPriceIntegralPart",
          "type": "uint256"
        },
        {
          "internalType": "uint256",
          "name": "_sellingPriceFractionalPart",
          "type": "uint256"
        },
        {
          "internalType": "uint256",
          "name": "_sellingPriceFractionalPartLength",
          "type": "uint256"
        }
      ],
      "name": "deployNewPropertyTitle",
      "outputs": [],
      "stateMutability": "nonpayable",
      "type": "function"
    },
    {
      "inputs": [
        {
          "internalType": "address",
          "name": "_contractAddress",
          "type": "address"
        }
      ],
      "name": "validatePropertyTitleContract",
      "outputs": [],
      "stateMutability": "nonpayable",
      "type": "function"
    },
    {
      "inputs": [
        {
          "internalType": "address",
          "name": "userAddress",
          "type": "address"
        }
      ],
      "name": "checkIfUserIsOwner",
      "outputs": [
        {
          "internalType": "bool",
          "name": "",
          "type": "bool"
        }
      ],
      "stateMutability": "view",
      "type": "function",
      "constant": true
    },
    {
      "inputs": [
        {
          "internalType": "address",
          "name": "userAddress",
          "type": "address"
        }
      ],
      "name": "checkIfUserIsRegistrar",
      "outputs": [
        {
          "internalType": "bool",
          "name": "",
          "type": "bool"
        }
      ],
      "stateMutability": "view",
      "type": "function",
      "constant": true
    },
    {
      "inputs": [],
      "name": "getContractOwners",
      "outputs": [
        {
          "internalType": "address[]",
          "name": "",
          "type": "address[]"
        }
      ],
      "stateMutability": "view",
      "type": "function",
      "constant": true
    },
    {
      "inputs": [],
      "name": "getContractRegistrars",
      "outputs": [
        {
          "internalType": "address[]",
          "name": "",
          "type": "address[]"
        }
      ],
      "stateMutability": "view",
      "type": "function",
      "constant": true
    },
    {
      "inputs": [],
      "name": "getTitleContracts",
      "outputs": [
        {
          "internalType": "address[]",
          "name": "",
          "type": "address[]"
        }
      ],
      "stateMutability": "view",
      "type": "function",
      "constant": true
    },
    {
      "inputs": [],
      "name": "getPendingTitleContractsCount",
      "outputs": [
        {
          "internalType": "uint256",
          "name": "",
          "type": "uint256"
        }
      ],
      "stateMutability": "view",
      "type": "function",
      "constant": true
    },
    {
      "inputs": [
        {
          "internalType": "string",
          "name": "addressToSearchFor",
          "type": "string"
        }
      ],
      "name": "getActiveContractsByAddressCount",
      "outputs": [
        {
          "internalType": "uint256",
          "name": "",
          "type": "uint256"
        }
      ],
      "stateMutability": "view",
      "type": "function",
      "constant": true
    },
    {
      "inputs": [],
      "name": "getActiveContractsCount",
      "outputs": [
        {
          "internalType": "uint256",
          "name": "",
          "type": "uint256"
        }
      ],
      "stateMutability": "view",
      "type": "function",
      "constant": true
    },
    {
      "inputs": [],
      "name": "getPendingTitleContracts",
      "outputs": [
        {
          "internalType": "address[]",
          "name": "",
          "type": "address[]"
        }
      ],
      "stateMutability": "view",
      "type": "function",
      "constant": true
    },
    {
      "inputs": [
        {
          "internalType": "uint256",
          "name": "offset",
          "type": "uint256"
        },
        {
          "internalType": "uint256",
          "name": "limit",
          "type": "uint256"
        }
      ],
      "name": "getPendingContractsByOffsetAndLimit",
      "outputs": [
        {
          "internalType": "address[]",
          "name": "",
          "type": "address[]"
        }
      ],
      "stateMutability": "view",
      "type": "function",
      "constant": true
    },
    {
      "inputs": [],
      "name": "getActiveTitleContracts",
      "outputs": [
        {
          "internalType": "address[]",
          "name": "",
          "type": "address[]"
        }
      ],
      "stateMutability": "view",
      "type": "function",
      "constant": true
    },
    {
      "inputs": [
        {
          "internalType": "string",
          "name": "addressToSearchFor",
          "type": "string"
        }
      ],
      "name": "getActiveContractsByAddress",
      "outputs": [
        {
          "internalType": "address[]",
          "name": "",
          "type": "address[]"
        }
      ],
      "stateMutability": "view",
      "type": "function",
      "constant": true
    },
    {
      "inputs": [
        {
          "internalType": "string",
          "name": "addressToSearchFor",
          "type": "string"
        },
        {
          "internalType": "uint256",
          "name": "offset",
          "type": "uint256"
        },
        {
          "internalType": "uint256",
          "name": "limit",
          "type": "uint256"
        }
      ],
      "name": "getActiveContractsByAddressAndOffsetAndLimit",
      "outputs": [
        {
          "internalType": "address[]",
          "name": "",
          "type": "address[]"
        }
      ],
      "stateMutability": "view",
      "type": "function",
      "constant": true
    },
    {
      "inputs": [
        {
          "internalType": "string",
          "name": "stringToSearchIn",
          "type": "string"
        },
        {
          "internalType": "string",
          "name": "stringToSearchFor",
          "type": "string"
        }
      ],
      "name": "stringContains",
      "outputs": [
        {
          "internalType": "bool",
          "name": "",
          "type": "bool"
        }
      ],
      "stateMutability": "pure",
      "type": "function",
      "constant": true
    }
  ],
  "bytecode": "0x60806040523480156200001157600080fd5b50604051620043da380380620043da833981016040819052620000349162000149565b60005b8151811015620000f55760008282815181106200005857620000586200021b565b6020908102919091018101518254600180820185556000948552928420018054600160a060020a031916600160a060020a03909216919091179055835190918291859085908110620000ae57620000ae6200021b565b602090810291909101810151600160a060020a03168252810191909152604001600020805460ff191691151591909117905580620000ec816200024a565b91505062000037565b50506200028b565b7f4e487b7100000000000000000000000000000000000000000000000000000000600052604160045260246000fd5b8051600160a060020a03811681146200014457600080fd5b919050565b600060208083850312156200015d57600080fd5b825167ffffffffffffffff808211156200017657600080fd5b818501915085601f8301126200018b57600080fd5b815181811115620001a057620001a0620000fd565b838102604051601f19603f83011681018181108582111715620001c757620001c7620000fd565b604052918252848201925083810185019188831115620001e657600080fd5b938501935b828510156200020f57620001ff856200012c565b84529385019392850192620001eb565b98975050505050505050565b7f4e487b7100000000000000000000000000000000000000000000000000000000600052603260045260246000fd5b60006001820162000284577f4e487b7100000000000000000000000000000000000000000000000000000000600052601160045260246000fd5b5060010190565b61413f806200029b6000396000f3fe60806040523480156200001157600080fd5b5060043610620001af576000357c0100000000000000000000000000000000000000000000000000000000900480635fcf3c77116200010d578063ce29b8cc11620000c0578063d5db72eb1162000097578063d5db72eb14620003ba578063ed63455c14620003e0578063f33c4ff914620003f7578063f972b7ce146200040e57600080fd5b8063ce29b8cc1462000380578063d2f683a314620003a6578063d4950d9114620003b057600080fd5b80635fcf3c7714620002f657806372118995146200030d57806395cc33391462000324578063a210bee2146200033b578063c2168c591462000352578063c70c17f3146200036957600080fd5b80632f54bf6e11620001665780632f54bf6e146200025957806333c368ed146200029057806333cf5ef814620002a75780633ab007ed14620002be5780634e7f335814620002d55780635a44e3b714620002df57600080fd5b8063017b799e14620001b4578063025e7c2714620001d6578063092854b514620002065780630e47dbd9146200021057806312f8383214620002295780632a58812e1462000240575b600080fd5b620001be62000418565b604051620001cd919062001929565b60405180910390f35b620001ed620001e73660046200196c565b6200047c565b604051600160a060020a039091168152602001620001cd565b620001be620004a7565b6200021a620006ef565b604051908152602001620001cd565b620001ed6200023a3660046200196c565b62000882565b620002576200025136600462001a77565b62000893565b005b6200027f6200026a36600462001b72565b60016020526000908152604090205460ff1681565b6040519015158152602001620001cd565b620001be620002a136600462001b97565b6200095c565b62000257620002b836600462001be9565b62000b23565b620001be620002cf36600462001ca2565b62000c6b565b6200021a62000e22565b620001be620002f036600462001ce3565b62000f01565b6200021a6200030736600462001ca2565b620010c4565b620002576200031e36600462001be9565b62001310565b620002576200033536600462001be9565b620013ba565b620001ed6200034c3660046200196c565b62001464565b620002576200036336600462001b72565b62001475565b6200027f6200037a36600462001b72565b62001528565b6200027f6200039136600462001b72565b60056020526000908152604090205460ff1681565b620001be6200155f565b620001be620016f1565b6200027f620003cb36600462001b72565b60036020526000908152604090205460ff1681565b6200027f620003f136600462001d06565b62001753565b6200027f6200040836600462001b72565b6200188b565b620001be620018b9565b606060048054806020026020016040519081016040528092919081815260200182805480156200047257602002820191906000526020600020905b8154600160a060020a0316815260019091019060200180831162000453575b5050505050905090565b600081815481106200048d57600080fd5b600091825260209091200154600160a060020a0316905081565b60606000620004b5620006ef565b67ffffffffffffffff811115620004d057620004d0620019a3565b604051908082528060200260200182016040528015620004fa578160200160208202803683370190505b5090506000805b600454811015620006e75760016004828154811062000524576200052462001d8a565b600091825260209182902001546040805160e560020a63042904f70281529051600160a060020a03909216926385209ee0926004808401938290030181865afa15801562000576573d6000803e3d6000fd5b505050506040513d601f19601f820116820180604052508101906200059c919062001da3565b6003811115620005b057620005b062001d71565b14806200065e5750600260048281548110620005d057620005d062001d8a565b600091825260209182902001546040805160e560020a63042904f70281529051600160a060020a03909216926385209ee0926004808401938290030181865afa15801562000622573d6000803e3d6000fd5b505050506040513d601f19601f8201168201806040525081019062000648919062001da3565b60038111156200065c576200065c62001d71565b145b15620006d257600481815481106200067a576200067a62001d8a565b600091825260209091200154600160a060020a031683836200069c8162001ddf565b945081518110620006b157620006b162001d8a565b6020026020010190600160a060020a03169081600160a060020a0316815250505b80620006de8162001ddf565b91505062000501565b509092915050565b600080805b6004548110156200087c5760016004828154811062000717576200071762001d8a565b600091825260209182902001546040805160e560020a63042904f70281529051600160a060020a03909216926385209ee0926004808401938290030181865afa15801562000769573d6000803e3d6000fd5b505050506040513d601f19601f820116820180604052508101906200078f919062001da3565b6003811115620007a357620007a362001d71565b1480620008515750600260048281548110620007c357620007c362001d8a565b600091825260209182902001546040805160e560020a63042904f70281529051600160a060020a03909216926385209ee0926004808401938290030181865afa15801562000815573d6000803e3d6000fd5b505050506040513d601f19601f820116820180604052508101906200083b919062001da3565b60038111156200084f576200084f62001d71565b145b15620008675781620008638162001ddf565b9250505b80620008738162001ddf565b915050620006f4565b50919050565b600281815481106200048d57600080fd5b6000308b8b8b8b8b8b8b8b8b8b604051620008ae906200191b565b620008c49b9a9998979695949392919062001e4f565b604051809103906000f080158015620008e1573d6000803e3d6000fd5b5060048054600181019091557f8a35acfbc15ff81a39ae7d344fd709f28e8600b4aa8c65c6b64bfe7fe36bd19b018054600160a060020a0390921673ffffffffffffffffffffffffffffffffffffffff19909216821790556000908152600560205260409020805460ff191690555050505050505050505050565b606060006200096b85620010c4565b9050838111620009c55760405160e560020a62461bcd02815260206004820152601f60248201527f4f66667365742067726561746572207468616e206c697374206c656e6774680060448201526064015b60405180910390fd5b6000620009d3848662001ef2565b821162000a3257620009e6858362001f08565b67ffffffffffffffff81111562000a015762000a01620019a3565b60405190808252806020026020018201604052801562000a2b578160200160208202803683370190505b5062000a7a565b8367ffffffffffffffff81111562000a4e5762000a4e620019a3565b60405190808252806020026020018201604052801562000a78578160200160208202803683370190505b505b9050600062000a898762000c6b565b9050855b62000a99868862001ef2565b81101562000b1757815181101562000b175781818151811062000ac05762000ac062001d8a565b602002602001015183888362000ad7919062001f08565b8151811062000aea5762000aea62001d8a565b600160a060020a03909216602092830291909101909101528062000b0e8162001ddf565b91505062000a8d565b50909695505050505050565b3360009081526001602081905260409091205460ff1615151462000b5e5760405160e560020a62461bcd028152600401620009bc9062001f1e565b60005b815181101562000c675762000b9282828151811062000b845762000b8462001d8a565b602002602001015162001528565b62000c5257600282828151811062000bae5762000bae62001d8a565b602090810291909101810151825460018082018555600094855292842001805473ffffffffffffffffffffffffffffffffffffffff1916600160a060020a039092169190911790558351909160039185908590811062000c125762000c1262001d8a565b6020026020010151600160a060020a0316600160a060020a0316815260200190815260200160002060006101000a81548160ff0219169083151502179055505b8062000c5e8162001ddf565b91505062000b61565b5050565b6060600062000c7a83620010c4565b67ffffffffffffffff81111562000c955762000c95620019a3565b60405190808252806020026020018201604052801562000cbf578160200160208202803683370190505b509050600062000cce620004a7565b90506000805b825181101562000e185762000d8f6004828154811062000cf85762000cf862001d8a565b6000918252602082200154604080517f790d15de0000000000000000000000000000000000000000000000000000000081529051600160a060020a039092169263790d15de926004808401938290030181865afa15801562000d5e573d6000803e3d6000fd5b505050506040513d6000823e601f3d908101601f1916820160405262000d88919081019062001f7b565b8762001753565b1562000e03576004818154811062000dab5762000dab62001d8a565b600091825260209091200154600160a060020a0316848362000dcd8162001ddf565b94508151811062000de25762000de262001d8a565b6020026020010190600160a060020a03169081600160a060020a0316815250505b8062000e0f8162001ddf565b91505062000cd4565b5091949350505050565b600080805b6004548110156200087c5760006004828154811062000e4a5762000e4a62001d8a565b600091825260209182902001546040805160e560020a63042904f70281529051600160a060020a03909216926385209ee0926004808401938290030181865afa15801562000e9c573d6000803e3d6000fd5b505050506040513d601f19601f8201168201806040525081019062000ec2919062001da3565b600381111562000ed65762000ed662001d71565b0362000eec578162000ee88162001ddf565b9250505b8062000ef88162001ddf565b91505062000e27565b6060600062000f0f62000e22565b905083811162000f655760405160e560020a62461bcd02815260206004820152601f60248201527f4f66667365742067726561746572207468616e206c697374206c656e677468006044820152606401620009bc565b600062000f73848662001ef2565b821162000fd25762000f86858362001f08565b67ffffffffffffffff81111562000fa15762000fa1620019a3565b60405190808252806020026020018201604052801562000fcb578160200160208202803683370190505b506200101a565b8367ffffffffffffffff81111562000fee5762000fee620019a3565b60405190808252806020026020018201604052801562001018578160200160208202803683370190505b505b90506000620010286200155f565b9050855b62001038868862001ef2565b811015620010b757600454811015620010b75781818151811062001060576200106062001d8a565b602002602001015183888362001077919062001f08565b815181106200108a576200108a62001d8a565b600160a060020a039092166020928302919091019091015280620010ae8162001ddf565b9150506200102c565b5090925050505b92915050565b600080805b6004548110156200130957600160048281548110620010ec57620010ec62001d8a565b600091825260209182902001546040805160e560020a63042904f70281529051600160a060020a03909216926385209ee0926004808401938290030181865afa1580156200113e573d6000803e3d6000fd5b505050506040513d601f19601f8201168201806040525081019062001164919062001da3565b600381111562001178576200117862001d71565b1480620012de575060026004828154811062001198576200119862001d8a565b600091825260209182902001546040805160e560020a63042904f70281529051600160a060020a03909216926385209ee0926004808401938290030181865afa158015620011ea573d6000803e3d6000fd5b505050506040513d601f19601f8201168201806040525081019062001210919062001da3565b600381111562001224576200122462001d71565b148015620012de5750620012de6004828154811062001247576200124762001d8a565b6000918252602082200154604080517f790d15de0000000000000000000000000000000000000000000000000000000081529051600160a060020a039092169263790d15de926004808401938290030181865afa158015620012ad573d6000803e3d6000fd5b505050506040513d6000823e601f3d908101601f19168201604052620012d7919081019062001f7b565b8562001753565b15620012f45781620012f08162001ddf565b9250505b80620013008162001ddf565b915050620010c9565b5092915050565b3360009081526001602081905260409091205460ff161515146200134b5760405160e560020a62461bcd028152600401620009bc9062001f1e565b60005b815181101562000c675760016003600084848151811062001373576200137362001d8a565b602090810291909101810151600160a060020a03168252810191909152604001600020805460ff191691151591909117905580620013b18162001ddf565b9150506200134e565b3360009081526001602081905260409091205460ff16151514620013f55760405160e560020a62461bcd028152600401620009bc9062001f1e565b60005b815181101562000c67576000600360008484815181106200141d576200141d62001d8a565b602090810291909101810151600160a060020a03168252810191909152604001600020805460ff1916911515919091179055806200145b8162001ddf565b915050620013f8565b600481815481106200048d57600080fd5b3360009081526003602052604090205460ff161515600114620015045760405160e560020a62461bcd02815260206004820152603c60248201527f4f6e6c79206f6e65206f6620746865207265676973747261727320686173206160448201527f636365737320746f20746869732066756e6374696f6e616c6974792e000000006064820152608401620009bc565b600160a060020a03166000908152600560205260409020805460ff19166001179055565b600160a060020a038116600090815260016020819052604082205460ff16151590036200155757506001919050565b506000919050565b606060006200156d62000e22565b67ffffffffffffffff811115620015885762001588620019a3565b604051908082528060200260200182016040528015620015b2578160200160208202803683370190505b5090506000805b600454811015620006e757600060048281548110620015dc57620015dc62001d8a565b600091825260209182902001546040805160e560020a63042904f70281529051600160a060020a03909216926385209ee0926004808401938290030181865afa1580156200162e573d6000803e3d6000fd5b505050506040513d601f19601f8201168201806040525081019062001654919062001da3565b600381111562001668576200166862001d71565b03620016dc576004818154811062001684576200168462001d8a565b600091825260209091200154600160a060020a03168383620016a68162001ddf565b945081518110620016bb57620016bb62001d8a565b6020026020010190600160a060020a03169081600160a060020a0316815250505b80620016e88162001ddf565b915050620015b9565b606060008054806020026020016040519081016040528092919081815260200182805480156200047257602002820191906000526020600020908154600160a060020a0316815260019091019060200180831162000453575050505050905090565b805182516000918391859111156200176a57600080fd5b6000805b835183516200177e919062001f08565b81116200188157600160005b85518110156200185857858181518110620017a957620017a962001d8a565b602001015160f860020a900460f860020a027effffffffffffffffffffffffffffffffffffffffffffffffffffffffffffff1916868285620017ec919062001ef2565b81518110620017ff57620017ff62001d8a565b602001015160f860020a900460f860020a027effffffffffffffffffffffffffffffffffffffffffffffffffffffffffffff19161462001843576000915062001858565b806200184f8162001ddf565b9150506200178a565b5080156200186b57600192505062001881565b5080620018788162001ddf565b9150506200176e565b5095945050505050565b600160a060020a03811660009081526003602052604081205460ff1615156001036200155757506001919050565b606060028054806020026020016040519081016040528092919081815260200182805480156200047257602002820191906000526020600020908154600160a060020a0316815260019091019060200180831162000453575050505050905090565b61210e8062001ffc83390190565b6020808252825182820181905260009190848201906040850190845b8181101562000b17578351600160a060020a03168352928401929184019160010162001945565b6000602082840312156200197f57600080fd5b5035919050565b8035600160a060020a03811681146200199e57600080fd5b919050565b60e060020a634e487b7102600052604160045260246000fd5b604051601f8201601f1916810167ffffffffffffffff81118282101715620019e857620019e8620019a3565b604052919050565b600067ffffffffffffffff82111562001a0d5762001a0d620019a3565b50601f01601f191660200190565b600082601f83011262001a2d57600080fd5b813562001a4462001a3e82620019f0565b620019bc565b81815284602083860101111562001a5a57600080fd5b816020850160208301376000918101602001919091529392505050565b6000806000806000806000806000806101408b8d03121562001a9857600080fd5b62001aa38b62001986565b995060208b013567ffffffffffffffff8082111562001ac157600080fd5b62001acf8e838f0162001a1b565b9a5060408d013591508082111562001ae657600080fd5b62001af48e838f0162001a1b565b995060608d013591508082111562001b0b57600080fd5b62001b198e838f0162001a1b565b985060808d013591508082111562001b3057600080fd5b5062001b3f8d828e0162001a1b565b9a9d999c50979a96999860a0880135985060c08801359760e0810135975061010081013596506101200135945092505050565b60006020828403121562001b8557600080fd5b62001b908262001986565b9392505050565b60008060006060848603121562001bad57600080fd5b833567ffffffffffffffff81111562001bc557600080fd5b62001bd38682870162001a1b565b9660208601359650604090950135949350505050565b6000602080838503121562001bfd57600080fd5b823567ffffffffffffffff8082111562001c1657600080fd5b818501915085601f83011262001c2b57600080fd5b81358181111562001c405762001c40620019a3565b838102915062001c52848301620019bc565b818152918301840191848101908884111562001c6d57600080fd5b938501935b8385101562001c965762001c868562001986565b8252938501939085019062001c72565b98975050505050505050565b60006020828403121562001cb557600080fd5b813567ffffffffffffffff81111562001ccd57600080fd5b62001cdb8482850162001a1b565b949350505050565b6000806040838503121562001cf757600080fd5b50508035926020909101359150565b6000806040838503121562001d1a57600080fd5b823567ffffffffffffffff8082111562001d3357600080fd5b62001d418683870162001a1b565b9350602085013591508082111562001d5857600080fd5b5062001d678582860162001a1b565b9150509250929050565b60e060020a634e487b7102600052602160045260246000fd5b60e060020a634e487b7102600052603260045260246000fd5b60006020828403121562001db657600080fd5b81516004811062001b9057600080fd5b60e060020a634e487b7102600052601160045260246000fd5b60006001820162001df45762001df462001dc6565b5060010190565b60005b8381101562001e1857818101518382015260200162001dfe565b50506000910152565b6000815180845262001e3b81602086016020860162001dfb565b601f01601f19169290920160200192915050565b6000610160600160a060020a03808f168452808e1660208501525080604084015262001e7e8184018d62001e21565b9050828103606084015262001e94818c62001e21565b9050828103608084015262001eaa818b62001e21565b905082810360a084015262001ec0818a62001e21565b60c0840198909852505060e0810194909452610100840192909252610120830152610140909101529695505050505050565b80820180821115620010be57620010be62001dc6565b81810381811115620010be57620010be62001dc6565b60208082526038908201527f4f6e6c79206f6e65206f6620746865206f776e6572732068617320616363657360408201527f7320746f20746869732066756e6374696f6e616c6974792e0000000000000000606082015260800190565b60006020828403121562001f8e57600080fd5b815167ffffffffffffffff81111562001fa657600080fd5b8201601f8101841362001fb857600080fd5b805162001fc962001a3e82620019f0565b81815285602083850101111562001fdf57600080fd5b62001ff282602083016020860162001dfb565b9594505050505056fe60806040523480156200001157600080fd5b506040516200210e3803806200210e8339810160408190526200003491620001c7565b60048054600160a060020a038d8116600160a060020a03199283161790925560058054928d16929091169190911790556000805460ff1916905560076200007c8a8262000391565b5060086200008b898262000391565b5060096200009a888262000391565b50600a620000a9878262000391565b50600b94909455600c929092556001556002556003555062000463945050505050565b8051600160a060020a0381168114620000e457600080fd5b919050565b7f4e487b7100000000000000000000000000000000000000000000000000000000600052604160045260246000fd5b600082601f8301126200012a57600080fd5b81516001604060020a0380821115620001475762000147620000e9565b604051601f8301601f19908116603f01168101908282118183101715620001725762000172620000e9565b816040528381526020925086838588010111156200018f57600080fd5b600091505b83821015620001b3578582018301518183018401529082019062000194565b600093810190920192909252949350505050565b60008060008060008060008060008060006101608c8e031215620001ea57600080fd5b620001f58c620000cc565b9a506200020560208d01620000cc565b995060408c01516001604060020a038111156200022157600080fd5b6200022f8e828f0162000118565b99505060608c01516001604060020a038111156200024c57600080fd5b6200025a8e828f0162000118565b98505060808c01516001604060020a038111156200027757600080fd5b620002858e828f0162000118565b97505060a08c01516001604060020a03811115620002a257600080fd5b620002b08e828f0162000118565b96505060c08c0151945060e08c015193506101008c015192506101208c015191506101408c015190509295989b509295989b9093969950565b600281046001821680620002fe57607f821691505b60208210810362000338577f4e487b7100000000000000000000000000000000000000000000000000000000600052602260045260246000fd5b50919050565b601f8211156200038c576000818152602081206020601f86010481016020861015620003675750805b6020601f860104820191505b81811015620003885782815560010162000373565b5050505b505050565b81516001604060020a03811115620003ad57620003ad620000e9565b620003c581620003be8454620002e9565b846200033e565b602080601f831160018114620004015760008415620003e45750858301515b60028086026008870290910a600019041982161786555062000388565b600085815260208120601f198616915b82811015620004325788860151825594840194600190910190840162000411565b50858210156200045357878501516008601f88160260020a60001904191681555b5050505050600202600101905550565b611c9b80620004736000396000f3fe60806040526004361061014a576000357c01000000000000000000000000000000000000000000000000000000009004806385329517116100c85780639dfc91171161008c5780639dfc9117146105eb578063aae68f6c1461061f578063b3cbb32c1461063f578063b6366d921461065f578063daca4eef1461067f578063f5cfb032146106f357600080fd5b806385329517146105565780638d97bee8146105765780638da5cb5b14610596578063953fe3cc146105b657806397035a07146105cb57600080fd5b80635293c8381161010f5780635293c8381461049a578063536f5c36146104ca57806372b50109146104ed578063790d15de1461050d57806385209ee01461052f57600080fd5b80627dc372146103b557806302d05d3f146103e657806312821b5e1461041e5780633d7a44921461045857806341fa17661461047a57600080fd5b366103b05760006006805460ff16908111156101685761016861123a565b148061018a575060036006805460ff16908111156101885761018861123a565b145b6102045760405160e560020a62461bcd02815260206004820152603760248201527f546869732070726f706572747927732074656e757265207479706520646f657360448201527f206e6f7420737570706f7274206265696e6720736f6c6400000000000000000060648201526084015b60405180910390fd5b600260005460ff16600381111561021d5761021d61123a565b1461026d5760405160e560020a62461bcd02815260206004820152601e60248201527f546869732070726f7065727479206973206e6f7420666f722073616c652e000060448201526064016101fb565b600360005460ff1660038111156102865761028661123a565b036102a65760405160e560020a62461bcd0281526004016101fb90611253565b6003546000906102b79060126112c9565b6102c290600a6113c3565b6002546102cf91906113d6565b6001546102e490670de0b6b3a76400006113d6565b6102ee91906113f5565b905033318111156103445760405160e560020a62461bcd02815260206004820152601260248201527f496e73756666696369656e742066756e6473000000000000000000000000000060448201526064016101fb565b600554604051600160a060020a03909116903480156108fc02916000818181858888f1935050505015801561037d573d6000803e3d6000fd5b506000805460ff19166001179055600580543373ffffffffffffffffffffffffffffffffffffffff199091168117909155005b600080fd5b3480156103c157600080fd5b506103ca610713565b6040516103dd9796959493929190611458565b60405180910390f35b3480156103f257600080fd5b5060045461040690600160a060020a031681565b604051600160a060020a0390911681526020016103dd565b34801561042a57600080fd5b5060015460025460035461043d92919083565b604080519384526020840192909252908201526060016103dd565b34801561046457600080fd5b5061047861047336600461158c565b610964565b005b34801561048657600080fd5b50610478610495366004611604565b610a0f565b3480156104a657600080fd5b506104ba6104b536600461164b565b610ad7565b60405190151581526020016103dd565b3480156104d657600080fd5b506104df610b34565b6040519081526020016103dd565b3480156104f957600080fd5b50610478610508366004611740565b610b7e565b34801561051957600080fd5b50610522610cb1565b6040516103dd9190611781565b34801561053b57600080fd5b506000546105499060ff1681565b6040516103dd91906117a8565b34801561056257600080fd5b506104786105713660046117b6565b610cdd565b34801561058257600080fd5b506104786105913660046117e2565b610d78565b3480156105a257600080fd5b5060055461040690600160a060020a031681565b3480156105c257600080fd5b506104ba610e2e565b3480156105d757600080fd5b506104786105e636600461180c565b610e9a565b3480156105f757600080fd5b506004546005546000546040516103dd93600160a060020a0390811693169160ff1690611827565b34801561062b57600080fd5b5061047861063a366004611865565b610f4d565b34801561064b57600080fd5b506104ba61065a36600461158c565b611097565b34801561066b57600080fd5b5061047861067a3660046118d6565b611100565b34801561068b57600080fd5b50600d546106c19060ff808216916101008104821691620100008204811691630100000081048216916401000000009091041685565b60408051951515865293151560208601529115159284019290925290151560608301521515608082015260a0016103dd565b3480156106ff57600080fd5b5061047861070e3660046118ef565b611192565b600680546007805460ff909216929161072b9061190a565b80601f01602080910402602001604051908101604052809291908181526020018280546107579061190a565b80156107a45780601f10610779576101008083540402835291602001916107a4565b820191906000526020600020905b81548152906001019060200180831161078757829003601f168201915b5050505050908060020180546107b99061190a565b80601f01602080910402602001604051908101604052809291908181526020018280546107e59061190a565b80156108325780601f1061080757610100808354040283529160200191610832565b820191906000526020600020905b81548152906001019060200180831161081557829003601f168201915b5050505050908060030180546108479061190a565b80601f01602080910402602001604051908101604052809291908181526020018280546108739061190a565b80156108c05780601f10610895576101008083540402835291602001916108c0565b820191906000526020600020905b8154815290600101906020018083116108a357829003601f168201915b5050505050908060040180546108d59061190a565b80601f01602080910402602001604051908101604052809291908181526020018280546109019061190a565b801561094e5780601f106109235761010080835404028352916020019161094e565b820191906000526020600020905b81548152906001019060200180831161093157829003601f168201915b5050505050908060050154908060060154905087565b61096c610e2e565b61098b5760405160e560020a62461bcd0281526004016101fb90611947565b600554600160a060020a031633146109b85760405160e560020a62461bcd0281526004016101fb906119a4565b600360005460ff1660038111156109d1576109d161123a565b036109f15760405160e560020a62461bcd0281526004016101fb90611253565b60096109fd8382611a4f565b50600a610a0a8282611a4f565b505050565b610a17610e2e565b610a365760405160e560020a62461bcd0281526004016101fb90611947565b600554600160a060020a03163314610a635760405160e560020a62461bcd0281526004016101fb906119a4565b600360005460ff166003811115610a7c57610a7c61123a565b03610a9c5760405160e560020a62461bcd0281526004016101fb90611253565b60018581556002859055600384905560068054849260ff19909116908383811115610ac957610ac961123a565b0217905550600c5550505050565b6000805b8251811015610b2857610b0784848381518110610afa57610afa611b15565b6020026020010151611097565b15610b16576001915050610b2e565b80610b2081611b2e565b915050610adb565b50600090505b92915050565b6003546000908190610b479060126112c9565b610b5290600a6113c3565b600254610b5f91906113d6565b600154610b7490670de0b6b3a76400006113d6565b610b2e91906113f5565b600480546040517ff33c4ff90000000000000000000000000000000000000000000000000000000081523392810192909252600160a060020a03169063f33c4ff990602401602060405180830381865afa158015610be0573d6000803e3d6000fd5b505050506040513d601f19601f82011682018060405250810190610c049190611b47565b1515600114610c285760405160e560020a62461bcd0281526004016101fb90611b64565b600360005460ff166003811115610c4157610c4161123a565b03610c615760405160e560020a62461bcd0281526004016101fb90611253565b6005805473ffffffffffffffffffffffffffffffffffffffff1916600160a060020a0384161790556000805482919060ff19166001836003811115610ca857610ca861123a565b02179055505050565b604051606090610cc990600790600890602001611c34565b604051602081830303815290604052905090565b610ce5610e2e565b610d045760405160e560020a62461bcd0281526004016101fb90611947565b600554600160a060020a03163314610d315760405160e560020a62461bcd0281526004016101fb906119a4565b600360005460ff166003811115610d4a57610d4a61123a565b03610d6a5760405160e560020a62461bcd0281526004016101fb90611253565b600192909255600255600355565b600554600160a060020a03163314610da55760405160e560020a62461bcd0281526004016101fb906119a4565b610dad610e2e565b610dcc5760405160e560020a62461bcd0281526004016101fb90611947565b600360005460ff166003811115610de557610de561123a565b03610e055760405160e560020a62461bcd0281526004016101fb90611253565b6006805483919060ff191660018383811115610e2357610e2361123a565b0217905550600c5550565b600d5460009060ff168015610e4a5750600d54610100900460ff165b8015610e5e5750600d5462010000900460ff165b8015610e735750600d546301000000900460ff165b8015610e895750600d54640100000000900460ff165b15610e945750600190565b50600090565b610ea2610e2e565b610ec15760405160e560020a62461bcd0281526004016101fb90611947565b600554600160a060020a03163314610eee5760405160e560020a62461bcd0281526004016101fb906119a4565b600360005460ff166003811115610f0757610f0761123a565b03610f275760405160e560020a62461bcd0281526004016101fb90611253565b6006805482919060ff191660018383811115610f4557610f4561123a565b021790555050565b600480546040517ff33c4ff90000000000000000000000000000000000000000000000000000000081523392810192909252600160a060020a03169063f33c4ff990602401602060405180830381865afa158015610faf573d6000803e3d6000fd5b505050506040513d601f19601f82011682018060405250810190610fd39190611b47565b1515600114610ff75760405160e560020a62461bcd0281526004016101fb90611b64565b600360005460ff1660038111156110105761101061123a565b036110305760405160e560020a62461bcd0281526004016101fb90611253565b600d805461ffff191695151561ff00191695909517610100941515949094029390931763ffff00001916620100009215159290920263ff0000001916919091176301000000911515919091021764ff00000000191664010000000091151591909102179055565b600081518351146110aa57506000610b2e565b816040516020016110bb9190611c49565b60405160208183030381529060405280519060200120836040516020016110e29190611c49565b60405160208183030381529060405280519060200120149050610b2e565b611108610e2e565b6111275760405160e560020a62461bcd0281526004016101fb90611947565b600554600160a060020a031633146111545760405160e560020a62461bcd0281526004016101fb906119a4565b600360005460ff16600381111561116d5761116d61123a565b0361118d5760405160e560020a62461bcd0281526004016101fb90611253565b600c55565b61119a610e2e565b6111b95760405160e560020a62461bcd0281526004016101fb90611947565b600554600160a060020a031633146111e65760405160e560020a62461bcd0281526004016101fb906119a4565b600360005460ff1660038111156111ff576111ff61123a565b0361121f5760405160e560020a62461bcd0281526004016101fb90611253565b6000805482919060ff19166001836003811115610f4557610f455b60e060020a634e487b7102600052602160045260246000fd5b60208082526032908201527f546869732050726f7065727479205469746c6520436f6e74726163742069732060408201527f6e6f206c6f6e6765722072656c6176616e740000000000000000000000000000606082015260800190565b60e060020a634e487b7102600052601160045260246000fd5b81810381811115610b2e57610b2e6112b0565b600181815b808511156113195781600019048211156112fd576112fd6112b0565b8085161561130a57918102915b600290940493908002906112e1565b509250929050565b60008261133057506001610b2e565b8161133d57506000610b2e565b8160018114611353576002811461135d5761137a565b6001915050610b2e565b60ff84111561136e5761136e6112b0565b8360020a915050610b2e565b5060208310610133831016604e8410600b841016171561139d575081810a610b2e565b6113a783836112dc565b80600019048211156113bb576113bb6112b0565b029392505050565b60006113cf8383611321565b9392505050565b60008160001904831182151516156113f0576113f06112b0565b500290565b80820180821115610b2e57610b2e6112b0565b60005b8381101561142357818101518382015260200161140b565b50506000910152565b60008151808452611444816020860160208601611408565b601f01601f19169290920160200192915050565b60006007891061146a5761146a61123a565b88825260e0602083015261148160e083018961142c565b8281036040840152611493818961142c565b905082810360608401526114a7818861142c565b905082810360808401526114bb818761142c565b60a0840195909552505060c0015295945050505050565b60e060020a634e487b7102600052604160045260246000fd5b604051601f8201601f1916810167ffffffffffffffff81118282101715611514576115146114d2565b604052919050565b600082601f83011261152d57600080fd5b813567ffffffffffffffff811115611547576115476114d2565b61155a601f8201601f19166020016114eb565b81815284602083860101111561156f57600080fd5b816020850160208301376000918101602001919091529392505050565b6000806040838503121561159f57600080fd5b823567ffffffffffffffff808211156115b757600080fd5b6115c38683870161151c565b935060208501359150808211156115d957600080fd5b506115e68582860161151c565b9150509250929050565b8035600781106115ff57600080fd5b919050565b600080600080600060a0868803121561161c57600080fd5b85359450602086013593506040860135925061163a606087016115f0565b949793965091946080013592915050565b6000806040838503121561165e57600080fd5b823567ffffffffffffffff8082111561167657600080fd5b6116828683870161151c565b935060209150818501358181111561169957600080fd5b8501601f810187136116aa57600080fd5b8035828111156116bc576116bc6114d2565b8381026116ca8582016114eb565b918252828101850191858101908a8411156116e457600080fd5b86850192505b83831015611720578235868111156117025760008081fd5b6117108c898389010161151c565b83525091860191908601906116ea565b809750505050505050509250929050565b8035600481106115ff57600080fd5b6000806040838503121561175357600080fd5b8235600160a060020a038116811461176a57600080fd5b915061177860208401611731565b90509250929050565b6020815260006113cf602083018461142c565b600481106117a4576117a461123a565b9052565b60208101610b2e8284611794565b6000806000606084860312156117cb57600080fd5b505081359360208301359350604090920135919050565b600080604083850312156117f557600080fd5b6117fe836115f0565b946020939093013593505050565b60006020828403121561181e57600080fd5b6113cf826115f0565b600160a060020a038481168252831660208201526060810161184c6040830184611794565b949350505050565b801515811461186257600080fd5b50565b600080600080600060a0868803121561187d57600080fd5b853561188881611854565b9450602086013561189881611854565b935060408601356118a881611854565b925060608601356118b881611854565b915060808601356118c881611854565b809150509295509295909350565b6000602082840312156118e857600080fd5b5035919050565b60006020828403121561190157600080fd5b6113cf82611731565b60028104600182168061191e57607f821691505b6020821081036119415760e060020a634e487b7102600052602260045260246000fd5b50919050565b60208082526024908201527f5468652070726f7065727479206973206e6f74206c6567616c6c7920616c726960408201527f6768742e00000000000000000000000000000000000000000000000000000000606082015260800190565b60208082526032908201527f4f6e6c7920746865206f776e6572206f662074686520436f6e7472616374206860408201527f61732061636365737320746f2074686973210000000000000000000000000000606082015260800190565b601f821115610a0a576000818152602081206020601f86010481016020861015611a285750805b6020601f860104820191505b81811015611a4757828155600101611a34565b505050505050565b815167ffffffffffffffff811115611a6957611a696114d2565b611a7d81611a77845461190a565b84611a01565b602080601f831160018114611ab65760008415611a9a5750858301515b60028086026008870290910a6000190419821617865550611a47565b600085815260208120601f198616915b82811015611ae557888601518255948401946001909101908401611ac6565b5085821015611b0557878501516008601f88160260020a60001904191681555b5050505050600202600101905550565b60e060020a634e487b7102600052603260045260246000fd5b600060018201611b4057611b406112b0565b5060010190565b600060208284031215611b5957600080fd5b81516113cf81611854565b60208082526036908201527f4f6e6c792061207265676973746572656420726567697374726172206861732060408201527f61636365737320746f207468697320616374696f6e2e00000000000000000000606082015260800190565b60008154611bce8161190a565b60018281168015611be65760018114611bfb57611c2a565b60ff1984168752821515830287019450611c2a565b8560005260208060002060005b85811015611c215781548a820152908401908201611c08565b50505082870194505b5050505092915050565b600061184c611c438386611bc1565b84611bc1565b60008251611c5b818460208701611408565b919091019291505056fea2646970667358221220361d37feba40106da91c42188e84b7948cba7a47ca41550496ba5032a8923adb64736f6c63430008100033a2646970667358221220099a704eca510caba5afa0053207a2f27c2206d2e5a5c1b4afe165e8b3ebd8de64736f6c63430008100033",
  "immutableReferences": {},
  "source": "//SPDX-License-Identifier: MIT\r\npragma solidity ^0.8.16;\r\n\r\nimport \"./PropertyTitle.sol\";\r\n\r\ninterface IAccessPropertyTitleMethods {\r\n    function contractState() external view returns (PropertyTitleContractState);\r\n    function getFullPropertyAddress() external view returns (string memory);\r\n}\r\n\r\ncontract TitleCreatingContract {\r\n    address[] public owners;\r\n    mapping (address => bool) public isOwner;\r\n\r\n    address[] public registrars;\r\n    mapping (address => bool) public isRegistrar;\r\n\r\n    address[] public titleContracts;\r\n    mapping (address => bool) public propertyTitleContractsValidity;\r\n\r\n    constructor(address[] memory _owners)\r\n    {\r\n        for (uint256 i = 0; i < _owners.length; i++) {\r\n            owners.push(_owners[i]);\r\n            isOwner[_owners[i]] = true;\r\n        }\r\n    }\r\n\r\n    function addRegistrars(address[] memory _registrars) public onlyOwner {\r\n        for (uint256 i = 0; i < _registrars.length; i++) {\r\n            if (!checkIfUserIsOwner(_registrars[i])) {\r\n                registrars.push(_registrars[i]);\r\n                isRegistrar[_registrars[i]] = true;\r\n            }\r\n        }\r\n    }\r\n\r\n    function removeRegistrarRole(address[] memory _registrars) public onlyOwner {\r\n        for (uint256 i = 0; i < _registrars.length; i++) {\r\n            isRegistrar[_registrars[i]] = false;\r\n        }\r\n    }\r\n\r\n    function reactivateRegistrarRole(address[] memory _registrars) public onlyOwner {\r\n        for (uint256 i = 0; i < _registrars.length; i++) {\r\n            isRegistrar[_registrars[i]] = true;\r\n        }\r\n    }\r\n\r\n    function deployNewPropertyTitle(\r\n        address _owner,\r\n        string memory _country,\r\n        string memory _city,\r\n        string memory _street,\r\n        string memory _streeNumber,\r\n        uint256 _apartmentNumber,\r\n        uint256 _squareMeters,\r\n        uint256 _sellingPriceIntegralPart,\r\n        uint256 _sellingPriceFractionalPart,\r\n        uint256  _sellingPriceFractionalPartLength\r\n    )\r\n        public\r\n    {\r\n        PropertyTitle propertyTitle = new PropertyTitle(\r\n            address(this),\r\n            _owner,\r\n            _country,\r\n            _city,\r\n            _street,\r\n            _streeNumber,\r\n            _apartmentNumber,\r\n            _squareMeters,\r\n            _sellingPriceIntegralPart,\r\n            _sellingPriceFractionalPart,\r\n            _sellingPriceFractionalPartLength\r\n        );\r\n        titleContracts.push(address(propertyTitle));\r\n        propertyTitleContractsValidity[address(propertyTitle)] = false;\r\n    }\r\n\r\n    function validatePropertyTitleContract(address _contractAddress) public onlyRegistrar {\r\n        propertyTitleContractsValidity[_contractAddress] = true;\r\n    }\r\n\r\n    function checkIfUserIsOwner(address userAddress) public view returns (bool) {\r\n        if (isOwner[userAddress] == true) {\r\n            return true;\r\n        }\r\n        return false;    \r\n    }\r\n\r\n    function checkIfUserIsRegistrar(address userAddress) public view returns (bool) {\r\n        if (isRegistrar[userAddress] == true) {\r\n            return true;\r\n        }\r\n        return false;\r\n    }\r\n\r\n    function getContractOwners() public view returns (address[] memory) {\r\n        return owners;\r\n    }\r\n\r\n    function getContractRegistrars() public view returns (address[] memory) {\r\n        return registrars;\r\n    }\r\n\r\n    function getTitleContracts() public view returns (address[] memory) {\r\n        return titleContracts;\r\n    }\r\n\r\n    function getPendingTitleContractsCount() public view returns (uint256) {\r\n        uint256 k = 0;\r\n        for (uint256 i = 0; i < titleContracts.length; i++) {\r\n            if (IAccessPropertyTitleMethods(titleContracts[i]).contractState() == PropertyTitleContractState.PENDING) {\r\n                k++;\r\n            } \r\n        }\r\n\r\n        return k;\r\n    }\r\n\r\n    function getActiveContractsByAddressCount(string memory addressToSearchFor) public view returns (uint256) {\r\n        uint256 k = 0;\r\n        for (uint256 i = 0; i < titleContracts.length; i++) {\r\n            if (IAccessPropertyTitleMethods(titleContracts[i]).contractState() == PropertyTitleContractState.OWNED ||\r\n                IAccessPropertyTitleMethods(titleContracts[i]).contractState() == PropertyTitleContractState.FOR_SALE &&\r\n                stringContains(IAccessPropertyTitleMethods(titleContracts[i]).getFullPropertyAddress(), addressToSearchFor)) {\r\n                k++;\r\n            } \r\n        }\r\n\r\n        return k;\r\n    }\r\n\r\n    function getActiveContractsCount() public view returns (uint256) {\r\n        uint256 k = 0;\r\n        for (uint256 i = 0; i < titleContracts.length; i++) {\r\n            if (IAccessPropertyTitleMethods(titleContracts[i]).contractState() == PropertyTitleContractState.OWNED ||\r\n                IAccessPropertyTitleMethods(titleContracts[i]).contractState() == PropertyTitleContractState.FOR_SALE) {\r\n                k++;\r\n            } \r\n        }\r\n\r\n        return k;\r\n    }\r\n\r\n    function getPendingTitleContracts() public view returns (address[] memory) {\r\n        address[] memory contractsAddresses = new address[](getPendingTitleContractsCount());\r\n\r\n        uint256 k = 0;\r\n        for (uint256 i = 0; i < titleContracts.length; i++) {\r\n            if (IAccessPropertyTitleMethods(titleContracts[i]).contractState() == PropertyTitleContractState.PENDING) {\r\n                contractsAddresses[k++] = titleContracts[i];\r\n            } \r\n        }\r\n\r\n        return contractsAddresses;\r\n    }\r\n\r\n    function getPendingContractsByOffsetAndLimit(uint256 offset, uint256 limit) public view returns (address[] memory) {\r\n        uint256 pendingTitleContractsCount = getPendingTitleContractsCount();\r\n        require(pendingTitleContractsCount > offset, \"Offset greater than list length\");\r\n\r\n        address[] memory contractsAddresses = pendingTitleContractsCount > offset + limit \r\n            ? new address[](limit) \r\n            : new address[](pendingTitleContractsCount - offset);\r\n\r\n        address[] memory pendingTitleContracts = getPendingTitleContracts();\r\n        for (uint256 i = offset; i < offset + limit; i++) {\r\n            if (i >= titleContracts.length) {\r\n                break;\r\n            }\r\n            contractsAddresses[i - offset] = pendingTitleContracts[i];\r\n        }\r\n\r\n        return contractsAddresses;\r\n    }\r\n\r\n    function getActiveTitleContracts() public view returns (address[] memory) {\r\n        address[] memory contractsAddresses = new address[](getActiveContractsCount());\r\n\r\n        uint256 k = 0;\r\n        for (uint256 i = 0; i < titleContracts.length; i++) {\r\n            if (IAccessPropertyTitleMethods(titleContracts[i]).contractState() == PropertyTitleContractState.OWNED ||\r\n                IAccessPropertyTitleMethods(titleContracts[i]).contractState() == PropertyTitleContractState.FOR_SALE) {\r\n                contractsAddresses[k++] = titleContracts[i];\r\n            }\r\n        }\r\n\r\n        return contractsAddresses;\r\n    }\r\n\r\n    function getActiveContractsByAddress(string memory addressToSearchFor) public view returns (address[] memory) {\r\n        address[] memory contractsAddresses = new address[](getActiveContractsByAddressCount(addressToSearchFor));\r\n\r\n        address[] memory activeTitleContracts = getActiveTitleContracts();\r\n        uint256 k = 0;\r\n        for (uint256 i = 0; i < activeTitleContracts.length; i++) {\r\n            if (stringContains(IAccessPropertyTitleMethods(titleContracts[i]).getFullPropertyAddress(), addressToSearchFor)) {\r\n                contractsAddresses[k++] = titleContracts[i];\r\n            }\r\n        }\r\n\r\n        return contractsAddresses;\r\n    }\r\n\r\n    function getActiveContractsByAddressAndOffsetAndLimit(string memory addressToSearchFor, uint256 offset, uint256 limit)  public view returns (address[] memory) {\r\n        uint256 activeContractsByAddressCount = getActiveContractsByAddressCount(addressToSearchFor);\r\n        require(activeContractsByAddressCount > offset, \"Offset greater than list length\");\r\n\r\n        address[] memory titleContractsAddresses = activeContractsByAddressCount > offset + limit \r\n            ? new address[](limit) \r\n            : new address[](activeContractsByAddressCount - offset);\r\n\r\n        address[] memory activeContractsByAddress = getActiveContractsByAddress(addressToSearchFor);\r\n        for (uint256 i = offset; i < offset + limit; i++) {\r\n            if (i >= activeContractsByAddress.length) {\r\n                break;\r\n            }\r\n            titleContractsAddresses[i - offset] = activeContractsByAddress[i];\r\n\r\n        }\r\n\r\n        return titleContractsAddresses;\r\n    }\r\n\r\n    function stringContains(string memory stringToSearchIn, string memory stringToSearchFor) public pure returns (bool) {\r\n        bytes memory stringToSearchForBytes = bytes (stringToSearchFor);\r\n        bytes memory stringToSearchInBytes = bytes (stringToSearchIn);\r\n\r\n        require(stringToSearchInBytes.length >= stringToSearchForBytes.length);\r\n\r\n        bool found = false;\r\n        for (uint i = 0; i <= stringToSearchInBytes.length - stringToSearchForBytes.length; i++) {\r\n            bool flag = true;\r\n            for (uint j = 0; j < stringToSearchForBytes.length; j++)\r\n                if (stringToSearchForBytes [i + j] != stringToSearchForBytes [j]) {\r\n                    flag = false;\r\n                    break;\r\n                }\r\n            if (flag) {\r\n                found = true;\r\n                break;\r\n            }\r\n        }\r\n        \r\n        return found;\r\n    }\r\n\r\n    modifier onlyRegistrar {\r\n        require(isRegistrar[msg.sender] == true, \"Only one of the registrars has access to this functionality.\");\r\n        _;\r\n    }\r\n\r\n    modifier onlyOwner {\r\n        require(isOwner[msg.sender] == true, \"Only one of the owners has access to this functionality.\");\r\n        _;\r\n    }\r\n}",
  "sourcePath": "D:\\Propty\\propty\\contracts\\contracts\\TitleCreatingContract.sol",
  "compiler": {
    "name": "solc",
    "version": "0.8.16+commit.07a7930e.Emscripten.clang"
  },
  "schemaVersion": "3.4.9",
  "updatedAt": "2022-12-01T19:03:29.512Z",
  "networkType": "ethereum",
  "devdoc": {
    "kind": "dev",
    "methods": {},
    "version": 1
  },
  "userdoc": {
    "kind": "user",
    "methods": {},
    "version": 1
  }
}