{
  "contractName": "TitleCreatingContract",
  "abi": [
    {
      "inputs": [
        {
          "internalType": "address[]",
          "name": "_owners",
          "type": "address[]"
        }
      ],
      "stateMutability": "nonpayable",
      "type": "constructor"
    },
    {
      "inputs": [
        {
          "internalType": "address",
          "name": "",
          "type": "address"
        }
      ],
      "name": "isOwner",
      "outputs": [
        {
          "internalType": "bool",
          "name": "",
          "type": "bool"
        }
      ],
      "stateMutability": "view",
      "type": "function",
      "constant": true
    },
    {
      "inputs": [
        {
          "internalType": "address",
          "name": "",
          "type": "address"
        }
      ],
      "name": "isRegistrar",
      "outputs": [
        {
          "internalType": "bool",
          "name": "",
          "type": "bool"
        }
      ],
      "stateMutability": "view",
      "type": "function",
      "constant": true
    },
    {
      "inputs": [
        {
          "internalType": "uint256",
          "name": "",
          "type": "uint256"
        }
      ],
      "name": "owners",
      "outputs": [
        {
          "internalType": "address",
          "name": "",
          "type": "address"
        }
      ],
      "stateMutability": "view",
      "type": "function",
      "constant": true
    },
    {
      "inputs": [
        {
          "internalType": "address",
          "name": "",
          "type": "address"
        }
      ],
      "name": "propertyTitleContractsValidaty",
      "outputs": [
        {
          "internalType": "bool",
          "name": "",
          "type": "bool"
        }
      ],
      "stateMutability": "view",
      "type": "function",
      "constant": true
    },
    {
      "inputs": [
        {
          "internalType": "uint256",
          "name": "",
          "type": "uint256"
        }
      ],
      "name": "registrars",
      "outputs": [
        {
          "internalType": "address",
          "name": "",
          "type": "address"
        }
      ],
      "stateMutability": "view",
      "type": "function",
      "constant": true
    },
    {
      "inputs": [
        {
          "internalType": "uint256",
          "name": "",
          "type": "uint256"
        }
      ],
      "name": "titleContracts",
      "outputs": [
        {
          "internalType": "address",
          "name": "",
          "type": "address"
        }
      ],
      "stateMutability": "view",
      "type": "function",
      "constant": true
    },
    {
      "inputs": [
        {
          "internalType": "address[]",
          "name": "_registrars",
          "type": "address[]"
        }
      ],
      "name": "addRegistrars",
      "outputs": [],
      "stateMutability": "nonpayable",
      "type": "function"
    },
    {
      "inputs": [
        {
          "internalType": "address[]",
          "name": "_registrars",
          "type": "address[]"
        }
      ],
      "name": "removeRegistrarRole",
      "outputs": [],
      "stateMutability": "nonpayable",
      "type": "function"
    },
    {
      "inputs": [
        {
          "internalType": "address[]",
          "name": "_registrars",
          "type": "address[]"
        }
      ],
      "name": "reactivateRegistrarRole",
      "outputs": [],
      "stateMutability": "nonpayable",
      "type": "function"
    },
    {
      "inputs": [
        {
          "internalType": "address",
          "name": "_owner",
          "type": "address"
        },
        {
          "internalType": "string",
          "name": "_country",
          "type": "string"
        },
        {
          "internalType": "string",
          "name": "_city",
          "type": "string"
        },
        {
          "internalType": "string",
          "name": "_street",
          "type": "string"
        },
        {
          "internalType": "string",
          "name": "_streeNumber",
          "type": "string"
        },
        {
          "internalType": "uint256",
          "name": "_apartmentNumber",
          "type": "uint256"
        },
        {
          "internalType": "uint256",
          "name": "_squareMeters",
          "type": "uint256"
        },
        {
          "internalType": "uint256",
          "name": "_sellingPriceIntegralPart",
          "type": "uint256"
        },
        {
          "internalType": "uint256",
          "name": "_sellingPriceFractionalPart",
          "type": "uint256"
        },
        {
          "internalType": "uint256",
          "name": "_sellingPriceFractionalPartLength",
          "type": "uint256"
        }
      ],
      "name": "deployNewPropertyTitle",
      "outputs": [],
      "stateMutability": "nonpayable",
      "type": "function"
    },
    {
      "inputs": [
        {
          "internalType": "address",
          "name": "_contractAddress",
          "type": "address"
        }
      ],
      "name": "validatePropertyTitleContract",
      "outputs": [],
      "stateMutability": "nonpayable",
      "type": "function"
    },
    {
      "inputs": [
        {
          "internalType": "address",
          "name": "userAddress",
          "type": "address"
        }
      ],
      "name": "checkIfUserIsOwner",
      "outputs": [
        {
          "internalType": "bool",
          "name": "",
          "type": "bool"
        }
      ],
      "stateMutability": "view",
      "type": "function",
      "constant": true
    },
    {
      "inputs": [
        {
          "internalType": "address",
          "name": "userAddress",
          "type": "address"
        }
      ],
      "name": "checkIfUserIsRegistrar",
      "outputs": [
        {
          "internalType": "bool",
          "name": "",
          "type": "bool"
        }
      ],
      "stateMutability": "view",
      "type": "function",
      "constant": true
    },
    {
      "inputs": [],
      "name": "getContractOwners",
      "outputs": [
        {
          "internalType": "address[]",
          "name": "",
          "type": "address[]"
        }
      ],
      "stateMutability": "view",
      "type": "function",
      "constant": true
    },
    {
      "inputs": [],
      "name": "getContractRegistrars",
      "outputs": [
        {
          "internalType": "address[]",
          "name": "",
          "type": "address[]"
        }
      ],
      "stateMutability": "view",
      "type": "function",
      "constant": true
    },
    {
      "inputs": [],
      "name": "getTitleContracts",
      "outputs": [
        {
          "internalType": "address[]",
          "name": "",
          "type": "address[]"
        }
      ],
      "stateMutability": "view",
      "type": "function",
      "constant": true
    },
    {
      "inputs": [],
      "name": "getPendingTitleContractsCount",
      "outputs": [
        {
          "internalType": "uint256",
          "name": "",
          "type": "uint256"
        }
      ],
      "stateMutability": "view",
      "type": "function",
      "constant": true
    },
    {
      "inputs": [],
      "name": "getActiveTitleContractsCount",
      "outputs": [
        {
          "internalType": "uint256",
          "name": "",
          "type": "uint256"
        }
      ],
      "stateMutability": "view",
      "type": "function",
      "constant": true
    },
    {
      "inputs": [],
      "name": "getNoLongerRelevantTitleContractsCount",
      "outputs": [
        {
          "internalType": "uint256",
          "name": "",
          "type": "uint256"
        }
      ],
      "stateMutability": "view",
      "type": "function",
      "constant": true
    },
    {
      "inputs": [],
      "name": "getPendingTitleContracts",
      "outputs": [
        {
          "internalType": "address[]",
          "name": "",
          "type": "address[]"
        }
      ],
      "stateMutability": "view",
      "type": "function",
      "constant": true
    },
    {
      "inputs": [
        {
          "internalType": "uint256",
          "name": "offset",
          "type": "uint256"
        },
        {
          "internalType": "uint256",
          "name": "limit",
          "type": "uint256"
        }
      ],
      "name": "getPendingTitleContractsByOffsetAndLimit",
      "outputs": [
        {
          "internalType": "address[]",
          "name": "",
          "type": "address[]"
        }
      ],
      "stateMutability": "view",
      "type": "function",
      "constant": true
    },
    {
      "inputs": [],
      "name": "getActiveTitleContracts",
      "outputs": [
        {
          "internalType": "address[]",
          "name": "",
          "type": "address[]"
        }
      ],
      "stateMutability": "view",
      "type": "function",
      "constant": true
    },
    {
      "inputs": [],
      "name": "getNoLongerRelevantTitleContracts",
      "outputs": [
        {
          "internalType": "address[]",
          "name": "",
          "type": "address[]"
        }
      ],
      "stateMutability": "view",
      "type": "function",
      "constant": true
    }
  ],
  "bytecode": "0x60806040523480156200001157600080fd5b50604051620063f8380380620063f8833981810160405281019062000037919062000344565b60005b81518110156200014e5760008282815181106200005c576200005b62000395565b5b60200260200101519080600181540180825580915050600190039060005260206000200160009091909190916101000a81548173ffffffffffffffffffffffffffffffffffffffff021916908373ffffffffffffffffffffffffffffffffffffffff1602179055506001806000848481518110620000df57620000de62000395565b5b602002602001015173ffffffffffffffffffffffffffffffffffffffff1673ffffffffffffffffffffffffffffffffffffffff16815260200190815260200160002060006101000a81548160ff02191690831515021790555080806200014590620003fd565b9150506200003a565b50506200044a565b6000604051905090565b600080fd5b600080fd5b600080fd5b6000601f19601f8301169050919050565b7f4e487b7100000000000000000000000000000000000000000000000000000000600052604160045260246000fd5b620001ba826200016f565b810181811067ffffffffffffffff82111715620001dc57620001db62000180565b5b80604052505050565b6000620001f162000156565b9050620001ff8282620001af565b919050565b600067ffffffffffffffff82111562000222576200022162000180565b5b602082029050602081019050919050565b600080fd5b600073ffffffffffffffffffffffffffffffffffffffff82169050919050565b6000620002658262000238565b9050919050565b620002778162000258565b81146200028357600080fd5b50565b60008151905062000297816200026c565b92915050565b6000620002b4620002ae8462000204565b620001e5565b90508083825260208201905060208402830185811115620002da57620002d962000233565b5b835b81811015620003075780620002f2888262000286565b845260208401935050602081019050620002dc565b5050509392505050565b600082601f8301126200032957620003286200016a565b5b81516200033b8482602086016200029d565b91505092915050565b6000602082840312156200035d576200035c62000160565b5b600082015167ffffffffffffffff8111156200037e576200037d62000165565b5b6200038c8482850162000311565b91505092915050565b7f4e487b7100000000000000000000000000000000000000000000000000000000600052603260045260246000fd5b7f4e487b7100000000000000000000000000000000000000000000000000000000600052601160045260246000fd5b6000819050919050565b60006200040a82620003f3565b91507fffffffffffffffffffffffffffffffffffffffffffffffffffffffffffffffff82036200043f576200043e620003c4565b5b600182019050919050565b615f9e806200045a6000396000f3fe60806040523480156200001157600080fd5b50600436106200016c5760003560e01c80639ca1a68e11620000d5578063d4950d911162000087578063d4950d911462000421578063d5db72eb1462000443578063ec5c52b51462000479578063edefb6ee146200049b578063f33c4ff914620004d1578063f972b7ce1462000507576200016c565b80639ca1a68e146200031b578063a210bee21462000351578063a8c2900b1462000387578063c2168c5914620003a9578063c70c17f314620003c9578063d2f683a314620003ff576200016c565b80632a58812e116200012f5780632a58812e14620002435780632f54bf6e146200026357806333cf5ef814620002995780634e7f335814620002b95780637211899514620002db57806395cc333914620002fb576200016c565b8063017b799e1462000171578063025e7c271462000193578063092854b514620001c957806312f8383214620001eb5780631d10885f1462000221575b600080fd5b6200017b62000529565b6040516200018a919062001d72565b60405180910390f35b620001b16004803603810190620001ab919062001de5565b620005b9565b604051620001c0919062001e28565b60405180910390f35b620001d3620005f9565b604051620001e2919062001d72565b60405180910390f35b62000209600480360381019062000203919062001de5565b620008f5565b60405162000218919062001e28565b60405180910390f35b6200022b62000935565b6040516200023a919062001e56565b60405180910390f35b6200026160048036038101906200025b919062002006565b62000b4a565b005b6200028160048036038101906200027b919062002178565b62000c63565b604051620002909190620021c7565b60405180910390f35b620002b76004803603810190620002b19190620022bf565b62000c83565b005b620002c362000e63565b604051620002d2919062001e56565b60405180910390f35b620002f96004803603810190620002f39190620022bf565b62000f8f565b005b620003196004803603810190620003139190620022bf565b620010c1565b005b62000339600480360381019062000333919062002178565b620011f3565b604051620003489190620021c7565b60405180910390f35b6200036f600480360381019062000369919062001de5565b62001213565b6040516200037e919062001e28565b60405180910390f35b6200039162001253565b604051620003a0919062001e56565b60405180910390f35b620003c76004803603810190620003c1919062002178565b6200137e565b005b620003e76004803603810190620003e1919062002178565b6200146f565b604051620003f69190620021c7565b60405180910390f35b62000409620014de565b60405162000418919062001d72565b60405180910390f35b6200042b620016f1565b6040516200043a919062001d72565b60405180910390f35b6200046160048036038101906200045b919062002178565b62001781565b604051620004709190620021c7565b60405180910390f35b62000483620017a1565b60405162000492919062001d72565b60405180910390f35b620004b96004803603810190620004b3919062002310565b620019b3565b604051620004c8919062001d72565b60405180910390f35b620004ef6004803603810190620004e9919062002178565b62001b63565b604051620004fe9190620021c7565b60405180910390f35b6200051162001bd2565b60405162000520919062001d72565b60405180910390f35b60606004805480602002602001604051908101604052809291908181526020018280548015620005af57602002820191906000526020600020905b8160009054906101000a900473ffffffffffffffffffffffffffffffffffffffff1673ffffffffffffffffffffffffffffffffffffffff168152602001906001019080831162000564575b5050505050905090565b60008181548110620005ca57600080fd5b906000526020600020016000915054906101000a900473ffffffffffffffffffffffffffffffffffffffff1681565b606060006200060762000935565b67ffffffffffffffff81111562000623576200062262001ebf565b5b604051908082528060200260200182016040528015620006525781602001602082028036833780820191505090505b5090506000805b600480549050811015620008ec57600160038111156200067e576200067d62002357565b5b6004828154811062000695576200069462002386565b5b9060005260206000200160009054906101000a900473ffffffffffffffffffffffffffffffffffffffff1673ffffffffffffffffffffffffffffffffffffffff166385209ee06040518163ffffffff1660e01b8152600401602060405180830381865afa1580156200070b573d6000803e3d6000fd5b505050506040513d601f19601f82011682018060405250810190620007319190620023dd565b600381111562000746576200074562002357565b5b14806200082f57506002600381111562000765576200076462002357565b5b600482815481106200077c576200077b62002386565b5b9060005260206000200160009054906101000a900473ffffffffffffffffffffffffffffffffffffffff1673ffffffffffffffffffffffffffffffffffffffff166385209ee06040518163ffffffff1660e01b8152600401602060405180830381865afa158015620007f2573d6000803e3d6000fd5b505050506040513d601f19601f82011682018060405250810190620008189190620023dd565b60038111156200082d576200082c62002357565b5b145b15620008d657600481815481106200084c576200084b62002386565b5b9060005260206000200160009054906101000a900473ffffffffffffffffffffffffffffffffffffffff1683838062000885906200243e565b9450815181106200089b576200089a62002386565b5b602002602001019073ffffffffffffffffffffffffffffffffffffffff16908173ffffffffffffffffffffffffffffffffffffffff16815250505b8080620008e3906200243e565b91505062000659565b50819250505090565b600281815481106200090657600080fd5b906000526020600020016000915054906101000a900473ffffffffffffffffffffffffffffffffffffffff1681565b6000806000905060005b60048054905081101562000b42576001600381111562000964576200096362002357565b5b600482815481106200097b576200097a62002386565b5b9060005260206000200160009054906101000a900473ffffffffffffffffffffffffffffffffffffffff1673ffffffffffffffffffffffffffffffffffffffff166385209ee06040518163ffffffff1660e01b8152600401602060405180830381865afa158015620009f1573d6000803e3d6000fd5b505050506040513d601f19601f8201168201806040525081019062000a179190620023dd565b600381111562000a2c5762000a2b62002357565b5b148062000b1557506002600381111562000a4b5762000a4a62002357565b5b6004828154811062000a625762000a6162002386565b5b9060005260206000200160009054906101000a900473ffffffffffffffffffffffffffffffffffffffff1673ffffffffffffffffffffffffffffffffffffffff166385209ee06040518163ffffffff1660e01b8152600401602060405180830381865afa15801562000ad8573d6000803e3d6000fd5b505050506040513d601f19601f8201168201806040525081019062000afe9190620023dd565b600381111562000b135762000b1262002357565b5b145b1562000b2c57818062000b28906200243e565b9250505b808062000b39906200243e565b9150506200093f565b508091505090565b6000308b8b8b8b8b8b8b8b8b8b60405162000b659062001c62565b62000b7b9b9a9998979695949392919062002514565b604051809103906000f08015801562000b98573d6000803e3d6000fd5b5090506004819080600181540180825580915050600190039060005260206000200160009091909190916101000a81548173ffffffffffffffffffffffffffffffffffffffff021916908373ffffffffffffffffffffffffffffffffffffffff1602179055506000600560008373ffffffffffffffffffffffffffffffffffffffff1673ffffffffffffffffffffffffffffffffffffffff16815260200190815260200160002060006101000a81548160ff0219169083151502179055505050505050505050505050565b60016020528060005260406000206000915054906101000a900460ff1681565b60011515600160003373ffffffffffffffffffffffffffffffffffffffff1673ffffffffffffffffffffffffffffffffffffffff16815260200190815260200160002060009054906101000a900460ff1615151462000d19576040517f08c379a000000000000000000000000000000000000000000000000000000000815260040162000d109062002667565b60405180910390fd5b60005b815181101562000e5f5762000d4e82828151811062000d405762000d3f62002386565b5b60200260200101516200146f565b62000e4957600282828151811062000d6b5762000d6a62002386565b5b60200260200101519080600181540180825580915050600190039060005260206000200160009091909190916101000a81548173ffffffffffffffffffffffffffffffffffffffff021916908373ffffffffffffffffffffffffffffffffffffffff16021790555060016003600084848151811062000def5762000dee62002386565b5b602002602001015173ffffffffffffffffffffffffffffffffffffffff1673ffffffffffffffffffffffffffffffffffffffff16815260200190815260200160002060006101000a81548160ff0219169083151502179055505b808062000e56906200243e565b91505062000d1c565b5050565b6000806000905060005b60048054905081101562000f87576000600381111562000e925762000e9162002357565b5b6004828154811062000ea95762000ea862002386565b5b9060005260206000200160009054906101000a900473ffffffffffffffffffffffffffffffffffffffff1673ffffffffffffffffffffffffffffffffffffffff166385209ee06040518163ffffffff1660e01b8152600401602060405180830381865afa15801562000f1f573d6000803e3d6000fd5b505050506040513d601f19601f8201168201806040525081019062000f459190620023dd565b600381111562000f5a5762000f5962002357565b5b0362000f7157818062000f6d906200243e565b9250505b808062000f7e906200243e565b91505062000e6d565b508091505090565b60011515600160003373ffffffffffffffffffffffffffffffffffffffff1673ffffffffffffffffffffffffffffffffffffffff16815260200190815260200160002060009054906101000a900460ff1615151462001025576040517f08c379a00000000000000000000000000000000000000000000000000000000081526004016200101c9062002667565b60405180910390fd5b60005b8151811015620010bd576001600360008484815181106200104e576200104d62002386565b5b602002602001015173ffffffffffffffffffffffffffffffffffffffff1673ffffffffffffffffffffffffffffffffffffffff16815260200190815260200160002060006101000a81548160ff0219169083151502179055508080620010b4906200243e565b91505062001028565b5050565b60011515600160003373ffffffffffffffffffffffffffffffffffffffff1673ffffffffffffffffffffffffffffffffffffffff16815260200190815260200160002060009054906101000a900460ff1615151462001157576040517f08c379a00000000000000000000000000000000000000000000000000000000081526004016200114e9062002667565b60405180910390fd5b60005b8151811015620011ef5760006003600084848151811062001180576200117f62002386565b5b602002602001015173ffffffffffffffffffffffffffffffffffffffff1673ffffffffffffffffffffffffffffffffffffffff16815260200190815260200160002060006101000a81548160ff0219169083151502179055508080620011e6906200243e565b9150506200115a565b5050565b60056020528060005260406000206000915054906101000a900460ff1681565b600481815481106200122457600080fd5b906000526020600020016000915054906101000a900473ffffffffffffffffffffffffffffffffffffffff1681565b6000806000905060005b600480549050811015620013765760038081111562001281576200128062002357565b5b6004828154811062001298576200129762002386565b5b9060005260206000200160009054906101000a900473ffffffffffffffffffffffffffffffffffffffff1673ffffffffffffffffffffffffffffffffffffffff166385209ee06040518163ffffffff1660e01b8152600401602060405180830381865afa1580156200130e573d6000803e3d6000fd5b505050506040513d601f19601f82011682018060405250810190620013349190620023dd565b600381111562001349576200134862002357565b5b03620013605781806200135c906200243e565b9250505b80806200136d906200243e565b9150506200125d565b508091505090565b60011515600360003373ffffffffffffffffffffffffffffffffffffffff1673ffffffffffffffffffffffffffffffffffffffff16815260200190815260200160002060009054906101000a900460ff1615151462001414576040517f08c379a00000000000000000000000000000000000000000000000000000000081526004016200140b90620026ff565b60405180910390fd5b6001600560008373ffffffffffffffffffffffffffffffffffffffff1673ffffffffffffffffffffffffffffffffffffffff16815260200190815260200160002060006101000a81548160ff02191690831515021790555050565b600060011515600160008473ffffffffffffffffffffffffffffffffffffffff1673ffffffffffffffffffffffffffffffffffffffff16815260200190815260200160002060009054906101000a900460ff16151503620014d45760019050620014d9565b600090505b919050565b60606000620014ec62000e63565b67ffffffffffffffff81111562001508576200150762001ebf565b5b604051908082528060200260200182016040528015620015375781602001602082028036833780820191505090505b5090506000805b600480549050811015620016e8576000600381111562001563576200156262002357565b5b600482815481106200157a576200157962002386565b5b9060005260206000200160009054906101000a900473ffffffffffffffffffffffffffffffffffffffff1673ffffffffffffffffffffffffffffffffffffffff166385209ee06040518163ffffffff1660e01b8152600401602060405180830381865afa158015620015f0573d6000803e3d6000fd5b505050506040513d601f19601f82011682018060405250810190620016169190620023dd565b60038111156200162b576200162a62002357565b5b03620016d2576004818154811062001648576200164762002386565b5b9060005260206000200160009054906101000a900473ffffffffffffffffffffffffffffffffffffffff1683838062001681906200243e565b94508151811062001697576200169662002386565b5b602002602001019073ffffffffffffffffffffffffffffffffffffffff16908173ffffffffffffffffffffffffffffffffffffffff16815250505b8080620016df906200243e565b9150506200153e565b50819250505090565b606060008054806020026020016040519081016040528092919081815260200182805480156200177757602002820191906000526020600020905b8160009054906101000a900473ffffffffffffffffffffffffffffffffffffffff1673ffffffffffffffffffffffffffffffffffffffff16815260200190600101908083116200172c575b5050505050905090565b60036020528060005260406000206000915054906101000a900460ff1681565b60606000620017af62001253565b67ffffffffffffffff811115620017cb57620017ca62001ebf565b5b604051908082528060200260200182016040528015620017fa5781602001602082028036833780820191505090505b5090506000805b600480549050811015620019aa5760038081111562001825576200182462002357565b5b600482815481106200183c576200183b62002386565b5b9060005260206000200160009054906101000a900473ffffffffffffffffffffffffffffffffffffffff1673ffffffffffffffffffffffffffffffffffffffff166385209ee06040518163ffffffff1660e01b8152600401602060405180830381865afa158015620018b2573d6000803e3d6000fd5b505050506040513d601f19601f82011682018060405250810190620018d89190620023dd565b6003811115620018ed57620018ec62002357565b5b036200199457600481815481106200190a576200190962002386565b5b9060005260206000200160009054906101000a900473ffffffffffffffffffffffffffffffffffffffff1683838062001943906200243e565b94508151811062001959576200195862002386565b5b602002602001019073ffffffffffffffffffffffffffffffffffffffff16908173ffffffffffffffffffffffffffffffffffffffff16815250505b8080620019a1906200243e565b91505062001801565b50819250505090565b606060008284620019c5919062002721565b620019cf62000e63565b1162001a3e5783620019e062000e63565b620019ec91906200275c565b67ffffffffffffffff81111562001a085762001a0762001ebf565b5b60405190808252806020026020018201604052801562001a375781602001602082028036833780820191505090505b5062001a8c565b8267ffffffffffffffff81111562001a5b5762001a5a62001ebf565b5b60405190808252806020026020018201604052801562001a8a5781602001602082028036833780820191505090505b505b9050600062001a9a620014de565b905060008590505b848662001ab0919062002721565b81101562001b575760048054905081101562001b575781818151811062001adc5762001adb62002386565b5b602002602001015183878362001af391906200275c565b8151811062001b075762001b0662002386565b5b602002602001019073ffffffffffffffffffffffffffffffffffffffff16908173ffffffffffffffffffffffffffffffffffffffff1681525050808062001b4e906200243e565b91505062001aa2565b50819250505092915050565b600060011515600360008473ffffffffffffffffffffffffffffffffffffffff1673ffffffffffffffffffffffffffffffffffffffff16815260200190815260200160002060009054906101000a900460ff1615150362001bc8576001905062001bcd565b600090505b919050565b6060600280548060200260200160405190810160405280929190818152602001828054801562001c5857602002820191906000526020600020905b8160009054906101000a900473ffffffffffffffffffffffffffffffffffffffff1673ffffffffffffffffffffffffffffffffffffffff168152602001906001019080831162001c0d575b5050505050905090565b6137d1806200279883390190565b600081519050919050565b600082825260208201905092915050565b6000819050602082019050919050565b600073ffffffffffffffffffffffffffffffffffffffff82169050919050565b600062001cc98262001c9c565b9050919050565b62001cdb8162001cbc565b82525050565b600062001cef838362001cd0565b60208301905092915050565b6000602082019050919050565b600062001d158262001c70565b62001d21818562001c7b565b935062001d2e8362001c8c565b8060005b8381101562001d6557815162001d49888262001ce1565b975062001d568362001cfb565b92505060018101905062001d32565b5085935050505092915050565b6000602082019050818103600083015262001d8e818462001d08565b905092915050565b6000604051905090565b600080fd5b600080fd5b6000819050919050565b62001dbf8162001daa565b811462001dcb57600080fd5b50565b60008135905062001ddf8162001db4565b92915050565b60006020828403121562001dfe5762001dfd62001da0565b5b600062001e0e8482850162001dce565b91505092915050565b62001e228162001cbc565b82525050565b600060208201905062001e3f600083018462001e17565b92915050565b62001e508162001daa565b82525050565b600060208201905062001e6d600083018462001e45565b92915050565b62001e7e8162001cbc565b811462001e8a57600080fd5b50565b60008135905062001e9e8162001e73565b92915050565b600080fd5b600080fd5b6000601f19601f8301169050919050565b7f4e487b7100000000000000000000000000000000000000000000000000000000600052604160045260246000fd5b62001ef98262001eae565b810181811067ffffffffffffffff8211171562001f1b5762001f1a62001ebf565b5b80604052505050565b600062001f3062001d96565b905062001f3e828262001eee565b919050565b600067ffffffffffffffff82111562001f615762001f6062001ebf565b5b62001f6c8262001eae565b9050602081019050919050565b82818337600083830152505050565b600062001f9f62001f998462001f43565b62001f24565b90508281526020810184848401111562001fbe5762001fbd62001ea9565b5b62001fcb84828562001f79565b509392505050565b600082601f83011262001feb5762001fea62001ea4565b5b813562001ffd84826020860162001f88565b91505092915050565b6000806000806000806000806000806101408b8d0312156200202d576200202c62001da0565b5b60006200203d8d828e0162001e8d565b9a505060208b013567ffffffffffffffff81111562002061576200206062001da5565b5b6200206f8d828e0162001fd3565b99505060408b013567ffffffffffffffff81111562002093576200209262001da5565b5b620020a18d828e0162001fd3565b98505060608b013567ffffffffffffffff811115620020c557620020c462001da5565b5b620020d38d828e0162001fd3565b97505060808b013567ffffffffffffffff811115620020f757620020f662001da5565b5b620021058d828e0162001fd3565b96505060a0620021188d828e0162001dce565b95505060c06200212b8d828e0162001dce565b94505060e06200213e8d828e0162001dce565b935050610100620021528d828e0162001dce565b925050610120620021668d828e0162001dce565b9150509295989b9194979a5092959850565b60006020828403121562002191576200219062001da0565b5b6000620021a18482850162001e8d565b91505092915050565b60008115159050919050565b620021c181620021aa565b82525050565b6000602082019050620021de6000830184620021b6565b92915050565b600067ffffffffffffffff82111562002202576200220162001ebf565b5b602082029050602081019050919050565b600080fd5b60006200222f6200222984620021e4565b62001f24565b9050808382526020820190506020840283018581111562002255576200225462002213565b5b835b818110156200228257806200226d888262001e8d565b84526020840193505060208101905062002257565b5050509392505050565b600082601f830112620022a457620022a362001ea4565b5b8135620022b684826020860162002218565b91505092915050565b600060208284031215620022d857620022d762001da0565b5b600082013567ffffffffffffffff811115620022f957620022f862001da5565b5b62002307848285016200228c565b91505092915050565b600080604083850312156200232a576200232962001da0565b5b60006200233a8582860162001dce565b92505060206200234d8582860162001dce565b9150509250929050565b7f4e487b7100000000000000000000000000000000000000000000000000000000600052602160045260246000fd5b7f4e487b7100000000000000000000000000000000000000000000000000000000600052603260045260246000fd5b60048110620023c357600080fd5b50565b600081519050620023d781620023b5565b92915050565b600060208284031215620023f657620023f562001da0565b5b60006200240684828501620023c6565b91505092915050565b7f4e487b7100000000000000000000000000000000000000000000000000000000600052601160045260246000fd5b60006200244b8262001daa565b91507fffffffffffffffffffffffffffffffffffffffffffffffffffffffffffffffff820362002480576200247f6200240f565b5b600182019050919050565b600081519050919050565b600082825260208201905092915050565b60005b83811015620024c7578082015181840152602081019050620024aa565b60008484015250505050565b6000620024e0826200248b565b620024ec818562002496565b9350620024fe818560208601620024a7565b620025098162001eae565b840191505092915050565b6000610160820190506200252c600083018e62001e17565b6200253b602083018d62001e17565b81810360408301526200254f818c620024d3565b9050818103606083015262002565818b620024d3565b905081810360808301526200257b818a620024d3565b905081810360a0830152620025918189620024d3565b9050620025a260c083018862001e45565b620025b160e083018762001e45565b620025c161010083018662001e45565b620025d161012083018562001e45565b620025e161014083018462001e45565b9c9b505050505050505050505050565b7f4f6e6c79206f6e65206f6620746865206f776e6572732068617320616363657360008201527f7320746f20746869732066756e6374696f6e616c6974792e0000000000000000602082015250565b60006200264f60388362002496565b91506200265c82620025f1565b604082019050919050565b60006020820190508181036000830152620026828162002640565b9050919050565b7f4f6e6c79206f6e65206f6620746865207265676973747261727320686173206160008201527f636365737320746f20746869732066756e6374696f6e616c6974792e00000000602082015250565b6000620026e7603c8362002496565b9150620026f48262002689565b604082019050919050565b600060208201905081810360008301526200271a81620026d8565b9050919050565b60006200272e8262001daa565b91506200273b8362001daa565b92508282019050808211156200275657620027556200240f565b5b92915050565b6000620027698262001daa565b9150620027768362001daa565b92508282039050818111156200279157620027906200240f565b5b9291505056fe60806040523480156200001157600080fd5b50604051620037d1380380620037d18339818101604052810190620000379190620003ae565b8a600460006101000a81548173ffffffffffffffffffffffffffffffffffffffff021916908373ffffffffffffffffffffffffffffffffffffffff16021790555089600560006101000a81548173ffffffffffffffffffffffffffffffffffffffff021916908373ffffffffffffffffffffffffffffffffffffffff16021790555060008060006101000a81548160ff02191690836003811115620000e157620000e062000537565b5b02179055508860066001019081620000fa9190620007a7565b5087600660020190816200010f9190620007a7565b508660066003019081620001249190620007a7565b508560066004019081620001399190620007a7565b5084600660050181905550836006800181905550826001600001819055508160018001819055508060016002018190555050505050505050505050506200088e565b6000604051905090565b600080fd5b600080fd5b600073ffffffffffffffffffffffffffffffffffffffff82169050919050565b6000620001bc826200018f565b9050919050565b620001ce81620001af565b8114620001da57600080fd5b50565b600081519050620001ee81620001c3565b92915050565b600080fd5b600080fd5b6000601f19601f8301169050919050565b7f4e487b7100000000000000000000000000000000000000000000000000000000600052604160045260246000fd5b6200024982620001fe565b810181811067ffffffffffffffff821117156200026b576200026a6200020f565b5b80604052505050565b6000620002806200017b565b90506200028e82826200023e565b919050565b600067ffffffffffffffff821115620002b157620002b06200020f565b5b620002bc82620001fe565b9050602081019050919050565b60005b83811015620002e9578082015181840152602081019050620002cc565b60008484015250505050565b60006200030c620003068462000293565b62000274565b9050828152602081018484840111156200032b576200032a620001f9565b5b62000338848285620002c9565b509392505050565b600082601f830112620003585762000357620001f4565b5b81516200036a848260208601620002f5565b91505092915050565b6000819050919050565b620003888162000373565b81146200039457600080fd5b50565b600081519050620003a8816200037d565b92915050565b60008060008060008060008060008060006101608c8e031215620003d757620003d662000185565b5b6000620003e78e828f01620001dd565b9b50506020620003fa8e828f01620001dd565b9a505060408c015167ffffffffffffffff8111156200041e576200041d6200018a565b5b6200042c8e828f0162000340565b99505060608c015167ffffffffffffffff81111562000450576200044f6200018a565b5b6200045e8e828f0162000340565b98505060808c015167ffffffffffffffff8111156200048257620004816200018a565b5b620004908e828f0162000340565b97505060a08c015167ffffffffffffffff811115620004b457620004b36200018a565b5b620004c28e828f0162000340565b96505060c0620004d58e828f0162000397565b95505060e0620004e88e828f0162000397565b945050610100620004fc8e828f0162000397565b935050610120620005108e828f0162000397565b925050610140620005248e828f0162000397565b9150509295989b509295989b9093969950565b7f4e487b7100000000000000000000000000000000000000000000000000000000600052602160045260246000fd5b600081519050919050565b7f4e487b7100000000000000000000000000000000000000000000000000000000600052602260045260246000fd5b60006002820490506001821680620005b957607f821691505b602082108103620005cf57620005ce62000571565b5b50919050565b60008190508160005260206000209050919050565b60006020601f8301049050919050565b600082821b905092915050565b600060088302620006397fffffffffffffffffffffffffffffffffffffffffffffffffffffffffffffffff82620005fa565b620006458683620005fa565b95508019841693508086168417925050509392505050565b6000819050919050565b600062000688620006826200067c8462000373565b6200065d565b62000373565b9050919050565b6000819050919050565b620006a48362000667565b620006bc620006b3826200068f565b84845462000607565b825550505050565b600090565b620006d3620006c4565b620006e081848462000699565b505050565b5b818110156200070857620006fc600082620006c9565b600181019050620006e6565b5050565b601f82111562000757576200072181620005d5565b6200072c84620005ea565b810160208510156200073c578190505b620007546200074b85620005ea565b830182620006e5565b50505b505050565b600082821c905092915050565b60006200077c600019846008026200075c565b1980831691505092915050565b600062000797838362000769565b9150826002028217905092915050565b620007b28262000566565b67ffffffffffffffff811115620007ce57620007cd6200020f565b5b620007da8254620005a0565b620007e78282856200070c565b600060209050601f8311600181146200081f57600084156200080a578287015190505b62000816858262000789565b86555062000886565b601f1984166200082f86620005d5565b60005b82811015620008595784890151825560018201915060208501945060208101905062000832565b8683101562000879578489015162000875601f89168262000769565b8355505b6001600288020188555050505b505050505050565b612f33806200089e6000396000f3fe6080604052600436106101225760003560e01c80638d97bee8116100a0578063aae68f6c11610064578063aae68f6c146106e5578063b3cbb32c1461070e578063b6366d921461074b578063daca4eef14610774578063f5cfb032146107a35761044b565b80638d97bee8146106105780638da5cb5b14610639578063953fe3cc1461066457806397035a071461068f5780639dfc9117146106b85761044b565b80635293c838116100e75780635293c8381461052b578063536f5c361461056857806372b501091461059357806385209ee0146105bc57806385329517146105e75761044b565b80627dc3721461045057806302d05d3f1461048157806312821b5e146104ac5780633d7a4492146104d957806341fa1766146105025761044b565b3661044b576000600681111561013b5761013a611b27565b5b600660000160009054906101000a900460ff1660068111156101605761015f611b27565b5b14806101a257506003600681111561017b5761017a611b27565b5b600660000160009054906101000a900460ff1660068111156101a05761019f611b27565b5b145b6101e1576040517f08c379a00000000000000000000000000000000000000000000000000000000081526004016101d890611bd9565b60405180910390fd5b600260038111156101f5576101f4611b27565b5b60008054906101000a900460ff16600381111561021557610214611b27565b5b14610255576040517f08c379a000000000000000000000000000000000000000000000000000000000815260040161024c90611c45565b60405180910390fd5b60038081111561026857610267611b27565b5b60008054906101000a900460ff16600381111561028857610287611b27565b5b036102c8576040517f08c379a00000000000000000000000000000000000000000000000000000000081526004016102bf90611cd7565b60405180910390fd5b600060016002015460126102dc9190611d30565b600a6102e89190611e97565b60018001546102f79190611ee2565b670de0b6b3a76400006001600001546103109190611ee2565b61031a9190611f3c565b9050803373ffffffffffffffffffffffffffffffffffffffff16311015610376576040517f08c379a000000000000000000000000000000000000000000000000000000000815260040161036d90611fbc565b60405180910390fd5b600560009054906101000a900473ffffffffffffffffffffffffffffffffffffffff1673ffffffffffffffffffffffffffffffffffffffff166108fc349081150290604051600060405180830381858888f193505050501580156103de573d6000803e3d6000fd5b5060016000806101000a81548160ff0219169083600381111561040457610403611b27565b5b021790555033600560006101000a81548173ffffffffffffffffffffffffffffffffffffffff021916908373ffffffffffffffffffffffffffffffffffffffff1602179055005b600080fd5b34801561045c57600080fd5b506104656107cc565b60405161047897969594939291906120b2565b60405180910390f35b34801561048d57600080fd5b50610496610a29565b6040516104a3919061217e565b60405180910390f35b3480156104b857600080fd5b506104c1610a4f565b6040516104d093929190612199565b60405180910390f35b3480156104e557600080fd5b5061050060048036038101906104fb9190612319565b610a67565b005b34801561050e57600080fd5b50610529600480360381019061052491906123e2565b610bdb565b005b34801561053757600080fd5b50610552600480360381019061054d9190612543565b610d7f565b60405161055f91906125d6565b60405180910390f35b34801561057457600080fd5b5061057d610de2565b60405161058a91906125f1565b60405180910390f35b34801561059f57600080fd5b506105ba60048036038101906105b5919061266f565b610e3e565b005b3480156105c857600080fd5b506105d1611001565b6040516105de91906126f7565b60405180910390f35b3480156105f357600080fd5b5061060e60048036038101906106099190612712565b611012565b005b34801561061c57600080fd5b5061063760048036038101906106329190612765565b61117e565b005b34801561064557600080fd5b5061064e611302565b60405161065b919061217e565b60405180910390f35b34801561067057600080fd5b50610679611328565b60405161068691906125d6565b60405180910390f35b34801561069b57600080fd5b506106b660048036038101906106b191906127a5565b6113bf565b005b3480156106c457600080fd5b506106cd611539565b6040516106dc939291906127d2565b60405180910390f35b3480156106f157600080fd5b5061070c60048036038101906107079190612835565b61159d565b005b34801561071a57600080fd5b5061073560048036038101906107309190612319565b61178a565b60405161074291906125d6565b60405180910390f35b34801561075757600080fd5b50610772600480360381019061076d91906128b0565b6117f6565b005b34801561078057600080fd5b5061078961194c565b60405161079a9594939291906128dd565b60405180910390f35b3480156107af57600080fd5b506107ca60048036038101906107c59190612930565b6119b1565b005b60068060000160009054906101000a900460ff16908060010180546107f09061298c565b80601f016020809104026020016040519081016040528092919081815260200182805461081c9061298c565b80156108695780601f1061083e57610100808354040283529160200191610869565b820191906000526020600020905b81548152906001019060200180831161084c57829003601f168201915b50505050509080600201805461087e9061298c565b80601f01602080910402602001604051908101604052809291908181526020018280546108aa9061298c565b80156108f75780601f106108cc576101008083540402835291602001916108f7565b820191906000526020600020905b8154815290600101906020018083116108da57829003601f168201915b50505050509080600301805461090c9061298c565b80601f01602080910402602001604051908101604052809291908181526020018280546109389061298c565b80156109855780601f1061095a57610100808354040283529160200191610985565b820191906000526020600020905b81548152906001019060200180831161096857829003601f168201915b50505050509080600401805461099a9061298c565b80601f01602080910402602001604051908101604052809291908181526020018280546109c69061298c565b8015610a135780601f106109e857610100808354040283529160200191610a13565b820191906000526020600020905b8154815290600101906020018083116109f657829003601f168201915b5050505050908060050154908060060154905087565b600460009054906101000a900473ffffffffffffffffffffffffffffffffffffffff1681565b60018060000154908060010154908060020154905083565b610a6f611328565b610aae576040517f08c379a0000000000000000000000000000000000000000000000000000000008152600401610aa590612a2f565b60405180910390fd5b600560009054906101000a900473ffffffffffffffffffffffffffffffffffffffff1673ffffffffffffffffffffffffffffffffffffffff163373ffffffffffffffffffffffffffffffffffffffff1614610b3e576040517f08c379a0000000000000000000000000000000000000000000000000000000008152600401610b3590612ac1565b60405180910390fd5b600380811115610b5157610b50611b27565b5b60008054906101000a900460ff166003811115610b7157610b70611b27565b5b03610bb1576040517f08c379a0000000000000000000000000000000000000000000000000000000008152600401610ba890611cd7565b60405180910390fd5b8160066003019081610bc39190612c8d565b508060066004019081610bd69190612c8d565b505050565b610be3611328565b610c22576040517f08c379a0000000000000000000000000000000000000000000000000000000008152600401610c1990612a2f565b60405180910390fd5b600560009054906101000a900473ffffffffffffffffffffffffffffffffffffffff1673ffffffffffffffffffffffffffffffffffffffff163373ffffffffffffffffffffffffffffffffffffffff1614610cb2576040517f08c379a0000000000000000000000000000000000000000000000000000000008152600401610ca990612ac1565b60405180910390fd5b600380811115610cc557610cc4611b27565b5b60008054906101000a900460ff166003811115610ce557610ce4611b27565b5b03610d25576040517f08c379a0000000000000000000000000000000000000000000000000000000008152600401610d1c90611cd7565b60405180910390fd5b846001600001819055508360018001819055508260016002018190555081600660000160006101000a81548160ff02191690836006811115610d6a57610d69611b27565b5b02179055508060068001819055505050505050565b600080600090505b8251811015610dd657610db484848381518110610da757610da6612d5f565b5b602002602001015161178a565b15610dc3576001915050610ddc565b8080610dce90612d8e565b915050610d87565b50600090505b92915050565b6000806001600201546012610df79190611d30565b600a610e039190611e97565b6001800154610e129190611ee2565b670de0b6b3a7640000600160000154610e2b9190611ee2565b610e359190611f3c565b90508091505090565b60011515600460009054906101000a900473ffffffffffffffffffffffffffffffffffffffff1673ffffffffffffffffffffffffffffffffffffffff1663f33c4ff9336040518263ffffffff1660e01b8152600401610e9d919061217e565b602060405180830381865afa158015610eba573d6000803e3d6000fd5b505050506040513d601f19601f82011682018060405250810190610ede9190612deb565b151514610f20576040517f08c379a0000000000000000000000000000000000000000000000000000000008152600401610f1790612e8a565b60405180910390fd5b600380811115610f3357610f32611b27565b5b60008054906101000a900460ff166003811115610f5357610f52611b27565b5b03610f93576040517f08c379a0000000000000000000000000000000000000000000000000000000008152600401610f8a90611cd7565b60405180910390fd5b81600560006101000a81548173ffffffffffffffffffffffffffffffffffffffff021916908373ffffffffffffffffffffffffffffffffffffffff160217905550806000806101000a81548160ff02191690836003811115610ff857610ff7611b27565b5b02179055505050565b60008054906101000a900460ff1681565b61101a611328565b611059576040517f08c379a000000000000000000000000000000000000000000000000000000000815260040161105090612a2f565b60405180910390fd5b600560009054906101000a900473ffffffffffffffffffffffffffffffffffffffff1673ffffffffffffffffffffffffffffffffffffffff163373ffffffffffffffffffffffffffffffffffffffff16146110e9576040517f08c379a00000000000000000000000000000000000000000000000000000000081526004016110e090612ac1565b60405180910390fd5b6003808111156110fc576110fb611b27565b5b60008054906101000a900460ff16600381111561111c5761111b611b27565b5b0361115c576040517f08c379a000000000000000000000000000000000000000000000000000000000815260040161115390611cd7565b60405180910390fd5b8260016000018190555081600180018190555080600160020181905550505050565b600560009054906101000a900473ffffffffffffffffffffffffffffffffffffffff1673ffffffffffffffffffffffffffffffffffffffff163373ffffffffffffffffffffffffffffffffffffffff161461120e576040517f08c379a000000000000000000000000000000000000000000000000000000000815260040161120590612ac1565b60405180910390fd5b611216611328565b611255576040517f08c379a000000000000000000000000000000000000000000000000000000000815260040161124c90612a2f565b60405180910390fd5b60038081111561126857611267611b27565b5b60008054906101000a900460ff16600381111561128857611287611b27565b5b036112c8576040517f08c379a00000000000000000000000000000000000000000000000000000000081526004016112bf90611cd7565b60405180910390fd5b81600660000160006101000a81548160ff021916908360068111156112f0576112ef611b27565b5b02179055508060068001819055505050565b600560009054906101000a900473ffffffffffffffffffffffffffffffffffffffff1681565b6000600d60000160009054906101000a900460ff1680156113585750600d60000160019054906101000a900460ff165b80156113735750600d60000160029054906101000a900460ff165b801561138e5750600d60000160039054906101000a900460ff165b80156113a95750600d60000160049054906101000a900460ff165b156113b757600190506113bc565b600090505b90565b6113c7611328565b611406576040517f08c379a00000000000000000000000000000000000000000000000000000000081526004016113fd90612a2f565b60405180910390fd5b600560009054906101000a900473ffffffffffffffffffffffffffffffffffffffff1673ffffffffffffffffffffffffffffffffffffffff163373ffffffffffffffffffffffffffffffffffffffff1614611496576040517f08c379a000000000000000000000000000000000000000000000000000000000815260040161148d90612ac1565b60405180910390fd5b6003808111156114a9576114a8611b27565b5b60008054906101000a900460ff1660038111156114c9576114c8611b27565b5b03611509576040517f08c379a000000000000000000000000000000000000000000000000000000000815260040161150090611cd7565b60405180910390fd5b80600660000160006101000a81548160ff0219169083600681111561153157611530611b27565b5b021790555050565b6000806000600460009054906101000a900473ffffffffffffffffffffffffffffffffffffffff16600560009054906101000a900473ffffffffffffffffffffffffffffffffffffffff1660008054906101000a900460ff16925092509250909192565b60011515600460009054906101000a900473ffffffffffffffffffffffffffffffffffffffff1673ffffffffffffffffffffffffffffffffffffffff1663f33c4ff9336040518263ffffffff1660e01b81526004016115fc919061217e565b602060405180830381865afa158015611619573d6000803e3d6000fd5b505050506040513d601f19601f8201168201806040525081019061163d9190612deb565b15151461167f576040517f08c379a000000000000000000000000000000000000000000000000000000000815260040161167690612e8a565b60405180910390fd5b60038081111561169257611691611b27565b5b60008054906101000a900460ff1660038111156116b2576116b1611b27565b5b036116f2576040517f08c379a00000000000000000000000000000000000000000000000000000000081526004016116e990611cd7565b60405180910390fd5b84600d60000160006101000a81548160ff02191690831515021790555083600d60000160016101000a81548160ff02191690831515021790555082600d60000160026101000a81548160ff02191690831515021790555081600d60000160036101000a81548160ff02191690831515021790555080600d60000160046101000a81548160ff0219169083151502179055505050505050565b6000815183511461179e57600090506117f0565b816040516020016117af9190612ee6565b60405160208183030381529060405280519060200120836040516020016117d69190612ee6565b604051602081830303815290604052805190602001201490505b92915050565b6117fe611328565b61183d576040517f08c379a000000000000000000000000000000000000000000000000000000000815260040161183490612a2f565b60405180910390fd5b600560009054906101000a900473ffffffffffffffffffffffffffffffffffffffff1673ffffffffffffffffffffffffffffffffffffffff163373ffffffffffffffffffffffffffffffffffffffff16146118cd576040517f08c379a00000000000000000000000000000000000000000000000000000000081526004016118c490612ac1565b60405180910390fd5b6003808111156118e0576118df611b27565b5b60008054906101000a900460ff166003811115611900576118ff611b27565b5b03611940576040517f08c379a000000000000000000000000000000000000000000000000000000000815260040161193790611cd7565b60405180910390fd5b80600680018190555050565b600d8060000160009054906101000a900460ff16908060000160019054906101000a900460ff16908060000160029054906101000a900460ff16908060000160039054906101000a900460ff16908060000160049054906101000a900460ff16905085565b6119b9611328565b6119f8576040517f08c379a00000000000000000000000000000000000000000000000000000000081526004016119ef90612a2f565b60405180910390fd5b600560009054906101000a900473ffffffffffffffffffffffffffffffffffffffff1673ffffffffffffffffffffffffffffffffffffffff163373ffffffffffffffffffffffffffffffffffffffff1614611a88576040517f08c379a0000000000000000000000000000000000000000000000000000000008152600401611a7f90612ac1565b60405180910390fd5b600380811115611a9b57611a9a611b27565b5b60008054906101000a900460ff166003811115611abb57611aba611b27565b5b03611afb576040517f08c379a0000000000000000000000000000000000000000000000000000000008152600401611af290611cd7565b60405180910390fd5b806000806101000a81548160ff02191690836003811115611b1f57611b1e611b27565b5b021790555050565b7f4e487b7100000000000000000000000000000000000000000000000000000000600052602160045260246000fd5b600082825260208201905092915050565b7f546869732070726f706572747927732074656e757265207479706520646f657360008201527f206e6f7420737570706f7274206265696e6720736f6c64000000000000000000602082015250565b6000611bc3603783611b56565b9150611bce82611b67565b604082019050919050565b60006020820190508181036000830152611bf281611bb6565b9050919050565b7f546869732070726f7065727479206973206e6f7420666f722073616c652e0000600082015250565b6000611c2f601e83611b56565b9150611c3a82611bf9565b602082019050919050565b60006020820190508181036000830152611c5e81611c22565b9050919050565b7f546869732050726f7065727479205469746c6520436f6e74726163742069732060008201527f6e6f206c6f6e6765722072656c6176616e740000000000000000000000000000602082015250565b6000611cc1603283611b56565b9150611ccc82611c65565b604082019050919050565b60006020820190508181036000830152611cf081611cb4565b9050919050565b6000819050919050565b7f4e487b7100000000000000000000000000000000000000000000000000000000600052601160045260246000fd5b6000611d3b82611cf7565b9150611d4683611cf7565b9250828203905081811115611d5e57611d5d611d01565b5b92915050565b60008160011c9050919050565b6000808291508390505b6001851115611dbb57808604811115611d9757611d96611d01565b5b6001851615611da65780820291505b8081029050611db485611d64565b9450611d7b565b94509492505050565b600082611dd45760019050611e90565b81611de25760009050611e90565b8160018114611df85760028114611e0257611e31565b6001915050611e90565b60ff841115611e1457611e13611d01565b5b8360020a915084821115611e2b57611e2a611d01565b5b50611e90565b5060208310610133831016604e8410600b8410161715611e665782820a905083811115611e6157611e60611d01565b5b611e90565b611e738484846001611d71565b92509050818404811115611e8a57611e89611d01565b5b81810290505b9392505050565b6000611ea282611cf7565b9150611ead83611cf7565b9250611eda7fffffffffffffffffffffffffffffffffffffffffffffffffffffffffffffffff8484611dc4565b905092915050565b6000611eed82611cf7565b9150611ef883611cf7565b9250817fffffffffffffffffffffffffffffffffffffffffffffffffffffffffffffffff0483118215151615611f3157611f30611d01565b5b828202905092915050565b6000611f4782611cf7565b9150611f5283611cf7565b9250828201905080821115611f6a57611f69611d01565b5b92915050565b7f496e73756666696369656e742066756e64730000000000000000000000000000600082015250565b6000611fa6601283611b56565b9150611fb182611f70565b602082019050919050565b60006020820190508181036000830152611fd581611f99565b9050919050565b60078110611fed57611fec611b27565b5b50565b6000819050611ffe82611fdc565b919050565b600061200e82611ff0565b9050919050565b61201e81612003565b82525050565b600081519050919050565b60005b8381101561204d578082015181840152602081019050612032565b60008484015250505050565b6000601f19601f8301169050919050565b600061207582612024565b61207f8185611b56565b935061208f81856020860161202f565b61209881612059565b840191505092915050565b6120ac81611cf7565b82525050565b600060e0820190506120c7600083018a612015565b81810360208301526120d9818961206a565b905081810360408301526120ed818861206a565b90508181036060830152612101818761206a565b90508181036080830152612115818661206a565b905061212460a08301856120a3565b61213160c08301846120a3565b98975050505050505050565b600073ffffffffffffffffffffffffffffffffffffffff82169050919050565b60006121688261213d565b9050919050565b6121788161215d565b82525050565b6000602082019050612193600083018461216f565b92915050565b60006060820190506121ae60008301866120a3565b6121bb60208301856120a3565b6121c860408301846120a3565b949350505050565b6000604051905090565b600080fd5b600080fd5b600080fd5b600080fd5b7f4e487b7100000000000000000000000000000000000000000000000000000000600052604160045260246000fd5b61222682612059565b810181811067ffffffffffffffff82111715612245576122446121ee565b5b80604052505050565b60006122586121d0565b9050612264828261221d565b919050565b600067ffffffffffffffff821115612284576122836121ee565b5b61228d82612059565b9050602081019050919050565b82818337600083830152505050565b60006122bc6122b784612269565b61224e565b9050828152602081018484840111156122d8576122d76121e9565b5b6122e384828561229a565b509392505050565b600082601f830112612300576122ff6121e4565b5b81356123108482602086016122a9565b91505092915050565b600080604083850312156123305761232f6121da565b5b600083013567ffffffffffffffff81111561234e5761234d6121df565b5b61235a858286016122eb565b925050602083013567ffffffffffffffff81111561237b5761237a6121df565b5b612387858286016122eb565b9150509250929050565b61239a81611cf7565b81146123a557600080fd5b50565b6000813590506123b781612391565b92915050565b600781106123ca57600080fd5b50565b6000813590506123dc816123bd565b92915050565b600080600080600060a086880312156123fe576123fd6121da565b5b600061240c888289016123a8565b955050602061241d888289016123a8565b945050604061242e888289016123a8565b935050606061243f888289016123cd565b9250506080612450888289016123a8565b9150509295509295909350565b600067ffffffffffffffff821115612478576124776121ee565b5b602082029050602081019050919050565b600080fd5b60006124a161249c8461245d565b61224e565b905080838252602082019050602084028301858111156124c4576124c3612489565b5b835b8181101561250b57803567ffffffffffffffff8111156124e9576124e86121e4565b5b8086016124f689826122eb565b855260208501945050506020810190506124c6565b5050509392505050565b600082601f83011261252a576125296121e4565b5b813561253a84826020860161248e565b91505092915050565b6000806040838503121561255a576125596121da565b5b600083013567ffffffffffffffff811115612578576125776121df565b5b612584858286016122eb565b925050602083013567ffffffffffffffff8111156125a5576125a46121df565b5b6125b185828601612515565b9150509250929050565b60008115159050919050565b6125d0816125bb565b82525050565b60006020820190506125eb60008301846125c7565b92915050565b600060208201905061260660008301846120a3565b92915050565b60006126178261213d565b9050919050565b6126278161260c565b811461263257600080fd5b50565b6000813590506126448161261e565b92915050565b6004811061265757600080fd5b50565b6000813590506126698161264a565b92915050565b60008060408385031215612686576126856121da565b5b600061269485828601612635565b92505060206126a58582860161265a565b9150509250929050565b600481106126c0576126bf611b27565b5b50565b60008190506126d1826126af565b919050565b60006126e1826126c3565b9050919050565b6126f1816126d6565b82525050565b600060208201905061270c60008301846126e8565b92915050565b60008060006060848603121561272b5761272a6121da565b5b6000612739868287016123a8565b935050602061274a868287016123a8565b925050604061275b868287016123a8565b9150509250925092565b6000806040838503121561277c5761277b6121da565b5b600061278a858286016123cd565b925050602061279b858286016123a8565b9150509250929050565b6000602082840312156127bb576127ba6121da565b5b60006127c9848285016123cd565b91505092915050565b60006060820190506127e7600083018661216f565b6127f4602083018561216f565b61280160408301846126e8565b949350505050565b612812816125bb565b811461281d57600080fd5b50565b60008135905061282f81612809565b92915050565b600080600080600060a08688031215612851576128506121da565b5b600061285f88828901612820565b955050602061287088828901612820565b945050604061288188828901612820565b935050606061289288828901612820565b92505060806128a388828901612820565b9150509295509295909350565b6000602082840312156128c6576128c56121da565b5b60006128d4848285016123a8565b91505092915050565b600060a0820190506128f260008301886125c7565b6128ff60208301876125c7565b61290c60408301866125c7565b61291960608301856125c7565b61292660808301846125c7565b9695505050505050565b600060208284031215612946576129456121da565b5b60006129548482850161265a565b91505092915050565b7f4e487b7100000000000000000000000000000000000000000000000000000000600052602260045260246000fd5b600060028204905060018216806129a457607f821691505b6020821081036129b7576129b661295d565b5b50919050565b7f5468652070726f7065727479206973206e6f74206c6567616c6c7920616c726960008201527f6768742e00000000000000000000000000000000000000000000000000000000602082015250565b6000612a19602483611b56565b9150612a24826129bd565b604082019050919050565b60006020820190508181036000830152612a4881612a0c565b9050919050565b7f4f6e6c7920746865206f776e6572206f662074686520436f6e7472616374206860008201527f61732061636365737320746f2074686973210000000000000000000000000000602082015250565b6000612aab603283611b56565b9150612ab682612a4f565b604082019050919050565b60006020820190508181036000830152612ada81612a9e565b9050919050565b60008190508160005260206000209050919050565b60006020601f8301049050919050565b600082821b905092915050565b600060088302612b437fffffffffffffffffffffffffffffffffffffffffffffffffffffffffffffffff82612b06565b612b4d8683612b06565b95508019841693508086168417925050509392505050565b6000819050919050565b6000612b8a612b85612b8084611cf7565b612b65565b611cf7565b9050919050565b6000819050919050565b612ba483612b6f565b612bb8612bb082612b91565b848454612b13565b825550505050565b600090565b612bcd612bc0565b612bd8818484612b9b565b505050565b5b81811015612bfc57612bf1600082612bc5565b600181019050612bde565b5050565b601f821115612c4157612c1281612ae1565b612c1b84612af6565b81016020851015612c2a578190505b612c3e612c3685612af6565b830182612bdd565b50505b505050565b600082821c905092915050565b6000612c6460001984600802612c46565b1980831691505092915050565b6000612c7d8383612c53565b9150826002028217905092915050565b612c9682612024565b67ffffffffffffffff811115612caf57612cae6121ee565b5b612cb9825461298c565b612cc4828285612c00565b600060209050601f831160018114612cf75760008415612ce5578287015190505b612cef8582612c71565b865550612d57565b601f198416612d0586612ae1565b60005b82811015612d2d57848901518255600182019150602085019450602081019050612d08565b86831015612d4a5784890151612d46601f891682612c53565b8355505b6001600288020188555050505b505050505050565b7f4e487b7100000000000000000000000000000000000000000000000000000000600052603260045260246000fd5b6000612d9982611cf7565b91507fffffffffffffffffffffffffffffffffffffffffffffffffffffffffffffffff8203612dcb57612dca611d01565b5b600182019050919050565b600081519050612de581612809565b92915050565b600060208284031215612e0157612e006121da565b5b6000612e0f84828501612dd6565b91505092915050565b7f4f6e6c792061207265676973746572656420726567697374726172206861732060008201527f61636365737320746f207468697320616374696f6e2e00000000000000000000602082015250565b6000612e74603683611b56565b9150612e7f82612e18565b604082019050919050565b60006020820190508181036000830152612ea381612e67565b9050919050565b600081905092915050565b6000612ec082612024565b612eca8185612eaa565b9350612eda81856020860161202f565b80840191505092915050565b6000612ef28284612eb5565b91508190509291505056fea2646970667358221220c04f4bdee3cc51c50d04aaad20c8ecd38cf1dc09eccc5f13101b6768ba3fde5964736f6c63430008100033a26469706673582212207415a61b4c4e8ff144eb5762eb638d986142f6749d177cc25183d43bdab9540864736f6c63430008100033",
  "immutableReferences": {},
  "source": "//SPDX-License-Identifier: MIT\r\npragma solidity ^0.8.15;\r\n\r\nimport \"./PropertyTitle.sol\";\r\n\r\ninterface IAccessPropertyTitleMethods {\r\n    function contractState() external view returns (PropertyTitleContractState);\r\n}\r\n\r\ncontract TitleCreatingContract {\r\n    address[] public owners;\r\n    mapping (address => bool) public isOwner;\r\n\r\n    address[] public registrars;\r\n    mapping (address => bool) public isRegistrar;\r\n\r\n    address[] public titleContracts;\r\n    mapping (address => bool) public propertyTitleContractsValidaty;\r\n\r\n    constructor(address[] memory _owners)\r\n    {\r\n        for (uint256 i = 0; i < _owners.length; i++) {\r\n            owners.push(_owners[i]);\r\n            isOwner[_owners[i]] = true;\r\n        }\r\n    }\r\n\r\n    function addRegistrars(address[] memory _registrars) public onlyOwner {\r\n        for (uint256 i = 0; i < _registrars.length; i++) {\r\n            if (!checkIfUserIsOwner(_registrars[i])) {\r\n                registrars.push(_registrars[i]);\r\n                isRegistrar[_registrars[i]] = true;\r\n            }\r\n        }\r\n    }\r\n\r\n    function removeRegistrarRole(address[] memory _registrars) public onlyOwner {\r\n        for (uint256 i = 0; i < _registrars.length; i++) {\r\n            isRegistrar[_registrars[i]] = false;\r\n        }\r\n    }\r\n\r\n    function reactivateRegistrarRole(address[] memory _registrars) public onlyOwner {\r\n        for (uint256 i = 0; i < _registrars.length; i++) {\r\n            isRegistrar[_registrars[i]] = true;\r\n        }\r\n    }\r\n\r\n    function deployNewPropertyTitle(\r\n        address _owner,\r\n        string memory _country,\r\n        string memory _city,\r\n        string memory _street,\r\n        string memory _streeNumber,\r\n        uint256 _apartmentNumber,\r\n        uint256 _squareMeters,\r\n        uint256 _sellingPriceIntegralPart,\r\n        uint256 _sellingPriceFractionalPart,\r\n        uint256  _sellingPriceFractionalPartLength\r\n    )\r\n        public\r\n    {\r\n        PropertyTitle propertyTitle = new PropertyTitle(\r\n            address(this),\r\n            _owner,\r\n            _country,\r\n            _city,\r\n            _street,\r\n            _streeNumber,\r\n            _apartmentNumber,\r\n            _squareMeters,\r\n            _sellingPriceIntegralPart,\r\n            _sellingPriceFractionalPart,\r\n            _sellingPriceFractionalPartLength\r\n        );\r\n        titleContracts.push(address(propertyTitle));\r\n        propertyTitleContractsValidaty[address(propertyTitle)] = false;\r\n    }\r\n\r\n    function validatePropertyTitleContract(address _contractAddress) public onlyRegistrar {\r\n        propertyTitleContractsValidaty[_contractAddress] = true;\r\n    }\r\n\r\n    function checkIfUserIsOwner(address userAddress) public view returns (bool) {\r\n        if (isOwner[userAddress] == true) {\r\n            return true;\r\n        }\r\n        return false;    \r\n    }\r\n\r\n    function checkIfUserIsRegistrar(address userAddress) public view returns (bool) {\r\n        if (isRegistrar[userAddress] == true) {\r\n            return true;\r\n        }\r\n        return false;\r\n    }\r\n\r\n    function getContractOwners() public view returns (address[] memory) {\r\n        return owners;\r\n    }\r\n\r\n    function getContractRegistrars() public view returns (address[] memory) {\r\n        return registrars;\r\n    }\r\n\r\n    function getTitleContracts() public view returns (address[] memory) {\r\n        return titleContracts;\r\n    }\r\n\r\n    function getPendingTitleContractsCount() public view returns (uint256) {\r\n        uint256 counter = 0;\r\n        for (uint256 i = 0; i < titleContracts.length; i++) {\r\n            if (IAccessPropertyTitleMethods(titleContracts[i]).contractState() == PropertyTitleContractState.PENDING) {\r\n                counter++;\r\n            } \r\n        }\r\n\r\n        return counter;\r\n    }\r\n\r\n    function getActiveTitleContractsCount() public view returns (uint256) {\r\n        uint256 counter = 0;\r\n        for (uint256 i = 0; i < titleContracts.length; i++) {\r\n            if (IAccessPropertyTitleMethods(titleContracts[i]).contractState() == PropertyTitleContractState.OWNED ||\r\n                IAccessPropertyTitleMethods(titleContracts[i]).contractState() == PropertyTitleContractState.FOR_SALE) {\r\n                counter++;\r\n            } \r\n        }\r\n\r\n        return counter;\r\n    }\r\n\r\n    function getNoLongerRelevantTitleContractsCount() public view returns (uint256) {\r\n        uint256 counter = 0;\r\n        for (uint256 i = 0; i < titleContracts.length; i++) {\r\n            if (IAccessPropertyTitleMethods(titleContracts[i]).contractState() == PropertyTitleContractState.NO_LONGER_RELEVANT) {\r\n                counter++;\r\n            } \r\n        }\r\n\r\n        return counter;\r\n    }\r\n\r\n    function getPendingTitleContracts() public view returns (address[] memory) {\r\n        address[] memory titleContractsAddresses = new address[](getPendingTitleContractsCount());\r\n\r\n        uint256 k = 0;\r\n        for (uint256 i = 0; i < titleContracts.length; i++) {\r\n            if (IAccessPropertyTitleMethods(titleContracts[i]).contractState() == PropertyTitleContractState.PENDING) {\r\n                titleContractsAddresses[k++] = titleContracts[i];\r\n            } \r\n        }\r\n\r\n        return titleContractsAddresses;\r\n    }\r\n\r\n    function getPendingTitleContractsByOffsetAndLimit(uint256 offset, uint256 limit) public view returns (address[] memory) {\r\n        address[] memory titleContractsAddresses = getPendingTitleContractsCount() > offset + limit \r\n            ? new address[](limit) \r\n            : new address[](getPendingTitleContractsCount() - offset);\r\n\r\n        address[] memory pendingTitleContracts = getPendingTitleContracts();\r\n        for (uint256 i = offset; i < offset + limit; i++) {\r\n            if (i >= titleContracts.length) {\r\n                break;\r\n            }\r\n            titleContractsAddresses[i - offset] = pendingTitleContracts[i];\r\n        }\r\n\r\n        return titleContractsAddresses;\r\n    }\r\n\r\n    function getActiveTitleContracts() public view returns (address[] memory) {\r\n        address[] memory titleContractsAddresses = new address[](getActiveTitleContractsCount());\r\n\r\n        uint256 k = 0;\r\n        for (uint256 i = 0; i < titleContracts.length; i++) {\r\n            if (IAccessPropertyTitleMethods(titleContracts[i]).contractState() == PropertyTitleContractState.OWNED ||\r\n                IAccessPropertyTitleMethods(titleContracts[i]).contractState() == PropertyTitleContractState.FOR_SALE) {\r\n                titleContractsAddresses[k++] = titleContracts[i];\r\n            }\r\n        }\r\n\r\n        return titleContractsAddresses;\r\n    }\r\n\r\n    function getNoLongerRelevantTitleContracts() public view returns (address[] memory) {\r\n        address[] memory titleContractsAddresses = new address[](getNoLongerRelevantTitleContractsCount());\r\n\r\n        uint256 k = 0;\r\n        for (uint256 i = 0; i < titleContracts.length; i++) {\r\n            if (IAccessPropertyTitleMethods(titleContracts[i]).contractState() == PropertyTitleContractState.NO_LONGER_RELEVANT) {\r\n                titleContractsAddresses[k++] = titleContracts[i];\r\n            }\r\n        }\r\n\r\n        return titleContractsAddresses;\r\n    }\r\n\r\n    modifier onlyRegistrar {\r\n        require(isRegistrar[msg.sender] == true, \"Only one of the registrars has access to this functionality.\");\r\n        _;\r\n    }\r\n\r\n    modifier onlyOwner {\r\n        require(isOwner[msg.sender] == true, \"Only one of the owners has access to this functionality.\");\r\n        _;\r\n    }\r\n}",
  "sourcePath": "D:\\Propty\\propty\\contracts\\contracts\\TitleCreatingContract.sol",
  "compiler": {
    "name": "solc",
    "version": "0.8.16+commit.07a7930e.Emscripten.clang"
  },
  "schemaVersion": "3.4.9",
  "updatedAt": "2022-11-18T06:27:06.005Z",
  "networkType": "ethereum",
  "devdoc": {
    "kind": "dev",
    "methods": {},
    "version": 1
  },
  "userdoc": {
    "kind": "user",
    "methods": {},
    "version": 1
  }
}