{
  "contractName": "TitleCreatingContract",
  "abi": [
    {
      "inputs": [
        {
          "internalType": "address[]",
          "name": "_owners",
          "type": "address[]"
        }
      ],
      "stateMutability": "nonpayable",
      "type": "constructor"
    },
    {
      "anonymous": false,
      "inputs": [
        {
          "indexed": true,
          "internalType": "address",
          "name": "ownerAddress",
          "type": "address"
        },
        {
          "indexed": true,
          "internalType": "address",
          "name": "titleContractAddress",
          "type": "address"
        },
        {
          "indexed": false,
          "internalType": "uint256",
          "name": "timestamp",
          "type": "uint256"
        }
      ],
      "name": "NewTitleContract",
      "type": "event"
    },
    {
      "inputs": [
        {
          "internalType": "address",
          "name": "",
          "type": "address"
        }
      ],
      "name": "isOwner",
      "outputs": [
        {
          "internalType": "bool",
          "name": "",
          "type": "bool"
        }
      ],
      "stateMutability": "view",
      "type": "function",
      "constant": true
    },
    {
      "inputs": [
        {
          "internalType": "address",
          "name": "",
          "type": "address"
        }
      ],
      "name": "isRegistrar",
      "outputs": [
        {
          "internalType": "bool",
          "name": "",
          "type": "bool"
        }
      ],
      "stateMutability": "view",
      "type": "function",
      "constant": true
    },
    {
      "inputs": [
        {
          "internalType": "uint256",
          "name": "",
          "type": "uint256"
        }
      ],
      "name": "owners",
      "outputs": [
        {
          "internalType": "address",
          "name": "",
          "type": "address"
        }
      ],
      "stateMutability": "view",
      "type": "function",
      "constant": true
    },
    {
      "inputs": [
        {
          "internalType": "uint256",
          "name": "",
          "type": "uint256"
        }
      ],
      "name": "registrars",
      "outputs": [
        {
          "internalType": "address",
          "name": "",
          "type": "address"
        }
      ],
      "stateMutability": "view",
      "type": "function",
      "constant": true
    },
    {
      "inputs": [
        {
          "internalType": "uint256",
          "name": "",
          "type": "uint256"
        }
      ],
      "name": "titleContracts",
      "outputs": [
        {
          "internalType": "address",
          "name": "",
          "type": "address"
        }
      ],
      "stateMutability": "view",
      "type": "function",
      "constant": true
    },
    {
      "inputs": [
        {
          "internalType": "address[]",
          "name": "_registrars",
          "type": "address[]"
        }
      ],
      "name": "addRegistrars",
      "outputs": [],
      "stateMutability": "nonpayable",
      "type": "function"
    },
    {
      "inputs": [
        {
          "internalType": "address[]",
          "name": "_registrars",
          "type": "address[]"
        }
      ],
      "name": "removeRegistrarRole",
      "outputs": [],
      "stateMutability": "nonpayable",
      "type": "function"
    },
    {
      "inputs": [
        {
          "internalType": "address[]",
          "name": "_registrars",
          "type": "address[]"
        }
      ],
      "name": "reactivateRegistrarRole",
      "outputs": [],
      "stateMutability": "nonpayable",
      "type": "function"
    },
    {
      "inputs": [
        {
          "internalType": "address",
          "name": "_owner",
          "type": "address"
        },
        {
          "internalType": "string",
          "name": "_country",
          "type": "string"
        },
        {
          "internalType": "string",
          "name": "_city",
          "type": "string"
        },
        {
          "internalType": "string",
          "name": "_street",
          "type": "string"
        },
        {
          "internalType": "string",
          "name": "_streeNumber",
          "type": "string"
        },
        {
          "internalType": "uint256",
          "name": "_apartmentNumber",
          "type": "uint256"
        },
        {
          "internalType": "uint256",
          "name": "_squareMeters",
          "type": "uint256"
        },
        {
          "internalType": "uint256",
          "name": "_sellingPriceIntegralPart",
          "type": "uint256"
        },
        {
          "internalType": "uint256",
          "name": "_sellingPriceFractionalPart",
          "type": "uint256"
        },
        {
          "internalType": "uint256",
          "name": "_sellingPriceFractionalPartLength",
          "type": "uint256"
        }
      ],
      "name": "deployNewPropertyTitle",
      "outputs": [],
      "stateMutability": "nonpayable",
      "type": "function"
    },
    {
      "inputs": [
        {
          "internalType": "address",
          "name": "userAddress",
          "type": "address"
        }
      ],
      "name": "checkIfUserIsOwner",
      "outputs": [
        {
          "internalType": "bool",
          "name": "",
          "type": "bool"
        }
      ],
      "stateMutability": "view",
      "type": "function",
      "constant": true
    },
    {
      "inputs": [
        {
          "internalType": "address",
          "name": "userAddress",
          "type": "address"
        }
      ],
      "name": "checkIfUserIsRegistrar",
      "outputs": [
        {
          "internalType": "bool",
          "name": "",
          "type": "bool"
        }
      ],
      "stateMutability": "view",
      "type": "function",
      "constant": true
    },
    {
      "inputs": [],
      "name": "getContractOwners",
      "outputs": [
        {
          "internalType": "address[]",
          "name": "",
          "type": "address[]"
        }
      ],
      "stateMutability": "view",
      "type": "function",
      "constant": true
    },
    {
      "inputs": [],
      "name": "getContractRegistrars",
      "outputs": [
        {
          "internalType": "address[]",
          "name": "",
          "type": "address[]"
        }
      ],
      "stateMutability": "view",
      "type": "function",
      "constant": true
    },
    {
      "inputs": [],
      "name": "getContracts",
      "outputs": [
        {
          "internalType": "address[]",
          "name": "",
          "type": "address[]"
        }
      ],
      "stateMutability": "view",
      "type": "function",
      "constant": true
    },
    {
      "inputs": [],
      "name": "getPendingContractsCount",
      "outputs": [
        {
          "internalType": "uint256",
          "name": "",
          "type": "uint256"
        }
      ],
      "stateMutability": "view",
      "type": "function",
      "constant": true
    },
    {
      "inputs": [],
      "name": "getPendingContracts",
      "outputs": [
        {
          "internalType": "address[]",
          "name": "",
          "type": "address[]"
        }
      ],
      "stateMutability": "view",
      "type": "function",
      "constant": true
    },
    {
      "inputs": [
        {
          "internalType": "uint256",
          "name": "offset",
          "type": "uint256"
        },
        {
          "internalType": "uint256",
          "name": "limit",
          "type": "uint256"
        }
      ],
      "name": "getPendingContractsByOffsetAndLimit",
      "outputs": [
        {
          "internalType": "address[]",
          "name": "",
          "type": "address[]"
        }
      ],
      "stateMutability": "view",
      "type": "function",
      "constant": true
    },
    {
      "inputs": [
        {
          "internalType": "string",
          "name": "addressToSearchFor",
          "type": "string"
        }
      ],
      "name": "getActiveContractsByAddressCount",
      "outputs": [
        {
          "internalType": "uint256",
          "name": "",
          "type": "uint256"
        }
      ],
      "stateMutability": "view",
      "type": "function",
      "constant": true
    },
    {
      "inputs": [],
      "name": "getActiveContractsCount",
      "outputs": [
        {
          "internalType": "uint256",
          "name": "",
          "type": "uint256"
        }
      ],
      "stateMutability": "view",
      "type": "function",
      "constant": true
    },
    {
      "inputs": [],
      "name": "getActiveContracts",
      "outputs": [
        {
          "internalType": "address[]",
          "name": "",
          "type": "address[]"
        }
      ],
      "stateMutability": "view",
      "type": "function",
      "constant": true
    },
    {
      "inputs": [
        {
          "internalType": "string",
          "name": "addressToSearchFor",
          "type": "string"
        }
      ],
      "name": "getActiveContractsByAddress",
      "outputs": [
        {
          "internalType": "address[]",
          "name": "",
          "type": "address[]"
        }
      ],
      "stateMutability": "view",
      "type": "function",
      "constant": true
    },
    {
      "inputs": [
        {
          "internalType": "string",
          "name": "addressToSearchFor",
          "type": "string"
        },
        {
          "internalType": "uint256",
          "name": "offset",
          "type": "uint256"
        },
        {
          "internalType": "uint256",
          "name": "limit",
          "type": "uint256"
        }
      ],
      "name": "getActiveContractsByAddressAndOffsetAndLimit",
      "outputs": [
        {
          "internalType": "address[]",
          "name": "",
          "type": "address[]"
        }
      ],
      "stateMutability": "view",
      "type": "function",
      "constant": true
    },
    {
      "inputs": [
        {
          "internalType": "string",
          "name": "addressToSearchFor",
          "type": "string"
        }
      ],
      "name": "getForSaleContractsByAddressCount",
      "outputs": [
        {
          "internalType": "uint256",
          "name": "",
          "type": "uint256"
        }
      ],
      "stateMutability": "view",
      "type": "function",
      "constant": true
    },
    {
      "inputs": [],
      "name": "getForSaleContractsCount",
      "outputs": [
        {
          "internalType": "uint256",
          "name": "",
          "type": "uint256"
        }
      ],
      "stateMutability": "view",
      "type": "function",
      "constant": true
    },
    {
      "inputs": [],
      "name": "getForSaleContracts",
      "outputs": [
        {
          "internalType": "address[]",
          "name": "",
          "type": "address[]"
        }
      ],
      "stateMutability": "view",
      "type": "function",
      "constant": true
    },
    {
      "inputs": [
        {
          "internalType": "string",
          "name": "addressToSearchFor",
          "type": "string"
        }
      ],
      "name": "getForSaleContractsByAddress",
      "outputs": [
        {
          "internalType": "address[]",
          "name": "",
          "type": "address[]"
        }
      ],
      "stateMutability": "view",
      "type": "function",
      "constant": true
    },
    {
      "inputs": [
        {
          "internalType": "string",
          "name": "addressToSearchFor",
          "type": "string"
        },
        {
          "internalType": "uint256",
          "name": "offset",
          "type": "uint256"
        },
        {
          "internalType": "uint256",
          "name": "limit",
          "type": "uint256"
        }
      ],
      "name": "getForSaleContractsByAddressAndOffsetAndLimit",
      "outputs": [
        {
          "internalType": "address[]",
          "name": "",
          "type": "address[]"
        }
      ],
      "stateMutability": "view",
      "type": "function",
      "constant": true
    },
    {
      "inputs": [
        {
          "internalType": "address",
          "name": "account",
          "type": "address"
        }
      ],
      "name": "getAccountContractsCount",
      "outputs": [
        {
          "internalType": "uint256",
          "name": "",
          "type": "uint256"
        }
      ],
      "stateMutability": "view",
      "type": "function",
      "constant": true
    },
    {
      "inputs": [
        {
          "internalType": "address",
          "name": "account",
          "type": "address"
        }
      ],
      "name": "getAccountContracts",
      "outputs": [
        {
          "internalType": "address[]",
          "name": "",
          "type": "address[]"
        }
      ],
      "stateMutability": "view",
      "type": "function",
      "constant": true
    },
    {
      "inputs": [
        {
          "internalType": "string",
          "name": "stringToSearchIn",
          "type": "string"
        },
        {
          "internalType": "string",
          "name": "stringToSearchFor",
          "type": "string"
        }
      ],
      "name": "stringContains",
      "outputs": [
        {
          "internalType": "bool",
          "name": "",
          "type": "bool"
        }
      ],
      "stateMutability": "pure",
      "type": "function",
      "constant": true
    },
    {
      "inputs": [
        {
          "internalType": "string",
          "name": "str",
          "type": "string"
        }
      ],
      "name": "toLower",
      "outputs": [
        {
          "internalType": "string",
          "name": "",
          "type": "string"
        }
      ],
      "stateMutability": "pure",
      "type": "function",
      "constant": true
    }
  ],
  "bytecode": "0x60806040523480156200001157600080fd5b506040516200561438038062005614833981016040819052620000349162000149565b60005b8151811015620000f55760008282815181106200005857620000586200021b565b6020908102919091018101518254600180820185556000948552928420018054600160a060020a031916600160a060020a03909216919091179055835190918291859085908110620000ae57620000ae6200021b565b602090810291909101810151600160a060020a03168252810191909152604001600020805460ff191691151591909117905580620000ec816200024a565b91505062000037565b50506200028b565b7f4e487b7100000000000000000000000000000000000000000000000000000000600052604160045260246000fd5b8051600160a060020a03811681146200014457600080fd5b919050565b600060208083850312156200015d57600080fd5b825167ffffffffffffffff808211156200017657600080fd5b818501915085601f8301126200018b57600080fd5b815181811115620001a057620001a0620000fd565b838102604051601f19603f83011681018181108582111715620001c757620001c7620000fd565b604052918252848201925083810185019188831115620001e657600080fd5b938501935b828510156200020f57620001ff856200012c565b84529385019392850192620001eb565b98975050505050505050565b7f4e487b7100000000000000000000000000000000000000000000000000000000600052603260045260246000fd5b60006001820162000284577f4e487b7100000000000000000000000000000000000000000000000000000000600052601160045260246000fd5b5060010190565b615379806200029b6000396000f3fe60806040523480156200001157600080fd5b50600436106200022a576000357c01000000000000000000000000000000000000000000000000000000009004806373b928cb1162000142578063c70c17f311620000cc578063ed63455c1162000097578063ed63455c14620004c1578063f33c4ff914620004d8578063f972b7ce14620004ef578063fb163e6914620004f957600080fd5b8063c70c17f31462000463578063d4950d91146200047a578063d5db72eb1462000484578063e964d4e114620004aa57600080fd5b806395cc3339116200010d57806395cc33391462000421578063a210bee21462000438578063ad44a5e4146200044f578063c3a2a93a146200045957600080fd5b806373b928cb14620003c35780638ffb2f7b14620003cd5780639089aee314620003e45780639416b42314620003fb57600080fd5b806331deb99111620001c45780635a44e3b7116200018f5780635a44e3b714620003675780635e0d99a1146200037e5780635fcf3c7714620003955780637211899514620003ac57600080fd5b806331deb991146200031857806333c368ed146200032257806333cf5ef814620003395780633ab007ed146200035057600080fd5b80630e47dbd911620002055780630e47dbd9146200029857806312f8383214620002b15780632a58812e14620002c85780632f54bf6e14620002e157600080fd5b8063022edd35146200022f578063025e7c2714620002515780630acae46e1462000281575b600080fd5b6200023962000503565b604051620002489190620023f1565b60405180910390f35b620002686200026236600462002434565b6200074b565b604051600160a060020a03909116815260200162000248565b620002396200029236600462002522565b62000776565b620002a262000913565b60405190815260200162000248565b62000268620002c236600462002434565b62000aa6565b620002df620002d93660046200259f565b62000ab7565b005b62000307620002f23660046200269a565b60016020526000908152604090205460ff1681565b604051901515815260200162000248565b620002a262000baa565b620002396200033336600462002522565b62000c89565b620002df6200034a366004620026c1565b62000e11565b62000239620003613660046200277f565b62000f59565b6200023962000378366004620027c0565b62001106565b620002396200038f3660046200277f565b62001299565b620002a2620003a63660046200277f565b620013a5565b620002df620003bd366004620026c1565b620015d0565b620002396200167a565b620002a2620003de3660046200277f565b6200180c565b620002a2620003f53660046200269a565b62001912565b620004126200040c3660046200277f565b62001ab4565b60405162000248919062002837565b620002df62000432366004620026c1565b62001c73565b620002686200044936600462002434565b62001d1d565b6200023962001d2e565b6200023962001ec0565b62000307620004743660046200269a565b62001f24565b6200023962001f5b565b62000307620004953660046200269a565b60036020526000908152604090205460ff1681565b62000239620004bb3660046200269a565b62001fbd565b62000307620004d23660046200284c565b6200216c565b62000307620004e93660046200269a565b62002274565b62000239620022a2565b620002a262002304565b606060006200051162000913565b67ffffffffffffffff8111156200052c576200052c6200244e565b60405190808252806020026020018201604052801562000556578160200160208202803683370190505b5090506000805b6004548110156200074357600160048281548110620005805762000580620028d0565b600091825260209182902001546040805160e560020a63042904f70281529051600160a060020a03909216926385209ee0926004808401938290030181865afa158015620005d2573d6000803e3d6000fd5b505050506040513d601f19601f82011682018060405250810190620005f89190620028e9565b60038111156200060c576200060c620028b7565b1480620006ba57506002600482815481106200062c576200062c620028d0565b600091825260209182902001546040805160e560020a63042904f70281529051600160a060020a03909216926385209ee0926004808401938290030181865afa1580156200067e573d6000803e3d6000fd5b505050506040513d601f19601f82011682018060405250810190620006a49190620028e9565b6003811115620006b857620006b8620028b7565b145b156200072e5760048181548110620006d657620006d6620028d0565b600091825260209091200154600160a060020a03168383620006f88162002925565b9450815181106200070d576200070d620028d0565b6020026020010190600160a060020a03169081600160a060020a0316815250505b806200073a8162002925565b9150506200055d565b509092915050565b600081815481106200075c57600080fd5b600091825260209091200154600160a060020a0316905081565b6060600062000785856200180c565b9050838111620007b55760405160e560020a62461bcd028152600401620007ac9062002941565b60405180910390fd5b6000620007c3848662002978565b82116200082257620007d685836200298e565b67ffffffffffffffff811115620007f157620007f16200244e565b6040519080825280602002602001820160405280156200081b578160200160208202803683370190505b506200086a565b8367ffffffffffffffff8111156200083e576200083e6200244e565b60405190808252806020026020018201604052801562000868578160200160208202803683370190505b505b90506000620008798762001299565b9050855b62000889868862002978565b811015620009075781518110156200090757818181518110620008b057620008b0620028d0565b6020026020010151838883620008c791906200298e565b81518110620008da57620008da620028d0565b600160a060020a039092166020928302919091019091015280620008fe8162002925565b9150506200087d565b50909695505050505050565b600080805b60045481101562000aa0576001600482815481106200093b576200093b620028d0565b600091825260209182902001546040805160e560020a63042904f70281529051600160a060020a03909216926385209ee0926004808401938290030181865afa1580156200098d573d6000803e3d6000fd5b505050506040513d601f19601f82011682018060405250810190620009b39190620028e9565b6003811115620009c757620009c7620028b7565b148062000a755750600260048281548110620009e757620009e7620028d0565b600091825260209182902001546040805160e560020a63042904f70281529051600160a060020a03909216926385209ee0926004808401938290030181865afa15801562000a39573d6000803e3d6000fd5b505050506040513d601f19601f8201168201806040525081019062000a5f9190620028e9565b600381111562000a735762000a73620028b7565b145b1562000a8b578162000a878162002925565b9250505b8062000a978162002925565b91505062000918565b50919050565b600281815481106200075c57600080fd5b6000308b8b8b8b8b8b8b8b8b8b60405162000ad290620023e3565b62000ae89b9a99989796959493929190620029a4565b604051809103906000f08015801562000b05573d6000803e3d6000fd5b50600480546001810182556000919091527f8a35acfbc15ff81a39ae7d344fd709f28e8600b4aa8c65c6b64bfe7fe36bd19b01805473ffffffffffffffffffffffffffffffffffffffff1916600160a060020a0383811691821790925560405142815292935091908d16907f29e6ab4db8e7f3ff67be9784f7f3b573b5a1c326121ef6a72113199486eb690a9060200160405180910390a35050505050505050505050565b600080805b60045481101562000aa05760026004828154811062000bd25762000bd2620028d0565b600091825260209182902001546040805160e560020a63042904f70281529051600160a060020a03909216926385209ee0926004808401938290030181865afa15801562000c24573d6000803e3d6000fd5b505050506040513d601f19601f8201168201806040525081019062000c4a9190620028e9565b600381111562000c5e5762000c5e620028b7565b0362000c74578162000c708162002925565b9250505b8062000c808162002925565b91505062000baf565b6060600062000c9885620013a5565b905083811162000cbf5760405160e560020a62461bcd028152600401620007ac9062002941565b600062000ccd848662002978565b821162000d2c5762000ce085836200298e565b67ffffffffffffffff81111562000cfb5762000cfb6200244e565b60405190808252806020026020018201604052801562000d25578160200160208202803683370190505b5062000d74565b8367ffffffffffffffff81111562000d485762000d486200244e565b60405190808252806020026020018201604052801562000d72578160200160208202803683370190505b505b9050600062000d838762000f59565b9050855b62000d93868862002978565b81101562000907578151811015620009075781818151811062000dba5762000dba620028d0565b602002602001015183888362000dd191906200298e565b8151811062000de45762000de4620028d0565b600160a060020a03909216602092830291909101909101528062000e088162002925565b91505062000d87565b3360009081526001602081905260409091205460ff1615151462000e4c5760405160e560020a62461bcd028152600401620007ac9062002a47565b60005b815181101562000f555762000e8082828151811062000e725762000e72620028d0565b602002602001015162001f24565b62000f4057600282828151811062000e9c5762000e9c620028d0565b602090810291909101810151825460018082018555600094855292842001805473ffffffffffffffffffffffffffffffffffffffff1916600160a060020a039092169190911790558351909160039185908590811062000f005762000f00620028d0565b6020026020010151600160a060020a0316600160a060020a0316815260200190815260200160002060006101000a81548160ff0219169083151502179055505b8062000f4c8162002925565b91505062000e4f565b5050565b6060600062000f6883620013a5565b67ffffffffffffffff81111562000f835762000f836200244e565b60405190808252806020026020018201604052801562000fad578160200160208202803683370190505b509050600062000fbc62000503565b90506000805b8251811015620010fc57620010806200107584838151811062000fe95762000fe9620028d0565b6020026020010151600160a060020a031663790d15de6040518163ffffffff167c0100000000000000000000000000000000000000000000000000000000028152600401600060405180830381865afa1580156200104b573d6000803e3d6000fd5b505050506040513d6000823e601f3d908101601f191682016040526200040c919081019062002aa4565b620004d28862001ab4565b15620010e7578281815181106200109b576200109b620028d0565b6020026020010151848380620010b19062002925565b945081518110620010c657620010c6620028d0565b6020026020010190600160a060020a03169081600160a060020a0316815250505b80620010f38162002925565b91505062000fc2565b5091949350505050565b606060006200111462002304565b90508381116200113b5760405160e560020a62461bcd028152600401620007ac9062002941565b600062001149848662002978565b8211620011a8576200115c85836200298e565b67ffffffffffffffff8111156200117757620011776200244e565b604051908082528060200260200182016040528015620011a1578160200160208202803683370190505b50620011f0565b8367ffffffffffffffff811115620011c457620011c46200244e565b604051908082528060200260200182016040528015620011ee578160200160208202803683370190505b505b90506000620011fe62001d2e565b9050855b6200120e868862002978565b8110156200128c5781518110156200128c57818181518110620012355762001235620028d0565b60200260200101518388836200124c91906200298e565b815181106200125f576200125f620028d0565b600160a060020a039092166020928302919091019091015280620012838162002925565b91505062001202565b5090925050505b92915050565b60606000620012a8836200180c565b67ffffffffffffffff811115620012c357620012c36200244e565b604051908082528060200260200182016040528015620012ed578160200160208202803683370190505b5090506000620012fc6200167a565b90506000805b8251811015620010fc57620013296200107584838151811062000fe95762000fe9620028d0565b156200139057828181518110620013445762001344620028d0565b60200260200101518483806200135a9062002925565b9450815181106200136f576200136f620028d0565b6020026020010190600160a060020a03169081600160a060020a0316815250505b806200139c8162002925565b91505062001302565b600080805b600454811015620015c957600160048281548110620013cd57620013cd620028d0565b600091825260209182902001546040805160e560020a63042904f70281529051600160a060020a03909216926385209ee0926004808401938290030181865afa1580156200141f573d6000803e3d6000fd5b505050506040513d601f19601f82011682018060405250810190620014459190620028e9565b6003811115620014595762001459620028b7565b1480620015075750600260048281548110620014795762001479620028d0565b600091825260209182902001546040805160e560020a63042904f70281529051600160a060020a03909216926385209ee0926004808401938290030181865afa158015620014cb573d6000803e3d6000fd5b505050506040513d601f19601f82011682018060405250810190620014f19190620028e9565b6003811115620015055762001505620028b7565b145b80156200159e57506200159e62001593600483815481106200152d576200152d620028d0565b6000918252602082200154604080517f790d15de0000000000000000000000000000000000000000000000000000000081529051600160a060020a039092169263790d15de926004808401938290030181865afa1580156200104b573d6000803e3d6000fd5b620004d28662001ab4565b15620015b45781620015b08162002925565b9250505b80620015c08162002925565b915050620013aa565b5092915050565b3360009081526001602081905260409091205460ff161515146200160b5760405160e560020a62461bcd028152600401620007ac9062002a47565b60005b815181101562000f5557600160036000848481518110620016335762001633620028d0565b602090810291909101810151600160a060020a03168252810191909152604001600020805460ff191691151591909117905580620016718162002925565b9150506200160e565b606060006200168862000baa565b67ffffffffffffffff811115620016a357620016a36200244e565b604051908082528060200260200182016040528015620016cd578160200160208202803683370190505b5090506000805b6004548110156200074357600260048281548110620016f757620016f7620028d0565b600091825260209182902001546040805160e560020a63042904f70281529051600160a060020a03909216926385209ee0926004808401938290030181865afa15801562001749573d6000803e3d6000fd5b505050506040513d601f19601f820116820180604052508101906200176f9190620028e9565b6003811115620017835762001783620028b7565b03620017f757600481815481106200179f576200179f620028d0565b600091825260209091200154600160a060020a03168383620017c18162002925565b945081518110620017d657620017d6620028d0565b6020026020010190600160a060020a03169081600160a060020a0316815250505b80620018038162002925565b915050620016d4565b600080805b600454811015620015c957600260048281548110620018345762001834620028d0565b600091825260209182902001546040805160e560020a63042904f70281529051600160a060020a03909216926385209ee0926004808401938290030181865afa15801562001886573d6000803e3d6000fd5b505050506040513d601f19601f82011682018060405250810190620018ac9190620028e9565b6003811115620018c057620018c0620028b7565b148015620018e75750620018e762001593600483815481106200152d576200152d620028d0565b15620018fd5781620018f98162002925565b9250505b80620019098162002925565b91505062001811565b600080805b600454811015620015c95783600160a060020a031660048281548110620019425762001942620028d0565b60009182526020918290200154604080517f8da5cb5b0000000000000000000000000000000000000000000000000000000081529051600160a060020a0390921692638da5cb5b926004808401938290030181865afa158015620019aa573d6000803e3d6000fd5b505050506040513d601f19601f82011682018060405250810190620019d0919062002b24565b600160a060020a031614801562001a895750600360048281548110620019fa57620019fa620028d0565b600091825260209182902001546040805160e560020a63042904f70281529051600160a060020a03909216926385209ee0926004808401938290030181865afa15801562001a4c573d6000803e3d6000fd5b505050506040513d601f19601f8201168201806040525081019062001a729190620028e9565b600381111562001a865762001a86620028b7565b14155b1562001a9f578162001a9b8162002925565b9250505b8062001aab8162002925565b91505062001917565b606060008290506000815167ffffffffffffffff81111562001ada5762001ada6200244e565b6040519080825280601f01601f19166020018201604052801562001b05576020820181803683370190505b50905060005b825181101562001c6b57604183828151811062001b2c5762001b2c620028d0565b602001015160f860020a900460f860020a0260f860020a900460ff161015801562001b885750605a83828151811062001b695762001b69620028d0565b602001015160f860020a900460f860020a0260f860020a900460ff1611155b1562001c025782818151811062001ba35762001ba3620028d0565b602001015160f860020a900460f860020a0260f860020a9004602062001bca919062002b44565b60f860020a0282828151811062001be55762001be5620028d0565b6020010190600160f860020a031916908160001a90535062001c56565b82818151811062001c175762001c17620028d0565b602001015160f860020a900460f860020a0282828151811062001c3e5762001c3e620028d0565b6020010190600160f860020a031916908160001a9053505b8062001c628162002925565b91505062001b0b565b509392505050565b3360009081526001602081905260409091205460ff1615151462001cae5760405160e560020a62461bcd028152600401620007ac9062002a47565b60005b815181101562000f555760006003600084848151811062001cd65762001cd6620028d0565b602090810291909101810151600160a060020a03168252810191909152604001600020805460ff19169115159190911790558062001d148162002925565b91505062001cb1565b600481815481106200075c57600080fd5b6060600062001d3c62002304565b67ffffffffffffffff81111562001d575762001d576200244e565b60405190808252806020026020018201604052801562001d81578160200160208202803683370190505b5090506000805b600454811015620007435760006004828154811062001dab5762001dab620028d0565b600091825260209182902001546040805160e560020a63042904f70281529051600160a060020a03909216926385209ee0926004808401938290030181865afa15801562001dfd573d6000803e3d6000fd5b505050506040513d601f19601f8201168201806040525081019062001e239190620028e9565b600381111562001e375762001e37620028b7565b0362001eab576004818154811062001e535762001e53620028d0565b600091825260209091200154600160a060020a0316838362001e758162002925565b94508151811062001e8a5762001e8a620028d0565b6020026020010190600160a060020a03169081600160a060020a0316815250505b8062001eb78162002925565b91505062001d88565b6060600480548060200260200160405190810160405280929190818152602001828054801562001f1a57602002820191906000526020600020905b8154600160a060020a0316815260019091019060200180831162001efb575b5050505050905090565b600160a060020a038116600090815260016020819052604082205460ff161515900362001f5357506001919050565b506000919050565b6060600080548060200260200160405190810160405280929190818152602001828054801562001f1a57602002820191906000526020600020908154600160a060020a0316815260019091019060200180831162001efb575050505050905090565b6060600062001fcc8362001912565b67ffffffffffffffff81111562001fe75762001fe76200244e565b60405190808252806020026020018201604052801562002011578160200160208202803683370190505b5090506000805b600454811015620021635784600160a060020a031660048281548110620020435762002043620028d0565b60009182526020918290200154604080517f8da5cb5b0000000000000000000000000000000000000000000000000000000081529051600160a060020a0390921692638da5cb5b926004808401938290030181865afa158015620020ab573d6000803e3d6000fd5b505050506040513d601f19601f82011682018060405250810190620020d1919062002b24565b600160a060020a0316036200214e5760048181548110620020f657620020f6620028d0565b600091825260209091200154600160a060020a03168383620021188162002925565b9450815181106200212d576200212d620028d0565b6020026020010190600160a060020a03169081600160a060020a0316815250505b806200215a8162002925565b91505062002018565b50909392505050565b805182516000918391859111156200218357600080fd5b6000805b835183516200219791906200298e565b81116200226a57600160005b85518110156200224157858181518110620021c257620021c2620028d0565b602001015160f860020a900460f860020a02600160f860020a031916858285620021ed919062002978565b81518110620022005762002200620028d0565b602001015160f860020a900460f860020a02600160f860020a031916146200222c576000915062002241565b80620022388162002925565b915050620021a3565b508015620022545760019250506200226a565b5080620022618162002925565b91505062002187565b5095945050505050565b600160a060020a03811660009081526003602052604081205460ff16151560010362001f5357506001919050565b6060600280548060200260200160405190810160405280929190818152602001828054801562001f1a57602002820191906000526020600020908154600160a060020a0316815260019091019060200180831162001efb575050505050905090565b600080805b60045481101562000aa0576000600482815481106200232c576200232c620028d0565b600091825260209182902001546040805160e560020a63042904f70281529051600160a060020a03909216926385209ee0926004808401938290030181865afa1580156200237e573d6000803e3d6000fd5b505050506040513d601f19601f82011682018060405250810190620023a49190620028e9565b6003811115620023b857620023b8620028b7565b03620023ce5781620023ca8162002925565b9250505b80620023da8162002925565b91505062002309565b6127e38062002b6183390190565b6020808252825182820181905260009190848201906040850190845b8181101562000907578351600160a060020a0316835292840192918401916001016200240d565b6000602082840312156200244757600080fd5b5035919050565b60e060020a634e487b7102600052604160045260246000fd5b604051601f8201601f1916810167ffffffffffffffff811182821017156200249357620024936200244e565b604052919050565b600067ffffffffffffffff821115620024b857620024b86200244e565b50601f01601f191660200190565b600082601f830112620024d857600080fd5b8135620024ef620024e9826200249b565b62002467565b8181528460208386010111156200250557600080fd5b816020850160208301376000918101602001919091529392505050565b6000806000606084860312156200253857600080fd5b833567ffffffffffffffff8111156200255057600080fd5b6200255e86828701620024c6565b9660208601359650604090950135949350505050565b600160a060020a03811681146200258a57600080fd5b50565b80356200259a8162002574565b919050565b6000806000806000806000806000806101408b8d031215620025c057600080fd5b620025cb8b6200258d565b995060208b013567ffffffffffffffff80821115620025e957600080fd5b620025f78e838f01620024c6565b9a5060408d01359150808211156200260e57600080fd5b6200261c8e838f01620024c6565b995060608d01359150808211156200263357600080fd5b620026418e838f01620024c6565b985060808d01359150808211156200265857600080fd5b50620026678d828e01620024c6565b9a9d999c50979a96999860a0880135985060c08801359760e0810135975061010081013596506101200135945092505050565b600060208284031215620026ad57600080fd5b8135620026ba8162002574565b9392505050565b60006020808385031215620026d557600080fd5b823567ffffffffffffffff80821115620026ee57600080fd5b818501915085601f8301126200270357600080fd5b8135818111156200271857620027186200244e565b83810291506200272a84830162002467565b81815291830184019184810190888411156200274557600080fd5b938501935b83851015620027735784359250620027628362002574565b82825293850193908501906200274a565b98975050505050505050565b6000602082840312156200279257600080fd5b813567ffffffffffffffff811115620027aa57600080fd5b620027b884828501620024c6565b949350505050565b60008060408385031215620027d457600080fd5b50508035926020909101359150565b60005b8381101562002800578181015183820152602001620027e6565b50506000910152565b6000815180845262002823816020860160208601620027e3565b601f01601f19169290920160200192915050565b602081526000620026ba602083018462002809565b600080604083850312156200286057600080fd5b823567ffffffffffffffff808211156200287957600080fd5b6200288786838701620024c6565b935060208501359150808211156200289e57600080fd5b50620028ad85828601620024c6565b9150509250929050565b60e060020a634e487b7102600052602160045260246000fd5b60e060020a634e487b7102600052603260045260246000fd5b600060208284031215620028fc57600080fd5b815160048110620026ba57600080fd5b60e060020a634e487b7102600052601160045260246000fd5b6000600182016200293a576200293a6200290c565b5060010190565b6020808252601f908201527f4f66667365742067726561746572207468616e206c697374206c656e67746800604082015260600190565b808201808211156200129357620012936200290c565b818103818111156200129357620012936200290c565b6000610160600160a060020a03808f168452808e16602085015250806040840152620029d38184018d62002809565b90508281036060840152620029e9818c62002809565b90508281036080840152620029ff818b62002809565b905082810360a084015262002a15818a62002809565b60c0840198909852505060e0810194909452610100840192909252610120830152610140909101529695505050505050565b60208082526038908201527f4f6e6c79206f6e65206f6620746865206f776e6572732068617320616363657360408201527f7320746f20746869732066756e6374696f6e616c6974792e0000000000000000606082015260800190565b60006020828403121562002ab757600080fd5b815167ffffffffffffffff81111562002acf57600080fd5b8201601f8101841362002ae157600080fd5b805162002af2620024e9826200249b565b81815285602083850101111562002b0857600080fd5b62002b1b826020830160208601620027e3565b95945050505050565b60006020828403121562002b3757600080fd5b8151620026ba8162002574565b60ff81811683821601908111156200129357620012936200290c56fe60806040523480156200001157600080fd5b50604051620027e3380380620027e3833981016040819052620000349162000322565b60048054600160a060020a038d8116600160a060020a03199283161790925560058054928d16929091169190911790556000805460ff1916905560076200007c8a82620004ec565b5060086200008b8982620004ec565b5060096200009a8882620004ec565b50600a620000a98782620004ec565b50600b859055600c848155600184905560028390556003829055604080518082019091529081527f4e6f742050726f766964656400000000000000000000000000000000000000006020820152600d90620001059082620004ec565b5060408051808201909152600c81527f4e6f742050726f766964656400000000000000000000000000000000000000006020820152600e90620001499082620004ec565b5060408051808201909152600c81527f4e6f742050726f766964656400000000000000000000000000000000000000006020820152600f906200018d9082620004ec565b5060408051808201909152600c81527f4e6f742050726f766964656400000000000000000000000000000000000000006020820152601090620001d19082620004ec565b5060408051808201909152600c81527f4e6f742050726f766964656400000000000000000000000000000000000000006020820152601190620002159082620004ec565b505050505050505050505050620005be565b8051600160a060020a03811681146200023f57600080fd5b919050565b7f4e487b7100000000000000000000000000000000000000000000000000000000600052604160045260246000fd5b600082601f8301126200028557600080fd5b81516001604060020a0380821115620002a257620002a262000244565b604051601f8301601f19908116603f01168101908282118183101715620002cd57620002cd62000244565b81604052838152602092508683858801011115620002ea57600080fd5b600091505b838210156200030e5785820183015181830184015290820190620002ef565b600093810190920192909252949350505050565b60008060008060008060008060008060006101608c8e0312156200034557600080fd5b620003508c62000227565b9a506200036060208d0162000227565b995060408c01516001604060020a038111156200037c57600080fd5b6200038a8e828f0162000273565b99505060608c01516001604060020a03811115620003a757600080fd5b620003b58e828f0162000273565b98505060808c01516001604060020a03811115620003d257600080fd5b620003e08e828f0162000273565b97505060a08c01516001604060020a03811115620003fd57600080fd5b6200040b8e828f0162000273565b96505060c08c0151945060e08c015193506101008c015192506101208c015191506101408c015190509295989b509295989b9093969950565b6002810460018216806200045957607f821691505b60208210810362000493577f4e487b7100000000000000000000000000000000000000000000000000000000600052602260045260246000fd5b50919050565b601f821115620004e7576000818152602081206020601f86010481016020861015620004c25750805b6020601f860104820191505b81811015620004e357828155600101620004ce565b5050505b505050565b81516001604060020a0381111562000508576200050862000244565b620005208162000519845462000444565b8462000499565b602080601f8311600181146200055c57600084156200053f5750858301515b60028086026008870290910a6000190419821617865550620004e3565b600085815260208120601f198616915b828110156200058d578886015182559484019460019091019084016200056c565b5085821015620005ae57878501516008601f88160260020a60001904191681555b5050505050600202600101905550565b61221580620005ce6000396000f3fe60806040526004361061014a576000357c01000000000000000000000000000000000000000000000000000000009004806385209ee0116100c857806397035a071161008c57806397035a071461062b5780639dfc91171461064b578063b3cbb32c1461067f578063b6366d921461069f578063daca4eef146106bf578063f5cfb032146106e557600080fd5b806385209ee01461058f57806385329517146105b65780638d97bee8146105d65780638da5cb5b146105f6578063953fe3cc1461061657600080fd5b80635293c8381161010f5780635293c838146104da578063536f5c361461050a57806372b501091461052d57806374bdde491461054d578063790d15de1461056d57600080fd5b80627dc372146103f557806302d05d3f1461042657806312821b5e1461045e5780633d7a44921461049857806341fa1766146104ba57600080fd5b366103f05760006006805460ff16908111156101685761016861166a565b148061018a575060036006805460ff16908111156101885761018861166a565b145b6102045760405160e560020a62461bcd02815260206004820152603760248201527f546869732070726f706572747927732074656e757265207479706520646f657360448201527f206e6f7420737570706f7274206265696e6720736f6c6400000000000000000060648201526084015b60405180910390fd5b600260005460ff16600381111561021d5761021d61166a565b1461026d5760405160e560020a62461bcd02815260206004820152601e60248201527f546869732070726f7065727479206973206e6f7420666f722073616c652e000060448201526064016101fb565b600360005460ff1660038111156102865761028661166a565b036102a65760405160e560020a62461bcd0281526004016101fb90611683565b6003546000906102b79060126116f9565b6102c290600a6117f3565b6002546102cf9190611806565b6001546102e490670de0b6b3a7640000611806565b6102ee9190611825565b905033318111156103445760405160e560020a62461bcd02815260206004820152601260248201527f496e73756666696369656e742066756e6473000000000000000000000000000060448201526064016101fb565b600554604051600160a060020a03909116903480156108fc02916000818181858888f1935050505015801561037d573d6000803e3d6000fd5b506000805460ff1916600117905533307f2c9897391281a99a160d754141eb959b7576e2bc68e52a8aae8c7a12056ba3016103b6610705565b604080519182524260208301520160405180910390a36005805473ffffffffffffffffffffffffffffffffffffffff191633908117909155005b600080fd5b34801561040157600080fd5b5061040a610755565b60405161041d9796959493929190611888565b60405180910390f35b34801561043257600080fd5b5060045461044690600160a060020a031681565b604051600160a060020a03909116815260200161041d565b34801561046a57600080fd5b5060015460025460035461047d92919083565b6040805193845260208401929092529082015260600161041d565b3480156104a457600080fd5b506104b86104b33660046119bc565b6109a6565b005b3480156104c657600080fd5b506104b86104d5366004611a34565b610a51565b3480156104e657600080fd5b506104fa6104f5366004611a7b565b610b23565b604051901515815260200161041d565b34801561051657600080fd5b5061051f610705565b60405190815260200161041d565b34801561053957600080fd5b506104b8610548366004611b70565b610b7e565b34801561055957600080fd5b506104b8610568366004611bb1565b610cde565b34801561057957600080fd5b50610582610e5b565b60405161041d9190611c92565b34801561059b57600080fd5b506000546105a99060ff1681565b60405161041d9190611cb9565b3480156105c257600080fd5b506104b86105d1366004611cc7565b610e8d565b3480156105e257600080fd5b506104b86105f1366004611cf3565b610f28565b34801561060257600080fd5b5060055461044690600160a060020a031681565b34801561062257600080fd5b506104fa610fde565b34801561063757600080fd5b506104b8610646366004611d1d565b611125565b34801561065757600080fd5b5060045460055460005460405161041d93600160a060020a0390811693169160ff1690611d38565b34801561068b57600080fd5b506104fa61069a3660046119bc565b6111eb565b3480156106ab57600080fd5b506104b86106ba366004611d65565b611254565b3480156106cb57600080fd5b506106d46112f8565b60405161041d959493929190611d7e565b3480156106f157600080fd5b506104b8610700366004611deb565b6115c2565b60035460009081906107189060126116f9565b61072390600a6117f3565b6002546107309190611806565b60015461074590670de0b6b3a7640000611806565b61074f9190611825565b92915050565b600680546007805460ff909216929161076d90611e06565b80601f016020809104026020016040519081016040528092919081815260200182805461079990611e06565b80156107e65780601f106107bb576101008083540402835291602001916107e6565b820191906000526020600020905b8154815290600101906020018083116107c957829003601f168201915b5050505050908060020180546107fb90611e06565b80601f016020809104026020016040519081016040528092919081815260200182805461082790611e06565b80156108745780601f1061084957610100808354040283529160200191610874565b820191906000526020600020905b81548152906001019060200180831161085757829003601f168201915b50505050509080600301805461088990611e06565b80601f01602080910402602001604051908101604052809291908181526020018280546108b590611e06565b80156109025780601f106108d757610100808354040283529160200191610902565b820191906000526020600020905b8154815290600101906020018083116108e557829003601f168201915b50505050509080600401805461091790611e06565b80601f016020809104026020016040519081016040528092919081815260200182805461094390611e06565b80156109905780601f1061096557610100808354040283529160200191610990565b820191906000526020600020905b81548152906001019060200180831161097357829003601f168201915b5050505050908060050154908060060154905087565b6109ae610fde565b6109cd5760405160e560020a62461bcd0281526004016101fb90611e43565b600554600160a060020a031633146109fa5760405160e560020a62461bcd0281526004016101fb90611ea0565b600360005460ff166003811115610a1357610a1361166a565b03610a335760405160e560020a62461bcd0281526004016101fb90611683565b6009610a3f8382611f4b565b50600a610a4c8282611f4b565b505050565b610a59610fde565b610a785760405160e560020a62461bcd0281526004016101fb90611e43565b600554600160a060020a03163314610aa55760405160e560020a62461bcd0281526004016101fb90611ea0565b600360005460ff166003811115610abe57610abe61166a565b03610ade5760405160e560020a62461bcd0281526004016101fb90611683565b60018581556002859055600384905560068054849260ff19909116908383811115610b0b57610b0b61166a565b0217905550600c5550506000805460ff191690555050565b6000805b8251811015610b7457610b5384848381518110610b4657610b46612011565b60200260200101516111eb565b15610b6257600191505061074f565b80610b6c8161202a565b915050610b27565b5060009392505050565b600480546040517ff33c4ff90000000000000000000000000000000000000000000000000000000081523392810192909252600160a060020a03169063f33c4ff990602401602060405180830381865afa158015610be0573d6000803e3d6000fd5b505050506040513d601f19601f82011682018060405250810190610c049190612043565b1515600114610c285760405160e560020a62461bcd0281526004016101fb90612065565b600554600160a060020a03163303610c555760405160e560020a62461bcd0281526004016101fb906120c2565b600360005460ff166003811115610c6e57610c6e61166a565b03610c8e5760405160e560020a62461bcd0281526004016101fb90611683565b6005805473ffffffffffffffffffffffffffffffffffffffff1916600160a060020a0384161790556000805482919060ff19166001836003811115610cd557610cd561166a565b02179055505050565b600480546040517ff33c4ff90000000000000000000000000000000000000000000000000000000081523392810192909252600160a060020a03169063f33c4ff990602401602060405180830381865afa158015610d40573d6000803e3d6000fd5b505050506040513d601f19601f82011682018060405250810190610d649190612043565b1515600114610d885760405160e560020a62461bcd0281526004016101fb90612065565b600554600160a060020a03163303610db55760405160e560020a62461bcd0281526004016101fb906120c2565b600360005460ff166003811115610dce57610dce61166a565b03610dee5760405160e560020a62461bcd0281526004016101fb90611683565b600d610dfa8782611f4b565b50600e610e078682611f4b565b50600f610e148582611f4b565b506010610e218482611f4b565b506011610e2e8382611f4b565b506000805482919060ff19166001836003811115610e4e57610e4e61166a565b0217905550505050505050565b604051606090610e7990600790600890600990600a90602001612192565b604051602081830303815290604052905090565b610e95610fde565b610eb45760405160e560020a62461bcd0281526004016101fb90611e43565b600554600160a060020a03163314610ee15760405160e560020a62461bcd0281526004016101fb90611ea0565b600360005460ff166003811115610efa57610efa61166a565b03610f1a5760405160e560020a62461bcd0281526004016101fb90611683565b600192909255600255600355565b600554600160a060020a03163314610f555760405160e560020a62461bcd0281526004016101fb90611ea0565b610f5d610fde565b610f7c5760405160e560020a62461bcd0281526004016101fb90611e43565b600360005460ff166003811115610f9557610f9561166a565b03610fb55760405160e560020a62461bcd0281526004016101fb90611683565b6006805483919060ff191660018383811115610fd357610fd361166a565b0217905550600c5550565b60006110ac600d6000018054610ff390611e06565b80601f016020809104026020016040519081016040528092919081815260200182805461101f90611e06565b801561106c5780601f106110415761010080835404028352916020019161106c565b820191906000526020600020905b81548152906001019060200180831161104f57829003601f168201915b50505050506040518060400160405280600881526020017f50726f76696465640000000000000000000000000000000000000000000000008152506111eb565b80156110c657506110c6600d6001018054610ff390611e06565b80156110e057506110e0600d6002018054610ff390611e06565b80156110fa57506110fa600d6003018054610ff390611e06565b80156111145750611114600d6004018054610ff390611e06565b1561111f5750600190565b50600090565b61112d610fde565b61114c5760405160e560020a62461bcd0281526004016101fb90611e43565b600554600160a060020a031633146111795760405160e560020a62461bcd0281526004016101fb90611ea0565b600360005460ff1660038111156111925761119261166a565b036111b25760405160e560020a62461bcd0281526004016101fb90611683565b6006805482919060ff1916600183838111156111d0576111d061166a565b021790555060008054819060ff19166001825b021790555050565b600081518351146111fe5750600061074f565b8160405160200161120f91906121c3565b604051602081830303815290604052805190602001208360405160200161123691906121c3565b6040516020818303038152906040528051906020012014905061074f565b61125c610fde565b61127b5760405160e560020a62461bcd0281526004016101fb90611e43565b600554600160a060020a031633146112a85760405160e560020a62461bcd0281526004016101fb90611ea0565b600360005460ff1660038111156112c1576112c161166a565b036112e15760405160e560020a62461bcd0281526004016101fb90611683565b600c81905560008054819060ff19166001826111e3565b600d8054819061130790611e06565b80601f016020809104026020016040519081016040528092919081815260200182805461133390611e06565b80156113805780601f1061135557610100808354040283529160200191611380565b820191906000526020600020905b81548152906001019060200180831161136357829003601f168201915b50505050509080600101805461139590611e06565b80601f01602080910402602001604051908101604052809291908181526020018280546113c190611e06565b801561140e5780601f106113e35761010080835404028352916020019161140e565b820191906000526020600020905b8154815290600101906020018083116113f157829003601f168201915b50505050509080600201805461142390611e06565b80601f016020809104026020016040519081016040528092919081815260200182805461144f90611e06565b801561149c5780601f106114715761010080835404028352916020019161149c565b820191906000526020600020905b81548152906001019060200180831161147f57829003601f168201915b5050505050908060030180546114b190611e06565b80601f01602080910402602001604051908101604052809291908181526020018280546114dd90611e06565b801561152a5780601f106114ff5761010080835404028352916020019161152a565b820191906000526020600020905b81548152906001019060200180831161150d57829003601f168201915b50505050509080600401805461153f90611e06565b80601f016020809104026020016040519081016040528092919081815260200182805461156b90611e06565b80156115b85780601f1061158d576101008083540402835291602001916115b8565b820191906000526020600020905b81548152906001019060200180831161159b57829003601f168201915b5050505050905085565b6115ca610fde565b6115e95760405160e560020a62461bcd0281526004016101fb90611e43565b600554600160a060020a031633146116165760405160e560020a62461bcd0281526004016101fb90611ea0565b600360005460ff16600381111561162f5761162f61166a565b0361164f5760405160e560020a62461bcd0281526004016101fb90611683565b6000805482919060ff191660018360038111156111e3576111e35b60e060020a634e487b7102600052602160045260246000fd5b60208082526032908201527f546869732050726f7065727479205469746c6520436f6e74726163742069732060408201527f6e6f206c6f6e6765722072656c6176616e740000000000000000000000000000606082015260800190565b60e060020a634e487b7102600052601160045260246000fd5b8181038181111561074f5761074f6116e0565b600181815b8085111561174957816000190482111561172d5761172d6116e0565b8085161561173a57918102915b60029094049390800290611711565b509250929050565b6000826117605750600161074f565b8161176d5750600061074f565b8160018114611783576002811461178d576117aa565b600191505061074f565b60ff84111561179e5761179e6116e0565b8360020a91505061074f565b5060208310610133831016604e8410600b84101617156117cd575081810a61074f565b6117d7838361170c565b80600019048211156117eb576117eb6116e0565b029392505050565b60006117ff8383611751565b9392505050565b6000816000190483118215151615611820576118206116e0565b500290565b8082018082111561074f5761074f6116e0565b60005b8381101561185357818101518382015260200161183b565b50506000910152565b60008151808452611874816020860160208601611838565b601f01601f19169290920160200192915050565b60006007891061189a5761189a61166a565b88825260e060208301526118b160e083018961185c565b82810360408401526118c3818961185c565b905082810360608401526118d7818861185c565b905082810360808401526118eb818761185c565b60a0840195909552505060c0015295945050505050565b60e060020a634e487b7102600052604160045260246000fd5b604051601f8201601f1916810167ffffffffffffffff8111828210171561194457611944611902565b604052919050565b600082601f83011261195d57600080fd5b813567ffffffffffffffff81111561197757611977611902565b61198a601f8201601f191660200161191b565b81815284602083860101111561199f57600080fd5b816020850160208301376000918101602001919091529392505050565b600080604083850312156119cf57600080fd5b823567ffffffffffffffff808211156119e757600080fd5b6119f38683870161194c565b93506020850135915080821115611a0957600080fd5b50611a168582860161194c565b9150509250929050565b803560078110611a2f57600080fd5b919050565b600080600080600060a08688031215611a4c57600080fd5b853594506020860135935060408601359250611a6a60608701611a20565b949793965091946080013592915050565b60008060408385031215611a8e57600080fd5b823567ffffffffffffffff80821115611aa657600080fd5b611ab28683870161194c565b9350602091508185013581811115611ac957600080fd5b8501601f81018713611ada57600080fd5b803582811115611aec57611aec611902565b838102611afa85820161191b565b918252828101850191858101908a841115611b1457600080fd5b86850192505b83831015611b5057823586811115611b325760008081fd5b611b408c898389010161194c565b8352509186019190860190611b1a565b809750505050505050509250929050565b803560048110611a2f57600080fd5b60008060408385031215611b8357600080fd5b8235600160a060020a0381168114611b9a57600080fd5b9150611ba860208401611b61565b90509250929050565b60008060008060008060c08789031215611bca57600080fd5b863567ffffffffffffffff80821115611be257600080fd5b611bee8a838b0161194c565b97506020890135915080821115611c0457600080fd5b611c108a838b0161194c565b96506040890135915080821115611c2657600080fd5b611c328a838b0161194c565b95506060890135915080821115611c4857600080fd5b611c548a838b0161194c565b94506080890135915080821115611c6a57600080fd5b50611c7789828a0161194c565b925050611c8660a08801611b61565b90509295509295509295565b6020815260006117ff602083018461185c565b60048110611cb557611cb561166a565b9052565b6020810161074f8284611ca5565b600080600060608486031215611cdc57600080fd5b505081359360208301359350604090920135919050565b60008060408385031215611d0657600080fd5b611d0f83611a20565b946020939093013593505050565b600060208284031215611d2f57600080fd5b6117ff82611a20565b600160a060020a0384811682528316602082015260608101611d5d6040830184611ca5565b949350505050565b600060208284031215611d7757600080fd5b5035919050565b60a081526000611d9160a083018861185c565b8281036020840152611da3818861185c565b90508281036040840152611db7818761185c565b90508281036060840152611dcb818661185c565b90508281036080840152611ddf818561185c565b98975050505050505050565b600060208284031215611dfd57600080fd5b6117ff82611b61565b600281046001821680611e1a57607f821691505b602082108103611e3d5760e060020a634e487b7102600052602260045260246000fd5b50919050565b60208082526024908201527f5468652070726f7065727479206973206e6f74206c6567616c6c7920616c726960408201527f6768742e00000000000000000000000000000000000000000000000000000000606082015260800190565b60208082526032908201527f4f6e6c7920746865206f776e6572206f662074686520436f6e7472616374206860408201527f61732061636365737320746f2074686973210000000000000000000000000000606082015260800190565b601f821115610a4c576000818152602081206020601f86010481016020861015611f245750805b6020601f860104820191505b81811015611f4357828155600101611f30565b505050505050565b815167ffffffffffffffff811115611f6557611f65611902565b611f7981611f738454611e06565b84611efd565b602080601f831160018114611fb25760008415611f965750858301515b60028086026008870290910a6000190419821617865550611f43565b600085815260208120601f198616915b82811015611fe157888601518255948401946001909101908401611fc2565b508582101561200157878501516008601f88160260020a60001904191681555b5050505050600202600101905550565b60e060020a634e487b7102600052603260045260246000fd5b60006001820161203c5761203c6116e0565b5060010190565b60006020828403121561205557600080fd5b815180151581146117ff57600080fd5b60208082526036908201527f4f6e6c792061207265676973746572656420726567697374726172206861732060408201527f61636365737320746f207468697320616374696f6e2e00000000000000000000606082015260800190565b60208082526026908201527f596f752063616e206e6f742076616c696461746520796f7572206f776e20707260408201527f6f70657274790000000000000000000000000000000000000000000000000000606082015260800190565b6000815461212c81611e06565b60018281168015612144576001811461215957612188565b60ff1984168752821515830287019450612188565b8560005260208060002060005b8581101561217f5781548a820152908401908201612166565b50505082870194505b5050505092915050565b60006121b96121b36121ad6121a7858a61211f565b8861211f565b8661211f565b8461211f565b9695505050505050565b600082516121d5818460208701611838565b919091019291505056fea2646970667358221220defe361240aeb9d355d37f47bda545d1ca3ba16ad5e49bbaa17aa9e1d3cf573164736f6c63430008100033a2646970667358221220f2a5e67bccb3291a294fbcb09d21cdd3c9a6e004cc4eab7423f2390c98d3c0d464736f6c63430008100033",
  "immutableReferences": {},
  "source": "//SPDX-License-Identifier: MIT\r\npragma solidity ^0.8.16;\r\n\r\nimport \"./PropertyTitle.sol\";\r\n\r\ninterface IAccessPropertyTitleMethods {\r\n    function contractState() external view returns (PropertyTitleContractState);\r\n    function getFullPropertyAddress() external view returns (string memory);\r\n    function owner() external view returns (address);\r\n}\r\n\r\ncontract TitleCreatingContract {\r\n    event NewTitleContract(\r\n        address indexed ownerAddress,\r\n        address indexed titleContractAddress,\r\n        uint256 timestamp\r\n    );\r\n\r\n    address[] public owners;\r\n    mapping (address => bool) public isOwner;\r\n\r\n    address[] public registrars;\r\n    mapping (address => bool) public isRegistrar;\r\n\r\n    address[] public titleContracts;\r\n\r\n    constructor(address[] memory _owners)\r\n    {\r\n        for (uint256 i = 0; i < _owners.length; i++) {\r\n            owners.push(_owners[i]);\r\n            isOwner[_owners[i]] = true;\r\n        }\r\n    }\r\n\r\n    function addRegistrars(address[] memory _registrars) public onlyOwner {\r\n        for (uint256 i = 0; i < _registrars.length; i++) {\r\n            if (!checkIfUserIsOwner(_registrars[i])) {\r\n                registrars.push(_registrars[i]);\r\n                isRegistrar[_registrars[i]] = true;\r\n            }\r\n        }\r\n    }\r\n\r\n    function removeRegistrarRole(address[] memory _registrars) public onlyOwner {\r\n        for (uint256 i = 0; i < _registrars.length; i++) {\r\n            isRegistrar[_registrars[i]] = false;\r\n        }\r\n    }\r\n\r\n    function reactivateRegistrarRole(address[] memory _registrars) public onlyOwner {\r\n        for (uint256 i = 0; i < _registrars.length; i++) {\r\n            isRegistrar[_registrars[i]] = true;\r\n        }\r\n    }\r\n\r\n    function deployNewPropertyTitle(\r\n        address _owner,\r\n        string memory _country,\r\n        string memory _city,\r\n        string memory _street,\r\n        string memory _streeNumber,\r\n        uint256 _apartmentNumber,\r\n        uint256 _squareMeters,\r\n        uint256 _sellingPriceIntegralPart,\r\n        uint256 _sellingPriceFractionalPart,\r\n        uint256  _sellingPriceFractionalPartLength\r\n    )\r\n        public\r\n    {\r\n        PropertyTitle propertyTitle = new PropertyTitle(\r\n            address(this),\r\n            _owner,\r\n            _country,\r\n            _city,\r\n            _street,\r\n            _streeNumber,\r\n            _apartmentNumber,\r\n            _squareMeters,\r\n            _sellingPriceIntegralPart,\r\n            _sellingPriceFractionalPart,\r\n            _sellingPriceFractionalPartLength\r\n        );\r\n        titleContracts.push(address(propertyTitle));\r\n        emit NewTitleContract(_owner, address(propertyTitle), block.timestamp);\r\n    }\r\n\r\n    function checkIfUserIsOwner(address userAddress) public view returns (bool) {\r\n        if (isOwner[userAddress] == true) {\r\n            return true;\r\n        }\r\n        return false;    \r\n    }\r\n\r\n    function checkIfUserIsRegistrar(address userAddress) public view returns (bool) {\r\n        if (isRegistrar[userAddress] == true) {\r\n            return true;\r\n        }\r\n        return false;\r\n    }\r\n\r\n    function getContractOwners() public view returns (address[] memory) {\r\n        return owners;\r\n    }\r\n\r\n    function getContractRegistrars() public view returns (address[] memory) {\r\n        return registrars;\r\n    }\r\n\r\n    function getContracts() public view returns (address[] memory) {\r\n        return titleContracts;\r\n    }\r\n\r\n    function getPendingContractsCount() public view returns (uint256) {\r\n        uint256 k = 0;\r\n        for (uint256 i = 0; i < titleContracts.length; i++) {\r\n            if (IAccessPropertyTitleMethods(titleContracts[i]).contractState() == PropertyTitleContractState.PENDING) {\r\n                k++;\r\n            } \r\n        }\r\n\r\n        return k;\r\n    }\r\n\r\n    function getPendingContracts() public view returns (address[] memory) {\r\n        address[] memory contracts = new address[](getPendingContractsCount());\r\n\r\n        uint256 k = 0;\r\n        for (uint256 i = 0; i < titleContracts.length; i++) {\r\n            if (IAccessPropertyTitleMethods(titleContracts[i]).contractState() == PropertyTitleContractState.PENDING) {\r\n                contracts[k++] = titleContracts[i];\r\n            } \r\n        }\r\n\r\n        return contracts;\r\n    }\r\n\r\n    function getPendingContractsByOffsetAndLimit(uint256 offset, uint256 limit) public view returns (address[] memory) {\r\n        uint256 pendingContractsCount = getPendingContractsCount();\r\n        require(pendingContractsCount > offset, \"Offset greater than list length\");\r\n\r\n        address[] memory contracts = pendingContractsCount > offset + limit \r\n            ? new address[](limit) \r\n            : new address[](pendingContractsCount - offset);\r\n\r\n        address[] memory pendingContracts = getPendingContracts();\r\n        for (uint256 i = offset; i < offset + limit; i++) {\r\n            if (i >= pendingContracts.length) {\r\n                break;\r\n            }\r\n            contracts[i - offset] = pendingContracts[i];\r\n        }\r\n\r\n        return contracts;\r\n    }\r\n\r\n    function getActiveContractsByAddressCount(string memory addressToSearchFor) public view returns (uint256) {\r\n        uint256 k = 0;\r\n        for (uint256 i = 0; i < titleContracts.length; i++) {\r\n            if ((IAccessPropertyTitleMethods(titleContracts[i]).contractState() == PropertyTitleContractState.OWNED ||\r\n                IAccessPropertyTitleMethods(titleContracts[i]).contractState() == PropertyTitleContractState.FOR_SALE) &&\r\n                stringContains(toLower(IAccessPropertyTitleMethods(titleContracts[i]).getFullPropertyAddress()), toLower(addressToSearchFor))) {\r\n                k++;\r\n            } \r\n        }\r\n\r\n        return k;\r\n    }\r\n\r\n    function getActiveContractsCount() public view returns (uint256) {\r\n        uint256 k = 0;\r\n        for (uint256 i = 0; i < titleContracts.length; i++) {\r\n            if (IAccessPropertyTitleMethods(titleContracts[i]).contractState() == PropertyTitleContractState.OWNED ||\r\n                IAccessPropertyTitleMethods(titleContracts[i]).contractState() == PropertyTitleContractState.FOR_SALE) {\r\n                k++;\r\n            } \r\n        }\r\n\r\n        return k;\r\n    }\r\n\r\n    function getActiveContracts() public view returns (address[] memory) {\r\n        address[] memory contracts = new address[](getActiveContractsCount());\r\n\r\n        uint256 k = 0;\r\n        for (uint256 i = 0; i < titleContracts.length; i++) {\r\n            if (IAccessPropertyTitleMethods(titleContracts[i]).contractState() == PropertyTitleContractState.OWNED ||\r\n                IAccessPropertyTitleMethods(titleContracts[i]).contractState() == PropertyTitleContractState.FOR_SALE) {\r\n                contracts[k++] = titleContracts[i];\r\n            }\r\n        }\r\n\r\n        return contracts;\r\n    }\r\n\r\n    function getActiveContractsByAddress(string memory addressToSearchFor) public view returns (address[] memory) {\r\n        address[] memory contracts = new address[](getActiveContractsByAddressCount(addressToSearchFor));\r\n\r\n        address[] memory activeContracts = getActiveContracts();\r\n        uint256 k = 0;\r\n        for (uint256 i = 0; i < activeContracts.length; i++) {\r\n            if (stringContains(toLower(IAccessPropertyTitleMethods(activeContracts[i]).getFullPropertyAddress()), toLower(addressToSearchFor))) {\r\n                contracts[k++] = activeContracts[i];\r\n            }\r\n        }\r\n\r\n        return contracts;\r\n    }\r\n\r\n    function getActiveContractsByAddressAndOffsetAndLimit(string memory addressToSearchFor, uint256 offset, uint256 limit)  public view returns (address[] memory) {\r\n        uint256 activeContractsByAddressCount = getActiveContractsByAddressCount(addressToSearchFor);\r\n        require(activeContractsByAddressCount > offset, \"Offset greater than list length\");\r\n\r\n        address[] memory contracts = activeContractsByAddressCount > offset + limit \r\n            ? new address[](limit) \r\n            : new address[](activeContractsByAddressCount - offset);\r\n\r\n        address[] memory activeContractsByAddress = getActiveContractsByAddress(addressToSearchFor);\r\n        for (uint256 i = offset; i < offset + limit; i++) {\r\n            if (i >= activeContractsByAddress.length) {\r\n                break;\r\n            }\r\n            contracts[i - offset] = activeContractsByAddress[i];\r\n\r\n        }\r\n\r\n        return contracts;\r\n    }\r\n\r\n    function getForSaleContractsByAddressCount(string memory addressToSearchFor) public view returns (uint256) {\r\n        uint256 k = 0;\r\n        for (uint256 i = 0; i < titleContracts.length; i++) {\r\n            if (IAccessPropertyTitleMethods(titleContracts[i]).contractState() == PropertyTitleContractState.FOR_SALE &&\r\n                stringContains(toLower(IAccessPropertyTitleMethods(titleContracts[i]).getFullPropertyAddress()), toLower(addressToSearchFor))) {\r\n                k++;\r\n            }\r\n        }\r\n\r\n        return k;\r\n    }\r\n\r\n    function getForSaleContractsCount() public view returns (uint256) {\r\n        uint256 k = 0;\r\n        for (uint256 i = 0; i < titleContracts.length; i++) {\r\n            if (IAccessPropertyTitleMethods(titleContracts[i]).contractState() == PropertyTitleContractState.FOR_SALE) {\r\n                k++;\r\n            } \r\n        }\r\n\r\n        return k;\r\n    }\r\n\r\n\r\n    function getForSaleContracts() public view returns (address[] memory) {\r\n        address[] memory contracts = new address[](getForSaleContractsCount());\r\n\r\n        uint256 k = 0;\r\n        for (uint256 i = 0; i < titleContracts.length; i++) {\r\n            if (IAccessPropertyTitleMethods(titleContracts[i]).contractState() == PropertyTitleContractState.FOR_SALE) {\r\n                contracts[k++] = titleContracts[i];\r\n            }\r\n        }\r\n\r\n        return contracts;\r\n    }\r\n\r\n    function getForSaleContractsByAddress(string memory addressToSearchFor) public view returns (address[] memory) {\r\n        address[] memory contracts = new address[](getForSaleContractsByAddressCount(addressToSearchFor));\r\n\r\n        address[] memory forSaleContracts = getForSaleContracts();\r\n        uint256 k = 0;\r\n        for (uint256 i = 0; i < forSaleContracts.length; i++) {\r\n            if (stringContains(toLower(IAccessPropertyTitleMethods(forSaleContracts[i]).getFullPropertyAddress()), toLower(addressToSearchFor))) {\r\n                contracts[k++] = forSaleContracts[i];\r\n            }\r\n        }\r\n\r\n        return contracts;\r\n    }\r\n\r\n    function getForSaleContractsByAddressAndOffsetAndLimit(string memory addressToSearchFor, uint256 offset, uint256 limit)  public view returns (address[] memory) {\r\n        uint256 forSaleContractsByAddressCount = getForSaleContractsByAddressCount(addressToSearchFor);\r\n        require(forSaleContractsByAddressCount > offset, \"Offset greater than list length\");\r\n\r\n        address[] memory contracts = forSaleContractsByAddressCount > offset + limit \r\n            ? new address[](limit) \r\n            : new address[](forSaleContractsByAddressCount - offset);\r\n\r\n        address[] memory forSaleContractsByAddress = getForSaleContractsByAddress(addressToSearchFor);\r\n        for (uint256 i = offset; i < offset + limit; i++) {\r\n            if (i >= forSaleContractsByAddress.length) {\r\n                break;\r\n            }\r\n            contracts[i - offset] = forSaleContractsByAddress[i];\r\n\r\n        }\r\n\r\n        return contracts;\r\n    }\r\n\r\n    function getAccountContractsCount(address account) public view returns (uint256)\r\n    {\r\n        uint256 k = 0;\r\n        for (uint256 i = 0; i < titleContracts.length; i++) {\r\n            if (IAccessPropertyTitleMethods(titleContracts[i]).owner() == account && \r\n                IAccessPropertyTitleMethods(titleContracts[i]).contractState() != PropertyTitleContractState.NO_LONGER_RELEVANT) {\r\n                k++;\r\n            }\r\n        }\r\n\r\n        return k;\r\n    }\r\n\r\n    function getAccountContracts(address account) public view returns (address[] memory)\r\n    {\r\n        address[] memory contracts = new address[](getAccountContractsCount(account));\r\n        uint256 k = 0;\r\n        for (uint256 i = 0; i < titleContracts.length; i++) {\r\n            if (IAccessPropertyTitleMethods(titleContracts[i]).owner() == account) {\r\n                contracts[k++] = titleContracts[i];\r\n            }\r\n        }\r\n\r\n        return contracts;\r\n    }\r\n\r\n    function stringContains(string memory stringToSearchIn, string memory stringToSearchFor) public pure returns (bool) {\r\n        bytes memory stringToSearchForBytes = bytes (stringToSearchFor);\r\n        bytes memory stringToSearchInBytes = bytes (stringToSearchIn);\r\n\r\n        require(stringToSearchInBytes.length >= stringToSearchForBytes.length);\r\n\r\n        bool found = false;\r\n        for (uint i = 0; i <= stringToSearchInBytes.length - stringToSearchForBytes.length; i++) {\r\n            bool flag = true;\r\n            for (uint j = 0; j < stringToSearchForBytes.length; j++)\r\n                if (stringToSearchInBytes[i + j] != stringToSearchForBytes[j]) {\r\n                    flag = false;\r\n                    break;\r\n                }\r\n            if (flag) {\r\n                found = true;\r\n                break;\r\n            }\r\n        }\r\n        \r\n        return found;\r\n    }\r\n\r\n    function toLower(string memory str) public pure returns (string memory) {\r\n        bytes memory bStr = bytes(str);\r\n        bytes memory bLower = new bytes(bStr.length);\r\n        for (uint i = 0; i < bStr.length; i++) {\r\n            if ((uint8(bStr[i]) >= 65) && (uint8(bStr[i]) <= 90)) {\r\n                bLower[i] = bytes1(uint8(bStr[i]) + 32);\r\n            } else {\r\n                bLower[i] = bStr[i];\r\n            }\r\n        }\r\n        return string(bLower);\r\n    }\r\n\r\n    modifier onlyRegistrar {\r\n        require(isRegistrar[msg.sender] == true, \"Only one of the registrars has access to this functionality.\");\r\n        _;\r\n    }\r\n\r\n    modifier onlyOwner {\r\n        require(isOwner[msg.sender] == true, \"Only one of the owners has access to this functionality.\");\r\n        _;\r\n    }\r\n}",
  "sourcePath": "D:\\Propty\\propty\\contracts\\contracts\\TitleCreatingContract.sol",
  "compiler": {
    "name": "solc",
    "version": "0.8.16+commit.07a7930e.Emscripten.clang"
  },
  "schemaVersion": "3.4.9",
  "updatedAt": "2023-03-28T20:13:02.856Z",
  "networkType": "ethereum",
  "devdoc": {
    "kind": "dev",
    "methods": {},
    "version": 1
  },
  "userdoc": {
    "kind": "user",
    "methods": {},
    "version": 1
  }
}