{
  "contractName": "TitleCreatingContract",
  "abi": [
    {
      "inputs": [
        {
          "internalType": "address[]",
          "name": "_owners",
          "type": "address[]"
        }
      ],
      "stateMutability": "nonpayable",
      "type": "constructor"
    },
    {
      "inputs": [
        {
          "internalType": "address",
          "name": "",
          "type": "address"
        }
      ],
      "name": "isOwner",
      "outputs": [
        {
          "internalType": "bool",
          "name": "",
          "type": "bool"
        }
      ],
      "stateMutability": "view",
      "type": "function",
      "constant": true
    },
    {
      "inputs": [
        {
          "internalType": "address",
          "name": "",
          "type": "address"
        }
      ],
      "name": "isRegistrar",
      "outputs": [
        {
          "internalType": "bool",
          "name": "",
          "type": "bool"
        }
      ],
      "stateMutability": "view",
      "type": "function",
      "constant": true
    },
    {
      "inputs": [
        {
          "internalType": "uint256",
          "name": "",
          "type": "uint256"
        }
      ],
      "name": "owners",
      "outputs": [
        {
          "internalType": "address",
          "name": "",
          "type": "address"
        }
      ],
      "stateMutability": "view",
      "type": "function",
      "constant": true
    },
    {
      "inputs": [
        {
          "internalType": "address",
          "name": "",
          "type": "address"
        }
      ],
      "name": "propertyTitleContractsValidity",
      "outputs": [
        {
          "internalType": "bool",
          "name": "",
          "type": "bool"
        }
      ],
      "stateMutability": "view",
      "type": "function",
      "constant": true
    },
    {
      "inputs": [
        {
          "internalType": "uint256",
          "name": "",
          "type": "uint256"
        }
      ],
      "name": "registrars",
      "outputs": [
        {
          "internalType": "address",
          "name": "",
          "type": "address"
        }
      ],
      "stateMutability": "view",
      "type": "function",
      "constant": true
    },
    {
      "inputs": [
        {
          "internalType": "uint256",
          "name": "",
          "type": "uint256"
        }
      ],
      "name": "titleContracts",
      "outputs": [
        {
          "internalType": "address",
          "name": "",
          "type": "address"
        }
      ],
      "stateMutability": "view",
      "type": "function",
      "constant": true
    },
    {
      "inputs": [
        {
          "internalType": "address[]",
          "name": "_registrars",
          "type": "address[]"
        }
      ],
      "name": "addRegistrars",
      "outputs": [],
      "stateMutability": "nonpayable",
      "type": "function"
    },
    {
      "inputs": [
        {
          "internalType": "address[]",
          "name": "_registrars",
          "type": "address[]"
        }
      ],
      "name": "removeRegistrarRole",
      "outputs": [],
      "stateMutability": "nonpayable",
      "type": "function"
    },
    {
      "inputs": [
        {
          "internalType": "address[]",
          "name": "_registrars",
          "type": "address[]"
        }
      ],
      "name": "reactivateRegistrarRole",
      "outputs": [],
      "stateMutability": "nonpayable",
      "type": "function"
    },
    {
      "inputs": [
        {
          "internalType": "address",
          "name": "_owner",
          "type": "address"
        },
        {
          "internalType": "string",
          "name": "_country",
          "type": "string"
        },
        {
          "internalType": "string",
          "name": "_city",
          "type": "string"
        },
        {
          "internalType": "string",
          "name": "_street",
          "type": "string"
        },
        {
          "internalType": "string",
          "name": "_streeNumber",
          "type": "string"
        },
        {
          "internalType": "uint256",
          "name": "_apartmentNumber",
          "type": "uint256"
        },
        {
          "internalType": "uint256",
          "name": "_squareMeters",
          "type": "uint256"
        },
        {
          "internalType": "uint256",
          "name": "_sellingPriceIntegralPart",
          "type": "uint256"
        },
        {
          "internalType": "uint256",
          "name": "_sellingPriceFractionalPart",
          "type": "uint256"
        },
        {
          "internalType": "uint256",
          "name": "_sellingPriceFractionalPartLength",
          "type": "uint256"
        }
      ],
      "name": "deployNewPropertyTitle",
      "outputs": [],
      "stateMutability": "nonpayable",
      "type": "function"
    },
    {
      "inputs": [
        {
          "internalType": "address",
          "name": "_contractAddress",
          "type": "address"
        }
      ],
      "name": "validatePropertyTitleContract",
      "outputs": [],
      "stateMutability": "nonpayable",
      "type": "function"
    },
    {
      "inputs": [
        {
          "internalType": "address",
          "name": "userAddress",
          "type": "address"
        }
      ],
      "name": "checkIfUserIsOwner",
      "outputs": [
        {
          "internalType": "bool",
          "name": "",
          "type": "bool"
        }
      ],
      "stateMutability": "view",
      "type": "function",
      "constant": true
    },
    {
      "inputs": [
        {
          "internalType": "address",
          "name": "userAddress",
          "type": "address"
        }
      ],
      "name": "checkIfUserIsRegistrar",
      "outputs": [
        {
          "internalType": "bool",
          "name": "",
          "type": "bool"
        }
      ],
      "stateMutability": "view",
      "type": "function",
      "constant": true
    },
    {
      "inputs": [],
      "name": "getContractOwners",
      "outputs": [
        {
          "internalType": "address[]",
          "name": "",
          "type": "address[]"
        }
      ],
      "stateMutability": "view",
      "type": "function",
      "constant": true
    },
    {
      "inputs": [],
      "name": "getContractRegistrars",
      "outputs": [
        {
          "internalType": "address[]",
          "name": "",
          "type": "address[]"
        }
      ],
      "stateMutability": "view",
      "type": "function",
      "constant": true
    },
    {
      "inputs": [],
      "name": "getContracts",
      "outputs": [
        {
          "internalType": "address[]",
          "name": "",
          "type": "address[]"
        }
      ],
      "stateMutability": "view",
      "type": "function",
      "constant": true
    },
    {
      "inputs": [],
      "name": "getPendingContractsCount",
      "outputs": [
        {
          "internalType": "uint256",
          "name": "",
          "type": "uint256"
        }
      ],
      "stateMutability": "view",
      "type": "function",
      "constant": true
    },
    {
      "inputs": [],
      "name": "getPendingContracts",
      "outputs": [
        {
          "internalType": "address[]",
          "name": "",
          "type": "address[]"
        }
      ],
      "stateMutability": "view",
      "type": "function",
      "constant": true
    },
    {
      "inputs": [
        {
          "internalType": "uint256",
          "name": "offset",
          "type": "uint256"
        },
        {
          "internalType": "uint256",
          "name": "limit",
          "type": "uint256"
        }
      ],
      "name": "getPendingContractsByOffsetAndLimit",
      "outputs": [
        {
          "internalType": "address[]",
          "name": "",
          "type": "address[]"
        }
      ],
      "stateMutability": "view",
      "type": "function",
      "constant": true
    },
    {
      "inputs": [
        {
          "internalType": "string",
          "name": "addressToSearchFor",
          "type": "string"
        }
      ],
      "name": "getActiveContractsByAddressCount",
      "outputs": [
        {
          "internalType": "uint256",
          "name": "",
          "type": "uint256"
        }
      ],
      "stateMutability": "view",
      "type": "function",
      "constant": true
    },
    {
      "inputs": [],
      "name": "getActiveContractsCount",
      "outputs": [
        {
          "internalType": "uint256",
          "name": "",
          "type": "uint256"
        }
      ],
      "stateMutability": "view",
      "type": "function",
      "constant": true
    },
    {
      "inputs": [],
      "name": "getActiveContracts",
      "outputs": [
        {
          "internalType": "address[]",
          "name": "",
          "type": "address[]"
        }
      ],
      "stateMutability": "view",
      "type": "function",
      "constant": true
    },
    {
      "inputs": [
        {
          "internalType": "string",
          "name": "addressToSearchFor",
          "type": "string"
        }
      ],
      "name": "getActiveContractsByAddress",
      "outputs": [
        {
          "internalType": "address[]",
          "name": "",
          "type": "address[]"
        }
      ],
      "stateMutability": "view",
      "type": "function",
      "constant": true
    },
    {
      "inputs": [
        {
          "internalType": "string",
          "name": "addressToSearchFor",
          "type": "string"
        },
        {
          "internalType": "uint256",
          "name": "offset",
          "type": "uint256"
        },
        {
          "internalType": "uint256",
          "name": "limit",
          "type": "uint256"
        }
      ],
      "name": "getActiveContractsByAddressAndOffsetAndLimit",
      "outputs": [
        {
          "internalType": "address[]",
          "name": "",
          "type": "address[]"
        }
      ],
      "stateMutability": "view",
      "type": "function",
      "constant": true
    },
    {
      "inputs": [
        {
          "internalType": "string",
          "name": "addressToSearchFor",
          "type": "string"
        }
      ],
      "name": "getForSaleContractsByAddressCount",
      "outputs": [
        {
          "internalType": "uint256",
          "name": "",
          "type": "uint256"
        }
      ],
      "stateMutability": "view",
      "type": "function",
      "constant": true
    },
    {
      "inputs": [],
      "name": "getForSaleContractsCount",
      "outputs": [
        {
          "internalType": "uint256",
          "name": "",
          "type": "uint256"
        }
      ],
      "stateMutability": "view",
      "type": "function",
      "constant": true
    },
    {
      "inputs": [],
      "name": "getForSaleContracts",
      "outputs": [
        {
          "internalType": "address[]",
          "name": "",
          "type": "address[]"
        }
      ],
      "stateMutability": "view",
      "type": "function",
      "constant": true
    },
    {
      "inputs": [
        {
          "internalType": "string",
          "name": "addressToSearchFor",
          "type": "string"
        }
      ],
      "name": "getForSaleContractsByAddress",
      "outputs": [
        {
          "internalType": "address[]",
          "name": "",
          "type": "address[]"
        }
      ],
      "stateMutability": "view",
      "type": "function",
      "constant": true
    },
    {
      "inputs": [
        {
          "internalType": "string",
          "name": "addressToSearchFor",
          "type": "string"
        },
        {
          "internalType": "uint256",
          "name": "offset",
          "type": "uint256"
        },
        {
          "internalType": "uint256",
          "name": "limit",
          "type": "uint256"
        }
      ],
      "name": "getForSaleContractsByAddressAndOffsetAndLimit",
      "outputs": [
        {
          "internalType": "address[]",
          "name": "",
          "type": "address[]"
        }
      ],
      "stateMutability": "view",
      "type": "function",
      "constant": true
    },
    {
      "inputs": [
        {
          "internalType": "address",
          "name": "account",
          "type": "address"
        }
      ],
      "name": "getAccountContractsCount",
      "outputs": [
        {
          "internalType": "uint256",
          "name": "",
          "type": "uint256"
        }
      ],
      "stateMutability": "view",
      "type": "function",
      "constant": true
    },
    {
      "inputs": [
        {
          "internalType": "address",
          "name": "account",
          "type": "address"
        }
      ],
      "name": "getAccountContracts",
      "outputs": [
        {
          "internalType": "address[]",
          "name": "",
          "type": "address[]"
        }
      ],
      "stateMutability": "view",
      "type": "function",
      "constant": true
    },
    {
      "inputs": [
        {
          "internalType": "string",
          "name": "stringToSearchIn",
          "type": "string"
        },
        {
          "internalType": "string",
          "name": "stringToSearchFor",
          "type": "string"
        }
      ],
      "name": "stringContains",
      "outputs": [
        {
          "internalType": "bool",
          "name": "",
          "type": "bool"
        }
      ],
      "stateMutability": "pure",
      "type": "function",
      "constant": true
    },
    {
      "inputs": [
        {
          "internalType": "string",
          "name": "str",
          "type": "string"
        }
      ],
      "name": "toLower",
      "outputs": [
        {
          "internalType": "string",
          "name": "",
          "type": "string"
        }
      ],
      "stateMutability": "pure",
      "type": "function",
      "constant": true
    }
  ],
  "bytecode": "0x60806040523480156200001157600080fd5b50604051620056ae380380620056ae833981016040819052620000349162000149565b60005b8151811015620000f55760008282815181106200005857620000586200021b565b6020908102919091018101518254600180820185556000948552928420018054600160a060020a031916600160a060020a03909216919091179055835190918291859085908110620000ae57620000ae6200021b565b602090810291909101810151600160a060020a03168252810191909152604001600020805460ff191691151591909117905580620000ec816200024a565b91505062000037565b50506200028b565b7f4e487b7100000000000000000000000000000000000000000000000000000000600052604160045260246000fd5b8051600160a060020a03811681146200014457600080fd5b919050565b600060208083850312156200015d57600080fd5b825167ffffffffffffffff808211156200017657600080fd5b818501915085601f8301126200018b57600080fd5b815181811115620001a057620001a0620000fd565b838102604051601f19603f83011681018181108582111715620001c757620001c7620000fd565b604052918252848201925083810185019188831115620001e657600080fd5b938501935b828510156200020f57620001ff856200012c565b84529385019392850192620001eb565b98975050505050505050565b7f4e487b7100000000000000000000000000000000000000000000000000000000600052603260045260246000fd5b60006001820162000284577f4e487b7100000000000000000000000000000000000000000000000000000000600052601160045260246000fd5b5060010190565b615413806200029b6000396000f3fe60806040523480156200001157600080fd5b506004361062000242576000357c0100000000000000000000000000000000000000000000000000000000900480638ffb2f7b116200014e578063c70c17f311620000d8578063e964d4e111620000a3578063e964d4e114620004ff578063ed63455c1462000516578063f33c4ff9146200052d578063f972b7ce1462000544578063fb163e69146200054e57600080fd5b8063c70c17f31462000492578063ce29b8cc14620004a9578063d4950d9114620004cf578063d5db72eb14620004d957600080fd5b8063a210bee21162000119578063a210bee21462000450578063ad44a5e41462000467578063c2168c591462000471578063c3a2a93a146200048857600080fd5b80638ffb2f7b14620003e55780639089aee314620003fc5780639416b423146200041357806395cc3339146200043957600080fd5b806333c368ed11620001d05780635e0d99a1116200019b5780635e0d99a114620003965780635fcf3c7714620003ad5780637211899514620003c457806373b928cb14620003db57600080fd5b806333c368ed146200033a57806333cf5ef814620003515780633ab007ed14620003685780635a44e3b7146200037f57600080fd5b806312f83832116200021157806312f8383214620002c95780632a58812e14620002e05780632f54bf6e14620002f957806331deb991146200033057600080fd5b8063022edd351462000247578063025e7c2714620002695780630acae46e14620002995780630e47dbd914620002b0575b600080fd5b6200025162000558565b604051620002609190620024cf565b60405180910390f35b620002806200027a36600462002512565b620007a0565b604051600160a060020a03909116815260200162000260565b62000251620002aa36600462002600565b620007cb565b620002ba62000968565b60405190815260200162000260565b62000280620002da36600462002512565b62000afb565b620002f7620002f13660046200267d565b62000b0c565b005b6200031f6200030a36600462002778565b60016020526000908152604090205460ff1681565b604051901515815260200162000260565b620002ba62000bd5565b620002516200034b36600462002600565b62000cb4565b620002f7620003623660046200279f565b62000e3c565b62000251620003793660046200285d565b62000f84565b62000251620003903660046200289e565b62001131565b62000251620003a73660046200285d565b620012c4565b620002ba620003be3660046200285d565b620013d0565b620002f7620003d53660046200279f565b620015fb565b62000251620016a5565b620002ba620003f63660046200285d565b62001837565b620002ba6200040d36600462002778565b6200193d565b6200042a620004243660046200285d565b62001adf565b60405162000260919062002915565b620002f76200044a3660046200279f565b62001c9e565b620002806200046136600462002512565b62001d48565b6200025162001d59565b620002f76200048236600462002778565b62001eeb565b6200025162001f9e565b6200031f620004a336600462002778565b62002002565b6200031f620004ba36600462002778565b60056020526000908152604090205460ff1681565b6200025162002039565b6200031f620004ea36600462002778565b60036020526000908152604090205460ff1681565b620002516200051036600462002778565b6200209b565b6200031f620005273660046200292a565b6200224a565b6200031f6200053e36600462002778565b62002352565b6200025162002380565b620002ba620023e2565b606060006200056662000968565b67ffffffffffffffff8111156200058157620005816200252c565b604051908082528060200260200182016040528015620005ab578160200160208202803683370190505b5090506000805b6004548110156200079857600160048281548110620005d557620005d5620029ae565b600091825260209182902001546040805160e560020a63042904f70281529051600160a060020a03909216926385209ee0926004808401938290030181865afa15801562000627573d6000803e3d6000fd5b505050506040513d601f19601f820116820180604052508101906200064d9190620029c7565b600381111562000661576200066162002995565b14806200070f5750600260048281548110620006815762000681620029ae565b600091825260209182902001546040805160e560020a63042904f70281529051600160a060020a03909216926385209ee0926004808401938290030181865afa158015620006d3573d6000803e3d6000fd5b505050506040513d601f19601f82011682018060405250810190620006f99190620029c7565b60038111156200070d576200070d62002995565b145b156200078357600481815481106200072b576200072b620029ae565b600091825260209091200154600160a060020a031683836200074d8162002a03565b945081518110620007625762000762620029ae565b6020026020010190600160a060020a03169081600160a060020a0316815250505b806200078f8162002a03565b915050620005b2565b509092915050565b60008181548110620007b157600080fd5b600091825260209091200154600160a060020a0316905081565b60606000620007da8562001837565b90508381116200080a5760405160e560020a62461bcd028152600401620008019062002a1f565b60405180910390fd5b600062000818848662002a56565b821162000877576200082b858362002a6c565b67ffffffffffffffff8111156200084657620008466200252c565b60405190808252806020026020018201604052801562000870578160200160208202803683370190505b50620008bf565b8367ffffffffffffffff8111156200089357620008936200252c565b604051908082528060200260200182016040528015620008bd578160200160208202803683370190505b505b90506000620008ce87620012c4565b9050855b620008de868862002a56565b8110156200095c5781518110156200095c57818181518110620009055762000905620029ae565b60200260200101518388836200091c919062002a6c565b815181106200092f576200092f620029ae565b600160a060020a039092166020928302919091019091015280620009538162002a03565b915050620008d2565b50909695505050505050565b600080805b60045481101562000af557600160048281548110620009905762000990620029ae565b600091825260209182902001546040805160e560020a63042904f70281529051600160a060020a03909216926385209ee0926004808401938290030181865afa158015620009e2573d6000803e3d6000fd5b505050506040513d601f19601f8201168201806040525081019062000a089190620029c7565b600381111562000a1c5762000a1c62002995565b148062000aca575060026004828154811062000a3c5762000a3c620029ae565b600091825260209182902001546040805160e560020a63042904f70281529051600160a060020a03909216926385209ee0926004808401938290030181865afa15801562000a8e573d6000803e3d6000fd5b505050506040513d601f19601f8201168201806040525081019062000ab49190620029c7565b600381111562000ac85762000ac862002995565b145b1562000ae0578162000adc8162002a03565b9250505b8062000aec8162002a03565b9150506200096d565b50919050565b60028181548110620007b157600080fd5b6000308b8b8b8b8b8b8b8b8b8b60405162000b2790620024c1565b62000b3d9b9a9998979695949392919062002a82565b604051809103906000f08015801562000b5a573d6000803e3d6000fd5b5060048054600181019091557f8a35acfbc15ff81a39ae7d344fd709f28e8600b4aa8c65c6b64bfe7fe36bd19b018054600160a060020a0390921673ffffffffffffffffffffffffffffffffffffffff19909216821790556000908152600560205260409020805460ff191690555050505050505050505050565b600080805b60045481101562000af55760026004828154811062000bfd5762000bfd620029ae565b600091825260209182902001546040805160e560020a63042904f70281529051600160a060020a03909216926385209ee0926004808401938290030181865afa15801562000c4f573d6000803e3d6000fd5b505050506040513d601f19601f8201168201806040525081019062000c759190620029c7565b600381111562000c895762000c8962002995565b0362000c9f578162000c9b8162002a03565b9250505b8062000cab8162002a03565b91505062000bda565b6060600062000cc385620013d0565b905083811162000cea5760405160e560020a62461bcd028152600401620008019062002a1f565b600062000cf8848662002a56565b821162000d575762000d0b858362002a6c565b67ffffffffffffffff81111562000d265762000d266200252c565b60405190808252806020026020018201604052801562000d50578160200160208202803683370190505b5062000d9f565b8367ffffffffffffffff81111562000d735762000d736200252c565b60405190808252806020026020018201604052801562000d9d578160200160208202803683370190505b505b9050600062000dae8762000f84565b9050855b62000dbe868862002a56565b8110156200095c5781518110156200095c5781818151811062000de55762000de5620029ae565b602002602001015183888362000dfc919062002a6c565b8151811062000e0f5762000e0f620029ae565b600160a060020a03909216602092830291909101909101528062000e338162002a03565b91505062000db2565b3360009081526001602081905260409091205460ff1615151462000e775760405160e560020a62461bcd028152600401620008019062002b25565b60005b815181101562000f805762000eab82828151811062000e9d5762000e9d620029ae565b602002602001015162002002565b62000f6b57600282828151811062000ec75762000ec7620029ae565b602090810291909101810151825460018082018555600094855292842001805473ffffffffffffffffffffffffffffffffffffffff1916600160a060020a039092169190911790558351909160039185908590811062000f2b5762000f2b620029ae565b6020026020010151600160a060020a0316600160a060020a0316815260200190815260200160002060006101000a81548160ff0219169083151502179055505b8062000f778162002a03565b91505062000e7a565b5050565b6060600062000f9383620013d0565b67ffffffffffffffff81111562000fae5762000fae6200252c565b60405190808252806020026020018201604052801562000fd8578160200160208202803683370190505b509050600062000fe762000558565b90506000805b82518110156200112757620010ab620010a0848381518110620010145762001014620029ae565b6020026020010151600160a060020a031663790d15de6040518163ffffffff167c0100000000000000000000000000000000000000000000000000000000028152600401600060405180830381865afa15801562001076573d6000803e3d6000fd5b505050506040513d6000823e601f3d908101601f1916820160405262000424919081019062002b82565b620005278862001adf565b156200111257828181518110620010c657620010c6620029ae565b6020026020010151848380620010dc9062002a03565b945081518110620010f157620010f1620029ae565b6020026020010190600160a060020a03169081600160a060020a0316815250505b806200111e8162002a03565b91505062000fed565b5091949350505050565b606060006200113f620023e2565b9050838111620011665760405160e560020a62461bcd028152600401620008019062002a1f565b600062001174848662002a56565b8211620011d35762001187858362002a6c565b67ffffffffffffffff811115620011a257620011a26200252c565b604051908082528060200260200182016040528015620011cc578160200160208202803683370190505b506200121b565b8367ffffffffffffffff811115620011ef57620011ef6200252c565b60405190808252806020026020018201604052801562001219578160200160208202803683370190505b505b905060006200122962001d59565b9050855b62001239868862002a56565b811015620012b7578151811015620012b757818181518110620012605762001260620029ae565b602002602001015183888362001277919062002a6c565b815181106200128a576200128a620029ae565b600160a060020a039092166020928302919091019091015280620012ae8162002a03565b9150506200122d565b5090925050505b92915050565b60606000620012d38362001837565b67ffffffffffffffff811115620012ee57620012ee6200252c565b60405190808252806020026020018201604052801562001318578160200160208202803683370190505b509050600062001327620016a5565b90506000805b8251811015620011275762001354620010a0848381518110620010145762001014620029ae565b15620013bb578281815181106200136f576200136f620029ae565b6020026020010151848380620013859062002a03565b9450815181106200139a576200139a620029ae565b6020026020010190600160a060020a03169081600160a060020a0316815250505b80620013c78162002a03565b9150506200132d565b600080805b600454811015620015f457600160048281548110620013f857620013f8620029ae565b600091825260209182902001546040805160e560020a63042904f70281529051600160a060020a03909216926385209ee0926004808401938290030181865afa1580156200144a573d6000803e3d6000fd5b505050506040513d601f19601f82011682018060405250810190620014709190620029c7565b600381111562001484576200148462002995565b1480620015325750600260048281548110620014a457620014a4620029ae565b600091825260209182902001546040805160e560020a63042904f70281529051600160a060020a03909216926385209ee0926004808401938290030181865afa158015620014f6573d6000803e3d6000fd5b505050506040513d601f19601f820116820180604052508101906200151c9190620029c7565b600381111562001530576200153062002995565b145b8015620015c95750620015c9620015be60048381548110620015585762001558620029ae565b6000918252602082200154604080517f790d15de0000000000000000000000000000000000000000000000000000000081529051600160a060020a039092169263790d15de926004808401938290030181865afa15801562001076573d6000803e3d6000fd5b620005278662001adf565b15620015df5781620015db8162002a03565b9250505b80620015eb8162002a03565b915050620013d5565b5092915050565b3360009081526001602081905260409091205460ff16151514620016365760405160e560020a62461bcd028152600401620008019062002b25565b60005b815181101562000f80576001600360008484815181106200165e576200165e620029ae565b602090810291909101810151600160a060020a03168252810191909152604001600020805460ff1916911515919091179055806200169c8162002a03565b91505062001639565b60606000620016b362000bd5565b67ffffffffffffffff811115620016ce57620016ce6200252c565b604051908082528060200260200182016040528015620016f8578160200160208202803683370190505b5090506000805b6004548110156200079857600260048281548110620017225762001722620029ae565b600091825260209182902001546040805160e560020a63042904f70281529051600160a060020a03909216926385209ee0926004808401938290030181865afa15801562001774573d6000803e3d6000fd5b505050506040513d601f19601f820116820180604052508101906200179a9190620029c7565b6003811115620017ae57620017ae62002995565b03620018225760048181548110620017ca57620017ca620029ae565b600091825260209091200154600160a060020a03168383620017ec8162002a03565b945081518110620018015762001801620029ae565b6020026020010190600160a060020a03169081600160a060020a0316815250505b806200182e8162002a03565b915050620016ff565b600080805b600454811015620015f4576002600482815481106200185f576200185f620029ae565b600091825260209182902001546040805160e560020a63042904f70281529051600160a060020a03909216926385209ee0926004808401938290030181865afa158015620018b1573d6000803e3d6000fd5b505050506040513d601f19601f82011682018060405250810190620018d79190620029c7565b6003811115620018eb57620018eb62002995565b14801562001912575062001912620015be60048381548110620015585762001558620029ae565b15620019285781620019248162002a03565b9250505b80620019348162002a03565b9150506200183c565b600080805b600454811015620015f45783600160a060020a0316600482815481106200196d576200196d620029ae565b60009182526020918290200154604080517f8da5cb5b0000000000000000000000000000000000000000000000000000000081529051600160a060020a0390921692638da5cb5b926004808401938290030181865afa158015620019d5573d6000803e3d6000fd5b505050506040513d601f19601f82011682018060405250810190620019fb919062002c02565b600160a060020a031614801562001ab4575060036004828154811062001a255762001a25620029ae565b600091825260209182902001546040805160e560020a63042904f70281529051600160a060020a03909216926385209ee0926004808401938290030181865afa15801562001a77573d6000803e3d6000fd5b505050506040513d601f19601f8201168201806040525081019062001a9d9190620029c7565b600381111562001ab15762001ab162002995565b14155b1562001aca578162001ac68162002a03565b9250505b8062001ad68162002a03565b91505062001942565b606060008290506000815167ffffffffffffffff81111562001b055762001b056200252c565b6040519080825280601f01601f19166020018201604052801562001b30576020820181803683370190505b50905060005b825181101562001c9657604183828151811062001b575762001b57620029ae565b602001015160f860020a900460f860020a0260f860020a900460ff161015801562001bb35750605a83828151811062001b945762001b94620029ae565b602001015160f860020a900460f860020a0260f860020a900460ff1611155b1562001c2d5782818151811062001bce5762001bce620029ae565b602001015160f860020a900460f860020a0260f860020a9004602062001bf5919062002c22565b60f860020a0282828151811062001c105762001c10620029ae565b6020010190600160f860020a031916908160001a90535062001c81565b82818151811062001c425762001c42620029ae565b602001015160f860020a900460f860020a0282828151811062001c695762001c69620029ae565b6020010190600160f860020a031916908160001a9053505b8062001c8d8162002a03565b91505062001b36565b509392505050565b3360009081526001602081905260409091205460ff1615151462001cd95760405160e560020a62461bcd028152600401620008019062002b25565b60005b815181101562000f805760006003600084848151811062001d015762001d01620029ae565b602090810291909101810151600160a060020a03168252810191909152604001600020805460ff19169115159190911790558062001d3f8162002a03565b91505062001cdc565b60048181548110620007b157600080fd5b6060600062001d67620023e2565b67ffffffffffffffff81111562001d825762001d826200252c565b60405190808252806020026020018201604052801562001dac578160200160208202803683370190505b5090506000805b600454811015620007985760006004828154811062001dd65762001dd6620029ae565b600091825260209182902001546040805160e560020a63042904f70281529051600160a060020a03909216926385209ee0926004808401938290030181865afa15801562001e28573d6000803e3d6000fd5b505050506040513d601f19601f8201168201806040525081019062001e4e9190620029c7565b600381111562001e625762001e6262002995565b0362001ed6576004818154811062001e7e5762001e7e620029ae565b600091825260209091200154600160a060020a0316838362001ea08162002a03565b94508151811062001eb55762001eb5620029ae565b6020026020010190600160a060020a03169081600160a060020a0316815250505b8062001ee28162002a03565b91505062001db3565b3360009081526003602052604090205460ff16151560011462001f7a5760405160e560020a62461bcd02815260206004820152603c60248201527f4f6e6c79206f6e65206f6620746865207265676973747261727320686173206160448201527f636365737320746f20746869732066756e6374696f6e616c6974792e00000000606482015260840162000801565b600160a060020a03166000908152600560205260409020805460ff19166001179055565b6060600480548060200260200160405190810160405280929190818152602001828054801562001ff857602002820191906000526020600020905b8154600160a060020a0316815260019091019060200180831162001fd9575b5050505050905090565b600160a060020a038116600090815260016020819052604082205460ff16151590036200203157506001919050565b506000919050565b6060600080548060200260200160405190810160405280929190818152602001828054801562001ff857602002820191906000526020600020908154600160a060020a0316815260019091019060200180831162001fd9575050505050905090565b60606000620020aa836200193d565b67ffffffffffffffff811115620020c557620020c56200252c565b604051908082528060200260200182016040528015620020ef578160200160208202803683370190505b5090506000805b600454811015620022415784600160a060020a031660048281548110620021215762002121620029ae565b60009182526020918290200154604080517f8da5cb5b0000000000000000000000000000000000000000000000000000000081529051600160a060020a0390921692638da5cb5b926004808401938290030181865afa15801562002189573d6000803e3d6000fd5b505050506040513d601f19601f82011682018060405250810190620021af919062002c02565b600160a060020a0316036200222c5760048181548110620021d457620021d4620029ae565b600091825260209091200154600160a060020a03168383620021f68162002a03565b9450815181106200220b576200220b620029ae565b6020026020010190600160a060020a03169081600160a060020a0316815250505b80620022388162002a03565b915050620020f6565b50909392505050565b805182516000918391859111156200226157600080fd5b6000805b8351835162002275919062002a6c565b81116200234857600160005b85518110156200231f57858181518110620022a057620022a0620029ae565b602001015160f860020a900460f860020a02600160f860020a031916858285620022cb919062002a56565b81518110620022de57620022de620029ae565b602001015160f860020a900460f860020a02600160f860020a031916146200230a57600091506200231f565b80620023168162002a03565b91505062002281565b5080156200233257600192505062002348565b50806200233f8162002a03565b91505062002265565b5095945050505050565b600160a060020a03811660009081526003602052604081205460ff1615156001036200203157506001919050565b6060600280548060200260200160405190810160405280929190818152602001828054801562001ff857602002820191906000526020600020908154600160a060020a0316815260019091019060200180831162001fd9575050505050905090565b600080805b60045481101562000af5576000600482815481106200240a576200240a620029ae565b600091825260209182902001546040805160e560020a63042904f70281529051600160a060020a03909216926385209ee0926004808401938290030181865afa1580156200245c573d6000803e3d6000fd5b505050506040513d601f19601f82011682018060405250810190620024829190620029c7565b600381111562002496576200249662002995565b03620024ac5781620024a88162002a03565b9250505b80620024b88162002a03565b915050620023e7565b61279f8062002c3f83390190565b6020808252825182820181905260009190848201906040850190845b818110156200095c578351600160a060020a031683529284019291840191600101620024eb565b6000602082840312156200252557600080fd5b5035919050565b60e060020a634e487b7102600052604160045260246000fd5b604051601f8201601f1916810167ffffffffffffffff811182821017156200257157620025716200252c565b604052919050565b600067ffffffffffffffff8211156200259657620025966200252c565b50601f01601f191660200190565b600082601f830112620025b657600080fd5b8135620025cd620025c78262002579565b62002545565b818152846020838601011115620025e357600080fd5b816020850160208301376000918101602001919091529392505050565b6000806000606084860312156200261657600080fd5b833567ffffffffffffffff8111156200262e57600080fd5b6200263c86828701620025a4565b9660208601359650604090950135949350505050565b600160a060020a03811681146200266857600080fd5b50565b8035620026788162002652565b919050565b6000806000806000806000806000806101408b8d0312156200269e57600080fd5b620026a98b6200266b565b995060208b013567ffffffffffffffff80821115620026c757600080fd5b620026d58e838f01620025a4565b9a5060408d0135915080821115620026ec57600080fd5b620026fa8e838f01620025a4565b995060608d01359150808211156200271157600080fd5b6200271f8e838f01620025a4565b985060808d01359150808211156200273657600080fd5b50620027458d828e01620025a4565b9a9d999c50979a96999860a0880135985060c08801359760e0810135975061010081013596506101200135945092505050565b6000602082840312156200278b57600080fd5b8135620027988162002652565b9392505050565b60006020808385031215620027b357600080fd5b823567ffffffffffffffff80821115620027cc57600080fd5b818501915085601f830112620027e157600080fd5b813581811115620027f657620027f66200252c565b83810291506200280884830162002545565b81815291830184019184810190888411156200282357600080fd5b938501935b83851015620028515784359250620028408362002652565b828252938501939085019062002828565b98975050505050505050565b6000602082840312156200287057600080fd5b813567ffffffffffffffff8111156200288857600080fd5b6200289684828501620025a4565b949350505050565b60008060408385031215620028b257600080fd5b50508035926020909101359150565b60005b83811015620028de578181015183820152602001620028c4565b50506000910152565b6000815180845262002901816020860160208601620028c1565b601f01601f19169290920160200192915050565b602081526000620027986020830184620028e7565b600080604083850312156200293e57600080fd5b823567ffffffffffffffff808211156200295757600080fd5b6200296586838701620025a4565b935060208501359150808211156200297c57600080fd5b506200298b85828601620025a4565b9150509250929050565b60e060020a634e487b7102600052602160045260246000fd5b60e060020a634e487b7102600052603260045260246000fd5b600060208284031215620029da57600080fd5b8151600481106200279857600080fd5b60e060020a634e487b7102600052601160045260246000fd5b60006001820162002a185762002a18620029ea565b5060010190565b6020808252601f908201527f4f66667365742067726561746572207468616e206c697374206c656e67746800604082015260600190565b80820180821115620012be57620012be620029ea565b81810381811115620012be57620012be620029ea565b6000610160600160a060020a03808f168452808e1660208501525080604084015262002ab18184018d620028e7565b9050828103606084015262002ac7818c620028e7565b9050828103608084015262002add818b620028e7565b905082810360a084015262002af3818a620028e7565b60c0840198909852505060e0810194909452610100840192909252610120830152610140909101529695505050505050565b60208082526038908201527f4f6e6c79206f6e65206f6620746865206f776e6572732068617320616363657360408201527f7320746f20746869732066756e6374696f6e616c6974792e0000000000000000606082015260800190565b60006020828403121562002b9557600080fd5b815167ffffffffffffffff81111562002bad57600080fd5b8201601f8101841362002bbf57600080fd5b805162002bd0620025c78262002579565b81815285602083850101111562002be657600080fd5b62002bf9826020830160208601620028c1565b95945050505050565b60006020828403121562002c1557600080fd5b8151620027988162002652565b60ff8181168382160190811115620012be57620012be620029ea56fe60806040523480156200001157600080fd5b506040516200279f3803806200279f833981016040819052620000349162000322565b60048054600160a060020a038d8116600160a060020a03199283161790925560058054928d16929091169190911790556000805460ff1916905560076200007c8a82620004ec565b5060086200008b8982620004ec565b5060096200009a8882620004ec565b50600a620000a98782620004ec565b50600b859055600c848155600184905560028390556003829055604080518082019091529081527f4e6f742050726f766964656400000000000000000000000000000000000000006020820152600d90620001059082620004ec565b5060408051808201909152600c81527f4e6f742050726f766964656400000000000000000000000000000000000000006020820152600e90620001499082620004ec565b5060408051808201909152600c81527f4e6f742050726f766964656400000000000000000000000000000000000000006020820152600f906200018d9082620004ec565b5060408051808201909152600c81527f4e6f742050726f766964656400000000000000000000000000000000000000006020820152601090620001d19082620004ec565b5060408051808201909152600c81527f4e6f742050726f766964656400000000000000000000000000000000000000006020820152601190620002159082620004ec565b505050505050505050505050620005be565b8051600160a060020a03811681146200023f57600080fd5b919050565b7f4e487b7100000000000000000000000000000000000000000000000000000000600052604160045260246000fd5b600082601f8301126200028557600080fd5b81516001604060020a0380821115620002a257620002a262000244565b604051601f8301601f19908116603f01168101908282118183101715620002cd57620002cd62000244565b81604052838152602092508683858801011115620002ea57600080fd5b600091505b838210156200030e5785820183015181830184015290820190620002ef565b600093810190920192909252949350505050565b60008060008060008060008060008060006101608c8e0312156200034557600080fd5b620003508c62000227565b9a506200036060208d0162000227565b995060408c01516001604060020a038111156200037c57600080fd5b6200038a8e828f0162000273565b99505060608c01516001604060020a03811115620003a757600080fd5b620003b58e828f0162000273565b98505060808c01516001604060020a03811115620003d257600080fd5b620003e08e828f0162000273565b97505060a08c01516001604060020a03811115620003fd57600080fd5b6200040b8e828f0162000273565b96505060c08c0151945060e08c015193506101008c015192506101208c015191506101408c015190509295989b509295989b9093969950565b6002810460018216806200045957607f821691505b60208210810362000493577f4e487b7100000000000000000000000000000000000000000000000000000000600052602260045260246000fd5b50919050565b601f821115620004e7576000818152602081206020601f86010481016020861015620004c25750805b6020601f860104820191505b81811015620004e357828155600101620004ce565b5050505b505050565b81516001604060020a0381111562000508576200050862000244565b620005208162000519845462000444565b8462000499565b602080601f8311600181146200055c57600084156200053f5750858301515b60028086026008870290910a6000190419821617865550620004e3565b600085815260208120601f198616915b828110156200058d578886015182559484019460019091019084016200056c565b5085821015620005ae57878501516008601f88160260020a60001904191681555b5050505050600202600101905550565b6121d180620005ce6000396000f3fe60806040526004361061014a576000357c01000000000000000000000000000000000000000000000000000000009004806385209ee0116100c857806397035a071161008c57806397035a07146105eb5780639dfc91171461060b578063b3cbb32c1461063f578063b6366d921461065f578063daca4eef1461067f578063f5cfb032146106a557600080fd5b806385209ee01461054f57806385329517146105765780638d97bee8146105965780638da5cb5b146105b6578063953fe3cc146105d657600080fd5b80635293c8381161010f5780635293c8381461049a578063536f5c36146104ca57806372b50109146104ed57806374bdde491461050d578063790d15de1461052d57600080fd5b80627dc372146103b557806302d05d3f146103e657806312821b5e1461041e5780633d7a44921461045857806341fa17661461047a57600080fd5b366103b05760006006805460ff169081111561016857610168611626565b148061018a575060036006805460ff169081111561018857610188611626565b145b6102045760405160e560020a62461bcd02815260206004820152603760248201527f546869732070726f706572747927732074656e757265207479706520646f657360448201527f206e6f7420737570706f7274206265696e6720736f6c6400000000000000000060648201526084015b60405180910390fd5b600260005460ff16600381111561021d5761021d611626565b1461026d5760405160e560020a62461bcd02815260206004820152601e60248201527f546869732070726f7065727479206973206e6f7420666f722073616c652e000060448201526064016101fb565b600360005460ff16600381111561028657610286611626565b036102a65760405160e560020a62461bcd0281526004016101fb9061163f565b6003546000906102b79060126116b5565b6102c290600a6117af565b6002546102cf91906117c2565b6001546102e490670de0b6b3a76400006117c2565b6102ee91906117e1565b905033318111156103445760405160e560020a62461bcd02815260206004820152601260248201527f496e73756666696369656e742066756e6473000000000000000000000000000060448201526064016101fb565b600554604051600160a060020a03909116903480156108fc02916000818181858888f1935050505015801561037d573d6000803e3d6000fd5b506000805460ff19166001179055600580543373ffffffffffffffffffffffffffffffffffffffff199091168117909155005b600080fd5b3480156103c157600080fd5b506103ca6106c5565b6040516103dd9796959493929190611844565b60405180910390f35b3480156103f257600080fd5b5060045461040690600160a060020a031681565b604051600160a060020a0390911681526020016103dd565b34801561042a57600080fd5b5060015460025460035461043d92919083565b604080519384526020840192909252908201526060016103dd565b34801561046457600080fd5b50610478610473366004611978565b610916565b005b34801561048657600080fd5b506104786104953660046119f0565b6109c1565b3480156104a657600080fd5b506104ba6104b5366004611a37565b610a93565b60405190151581526020016103dd565b3480156104d657600080fd5b506104df610af0565b6040519081526020016103dd565b3480156104f957600080fd5b50610478610508366004611b2c565b610b3a565b34801561051957600080fd5b50610478610528366004611b6d565b610c9a565b34801561053957600080fd5b50610542610e17565b6040516103dd9190611c4e565b34801561055b57600080fd5b506000546105699060ff1681565b6040516103dd9190611c75565b34801561058257600080fd5b50610478610591366004611c83565b610e49565b3480156105a257600080fd5b506104786105b1366004611caf565b610ee4565b3480156105c257600080fd5b5060055461040690600160a060020a031681565b3480156105e257600080fd5b506104ba610f9a565b3480156105f757600080fd5b50610478610606366004611cd9565b6110e1565b34801561061757600080fd5b506004546005546000546040516103dd93600160a060020a0390811693169160ff1690611cf4565b34801561064b57600080fd5b506104ba61065a366004611978565b6111a7565b34801561066b57600080fd5b5061047861067a366004611d21565b611210565b34801561068b57600080fd5b506106946112b4565b6040516103dd959493929190611d3a565b3480156106b157600080fd5b506104786106c0366004611da7565b61157e565b600680546007805460ff90921692916106dd90611dc2565b80601f016020809104026020016040519081016040528092919081815260200182805461070990611dc2565b80156107565780601f1061072b57610100808354040283529160200191610756565b820191906000526020600020905b81548152906001019060200180831161073957829003601f168201915b50505050509080600201805461076b90611dc2565b80601f016020809104026020016040519081016040528092919081815260200182805461079790611dc2565b80156107e45780601f106107b9576101008083540402835291602001916107e4565b820191906000526020600020905b8154815290600101906020018083116107c757829003601f168201915b5050505050908060030180546107f990611dc2565b80601f016020809104026020016040519081016040528092919081815260200182805461082590611dc2565b80156108725780601f1061084757610100808354040283529160200191610872565b820191906000526020600020905b81548152906001019060200180831161085557829003601f168201915b50505050509080600401805461088790611dc2565b80601f01602080910402602001604051908101604052809291908181526020018280546108b390611dc2565b80156109005780601f106108d557610100808354040283529160200191610900565b820191906000526020600020905b8154815290600101906020018083116108e357829003601f168201915b5050505050908060050154908060060154905087565b61091e610f9a565b61093d5760405160e560020a62461bcd0281526004016101fb90611dff565b600554600160a060020a0316331461096a5760405160e560020a62461bcd0281526004016101fb90611e5c565b600360005460ff16600381111561098357610983611626565b036109a35760405160e560020a62461bcd0281526004016101fb9061163f565b60096109af8382611f07565b50600a6109bc8282611f07565b505050565b6109c9610f9a565b6109e85760405160e560020a62461bcd0281526004016101fb90611dff565b600554600160a060020a03163314610a155760405160e560020a62461bcd0281526004016101fb90611e5c565b600360005460ff166003811115610a2e57610a2e611626565b03610a4e5760405160e560020a62461bcd0281526004016101fb9061163f565b60018581556002859055600384905560068054849260ff19909116908383811115610a7b57610a7b611626565b0217905550600c5550506000805460ff191690555050565b6000805b8251811015610ae457610ac384848381518110610ab657610ab6611fcd565b60200260200101516111a7565b15610ad2576001915050610aea565b80610adc81611fe6565b915050610a97565b50600090505b92915050565b6003546000908190610b039060126116b5565b610b0e90600a6117af565b600254610b1b91906117c2565b600154610b3090670de0b6b3a76400006117c2565b610aea91906117e1565b600480546040517ff33c4ff90000000000000000000000000000000000000000000000000000000081523392810192909252600160a060020a03169063f33c4ff990602401602060405180830381865afa158015610b9c573d6000803e3d6000fd5b505050506040513d601f19601f82011682018060405250810190610bc09190611fff565b1515600114610be45760405160e560020a62461bcd0281526004016101fb90612021565b600554600160a060020a03163303610c115760405160e560020a62461bcd0281526004016101fb9061207e565b600360005460ff166003811115610c2a57610c2a611626565b03610c4a5760405160e560020a62461bcd0281526004016101fb9061163f565b6005805473ffffffffffffffffffffffffffffffffffffffff1916600160a060020a0384161790556000805482919060ff19166001836003811115610c9157610c91611626565b02179055505050565b600480546040517ff33c4ff90000000000000000000000000000000000000000000000000000000081523392810192909252600160a060020a03169063f33c4ff990602401602060405180830381865afa158015610cfc573d6000803e3d6000fd5b505050506040513d601f19601f82011682018060405250810190610d209190611fff565b1515600114610d445760405160e560020a62461bcd0281526004016101fb90612021565b600554600160a060020a03163303610d715760405160e560020a62461bcd0281526004016101fb9061207e565b600360005460ff166003811115610d8a57610d8a611626565b03610daa5760405160e560020a62461bcd0281526004016101fb9061163f565b600d610db68782611f07565b50600e610dc38682611f07565b50600f610dd08582611f07565b506010610ddd8482611f07565b506011610dea8382611f07565b506000805482919060ff19166001836003811115610e0a57610e0a611626565b0217905550505050505050565b604051606090610e3590600790600890600990600a9060200161214e565b604051602081830303815290604052905090565b610e51610f9a565b610e705760405160e560020a62461bcd0281526004016101fb90611dff565b600554600160a060020a03163314610e9d5760405160e560020a62461bcd0281526004016101fb90611e5c565b600360005460ff166003811115610eb657610eb6611626565b03610ed65760405160e560020a62461bcd0281526004016101fb9061163f565b600192909255600255600355565b600554600160a060020a03163314610f115760405160e560020a62461bcd0281526004016101fb90611e5c565b610f19610f9a565b610f385760405160e560020a62461bcd0281526004016101fb90611dff565b600360005460ff166003811115610f5157610f51611626565b03610f715760405160e560020a62461bcd0281526004016101fb9061163f565b6006805483919060ff191660018383811115610f8f57610f8f611626565b0217905550600c5550565b6000611068600d6000018054610faf90611dc2565b80601f0160208091040260200160405190810160405280929190818152602001828054610fdb90611dc2565b80156110285780601f10610ffd57610100808354040283529160200191611028565b820191906000526020600020905b81548152906001019060200180831161100b57829003601f168201915b50505050506040518060400160405280600881526020017f50726f76696465640000000000000000000000000000000000000000000000008152506111a7565b80156110825750611082600d6001018054610faf90611dc2565b801561109c575061109c600d6002018054610faf90611dc2565b80156110b657506110b6600d6003018054610faf90611dc2565b80156110d057506110d0600d6004018054610faf90611dc2565b156110db5750600190565b50600090565b6110e9610f9a565b6111085760405160e560020a62461bcd0281526004016101fb90611dff565b600554600160a060020a031633146111355760405160e560020a62461bcd0281526004016101fb90611e5c565b600360005460ff16600381111561114e5761114e611626565b0361116e5760405160e560020a62461bcd0281526004016101fb9061163f565b6006805482919060ff19166001838381111561118c5761118c611626565b021790555060008054819060ff19166001825b021790555050565b600081518351146111ba57506000610aea565b816040516020016111cb919061217f565b60405160208183030381529060405280519060200120836040516020016111f2919061217f565b60405160208183030381529060405280519060200120149050610aea565b611218610f9a565b6112375760405160e560020a62461bcd0281526004016101fb90611dff565b600554600160a060020a031633146112645760405160e560020a62461bcd0281526004016101fb90611e5c565b600360005460ff16600381111561127d5761127d611626565b0361129d5760405160e560020a62461bcd0281526004016101fb9061163f565b600c81905560008054819060ff191660018261119f565b600d805481906112c390611dc2565b80601f01602080910402602001604051908101604052809291908181526020018280546112ef90611dc2565b801561133c5780601f106113115761010080835404028352916020019161133c565b820191906000526020600020905b81548152906001019060200180831161131f57829003601f168201915b50505050509080600101805461135190611dc2565b80601f016020809104026020016040519081016040528092919081815260200182805461137d90611dc2565b80156113ca5780601f1061139f576101008083540402835291602001916113ca565b820191906000526020600020905b8154815290600101906020018083116113ad57829003601f168201915b5050505050908060020180546113df90611dc2565b80601f016020809104026020016040519081016040528092919081815260200182805461140b90611dc2565b80156114585780601f1061142d57610100808354040283529160200191611458565b820191906000526020600020905b81548152906001019060200180831161143b57829003601f168201915b50505050509080600301805461146d90611dc2565b80601f016020809104026020016040519081016040528092919081815260200182805461149990611dc2565b80156114e65780601f106114bb576101008083540402835291602001916114e6565b820191906000526020600020905b8154815290600101906020018083116114c957829003601f168201915b5050505050908060040180546114fb90611dc2565b80601f016020809104026020016040519081016040528092919081815260200182805461152790611dc2565b80156115745780601f1061154957610100808354040283529160200191611574565b820191906000526020600020905b81548152906001019060200180831161155757829003601f168201915b5050505050905085565b611586610f9a565b6115a55760405160e560020a62461bcd0281526004016101fb90611dff565b600554600160a060020a031633146115d25760405160e560020a62461bcd0281526004016101fb90611e5c565b600360005460ff1660038111156115eb576115eb611626565b0361160b5760405160e560020a62461bcd0281526004016101fb9061163f565b6000805482919060ff1916600183600381111561119f5761119f5b60e060020a634e487b7102600052602160045260246000fd5b60208082526032908201527f546869732050726f7065727479205469746c6520436f6e74726163742069732060408201527f6e6f206c6f6e6765722072656c6176616e740000000000000000000000000000606082015260800190565b60e060020a634e487b7102600052601160045260246000fd5b81810381811115610aea57610aea61169c565b600181815b808511156117055781600019048211156116e9576116e961169c565b808516156116f657918102915b600290940493908002906116cd565b509250929050565b60008261171c57506001610aea565b8161172957506000610aea565b816001811461173f576002811461174957611766565b6001915050610aea565b60ff84111561175a5761175a61169c565b8360020a915050610aea565b5060208310610133831016604e8410600b8410161715611789575081810a610aea565b61179383836116c8565b80600019048211156117a7576117a761169c565b029392505050565b60006117bb838361170d565b9392505050565b60008160001904831182151516156117dc576117dc61169c565b500290565b80820180821115610aea57610aea61169c565b60005b8381101561180f5781810151838201526020016117f7565b50506000910152565b600081518084526118308160208601602086016117f4565b601f01601f19169290920160200192915050565b60006007891061185657611856611626565b88825260e0602083015261186d60e0830189611818565b828103604084015261187f8189611818565b905082810360608401526118938188611818565b905082810360808401526118a78187611818565b60a0840195909552505060c0015295945050505050565b60e060020a634e487b7102600052604160045260246000fd5b604051601f8201601f1916810167ffffffffffffffff81118282101715611900576119006118be565b604052919050565b600082601f83011261191957600080fd5b813567ffffffffffffffff811115611933576119336118be565b611946601f8201601f19166020016118d7565b81815284602083860101111561195b57600080fd5b816020850160208301376000918101602001919091529392505050565b6000806040838503121561198b57600080fd5b823567ffffffffffffffff808211156119a357600080fd5b6119af86838701611908565b935060208501359150808211156119c557600080fd5b506119d285828601611908565b9150509250929050565b8035600781106119eb57600080fd5b919050565b600080600080600060a08688031215611a0857600080fd5b853594506020860135935060408601359250611a26606087016119dc565b949793965091946080013592915050565b60008060408385031215611a4a57600080fd5b823567ffffffffffffffff80821115611a6257600080fd5b611a6e86838701611908565b9350602091508185013581811115611a8557600080fd5b8501601f81018713611a9657600080fd5b803582811115611aa857611aa86118be565b838102611ab68582016118d7565b918252828101850191858101908a841115611ad057600080fd5b86850192505b83831015611b0c57823586811115611aee5760008081fd5b611afc8c8983890101611908565b8352509186019190860190611ad6565b809750505050505050509250929050565b8035600481106119eb57600080fd5b60008060408385031215611b3f57600080fd5b8235600160a060020a0381168114611b5657600080fd5b9150611b6460208401611b1d565b90509250929050565b60008060008060008060c08789031215611b8657600080fd5b863567ffffffffffffffff80821115611b9e57600080fd5b611baa8a838b01611908565b97506020890135915080821115611bc057600080fd5b611bcc8a838b01611908565b96506040890135915080821115611be257600080fd5b611bee8a838b01611908565b95506060890135915080821115611c0457600080fd5b611c108a838b01611908565b94506080890135915080821115611c2657600080fd5b50611c3389828a01611908565b925050611c4260a08801611b1d565b90509295509295509295565b6020815260006117bb6020830184611818565b60048110611c7157611c71611626565b9052565b60208101610aea8284611c61565b600080600060608486031215611c9857600080fd5b505081359360208301359350604090920135919050565b60008060408385031215611cc257600080fd5b611ccb836119dc565b946020939093013593505050565b600060208284031215611ceb57600080fd5b6117bb826119dc565b600160a060020a0384811682528316602082015260608101611d196040830184611c61565b949350505050565b600060208284031215611d3357600080fd5b5035919050565b60a081526000611d4d60a0830188611818565b8281036020840152611d5f8188611818565b90508281036040840152611d738187611818565b90508281036060840152611d878186611818565b90508281036080840152611d9b8185611818565b98975050505050505050565b600060208284031215611db957600080fd5b6117bb82611b1d565b600281046001821680611dd657607f821691505b602082108103611df95760e060020a634e487b7102600052602260045260246000fd5b50919050565b60208082526024908201527f5468652070726f7065727479206973206e6f74206c6567616c6c7920616c726960408201527f6768742e00000000000000000000000000000000000000000000000000000000606082015260800190565b60208082526032908201527f4f6e6c7920746865206f776e6572206f662074686520436f6e7472616374206860408201527f61732061636365737320746f2074686973210000000000000000000000000000606082015260800190565b601f8211156109bc576000818152602081206020601f86010481016020861015611ee05750805b6020601f860104820191505b81811015611eff57828155600101611eec565b505050505050565b815167ffffffffffffffff811115611f2157611f216118be565b611f3581611f2f8454611dc2565b84611eb9565b602080601f831160018114611f6e5760008415611f525750858301515b60028086026008870290910a6000190419821617865550611eff565b600085815260208120601f198616915b82811015611f9d57888601518255948401946001909101908401611f7e565b5085821015611fbd57878501516008601f88160260020a60001904191681555b5050505050600202600101905550565b60e060020a634e487b7102600052603260045260246000fd5b600060018201611ff857611ff861169c565b5060010190565b60006020828403121561201157600080fd5b815180151581146117bb57600080fd5b60208082526036908201527f4f6e6c792061207265676973746572656420726567697374726172206861732060408201527f61636365737320746f207468697320616374696f6e2e00000000000000000000606082015260800190565b60208082526026908201527f596f752063616e206e6f742076616c696461746520796f7572206f776e20707260408201527f6f70657274790000000000000000000000000000000000000000000000000000606082015260800190565b600081546120e881611dc2565b60018281168015612100576001811461211557612144565b60ff1984168752821515830287019450612144565b8560005260208060002060005b8581101561213b5781548a820152908401908201612122565b50505082870194505b5050505092915050565b600061217561216f612169612163858a6120db565b886120db565b866120db565b846120db565b9695505050505050565b600082516121918184602087016117f4565b919091019291505056fea264697066735822122030d717c221a5776b38913bdeb62f3b328399de6dabf947eb1b39f9a04e371deb64736f6c63430008100033a2646970667358221220998b208c5631641b99f4ab960f17d563cdb2b12e2631ff712a67579062b7019364736f6c63430008100033",
  "immutableReferences": {},
  "source": "//SPDX-License-Identifier: MIT\r\npragma solidity ^0.8.16;\r\n\r\nimport \"./PropertyTitle.sol\";\r\n\r\ninterface IAccessPropertyTitleMethods {\r\n    function contractState() external view returns (PropertyTitleContractState);\r\n    function getFullPropertyAddress() external view returns (string memory);\r\n    function owner() external view returns (address);\r\n}\r\n\r\ncontract TitleCreatingContract {\r\n    address[] public owners;\r\n    mapping (address => bool) public isOwner;\r\n\r\n    address[] public registrars;\r\n    mapping (address => bool) public isRegistrar;\r\n\r\n    address[] public titleContracts;\r\n    mapping (address => bool) public propertyTitleContractsValidity;\r\n\r\n    constructor(address[] memory _owners)\r\n    {\r\n        for (uint256 i = 0; i < _owners.length; i++) {\r\n            owners.push(_owners[i]);\r\n            isOwner[_owners[i]] = true;\r\n        }\r\n    }\r\n\r\n    function addRegistrars(address[] memory _registrars) public onlyOwner {\r\n        for (uint256 i = 0; i < _registrars.length; i++) {\r\n            if (!checkIfUserIsOwner(_registrars[i])) {\r\n                registrars.push(_registrars[i]);\r\n                isRegistrar[_registrars[i]] = true;\r\n            }\r\n        }\r\n    }\r\n\r\n    function removeRegistrarRole(address[] memory _registrars) public onlyOwner {\r\n        for (uint256 i = 0; i < _registrars.length; i++) {\r\n            isRegistrar[_registrars[i]] = false;\r\n        }\r\n    }\r\n\r\n    function reactivateRegistrarRole(address[] memory _registrars) public onlyOwner {\r\n        for (uint256 i = 0; i < _registrars.length; i++) {\r\n            isRegistrar[_registrars[i]] = true;\r\n        }\r\n    }\r\n\r\n    function deployNewPropertyTitle(\r\n        address _owner,\r\n        string memory _country,\r\n        string memory _city,\r\n        string memory _street,\r\n        string memory _streeNumber,\r\n        uint256 _apartmentNumber,\r\n        uint256 _squareMeters,\r\n        uint256 _sellingPriceIntegralPart,\r\n        uint256 _sellingPriceFractionalPart,\r\n        uint256  _sellingPriceFractionalPartLength\r\n    )\r\n        public\r\n    {\r\n        PropertyTitle propertyTitle = new PropertyTitle(\r\n            address(this),\r\n            _owner,\r\n            _country,\r\n            _city,\r\n            _street,\r\n            _streeNumber,\r\n            _apartmentNumber,\r\n            _squareMeters,\r\n            _sellingPriceIntegralPart,\r\n            _sellingPriceFractionalPart,\r\n            _sellingPriceFractionalPartLength\r\n        );\r\n        titleContracts.push(address(propertyTitle));\r\n        propertyTitleContractsValidity[address(propertyTitle)] = false;\r\n    }\r\n\r\n    function validatePropertyTitleContract(address _contractAddress) public onlyRegistrar {\r\n        propertyTitleContractsValidity[_contractAddress] = true;\r\n    }\r\n\r\n    function checkIfUserIsOwner(address userAddress) public view returns (bool) {\r\n        if (isOwner[userAddress] == true) {\r\n            return true;\r\n        }\r\n        return false;    \r\n    }\r\n\r\n    function checkIfUserIsRegistrar(address userAddress) public view returns (bool) {\r\n        if (isRegistrar[userAddress] == true) {\r\n            return true;\r\n        }\r\n        return false;\r\n    }\r\n\r\n    function getContractOwners() public view returns (address[] memory) {\r\n        return owners;\r\n    }\r\n\r\n    function getContractRegistrars() public view returns (address[] memory) {\r\n        return registrars;\r\n    }\r\n\r\n    function getContracts() public view returns (address[] memory) {\r\n        return titleContracts;\r\n    }\r\n\r\n    function getPendingContractsCount() public view returns (uint256) {\r\n        uint256 k = 0;\r\n        for (uint256 i = 0; i < titleContracts.length; i++) {\r\n            if (IAccessPropertyTitleMethods(titleContracts[i]).contractState() == PropertyTitleContractState.PENDING) {\r\n                k++;\r\n            } \r\n        }\r\n\r\n        return k;\r\n    }\r\n\r\n    function getPendingContracts() public view returns (address[] memory) {\r\n        address[] memory contracts = new address[](getPendingContractsCount());\r\n\r\n        uint256 k = 0;\r\n        for (uint256 i = 0; i < titleContracts.length; i++) {\r\n            if (IAccessPropertyTitleMethods(titleContracts[i]).contractState() == PropertyTitleContractState.PENDING) {\r\n                contracts[k++] = titleContracts[i];\r\n            } \r\n        }\r\n\r\n        return contracts;\r\n    }\r\n\r\n    function getPendingContractsByOffsetAndLimit(uint256 offset, uint256 limit) public view returns (address[] memory) {\r\n        uint256 pendingContractsCount = getPendingContractsCount();\r\n        require(pendingContractsCount > offset, \"Offset greater than list length\");\r\n\r\n        address[] memory contracts = pendingContractsCount > offset + limit \r\n            ? new address[](limit) \r\n            : new address[](pendingContractsCount - offset);\r\n\r\n        address[] memory pendingContracts = getPendingContracts();\r\n        for (uint256 i = offset; i < offset + limit; i++) {\r\n            if (i >= pendingContracts.length) {\r\n                break;\r\n            }\r\n            contracts[i - offset] = pendingContracts[i];\r\n        }\r\n\r\n        return contracts;\r\n    }\r\n\r\n    function getActiveContractsByAddressCount(string memory addressToSearchFor) public view returns (uint256) {\r\n        uint256 k = 0;\r\n        for (uint256 i = 0; i < titleContracts.length; i++) {\r\n            if ((IAccessPropertyTitleMethods(titleContracts[i]).contractState() == PropertyTitleContractState.OWNED ||\r\n                IAccessPropertyTitleMethods(titleContracts[i]).contractState() == PropertyTitleContractState.FOR_SALE) &&\r\n                stringContains(toLower(IAccessPropertyTitleMethods(titleContracts[i]).getFullPropertyAddress()), toLower(addressToSearchFor))) {\r\n                k++;\r\n            } \r\n        }\r\n\r\n        return k;\r\n    }\r\n\r\n    function getActiveContractsCount() public view returns (uint256) {\r\n        uint256 k = 0;\r\n        for (uint256 i = 0; i < titleContracts.length; i++) {\r\n            if (IAccessPropertyTitleMethods(titleContracts[i]).contractState() == PropertyTitleContractState.OWNED ||\r\n                IAccessPropertyTitleMethods(titleContracts[i]).contractState() == PropertyTitleContractState.FOR_SALE) {\r\n                k++;\r\n            } \r\n        }\r\n\r\n        return k;\r\n    }\r\n\r\n    function getActiveContracts() public view returns (address[] memory) {\r\n        address[] memory contracts = new address[](getActiveContractsCount());\r\n\r\n        uint256 k = 0;\r\n        for (uint256 i = 0; i < titleContracts.length; i++) {\r\n            if (IAccessPropertyTitleMethods(titleContracts[i]).contractState() == PropertyTitleContractState.OWNED ||\r\n                IAccessPropertyTitleMethods(titleContracts[i]).contractState() == PropertyTitleContractState.FOR_SALE) {\r\n                contracts[k++] = titleContracts[i];\r\n            }\r\n        }\r\n\r\n        return contracts;\r\n    }\r\n\r\n    function getActiveContractsByAddress(string memory addressToSearchFor) public view returns (address[] memory) {\r\n        address[] memory contracts = new address[](getActiveContractsByAddressCount(addressToSearchFor));\r\n\r\n        address[] memory activeContracts = getActiveContracts();\r\n        uint256 k = 0;\r\n        for (uint256 i = 0; i < activeContracts.length; i++) {\r\n            if (stringContains(toLower(IAccessPropertyTitleMethods(activeContracts[i]).getFullPropertyAddress()), toLower(addressToSearchFor))) {\r\n                contracts[k++] = activeContracts[i];\r\n            }\r\n        }\r\n\r\n        return contracts;\r\n    }\r\n\r\n    function getActiveContractsByAddressAndOffsetAndLimit(string memory addressToSearchFor, uint256 offset, uint256 limit)  public view returns (address[] memory) {\r\n        uint256 activeContractsByAddressCount = getActiveContractsByAddressCount(addressToSearchFor);\r\n        require(activeContractsByAddressCount > offset, \"Offset greater than list length\");\r\n\r\n        address[] memory contracts = activeContractsByAddressCount > offset + limit \r\n            ? new address[](limit) \r\n            : new address[](activeContractsByAddressCount - offset);\r\n\r\n        address[] memory activeContractsByAddress = getActiveContractsByAddress(addressToSearchFor);\r\n        for (uint256 i = offset; i < offset + limit; i++) {\r\n            if (i >= activeContractsByAddress.length) {\r\n                break;\r\n            }\r\n            contracts[i - offset] = activeContractsByAddress[i];\r\n\r\n        }\r\n\r\n        return contracts;\r\n    }\r\n\r\n    function getForSaleContractsByAddressCount(string memory addressToSearchFor) public view returns (uint256) {\r\n        uint256 k = 0;\r\n        for (uint256 i = 0; i < titleContracts.length; i++) {\r\n            if (IAccessPropertyTitleMethods(titleContracts[i]).contractState() == PropertyTitleContractState.FOR_SALE &&\r\n                stringContains(toLower(IAccessPropertyTitleMethods(titleContracts[i]).getFullPropertyAddress()), toLower(addressToSearchFor))) {\r\n                k++;\r\n            }\r\n        }\r\n\r\n        return k;\r\n    }\r\n\r\n    function getForSaleContractsCount() public view returns (uint256) {\r\n        uint256 k = 0;\r\n        for (uint256 i = 0; i < titleContracts.length; i++) {\r\n            if (IAccessPropertyTitleMethods(titleContracts[i]).contractState() == PropertyTitleContractState.FOR_SALE) {\r\n                k++;\r\n            } \r\n        }\r\n\r\n        return k;\r\n    }\r\n\r\n\r\n    function getForSaleContracts() public view returns (address[] memory) {\r\n        address[] memory contracts = new address[](getForSaleContractsCount());\r\n\r\n        uint256 k = 0;\r\n        for (uint256 i = 0; i < titleContracts.length; i++) {\r\n            if (IAccessPropertyTitleMethods(titleContracts[i]).contractState() == PropertyTitleContractState.FOR_SALE) {\r\n                contracts[k++] = titleContracts[i];\r\n            }\r\n        }\r\n\r\n        return contracts;\r\n    }\r\n\r\n    function getForSaleContractsByAddress(string memory addressToSearchFor) public view returns (address[] memory) {\r\n        address[] memory contracts = new address[](getForSaleContractsByAddressCount(addressToSearchFor));\r\n\r\n        address[] memory forSaleContracts = getForSaleContracts();\r\n        uint256 k = 0;\r\n        for (uint256 i = 0; i < forSaleContracts.length; i++) {\r\n            if (stringContains(toLower(IAccessPropertyTitleMethods(forSaleContracts[i]).getFullPropertyAddress()), toLower(addressToSearchFor))) {\r\n                contracts[k++] = forSaleContracts[i];\r\n            }\r\n        }\r\n\r\n        return contracts;\r\n    }\r\n\r\n    function getForSaleContractsByAddressAndOffsetAndLimit(string memory addressToSearchFor, uint256 offset, uint256 limit)  public view returns (address[] memory) {\r\n        uint256 forSaleContractsByAddressCount = getForSaleContractsByAddressCount(addressToSearchFor);\r\n        require(forSaleContractsByAddressCount > offset, \"Offset greater than list length\");\r\n\r\n        address[] memory contracts = forSaleContractsByAddressCount > offset + limit \r\n            ? new address[](limit) \r\n            : new address[](forSaleContractsByAddressCount - offset);\r\n\r\n        address[] memory forSaleContractsByAddress = getForSaleContractsByAddress(addressToSearchFor);\r\n        for (uint256 i = offset; i < offset + limit; i++) {\r\n            if (i >= forSaleContractsByAddress.length) {\r\n                break;\r\n            }\r\n            contracts[i - offset] = forSaleContractsByAddress[i];\r\n\r\n        }\r\n\r\n        return contracts;\r\n    }\r\n\r\n    function getAccountContractsCount(address account) public view returns (uint256)\r\n    {\r\n        uint256 k = 0;\r\n        for (uint256 i = 0; i < titleContracts.length; i++) {\r\n            if (IAccessPropertyTitleMethods(titleContracts[i]).owner() == account && \r\n                IAccessPropertyTitleMethods(titleContracts[i]).contractState() != PropertyTitleContractState.NO_LONGER_RELEVANT) {\r\n                k++;\r\n            }\r\n        }\r\n\r\n        return k;\r\n    }\r\n\r\n    function getAccountContracts(address account) public view returns (address[] memory)\r\n    {\r\n        address[] memory contracts = new address[](getAccountContractsCount(account));\r\n        uint256 k = 0;\r\n        for (uint256 i = 0; i < titleContracts.length; i++) {\r\n            if (IAccessPropertyTitleMethods(titleContracts[i]).owner() == account) {\r\n                contracts[k++] = titleContracts[i];\r\n            }\r\n        }\r\n\r\n        return contracts;\r\n    }\r\n\r\n    function stringContains(string memory stringToSearchIn, string memory stringToSearchFor) public pure returns (bool) {\r\n        bytes memory stringToSearchForBytes = bytes (stringToSearchFor);\r\n        bytes memory stringToSearchInBytes = bytes (stringToSearchIn);\r\n\r\n        require(stringToSearchInBytes.length >= stringToSearchForBytes.length);\r\n\r\n        bool found = false;\r\n        for (uint i = 0; i <= stringToSearchInBytes.length - stringToSearchForBytes.length; i++) {\r\n            bool flag = true;\r\n            for (uint j = 0; j < stringToSearchForBytes.length; j++)\r\n                if (stringToSearchInBytes[i + j] != stringToSearchForBytes[j]) {\r\n                    flag = false;\r\n                    break;\r\n                }\r\n            if (flag) {\r\n                found = true;\r\n                break;\r\n            }\r\n        }\r\n        \r\n        return found;\r\n    }\r\n\r\n    function toLower(string memory str) public pure returns (string memory) {\r\n        bytes memory bStr = bytes(str);\r\n        bytes memory bLower = new bytes(bStr.length);\r\n        for (uint i = 0; i < bStr.length; i++) {\r\n            if ((uint8(bStr[i]) >= 65) && (uint8(bStr[i]) <= 90)) {\r\n                bLower[i] = bytes1(uint8(bStr[i]) + 32);\r\n            } else {\r\n                bLower[i] = bStr[i];\r\n            }\r\n        }\r\n        return string(bLower);\r\n    }\r\n\r\n    modifier onlyRegistrar {\r\n        require(isRegistrar[msg.sender] == true, \"Only one of the registrars has access to this functionality.\");\r\n        _;\r\n    }\r\n\r\n    modifier onlyOwner {\r\n        require(isOwner[msg.sender] == true, \"Only one of the owners has access to this functionality.\");\r\n        _;\r\n    }\r\n}",
  "sourcePath": "D:\\Propty\\propty\\contracts\\contracts\\TitleCreatingContract.sol",
  "compiler": {
    "name": "solc",
    "version": "0.8.16+commit.07a7930e.Emscripten.clang"
  },
  "schemaVersion": "3.4.9",
  "updatedAt": "2023-02-06T07:29:33.425Z",
  "networkType": "ethereum",
  "devdoc": {
    "kind": "dev",
    "methods": {},
    "version": 1
  },
  "userdoc": {
    "kind": "user",
    "methods": {},
    "version": 1
  }
}