{
  "contractName": "TitleCreatingContract",
  "abi": [
    {
      "inputs": [
        {
          "internalType": "address[]",
          "name": "_owners",
          "type": "address[]"
        }
      ],
      "stateMutability": "nonpayable",
      "type": "constructor"
    },
    {
      "inputs": [
        {
          "internalType": "address",
          "name": "",
          "type": "address"
        }
      ],
      "name": "isOwner",
      "outputs": [
        {
          "internalType": "bool",
          "name": "",
          "type": "bool"
        }
      ],
      "stateMutability": "view",
      "type": "function",
      "constant": true
    },
    {
      "inputs": [
        {
          "internalType": "address",
          "name": "",
          "type": "address"
        }
      ],
      "name": "isRegistrar",
      "outputs": [
        {
          "internalType": "bool",
          "name": "",
          "type": "bool"
        }
      ],
      "stateMutability": "view",
      "type": "function",
      "constant": true
    },
    {
      "inputs": [
        {
          "internalType": "uint256",
          "name": "",
          "type": "uint256"
        }
      ],
      "name": "owners",
      "outputs": [
        {
          "internalType": "address",
          "name": "",
          "type": "address"
        }
      ],
      "stateMutability": "view",
      "type": "function",
      "constant": true
    },
    {
      "inputs": [
        {
          "internalType": "address",
          "name": "",
          "type": "address"
        }
      ],
      "name": "propertyTitleContractsValidity",
      "outputs": [
        {
          "internalType": "bool",
          "name": "",
          "type": "bool"
        }
      ],
      "stateMutability": "view",
      "type": "function",
      "constant": true
    },
    {
      "inputs": [
        {
          "internalType": "uint256",
          "name": "",
          "type": "uint256"
        }
      ],
      "name": "registrars",
      "outputs": [
        {
          "internalType": "address",
          "name": "",
          "type": "address"
        }
      ],
      "stateMutability": "view",
      "type": "function",
      "constant": true
    },
    {
      "inputs": [
        {
          "internalType": "uint256",
          "name": "",
          "type": "uint256"
        }
      ],
      "name": "titleContracts",
      "outputs": [
        {
          "internalType": "address",
          "name": "",
          "type": "address"
        }
      ],
      "stateMutability": "view",
      "type": "function",
      "constant": true
    },
    {
      "inputs": [
        {
          "internalType": "address[]",
          "name": "_registrars",
          "type": "address[]"
        }
      ],
      "name": "addRegistrars",
      "outputs": [],
      "stateMutability": "nonpayable",
      "type": "function"
    },
    {
      "inputs": [
        {
          "internalType": "address[]",
          "name": "_registrars",
          "type": "address[]"
        }
      ],
      "name": "removeRegistrarRole",
      "outputs": [],
      "stateMutability": "nonpayable",
      "type": "function"
    },
    {
      "inputs": [
        {
          "internalType": "address[]",
          "name": "_registrars",
          "type": "address[]"
        }
      ],
      "name": "reactivateRegistrarRole",
      "outputs": [],
      "stateMutability": "nonpayable",
      "type": "function"
    },
    {
      "inputs": [
        {
          "internalType": "address",
          "name": "_owner",
          "type": "address"
        },
        {
          "internalType": "string",
          "name": "_country",
          "type": "string"
        },
        {
          "internalType": "string",
          "name": "_city",
          "type": "string"
        },
        {
          "internalType": "string",
          "name": "_street",
          "type": "string"
        },
        {
          "internalType": "string",
          "name": "_streeNumber",
          "type": "string"
        },
        {
          "internalType": "uint256",
          "name": "_apartmentNumber",
          "type": "uint256"
        },
        {
          "internalType": "uint256",
          "name": "_squareMeters",
          "type": "uint256"
        },
        {
          "internalType": "uint256",
          "name": "_sellingPriceIntegralPart",
          "type": "uint256"
        },
        {
          "internalType": "uint256",
          "name": "_sellingPriceFractionalPart",
          "type": "uint256"
        },
        {
          "internalType": "uint256",
          "name": "_sellingPriceFractionalPartLength",
          "type": "uint256"
        }
      ],
      "name": "deployNewPropertyTitle",
      "outputs": [],
      "stateMutability": "nonpayable",
      "type": "function"
    },
    {
      "inputs": [
        {
          "internalType": "address",
          "name": "_contractAddress",
          "type": "address"
        }
      ],
      "name": "validatePropertyTitleContract",
      "outputs": [],
      "stateMutability": "nonpayable",
      "type": "function"
    },
    {
      "inputs": [
        {
          "internalType": "address",
          "name": "userAddress",
          "type": "address"
        }
      ],
      "name": "checkIfUserIsOwner",
      "outputs": [
        {
          "internalType": "bool",
          "name": "",
          "type": "bool"
        }
      ],
      "stateMutability": "view",
      "type": "function",
      "constant": true
    },
    {
      "inputs": [
        {
          "internalType": "address",
          "name": "userAddress",
          "type": "address"
        }
      ],
      "name": "checkIfUserIsRegistrar",
      "outputs": [
        {
          "internalType": "bool",
          "name": "",
          "type": "bool"
        }
      ],
      "stateMutability": "view",
      "type": "function",
      "constant": true
    },
    {
      "inputs": [],
      "name": "getContractOwners",
      "outputs": [
        {
          "internalType": "address[]",
          "name": "",
          "type": "address[]"
        }
      ],
      "stateMutability": "view",
      "type": "function",
      "constant": true
    },
    {
      "inputs": [],
      "name": "getContractRegistrars",
      "outputs": [
        {
          "internalType": "address[]",
          "name": "",
          "type": "address[]"
        }
      ],
      "stateMutability": "view",
      "type": "function",
      "constant": true
    },
    {
      "inputs": [],
      "name": "getContracts",
      "outputs": [
        {
          "internalType": "address[]",
          "name": "",
          "type": "address[]"
        }
      ],
      "stateMutability": "view",
      "type": "function",
      "constant": true
    },
    {
      "inputs": [],
      "name": "getPendingContractsCount",
      "outputs": [
        {
          "internalType": "uint256",
          "name": "",
          "type": "uint256"
        }
      ],
      "stateMutability": "view",
      "type": "function",
      "constant": true
    },
    {
      "inputs": [],
      "name": "getPendingContracts",
      "outputs": [
        {
          "internalType": "address[]",
          "name": "",
          "type": "address[]"
        }
      ],
      "stateMutability": "view",
      "type": "function",
      "constant": true
    },
    {
      "inputs": [
        {
          "internalType": "uint256",
          "name": "offset",
          "type": "uint256"
        },
        {
          "internalType": "uint256",
          "name": "limit",
          "type": "uint256"
        }
      ],
      "name": "getPendingContractsByOffsetAndLimit",
      "outputs": [
        {
          "internalType": "address[]",
          "name": "",
          "type": "address[]"
        }
      ],
      "stateMutability": "view",
      "type": "function",
      "constant": true
    },
    {
      "inputs": [
        {
          "internalType": "string",
          "name": "addressToSearchFor",
          "type": "string"
        }
      ],
      "name": "getActiveContractsByAddressCount",
      "outputs": [
        {
          "internalType": "uint256",
          "name": "",
          "type": "uint256"
        }
      ],
      "stateMutability": "view",
      "type": "function",
      "constant": true
    },
    {
      "inputs": [],
      "name": "getActiveContractsCount",
      "outputs": [
        {
          "internalType": "uint256",
          "name": "",
          "type": "uint256"
        }
      ],
      "stateMutability": "view",
      "type": "function",
      "constant": true
    },
    {
      "inputs": [],
      "name": "getActiveContracts",
      "outputs": [
        {
          "internalType": "address[]",
          "name": "",
          "type": "address[]"
        }
      ],
      "stateMutability": "view",
      "type": "function",
      "constant": true
    },
    {
      "inputs": [
        {
          "internalType": "string",
          "name": "addressToSearchFor",
          "type": "string"
        }
      ],
      "name": "getActiveContractsByAddress",
      "outputs": [
        {
          "internalType": "address[]",
          "name": "",
          "type": "address[]"
        }
      ],
      "stateMutability": "view",
      "type": "function",
      "constant": true
    },
    {
      "inputs": [
        {
          "internalType": "string",
          "name": "addressToSearchFor",
          "type": "string"
        },
        {
          "internalType": "uint256",
          "name": "offset",
          "type": "uint256"
        },
        {
          "internalType": "uint256",
          "name": "limit",
          "type": "uint256"
        }
      ],
      "name": "getActiveContractsByAddressAndOffsetAndLimit",
      "outputs": [
        {
          "internalType": "address[]",
          "name": "",
          "type": "address[]"
        }
      ],
      "stateMutability": "view",
      "type": "function",
      "constant": true
    },
    {
      "inputs": [
        {
          "internalType": "string",
          "name": "addressToSearchFor",
          "type": "string"
        }
      ],
      "name": "getForSaleContractsByAddressCount",
      "outputs": [
        {
          "internalType": "uint256",
          "name": "",
          "type": "uint256"
        }
      ],
      "stateMutability": "view",
      "type": "function",
      "constant": true
    },
    {
      "inputs": [],
      "name": "getForSaleContractsCount",
      "outputs": [
        {
          "internalType": "uint256",
          "name": "",
          "type": "uint256"
        }
      ],
      "stateMutability": "view",
      "type": "function",
      "constant": true
    },
    {
      "inputs": [],
      "name": "getForSaleContracts",
      "outputs": [
        {
          "internalType": "address[]",
          "name": "",
          "type": "address[]"
        }
      ],
      "stateMutability": "view",
      "type": "function",
      "constant": true
    },
    {
      "inputs": [
        {
          "internalType": "string",
          "name": "addressToSearchFor",
          "type": "string"
        }
      ],
      "name": "getForSaleContractsByAddress",
      "outputs": [
        {
          "internalType": "address[]",
          "name": "",
          "type": "address[]"
        }
      ],
      "stateMutability": "view",
      "type": "function",
      "constant": true
    },
    {
      "inputs": [
        {
          "internalType": "string",
          "name": "addressToSearchFor",
          "type": "string"
        },
        {
          "internalType": "uint256",
          "name": "offset",
          "type": "uint256"
        },
        {
          "internalType": "uint256",
          "name": "limit",
          "type": "uint256"
        }
      ],
      "name": "getForSaleContractsByAddressAndOffsetAndLimit",
      "outputs": [
        {
          "internalType": "address[]",
          "name": "",
          "type": "address[]"
        }
      ],
      "stateMutability": "view",
      "type": "function",
      "constant": true
    },
    {
      "inputs": [
        {
          "internalType": "address",
          "name": "account",
          "type": "address"
        }
      ],
      "name": "getAccountContractsCount",
      "outputs": [
        {
          "internalType": "uint256",
          "name": "",
          "type": "uint256"
        }
      ],
      "stateMutability": "view",
      "type": "function",
      "constant": true
    },
    {
      "inputs": [
        {
          "internalType": "address",
          "name": "account",
          "type": "address"
        }
      ],
      "name": "getAccountContracts",
      "outputs": [
        {
          "internalType": "address[]",
          "name": "",
          "type": "address[]"
        }
      ],
      "stateMutability": "view",
      "type": "function",
      "constant": true
    },
    {
      "inputs": [
        {
          "internalType": "string",
          "name": "stringToSearchIn",
          "type": "string"
        },
        {
          "internalType": "string",
          "name": "stringToSearchFor",
          "type": "string"
        }
      ],
      "name": "stringContains",
      "outputs": [
        {
          "internalType": "bool",
          "name": "",
          "type": "bool"
        }
      ],
      "stateMutability": "pure",
      "type": "function",
      "constant": true
    }
  ],
  "bytecode": "0x60806040523480156200001157600080fd5b506040516200541e3803806200541e833981016040819052620000349162000149565b60005b8151811015620000f55760008282815181106200005857620000586200021b565b6020908102919091018101518254600180820185556000948552928420018054600160a060020a031916600160a060020a03909216919091179055835190918291859085908110620000ae57620000ae6200021b565b602090810291909101810151600160a060020a03168252810191909152604001600020805460ff191691151591909117905580620000ec816200024a565b91505062000037565b50506200028b565b7f4e487b7100000000000000000000000000000000000000000000000000000000600052604160045260246000fd5b8051600160a060020a03811681146200014457600080fd5b919050565b600060208083850312156200015d57600080fd5b825167ffffffffffffffff808211156200017657600080fd5b818501915085601f8301126200018b57600080fd5b815181811115620001a057620001a0620000fd565b838102604051601f19603f83011681018181108582111715620001c757620001c7620000fd565b604052918252848201925083810185019188831115620001e657600080fd5b938501935b828510156200020f57620001ff856200012c565b84529385019392850192620001eb565b98975050505050505050565b7f4e487b7100000000000000000000000000000000000000000000000000000000600052603260045260246000fd5b60006001820162000284577f4e487b7100000000000000000000000000000000000000000000000000000000600052601160045260246000fd5b5060010190565b615183806200029b6000396000f3fe60806040523480156200001157600080fd5b506004361062000236576000357c0100000000000000000000000000000000000000000000000000000000900480638ffb2f7b1162000142578063ce29b8cc11620000cc578063ed63455c1162000097578063ed63455c14620004e4578063f33c4ff914620004fb578063f972b7ce1462000512578063fb163e69146200051c57600080fd5b8063ce29b8cc1462000477578063d4950d91146200049d578063d5db72eb14620004a7578063e964d4e114620004cd57600080fd5b8063ad44a5e4116200010d578063ad44a5e41462000435578063c2168c59146200043f578063c3a2a93a1462000456578063c70c17f3146200046057600080fd5b80638ffb2f7b14620003d95780639089aee314620003f057806395cc33391462000407578063a210bee2146200041e57600080fd5b806333c368ed11620001c45780635e0d99a1116200018f5780635e0d99a1146200038a5780635fcf3c7714620003a15780637211899514620003b857806373b928cb14620003cf57600080fd5b806333c368ed146200032e57806333cf5ef814620003455780633ab007ed146200035c5780635a44e3b7146200037357600080fd5b806312f83832116200020557806312f8383214620002bd5780632a58812e14620002d45780632f54bf6e14620002ed57806331deb991146200032457600080fd5b8063022edd35146200023b578063025e7c27146200025d5780630acae46e146200028d5780630e47dbd914620002a4575b600080fd5b6200024562000526565b60405162000254919062002270565b60405180910390f35b620002746200026e366004620022b3565b6200076e565b604051600160a060020a03909116815260200162000254565b620002456200029e366004620023a1565b62000799565b620002ae62000936565b60405190815260200162000254565b62000274620002ce366004620022b3565b62000ac9565b620002eb620002e53660046200241e565b62000ada565b005b62000313620002fe36600462002519565b60016020526000908152604090205460ff1681565b604051901515815260200162000254565b620002ae62000ba3565b620002456200033f366004620023a1565b62000c82565b620002eb6200035636600462002540565b62000e0a565b620002456200036d366004620025fe565b62000f52565b62000245620003843660046200263f565b620010f7565b620002456200039b366004620025fe565b6200128a565b620002ae620003b2366004620025fe565b62001392565b620002eb620003c936600462002540565b620015df565b6200024562001689565b620002ae620003ea366004620025fe565b6200181b565b620002ae6200040136600462002519565b6200191d565b620002eb6200041836600462002540565b62001a0f565b620002746200042f366004620022b3565b62001ab9565b6200024562001aca565b620002eb6200045036600462002519565b62001c5c565b6200024562001d0f565b620003136200047136600462002519565b62001d73565b620003136200048836600462002519565b60056020526000908152604090205460ff1681565b6200024562001daa565b62000313620004b836600462002519565b60036020526000908152604090205460ff1681565b62000245620004de36600462002519565b62001e0c565b62000313620004f536600462002662565b62001fbb565b620003136200050c36600462002519565b620020f3565b6200024562002121565b620002ae62002183565b606060006200053462000936565b67ffffffffffffffff8111156200054f576200054f620022cd565b60405190808252806020026020018201604052801562000579578160200160208202803683370190505b5090506000805b6004548110156200076657600160048281548110620005a357620005a3620026e6565b600091825260209182902001546040805160e560020a63042904f70281529051600160a060020a03909216926385209ee0926004808401938290030181865afa158015620005f5573d6000803e3d6000fd5b505050506040513d601f19601f820116820180604052508101906200061b9190620026ff565b60038111156200062f576200062f620026cd565b1480620006dd57506002600482815481106200064f576200064f620026e6565b600091825260209182902001546040805160e560020a63042904f70281529051600160a060020a03909216926385209ee0926004808401938290030181865afa158015620006a1573d6000803e3d6000fd5b505050506040513d601f19601f82011682018060405250810190620006c79190620026ff565b6003811115620006db57620006db620026cd565b145b15620007515760048181548110620006f957620006f9620026e6565b600091825260209091200154600160a060020a031683836200071b816200273b565b945081518110620007305762000730620026e6565b6020026020010190600160a060020a03169081600160a060020a0316815250505b806200075d816200273b565b91505062000580565b509092915050565b600081815481106200077f57600080fd5b600091825260209091200154600160a060020a0316905081565b60606000620007a8856200181b565b9050838111620007d85760405160e560020a62461bcd028152600401620007cf9062002757565b60405180910390fd5b6000620007e684866200278e565b82116200084557620007f98583620027a4565b67ffffffffffffffff811115620008145762000814620022cd565b6040519080825280602002602001820160405280156200083e578160200160208202803683370190505b506200088d565b8367ffffffffffffffff811115620008615762000861620022cd565b6040519080825280602002602001820160405280156200088b578160200160208202803683370190505b505b905060006200089c876200128a565b9050855b620008ac86886200278e565b8110156200092a5781518110156200092a57818181518110620008d357620008d3620026e6565b6020026020010151838883620008ea9190620027a4565b81518110620008fd57620008fd620026e6565b600160a060020a03909216602092830291909101909101528062000921816200273b565b915050620008a0565b50909695505050505050565b600080805b60045481101562000ac3576001600482815481106200095e576200095e620026e6565b600091825260209182902001546040805160e560020a63042904f70281529051600160a060020a03909216926385209ee0926004808401938290030181865afa158015620009b0573d6000803e3d6000fd5b505050506040513d601f19601f82011682018060405250810190620009d69190620026ff565b6003811115620009ea57620009ea620026cd565b148062000a98575060026004828154811062000a0a5762000a0a620026e6565b600091825260209182902001546040805160e560020a63042904f70281529051600160a060020a03909216926385209ee0926004808401938290030181865afa15801562000a5c573d6000803e3d6000fd5b505050506040513d601f19601f8201168201806040525081019062000a829190620026ff565b600381111562000a965762000a96620026cd565b145b1562000aae578162000aaa816200273b565b9250505b8062000aba816200273b565b9150506200093b565b50919050565b600281815481106200077f57600080fd5b6000308b8b8b8b8b8b8b8b8b8b60405162000af59062002262565b62000b0b9b9a999897969594939291906200280e565b604051809103906000f08015801562000b28573d6000803e3d6000fd5b5060048054600181019091557f8a35acfbc15ff81a39ae7d344fd709f28e8600b4aa8c65c6b64bfe7fe36bd19b018054600160a060020a0390921673ffffffffffffffffffffffffffffffffffffffff19909216821790556000908152600560205260409020805460ff191690555050505050505050505050565b600080805b60045481101562000ac35760026004828154811062000bcb5762000bcb620026e6565b600091825260209182902001546040805160e560020a63042904f70281529051600160a060020a03909216926385209ee0926004808401938290030181865afa15801562000c1d573d6000803e3d6000fd5b505050506040513d601f19601f8201168201806040525081019062000c439190620026ff565b600381111562000c575762000c57620026cd565b0362000c6d578162000c69816200273b565b9250505b8062000c79816200273b565b91505062000ba8565b6060600062000c918562001392565b905083811162000cb85760405160e560020a62461bcd028152600401620007cf9062002757565b600062000cc684866200278e565b821162000d255762000cd98583620027a4565b67ffffffffffffffff81111562000cf45762000cf4620022cd565b60405190808252806020026020018201604052801562000d1e578160200160208202803683370190505b5062000d6d565b8367ffffffffffffffff81111562000d415762000d41620022cd565b60405190808252806020026020018201604052801562000d6b578160200160208202803683370190505b505b9050600062000d7c8762000f52565b9050855b62000d8c86886200278e565b8110156200092a5781518110156200092a5781818151811062000db35762000db3620026e6565b602002602001015183888362000dca9190620027a4565b8151811062000ddd5762000ddd620026e6565b600160a060020a03909216602092830291909101909101528062000e01816200273b565b91505062000d80565b3360009081526001602081905260409091205460ff1615151462000e455760405160e560020a62461bcd028152600401620007cf90620028b1565b60005b815181101562000f4e5762000e7982828151811062000e6b5762000e6b620026e6565b602002602001015162001d73565b62000f3957600282828151811062000e955762000e95620026e6565b602090810291909101810151825460018082018555600094855292842001805473ffffffffffffffffffffffffffffffffffffffff1916600160a060020a039092169190911790558351909160039185908590811062000ef95762000ef9620026e6565b6020026020010151600160a060020a0316600160a060020a0316815260200190815260200160002060006101000a81548160ff0219169083151502179055505b8062000f45816200273b565b91505062000e48565b5050565b6060600062000f618362001392565b67ffffffffffffffff81111562000f7c5762000f7c620022cd565b60405190808252806020026020018201604052801562000fa6578160200160208202803683370190505b509050600062000fb562000526565b90506000805b8251811015620010ed576200107183828151811062000fde5762000fde620026e6565b6020026020010151600160a060020a031663790d15de6040518163ffffffff167c0100000000000000000000000000000000000000000000000000000000028152600401600060405180830381865afa15801562001040573d6000803e3d6000fd5b505050506040513d6000823e601f3d908101601f191682016040526200106a91908101906200290e565b8762001fbb565b15620010d8578281815181106200108c576200108c620026e6565b6020026020010151848380620010a2906200273b565b945081518110620010b757620010b7620026e6565b6020026020010190600160a060020a03169081600160a060020a0316815250505b80620010e4816200273b565b91505062000fbb565b5091949350505050565b606060006200110562002183565b90508381116200112c5760405160e560020a62461bcd028152600401620007cf9062002757565b60006200113a84866200278e565b821162001199576200114d8583620027a4565b67ffffffffffffffff811115620011685762001168620022cd565b60405190808252806020026020018201604052801562001192578160200160208202803683370190505b50620011e1565b8367ffffffffffffffff811115620011b557620011b5620022cd565b604051908082528060200260200182016040528015620011df578160200160208202803683370190505b505b90506000620011ef62001aca565b9050855b620011ff86886200278e565b8110156200127d5781518110156200127d57818181518110620012265762001226620026e6565b60200260200101518388836200123d9190620027a4565b81518110620012505762001250620026e6565b600160a060020a03909216602092830291909101909101528062001274816200273b565b915050620011f3565b5090925050505b92915050565b60606000620012998362001392565b67ffffffffffffffff811115620012b457620012b4620022cd565b604051908082528060200260200182016040528015620012de578160200160208202803683370190505b5090506000620012ed62000526565b90506000805b8251811015620010ed576200131683828151811062000fde5762000fde620026e6565b156200137d57828181518110620013315762001331620026e6565b602002602001015184838062001347906200273b565b9450815181106200135c576200135c620026e6565b6020026020010190600160a060020a03169081600160a060020a0316815250505b8062001389816200273b565b915050620012f3565b600080805b600454811015620015d857600160048281548110620013ba57620013ba620026e6565b600091825260209182902001546040805160e560020a63042904f70281529051600160a060020a03909216926385209ee0926004808401938290030181865afa1580156200140c573d6000803e3d6000fd5b505050506040513d601f19601f82011682018060405250810190620014329190620026ff565b6003811115620014465762001446620026cd565b1480620014f45750600260048281548110620014665762001466620026e6565b600091825260209182902001546040805160e560020a63042904f70281529051600160a060020a03909216926385209ee0926004808401938290030181865afa158015620014b8573d6000803e3d6000fd5b505050506040513d601f19601f82011682018060405250810190620014de9190620026ff565b6003811115620014f257620014f2620026cd565b145b8015620015ad5750620015ad60048281548110620015165762001516620026e6565b6000918252602082200154604080517f790d15de0000000000000000000000000000000000000000000000000000000081529051600160a060020a039092169263790d15de926004808401938290030181865afa1580156200157c573d6000803e3d6000fd5b505050506040513d6000823e601f3d908101601f19168201604052620015a691908101906200290e565b8562001fbb565b15620015c35781620015bf816200273b565b9250505b80620015cf816200273b565b91505062001397565b5092915050565b3360009081526001602081905260409091205460ff161515146200161a5760405160e560020a62461bcd028152600401620007cf90620028b1565b60005b815181101562000f4e57600160036000848481518110620016425762001642620026e6565b602090810291909101810151600160a060020a03168252810191909152604001600020805460ff19169115159190911790558062001680816200273b565b9150506200161d565b606060006200169762000ba3565b67ffffffffffffffff811115620016b257620016b2620022cd565b604051908082528060200260200182016040528015620016dc578160200160208202803683370190505b5090506000805b6004548110156200076657600260048281548110620017065762001706620026e6565b600091825260209182902001546040805160e560020a63042904f70281529051600160a060020a03909216926385209ee0926004808401938290030181865afa15801562001758573d6000803e3d6000fd5b505050506040513d601f19601f820116820180604052508101906200177e9190620026ff565b6003811115620017925762001792620026cd565b03620018065760048181548110620017ae57620017ae620026e6565b600091825260209091200154600160a060020a03168383620017d0816200273b565b945081518110620017e557620017e5620026e6565b6020026020010190600160a060020a03169081600160a060020a0316815250505b8062001812816200273b565b915050620016e3565b600080805b600454811015620015d857600260048281548110620018435762001843620026e6565b600091825260209182902001546040805160e560020a63042904f70281529051600160a060020a03909216926385209ee0926004808401938290030181865afa15801562001895573d6000803e3d6000fd5b505050506040513d601f19601f82011682018060405250810190620018bb9190620026ff565b6003811115620018cf57620018cf620026cd565b148015620018f25750620018f260048281548110620015165762001516620026e6565b1562001908578162001904816200273b565b9250505b8062001914816200273b565b91505062001820565b600080805b600454811015620015d85783600160a060020a0316600482815481106200194d576200194d620026e6565b60009182526020918290200154604080517f8da5cb5b0000000000000000000000000000000000000000000000000000000081529051600160a060020a0390921692638da5cb5b926004808401938290030181865afa158015620019b5573d6000803e3d6000fd5b505050506040513d601f19601f82011682018060405250810190620019db91906200298e565b600160a060020a031603620019fa5781620019f6816200273b565b9250505b8062001a06816200273b565b91505062001922565b3360009081526001602081905260409091205460ff1615151462001a4a5760405160e560020a62461bcd028152600401620007cf90620028b1565b60005b815181101562000f4e5760006003600084848151811062001a725762001a72620026e6565b602090810291909101810151600160a060020a03168252810191909152604001600020805460ff19169115159190911790558062001ab0816200273b565b91505062001a4d565b600481815481106200077f57600080fd5b6060600062001ad862002183565b67ffffffffffffffff81111562001af35762001af3620022cd565b60405190808252806020026020018201604052801562001b1d578160200160208202803683370190505b5090506000805b600454811015620007665760006004828154811062001b475762001b47620026e6565b600091825260209182902001546040805160e560020a63042904f70281529051600160a060020a03909216926385209ee0926004808401938290030181865afa15801562001b99573d6000803e3d6000fd5b505050506040513d601f19601f8201168201806040525081019062001bbf9190620026ff565b600381111562001bd35762001bd3620026cd565b0362001c47576004818154811062001bef5762001bef620026e6565b600091825260209091200154600160a060020a0316838362001c11816200273b565b94508151811062001c265762001c26620026e6565b6020026020010190600160a060020a03169081600160a060020a0316815250505b8062001c53816200273b565b91505062001b24565b3360009081526003602052604090205460ff16151560011462001ceb5760405160e560020a62461bcd02815260206004820152603c60248201527f4f6e6c79206f6e65206f6620746865207265676973747261727320686173206160448201527f636365737320746f20746869732066756e6374696f6e616c6974792e000000006064820152608401620007cf565b600160a060020a03166000908152600560205260409020805460ff19166001179055565b6060600480548060200260200160405190810160405280929190818152602001828054801562001d6957602002820191906000526020600020905b8154600160a060020a0316815260019091019060200180831162001d4a575b5050505050905090565b600160a060020a038116600090815260016020819052604082205460ff161515900362001da257506001919050565b506000919050565b6060600080548060200260200160405190810160405280929190818152602001828054801562001d6957602002820191906000526020600020908154600160a060020a0316815260019091019060200180831162001d4a575050505050905090565b6060600062001e1b836200191d565b67ffffffffffffffff81111562001e365762001e36620022cd565b60405190808252806020026020018201604052801562001e60578160200160208202803683370190505b5090506000805b60045481101562001fb25784600160a060020a03166004828154811062001e925762001e92620026e6565b60009182526020918290200154604080517f8da5cb5b0000000000000000000000000000000000000000000000000000000081529051600160a060020a0390921692638da5cb5b926004808401938290030181865afa15801562001efa573d6000803e3d6000fd5b505050506040513d601f19601f8201168201806040525081019062001f2091906200298e565b600160a060020a03160362001f9d576004818154811062001f455762001f45620026e6565b600091825260209091200154600160a060020a0316838362001f67816200273b565b94508151811062001f7c5762001f7c620026e6565b6020026020010190600160a060020a03169081600160a060020a0316815250505b8062001fa9816200273b565b91505062001e67565b50909392505050565b8051825160009183918591111562001fd257600080fd5b6000805b8351835162001fe69190620027a4565b8111620020e957600160005b8551811015620020c057858181518110620020115762002011620026e6565b602001015160f860020a900460f860020a027effffffffffffffffffffffffffffffffffffffffffffffffffffffffffffff19168582856200205491906200278e565b81518110620020675762002067620026e6565b602001015160f860020a900460f860020a027effffffffffffffffffffffffffffffffffffffffffffffffffffffffffffff191614620020ab5760009150620020c0565b80620020b7816200273b565b91505062001ff2565b508015620020d3576001925050620020e9565b5080620020e0816200273b565b91505062001fd6565b5095945050505050565b600160a060020a03811660009081526003602052604081205460ff16151560010362001da257506001919050565b6060600280548060200260200160405190810160405280929190818152602001828054801562001d6957602002820191906000526020600020908154600160a060020a0316815260019091019060200180831162001d4a575050505050905090565b600080805b60045481101562000ac357600060048281548110620021ab57620021ab620026e6565b600091825260209182902001546040805160e560020a63042904f70281529051600160a060020a03909216926385209ee0926004808401938290030181865afa158015620021fd573d6000803e3d6000fd5b505050506040513d601f19601f82011682018060405250810190620022239190620026ff565b6003811115620022375762002237620026cd565b036200224d578162002249816200273b565b9250505b8062002259816200273b565b91505062002188565b61279f80620029af83390190565b6020808252825182820181905260009190848201906040850190845b818110156200092a578351600160a060020a0316835292840192918401916001016200228c565b600060208284031215620022c657600080fd5b5035919050565b60e060020a634e487b7102600052604160045260246000fd5b604051601f8201601f1916810167ffffffffffffffff81118282101715620023125762002312620022cd565b604052919050565b600067ffffffffffffffff821115620023375762002337620022cd565b50601f01601f191660200190565b600082601f8301126200235757600080fd5b81356200236e62002368826200231a565b620022e6565b8181528460208386010111156200238457600080fd5b816020850160208301376000918101602001919091529392505050565b600080600060608486031215620023b757600080fd5b833567ffffffffffffffff811115620023cf57600080fd5b620023dd8682870162002345565b9660208601359650604090950135949350505050565b600160a060020a03811681146200240957600080fd5b50565b80356200241981620023f3565b919050565b6000806000806000806000806000806101408b8d0312156200243f57600080fd5b6200244a8b6200240c565b995060208b013567ffffffffffffffff808211156200246857600080fd5b620024768e838f0162002345565b9a5060408d01359150808211156200248d57600080fd5b6200249b8e838f0162002345565b995060608d0135915080821115620024b257600080fd5b620024c08e838f0162002345565b985060808d0135915080821115620024d757600080fd5b50620024e68d828e0162002345565b9a9d999c50979a96999860a0880135985060c08801359760e0810135975061010081013596506101200135945092505050565b6000602082840312156200252c57600080fd5b81356200253981620023f3565b9392505050565b600060208083850312156200255457600080fd5b823567ffffffffffffffff808211156200256d57600080fd5b818501915085601f8301126200258257600080fd5b813581811115620025975762002597620022cd565b8381029150620025a9848301620022e6565b8181529183018401918481019088841115620025c457600080fd5b938501935b83851015620025f25784359250620025e183620023f3565b8282529385019390850190620025c9565b98975050505050505050565b6000602082840312156200261157600080fd5b813567ffffffffffffffff8111156200262957600080fd5b620026378482850162002345565b949350505050565b600080604083850312156200265357600080fd5b50508035926020909101359150565b600080604083850312156200267657600080fd5b823567ffffffffffffffff808211156200268f57600080fd5b6200269d8683870162002345565b93506020850135915080821115620026b457600080fd5b50620026c38582860162002345565b9150509250929050565b60e060020a634e487b7102600052602160045260246000fd5b60e060020a634e487b7102600052603260045260246000fd5b6000602082840312156200271257600080fd5b8151600481106200253957600080fd5b60e060020a634e487b7102600052601160045260246000fd5b60006001820162002750576200275062002722565b5060010190565b6020808252601f908201527f4f66667365742067726561746572207468616e206c697374206c656e67746800604082015260600190565b8082018082111562001284576200128462002722565b8181038181111562001284576200128462002722565b60005b83811015620027d7578181015183820152602001620027bd565b50506000910152565b60008151808452620027fa816020860160208601620027ba565b601f01601f19169290920160200192915050565b6000610160600160a060020a03808f168452808e166020850152508060408401526200283d8184018d620027e0565b9050828103606084015262002853818c620027e0565b9050828103608084015262002869818b620027e0565b905082810360a08401526200287f818a620027e0565b60c0840198909852505060e0810194909452610100840192909252610120830152610140909101529695505050505050565b60208082526038908201527f4f6e6c79206f6e65206f6620746865206f776e6572732068617320616363657360408201527f7320746f20746869732066756e6374696f6e616c6974792e0000000000000000606082015260800190565b6000602082840312156200292157600080fd5b815167ffffffffffffffff8111156200293957600080fd5b8201601f810184136200294b57600080fd5b80516200295c62002368826200231a565b8181528560208385010111156200297257600080fd5b62002985826020830160208601620027ba565b95945050505050565b600060208284031215620029a157600080fd5b81516200253981620023f356fe60806040523480156200001157600080fd5b506040516200279f3803806200279f833981016040819052620000349162000322565b60048054600160a060020a038d8116600160a060020a03199283161790925560058054928d16929091169190911790556000805460ff1916905560076200007c8a82620004ec565b5060086200008b8982620004ec565b5060096200009a8882620004ec565b50600a620000a98782620004ec565b50600b859055600c848155600184905560028390556003829055604080518082019091529081527f4e6f742050726f766964656400000000000000000000000000000000000000006020820152600d90620001059082620004ec565b5060408051808201909152600c81527f4e6f742050726f766964656400000000000000000000000000000000000000006020820152600e90620001499082620004ec565b5060408051808201909152600c81527f4e6f742050726f766964656400000000000000000000000000000000000000006020820152600f906200018d9082620004ec565b5060408051808201909152600c81527f4e6f742050726f766964656400000000000000000000000000000000000000006020820152601090620001d19082620004ec565b5060408051808201909152600c81527f4e6f742050726f766964656400000000000000000000000000000000000000006020820152601190620002159082620004ec565b505050505050505050505050620005be565b8051600160a060020a03811681146200023f57600080fd5b919050565b7f4e487b7100000000000000000000000000000000000000000000000000000000600052604160045260246000fd5b600082601f8301126200028557600080fd5b81516001604060020a0380821115620002a257620002a262000244565b604051601f8301601f19908116603f01168101908282118183101715620002cd57620002cd62000244565b81604052838152602092508683858801011115620002ea57600080fd5b600091505b838210156200030e5785820183015181830184015290820190620002ef565b600093810190920192909252949350505050565b60008060008060008060008060008060006101608c8e0312156200034557600080fd5b620003508c62000227565b9a506200036060208d0162000227565b995060408c01516001604060020a038111156200037c57600080fd5b6200038a8e828f0162000273565b99505060608c01516001604060020a03811115620003a757600080fd5b620003b58e828f0162000273565b98505060808c01516001604060020a03811115620003d257600080fd5b620003e08e828f0162000273565b97505060a08c01516001604060020a03811115620003fd57600080fd5b6200040b8e828f0162000273565b96505060c08c0151945060e08c015193506101008c015192506101208c015191506101408c015190509295989b509295989b9093969950565b6002810460018216806200045957607f821691505b60208210810362000493577f4e487b7100000000000000000000000000000000000000000000000000000000600052602260045260246000fd5b50919050565b601f821115620004e7576000818152602081206020601f86010481016020861015620004c25750805b6020601f860104820191505b81811015620004e357828155600101620004ce565b5050505b505050565b81516001604060020a0381111562000508576200050862000244565b620005208162000519845462000444565b8462000499565b602080601f8311600181146200055c57600084156200053f5750858301515b60028086026008870290910a6000190419821617865550620004e3565b600085815260208120601f198616915b828110156200058d578886015182559484019460019091019084016200056c565b5085821015620005ae57878501516008601f88160260020a60001904191681555b5050505050600202600101905550565b6121d180620005ce6000396000f3fe60806040526004361061014a576000357c01000000000000000000000000000000000000000000000000000000009004806385209ee0116100c857806397035a071161008c57806397035a07146105eb5780639dfc91171461060b578063b3cbb32c1461063f578063b6366d921461065f578063daca4eef1461067f578063f5cfb032146106a557600080fd5b806385209ee01461054f57806385329517146105765780638d97bee8146105965780638da5cb5b146105b6578063953fe3cc146105d657600080fd5b80635293c8381161010f5780635293c8381461049a578063536f5c36146104ca57806372b50109146104ed57806374bdde491461050d578063790d15de1461052d57600080fd5b80627dc372146103b557806302d05d3f146103e657806312821b5e1461041e5780633d7a44921461045857806341fa17661461047a57600080fd5b366103b05760006006805460ff169081111561016857610168611626565b148061018a575060036006805460ff169081111561018857610188611626565b145b6102045760405160e560020a62461bcd02815260206004820152603760248201527f546869732070726f706572747927732074656e757265207479706520646f657360448201527f206e6f7420737570706f7274206265696e6720736f6c6400000000000000000060648201526084015b60405180910390fd5b600260005460ff16600381111561021d5761021d611626565b1461026d5760405160e560020a62461bcd02815260206004820152601e60248201527f546869732070726f7065727479206973206e6f7420666f722073616c652e000060448201526064016101fb565b600360005460ff16600381111561028657610286611626565b036102a65760405160e560020a62461bcd0281526004016101fb9061163f565b6003546000906102b79060126116b5565b6102c290600a6117af565b6002546102cf91906117c2565b6001546102e490670de0b6b3a76400006117c2565b6102ee91906117e1565b905033318111156103445760405160e560020a62461bcd02815260206004820152601260248201527f496e73756666696369656e742066756e6473000000000000000000000000000060448201526064016101fb565b600554604051600160a060020a03909116903480156108fc02916000818181858888f1935050505015801561037d573d6000803e3d6000fd5b506000805460ff19166001179055600580543373ffffffffffffffffffffffffffffffffffffffff199091168117909155005b600080fd5b3480156103c157600080fd5b506103ca6106c5565b6040516103dd9796959493929190611844565b60405180910390f35b3480156103f257600080fd5b5060045461040690600160a060020a031681565b604051600160a060020a0390911681526020016103dd565b34801561042a57600080fd5b5060015460025460035461043d92919083565b604080519384526020840192909252908201526060016103dd565b34801561046457600080fd5b50610478610473366004611978565b610916565b005b34801561048657600080fd5b506104786104953660046119f0565b6109c1565b3480156104a657600080fd5b506104ba6104b5366004611a37565b610a93565b60405190151581526020016103dd565b3480156104d657600080fd5b506104df610af0565b6040519081526020016103dd565b3480156104f957600080fd5b50610478610508366004611b2c565b610b3a565b34801561051957600080fd5b50610478610528366004611b6d565b610c9a565b34801561053957600080fd5b50610542610e17565b6040516103dd9190611c4e565b34801561055b57600080fd5b506000546105699060ff1681565b6040516103dd9190611c75565b34801561058257600080fd5b50610478610591366004611c83565b610e49565b3480156105a257600080fd5b506104786105b1366004611caf565b610ee4565b3480156105c257600080fd5b5060055461040690600160a060020a031681565b3480156105e257600080fd5b506104ba610f9a565b3480156105f757600080fd5b50610478610606366004611cd9565b6110e1565b34801561061757600080fd5b506004546005546000546040516103dd93600160a060020a0390811693169160ff1690611cf4565b34801561064b57600080fd5b506104ba61065a366004611978565b6111a7565b34801561066b57600080fd5b5061047861067a366004611d21565b611210565b34801561068b57600080fd5b506106946112b4565b6040516103dd959493929190611d3a565b3480156106b157600080fd5b506104786106c0366004611da7565b61157e565b600680546007805460ff90921692916106dd90611dc2565b80601f016020809104026020016040519081016040528092919081815260200182805461070990611dc2565b80156107565780601f1061072b57610100808354040283529160200191610756565b820191906000526020600020905b81548152906001019060200180831161073957829003601f168201915b50505050509080600201805461076b90611dc2565b80601f016020809104026020016040519081016040528092919081815260200182805461079790611dc2565b80156107e45780601f106107b9576101008083540402835291602001916107e4565b820191906000526020600020905b8154815290600101906020018083116107c757829003601f168201915b5050505050908060030180546107f990611dc2565b80601f016020809104026020016040519081016040528092919081815260200182805461082590611dc2565b80156108725780601f1061084757610100808354040283529160200191610872565b820191906000526020600020905b81548152906001019060200180831161085557829003601f168201915b50505050509080600401805461088790611dc2565b80601f01602080910402602001604051908101604052809291908181526020018280546108b390611dc2565b80156109005780601f106108d557610100808354040283529160200191610900565b820191906000526020600020905b8154815290600101906020018083116108e357829003601f168201915b5050505050908060050154908060060154905087565b61091e610f9a565b61093d5760405160e560020a62461bcd0281526004016101fb90611dff565b600554600160a060020a0316331461096a5760405160e560020a62461bcd0281526004016101fb90611e5c565b600360005460ff16600381111561098357610983611626565b036109a35760405160e560020a62461bcd0281526004016101fb9061163f565b60096109af8382611f07565b50600a6109bc8282611f07565b505050565b6109c9610f9a565b6109e85760405160e560020a62461bcd0281526004016101fb90611dff565b600554600160a060020a03163314610a155760405160e560020a62461bcd0281526004016101fb90611e5c565b600360005460ff166003811115610a2e57610a2e611626565b03610a4e5760405160e560020a62461bcd0281526004016101fb9061163f565b60018581556002859055600384905560068054849260ff19909116908383811115610a7b57610a7b611626565b0217905550600c5550506000805460ff191690555050565b6000805b8251811015610ae457610ac384848381518110610ab657610ab6611fcd565b60200260200101516111a7565b15610ad2576001915050610aea565b80610adc81611fe6565b915050610a97565b50600090505b92915050565b6003546000908190610b039060126116b5565b610b0e90600a6117af565b600254610b1b91906117c2565b600154610b3090670de0b6b3a76400006117c2565b610aea91906117e1565b600480546040517ff33c4ff90000000000000000000000000000000000000000000000000000000081523392810192909252600160a060020a03169063f33c4ff990602401602060405180830381865afa158015610b9c573d6000803e3d6000fd5b505050506040513d601f19601f82011682018060405250810190610bc09190611fff565b1515600114610be45760405160e560020a62461bcd0281526004016101fb90612021565b600554600160a060020a03163303610c115760405160e560020a62461bcd0281526004016101fb9061207e565b600360005460ff166003811115610c2a57610c2a611626565b03610c4a5760405160e560020a62461bcd0281526004016101fb9061163f565b6005805473ffffffffffffffffffffffffffffffffffffffff1916600160a060020a0384161790556000805482919060ff19166001836003811115610c9157610c91611626565b02179055505050565b600480546040517ff33c4ff90000000000000000000000000000000000000000000000000000000081523392810192909252600160a060020a03169063f33c4ff990602401602060405180830381865afa158015610cfc573d6000803e3d6000fd5b505050506040513d601f19601f82011682018060405250810190610d209190611fff565b1515600114610d445760405160e560020a62461bcd0281526004016101fb90612021565b600554600160a060020a03163303610d715760405160e560020a62461bcd0281526004016101fb9061207e565b600360005460ff166003811115610d8a57610d8a611626565b03610daa5760405160e560020a62461bcd0281526004016101fb9061163f565b600d610db68782611f07565b50600e610dc38682611f07565b50600f610dd08582611f07565b506010610ddd8482611f07565b506011610dea8382611f07565b506000805482919060ff19166001836003811115610e0a57610e0a611626565b0217905550505050505050565b604051606090610e3590600790600890600990600a9060200161214e565b604051602081830303815290604052905090565b610e51610f9a565b610e705760405160e560020a62461bcd0281526004016101fb90611dff565b600554600160a060020a03163314610e9d5760405160e560020a62461bcd0281526004016101fb90611e5c565b600360005460ff166003811115610eb657610eb6611626565b03610ed65760405160e560020a62461bcd0281526004016101fb9061163f565b600192909255600255600355565b600554600160a060020a03163314610f115760405160e560020a62461bcd0281526004016101fb90611e5c565b610f19610f9a565b610f385760405160e560020a62461bcd0281526004016101fb90611dff565b600360005460ff166003811115610f5157610f51611626565b03610f715760405160e560020a62461bcd0281526004016101fb9061163f565b6006805483919060ff191660018383811115610f8f57610f8f611626565b0217905550600c5550565b6000611068600d6000018054610faf90611dc2565b80601f0160208091040260200160405190810160405280929190818152602001828054610fdb90611dc2565b80156110285780601f10610ffd57610100808354040283529160200191611028565b820191906000526020600020905b81548152906001019060200180831161100b57829003601f168201915b50505050506040518060400160405280600881526020017f50726f76696465640000000000000000000000000000000000000000000000008152506111a7565b80156110825750611082600d6001018054610faf90611dc2565b801561109c575061109c600d6002018054610faf90611dc2565b80156110b657506110b6600d6003018054610faf90611dc2565b80156110d057506110d0600d6004018054610faf90611dc2565b156110db5750600190565b50600090565b6110e9610f9a565b6111085760405160e560020a62461bcd0281526004016101fb90611dff565b600554600160a060020a031633146111355760405160e560020a62461bcd0281526004016101fb90611e5c565b600360005460ff16600381111561114e5761114e611626565b0361116e5760405160e560020a62461bcd0281526004016101fb9061163f565b6006805482919060ff19166001838381111561118c5761118c611626565b021790555060008054819060ff19166001825b021790555050565b600081518351146111ba57506000610aea565b816040516020016111cb919061217f565b60405160208183030381529060405280519060200120836040516020016111f2919061217f565b60405160208183030381529060405280519060200120149050610aea565b611218610f9a565b6112375760405160e560020a62461bcd0281526004016101fb90611dff565b600554600160a060020a031633146112645760405160e560020a62461bcd0281526004016101fb90611e5c565b600360005460ff16600381111561127d5761127d611626565b0361129d5760405160e560020a62461bcd0281526004016101fb9061163f565b600c81905560008054819060ff191660018261119f565b600d805481906112c390611dc2565b80601f01602080910402602001604051908101604052809291908181526020018280546112ef90611dc2565b801561133c5780601f106113115761010080835404028352916020019161133c565b820191906000526020600020905b81548152906001019060200180831161131f57829003601f168201915b50505050509080600101805461135190611dc2565b80601f016020809104026020016040519081016040528092919081815260200182805461137d90611dc2565b80156113ca5780601f1061139f576101008083540402835291602001916113ca565b820191906000526020600020905b8154815290600101906020018083116113ad57829003601f168201915b5050505050908060020180546113df90611dc2565b80601f016020809104026020016040519081016040528092919081815260200182805461140b90611dc2565b80156114585780601f1061142d57610100808354040283529160200191611458565b820191906000526020600020905b81548152906001019060200180831161143b57829003601f168201915b50505050509080600301805461146d90611dc2565b80601f016020809104026020016040519081016040528092919081815260200182805461149990611dc2565b80156114e65780601f106114bb576101008083540402835291602001916114e6565b820191906000526020600020905b8154815290600101906020018083116114c957829003601f168201915b5050505050908060040180546114fb90611dc2565b80601f016020809104026020016040519081016040528092919081815260200182805461152790611dc2565b80156115745780601f1061154957610100808354040283529160200191611574565b820191906000526020600020905b81548152906001019060200180831161155757829003601f168201915b5050505050905085565b611586610f9a565b6115a55760405160e560020a62461bcd0281526004016101fb90611dff565b600554600160a060020a031633146115d25760405160e560020a62461bcd0281526004016101fb90611e5c565b600360005460ff1660038111156115eb576115eb611626565b0361160b5760405160e560020a62461bcd0281526004016101fb9061163f565b6000805482919060ff1916600183600381111561119f5761119f5b60e060020a634e487b7102600052602160045260246000fd5b60208082526032908201527f546869732050726f7065727479205469746c6520436f6e74726163742069732060408201527f6e6f206c6f6e6765722072656c6176616e740000000000000000000000000000606082015260800190565b60e060020a634e487b7102600052601160045260246000fd5b81810381811115610aea57610aea61169c565b600181815b808511156117055781600019048211156116e9576116e961169c565b808516156116f657918102915b600290940493908002906116cd565b509250929050565b60008261171c57506001610aea565b8161172957506000610aea565b816001811461173f576002811461174957611766565b6001915050610aea565b60ff84111561175a5761175a61169c565b8360020a915050610aea565b5060208310610133831016604e8410600b8410161715611789575081810a610aea565b61179383836116c8565b80600019048211156117a7576117a761169c565b029392505050565b60006117bb838361170d565b9392505050565b60008160001904831182151516156117dc576117dc61169c565b500290565b80820180821115610aea57610aea61169c565b60005b8381101561180f5781810151838201526020016117f7565b50506000910152565b600081518084526118308160208601602086016117f4565b601f01601f19169290920160200192915050565b60006007891061185657611856611626565b88825260e0602083015261186d60e0830189611818565b828103604084015261187f8189611818565b905082810360608401526118938188611818565b905082810360808401526118a78187611818565b60a0840195909552505060c0015295945050505050565b60e060020a634e487b7102600052604160045260246000fd5b604051601f8201601f1916810167ffffffffffffffff81118282101715611900576119006118be565b604052919050565b600082601f83011261191957600080fd5b813567ffffffffffffffff811115611933576119336118be565b611946601f8201601f19166020016118d7565b81815284602083860101111561195b57600080fd5b816020850160208301376000918101602001919091529392505050565b6000806040838503121561198b57600080fd5b823567ffffffffffffffff808211156119a357600080fd5b6119af86838701611908565b935060208501359150808211156119c557600080fd5b506119d285828601611908565b9150509250929050565b8035600781106119eb57600080fd5b919050565b600080600080600060a08688031215611a0857600080fd5b853594506020860135935060408601359250611a26606087016119dc565b949793965091946080013592915050565b60008060408385031215611a4a57600080fd5b823567ffffffffffffffff80821115611a6257600080fd5b611a6e86838701611908565b9350602091508185013581811115611a8557600080fd5b8501601f81018713611a9657600080fd5b803582811115611aa857611aa86118be565b838102611ab68582016118d7565b918252828101850191858101908a841115611ad057600080fd5b86850192505b83831015611b0c57823586811115611aee5760008081fd5b611afc8c8983890101611908565b8352509186019190860190611ad6565b809750505050505050509250929050565b8035600481106119eb57600080fd5b60008060408385031215611b3f57600080fd5b8235600160a060020a0381168114611b5657600080fd5b9150611b6460208401611b1d565b90509250929050565b60008060008060008060c08789031215611b8657600080fd5b863567ffffffffffffffff80821115611b9e57600080fd5b611baa8a838b01611908565b97506020890135915080821115611bc057600080fd5b611bcc8a838b01611908565b96506040890135915080821115611be257600080fd5b611bee8a838b01611908565b95506060890135915080821115611c0457600080fd5b611c108a838b01611908565b94506080890135915080821115611c2657600080fd5b50611c3389828a01611908565b925050611c4260a08801611b1d565b90509295509295509295565b6020815260006117bb6020830184611818565b60048110611c7157611c71611626565b9052565b60208101610aea8284611c61565b600080600060608486031215611c9857600080fd5b505081359360208301359350604090920135919050565b60008060408385031215611cc257600080fd5b611ccb836119dc565b946020939093013593505050565b600060208284031215611ceb57600080fd5b6117bb826119dc565b600160a060020a0384811682528316602082015260608101611d196040830184611c61565b949350505050565b600060208284031215611d3357600080fd5b5035919050565b60a081526000611d4d60a0830188611818565b8281036020840152611d5f8188611818565b90508281036040840152611d738187611818565b90508281036060840152611d878186611818565b90508281036080840152611d9b8185611818565b98975050505050505050565b600060208284031215611db957600080fd5b6117bb82611b1d565b600281046001821680611dd657607f821691505b602082108103611df95760e060020a634e487b7102600052602260045260246000fd5b50919050565b60208082526024908201527f5468652070726f7065727479206973206e6f74206c6567616c6c7920616c726960408201527f6768742e00000000000000000000000000000000000000000000000000000000606082015260800190565b60208082526032908201527f4f6e6c7920746865206f776e6572206f662074686520436f6e7472616374206860408201527f61732061636365737320746f2074686973210000000000000000000000000000606082015260800190565b601f8211156109bc576000818152602081206020601f86010481016020861015611ee05750805b6020601f860104820191505b81811015611eff57828155600101611eec565b505050505050565b815167ffffffffffffffff811115611f2157611f216118be565b611f3581611f2f8454611dc2565b84611eb9565b602080601f831160018114611f6e5760008415611f525750858301515b60028086026008870290910a6000190419821617865550611eff565b600085815260208120601f198616915b82811015611f9d57888601518255948401946001909101908401611f7e565b5085821015611fbd57878501516008601f88160260020a60001904191681555b5050505050600202600101905550565b60e060020a634e487b7102600052603260045260246000fd5b600060018201611ff857611ff861169c565b5060010190565b60006020828403121561201157600080fd5b815180151581146117bb57600080fd5b60208082526036908201527f4f6e6c792061207265676973746572656420726567697374726172206861732060408201527f61636365737320746f207468697320616374696f6e2e00000000000000000000606082015260800190565b60208082526026908201527f596f752063616e206e6f742076616c696461746520796f7572206f776e20707260408201527f6f70657274790000000000000000000000000000000000000000000000000000606082015260800190565b600081546120e881611dc2565b60018281168015612100576001811461211557612144565b60ff1984168752821515830287019450612144565b8560005260208060002060005b8581101561213b5781548a820152908401908201612122565b50505082870194505b5050505092915050565b600061217561216f612169612163858a6120db565b886120db565b866120db565b846120db565b9695505050505050565b600082516121918184602087016117f4565b919091019291505056fea264697066735822122030d717c221a5776b38913bdeb62f3b328399de6dabf947eb1b39f9a04e371deb64736f6c63430008100033a2646970667358221220488172476ace1eab434778e58fc0c97dead94d679699e49e3be564fbb126ee9364736f6c63430008100033",
  "immutableReferences": {},
  "source": "//SPDX-License-Identifier: MIT\r\npragma solidity ^0.8.16;\r\n\r\nimport \"./PropertyTitle.sol\";\r\n\r\ninterface IAccessPropertyTitleMethods {\r\n    function contractState() external view returns (PropertyTitleContractState);\r\n    function getFullPropertyAddress() external view returns (string memory);\r\n    function owner() external view returns (address);\r\n}\r\n\r\ncontract TitleCreatingContract {\r\n    address[] public owners;\r\n    mapping (address => bool) public isOwner;\r\n\r\n    address[] public registrars;\r\n    mapping (address => bool) public isRegistrar;\r\n\r\n    address[] public titleContracts;\r\n    mapping (address => bool) public propertyTitleContractsValidity;\r\n\r\n    constructor(address[] memory _owners)\r\n    {\r\n        for (uint256 i = 0; i < _owners.length; i++) {\r\n            owners.push(_owners[i]);\r\n            isOwner[_owners[i]] = true;\r\n        }\r\n    }\r\n\r\n    function addRegistrars(address[] memory _registrars) public onlyOwner {\r\n        for (uint256 i = 0; i < _registrars.length; i++) {\r\n            if (!checkIfUserIsOwner(_registrars[i])) {\r\n                registrars.push(_registrars[i]);\r\n                isRegistrar[_registrars[i]] = true;\r\n            }\r\n        }\r\n    }\r\n\r\n    function removeRegistrarRole(address[] memory _registrars) public onlyOwner {\r\n        for (uint256 i = 0; i < _registrars.length; i++) {\r\n            isRegistrar[_registrars[i]] = false;\r\n        }\r\n    }\r\n\r\n    function reactivateRegistrarRole(address[] memory _registrars) public onlyOwner {\r\n        for (uint256 i = 0; i < _registrars.length; i++) {\r\n            isRegistrar[_registrars[i]] = true;\r\n        }\r\n    }\r\n\r\n    function deployNewPropertyTitle(\r\n        address _owner,\r\n        string memory _country,\r\n        string memory _city,\r\n        string memory _street,\r\n        string memory _streeNumber,\r\n        uint256 _apartmentNumber,\r\n        uint256 _squareMeters,\r\n        uint256 _sellingPriceIntegralPart,\r\n        uint256 _sellingPriceFractionalPart,\r\n        uint256  _sellingPriceFractionalPartLength\r\n    )\r\n        public\r\n    {\r\n        PropertyTitle propertyTitle = new PropertyTitle(\r\n            address(this),\r\n            _owner,\r\n            _country,\r\n            _city,\r\n            _street,\r\n            _streeNumber,\r\n            _apartmentNumber,\r\n            _squareMeters,\r\n            _sellingPriceIntegralPart,\r\n            _sellingPriceFractionalPart,\r\n            _sellingPriceFractionalPartLength\r\n        );\r\n        titleContracts.push(address(propertyTitle));\r\n        propertyTitleContractsValidity[address(propertyTitle)] = false;\r\n    }\r\n\r\n    function validatePropertyTitleContract(address _contractAddress) public onlyRegistrar {\r\n        propertyTitleContractsValidity[_contractAddress] = true;\r\n    }\r\n\r\n    function checkIfUserIsOwner(address userAddress) public view returns (bool) {\r\n        if (isOwner[userAddress] == true) {\r\n            return true;\r\n        }\r\n        return false;    \r\n    }\r\n\r\n    function checkIfUserIsRegistrar(address userAddress) public view returns (bool) {\r\n        if (isRegistrar[userAddress] == true) {\r\n            return true;\r\n        }\r\n        return false;\r\n    }\r\n\r\n    function getContractOwners() public view returns (address[] memory) {\r\n        return owners;\r\n    }\r\n\r\n    function getContractRegistrars() public view returns (address[] memory) {\r\n        return registrars;\r\n    }\r\n\r\n    function getContracts() public view returns (address[] memory) {\r\n        return titleContracts;\r\n    }\r\n\r\n    function getPendingContractsCount() public view returns (uint256) {\r\n        uint256 k = 0;\r\n        for (uint256 i = 0; i < titleContracts.length; i++) {\r\n            if (IAccessPropertyTitleMethods(titleContracts[i]).contractState() == PropertyTitleContractState.PENDING) {\r\n                k++;\r\n            } \r\n        }\r\n\r\n        return k;\r\n    }\r\n\r\n    function getPendingContracts() public view returns (address[] memory) {\r\n        address[] memory contracts = new address[](getPendingContractsCount());\r\n\r\n        uint256 k = 0;\r\n        for (uint256 i = 0; i < titleContracts.length; i++) {\r\n            if (IAccessPropertyTitleMethods(titleContracts[i]).contractState() == PropertyTitleContractState.PENDING) {\r\n                contracts[k++] = titleContracts[i];\r\n            } \r\n        }\r\n\r\n        return contracts;\r\n    }\r\n\r\n    function getPendingContractsByOffsetAndLimit(uint256 offset, uint256 limit) public view returns (address[] memory) {\r\n        uint256 pendingContractsCount = getPendingContractsCount();\r\n        require(pendingContractsCount > offset, \"Offset greater than list length\");\r\n\r\n        address[] memory contracts = pendingContractsCount > offset + limit \r\n            ? new address[](limit) \r\n            : new address[](pendingContractsCount - offset);\r\n\r\n        address[] memory pendingContracts = getPendingContracts();\r\n        for (uint256 i = offset; i < offset + limit; i++) {\r\n            if (i >= pendingContracts.length) {\r\n                break;\r\n            }\r\n            contracts[i - offset] = pendingContracts[i];\r\n        }\r\n\r\n        return contracts;\r\n    }\r\n\r\n    function getActiveContractsByAddressCount(string memory addressToSearchFor) public view returns (uint256) {\r\n        uint256 k = 0;\r\n        for (uint256 i = 0; i < titleContracts.length; i++) {\r\n            if ((IAccessPropertyTitleMethods(titleContracts[i]).contractState() == PropertyTitleContractState.OWNED ||\r\n                IAccessPropertyTitleMethods(titleContracts[i]).contractState() == PropertyTitleContractState.FOR_SALE) &&\r\n                stringContains(IAccessPropertyTitleMethods(titleContracts[i]).getFullPropertyAddress(), addressToSearchFor)) {\r\n                k++;\r\n            } \r\n        }\r\n\r\n        return k;\r\n    }\r\n\r\n    function getActiveContractsCount() public view returns (uint256) {\r\n        uint256 k = 0;\r\n        for (uint256 i = 0; i < titleContracts.length; i++) {\r\n            if (IAccessPropertyTitleMethods(titleContracts[i]).contractState() == PropertyTitleContractState.OWNED ||\r\n                IAccessPropertyTitleMethods(titleContracts[i]).contractState() == PropertyTitleContractState.FOR_SALE) {\r\n                k++;\r\n            } \r\n        }\r\n\r\n        return k;\r\n    }\r\n\r\n    function getActiveContracts() public view returns (address[] memory) {\r\n        address[] memory contracts = new address[](getActiveContractsCount());\r\n\r\n        uint256 k = 0;\r\n        for (uint256 i = 0; i < titleContracts.length; i++) {\r\n            if (IAccessPropertyTitleMethods(titleContracts[i]).contractState() == PropertyTitleContractState.OWNED ||\r\n                IAccessPropertyTitleMethods(titleContracts[i]).contractState() == PropertyTitleContractState.FOR_SALE) {\r\n                contracts[k++] = titleContracts[i];\r\n            }\r\n        }\r\n\r\n        return contracts;\r\n    }\r\n\r\n    function getActiveContractsByAddress(string memory addressToSearchFor) public view returns (address[] memory) {\r\n        address[] memory contracts = new address[](getActiveContractsByAddressCount(addressToSearchFor));\r\n\r\n        address[] memory activeContracts = getActiveContracts();\r\n        uint256 k = 0;\r\n        for (uint256 i = 0; i < activeContracts.length; i++) {\r\n            if (stringContains(IAccessPropertyTitleMethods(activeContracts[i]).getFullPropertyAddress(), addressToSearchFor)) {\r\n                contracts[k++] = activeContracts[i];\r\n            }\r\n        }\r\n\r\n        return contracts;\r\n    }\r\n\r\n    function getActiveContractsByAddressAndOffsetAndLimit(string memory addressToSearchFor, uint256 offset, uint256 limit)  public view returns (address[] memory) {\r\n        uint256 activeContractsByAddressCount = getActiveContractsByAddressCount(addressToSearchFor);\r\n        require(activeContractsByAddressCount > offset, \"Offset greater than list length\");\r\n\r\n        address[] memory contracts = activeContractsByAddressCount > offset + limit \r\n            ? new address[](limit) \r\n            : new address[](activeContractsByAddressCount - offset);\r\n\r\n        address[] memory activeContractsByAddress = getActiveContractsByAddress(addressToSearchFor);\r\n        for (uint256 i = offset; i < offset + limit; i++) {\r\n            if (i >= activeContractsByAddress.length) {\r\n                break;\r\n            }\r\n            contracts[i - offset] = activeContractsByAddress[i];\r\n\r\n        }\r\n\r\n        return contracts;\r\n    }\r\n\r\n    function getForSaleContractsByAddressCount(string memory addressToSearchFor) public view returns (uint256) {\r\n        uint256 k = 0;\r\n        for (uint256 i = 0; i < titleContracts.length; i++) {\r\n            if (IAccessPropertyTitleMethods(titleContracts[i]).contractState() == PropertyTitleContractState.FOR_SALE &&\r\n                stringContains(IAccessPropertyTitleMethods(titleContracts[i]).getFullPropertyAddress(), addressToSearchFor)) {\r\n                k++;\r\n            }\r\n        }\r\n\r\n        return k;\r\n    }\r\n\r\n    function getForSaleContractsCount() public view returns (uint256) {\r\n        uint256 k = 0;\r\n        for (uint256 i = 0; i < titleContracts.length; i++) {\r\n            if (IAccessPropertyTitleMethods(titleContracts[i]).contractState() == PropertyTitleContractState.FOR_SALE) {\r\n                k++;\r\n            } \r\n        }\r\n\r\n        return k;\r\n    }\r\n\r\n\r\n    function getForSaleContracts() public view returns (address[] memory) {\r\n        address[] memory contracts = new address[](getForSaleContractsCount());\r\n\r\n        uint256 k = 0;\r\n        for (uint256 i = 0; i < titleContracts.length; i++) {\r\n            if (IAccessPropertyTitleMethods(titleContracts[i]).contractState() == PropertyTitleContractState.FOR_SALE) {\r\n                contracts[k++] = titleContracts[i];\r\n            }\r\n        }\r\n\r\n        return contracts;\r\n    }\r\n\r\n    function getForSaleContractsByAddress(string memory addressToSearchFor) public view returns (address[] memory) {\r\n        address[] memory contracts = new address[](getActiveContractsByAddressCount(addressToSearchFor));\r\n\r\n        address[] memory activeContracts = getActiveContracts();\r\n        uint256 k = 0;\r\n        for (uint256 i = 0; i < activeContracts.length; i++) {\r\n            if (stringContains(IAccessPropertyTitleMethods(activeContracts[i]).getFullPropertyAddress(), addressToSearchFor)) {\r\n                contracts[k++] = activeContracts[i];\r\n            }\r\n        }\r\n\r\n        return contracts;\r\n    }\r\n\r\n    function getForSaleContractsByAddressAndOffsetAndLimit(string memory addressToSearchFor, uint256 offset, uint256 limit)  public view returns (address[] memory) {\r\n        uint256 forSaleContractsByAddressCount = getForSaleContractsByAddressCount(addressToSearchFor);\r\n        require(forSaleContractsByAddressCount > offset, \"Offset greater than list length\");\r\n\r\n        address[] memory contracts = forSaleContractsByAddressCount > offset + limit \r\n            ? new address[](limit) \r\n            : new address[](forSaleContractsByAddressCount - offset);\r\n\r\n        address[] memory forSaleContractsByAddress = getForSaleContractsByAddress(addressToSearchFor);\r\n        for (uint256 i = offset; i < offset + limit; i++) {\r\n            if (i >= forSaleContractsByAddress.length) {\r\n                break;\r\n            }\r\n            contracts[i - offset] = forSaleContractsByAddress[i];\r\n\r\n        }\r\n\r\n        return contracts;\r\n    }\r\n\r\n    function getAccountContractsCount(address account) public view returns (uint256)\r\n    {\r\n        uint256 k = 0;\r\n        for (uint256 i = 0; i < titleContracts.length; i++) {\r\n            if (IAccessPropertyTitleMethods(titleContracts[i]).owner() == account) {\r\n                k++;\r\n            } \r\n        }\r\n\r\n        return k;\r\n    }\r\n\r\n    function getAccountContracts(address account) public view returns (address[] memory)\r\n    {\r\n        address[] memory contracts = new address[](getAccountContractsCount(account));\r\n        uint256 k = 0;\r\n        for (uint256 i = 0; i < titleContracts.length; i++) {\r\n            if (IAccessPropertyTitleMethods(titleContracts[i]).owner() == account) {\r\n                contracts[k++] = titleContracts[i];\r\n            }\r\n        }\r\n\r\n        return contracts;\r\n    }\r\n\r\n    function stringContains(string memory stringToSearchIn, string memory stringToSearchFor) public pure returns (bool) {\r\n        bytes memory stringToSearchForBytes = bytes (stringToSearchFor);\r\n        bytes memory stringToSearchInBytes = bytes (stringToSearchIn);\r\n\r\n        require(stringToSearchInBytes.length >= stringToSearchForBytes.length);\r\n\r\n        bool found = false;\r\n        for (uint i = 0; i <= stringToSearchInBytes.length - stringToSearchForBytes.length; i++) {\r\n            bool flag = true;\r\n            for (uint j = 0; j < stringToSearchForBytes.length; j++)\r\n                if (stringToSearchInBytes[i + j] != stringToSearchForBytes[j]) {\r\n                    flag = false;\r\n                    break;\r\n                }\r\n            if (flag) {\r\n                found = true;\r\n                break;\r\n            }\r\n        }\r\n        \r\n        return found;\r\n    }\r\n\r\n    modifier onlyRegistrar {\r\n        require(isRegistrar[msg.sender] == true, \"Only one of the registrars has access to this functionality.\");\r\n        _;\r\n    }\r\n\r\n    modifier onlyOwner {\r\n        require(isOwner[msg.sender] == true, \"Only one of the owners has access to this functionality.\");\r\n        _;\r\n    }\r\n}",
  "sourcePath": "D:\\Propty\\propty\\contracts\\contracts\\TitleCreatingContract.sol",
  "compiler": {
    "name": "solc",
    "version": "0.8.16+commit.07a7930e.Emscripten.clang"
  },
  "schemaVersion": "3.4.9",
  "updatedAt": "2022-12-18T07:11:41.905Z",
  "networkType": "ethereum",
  "devdoc": {
    "kind": "dev",
    "methods": {},
    "version": 1
  },
  "userdoc": {
    "kind": "user",
    "methods": {},
    "version": 1
  }
}