{
  "contractName": "TitleCreatingContract",
  "abi": [
    {
      "inputs": [
        {
          "internalType": "address[]",
          "name": "_owners",
          "type": "address[]"
        }
      ],
      "stateMutability": "nonpayable",
      "type": "constructor"
    },
    {
      "inputs": [
        {
          "internalType": "address",
          "name": "",
          "type": "address"
        }
      ],
      "name": "isOwner",
      "outputs": [
        {
          "internalType": "bool",
          "name": "",
          "type": "bool"
        }
      ],
      "stateMutability": "view",
      "type": "function",
      "constant": true
    },
    {
      "inputs": [
        {
          "internalType": "address",
          "name": "",
          "type": "address"
        }
      ],
      "name": "isRegistrar",
      "outputs": [
        {
          "internalType": "bool",
          "name": "",
          "type": "bool"
        }
      ],
      "stateMutability": "view",
      "type": "function",
      "constant": true
    },
    {
      "inputs": [
        {
          "internalType": "uint256",
          "name": "",
          "type": "uint256"
        }
      ],
      "name": "owners",
      "outputs": [
        {
          "internalType": "address",
          "name": "",
          "type": "address"
        }
      ],
      "stateMutability": "view",
      "type": "function",
      "constant": true
    },
    {
      "inputs": [
        {
          "internalType": "address",
          "name": "",
          "type": "address"
        }
      ],
      "name": "propertyTitleContractsValidity",
      "outputs": [
        {
          "internalType": "bool",
          "name": "",
          "type": "bool"
        }
      ],
      "stateMutability": "view",
      "type": "function",
      "constant": true
    },
    {
      "inputs": [
        {
          "internalType": "uint256",
          "name": "",
          "type": "uint256"
        }
      ],
      "name": "registrars",
      "outputs": [
        {
          "internalType": "address",
          "name": "",
          "type": "address"
        }
      ],
      "stateMutability": "view",
      "type": "function",
      "constant": true
    },
    {
      "inputs": [
        {
          "internalType": "uint256",
          "name": "",
          "type": "uint256"
        }
      ],
      "name": "titleContracts",
      "outputs": [
        {
          "internalType": "address",
          "name": "",
          "type": "address"
        }
      ],
      "stateMutability": "view",
      "type": "function",
      "constant": true
    },
    {
      "inputs": [
        {
          "internalType": "address[]",
          "name": "_registrars",
          "type": "address[]"
        }
      ],
      "name": "addRegistrars",
      "outputs": [],
      "stateMutability": "nonpayable",
      "type": "function"
    },
    {
      "inputs": [
        {
          "internalType": "address[]",
          "name": "_registrars",
          "type": "address[]"
        }
      ],
      "name": "removeRegistrarRole",
      "outputs": [],
      "stateMutability": "nonpayable",
      "type": "function"
    },
    {
      "inputs": [
        {
          "internalType": "address[]",
          "name": "_registrars",
          "type": "address[]"
        }
      ],
      "name": "reactivateRegistrarRole",
      "outputs": [],
      "stateMutability": "nonpayable",
      "type": "function"
    },
    {
      "inputs": [
        {
          "internalType": "address",
          "name": "_owner",
          "type": "address"
        },
        {
          "internalType": "string",
          "name": "_country",
          "type": "string"
        },
        {
          "internalType": "string",
          "name": "_city",
          "type": "string"
        },
        {
          "internalType": "string",
          "name": "_street",
          "type": "string"
        },
        {
          "internalType": "string",
          "name": "_streeNumber",
          "type": "string"
        },
        {
          "internalType": "uint256",
          "name": "_apartmentNumber",
          "type": "uint256"
        },
        {
          "internalType": "uint256",
          "name": "_squareMeters",
          "type": "uint256"
        },
        {
          "internalType": "uint256",
          "name": "_sellingPriceIntegralPart",
          "type": "uint256"
        },
        {
          "internalType": "uint256",
          "name": "_sellingPriceFractionalPart",
          "type": "uint256"
        },
        {
          "internalType": "uint256",
          "name": "_sellingPriceFractionalPartLength",
          "type": "uint256"
        }
      ],
      "name": "deployNewPropertyTitle",
      "outputs": [],
      "stateMutability": "nonpayable",
      "type": "function"
    },
    {
      "inputs": [
        {
          "internalType": "address",
          "name": "_contractAddress",
          "type": "address"
        }
      ],
      "name": "validatePropertyTitleContract",
      "outputs": [],
      "stateMutability": "nonpayable",
      "type": "function"
    },
    {
      "inputs": [
        {
          "internalType": "address",
          "name": "userAddress",
          "type": "address"
        }
      ],
      "name": "checkIfUserIsOwner",
      "outputs": [
        {
          "internalType": "bool",
          "name": "",
          "type": "bool"
        }
      ],
      "stateMutability": "view",
      "type": "function",
      "constant": true
    },
    {
      "inputs": [
        {
          "internalType": "address",
          "name": "userAddress",
          "type": "address"
        }
      ],
      "name": "checkIfUserIsRegistrar",
      "outputs": [
        {
          "internalType": "bool",
          "name": "",
          "type": "bool"
        }
      ],
      "stateMutability": "view",
      "type": "function",
      "constant": true
    },
    {
      "inputs": [],
      "name": "getContractOwners",
      "outputs": [
        {
          "internalType": "address[]",
          "name": "",
          "type": "address[]"
        }
      ],
      "stateMutability": "view",
      "type": "function",
      "constant": true
    },
    {
      "inputs": [],
      "name": "getContractRegistrars",
      "outputs": [
        {
          "internalType": "address[]",
          "name": "",
          "type": "address[]"
        }
      ],
      "stateMutability": "view",
      "type": "function",
      "constant": true
    },
    {
      "inputs": [],
      "name": "getContracts",
      "outputs": [
        {
          "internalType": "address[]",
          "name": "",
          "type": "address[]"
        }
      ],
      "stateMutability": "view",
      "type": "function",
      "constant": true
    },
    {
      "inputs": [],
      "name": "getPendingContractsCount",
      "outputs": [
        {
          "internalType": "uint256",
          "name": "",
          "type": "uint256"
        }
      ],
      "stateMutability": "view",
      "type": "function",
      "constant": true
    },
    {
      "inputs": [],
      "name": "getPendingContracts",
      "outputs": [
        {
          "internalType": "address[]",
          "name": "",
          "type": "address[]"
        }
      ],
      "stateMutability": "view",
      "type": "function",
      "constant": true
    },
    {
      "inputs": [
        {
          "internalType": "uint256",
          "name": "offset",
          "type": "uint256"
        },
        {
          "internalType": "uint256",
          "name": "limit",
          "type": "uint256"
        }
      ],
      "name": "getPendingContractsByOffsetAndLimit",
      "outputs": [
        {
          "internalType": "address[]",
          "name": "",
          "type": "address[]"
        }
      ],
      "stateMutability": "view",
      "type": "function",
      "constant": true
    },
    {
      "inputs": [
        {
          "internalType": "string",
          "name": "addressToSearchFor",
          "type": "string"
        }
      ],
      "name": "getActiveContractsByAddressCount",
      "outputs": [
        {
          "internalType": "uint256",
          "name": "",
          "type": "uint256"
        }
      ],
      "stateMutability": "view",
      "type": "function",
      "constant": true
    },
    {
      "inputs": [],
      "name": "getActiveContractsCount",
      "outputs": [
        {
          "internalType": "uint256",
          "name": "",
          "type": "uint256"
        }
      ],
      "stateMutability": "view",
      "type": "function",
      "constant": true
    },
    {
      "inputs": [],
      "name": "getActiveContracts",
      "outputs": [
        {
          "internalType": "address[]",
          "name": "",
          "type": "address[]"
        }
      ],
      "stateMutability": "view",
      "type": "function",
      "constant": true
    },
    {
      "inputs": [
        {
          "internalType": "string",
          "name": "addressToSearchFor",
          "type": "string"
        }
      ],
      "name": "getActiveContractsByAddress",
      "outputs": [
        {
          "internalType": "address[]",
          "name": "",
          "type": "address[]"
        }
      ],
      "stateMutability": "view",
      "type": "function",
      "constant": true
    },
    {
      "inputs": [
        {
          "internalType": "string",
          "name": "addressToSearchFor",
          "type": "string"
        },
        {
          "internalType": "uint256",
          "name": "offset",
          "type": "uint256"
        },
        {
          "internalType": "uint256",
          "name": "limit",
          "type": "uint256"
        }
      ],
      "name": "getActiveContractsByAddressAndOffsetAndLimit",
      "outputs": [
        {
          "internalType": "address[]",
          "name": "",
          "type": "address[]"
        }
      ],
      "stateMutability": "view",
      "type": "function",
      "constant": true
    },
    {
      "inputs": [
        {
          "internalType": "string",
          "name": "addressToSearchFor",
          "type": "string"
        }
      ],
      "name": "getForSaleContractsByAddressCount",
      "outputs": [
        {
          "internalType": "uint256",
          "name": "",
          "type": "uint256"
        }
      ],
      "stateMutability": "view",
      "type": "function",
      "constant": true
    },
    {
      "inputs": [],
      "name": "getForSaleContractsCount",
      "outputs": [
        {
          "internalType": "uint256",
          "name": "",
          "type": "uint256"
        }
      ],
      "stateMutability": "view",
      "type": "function",
      "constant": true
    },
    {
      "inputs": [],
      "name": "getForSaleContracts",
      "outputs": [
        {
          "internalType": "address[]",
          "name": "",
          "type": "address[]"
        }
      ],
      "stateMutability": "view",
      "type": "function",
      "constant": true
    },
    {
      "inputs": [
        {
          "internalType": "string",
          "name": "addressToSearchFor",
          "type": "string"
        }
      ],
      "name": "getForSaleContractsByAddress",
      "outputs": [
        {
          "internalType": "address[]",
          "name": "",
          "type": "address[]"
        }
      ],
      "stateMutability": "view",
      "type": "function",
      "constant": true
    },
    {
      "inputs": [
        {
          "internalType": "string",
          "name": "addressToSearchFor",
          "type": "string"
        },
        {
          "internalType": "uint256",
          "name": "offset",
          "type": "uint256"
        },
        {
          "internalType": "uint256",
          "name": "limit",
          "type": "uint256"
        }
      ],
      "name": "getForSaleContractsByAddressAndOffsetAndLimit",
      "outputs": [
        {
          "internalType": "address[]",
          "name": "",
          "type": "address[]"
        }
      ],
      "stateMutability": "view",
      "type": "function",
      "constant": true
    },
    {
      "inputs": [
        {
          "internalType": "string",
          "name": "stringToSearchIn",
          "type": "string"
        },
        {
          "internalType": "string",
          "name": "stringToSearchFor",
          "type": "string"
        }
      ],
      "name": "stringContains",
      "outputs": [
        {
          "internalType": "bool",
          "name": "",
          "type": "bool"
        }
      ],
      "stateMutability": "pure",
      "type": "function",
      "constant": true
    }
  ],
  "bytecode": "0x60806040523480156200001157600080fd5b506040516200510138038062005101833981016040819052620000349162000149565b60005b8151811015620000f55760008282815181106200005857620000586200021b565b6020908102919091018101518254600180820185556000948552928420018054600160a060020a031916600160a060020a03909216919091179055835190918291859085908110620000ae57620000ae6200021b565b602090810291909101810151600160a060020a03168252810191909152604001600020805460ff191691151591909117905580620000ec816200024a565b91505062000037565b50506200028b565b7f4e487b7100000000000000000000000000000000000000000000000000000000600052604160045260246000fd5b8051600160a060020a03811681146200014457600080fd5b919050565b600060208083850312156200015d57600080fd5b825167ffffffffffffffff808211156200017657600080fd5b818501915085601f8301126200018b57600080fd5b815181811115620001a057620001a0620000fd565b838102604051601f19603f83011681018181108582111715620001c757620001c7620000fd565b604052918252848201925083810185019188831115620001e657600080fd5b938501935b828510156200020f57620001ff856200012c565b84529385019392850192620001eb565b98975050505050505050565b7f4e487b7100000000000000000000000000000000000000000000000000000000600052603260045260246000fd5b60006001820162000284577f4e487b7100000000000000000000000000000000000000000000000000000000600052601160045260246000fd5b5060010190565b614e66806200029b6000396000f3fe60806040523480156200001157600080fd5b50600436106200021e576000357c01000000000000000000000000000000000000000000000000000000009004806373b928cb1162000136578063c70c17f311620000cc578063ed63455c1162000097578063ed63455c146200049e578063f33c4ff914620004b5578063f972b7ce14620004cc578063fb163e6914620004d657600080fd5b8063c70c17f31462000431578063ce29b8cc1462000448578063d4950d91146200046e578063d5db72eb146200047857600080fd5b8063a210bee2116200010d578063a210bee214620003ef578063ad44a5e41462000406578063c2168c591462000410578063c3a2a93a146200042757600080fd5b806373b928cb14620003b75780638ffb2f7b14620003c157806395cc333914620003d857600080fd5b806331deb99111620001b85780635a44e3b711620001835780635a44e3b7146200035b5780635e0d99a114620003725780635fcf3c7714620003895780637211899514620003a057600080fd5b806331deb991146200030c57806333c368ed146200031657806333cf5ef8146200032d5780633ab007ed146200034457600080fd5b80630e47dbd911620001f95780630e47dbd9146200028c57806312f8383214620002a55780632a58812e14620002bc5780632f54bf6e14620002d557600080fd5b8063022edd351462000223578063025e7c2714620002455780630acae46e1462000275575b600080fd5b6200022d620004e0565b6040516200023c919062001f88565b60405180910390f35b6200025c6200025636600462001fcb565b62000728565b604051600160a060020a0390911681526020016200023c565b6200022d62000286366004620020b9565b62000753565b62000296620008f0565b6040519081526020016200023c565b6200025c620002b636600462001fcb565b62000a83565b620002d3620002cd36600462002128565b62000a94565b005b620002fb620002e636600462002223565b60016020526000908152604090205460ff1681565b60405190151581526020016200023c565b6200029662000b5d565b6200022d62000327366004620020b9565b62000c3c565b620002d36200033e36600462002248565b62000dc4565b6200022d6200035536600462002301565b62000f0c565b6200022d6200036c36600462002342565b620010b1565b6200022d6200038336600462002301565b62001244565b620002966200039a36600462002301565b6200134c565b620002d3620003b136600462002248565b62001598565b6200022d62001642565b62000296620003d236600462002301565b620017d4565b620002d3620003e936600462002248565b620018d6565b6200025c6200040036600462001fcb565b62001980565b6200022d62001991565b620002d36200042136600462002223565b62001b23565b6200022d62001bd6565b620002fb6200044236600462002223565b62001c3a565b620002fb6200045936600462002223565b60056020526000908152604090205460ff1681565b6200022d62001c71565b620002fb6200048936600462002223565b60036020526000908152604090205460ff1681565b620002fb620004af36600462002365565b62001cd3565b620002fb620004c636600462002223565b62001e0b565b6200022d62001e39565b6200029662001e9b565b60606000620004ee620008f0565b67ffffffffffffffff81111562000509576200050962001fe5565b60405190808252806020026020018201604052801562000533578160200160208202803683370190505b5090506000805b60045481101562000720576001600482815481106200055d576200055d620023e9565b600091825260209182902001546040805160e560020a63042904f70281529051600160a060020a03909216926385209ee0926004808401938290030181865afa158015620005af573d6000803e3d6000fd5b505050506040513d601f19601f82011682018060405250810190620005d5919062002402565b6003811115620005e957620005e9620023d0565b1480620006975750600260048281548110620006095762000609620023e9565b600091825260209182902001546040805160e560020a63042904f70281529051600160a060020a03909216926385209ee0926004808401938290030181865afa1580156200065b573d6000803e3d6000fd5b505050506040513d601f19601f8201168201806040525081019062000681919062002402565b6003811115620006955762000695620023d0565b145b156200070b5760048181548110620006b357620006b3620023e9565b600091825260209091200154600160a060020a03168383620006d5816200243e565b945081518110620006ea57620006ea620023e9565b6020026020010190600160a060020a03169081600160a060020a0316815250505b8062000717816200243e565b9150506200053a565b509092915050565b600081815481106200073957600080fd5b600091825260209091200154600160a060020a0316905081565b606060006200076285620017d4565b9050838111620007925760405160e560020a62461bcd02815260040162000789906200245a565b60405180910390fd5b6000620007a0848662002491565b8211620007ff57620007b38583620024a7565b67ffffffffffffffff811115620007ce57620007ce62001fe5565b604051908082528060200260200182016040528015620007f8578160200160208202803683370190505b5062000847565b8367ffffffffffffffff8111156200081b576200081b62001fe5565b60405190808252806020026020018201604052801562000845578160200160208202803683370190505b505b90506000620008568762001244565b9050855b62000866868862002491565b811015620008e4578151811015620008e4578181815181106200088d576200088d620023e9565b6020026020010151838883620008a49190620024a7565b81518110620008b757620008b7620023e9565b600160a060020a039092166020928302919091019091015280620008db816200243e565b9150506200085a565b50909695505050505050565b600080805b60045481101562000a7d57600160048281548110620009185762000918620023e9565b600091825260209182902001546040805160e560020a63042904f70281529051600160a060020a03909216926385209ee0926004808401938290030181865afa1580156200096a573d6000803e3d6000fd5b505050506040513d601f19601f8201168201806040525081019062000990919062002402565b6003811115620009a457620009a4620023d0565b148062000a525750600260048281548110620009c457620009c4620023e9565b600091825260209182902001546040805160e560020a63042904f70281529051600160a060020a03909216926385209ee0926004808401938290030181865afa15801562000a16573d6000803e3d6000fd5b505050506040513d601f19601f8201168201806040525081019062000a3c919062002402565b600381111562000a505762000a50620023d0565b145b1562000a68578162000a64816200243e565b9250505b8062000a74816200243e565b915050620008f5565b50919050565b600281815481106200073957600080fd5b6000308b8b8b8b8b8b8b8b8b8b60405162000aaf9062001f7a565b62000ac59b9a9998979695949392919062002511565b604051809103906000f08015801562000ae2573d6000803e3d6000fd5b5060048054600181019091557f8a35acfbc15ff81a39ae7d344fd709f28e8600b4aa8c65c6b64bfe7fe36bd19b018054600160a060020a0390921673ffffffffffffffffffffffffffffffffffffffff19909216821790556000908152600560205260409020805460ff191690555050505050505050505050565b600080805b60045481101562000a7d5760026004828154811062000b855762000b85620023e9565b600091825260209182902001546040805160e560020a63042904f70281529051600160a060020a03909216926385209ee0926004808401938290030181865afa15801562000bd7573d6000803e3d6000fd5b505050506040513d601f19601f8201168201806040525081019062000bfd919062002402565b600381111562000c115762000c11620023d0565b0362000c27578162000c23816200243e565b9250505b8062000c33816200243e565b91505062000b62565b6060600062000c4b856200134c565b905083811162000c725760405160e560020a62461bcd02815260040162000789906200245a565b600062000c80848662002491565b821162000cdf5762000c938583620024a7565b67ffffffffffffffff81111562000cae5762000cae62001fe5565b60405190808252806020026020018201604052801562000cd8578160200160208202803683370190505b5062000d27565b8367ffffffffffffffff81111562000cfb5762000cfb62001fe5565b60405190808252806020026020018201604052801562000d25578160200160208202803683370190505b505b9050600062000d368762000f0c565b9050855b62000d46868862002491565b811015620008e4578151811015620008e45781818151811062000d6d5762000d6d620023e9565b602002602001015183888362000d849190620024a7565b8151811062000d975762000d97620023e9565b600160a060020a03909216602092830291909101909101528062000dbb816200243e565b91505062000d3a565b3360009081526001602081905260409091205460ff1615151462000dff5760405160e560020a62461bcd0281526004016200078990620025b4565b60005b815181101562000f085762000e3382828151811062000e255762000e25620023e9565b602002602001015162001c3a565b62000ef357600282828151811062000e4f5762000e4f620023e9565b602090810291909101810151825460018082018555600094855292842001805473ffffffffffffffffffffffffffffffffffffffff1916600160a060020a039092169190911790558351909160039185908590811062000eb35762000eb3620023e9565b6020026020010151600160a060020a0316600160a060020a0316815260200190815260200160002060006101000a81548160ff0219169083151502179055505b8062000eff816200243e565b91505062000e02565b5050565b6060600062000f1b836200134c565b67ffffffffffffffff81111562000f365762000f3662001fe5565b60405190808252806020026020018201604052801562000f60578160200160208202803683370190505b509050600062000f6f620004e0565b90506000805b8251811015620010a7576200102b83828151811062000f985762000f98620023e9565b6020026020010151600160a060020a031663790d15de6040518163ffffffff167c0100000000000000000000000000000000000000000000000000000000028152600401600060405180830381865afa15801562000ffa573d6000803e3d6000fd5b505050506040513d6000823e601f3d908101601f1916820160405262001024919081019062002611565b8762001cd3565b156200109257828181518110620010465762001046620023e9565b60200260200101518483806200105c906200243e565b945081518110620010715762001071620023e9565b6020026020010190600160a060020a03169081600160a060020a0316815250505b806200109e816200243e565b91505062000f75565b5091949350505050565b60606000620010bf62001e9b565b9050838111620010e65760405160e560020a62461bcd02815260040162000789906200245a565b6000620010f4848662002491565b82116200115357620011078583620024a7565b67ffffffffffffffff81111562001122576200112262001fe5565b6040519080825280602002602001820160405280156200114c578160200160208202803683370190505b506200119b565b8367ffffffffffffffff8111156200116f576200116f62001fe5565b60405190808252806020026020018201604052801562001199578160200160208202803683370190505b505b90506000620011a962001991565b9050855b620011b9868862002491565b811015620012375781518110156200123757818181518110620011e057620011e0620023e9565b6020026020010151838883620011f79190620024a7565b815181106200120a576200120a620023e9565b600160a060020a0390921660209283029190910190910152806200122e816200243e565b915050620011ad565b5090925050505b92915050565b6060600062001253836200134c565b67ffffffffffffffff8111156200126e576200126e62001fe5565b60405190808252806020026020018201604052801562001298578160200160208202803683370190505b5090506000620012a7620004e0565b90506000805b8251811015620010a757620012d083828151811062000f985762000f98620023e9565b156200133757828181518110620012eb57620012eb620023e9565b602002602001015184838062001301906200243e565b945081518110620013165762001316620023e9565b6020026020010190600160a060020a03169081600160a060020a0316815250505b8062001343816200243e565b915050620012ad565b600080805b6004548110156200159157600160048281548110620013745762001374620023e9565b600091825260209182902001546040805160e560020a63042904f70281529051600160a060020a03909216926385209ee0926004808401938290030181865afa158015620013c6573d6000803e3d6000fd5b505050506040513d601f19601f82011682018060405250810190620013ec919062002402565b6003811115620014005762001400620023d0565b1480620015665750600260048281548110620014205762001420620023e9565b600091825260209182902001546040805160e560020a63042904f70281529051600160a060020a03909216926385209ee0926004808401938290030181865afa15801562001472573d6000803e3d6000fd5b505050506040513d601f19601f8201168201806040525081019062001498919062002402565b6003811115620014ac57620014ac620023d0565b1480156200156657506200156660048281548110620014cf57620014cf620023e9565b6000918252602082200154604080517f790d15de0000000000000000000000000000000000000000000000000000000081529051600160a060020a039092169263790d15de926004808401938290030181865afa15801562001535573d6000803e3d6000fd5b505050506040513d6000823e601f3d908101601f191682016040526200155f919081019062002611565b8562001cd3565b156200157c578162001578816200243e565b9250505b8062001588816200243e565b91505062001351565b5092915050565b3360009081526001602081905260409091205460ff16151514620015d35760405160e560020a62461bcd0281526004016200078990620025b4565b60005b815181101562000f0857600160036000848481518110620015fb57620015fb620023e9565b602090810291909101810151600160a060020a03168252810191909152604001600020805460ff19169115159190911790558062001639816200243e565b915050620015d6565b606060006200165062000b5d565b67ffffffffffffffff8111156200166b576200166b62001fe5565b60405190808252806020026020018201604052801562001695578160200160208202803683370190505b5090506000805b6004548110156200072057600260048281548110620016bf57620016bf620023e9565b600091825260209182902001546040805160e560020a63042904f70281529051600160a060020a03909216926385209ee0926004808401938290030181865afa15801562001711573d6000803e3d6000fd5b505050506040513d601f19601f8201168201806040525081019062001737919062002402565b60038111156200174b576200174b620023d0565b03620017bf5760048181548110620017675762001767620023e9565b600091825260209091200154600160a060020a0316838362001789816200243e565b9450815181106200179e576200179e620023e9565b6020026020010190600160a060020a03169081600160a060020a0316815250505b80620017cb816200243e565b9150506200169c565b600080805b6004548110156200159157600260048281548110620017fc57620017fc620023e9565b600091825260209182902001546040805160e560020a63042904f70281529051600160a060020a03909216926385209ee0926004808401938290030181865afa1580156200184e573d6000803e3d6000fd5b505050506040513d601f19601f8201168201806040525081019062001874919062002402565b6003811115620018885762001888620023d0565b148015620018ab5750620018ab60048281548110620014cf57620014cf620023e9565b15620018c15781620018bd816200243e565b9250505b80620018cd816200243e565b915050620017d9565b3360009081526001602081905260409091205460ff16151514620019115760405160e560020a62461bcd0281526004016200078990620025b4565b60005b815181101562000f0857600060036000848481518110620019395762001939620023e9565b602090810291909101810151600160a060020a03168252810191909152604001600020805460ff19169115159190911790558062001977816200243e565b91505062001914565b600481815481106200073957600080fd5b606060006200199f62001e9b565b67ffffffffffffffff811115620019ba57620019ba62001fe5565b604051908082528060200260200182016040528015620019e4578160200160208202803683370190505b5090506000805b600454811015620007205760006004828154811062001a0e5762001a0e620023e9565b600091825260209182902001546040805160e560020a63042904f70281529051600160a060020a03909216926385209ee0926004808401938290030181865afa15801562001a60573d6000803e3d6000fd5b505050506040513d601f19601f8201168201806040525081019062001a86919062002402565b600381111562001a9a5762001a9a620023d0565b0362001b0e576004818154811062001ab65762001ab6620023e9565b600091825260209091200154600160a060020a0316838362001ad8816200243e565b94508151811062001aed5762001aed620023e9565b6020026020010190600160a060020a03169081600160a060020a0316815250505b8062001b1a816200243e565b915050620019eb565b3360009081526003602052604090205460ff16151560011462001bb25760405160e560020a62461bcd02815260206004820152603c60248201527f4f6e6c79206f6e65206f6620746865207265676973747261727320686173206160448201527f636365737320746f20746869732066756e6374696f6e616c6974792e00000000606482015260840162000789565b600160a060020a03166000908152600560205260409020805460ff19166001179055565b6060600480548060200260200160405190810160405280929190818152602001828054801562001c3057602002820191906000526020600020905b8154600160a060020a0316815260019091019060200180831162001c11575b5050505050905090565b600160a060020a038116600090815260016020819052604082205460ff161515900362001c6957506001919050565b506000919050565b6060600080548060200260200160405190810160405280929190818152602001828054801562001c3057602002820191906000526020600020908154600160a060020a0316815260019091019060200180831162001c11575050505050905090565b8051825160009183918591111562001cea57600080fd5b6000805b8351835162001cfe9190620024a7565b811162001e0157600160005b855181101562001dd85785818151811062001d295762001d29620023e9565b602001015160f860020a900460f860020a027effffffffffffffffffffffffffffffffffffffffffffffffffffffffffffff191686828562001d6c919062002491565b8151811062001d7f5762001d7f620023e9565b602001015160f860020a900460f860020a027effffffffffffffffffffffffffffffffffffffffffffffffffffffffffffff19161462001dc3576000915062001dd8565b8062001dcf816200243e565b91505062001d0a565b50801562001deb57600192505062001e01565b508062001df8816200243e565b91505062001cee565b5095945050505050565b600160a060020a03811660009081526003602052604081205460ff16151560010362001c6957506001919050565b6060600280548060200260200160405190810160405280929190818152602001828054801562001c3057602002820191906000526020600020908154600160a060020a0316815260019091019060200180831162001c11575050505050905090565b600080805b60045481101562000a7d5760006004828154811062001ec35762001ec3620023e9565b600091825260209182902001546040805160e560020a63042904f70281529051600160a060020a03909216926385209ee0926004808401938290030181865afa15801562001f15573d6000803e3d6000fd5b505050506040513d601f19601f8201168201806040525081019062001f3b919062002402565b600381111562001f4f5762001f4f620023d0565b0362001f65578162001f61816200243e565b9250505b8062001f71816200243e565b91505062001ea0565b61279f806200269283390190565b6020808252825182820181905260009190848201906040850190845b81811015620008e4578351600160a060020a03168352928401929184019160010162001fa4565b60006020828403121562001fde57600080fd5b5035919050565b60e060020a634e487b7102600052604160045260246000fd5b604051601f8201601f1916810167ffffffffffffffff811182821017156200202a576200202a62001fe5565b604052919050565b600067ffffffffffffffff8211156200204f576200204f62001fe5565b50601f01601f191660200190565b600082601f8301126200206f57600080fd5b813562002086620020808262002032565b62001ffe565b8181528460208386010111156200209c57600080fd5b816020850160208301376000918101602001919091529392505050565b600080600060608486031215620020cf57600080fd5b833567ffffffffffffffff811115620020e757600080fd5b620020f5868287016200205d565b9660208601359650604090950135949350505050565b8035600160a060020a03811681146200212357600080fd5b919050565b6000806000806000806000806000806101408b8d0312156200214957600080fd5b620021548b6200210b565b995060208b013567ffffffffffffffff808211156200217257600080fd5b620021808e838f016200205d565b9a5060408d01359150808211156200219757600080fd5b620021a58e838f016200205d565b995060608d0135915080821115620021bc57600080fd5b620021ca8e838f016200205d565b985060808d0135915080821115620021e157600080fd5b50620021f08d828e016200205d565b9a9d999c50979a96999860a0880135985060c08801359760e0810135975061010081013596506101200135945092505050565b6000602082840312156200223657600080fd5b62002241826200210b565b9392505050565b600060208083850312156200225c57600080fd5b823567ffffffffffffffff808211156200227557600080fd5b818501915085601f8301126200228a57600080fd5b8135818111156200229f576200229f62001fe5565b8381029150620022b184830162001ffe565b8181529183018401918481019088841115620022cc57600080fd5b938501935b83851015620022f557620022e5856200210b565b82529385019390850190620022d1565b98975050505050505050565b6000602082840312156200231457600080fd5b813567ffffffffffffffff8111156200232c57600080fd5b6200233a848285016200205d565b949350505050565b600080604083850312156200235657600080fd5b50508035926020909101359150565b600080604083850312156200237957600080fd5b823567ffffffffffffffff808211156200239257600080fd5b620023a0868387016200205d565b93506020850135915080821115620023b757600080fd5b50620023c6858286016200205d565b9150509250929050565b60e060020a634e487b7102600052602160045260246000fd5b60e060020a634e487b7102600052603260045260246000fd5b6000602082840312156200241557600080fd5b8151600481106200224157600080fd5b60e060020a634e487b7102600052601160045260246000fd5b60006001820162002453576200245362002425565b5060010190565b6020808252601f908201527f4f66667365742067726561746572207468616e206c697374206c656e67746800604082015260600190565b808201808211156200123e576200123e62002425565b818103818111156200123e576200123e62002425565b60005b83811015620024da578181015183820152602001620024c0565b50506000910152565b60008151808452620024fd816020860160208601620024bd565b601f01601f19169290920160200192915050565b6000610160600160a060020a03808f168452808e16602085015250806040840152620025408184018d620024e3565b9050828103606084015262002556818c620024e3565b905082810360808401526200256c818b620024e3565b905082810360a084015262002582818a620024e3565b60c0840198909852505060e0810194909452610100840192909252610120830152610140909101529695505050505050565b60208082526038908201527f4f6e6c79206f6e65206f6620746865206f776e6572732068617320616363657360408201527f7320746f20746869732066756e6374696f6e616c6974792e0000000000000000606082015260800190565b6000602082840312156200262457600080fd5b815167ffffffffffffffff8111156200263c57600080fd5b8201601f810184136200264e57600080fd5b80516200265f620020808262002032565b8181528560208385010111156200267557600080fd5b62002688826020830160208601620024bd565b9594505050505056fe60806040523480156200001157600080fd5b506040516200279f3803806200279f833981016040819052620000349162000322565b60048054600160a060020a038d8116600160a060020a03199283161790925560058054928d16929091169190911790556000805460ff1916905560076200007c8a82620004ec565b5060086200008b8982620004ec565b5060096200009a8882620004ec565b50600a620000a98782620004ec565b50600b859055600c848155600184905560028390556003829055604080518082019091529081527f4e6f742050726f766964656400000000000000000000000000000000000000006020820152600d90620001059082620004ec565b5060408051808201909152600c81527f4e6f742050726f766964656400000000000000000000000000000000000000006020820152600e90620001499082620004ec565b5060408051808201909152600c81527f4e6f742050726f766964656400000000000000000000000000000000000000006020820152600f906200018d9082620004ec565b5060408051808201909152600c81527f4e6f742050726f766964656400000000000000000000000000000000000000006020820152601090620001d19082620004ec565b5060408051808201909152600c81527f4e6f742050726f766964656400000000000000000000000000000000000000006020820152601190620002159082620004ec565b505050505050505050505050620005be565b8051600160a060020a03811681146200023f57600080fd5b919050565b7f4e487b7100000000000000000000000000000000000000000000000000000000600052604160045260246000fd5b600082601f8301126200028557600080fd5b81516001604060020a0380821115620002a257620002a262000244565b604051601f8301601f19908116603f01168101908282118183101715620002cd57620002cd62000244565b81604052838152602092508683858801011115620002ea57600080fd5b600091505b838210156200030e5785820183015181830184015290820190620002ef565b600093810190920192909252949350505050565b60008060008060008060008060008060006101608c8e0312156200034557600080fd5b620003508c62000227565b9a506200036060208d0162000227565b995060408c01516001604060020a038111156200037c57600080fd5b6200038a8e828f0162000273565b99505060608c01516001604060020a03811115620003a757600080fd5b620003b58e828f0162000273565b98505060808c01516001604060020a03811115620003d257600080fd5b620003e08e828f0162000273565b97505060a08c01516001604060020a03811115620003fd57600080fd5b6200040b8e828f0162000273565b96505060c08c0151945060e08c015193506101008c015192506101208c015191506101408c015190509295989b509295989b9093969950565b6002810460018216806200045957607f821691505b60208210810362000493577f4e487b7100000000000000000000000000000000000000000000000000000000600052602260045260246000fd5b50919050565b601f821115620004e7576000818152602081206020601f86010481016020861015620004c25750805b6020601f860104820191505b81811015620004e357828155600101620004ce565b5050505b505050565b81516001604060020a0381111562000508576200050862000244565b620005208162000519845462000444565b8462000499565b602080601f8311600181146200055c57600084156200053f5750858301515b60028086026008870290910a6000190419821617865550620004e3565b600085815260208120601f198616915b828110156200058d578886015182559484019460019091019084016200056c565b5085821015620005ae57878501516008601f88160260020a60001904191681555b5050505050600202600101905550565b6121d180620005ce6000396000f3fe60806040526004361061014a576000357c01000000000000000000000000000000000000000000000000000000009004806385209ee0116100c857806397035a071161008c57806397035a07146105eb5780639dfc91171461060b578063b3cbb32c1461063f578063b6366d921461065f578063daca4eef1461067f578063f5cfb032146106a557600080fd5b806385209ee01461054f57806385329517146105765780638d97bee8146105965780638da5cb5b146105b6578063953fe3cc146105d657600080fd5b80635293c8381161010f5780635293c8381461049a578063536f5c36146104ca57806372b50109146104ed57806374bdde491461050d578063790d15de1461052d57600080fd5b80627dc372146103b557806302d05d3f146103e657806312821b5e1461041e5780633d7a44921461045857806341fa17661461047a57600080fd5b366103b05760006006805460ff169081111561016857610168611626565b148061018a575060036006805460ff169081111561018857610188611626565b145b6102045760405160e560020a62461bcd02815260206004820152603760248201527f546869732070726f706572747927732074656e757265207479706520646f657360448201527f206e6f7420737570706f7274206265696e6720736f6c6400000000000000000060648201526084015b60405180910390fd5b600260005460ff16600381111561021d5761021d611626565b1461026d5760405160e560020a62461bcd02815260206004820152601e60248201527f546869732070726f7065727479206973206e6f7420666f722073616c652e000060448201526064016101fb565b600360005460ff16600381111561028657610286611626565b036102a65760405160e560020a62461bcd0281526004016101fb9061163f565b6003546000906102b79060126116b5565b6102c290600a6117af565b6002546102cf91906117c2565b6001546102e490670de0b6b3a76400006117c2565b6102ee91906117e1565b905033318111156103445760405160e560020a62461bcd02815260206004820152601260248201527f496e73756666696369656e742066756e6473000000000000000000000000000060448201526064016101fb565b600554604051600160a060020a03909116903480156108fc02916000818181858888f1935050505015801561037d573d6000803e3d6000fd5b506000805460ff19166001179055600580543373ffffffffffffffffffffffffffffffffffffffff199091168117909155005b600080fd5b3480156103c157600080fd5b506103ca6106c5565b6040516103dd9796959493929190611844565b60405180910390f35b3480156103f257600080fd5b5060045461040690600160a060020a031681565b604051600160a060020a0390911681526020016103dd565b34801561042a57600080fd5b5060015460025460035461043d92919083565b604080519384526020840192909252908201526060016103dd565b34801561046457600080fd5b50610478610473366004611978565b610916565b005b34801561048657600080fd5b506104786104953660046119f0565b6109c1565b3480156104a657600080fd5b506104ba6104b5366004611a37565b610a93565b60405190151581526020016103dd565b3480156104d657600080fd5b506104df610af0565b6040519081526020016103dd565b3480156104f957600080fd5b50610478610508366004611b2c565b610b3a565b34801561051957600080fd5b50610478610528366004611b6d565b610c9a565b34801561053957600080fd5b50610542610e17565b6040516103dd9190611c4e565b34801561055b57600080fd5b506000546105699060ff1681565b6040516103dd9190611c75565b34801561058257600080fd5b50610478610591366004611c83565b610e49565b3480156105a257600080fd5b506104786105b1366004611caf565b610ee4565b3480156105c257600080fd5b5060055461040690600160a060020a031681565b3480156105e257600080fd5b506104ba610f9a565b3480156105f757600080fd5b50610478610606366004611cd9565b6110e1565b34801561061757600080fd5b506004546005546000546040516103dd93600160a060020a0390811693169160ff1690611cf4565b34801561064b57600080fd5b506104ba61065a366004611978565b6111a7565b34801561066b57600080fd5b5061047861067a366004611d21565b611210565b34801561068b57600080fd5b506106946112b4565b6040516103dd959493929190611d3a565b3480156106b157600080fd5b506104786106c0366004611da7565b61157e565b600680546007805460ff90921692916106dd90611dc2565b80601f016020809104026020016040519081016040528092919081815260200182805461070990611dc2565b80156107565780601f1061072b57610100808354040283529160200191610756565b820191906000526020600020905b81548152906001019060200180831161073957829003601f168201915b50505050509080600201805461076b90611dc2565b80601f016020809104026020016040519081016040528092919081815260200182805461079790611dc2565b80156107e45780601f106107b9576101008083540402835291602001916107e4565b820191906000526020600020905b8154815290600101906020018083116107c757829003601f168201915b5050505050908060030180546107f990611dc2565b80601f016020809104026020016040519081016040528092919081815260200182805461082590611dc2565b80156108725780601f1061084757610100808354040283529160200191610872565b820191906000526020600020905b81548152906001019060200180831161085557829003601f168201915b50505050509080600401805461088790611dc2565b80601f01602080910402602001604051908101604052809291908181526020018280546108b390611dc2565b80156109005780601f106108d557610100808354040283529160200191610900565b820191906000526020600020905b8154815290600101906020018083116108e357829003601f168201915b5050505050908060050154908060060154905087565b61091e610f9a565b61093d5760405160e560020a62461bcd0281526004016101fb90611dff565b600554600160a060020a0316331461096a5760405160e560020a62461bcd0281526004016101fb90611e5c565b600360005460ff16600381111561098357610983611626565b036109a35760405160e560020a62461bcd0281526004016101fb9061163f565b60096109af8382611f07565b50600a6109bc8282611f07565b505050565b6109c9610f9a565b6109e85760405160e560020a62461bcd0281526004016101fb90611dff565b600554600160a060020a03163314610a155760405160e560020a62461bcd0281526004016101fb90611e5c565b600360005460ff166003811115610a2e57610a2e611626565b03610a4e5760405160e560020a62461bcd0281526004016101fb9061163f565b60018581556002859055600384905560068054849260ff19909116908383811115610a7b57610a7b611626565b0217905550600c5550506000805460ff191690555050565b6000805b8251811015610ae457610ac384848381518110610ab657610ab6611fcd565b60200260200101516111a7565b15610ad2576001915050610aea565b80610adc81611fe6565b915050610a97565b50600090505b92915050565b6003546000908190610b039060126116b5565b610b0e90600a6117af565b600254610b1b91906117c2565b600154610b3090670de0b6b3a76400006117c2565b610aea91906117e1565b600480546040517ff33c4ff90000000000000000000000000000000000000000000000000000000081523392810192909252600160a060020a03169063f33c4ff990602401602060405180830381865afa158015610b9c573d6000803e3d6000fd5b505050506040513d601f19601f82011682018060405250810190610bc09190611fff565b1515600114610be45760405160e560020a62461bcd0281526004016101fb90612021565b600554600160a060020a03163303610c115760405160e560020a62461bcd0281526004016101fb9061207e565b600360005460ff166003811115610c2a57610c2a611626565b03610c4a5760405160e560020a62461bcd0281526004016101fb9061163f565b6005805473ffffffffffffffffffffffffffffffffffffffff1916600160a060020a0384161790556000805482919060ff19166001836003811115610c9157610c91611626565b02179055505050565b600480546040517ff33c4ff90000000000000000000000000000000000000000000000000000000081523392810192909252600160a060020a03169063f33c4ff990602401602060405180830381865afa158015610cfc573d6000803e3d6000fd5b505050506040513d601f19601f82011682018060405250810190610d209190611fff565b1515600114610d445760405160e560020a62461bcd0281526004016101fb90612021565b600554600160a060020a03163303610d715760405160e560020a62461bcd0281526004016101fb9061207e565b600360005460ff166003811115610d8a57610d8a611626565b03610daa5760405160e560020a62461bcd0281526004016101fb9061163f565b600d610db68782611f07565b50600e610dc38682611f07565b50600f610dd08582611f07565b506010610ddd8482611f07565b506011610dea8382611f07565b506000805482919060ff19166001836003811115610e0a57610e0a611626565b0217905550505050505050565b604051606090610e3590600790600890600990600a9060200161214e565b604051602081830303815290604052905090565b610e51610f9a565b610e705760405160e560020a62461bcd0281526004016101fb90611dff565b600554600160a060020a03163314610e9d5760405160e560020a62461bcd0281526004016101fb90611e5c565b600360005460ff166003811115610eb657610eb6611626565b03610ed65760405160e560020a62461bcd0281526004016101fb9061163f565b600192909255600255600355565b600554600160a060020a03163314610f115760405160e560020a62461bcd0281526004016101fb90611e5c565b610f19610f9a565b610f385760405160e560020a62461bcd0281526004016101fb90611dff565b600360005460ff166003811115610f5157610f51611626565b03610f715760405160e560020a62461bcd0281526004016101fb9061163f565b6006805483919060ff191660018383811115610f8f57610f8f611626565b0217905550600c5550565b6000611068600d6000018054610faf90611dc2565b80601f0160208091040260200160405190810160405280929190818152602001828054610fdb90611dc2565b80156110285780601f10610ffd57610100808354040283529160200191611028565b820191906000526020600020905b81548152906001019060200180831161100b57829003601f168201915b50505050506040518060400160405280600881526020017f50726f76696465640000000000000000000000000000000000000000000000008152506111a7565b80156110825750611082600d6001018054610faf90611dc2565b801561109c575061109c600d6002018054610faf90611dc2565b80156110b657506110b6600d6003018054610faf90611dc2565b80156110d057506110d0600d6004018054610faf90611dc2565b156110db5750600190565b50600090565b6110e9610f9a565b6111085760405160e560020a62461bcd0281526004016101fb90611dff565b600554600160a060020a031633146111355760405160e560020a62461bcd0281526004016101fb90611e5c565b600360005460ff16600381111561114e5761114e611626565b0361116e5760405160e560020a62461bcd0281526004016101fb9061163f565b6006805482919060ff19166001838381111561118c5761118c611626565b021790555060008054819060ff19166001825b021790555050565b600081518351146111ba57506000610aea565b816040516020016111cb919061217f565b60405160208183030381529060405280519060200120836040516020016111f2919061217f565b60405160208183030381529060405280519060200120149050610aea565b611218610f9a565b6112375760405160e560020a62461bcd0281526004016101fb90611dff565b600554600160a060020a031633146112645760405160e560020a62461bcd0281526004016101fb90611e5c565b600360005460ff16600381111561127d5761127d611626565b0361129d5760405160e560020a62461bcd0281526004016101fb9061163f565b600c81905560008054819060ff191660018261119f565b600d805481906112c390611dc2565b80601f01602080910402602001604051908101604052809291908181526020018280546112ef90611dc2565b801561133c5780601f106113115761010080835404028352916020019161133c565b820191906000526020600020905b81548152906001019060200180831161131f57829003601f168201915b50505050509080600101805461135190611dc2565b80601f016020809104026020016040519081016040528092919081815260200182805461137d90611dc2565b80156113ca5780601f1061139f576101008083540402835291602001916113ca565b820191906000526020600020905b8154815290600101906020018083116113ad57829003601f168201915b5050505050908060020180546113df90611dc2565b80601f016020809104026020016040519081016040528092919081815260200182805461140b90611dc2565b80156114585780601f1061142d57610100808354040283529160200191611458565b820191906000526020600020905b81548152906001019060200180831161143b57829003601f168201915b50505050509080600301805461146d90611dc2565b80601f016020809104026020016040519081016040528092919081815260200182805461149990611dc2565b80156114e65780601f106114bb576101008083540402835291602001916114e6565b820191906000526020600020905b8154815290600101906020018083116114c957829003601f168201915b5050505050908060040180546114fb90611dc2565b80601f016020809104026020016040519081016040528092919081815260200182805461152790611dc2565b80156115745780601f1061154957610100808354040283529160200191611574565b820191906000526020600020905b81548152906001019060200180831161155757829003601f168201915b5050505050905085565b611586610f9a565b6115a55760405160e560020a62461bcd0281526004016101fb90611dff565b600554600160a060020a031633146115d25760405160e560020a62461bcd0281526004016101fb90611e5c565b600360005460ff1660038111156115eb576115eb611626565b0361160b5760405160e560020a62461bcd0281526004016101fb9061163f565b6000805482919060ff1916600183600381111561119f5761119f5b60e060020a634e487b7102600052602160045260246000fd5b60208082526032908201527f546869732050726f7065727479205469746c6520436f6e74726163742069732060408201527f6e6f206c6f6e6765722072656c6176616e740000000000000000000000000000606082015260800190565b60e060020a634e487b7102600052601160045260246000fd5b81810381811115610aea57610aea61169c565b600181815b808511156117055781600019048211156116e9576116e961169c565b808516156116f657918102915b600290940493908002906116cd565b509250929050565b60008261171c57506001610aea565b8161172957506000610aea565b816001811461173f576002811461174957611766565b6001915050610aea565b60ff84111561175a5761175a61169c565b8360020a915050610aea565b5060208310610133831016604e8410600b8410161715611789575081810a610aea565b61179383836116c8565b80600019048211156117a7576117a761169c565b029392505050565b60006117bb838361170d565b9392505050565b60008160001904831182151516156117dc576117dc61169c565b500290565b80820180821115610aea57610aea61169c565b60005b8381101561180f5781810151838201526020016117f7565b50506000910152565b600081518084526118308160208601602086016117f4565b601f01601f19169290920160200192915050565b60006007891061185657611856611626565b88825260e0602083015261186d60e0830189611818565b828103604084015261187f8189611818565b905082810360608401526118938188611818565b905082810360808401526118a78187611818565b60a0840195909552505060c0015295945050505050565b60e060020a634e487b7102600052604160045260246000fd5b604051601f8201601f1916810167ffffffffffffffff81118282101715611900576119006118be565b604052919050565b600082601f83011261191957600080fd5b813567ffffffffffffffff811115611933576119336118be565b611946601f8201601f19166020016118d7565b81815284602083860101111561195b57600080fd5b816020850160208301376000918101602001919091529392505050565b6000806040838503121561198b57600080fd5b823567ffffffffffffffff808211156119a357600080fd5b6119af86838701611908565b935060208501359150808211156119c557600080fd5b506119d285828601611908565b9150509250929050565b8035600781106119eb57600080fd5b919050565b600080600080600060a08688031215611a0857600080fd5b853594506020860135935060408601359250611a26606087016119dc565b949793965091946080013592915050565b60008060408385031215611a4a57600080fd5b823567ffffffffffffffff80821115611a6257600080fd5b611a6e86838701611908565b9350602091508185013581811115611a8557600080fd5b8501601f81018713611a9657600080fd5b803582811115611aa857611aa86118be565b838102611ab68582016118d7565b918252828101850191858101908a841115611ad057600080fd5b86850192505b83831015611b0c57823586811115611aee5760008081fd5b611afc8c8983890101611908565b8352509186019190860190611ad6565b809750505050505050509250929050565b8035600481106119eb57600080fd5b60008060408385031215611b3f57600080fd5b8235600160a060020a0381168114611b5657600080fd5b9150611b6460208401611b1d565b90509250929050565b60008060008060008060c08789031215611b8657600080fd5b863567ffffffffffffffff80821115611b9e57600080fd5b611baa8a838b01611908565b97506020890135915080821115611bc057600080fd5b611bcc8a838b01611908565b96506040890135915080821115611be257600080fd5b611bee8a838b01611908565b95506060890135915080821115611c0457600080fd5b611c108a838b01611908565b94506080890135915080821115611c2657600080fd5b50611c3389828a01611908565b925050611c4260a08801611b1d565b90509295509295509295565b6020815260006117bb6020830184611818565b60048110611c7157611c71611626565b9052565b60208101610aea8284611c61565b600080600060608486031215611c9857600080fd5b505081359360208301359350604090920135919050565b60008060408385031215611cc257600080fd5b611ccb836119dc565b946020939093013593505050565b600060208284031215611ceb57600080fd5b6117bb826119dc565b600160a060020a0384811682528316602082015260608101611d196040830184611c61565b949350505050565b600060208284031215611d3357600080fd5b5035919050565b60a081526000611d4d60a0830188611818565b8281036020840152611d5f8188611818565b90508281036040840152611d738187611818565b90508281036060840152611d878186611818565b90508281036080840152611d9b8185611818565b98975050505050505050565b600060208284031215611db957600080fd5b6117bb82611b1d565b600281046001821680611dd657607f821691505b602082108103611df95760e060020a634e487b7102600052602260045260246000fd5b50919050565b60208082526024908201527f5468652070726f7065727479206973206e6f74206c6567616c6c7920616c726960408201527f6768742e00000000000000000000000000000000000000000000000000000000606082015260800190565b60208082526032908201527f4f6e6c7920746865206f776e6572206f662074686520436f6e7472616374206860408201527f61732061636365737320746f2074686973210000000000000000000000000000606082015260800190565b601f8211156109bc576000818152602081206020601f86010481016020861015611ee05750805b6020601f860104820191505b81811015611eff57828155600101611eec565b505050505050565b815167ffffffffffffffff811115611f2157611f216118be565b611f3581611f2f8454611dc2565b84611eb9565b602080601f831160018114611f6e5760008415611f525750858301515b60028086026008870290910a6000190419821617865550611eff565b600085815260208120601f198616915b82811015611f9d57888601518255948401946001909101908401611f7e565b5085821015611fbd57878501516008601f88160260020a60001904191681555b5050505050600202600101905550565b60e060020a634e487b7102600052603260045260246000fd5b600060018201611ff857611ff861169c565b5060010190565b60006020828403121561201157600080fd5b815180151581146117bb57600080fd5b60208082526036908201527f4f6e6c792061207265676973746572656420726567697374726172206861732060408201527f61636365737320746f207468697320616374696f6e2e00000000000000000000606082015260800190565b60208082526026908201527f596f752063616e206e6f742076616c696461746520796f7572206f776e20707260408201527f6f70657274790000000000000000000000000000000000000000000000000000606082015260800190565b600081546120e881611dc2565b60018281168015612100576001811461211557612144565b60ff1984168752821515830287019450612144565b8560005260208060002060005b8581101561213b5781548a820152908401908201612122565b50505082870194505b5050505092915050565b600061217561216f612169612163858a6120db565b886120db565b866120db565b846120db565b9695505050505050565b600082516121918184602087016117f4565b919091019291505056fea264697066735822122030d717c221a5776b38913bdeb62f3b328399de6dabf947eb1b39f9a04e371deb64736f6c63430008100033a2646970667358221220a18702df6cf4b0815829b523c5862b7c40c8d70900048a199a64cbe4a9ec937964736f6c63430008100033",
  "immutableReferences": {},
  "source": "//SPDX-License-Identifier: MIT\r\npragma solidity ^0.8.16;\r\n\r\nimport \"./PropertyTitle.sol\";\r\n\r\ninterface IAccessPropertyTitleMethods {\r\n    function contractState() external view returns (PropertyTitleContractState);\r\n    function getFullPropertyAddress() external view returns (string memory);\r\n}\r\n\r\ncontract TitleCreatingContract {\r\n    address[] public owners;\r\n    mapping (address => bool) public isOwner;\r\n\r\n    address[] public registrars;\r\n    mapping (address => bool) public isRegistrar;\r\n\r\n    address[] public titleContracts;\r\n    mapping (address => bool) public propertyTitleContractsValidity;\r\n\r\n    constructor(address[] memory _owners)\r\n    {\r\n        for (uint256 i = 0; i < _owners.length; i++) {\r\n            owners.push(_owners[i]);\r\n            isOwner[_owners[i]] = true;\r\n        }\r\n    }\r\n\r\n    function addRegistrars(address[] memory _registrars) public onlyOwner {\r\n        for (uint256 i = 0; i < _registrars.length; i++) {\r\n            if (!checkIfUserIsOwner(_registrars[i])) {\r\n                registrars.push(_registrars[i]);\r\n                isRegistrar[_registrars[i]] = true;\r\n            }\r\n        }\r\n    }\r\n\r\n    function removeRegistrarRole(address[] memory _registrars) public onlyOwner {\r\n        for (uint256 i = 0; i < _registrars.length; i++) {\r\n            isRegistrar[_registrars[i]] = false;\r\n        }\r\n    }\r\n\r\n    function reactivateRegistrarRole(address[] memory _registrars) public onlyOwner {\r\n        for (uint256 i = 0; i < _registrars.length; i++) {\r\n            isRegistrar[_registrars[i]] = true;\r\n        }\r\n    }\r\n\r\n    function deployNewPropertyTitle(\r\n        address _owner,\r\n        string memory _country,\r\n        string memory _city,\r\n        string memory _street,\r\n        string memory _streeNumber,\r\n        uint256 _apartmentNumber,\r\n        uint256 _squareMeters,\r\n        uint256 _sellingPriceIntegralPart,\r\n        uint256 _sellingPriceFractionalPart,\r\n        uint256  _sellingPriceFractionalPartLength\r\n    )\r\n        public\r\n    {\r\n        PropertyTitle propertyTitle = new PropertyTitle(\r\n            address(this),\r\n            _owner,\r\n            _country,\r\n            _city,\r\n            _street,\r\n            _streeNumber,\r\n            _apartmentNumber,\r\n            _squareMeters,\r\n            _sellingPriceIntegralPart,\r\n            _sellingPriceFractionalPart,\r\n            _sellingPriceFractionalPartLength\r\n        );\r\n        titleContracts.push(address(propertyTitle));\r\n        propertyTitleContractsValidity[address(propertyTitle)] = false;\r\n    }\r\n\r\n    function validatePropertyTitleContract(address _contractAddress) public onlyRegistrar {\r\n        propertyTitleContractsValidity[_contractAddress] = true;\r\n    }\r\n\r\n    function checkIfUserIsOwner(address userAddress) public view returns (bool) {\r\n        if (isOwner[userAddress] == true) {\r\n            return true;\r\n        }\r\n        return false;    \r\n    }\r\n\r\n    function checkIfUserIsRegistrar(address userAddress) public view returns (bool) {\r\n        if (isRegistrar[userAddress] == true) {\r\n            return true;\r\n        }\r\n        return false;\r\n    }\r\n\r\n    function getContractOwners() public view returns (address[] memory) {\r\n        return owners;\r\n    }\r\n\r\n    function getContractRegistrars() public view returns (address[] memory) {\r\n        return registrars;\r\n    }\r\n\r\n    function getContracts() public view returns (address[] memory) {\r\n        return titleContracts;\r\n    }\r\n\r\n    function getPendingContractsCount() public view returns (uint256) {\r\n        uint256 k = 0;\r\n        for (uint256 i = 0; i < titleContracts.length; i++) {\r\n            if (IAccessPropertyTitleMethods(titleContracts[i]).contractState() == PropertyTitleContractState.PENDING) {\r\n                k++;\r\n            } \r\n        }\r\n\r\n        return k;\r\n    }\r\n\r\n    function getPendingContracts() public view returns (address[] memory) {\r\n        address[] memory contracts = new address[](getPendingContractsCount());\r\n\r\n        uint256 k = 0;\r\n        for (uint256 i = 0; i < titleContracts.length; i++) {\r\n            if (IAccessPropertyTitleMethods(titleContracts[i]).contractState() == PropertyTitleContractState.PENDING) {\r\n                contracts[k++] = titleContracts[i];\r\n            } \r\n        }\r\n\r\n        return contracts;\r\n    }\r\n\r\n    function getPendingContractsByOffsetAndLimit(uint256 offset, uint256 limit) public view returns (address[] memory) {\r\n        uint256 pendingContractsCount = getPendingContractsCount();\r\n        require(pendingContractsCount > offset, \"Offset greater than list length\");\r\n\r\n        address[] memory contracts = pendingContractsCount > offset + limit \r\n            ? new address[](limit) \r\n            : new address[](pendingContractsCount - offset);\r\n\r\n        address[] memory pendingContracts = getPendingContracts();\r\n        for (uint256 i = offset; i < offset + limit; i++) {\r\n            if (i >= pendingContracts.length) {\r\n                break;\r\n            }\r\n            contracts[i - offset] = pendingContracts[i];\r\n        }\r\n\r\n        return contracts;\r\n    }\r\n\r\n    function getActiveContractsByAddressCount(string memory addressToSearchFor) public view returns (uint256) {\r\n        uint256 k = 0;\r\n        for (uint256 i = 0; i < titleContracts.length; i++) {\r\n            if (IAccessPropertyTitleMethods(titleContracts[i]).contractState() == PropertyTitleContractState.OWNED ||\r\n                IAccessPropertyTitleMethods(titleContracts[i]).contractState() == PropertyTitleContractState.FOR_SALE &&\r\n                stringContains(IAccessPropertyTitleMethods(titleContracts[i]).getFullPropertyAddress(), addressToSearchFor)) {\r\n                k++;\r\n            } \r\n        }\r\n\r\n        return k;\r\n    }\r\n\r\n    function getActiveContractsCount() public view returns (uint256) {\r\n        uint256 k = 0;\r\n        for (uint256 i = 0; i < titleContracts.length; i++) {\r\n            if (IAccessPropertyTitleMethods(titleContracts[i]).contractState() == PropertyTitleContractState.OWNED ||\r\n                IAccessPropertyTitleMethods(titleContracts[i]).contractState() == PropertyTitleContractState.FOR_SALE) {\r\n                k++;\r\n            } \r\n        }\r\n\r\n        return k;\r\n    }\r\n\r\n    function getActiveContracts() public view returns (address[] memory) {\r\n        address[] memory contracts = new address[](getActiveContractsCount());\r\n\r\n        uint256 k = 0;\r\n        for (uint256 i = 0; i < titleContracts.length; i++) {\r\n            if (IAccessPropertyTitleMethods(titleContracts[i]).contractState() == PropertyTitleContractState.OWNED ||\r\n                IAccessPropertyTitleMethods(titleContracts[i]).contractState() == PropertyTitleContractState.FOR_SALE) {\r\n                contracts[k++] = titleContracts[i];\r\n            }\r\n        }\r\n\r\n        return contracts;\r\n    }\r\n\r\n    function getActiveContractsByAddress(string memory addressToSearchFor) public view returns (address[] memory) {\r\n        address[] memory contracts = new address[](getActiveContractsByAddressCount(addressToSearchFor));\r\n\r\n        address[] memory activeContracts = getActiveContracts();\r\n        uint256 k = 0;\r\n        for (uint256 i = 0; i < activeContracts.length; i++) {\r\n            if (stringContains(IAccessPropertyTitleMethods(activeContracts[i]).getFullPropertyAddress(), addressToSearchFor)) {\r\n                contracts[k++] = activeContracts[i];\r\n            }\r\n        }\r\n\r\n        return contracts;\r\n    }\r\n\r\n    function getActiveContractsByAddressAndOffsetAndLimit(string memory addressToSearchFor, uint256 offset, uint256 limit)  public view returns (address[] memory) {\r\n        uint256 activeContractsByAddressCount = getActiveContractsByAddressCount(addressToSearchFor);\r\n        require(activeContractsByAddressCount > offset, \"Offset greater than list length\");\r\n\r\n        address[] memory contracts = activeContractsByAddressCount > offset + limit \r\n            ? new address[](limit) \r\n            : new address[](activeContractsByAddressCount - offset);\r\n\r\n        address[] memory activeContractsByAddress = getActiveContractsByAddress(addressToSearchFor);\r\n        for (uint256 i = offset; i < offset + limit; i++) {\r\n            if (i >= activeContractsByAddress.length) {\r\n                break;\r\n            }\r\n            contracts[i - offset] = activeContractsByAddress[i];\r\n\r\n        }\r\n\r\n        return contracts;\r\n    }\r\n\r\n    function getForSaleContractsByAddressCount(string memory addressToSearchFor) public view returns (uint256) {\r\n        uint256 k = 0;\r\n        for (uint256 i = 0; i < titleContracts.length; i++) {\r\n            if (IAccessPropertyTitleMethods(titleContracts[i]).contractState() == PropertyTitleContractState.FOR_SALE &&\r\n                stringContains(IAccessPropertyTitleMethods(titleContracts[i]).getFullPropertyAddress(), addressToSearchFor)) {\r\n                k++;\r\n            }\r\n        }\r\n\r\n        return k;\r\n    }\r\n\r\n    function getForSaleContractsCount() public view returns (uint256) {\r\n        uint256 k = 0;\r\n        for (uint256 i = 0; i < titleContracts.length; i++) {\r\n            if (IAccessPropertyTitleMethods(titleContracts[i]).contractState() == PropertyTitleContractState.FOR_SALE) {\r\n                k++;\r\n            } \r\n        }\r\n\r\n        return k;\r\n    }\r\n\r\n\r\n    function getForSaleContracts() public view returns (address[] memory) {\r\n        address[] memory contracts = new address[](getForSaleContractsCount());\r\n\r\n        uint256 k = 0;\r\n        for (uint256 i = 0; i < titleContracts.length; i++) {\r\n            if (IAccessPropertyTitleMethods(titleContracts[i]).contractState() == PropertyTitleContractState.FOR_SALE) {\r\n                contracts[k++] = titleContracts[i];\r\n            }\r\n        }\r\n\r\n        return contracts;\r\n    }\r\n\r\n    function getForSaleContractsByAddress(string memory addressToSearchFor) public view returns (address[] memory) {\r\n        address[] memory contracts = new address[](getActiveContractsByAddressCount(addressToSearchFor));\r\n\r\n        address[] memory activeContracts = getActiveContracts();\r\n        uint256 k = 0;\r\n        for (uint256 i = 0; i < activeContracts.length; i++) {\r\n            if (stringContains(IAccessPropertyTitleMethods(activeContracts[i]).getFullPropertyAddress(), addressToSearchFor)) {\r\n                contracts[k++] = activeContracts[i];\r\n            }\r\n        }\r\n\r\n        return contracts;\r\n    }\r\n\r\n    function getForSaleContractsByAddressAndOffsetAndLimit(string memory addressToSearchFor, uint256 offset, uint256 limit)  public view returns (address[] memory) {\r\n        uint256 forSaleContractsByAddressCount = getForSaleContractsByAddressCount(addressToSearchFor);\r\n        require(forSaleContractsByAddressCount > offset, \"Offset greater than list length\");\r\n\r\n        address[] memory contracts = forSaleContractsByAddressCount > offset + limit \r\n            ? new address[](limit) \r\n            : new address[](forSaleContractsByAddressCount - offset);\r\n\r\n        address[] memory forSaleContractsByAddress = getForSaleContractsByAddress(addressToSearchFor);\r\n        for (uint256 i = offset; i < offset + limit; i++) {\r\n            if (i >= forSaleContractsByAddress.length) {\r\n                break;\r\n            }\r\n            contracts[i - offset] = forSaleContractsByAddress[i];\r\n\r\n        }\r\n\r\n        return contracts;\r\n    }\r\n\r\n    function stringContains(string memory stringToSearchIn, string memory stringToSearchFor) public pure returns (bool) {\r\n        bytes memory stringToSearchForBytes = bytes (stringToSearchFor);\r\n        bytes memory stringToSearchInBytes = bytes (stringToSearchIn);\r\n\r\n        require(stringToSearchInBytes.length >= stringToSearchForBytes.length);\r\n\r\n        bool found = false;\r\n        for (uint i = 0; i <= stringToSearchInBytes.length - stringToSearchForBytes.length; i++) {\r\n            bool flag = true;\r\n            for (uint j = 0; j < stringToSearchForBytes.length; j++)\r\n                if (stringToSearchForBytes [i + j] != stringToSearchForBytes [j]) {\r\n                    flag = false;\r\n                    break;\r\n                }\r\n            if (flag) {\r\n                found = true;\r\n                break;\r\n            }\r\n        }\r\n        \r\n        return found;\r\n    }\r\n\r\n    modifier onlyRegistrar {\r\n        require(isRegistrar[msg.sender] == true, \"Only one of the registrars has access to this functionality.\");\r\n        _;\r\n    }\r\n\r\n    modifier onlyOwner {\r\n        require(isOwner[msg.sender] == true, \"Only one of the owners has access to this functionality.\");\r\n        _;\r\n    }\r\n}",
  "sourcePath": "D:\\Propty\\propty\\contracts\\contracts\\TitleCreatingContract.sol",
  "compiler": {
    "name": "solc",
    "version": "0.8.16+commit.07a7930e.Emscripten.clang"
  },
  "schemaVersion": "3.4.9",
  "updatedAt": "2022-12-11T10:00:06.301Z",
  "networkType": "ethereum",
  "devdoc": {
    "kind": "dev",
    "methods": {},
    "version": 1
  },
  "userdoc": {
    "kind": "user",
    "methods": {},
    "version": 1
  }
}