{
  "contractName": "TitleCreatingContract",
  "abi": [
    {
      "inputs": [
        {
          "internalType": "address[]",
          "name": "_owners",
          "type": "address[]"
        }
      ],
      "stateMutability": "nonpayable",
      "type": "constructor"
    },
    {
      "inputs": [
        {
          "internalType": "address",
          "name": "",
          "type": "address"
        }
      ],
      "name": "isOwner",
      "outputs": [
        {
          "internalType": "bool",
          "name": "",
          "type": "bool"
        }
      ],
      "stateMutability": "view",
      "type": "function",
      "constant": true
    },
    {
      "inputs": [
        {
          "internalType": "address",
          "name": "",
          "type": "address"
        }
      ],
      "name": "isRegistrar",
      "outputs": [
        {
          "internalType": "bool",
          "name": "",
          "type": "bool"
        }
      ],
      "stateMutability": "view",
      "type": "function",
      "constant": true
    },
    {
      "inputs": [
        {
          "internalType": "uint256",
          "name": "",
          "type": "uint256"
        }
      ],
      "name": "owners",
      "outputs": [
        {
          "internalType": "address",
          "name": "",
          "type": "address"
        }
      ],
      "stateMutability": "view",
      "type": "function",
      "constant": true
    },
    {
      "inputs": [
        {
          "internalType": "address",
          "name": "",
          "type": "address"
        }
      ],
      "name": "propertyTitleContractsValidity",
      "outputs": [
        {
          "internalType": "bool",
          "name": "",
          "type": "bool"
        }
      ],
      "stateMutability": "view",
      "type": "function",
      "constant": true
    },
    {
      "inputs": [
        {
          "internalType": "uint256",
          "name": "",
          "type": "uint256"
        }
      ],
      "name": "registrars",
      "outputs": [
        {
          "internalType": "address",
          "name": "",
          "type": "address"
        }
      ],
      "stateMutability": "view",
      "type": "function",
      "constant": true
    },
    {
      "inputs": [
        {
          "internalType": "uint256",
          "name": "",
          "type": "uint256"
        }
      ],
      "name": "titleContracts",
      "outputs": [
        {
          "internalType": "address",
          "name": "",
          "type": "address"
        }
      ],
      "stateMutability": "view",
      "type": "function",
      "constant": true
    },
    {
      "inputs": [
        {
          "internalType": "address[]",
          "name": "_registrars",
          "type": "address[]"
        }
      ],
      "name": "addRegistrars",
      "outputs": [],
      "stateMutability": "nonpayable",
      "type": "function"
    },
    {
      "inputs": [
        {
          "internalType": "address[]",
          "name": "_registrars",
          "type": "address[]"
        }
      ],
      "name": "removeRegistrarRole",
      "outputs": [],
      "stateMutability": "nonpayable",
      "type": "function"
    },
    {
      "inputs": [
        {
          "internalType": "address[]",
          "name": "_registrars",
          "type": "address[]"
        }
      ],
      "name": "reactivateRegistrarRole",
      "outputs": [],
      "stateMutability": "nonpayable",
      "type": "function"
    },
    {
      "inputs": [
        {
          "internalType": "address",
          "name": "_owner",
          "type": "address"
        },
        {
          "internalType": "string",
          "name": "_country",
          "type": "string"
        },
        {
          "internalType": "string",
          "name": "_city",
          "type": "string"
        },
        {
          "internalType": "string",
          "name": "_street",
          "type": "string"
        },
        {
          "internalType": "string",
          "name": "_streeNumber",
          "type": "string"
        },
        {
          "internalType": "uint256",
          "name": "_apartmentNumber",
          "type": "uint256"
        },
        {
          "internalType": "uint256",
          "name": "_squareMeters",
          "type": "uint256"
        },
        {
          "internalType": "uint256",
          "name": "_sellingPriceIntegralPart",
          "type": "uint256"
        },
        {
          "internalType": "uint256",
          "name": "_sellingPriceFractionalPart",
          "type": "uint256"
        },
        {
          "internalType": "uint256",
          "name": "_sellingPriceFractionalPartLength",
          "type": "uint256"
        }
      ],
      "name": "deployNewPropertyTitle",
      "outputs": [],
      "stateMutability": "nonpayable",
      "type": "function"
    },
    {
      "inputs": [
        {
          "internalType": "address",
          "name": "_contractAddress",
          "type": "address"
        }
      ],
      "name": "validatePropertyTitleContract",
      "outputs": [],
      "stateMutability": "nonpayable",
      "type": "function"
    },
    {
      "inputs": [
        {
          "internalType": "address",
          "name": "userAddress",
          "type": "address"
        }
      ],
      "name": "checkIfUserIsOwner",
      "outputs": [
        {
          "internalType": "bool",
          "name": "",
          "type": "bool"
        }
      ],
      "stateMutability": "view",
      "type": "function",
      "constant": true
    },
    {
      "inputs": [
        {
          "internalType": "address",
          "name": "userAddress",
          "type": "address"
        }
      ],
      "name": "checkIfUserIsRegistrar",
      "outputs": [
        {
          "internalType": "bool",
          "name": "",
          "type": "bool"
        }
      ],
      "stateMutability": "view",
      "type": "function",
      "constant": true
    },
    {
      "inputs": [],
      "name": "getContractOwners",
      "outputs": [
        {
          "internalType": "address[]",
          "name": "",
          "type": "address[]"
        }
      ],
      "stateMutability": "view",
      "type": "function",
      "constant": true
    },
    {
      "inputs": [],
      "name": "getContractRegistrars",
      "outputs": [
        {
          "internalType": "address[]",
          "name": "",
          "type": "address[]"
        }
      ],
      "stateMutability": "view",
      "type": "function",
      "constant": true
    },
    {
      "inputs": [],
      "name": "getContracts",
      "outputs": [
        {
          "internalType": "address[]",
          "name": "",
          "type": "address[]"
        }
      ],
      "stateMutability": "view",
      "type": "function",
      "constant": true
    },
    {
      "inputs": [],
      "name": "getPendingContractsCount",
      "outputs": [
        {
          "internalType": "uint256",
          "name": "",
          "type": "uint256"
        }
      ],
      "stateMutability": "view",
      "type": "function",
      "constant": true
    },
    {
      "inputs": [],
      "name": "getPendingContracts",
      "outputs": [
        {
          "internalType": "address[]",
          "name": "",
          "type": "address[]"
        }
      ],
      "stateMutability": "view",
      "type": "function",
      "constant": true
    },
    {
      "inputs": [
        {
          "internalType": "uint256",
          "name": "offset",
          "type": "uint256"
        },
        {
          "internalType": "uint256",
          "name": "limit",
          "type": "uint256"
        }
      ],
      "name": "getPendingContractsByOffsetAndLimit",
      "outputs": [
        {
          "internalType": "address[]",
          "name": "",
          "type": "address[]"
        }
      ],
      "stateMutability": "view",
      "type": "function",
      "constant": true
    },
    {
      "inputs": [
        {
          "internalType": "string",
          "name": "addressToSearchFor",
          "type": "string"
        }
      ],
      "name": "getActiveContractsByAddressCount",
      "outputs": [
        {
          "internalType": "uint256",
          "name": "",
          "type": "uint256"
        }
      ],
      "stateMutability": "view",
      "type": "function",
      "constant": true
    },
    {
      "inputs": [],
      "name": "getActiveContractsCount",
      "outputs": [
        {
          "internalType": "uint256",
          "name": "",
          "type": "uint256"
        }
      ],
      "stateMutability": "view",
      "type": "function",
      "constant": true
    },
    {
      "inputs": [],
      "name": "getActiveContracts",
      "outputs": [
        {
          "internalType": "address[]",
          "name": "",
          "type": "address[]"
        }
      ],
      "stateMutability": "view",
      "type": "function",
      "constant": true
    },
    {
      "inputs": [
        {
          "internalType": "string",
          "name": "addressToSearchFor",
          "type": "string"
        }
      ],
      "name": "getActiveContractsByAddress",
      "outputs": [
        {
          "internalType": "address[]",
          "name": "",
          "type": "address[]"
        }
      ],
      "stateMutability": "view",
      "type": "function",
      "constant": true
    },
    {
      "inputs": [
        {
          "internalType": "string",
          "name": "addressToSearchFor",
          "type": "string"
        },
        {
          "internalType": "uint256",
          "name": "offset",
          "type": "uint256"
        },
        {
          "internalType": "uint256",
          "name": "limit",
          "type": "uint256"
        }
      ],
      "name": "getActiveContractsByAddressAndOffsetAndLimit",
      "outputs": [
        {
          "internalType": "address[]",
          "name": "",
          "type": "address[]"
        }
      ],
      "stateMutability": "view",
      "type": "function",
      "constant": true
    },
    {
      "inputs": [
        {
          "internalType": "string",
          "name": "addressToSearchFor",
          "type": "string"
        }
      ],
      "name": "getForSaleContractsByAddressCount",
      "outputs": [
        {
          "internalType": "uint256",
          "name": "",
          "type": "uint256"
        }
      ],
      "stateMutability": "view",
      "type": "function",
      "constant": true
    },
    {
      "inputs": [],
      "name": "getForSaleContractsCount",
      "outputs": [
        {
          "internalType": "uint256",
          "name": "",
          "type": "uint256"
        }
      ],
      "stateMutability": "view",
      "type": "function",
      "constant": true
    },
    {
      "inputs": [],
      "name": "getForSaleContracts",
      "outputs": [
        {
          "internalType": "address[]",
          "name": "",
          "type": "address[]"
        }
      ],
      "stateMutability": "view",
      "type": "function",
      "constant": true
    },
    {
      "inputs": [
        {
          "internalType": "string",
          "name": "addressToSearchFor",
          "type": "string"
        }
      ],
      "name": "getForSaleContractsByAddress",
      "outputs": [
        {
          "internalType": "address[]",
          "name": "",
          "type": "address[]"
        }
      ],
      "stateMutability": "view",
      "type": "function",
      "constant": true
    },
    {
      "inputs": [
        {
          "internalType": "string",
          "name": "addressToSearchFor",
          "type": "string"
        },
        {
          "internalType": "uint256",
          "name": "offset",
          "type": "uint256"
        },
        {
          "internalType": "uint256",
          "name": "limit",
          "type": "uint256"
        }
      ],
      "name": "getForSaleContractsByAddressAndOffsetAndLimit",
      "outputs": [
        {
          "internalType": "address[]",
          "name": "",
          "type": "address[]"
        }
      ],
      "stateMutability": "view",
      "type": "function",
      "constant": true
    },
    {
      "inputs": [
        {
          "internalType": "string",
          "name": "stringToSearchIn",
          "type": "string"
        },
        {
          "internalType": "string",
          "name": "stringToSearchFor",
          "type": "string"
        }
      ],
      "name": "stringContains",
      "outputs": [
        {
          "internalType": "bool",
          "name": "",
          "type": "bool"
        }
      ],
      "stateMutability": "pure",
      "type": "function",
      "constant": true
    }
  ],
  "bytecode": "0x60806040523480156200001157600080fd5b506040516200504b3803806200504b833981016040819052620000349162000149565b60005b8151811015620000f55760008282815181106200005857620000586200021b565b6020908102919091018101518254600180820185556000948552928420018054600160a060020a031916600160a060020a03909216919091179055835190918291859085908110620000ae57620000ae6200021b565b602090810291909101810151600160a060020a03168252810191909152604001600020805460ff191691151591909117905580620000ec816200024a565b91505062000037565b50506200028b565b7f4e487b7100000000000000000000000000000000000000000000000000000000600052604160045260246000fd5b8051600160a060020a03811681146200014457600080fd5b919050565b600060208083850312156200015d57600080fd5b825167ffffffffffffffff808211156200017657600080fd5b818501915085601f8301126200018b57600080fd5b815181811115620001a057620001a0620000fd565b838102604051601f19603f83011681018181108582111715620001c757620001c7620000fd565b604052918252848201925083810185019188831115620001e657600080fd5b938501935b828510156200020f57620001ff856200012c565b84529385019392850192620001eb565b98975050505050505050565b7f4e487b7100000000000000000000000000000000000000000000000000000000600052603260045260246000fd5b60006001820162000284577f4e487b7100000000000000000000000000000000000000000000000000000000600052601160045260246000fd5b5060010190565b614db0806200029b6000396000f3fe60806040523480156200001157600080fd5b50600436106200021e576000357c01000000000000000000000000000000000000000000000000000000009004806373b928cb1162000136578063c70c17f311620000cc578063ed63455c1162000097578063ed63455c146200049e578063f33c4ff914620004b5578063f972b7ce14620004cc578063fb163e6914620004d657600080fd5b8063c70c17f31462000431578063ce29b8cc1462000448578063d4950d91146200046e578063d5db72eb146200047857600080fd5b8063a210bee2116200010d578063a210bee214620003ef578063ad44a5e41462000406578063c2168c591462000410578063c3a2a93a146200042757600080fd5b806373b928cb14620003b75780638ffb2f7b14620003c157806395cc333914620003d857600080fd5b806331deb99111620001b85780635a44e3b711620001835780635a44e3b7146200035b5780635e0d99a114620003725780635fcf3c7714620003895780637211899514620003a057600080fd5b806331deb991146200030c57806333c368ed146200031657806333cf5ef8146200032d5780633ab007ed146200034457600080fd5b80630e47dbd911620001f95780630e47dbd9146200028c57806312f8383214620002a55780632a58812e14620002bc5780632f54bf6e14620002d557600080fd5b8063022edd351462000223578063025e7c2714620002455780630acae46e1462000275575b600080fd5b6200022d620004e0565b6040516200023c919062001f89565b60405180910390f35b6200025c6200025636600462001fcc565b62000728565b604051600160a060020a0390911681526020016200023c565b6200022d62000286366004620020ba565b62000753565b62000296620008f0565b6040519081526020016200023c565b6200025c620002b636600462001fcc565b62000a83565b620002d3620002cd36600462002129565b62000a94565b005b620002fb620002e636600462002224565b60016020526000908152604090205460ff1681565b60405190151581526020016200023c565b6200029662000b5d565b6200022d62000327366004620020ba565b62000c3c565b620002d36200033e36600462002249565b62000dc4565b6200022d6200035536600462002302565b62000f0c565b6200022d6200036c36600462002343565b620010b1565b6200022d6200038336600462002302565b62001245565b620002966200039a36600462002302565b6200134d565b620002d3620003b136600462002249565b62001599565b6200022d62001643565b62000296620003d236600462002302565b620017d5565b620002d3620003e936600462002249565b620018d7565b6200025c6200040036600462001fcc565b62001981565b6200022d62001992565b620002d36200042136600462002224565b62001b24565b6200022d62001bd7565b620002fb6200044236600462002224565b62001c3b565b620002fb6200045936600462002224565b60056020526000908152604090205460ff1681565b6200022d62001c72565b620002fb6200048936600462002224565b60036020526000908152604090205460ff1681565b620002fb620004af36600462002366565b62001cd4565b620002fb620004c636600462002224565b62001e0c565b6200022d62001e3a565b6200029662001e9c565b60606000620004ee620008f0565b67ffffffffffffffff81111562000509576200050962001fe6565b60405190808252806020026020018201604052801562000533578160200160208202803683370190505b5090506000805b60045481101562000720576001600482815481106200055d576200055d620023ea565b600091825260209182902001546040805160e560020a63042904f70281529051600160a060020a03909216926385209ee0926004808401938290030181865afa158015620005af573d6000803e3d6000fd5b505050506040513d601f19601f82011682018060405250810190620005d5919062002403565b6003811115620005e957620005e9620023d1565b1480620006975750600260048281548110620006095762000609620023ea565b600091825260209182902001546040805160e560020a63042904f70281529051600160a060020a03909216926385209ee0926004808401938290030181865afa1580156200065b573d6000803e3d6000fd5b505050506040513d601f19601f8201168201806040525081019062000681919062002403565b6003811115620006955762000695620023d1565b145b156200070b5760048181548110620006b357620006b3620023ea565b600091825260209091200154600160a060020a03168383620006d5816200243f565b945081518110620006ea57620006ea620023ea565b6020026020010190600160a060020a03169081600160a060020a0316815250505b8062000717816200243f565b9150506200053a565b509092915050565b600081815481106200073957600080fd5b600091825260209091200154600160a060020a0316905081565b606060006200076285620017d5565b9050838111620007925760405160e560020a62461bcd02815260040162000789906200245b565b60405180910390fd5b6000620007a0848662002492565b8211620007ff57620007b38583620024a8565b67ffffffffffffffff811115620007ce57620007ce62001fe6565b604051908082528060200260200182016040528015620007f8578160200160208202803683370190505b5062000847565b8367ffffffffffffffff8111156200081b576200081b62001fe6565b60405190808252806020026020018201604052801562000845578160200160208202803683370190505b505b90506000620008568762001245565b9050855b62000866868862002492565b811015620008e4578151811015620008e4578181815181106200088d576200088d620023ea565b6020026020010151838883620008a49190620024a8565b81518110620008b757620008b7620023ea565b600160a060020a039092166020928302919091019091015280620008db816200243f565b9150506200085a565b50909695505050505050565b600080805b60045481101562000a7d57600160048281548110620009185762000918620023ea565b600091825260209182902001546040805160e560020a63042904f70281529051600160a060020a03909216926385209ee0926004808401938290030181865afa1580156200096a573d6000803e3d6000fd5b505050506040513d601f19601f8201168201806040525081019062000990919062002403565b6003811115620009a457620009a4620023d1565b148062000a525750600260048281548110620009c457620009c4620023ea565b600091825260209182902001546040805160e560020a63042904f70281529051600160a060020a03909216926385209ee0926004808401938290030181865afa15801562000a16573d6000803e3d6000fd5b505050506040513d601f19601f8201168201806040525081019062000a3c919062002403565b600381111562000a505762000a50620023d1565b145b1562000a68578162000a64816200243f565b9250505b8062000a74816200243f565b915050620008f5565b50919050565b600281815481106200073957600080fd5b6000308b8b8b8b8b8b8b8b8b8b60405162000aaf9062001f7b565b62000ac59b9a9998979695949392919062002512565b604051809103906000f08015801562000ae2573d6000803e3d6000fd5b5060048054600181019091557f8a35acfbc15ff81a39ae7d344fd709f28e8600b4aa8c65c6b64bfe7fe36bd19b018054600160a060020a0390921673ffffffffffffffffffffffffffffffffffffffff19909216821790556000908152600560205260409020805460ff191690555050505050505050505050565b600080805b60045481101562000a7d5760026004828154811062000b855762000b85620023ea565b600091825260209182902001546040805160e560020a63042904f70281529051600160a060020a03909216926385209ee0926004808401938290030181865afa15801562000bd7573d6000803e3d6000fd5b505050506040513d601f19601f8201168201806040525081019062000bfd919062002403565b600381111562000c115762000c11620023d1565b0362000c27578162000c23816200243f565b9250505b8062000c33816200243f565b91505062000b62565b6060600062000c4b856200134d565b905083811162000c725760405160e560020a62461bcd02815260040162000789906200245b565b600062000c80848662002492565b821162000cdf5762000c938583620024a8565b67ffffffffffffffff81111562000cae5762000cae62001fe6565b60405190808252806020026020018201604052801562000cd8578160200160208202803683370190505b5062000d27565b8367ffffffffffffffff81111562000cfb5762000cfb62001fe6565b60405190808252806020026020018201604052801562000d25578160200160208202803683370190505b505b9050600062000d368762000f0c565b9050855b62000d46868862002492565b811015620008e4578151811015620008e45781818151811062000d6d5762000d6d620023ea565b602002602001015183888362000d849190620024a8565b8151811062000d975762000d97620023ea565b600160a060020a03909216602092830291909101909101528062000dbb816200243f565b91505062000d3a565b3360009081526001602081905260409091205460ff1615151462000dff5760405160e560020a62461bcd0281526004016200078990620025b5565b60005b815181101562000f085762000e3382828151811062000e255762000e25620023ea565b602002602001015162001c3b565b62000ef357600282828151811062000e4f5762000e4f620023ea565b602090810291909101810151825460018082018555600094855292842001805473ffffffffffffffffffffffffffffffffffffffff1916600160a060020a039092169190911790558351909160039185908590811062000eb35762000eb3620023ea565b6020026020010151600160a060020a0316600160a060020a0316815260200190815260200160002060006101000a81548160ff0219169083151502179055505b8062000eff816200243f565b91505062000e02565b5050565b6060600062000f1b836200134d565b67ffffffffffffffff81111562000f365762000f3662001fe6565b60405190808252806020026020018201604052801562000f60578160200160208202803683370190505b509050600062000f6f620004e0565b90506000805b8251811015620010a7576200102b83828151811062000f985762000f98620023ea565b6020026020010151600160a060020a031663790d15de6040518163ffffffff167c0100000000000000000000000000000000000000000000000000000000028152600401600060405180830381865afa15801562000ffa573d6000803e3d6000fd5b505050506040513d6000823e601f3d908101601f1916820160405262001024919081019062002612565b8762001cd4565b156200109257828181518110620010465762001046620023ea565b60200260200101518483806200105c906200243f565b945081518110620010715762001071620023ea565b6020026020010190600160a060020a03169081600160a060020a0316815250505b806200109e816200243f565b91505062000f75565b5091949350505050565b60606000620010bf62001e9c565b9050838111620010e65760405160e560020a62461bcd02815260040162000789906200245b565b6000620010f4848662002492565b82116200115357620011078583620024a8565b67ffffffffffffffff81111562001122576200112262001fe6565b6040519080825280602002602001820160405280156200114c578160200160208202803683370190505b506200119b565b8367ffffffffffffffff8111156200116f576200116f62001fe6565b60405190808252806020026020018201604052801562001199578160200160208202803683370190505b505b90506000620011a962001992565b9050855b620011b9868862002492565b81101562001238576004548110156200123857818181518110620011e157620011e1620023ea565b6020026020010151838883620011f89190620024a8565b815181106200120b576200120b620023ea565b600160a060020a0390921660209283029190910190910152806200122f816200243f565b915050620011ad565b5090925050505b92915050565b6060600062001254836200134d565b67ffffffffffffffff8111156200126f576200126f62001fe6565b60405190808252806020026020018201604052801562001299578160200160208202803683370190505b5090506000620012a8620004e0565b90506000805b8251811015620010a757620012d183828151811062000f985762000f98620023ea565b156200133857828181518110620012ec57620012ec620023ea565b602002602001015184838062001302906200243f565b945081518110620013175762001317620023ea565b6020026020010190600160a060020a03169081600160a060020a0316815250505b8062001344816200243f565b915050620012ae565b600080805b6004548110156200159257600160048281548110620013755762001375620023ea565b600091825260209182902001546040805160e560020a63042904f70281529051600160a060020a03909216926385209ee0926004808401938290030181865afa158015620013c7573d6000803e3d6000fd5b505050506040513d601f19601f82011682018060405250810190620013ed919062002403565b6003811115620014015762001401620023d1565b1480620015675750600260048281548110620014215762001421620023ea565b600091825260209182902001546040805160e560020a63042904f70281529051600160a060020a03909216926385209ee0926004808401938290030181865afa15801562001473573d6000803e3d6000fd5b505050506040513d601f19601f8201168201806040525081019062001499919062002403565b6003811115620014ad57620014ad620023d1565b1480156200156757506200156760048281548110620014d057620014d0620023ea565b6000918252602082200154604080517f790d15de0000000000000000000000000000000000000000000000000000000081529051600160a060020a039092169263790d15de926004808401938290030181865afa15801562001536573d6000803e3d6000fd5b505050506040513d6000823e601f3d908101601f1916820160405262001560919081019062002612565b8562001cd4565b156200157d578162001579816200243f565b9250505b8062001589816200243f565b91505062001352565b5092915050565b3360009081526001602081905260409091205460ff16151514620015d45760405160e560020a62461bcd0281526004016200078990620025b5565b60005b815181101562000f0857600160036000848481518110620015fc57620015fc620023ea565b602090810291909101810151600160a060020a03168252810191909152604001600020805460ff1916911515919091179055806200163a816200243f565b915050620015d7565b606060006200165162000b5d565b67ffffffffffffffff8111156200166c576200166c62001fe6565b60405190808252806020026020018201604052801562001696578160200160208202803683370190505b5090506000805b6004548110156200072057600260048281548110620016c057620016c0620023ea565b600091825260209182902001546040805160e560020a63042904f70281529051600160a060020a03909216926385209ee0926004808401938290030181865afa15801562001712573d6000803e3d6000fd5b505050506040513d601f19601f8201168201806040525081019062001738919062002403565b60038111156200174c576200174c620023d1565b03620017c05760048181548110620017685762001768620023ea565b600091825260209091200154600160a060020a031683836200178a816200243f565b9450815181106200179f576200179f620023ea565b6020026020010190600160a060020a03169081600160a060020a0316815250505b80620017cc816200243f565b9150506200169d565b600080805b6004548110156200159257600260048281548110620017fd57620017fd620023ea565b600091825260209182902001546040805160e560020a63042904f70281529051600160a060020a03909216926385209ee0926004808401938290030181865afa1580156200184f573d6000803e3d6000fd5b505050506040513d601f19601f8201168201806040525081019062001875919062002403565b6003811115620018895762001889620023d1565b148015620018ac5750620018ac60048281548110620014d057620014d0620023ea565b15620018c25781620018be816200243f565b9250505b80620018ce816200243f565b915050620017da565b3360009081526001602081905260409091205460ff16151514620019125760405160e560020a62461bcd0281526004016200078990620025b5565b60005b815181101562000f08576000600360008484815181106200193a576200193a620023ea565b602090810291909101810151600160a060020a03168252810191909152604001600020805460ff19169115159190911790558062001978816200243f565b91505062001915565b600481815481106200073957600080fd5b60606000620019a062001e9c565b67ffffffffffffffff811115620019bb57620019bb62001fe6565b604051908082528060200260200182016040528015620019e5578160200160208202803683370190505b5090506000805b600454811015620007205760006004828154811062001a0f5762001a0f620023ea565b600091825260209182902001546040805160e560020a63042904f70281529051600160a060020a03909216926385209ee0926004808401938290030181865afa15801562001a61573d6000803e3d6000fd5b505050506040513d601f19601f8201168201806040525081019062001a87919062002403565b600381111562001a9b5762001a9b620023d1565b0362001b0f576004818154811062001ab75762001ab7620023ea565b600091825260209091200154600160a060020a0316838362001ad9816200243f565b94508151811062001aee5762001aee620023ea565b6020026020010190600160a060020a03169081600160a060020a0316815250505b8062001b1b816200243f565b915050620019ec565b3360009081526003602052604090205460ff16151560011462001bb35760405160e560020a62461bcd02815260206004820152603c60248201527f4f6e6c79206f6e65206f6620746865207265676973747261727320686173206160448201527f636365737320746f20746869732066756e6374696f6e616c6974792e00000000606482015260840162000789565b600160a060020a03166000908152600560205260409020805460ff19166001179055565b6060600480548060200260200160405190810160405280929190818152602001828054801562001c3157602002820191906000526020600020905b8154600160a060020a0316815260019091019060200180831162001c12575b5050505050905090565b600160a060020a038116600090815260016020819052604082205460ff161515900362001c6a57506001919050565b506000919050565b6060600080548060200260200160405190810160405280929190818152602001828054801562001c3157602002820191906000526020600020908154600160a060020a0316815260019091019060200180831162001c12575050505050905090565b8051825160009183918591111562001ceb57600080fd5b6000805b8351835162001cff9190620024a8565b811162001e0257600160005b855181101562001dd95785818151811062001d2a5762001d2a620023ea565b602001015160f860020a900460f860020a027effffffffffffffffffffffffffffffffffffffffffffffffffffffffffffff191686828562001d6d919062002492565b8151811062001d805762001d80620023ea565b602001015160f860020a900460f860020a027effffffffffffffffffffffffffffffffffffffffffffffffffffffffffffff19161462001dc4576000915062001dd9565b8062001dd0816200243f565b91505062001d0b565b50801562001dec57600192505062001e02565b508062001df9816200243f565b91505062001cef565b5095945050505050565b600160a060020a03811660009081526003602052604081205460ff16151560010362001c6a57506001919050565b6060600280548060200260200160405190810160405280929190818152602001828054801562001c3157602002820191906000526020600020908154600160a060020a0316815260019091019060200180831162001c12575050505050905090565b600080805b60045481101562000a7d5760006004828154811062001ec45762001ec4620023ea565b600091825260209182902001546040805160e560020a63042904f70281529051600160a060020a03909216926385209ee0926004808401938290030181865afa15801562001f16573d6000803e3d6000fd5b505050506040513d601f19601f8201168201806040525081019062001f3c919062002403565b600381111562001f505762001f50620023d1565b0362001f66578162001f62816200243f565b9250505b8062001f72816200243f565b91505062001ea1565b6126e8806200269383390190565b6020808252825182820181905260009190848201906040850190845b81811015620008e4578351600160a060020a03168352928401929184019160010162001fa5565b60006020828403121562001fdf57600080fd5b5035919050565b60e060020a634e487b7102600052604160045260246000fd5b604051601f8201601f1916810167ffffffffffffffff811182821017156200202b576200202b62001fe6565b604052919050565b600067ffffffffffffffff82111562002050576200205062001fe6565b50601f01601f191660200190565b600082601f8301126200207057600080fd5b813562002087620020818262002033565b62001fff565b8181528460208386010111156200209d57600080fd5b816020850160208301376000918101602001919091529392505050565b600080600060608486031215620020d057600080fd5b833567ffffffffffffffff811115620020e857600080fd5b620020f6868287016200205e565b9660208601359650604090950135949350505050565b8035600160a060020a03811681146200212457600080fd5b919050565b6000806000806000806000806000806101408b8d0312156200214a57600080fd5b620021558b6200210c565b995060208b013567ffffffffffffffff808211156200217357600080fd5b620021818e838f016200205e565b9a5060408d01359150808211156200219857600080fd5b620021a68e838f016200205e565b995060608d0135915080821115620021bd57600080fd5b620021cb8e838f016200205e565b985060808d0135915080821115620021e257600080fd5b50620021f18d828e016200205e565b9a9d999c50979a96999860a0880135985060c08801359760e0810135975061010081013596506101200135945092505050565b6000602082840312156200223757600080fd5b62002242826200210c565b9392505050565b600060208083850312156200225d57600080fd5b823567ffffffffffffffff808211156200227657600080fd5b818501915085601f8301126200228b57600080fd5b813581811115620022a057620022a062001fe6565b8381029150620022b284830162001fff565b8181529183018401918481019088841115620022cd57600080fd5b938501935b83851015620022f657620022e6856200210c565b82529385019390850190620022d2565b98975050505050505050565b6000602082840312156200231557600080fd5b813567ffffffffffffffff8111156200232d57600080fd5b6200233b848285016200205e565b949350505050565b600080604083850312156200235757600080fd5b50508035926020909101359150565b600080604083850312156200237a57600080fd5b823567ffffffffffffffff808211156200239357600080fd5b620023a1868387016200205e565b93506020850135915080821115620023b857600080fd5b50620023c7858286016200205e565b9150509250929050565b60e060020a634e487b7102600052602160045260246000fd5b60e060020a634e487b7102600052603260045260246000fd5b6000602082840312156200241657600080fd5b8151600481106200224257600080fd5b60e060020a634e487b7102600052601160045260246000fd5b60006001820162002454576200245462002426565b5060010190565b6020808252601f908201527f4f66667365742067726561746572207468616e206c697374206c656e67746800604082015260600190565b808201808211156200123f576200123f62002426565b818103818111156200123f576200123f62002426565b60005b83811015620024db578181015183820152602001620024c1565b50506000910152565b60008151808452620024fe816020860160208601620024be565b601f01601f19169290920160200192915050565b6000610160600160a060020a03808f168452808e16602085015250806040840152620025418184018d620024e4565b9050828103606084015262002557818c620024e4565b905082810360808401526200256d818b620024e4565b905082810360a084015262002583818a620024e4565b60c0840198909852505060e0810194909452610100840192909252610120830152610140909101529695505050505050565b60208082526038908201527f4f6e6c79206f6e65206f6620746865206f776e6572732068617320616363657360408201527f7320746f20746869732066756e6374696f6e616c6974792e0000000000000000606082015260800190565b6000602082840312156200262557600080fd5b815167ffffffffffffffff8111156200263d57600080fd5b8201601f810184136200264f57600080fd5b805162002660620020818262002033565b8181528560208385010111156200267657600080fd5b62002689826020830160208601620024be565b9594505050505056fe60806040523480156200001157600080fd5b50604051620026e8380380620026e8833981016040819052620000349162000322565b60048054600160a060020a038d8116600160a060020a03199283161790925560058054928d16929091169190911790556000805460ff1916905560076200007c8a82620004ec565b5060086200008b8982620004ec565b5060096200009a8882620004ec565b50600a620000a98782620004ec565b50600b859055600c848155600184905560028390556003829055604080518082019091529081527f4e6f742050726f766964656400000000000000000000000000000000000000006020820152600d90620001059082620004ec565b5060408051808201909152600c81527f4e6f742050726f766964656400000000000000000000000000000000000000006020820152600e90620001499082620004ec565b5060408051808201909152600c81527f4e6f742050726f766964656400000000000000000000000000000000000000006020820152600f906200018d9082620004ec565b5060408051808201909152600c81527f4e6f742050726f766964656400000000000000000000000000000000000000006020820152601090620001d19082620004ec565b5060408051808201909152600c81527f4e6f742050726f766964656400000000000000000000000000000000000000006020820152601190620002159082620004ec565b505050505050505050505050620005be565b8051600160a060020a03811681146200023f57600080fd5b919050565b7f4e487b7100000000000000000000000000000000000000000000000000000000600052604160045260246000fd5b600082601f8301126200028557600080fd5b81516001604060020a0380821115620002a257620002a262000244565b604051601f8301601f19908116603f01168101908282118183101715620002cd57620002cd62000244565b81604052838152602092508683858801011115620002ea57600080fd5b600091505b838210156200030e5785820183015181830184015290820190620002ef565b600093810190920192909252949350505050565b60008060008060008060008060008060006101608c8e0312156200034557600080fd5b620003508c62000227565b9a506200036060208d0162000227565b995060408c01516001604060020a038111156200037c57600080fd5b6200038a8e828f0162000273565b99505060608c01516001604060020a03811115620003a757600080fd5b620003b58e828f0162000273565b98505060808c01516001604060020a03811115620003d257600080fd5b620003e08e828f0162000273565b97505060a08c01516001604060020a03811115620003fd57600080fd5b6200040b8e828f0162000273565b96505060c08c0151945060e08c015193506101008c015192506101208c015191506101408c015190509295989b509295989b9093969950565b6002810460018216806200045957607f821691505b60208210810362000493577f4e487b7100000000000000000000000000000000000000000000000000000000600052602260045260246000fd5b50919050565b601f821115620004e7576000818152602081206020601f86010481016020861015620004c25750805b6020601f860104820191505b81811015620004e357828155600101620004ce565b5050505b505050565b81516001604060020a0381111562000508576200050862000244565b620005208162000519845462000444565b8462000499565b602080601f8311600181146200055c57600084156200053f5750858301515b60028086026008870290910a6000190419821617865550620004e3565b600085815260208120601f198616915b828110156200058d578886015182559484019460019091019084016200056c565b5085821015620005ae57878501516008601f88160260020a60001904191681555b5050505050600202600101905550565b61211a80620005ce6000396000f3fe60806040526004361061014a576000357c01000000000000000000000000000000000000000000000000000000009004806385209ee0116100c857806397035a071161008c57806397035a07146105eb5780639dfc91171461060b578063b3cbb32c1461063f578063b6366d921461065f578063daca4eef1461067f578063f5cfb032146106a557600080fd5b806385209ee01461054f57806385329517146105765780638d97bee8146105965780638da5cb5b146105b6578063953fe3cc146105d657600080fd5b80635293c8381161010f5780635293c8381461049a578063536f5c36146104ca57806372b50109146104ed57806374bdde491461050d578063790d15de1461052d57600080fd5b80627dc372146103b557806302d05d3f146103e657806312821b5e1461041e5780633d7a44921461045857806341fa17661461047a57600080fd5b366103b05760006006805460ff1690811115610168576101686115cc565b148061018a575060036006805460ff1690811115610188576101886115cc565b145b6102045760405160e560020a62461bcd02815260206004820152603760248201527f546869732070726f706572747927732074656e757265207479706520646f657360448201527f206e6f7420737570706f7274206265696e6720736f6c6400000000000000000060648201526084015b60405180910390fd5b600260005460ff16600381111561021d5761021d6115cc565b1461026d5760405160e560020a62461bcd02815260206004820152601e60248201527f546869732070726f7065727479206973206e6f7420666f722073616c652e000060448201526064016101fb565b600360005460ff166003811115610286576102866115cc565b036102a65760405160e560020a62461bcd0281526004016101fb906115e5565b6003546000906102b790601261165b565b6102c290600a611755565b6002546102cf9190611768565b6001546102e490670de0b6b3a7640000611768565b6102ee9190611787565b905033318111156103445760405160e560020a62461bcd02815260206004820152601260248201527f496e73756666696369656e742066756e6473000000000000000000000000000060448201526064016101fb565b600554604051600160a060020a03909116903480156108fc02916000818181858888f1935050505015801561037d573d6000803e3d6000fd5b506000805460ff19166001179055600580543373ffffffffffffffffffffffffffffffffffffffff199091168117909155005b600080fd5b3480156103c157600080fd5b506103ca6106c5565b6040516103dd97969594939291906117ea565b60405180910390f35b3480156103f257600080fd5b5060045461040690600160a060020a031681565b604051600160a060020a0390911681526020016103dd565b34801561042a57600080fd5b5060015460025460035461043d92919083565b604080519384526020840192909252908201526060016103dd565b34801561046457600080fd5b5061047861047336600461191e565b610916565b005b34801561048657600080fd5b50610478610495366004611996565b6109c1565b3480156104a657600080fd5b506104ba6104b53660046119dd565b610a93565b60405190151581526020016103dd565b3480156104d657600080fd5b506104df610af0565b6040519081526020016103dd565b3480156104f957600080fd5b50610478610508366004611ad2565b610b3a565b34801561051957600080fd5b50610478610528366004611b13565b610c6d565b34801561053957600080fd5b50610542610dbd565b6040516103dd9190611bf4565b34801561055b57600080fd5b506000546105699060ff1681565b6040516103dd9190611c1b565b34801561058257600080fd5b50610478610591366004611c29565b610def565b3480156105a257600080fd5b506104786105b1366004611c55565b610e8a565b3480156105c257600080fd5b5060055461040690600160a060020a031681565b3480156105e257600080fd5b506104ba610f40565b3480156105f757600080fd5b50610478610606366004611c7f565b611087565b34801561061757600080fd5b506004546005546000546040516103dd93600160a060020a0390811693169160ff1690611c9a565b34801561064b57600080fd5b506104ba61065a36600461191e565b61114d565b34801561066b57600080fd5b5061047861067a366004611cc7565b6111b6565b34801561068b57600080fd5b5061069461125a565b6040516103dd959493929190611ce0565b3480156106b157600080fd5b506104786106c0366004611d4d565b611524565b600680546007805460ff90921692916106dd90611d68565b80601f016020809104026020016040519081016040528092919081815260200182805461070990611d68565b80156107565780601f1061072b57610100808354040283529160200191610756565b820191906000526020600020905b81548152906001019060200180831161073957829003601f168201915b50505050509080600201805461076b90611d68565b80601f016020809104026020016040519081016040528092919081815260200182805461079790611d68565b80156107e45780601f106107b9576101008083540402835291602001916107e4565b820191906000526020600020905b8154815290600101906020018083116107c757829003601f168201915b5050505050908060030180546107f990611d68565b80601f016020809104026020016040519081016040528092919081815260200182805461082590611d68565b80156108725780601f1061084757610100808354040283529160200191610872565b820191906000526020600020905b81548152906001019060200180831161085557829003601f168201915b50505050509080600401805461088790611d68565b80601f01602080910402602001604051908101604052809291908181526020018280546108b390611d68565b80156109005780601f106108d557610100808354040283529160200191610900565b820191906000526020600020905b8154815290600101906020018083116108e357829003601f168201915b5050505050908060050154908060060154905087565b61091e610f40565b61093d5760405160e560020a62461bcd0281526004016101fb90611da5565b600554600160a060020a0316331461096a5760405160e560020a62461bcd0281526004016101fb90611e02565b600360005460ff166003811115610983576109836115cc565b036109a35760405160e560020a62461bcd0281526004016101fb906115e5565b60096109af8382611ead565b50600a6109bc8282611ead565b505050565b6109c9610f40565b6109e85760405160e560020a62461bcd0281526004016101fb90611da5565b600554600160a060020a03163314610a155760405160e560020a62461bcd0281526004016101fb90611e02565b600360005460ff166003811115610a2e57610a2e6115cc565b03610a4e5760405160e560020a62461bcd0281526004016101fb906115e5565b60018581556002859055600384905560068054849260ff19909116908383811115610a7b57610a7b6115cc565b0217905550600c5550506000805460ff191690555050565b6000805b8251811015610ae457610ac384848381518110610ab657610ab6611f73565b602002602001015161114d565b15610ad2576001915050610aea565b80610adc81611f8c565b915050610a97565b50600090505b92915050565b6003546000908190610b0390601261165b565b610b0e90600a611755565b600254610b1b9190611768565b600154610b3090670de0b6b3a7640000611768565b610aea9190611787565b600480546040517ff33c4ff90000000000000000000000000000000000000000000000000000000081523392810192909252600160a060020a03169063f33c4ff990602401602060405180830381865afa158015610b9c573d6000803e3d6000fd5b505050506040513d601f19601f82011682018060405250810190610bc09190611fa5565b1515600114610be45760405160e560020a62461bcd0281526004016101fb90611fc7565b600360005460ff166003811115610bfd57610bfd6115cc565b03610c1d5760405160e560020a62461bcd0281526004016101fb906115e5565b6005805473ffffffffffffffffffffffffffffffffffffffff1916600160a060020a0384161790556000805482919060ff19166001836003811115610c6457610c646115cc565b02179055505050565b600480546040517ff33c4ff90000000000000000000000000000000000000000000000000000000081523392810192909252600160a060020a03169063f33c4ff990602401602060405180830381865afa158015610ccf573d6000803e3d6000fd5b505050506040513d601f19601f82011682018060405250810190610cf39190611fa5565b1515600114610d175760405160e560020a62461bcd0281526004016101fb90611fc7565b600360005460ff166003811115610d3057610d306115cc565b03610d505760405160e560020a62461bcd0281526004016101fb906115e5565b600d610d5c8782611ead565b50600e610d698682611ead565b50600f610d768582611ead565b506010610d838482611ead565b506011610d908382611ead565b506000805482919060ff19166001836003811115610db057610db06115cc565b0217905550505050505050565b604051606090610ddb90600790600890600990600a90602001612097565b604051602081830303815290604052905090565b610df7610f40565b610e165760405160e560020a62461bcd0281526004016101fb90611da5565b600554600160a060020a03163314610e435760405160e560020a62461bcd0281526004016101fb90611e02565b600360005460ff166003811115610e5c57610e5c6115cc565b03610e7c5760405160e560020a62461bcd0281526004016101fb906115e5565b600192909255600255600355565b600554600160a060020a03163314610eb75760405160e560020a62461bcd0281526004016101fb90611e02565b610ebf610f40565b610ede5760405160e560020a62461bcd0281526004016101fb90611da5565b600360005460ff166003811115610ef757610ef76115cc565b03610f175760405160e560020a62461bcd0281526004016101fb906115e5565b6006805483919060ff191660018383811115610f3557610f356115cc565b0217905550600c5550565b600061100e600d6000018054610f5590611d68565b80601f0160208091040260200160405190810160405280929190818152602001828054610f8190611d68565b8015610fce5780601f10610fa357610100808354040283529160200191610fce565b820191906000526020600020905b815481529060010190602001808311610fb157829003601f168201915b50505050506040518060400160405280600881526020017f50726f766964656400000000000000000000000000000000000000000000000081525061114d565b80156110285750611028600d6001018054610f5590611d68565b80156110425750611042600d6002018054610f5590611d68565b801561105c575061105c600d6003018054610f5590611d68565b80156110765750611076600d6004018054610f5590611d68565b156110815750600190565b50600090565b61108f610f40565b6110ae5760405160e560020a62461bcd0281526004016101fb90611da5565b600554600160a060020a031633146110db5760405160e560020a62461bcd0281526004016101fb90611e02565b600360005460ff1660038111156110f4576110f46115cc565b036111145760405160e560020a62461bcd0281526004016101fb906115e5565b6006805482919060ff191660018383811115611132576111326115cc565b021790555060008054819060ff19166001825b021790555050565b6000815183511461116057506000610aea565b8160405160200161117191906120c8565b604051602081830303815290604052805190602001208360405160200161119891906120c8565b60405160208183030381529060405280519060200120149050610aea565b6111be610f40565b6111dd5760405160e560020a62461bcd0281526004016101fb90611da5565b600554600160a060020a0316331461120a5760405160e560020a62461bcd0281526004016101fb90611e02565b600360005460ff166003811115611223576112236115cc565b036112435760405160e560020a62461bcd0281526004016101fb906115e5565b600c81905560008054819060ff1916600182611145565b600d8054819061126990611d68565b80601f016020809104026020016040519081016040528092919081815260200182805461129590611d68565b80156112e25780601f106112b7576101008083540402835291602001916112e2565b820191906000526020600020905b8154815290600101906020018083116112c557829003601f168201915b5050505050908060010180546112f790611d68565b80601f016020809104026020016040519081016040528092919081815260200182805461132390611d68565b80156113705780601f1061134557610100808354040283529160200191611370565b820191906000526020600020905b81548152906001019060200180831161135357829003601f168201915b50505050509080600201805461138590611d68565b80601f01602080910402602001604051908101604052809291908181526020018280546113b190611d68565b80156113fe5780601f106113d3576101008083540402835291602001916113fe565b820191906000526020600020905b8154815290600101906020018083116113e157829003601f168201915b50505050509080600301805461141390611d68565b80601f016020809104026020016040519081016040528092919081815260200182805461143f90611d68565b801561148c5780601f106114615761010080835404028352916020019161148c565b820191906000526020600020905b81548152906001019060200180831161146f57829003601f168201915b5050505050908060040180546114a190611d68565b80601f01602080910402602001604051908101604052809291908181526020018280546114cd90611d68565b801561151a5780601f106114ef5761010080835404028352916020019161151a565b820191906000526020600020905b8154815290600101906020018083116114fd57829003601f168201915b5050505050905085565b61152c610f40565b61154b5760405160e560020a62461bcd0281526004016101fb90611da5565b600554600160a060020a031633146115785760405160e560020a62461bcd0281526004016101fb90611e02565b600360005460ff166003811115611591576115916115cc565b036115b15760405160e560020a62461bcd0281526004016101fb906115e5565b6000805482919060ff19166001836003811115611145576111455b60e060020a634e487b7102600052602160045260246000fd5b60208082526032908201527f546869732050726f7065727479205469746c6520436f6e74726163742069732060408201527f6e6f206c6f6e6765722072656c6176616e740000000000000000000000000000606082015260800190565b60e060020a634e487b7102600052601160045260246000fd5b81810381811115610aea57610aea611642565b600181815b808511156116ab57816000190482111561168f5761168f611642565b8085161561169c57918102915b60029094049390800290611673565b509250929050565b6000826116c257506001610aea565b816116cf57506000610aea565b81600181146116e557600281146116ef5761170c565b6001915050610aea565b60ff84111561170057611700611642565b8360020a915050610aea565b5060208310610133831016604e8410600b841016171561172f575081810a610aea565b611739838361166e565b806000190482111561174d5761174d611642565b029392505050565b600061176183836116b3565b9392505050565b600081600019048311821515161561178257611782611642565b500290565b80820180821115610aea57610aea611642565b60005b838110156117b557818101518382015260200161179d565b50506000910152565b600081518084526117d681602086016020860161179a565b601f01601f19169290920160200192915050565b6000600789106117fc576117fc6115cc565b88825260e0602083015261181360e08301896117be565b828103604084015261182581896117be565b9050828103606084015261183981886117be565b9050828103608084015261184d81876117be565b60a0840195909552505060c0015295945050505050565b60e060020a634e487b7102600052604160045260246000fd5b604051601f8201601f1916810167ffffffffffffffff811182821017156118a6576118a6611864565b604052919050565b600082601f8301126118bf57600080fd5b813567ffffffffffffffff8111156118d9576118d9611864565b6118ec601f8201601f191660200161187d565b81815284602083860101111561190157600080fd5b816020850160208301376000918101602001919091529392505050565b6000806040838503121561193157600080fd5b823567ffffffffffffffff8082111561194957600080fd5b611955868387016118ae565b9350602085013591508082111561196b57600080fd5b50611978858286016118ae565b9150509250929050565b80356007811061199157600080fd5b919050565b600080600080600060a086880312156119ae57600080fd5b8535945060208601359350604086013592506119cc60608701611982565b949793965091946080013592915050565b600080604083850312156119f057600080fd5b823567ffffffffffffffff80821115611a0857600080fd5b611a14868387016118ae565b9350602091508185013581811115611a2b57600080fd5b8501601f81018713611a3c57600080fd5b803582811115611a4e57611a4e611864565b838102611a5c85820161187d565b918252828101850191858101908a841115611a7657600080fd5b86850192505b83831015611ab257823586811115611a945760008081fd5b611aa28c89838901016118ae565b8352509186019190860190611a7c565b809750505050505050509250929050565b80356004811061199157600080fd5b60008060408385031215611ae557600080fd5b8235600160a060020a0381168114611afc57600080fd5b9150611b0a60208401611ac3565b90509250929050565b60008060008060008060c08789031215611b2c57600080fd5b863567ffffffffffffffff80821115611b4457600080fd5b611b508a838b016118ae565b97506020890135915080821115611b6657600080fd5b611b728a838b016118ae565b96506040890135915080821115611b8857600080fd5b611b948a838b016118ae565b95506060890135915080821115611baa57600080fd5b611bb68a838b016118ae565b94506080890135915080821115611bcc57600080fd5b50611bd989828a016118ae565b925050611be860a08801611ac3565b90509295509295509295565b60208152600061176160208301846117be565b60048110611c1757611c176115cc565b9052565b60208101610aea8284611c07565b600080600060608486031215611c3e57600080fd5b505081359360208301359350604090920135919050565b60008060408385031215611c6857600080fd5b611c7183611982565b946020939093013593505050565b600060208284031215611c9157600080fd5b61176182611982565b600160a060020a0384811682528316602082015260608101611cbf6040830184611c07565b949350505050565b600060208284031215611cd957600080fd5b5035919050565b60a081526000611cf360a08301886117be565b8281036020840152611d0581886117be565b90508281036040840152611d1981876117be565b90508281036060840152611d2d81866117be565b90508281036080840152611d4181856117be565b98975050505050505050565b600060208284031215611d5f57600080fd5b61176182611ac3565b600281046001821680611d7c57607f821691505b602082108103611d9f5760e060020a634e487b7102600052602260045260246000fd5b50919050565b60208082526024908201527f5468652070726f7065727479206973206e6f74206c6567616c6c7920616c726960408201527f6768742e00000000000000000000000000000000000000000000000000000000606082015260800190565b60208082526032908201527f4f6e6c7920746865206f776e6572206f662074686520436f6e7472616374206860408201527f61732061636365737320746f2074686973210000000000000000000000000000606082015260800190565b601f8211156109bc576000818152602081206020601f86010481016020861015611e865750805b6020601f860104820191505b81811015611ea557828155600101611e92565b505050505050565b815167ffffffffffffffff811115611ec757611ec7611864565b611edb81611ed58454611d68565b84611e5f565b602080601f831160018114611f145760008415611ef85750858301515b60028086026008870290910a6000190419821617865550611ea5565b600085815260208120601f198616915b82811015611f4357888601518255948401946001909101908401611f24565b5085821015611f6357878501516008601f88160260020a60001904191681555b5050505050600202600101905550565b60e060020a634e487b7102600052603260045260246000fd5b600060018201611f9e57611f9e611642565b5060010190565b600060208284031215611fb757600080fd5b8151801515811461176157600080fd5b60208082526036908201527f4f6e6c792061207265676973746572656420726567697374726172206861732060408201527f61636365737320746f207468697320616374696f6e2e00000000000000000000606082015260800190565b6000815461203181611d68565b60018281168015612049576001811461205e5761208d565b60ff198416875282151583028701945061208d565b8560005260208060002060005b858110156120845781548a82015290840190820161206b565b50505082870194505b5050505092915050565b60006120be6120b86120b26120ac858a612024565b88612024565b86612024565b84612024565b9695505050505050565b600082516120da81846020870161179a565b919091019291505056fea26469706673582212204062e15577df2f00090d795e1ecb8f8cf128405f5ea2684867faad8babf31b5f64736f6c63430008100033a26469706673582212208f31f4eaf30e3bad87b8f8a349f766ab8341f6fe96ca835e6827c3d39f312abc64736f6c63430008100033",
  "immutableReferences": {},
  "source": "//SPDX-License-Identifier: MIT\r\npragma solidity ^0.8.16;\r\n\r\nimport \"./PropertyTitle.sol\";\r\n\r\ninterface IAccessPropertyTitleMethods {\r\n    function contractState() external view returns (PropertyTitleContractState);\r\n    function getFullPropertyAddress() external view returns (string memory);\r\n}\r\n\r\ncontract TitleCreatingContract {\r\n    address[] public owners;\r\n    mapping (address => bool) public isOwner;\r\n\r\n    address[] public registrars;\r\n    mapping (address => bool) public isRegistrar;\r\n\r\n    address[] public titleContracts;\r\n    mapping (address => bool) public propertyTitleContractsValidity;\r\n\r\n    constructor(address[] memory _owners)\r\n    {\r\n        for (uint256 i = 0; i < _owners.length; i++) {\r\n            owners.push(_owners[i]);\r\n            isOwner[_owners[i]] = true;\r\n        }\r\n    }\r\n\r\n    function addRegistrars(address[] memory _registrars) public onlyOwner {\r\n        for (uint256 i = 0; i < _registrars.length; i++) {\r\n            if (!checkIfUserIsOwner(_registrars[i])) {\r\n                registrars.push(_registrars[i]);\r\n                isRegistrar[_registrars[i]] = true;\r\n            }\r\n        }\r\n    }\r\n\r\n    function removeRegistrarRole(address[] memory _registrars) public onlyOwner {\r\n        for (uint256 i = 0; i < _registrars.length; i++) {\r\n            isRegistrar[_registrars[i]] = false;\r\n        }\r\n    }\r\n\r\n    function reactivateRegistrarRole(address[] memory _registrars) public onlyOwner {\r\n        for (uint256 i = 0; i < _registrars.length; i++) {\r\n            isRegistrar[_registrars[i]] = true;\r\n        }\r\n    }\r\n\r\n    function deployNewPropertyTitle(\r\n        address _owner,\r\n        string memory _country,\r\n        string memory _city,\r\n        string memory _street,\r\n        string memory _streeNumber,\r\n        uint256 _apartmentNumber,\r\n        uint256 _squareMeters,\r\n        uint256 _sellingPriceIntegralPart,\r\n        uint256 _sellingPriceFractionalPart,\r\n        uint256  _sellingPriceFractionalPartLength\r\n    )\r\n        public\r\n    {\r\n        PropertyTitle propertyTitle = new PropertyTitle(\r\n            address(this),\r\n            _owner,\r\n            _country,\r\n            _city,\r\n            _street,\r\n            _streeNumber,\r\n            _apartmentNumber,\r\n            _squareMeters,\r\n            _sellingPriceIntegralPart,\r\n            _sellingPriceFractionalPart,\r\n            _sellingPriceFractionalPartLength\r\n        );\r\n        titleContracts.push(address(propertyTitle));\r\n        propertyTitleContractsValidity[address(propertyTitle)] = false;\r\n    }\r\n\r\n    function validatePropertyTitleContract(address _contractAddress) public onlyRegistrar {\r\n        propertyTitleContractsValidity[_contractAddress] = true;\r\n    }\r\n\r\n    function checkIfUserIsOwner(address userAddress) public view returns (bool) {\r\n        if (isOwner[userAddress] == true) {\r\n            return true;\r\n        }\r\n        return false;    \r\n    }\r\n\r\n    function checkIfUserIsRegistrar(address userAddress) public view returns (bool) {\r\n        if (isRegistrar[userAddress] == true) {\r\n            return true;\r\n        }\r\n        return false;\r\n    }\r\n\r\n    function getContractOwners() public view returns (address[] memory) {\r\n        return owners;\r\n    }\r\n\r\n    function getContractRegistrars() public view returns (address[] memory) {\r\n        return registrars;\r\n    }\r\n\r\n    function getContracts() public view returns (address[] memory) {\r\n        return titleContracts;\r\n    }\r\n\r\n    function getPendingContractsCount() public view returns (uint256) {\r\n        uint256 k = 0;\r\n        for (uint256 i = 0; i < titleContracts.length; i++) {\r\n            if (IAccessPropertyTitleMethods(titleContracts[i]).contractState() == PropertyTitleContractState.PENDING) {\r\n                k++;\r\n            } \r\n        }\r\n\r\n        return k;\r\n    }\r\n\r\n    function getPendingContracts() public view returns (address[] memory) {\r\n        address[] memory contracts = new address[](getPendingContractsCount());\r\n\r\n        uint256 k = 0;\r\n        for (uint256 i = 0; i < titleContracts.length; i++) {\r\n            if (IAccessPropertyTitleMethods(titleContracts[i]).contractState() == PropertyTitleContractState.PENDING) {\r\n                contracts[k++] = titleContracts[i];\r\n            } \r\n        }\r\n\r\n        return contracts;\r\n    }\r\n\r\n    function getPendingContractsByOffsetAndLimit(uint256 offset, uint256 limit) public view returns (address[] memory) {\r\n        uint256 pendingContractsCount = getPendingContractsCount();\r\n        require(pendingContractsCount > offset, \"Offset greater than list length\");\r\n\r\n        address[] memory contracts = pendingContractsCount > offset + limit \r\n            ? new address[](limit) \r\n            : new address[](pendingContractsCount - offset);\r\n\r\n        address[] memory pendingContracts = getPendingContracts();\r\n        for (uint256 i = offset; i < offset + limit; i++) {\r\n            if (i >= titleContracts.length) {\r\n                break;\r\n            }\r\n            contracts[i - offset] = pendingContracts[i];\r\n        }\r\n\r\n        return contracts;\r\n    }\r\n\r\n    function getActiveContractsByAddressCount(string memory addressToSearchFor) public view returns (uint256) {\r\n        uint256 k = 0;\r\n        for (uint256 i = 0; i < titleContracts.length; i++) {\r\n            if (IAccessPropertyTitleMethods(titleContracts[i]).contractState() == PropertyTitleContractState.OWNED ||\r\n                IAccessPropertyTitleMethods(titleContracts[i]).contractState() == PropertyTitleContractState.FOR_SALE &&\r\n                stringContains(IAccessPropertyTitleMethods(titleContracts[i]).getFullPropertyAddress(), addressToSearchFor)) {\r\n                k++;\r\n            } \r\n        }\r\n\r\n        return k;\r\n    }\r\n\r\n    function getActiveContractsCount() public view returns (uint256) {\r\n        uint256 k = 0;\r\n        for (uint256 i = 0; i < titleContracts.length; i++) {\r\n            if (IAccessPropertyTitleMethods(titleContracts[i]).contractState() == PropertyTitleContractState.OWNED ||\r\n                IAccessPropertyTitleMethods(titleContracts[i]).contractState() == PropertyTitleContractState.FOR_SALE) {\r\n                k++;\r\n            } \r\n        }\r\n\r\n        return k;\r\n    }\r\n\r\n    function getActiveContracts() public view returns (address[] memory) {\r\n        address[] memory contracts = new address[](getActiveContractsCount());\r\n\r\n        uint256 k = 0;\r\n        for (uint256 i = 0; i < titleContracts.length; i++) {\r\n            if (IAccessPropertyTitleMethods(titleContracts[i]).contractState() == PropertyTitleContractState.OWNED ||\r\n                IAccessPropertyTitleMethods(titleContracts[i]).contractState() == PropertyTitleContractState.FOR_SALE) {\r\n                contracts[k++] = titleContracts[i];\r\n            }\r\n        }\r\n\r\n        return contracts;\r\n    }\r\n\r\n    function getActiveContractsByAddress(string memory addressToSearchFor) public view returns (address[] memory) {\r\n        address[] memory contracts = new address[](getActiveContractsByAddressCount(addressToSearchFor));\r\n\r\n        address[] memory activeContracts = getActiveContracts();\r\n        uint256 k = 0;\r\n        for (uint256 i = 0; i < activeContracts.length; i++) {\r\n            if (stringContains(IAccessPropertyTitleMethods(activeContracts[i]).getFullPropertyAddress(), addressToSearchFor)) {\r\n                contracts[k++] = activeContracts[i];\r\n            }\r\n        }\r\n\r\n        return contracts;\r\n    }\r\n\r\n    function getActiveContractsByAddressAndOffsetAndLimit(string memory addressToSearchFor, uint256 offset, uint256 limit)  public view returns (address[] memory) {\r\n        uint256 activeContractsByAddressCount = getActiveContractsByAddressCount(addressToSearchFor);\r\n        require(activeContractsByAddressCount > offset, \"Offset greater than list length\");\r\n\r\n        address[] memory contracts = activeContractsByAddressCount > offset + limit \r\n            ? new address[](limit) \r\n            : new address[](activeContractsByAddressCount - offset);\r\n\r\n        address[] memory activeContractsByAddress = getActiveContractsByAddress(addressToSearchFor);\r\n        for (uint256 i = offset; i < offset + limit; i++) {\r\n            if (i >= activeContractsByAddress.length) {\r\n                break;\r\n            }\r\n            contracts[i - offset] = activeContractsByAddress[i];\r\n\r\n        }\r\n\r\n        return contracts;\r\n    }\r\n\r\n    function getForSaleContractsByAddressCount(string memory addressToSearchFor) public view returns (uint256) {\r\n        uint256 k = 0;\r\n        for (uint256 i = 0; i < titleContracts.length; i++) {\r\n            if (IAccessPropertyTitleMethods(titleContracts[i]).contractState() == PropertyTitleContractState.FOR_SALE &&\r\n                stringContains(IAccessPropertyTitleMethods(titleContracts[i]).getFullPropertyAddress(), addressToSearchFor)) {\r\n                k++;\r\n            }\r\n        }\r\n\r\n        return k;\r\n    }\r\n\r\n    function getForSaleContractsCount() public view returns (uint256) {\r\n        uint256 k = 0;\r\n        for (uint256 i = 0; i < titleContracts.length; i++) {\r\n            if (IAccessPropertyTitleMethods(titleContracts[i]).contractState() == PropertyTitleContractState.FOR_SALE) {\r\n                k++;\r\n            } \r\n        }\r\n\r\n        return k;\r\n    }\r\n\r\n\r\n    function getForSaleContracts() public view returns (address[] memory) {\r\n        address[] memory contracts = new address[](getForSaleContractsCount());\r\n\r\n        uint256 k = 0;\r\n        for (uint256 i = 0; i < titleContracts.length; i++) {\r\n            if (IAccessPropertyTitleMethods(titleContracts[i]).contractState() == PropertyTitleContractState.FOR_SALE) {\r\n                contracts[k++] = titleContracts[i];\r\n            }\r\n        }\r\n\r\n        return contracts;\r\n    }\r\n\r\n    function getForSaleContractsByAddress(string memory addressToSearchFor) public view returns (address[] memory) {\r\n        address[] memory contracts = new address[](getActiveContractsByAddressCount(addressToSearchFor));\r\n\r\n        address[] memory activeContracts = getActiveContracts();\r\n        uint256 k = 0;\r\n        for (uint256 i = 0; i < activeContracts.length; i++) {\r\n            if (stringContains(IAccessPropertyTitleMethods(activeContracts[i]).getFullPropertyAddress(), addressToSearchFor)) {\r\n                contracts[k++] = activeContracts[i];\r\n            }\r\n        }\r\n\r\n        return contracts;\r\n    }\r\n\r\n    function getForSaleContractsByAddressAndOffsetAndLimit(string memory addressToSearchFor, uint256 offset, uint256 limit)  public view returns (address[] memory) {\r\n        uint256 forSaleContractsByAddressCount = getForSaleContractsByAddressCount(addressToSearchFor);\r\n        require(forSaleContractsByAddressCount > offset, \"Offset greater than list length\");\r\n\r\n        address[] memory contracts = forSaleContractsByAddressCount > offset + limit \r\n            ? new address[](limit) \r\n            : new address[](forSaleContractsByAddressCount - offset);\r\n\r\n        address[] memory forSaleContractsByAddress = getForSaleContractsByAddress(addressToSearchFor);\r\n        for (uint256 i = offset; i < offset + limit; i++) {\r\n            if (i >= forSaleContractsByAddress.length) {\r\n                break;\r\n            }\r\n            contracts[i - offset] = forSaleContractsByAddress[i];\r\n\r\n        }\r\n\r\n        return contracts;\r\n    }\r\n\r\n    function stringContains(string memory stringToSearchIn, string memory stringToSearchFor) public pure returns (bool) {\r\n        bytes memory stringToSearchForBytes = bytes (stringToSearchFor);\r\n        bytes memory stringToSearchInBytes = bytes (stringToSearchIn);\r\n\r\n        require(stringToSearchInBytes.length >= stringToSearchForBytes.length);\r\n\r\n        bool found = false;\r\n        for (uint i = 0; i <= stringToSearchInBytes.length - stringToSearchForBytes.length; i++) {\r\n            bool flag = true;\r\n            for (uint j = 0; j < stringToSearchForBytes.length; j++)\r\n                if (stringToSearchForBytes [i + j] != stringToSearchForBytes [j]) {\r\n                    flag = false;\r\n                    break;\r\n                }\r\n            if (flag) {\r\n                found = true;\r\n                break;\r\n            }\r\n        }\r\n        \r\n        return found;\r\n    }\r\n\r\n    modifier onlyRegistrar {\r\n        require(isRegistrar[msg.sender] == true, \"Only one of the registrars has access to this functionality.\");\r\n        _;\r\n    }\r\n\r\n    modifier onlyOwner {\r\n        require(isOwner[msg.sender] == true, \"Only one of the owners has access to this functionality.\");\r\n        _;\r\n    }\r\n}",
  "sourcePath": "D:\\Propty\\propty\\contracts\\contracts\\TitleCreatingContract.sol",
  "compiler": {
    "name": "solc",
    "version": "0.8.16+commit.07a7930e.Emscripten.clang"
  },
  "schemaVersion": "3.4.9",
  "updatedAt": "2022-12-10T18:50:45.801Z",
  "networkType": "ethereum",
  "devdoc": {
    "kind": "dev",
    "methods": {},
    "version": 1
  },
  "userdoc": {
    "kind": "user",
    "methods": {},
    "version": 1
  }
}