{
  "contractName": "TitleCreatingContract",
  "abi": [
    {
      "inputs": [
        {
          "internalType": "address[]",
          "name": "_owners",
          "type": "address[]"
        }
      ],
      "stateMutability": "nonpayable",
      "type": "constructor"
    },
    {
      "anonymous": false,
      "inputs": [
        {
          "indexed": true,
          "internalType": "address",
          "name": "ownerAddress",
          "type": "address"
        },
        {
          "indexed": true,
          "internalType": "address",
          "name": "titleContractAddress",
          "type": "address"
        }
      ],
      "name": "NewTitleContract",
      "type": "event"
    },
    {
      "inputs": [
        {
          "internalType": "address",
          "name": "",
          "type": "address"
        }
      ],
      "name": "isOwner",
      "outputs": [
        {
          "internalType": "bool",
          "name": "",
          "type": "bool"
        }
      ],
      "stateMutability": "view",
      "type": "function",
      "constant": true
    },
    {
      "inputs": [
        {
          "internalType": "address",
          "name": "",
          "type": "address"
        }
      ],
      "name": "isRegistrar",
      "outputs": [
        {
          "internalType": "bool",
          "name": "",
          "type": "bool"
        }
      ],
      "stateMutability": "view",
      "type": "function",
      "constant": true
    },
    {
      "inputs": [
        {
          "internalType": "uint256",
          "name": "",
          "type": "uint256"
        }
      ],
      "name": "owners",
      "outputs": [
        {
          "internalType": "address",
          "name": "",
          "type": "address"
        }
      ],
      "stateMutability": "view",
      "type": "function",
      "constant": true
    },
    {
      "inputs": [
        {
          "internalType": "address",
          "name": "",
          "type": "address"
        }
      ],
      "name": "propertyTitleContractsValidity",
      "outputs": [
        {
          "internalType": "bool",
          "name": "",
          "type": "bool"
        }
      ],
      "stateMutability": "view",
      "type": "function",
      "constant": true
    },
    {
      "inputs": [
        {
          "internalType": "uint256",
          "name": "",
          "type": "uint256"
        }
      ],
      "name": "registrars",
      "outputs": [
        {
          "internalType": "address",
          "name": "",
          "type": "address"
        }
      ],
      "stateMutability": "view",
      "type": "function",
      "constant": true
    },
    {
      "inputs": [
        {
          "internalType": "uint256",
          "name": "",
          "type": "uint256"
        }
      ],
      "name": "titleContracts",
      "outputs": [
        {
          "internalType": "address",
          "name": "",
          "type": "address"
        }
      ],
      "stateMutability": "view",
      "type": "function",
      "constant": true
    },
    {
      "inputs": [
        {
          "internalType": "address[]",
          "name": "_registrars",
          "type": "address[]"
        }
      ],
      "name": "addRegistrars",
      "outputs": [],
      "stateMutability": "nonpayable",
      "type": "function"
    },
    {
      "inputs": [
        {
          "internalType": "address[]",
          "name": "_registrars",
          "type": "address[]"
        }
      ],
      "name": "removeRegistrarRole",
      "outputs": [],
      "stateMutability": "nonpayable",
      "type": "function"
    },
    {
      "inputs": [
        {
          "internalType": "address[]",
          "name": "_registrars",
          "type": "address[]"
        }
      ],
      "name": "reactivateRegistrarRole",
      "outputs": [],
      "stateMutability": "nonpayable",
      "type": "function"
    },
    {
      "inputs": [
        {
          "internalType": "address",
          "name": "_owner",
          "type": "address"
        },
        {
          "internalType": "string",
          "name": "_country",
          "type": "string"
        },
        {
          "internalType": "string",
          "name": "_city",
          "type": "string"
        },
        {
          "internalType": "string",
          "name": "_street",
          "type": "string"
        },
        {
          "internalType": "string",
          "name": "_streeNumber",
          "type": "string"
        },
        {
          "internalType": "uint256",
          "name": "_apartmentNumber",
          "type": "uint256"
        },
        {
          "internalType": "uint256",
          "name": "_squareMeters",
          "type": "uint256"
        },
        {
          "internalType": "uint256",
          "name": "_sellingPriceIntegralPart",
          "type": "uint256"
        },
        {
          "internalType": "uint256",
          "name": "_sellingPriceFractionalPart",
          "type": "uint256"
        },
        {
          "internalType": "uint256",
          "name": "_sellingPriceFractionalPartLength",
          "type": "uint256"
        }
      ],
      "name": "deployNewPropertyTitle",
      "outputs": [],
      "stateMutability": "nonpayable",
      "type": "function"
    },
    {
      "inputs": [
        {
          "internalType": "address",
          "name": "_contractAddress",
          "type": "address"
        }
      ],
      "name": "validatePropertyTitleContract",
      "outputs": [],
      "stateMutability": "nonpayable",
      "type": "function"
    },
    {
      "inputs": [
        {
          "internalType": "address",
          "name": "userAddress",
          "type": "address"
        }
      ],
      "name": "checkIfUserIsOwner",
      "outputs": [
        {
          "internalType": "bool",
          "name": "",
          "type": "bool"
        }
      ],
      "stateMutability": "view",
      "type": "function",
      "constant": true
    },
    {
      "inputs": [
        {
          "internalType": "address",
          "name": "userAddress",
          "type": "address"
        }
      ],
      "name": "checkIfUserIsRegistrar",
      "outputs": [
        {
          "internalType": "bool",
          "name": "",
          "type": "bool"
        }
      ],
      "stateMutability": "view",
      "type": "function",
      "constant": true
    },
    {
      "inputs": [],
      "name": "getContractOwners",
      "outputs": [
        {
          "internalType": "address[]",
          "name": "",
          "type": "address[]"
        }
      ],
      "stateMutability": "view",
      "type": "function",
      "constant": true
    },
    {
      "inputs": [],
      "name": "getContractRegistrars",
      "outputs": [
        {
          "internalType": "address[]",
          "name": "",
          "type": "address[]"
        }
      ],
      "stateMutability": "view",
      "type": "function",
      "constant": true
    },
    {
      "inputs": [],
      "name": "getContracts",
      "outputs": [
        {
          "internalType": "address[]",
          "name": "",
          "type": "address[]"
        }
      ],
      "stateMutability": "view",
      "type": "function",
      "constant": true
    },
    {
      "inputs": [],
      "name": "getPendingContractsCount",
      "outputs": [
        {
          "internalType": "uint256",
          "name": "",
          "type": "uint256"
        }
      ],
      "stateMutability": "view",
      "type": "function",
      "constant": true
    },
    {
      "inputs": [],
      "name": "getPendingContracts",
      "outputs": [
        {
          "internalType": "address[]",
          "name": "",
          "type": "address[]"
        }
      ],
      "stateMutability": "view",
      "type": "function",
      "constant": true
    },
    {
      "inputs": [
        {
          "internalType": "uint256",
          "name": "offset",
          "type": "uint256"
        },
        {
          "internalType": "uint256",
          "name": "limit",
          "type": "uint256"
        }
      ],
      "name": "getPendingContractsByOffsetAndLimit",
      "outputs": [
        {
          "internalType": "address[]",
          "name": "",
          "type": "address[]"
        }
      ],
      "stateMutability": "view",
      "type": "function",
      "constant": true
    },
    {
      "inputs": [
        {
          "internalType": "string",
          "name": "addressToSearchFor",
          "type": "string"
        }
      ],
      "name": "getActiveContractsByAddressCount",
      "outputs": [
        {
          "internalType": "uint256",
          "name": "",
          "type": "uint256"
        }
      ],
      "stateMutability": "view",
      "type": "function",
      "constant": true
    },
    {
      "inputs": [],
      "name": "getActiveContractsCount",
      "outputs": [
        {
          "internalType": "uint256",
          "name": "",
          "type": "uint256"
        }
      ],
      "stateMutability": "view",
      "type": "function",
      "constant": true
    },
    {
      "inputs": [],
      "name": "getActiveContracts",
      "outputs": [
        {
          "internalType": "address[]",
          "name": "",
          "type": "address[]"
        }
      ],
      "stateMutability": "view",
      "type": "function",
      "constant": true
    },
    {
      "inputs": [
        {
          "internalType": "string",
          "name": "addressToSearchFor",
          "type": "string"
        }
      ],
      "name": "getActiveContractsByAddress",
      "outputs": [
        {
          "internalType": "address[]",
          "name": "",
          "type": "address[]"
        }
      ],
      "stateMutability": "view",
      "type": "function",
      "constant": true
    },
    {
      "inputs": [
        {
          "internalType": "string",
          "name": "addressToSearchFor",
          "type": "string"
        },
        {
          "internalType": "uint256",
          "name": "offset",
          "type": "uint256"
        },
        {
          "internalType": "uint256",
          "name": "limit",
          "type": "uint256"
        }
      ],
      "name": "getActiveContractsByAddressAndOffsetAndLimit",
      "outputs": [
        {
          "internalType": "address[]",
          "name": "",
          "type": "address[]"
        }
      ],
      "stateMutability": "view",
      "type": "function",
      "constant": true
    },
    {
      "inputs": [
        {
          "internalType": "string",
          "name": "addressToSearchFor",
          "type": "string"
        }
      ],
      "name": "getForSaleContractsByAddressCount",
      "outputs": [
        {
          "internalType": "uint256",
          "name": "",
          "type": "uint256"
        }
      ],
      "stateMutability": "view",
      "type": "function",
      "constant": true
    },
    {
      "inputs": [],
      "name": "getForSaleContractsCount",
      "outputs": [
        {
          "internalType": "uint256",
          "name": "",
          "type": "uint256"
        }
      ],
      "stateMutability": "view",
      "type": "function",
      "constant": true
    },
    {
      "inputs": [],
      "name": "getForSaleContracts",
      "outputs": [
        {
          "internalType": "address[]",
          "name": "",
          "type": "address[]"
        }
      ],
      "stateMutability": "view",
      "type": "function",
      "constant": true
    },
    {
      "inputs": [
        {
          "internalType": "string",
          "name": "addressToSearchFor",
          "type": "string"
        }
      ],
      "name": "getForSaleContractsByAddress",
      "outputs": [
        {
          "internalType": "address[]",
          "name": "",
          "type": "address[]"
        }
      ],
      "stateMutability": "view",
      "type": "function",
      "constant": true
    },
    {
      "inputs": [
        {
          "internalType": "string",
          "name": "addressToSearchFor",
          "type": "string"
        },
        {
          "internalType": "uint256",
          "name": "offset",
          "type": "uint256"
        },
        {
          "internalType": "uint256",
          "name": "limit",
          "type": "uint256"
        }
      ],
      "name": "getForSaleContractsByAddressAndOffsetAndLimit",
      "outputs": [
        {
          "internalType": "address[]",
          "name": "",
          "type": "address[]"
        }
      ],
      "stateMutability": "view",
      "type": "function",
      "constant": true
    },
    {
      "inputs": [
        {
          "internalType": "address",
          "name": "account",
          "type": "address"
        }
      ],
      "name": "getAccountContractsCount",
      "outputs": [
        {
          "internalType": "uint256",
          "name": "",
          "type": "uint256"
        }
      ],
      "stateMutability": "view",
      "type": "function",
      "constant": true
    },
    {
      "inputs": [
        {
          "internalType": "address",
          "name": "account",
          "type": "address"
        }
      ],
      "name": "getAccountContracts",
      "outputs": [
        {
          "internalType": "address[]",
          "name": "",
          "type": "address[]"
        }
      ],
      "stateMutability": "view",
      "type": "function",
      "constant": true
    },
    {
      "inputs": [
        {
          "internalType": "string",
          "name": "stringToSearchIn",
          "type": "string"
        },
        {
          "internalType": "string",
          "name": "stringToSearchFor",
          "type": "string"
        }
      ],
      "name": "stringContains",
      "outputs": [
        {
          "internalType": "bool",
          "name": "",
          "type": "bool"
        }
      ],
      "stateMutability": "pure",
      "type": "function",
      "constant": true
    },
    {
      "inputs": [
        {
          "internalType": "string",
          "name": "str",
          "type": "string"
        }
      ],
      "name": "toLower",
      "outputs": [
        {
          "internalType": "string",
          "name": "",
          "type": "string"
        }
      ],
      "stateMutability": "pure",
      "type": "function",
      "constant": true
    }
  ],
  "bytecode": "0x60806040523480156200001157600080fd5b506040516200571b3803806200571b833981016040819052620000349162000149565b60005b8151811015620000f55760008282815181106200005857620000586200021b565b6020908102919091018101518254600180820185556000948552928420018054600160a060020a031916600160a060020a03909216919091179055835190918291859085908110620000ae57620000ae6200021b565b602090810291909101810151600160a060020a03168252810191909152604001600020805460ff191691151591909117905580620000ec816200024a565b91505062000037565b50506200028b565b7f4e487b7100000000000000000000000000000000000000000000000000000000600052604160045260246000fd5b8051600160a060020a03811681146200014457600080fd5b919050565b600060208083850312156200015d57600080fd5b825167ffffffffffffffff808211156200017657600080fd5b818501915085601f8301126200018b57600080fd5b815181811115620001a057620001a0620000fd565b838102604051601f19603f83011681018181108582111715620001c757620001c7620000fd565b604052918252848201925083810185019188831115620001e657600080fd5b938501935b828510156200020f57620001ff856200012c565b84529385019392850192620001eb565b98975050505050505050565b7f4e487b7100000000000000000000000000000000000000000000000000000000600052603260045260246000fd5b60006001820162000284577f4e487b7100000000000000000000000000000000000000000000000000000000600052601160045260246000fd5b5060010190565b615480806200029b6000396000f3fe60806040523480156200001157600080fd5b506004361062000242576000357c0100000000000000000000000000000000000000000000000000000000900480638ffb2f7b116200014e578063c70c17f311620000d8578063e964d4e111620000a3578063e964d4e114620004ff578063ed63455c1462000516578063f33c4ff9146200052d578063f972b7ce1462000544578063fb163e69146200054e57600080fd5b8063c70c17f31462000492578063ce29b8cc14620004a9578063d4950d9114620004cf578063d5db72eb14620004d957600080fd5b8063a210bee21162000119578063a210bee21462000450578063ad44a5e41462000467578063c2168c591462000471578063c3a2a93a146200048857600080fd5b80638ffb2f7b14620003e55780639089aee314620003fc5780639416b423146200041357806395cc3339146200043957600080fd5b806333c368ed11620001d05780635e0d99a1116200019b5780635e0d99a114620003965780635fcf3c7714620003ad5780637211899514620003c457806373b928cb14620003db57600080fd5b806333c368ed146200033a57806333cf5ef814620003515780633ab007ed14620003685780635a44e3b7146200037f57600080fd5b806312f83832116200021157806312f8383214620002c95780632a58812e14620002e05780632f54bf6e14620002f957806331deb991146200033057600080fd5b8063022edd351462000247578063025e7c2714620002695780630acae46e14620002995780630e47dbd914620002b0575b600080fd5b6200025162000558565b604051620002609190620024fe565b60405180910390f35b620002806200027a36600462002541565b620007a0565b604051600160a060020a03909116815260200162000260565b62000251620002aa3660046200262f565b620007cb565b620002ba62000968565b60405190815260200162000260565b62000280620002da36600462002541565b62000afb565b620002f7620002f1366004620026ac565b62000b0c565b005b6200031f6200030a366004620027a7565b60016020526000908152604090205460ff1681565b604051901515815260200162000260565b620002ba62000c04565b620002516200034b3660046200262f565b62000ce3565b620002f762000362366004620027ce565b62000e6b565b62000251620003793660046200288c565b62000fb3565b6200025162000390366004620028cd565b62001160565b62000251620003a73660046200288c565b620012f3565b620002ba620003be3660046200288c565b620013ff565b620002f7620003d5366004620027ce565b6200162a565b62000251620016d4565b620002ba620003f63660046200288c565b62001866565b620002ba6200040d366004620027a7565b6200196c565b6200042a620004243660046200288c565b62001b0e565b60405162000260919062002944565b620002f76200044a366004620027ce565b62001ccd565b620002806200046136600462002541565b62001d77565b6200025162001d88565b620002f762000482366004620027a7565b62001f1a565b6200025162001fcd565b6200031f620004a3366004620027a7565b62002031565b6200031f620004ba366004620027a7565b60056020526000908152604090205460ff1681565b6200025162002068565b6200031f620004ea366004620027a7565b60036020526000908152604090205460ff1681565b6200025162000510366004620027a7565b620020ca565b6200031f6200052736600462002959565b62002279565b6200031f6200053e366004620027a7565b62002381565b62000251620023af565b620002ba62002411565b606060006200056662000968565b67ffffffffffffffff8111156200058157620005816200255b565b604051908082528060200260200182016040528015620005ab578160200160208202803683370190505b5090506000805b6004548110156200079857600160048281548110620005d557620005d5620029dd565b600091825260209182902001546040805160e560020a63042904f70281529051600160a060020a03909216926385209ee0926004808401938290030181865afa15801562000627573d6000803e3d6000fd5b505050506040513d601f19601f820116820180604052508101906200064d9190620029f6565b6003811115620006615762000661620029c4565b14806200070f5750600260048281548110620006815762000681620029dd565b600091825260209182902001546040805160e560020a63042904f70281529051600160a060020a03909216926385209ee0926004808401938290030181865afa158015620006d3573d6000803e3d6000fd5b505050506040513d601f19601f82011682018060405250810190620006f99190620029f6565b60038111156200070d576200070d620029c4565b145b156200078357600481815481106200072b576200072b620029dd565b600091825260209091200154600160a060020a031683836200074d8162002a32565b945081518110620007625762000762620029dd565b6020026020010190600160a060020a03169081600160a060020a0316815250505b806200078f8162002a32565b915050620005b2565b509092915050565b60008181548110620007b157600080fd5b600091825260209091200154600160a060020a0316905081565b60606000620007da8562001866565b90508381116200080a5760405160e560020a62461bcd028152600401620008019062002a4e565b60405180910390fd5b600062000818848662002a85565b821162000877576200082b858362002a9b565b67ffffffffffffffff8111156200084657620008466200255b565b60405190808252806020026020018201604052801562000870578160200160208202803683370190505b50620008bf565b8367ffffffffffffffff8111156200089357620008936200255b565b604051908082528060200260200182016040528015620008bd578160200160208202803683370190505b505b90506000620008ce87620012f3565b9050855b620008de868862002a85565b8110156200095c5781518110156200095c57818181518110620009055762000905620029dd565b60200260200101518388836200091c919062002a9b565b815181106200092f576200092f620029dd565b600160a060020a039092166020928302919091019091015280620009538162002a32565b915050620008d2565b50909695505050505050565b600080805b60045481101562000af557600160048281548110620009905762000990620029dd565b600091825260209182902001546040805160e560020a63042904f70281529051600160a060020a03909216926385209ee0926004808401938290030181865afa158015620009e2573d6000803e3d6000fd5b505050506040513d601f19601f8201168201806040525081019062000a089190620029f6565b600381111562000a1c5762000a1c620029c4565b148062000aca575060026004828154811062000a3c5762000a3c620029dd565b600091825260209182902001546040805160e560020a63042904f70281529051600160a060020a03909216926385209ee0926004808401938290030181865afa15801562000a8e573d6000803e3d6000fd5b505050506040513d601f19601f8201168201806040525081019062000ab49190620029f6565b600381111562000ac85762000ac8620029c4565b145b1562000ae0578162000adc8162002a32565b9250505b8062000aec8162002a32565b9150506200096d565b50919050565b60028181548110620007b157600080fd5b6000308b8b8b8b8b8b8b8b8b8b60405162000b2790620024f0565b62000b3d9b9a9998979695949392919062002ab1565b604051809103906000f08015801562000b5a573d6000803e3d6000fd5b5060048054600181019091557f8a35acfbc15ff81a39ae7d344fd709f28e8600b4aa8c65c6b64bfe7fe36bd19b01805473ffffffffffffffffffffffffffffffffffffffff1916600160a060020a03838116918217909255600081815260056020526040808220805460ff19169055519394509092918e16917fbda873b061a104d6bb800981d51f6d73471d2689502485a208baa54316c151d59190a35050505050505050505050565b600080805b60045481101562000af55760026004828154811062000c2c5762000c2c620029dd565b600091825260209182902001546040805160e560020a63042904f70281529051600160a060020a03909216926385209ee0926004808401938290030181865afa15801562000c7e573d6000803e3d6000fd5b505050506040513d601f19601f8201168201806040525081019062000ca49190620029f6565b600381111562000cb85762000cb8620029c4565b0362000cce578162000cca8162002a32565b9250505b8062000cda8162002a32565b91505062000c09565b6060600062000cf285620013ff565b905083811162000d195760405160e560020a62461bcd028152600401620008019062002a4e565b600062000d27848662002a85565b821162000d865762000d3a858362002a9b565b67ffffffffffffffff81111562000d555762000d556200255b565b60405190808252806020026020018201604052801562000d7f578160200160208202803683370190505b5062000dce565b8367ffffffffffffffff81111562000da25762000da26200255b565b60405190808252806020026020018201604052801562000dcc578160200160208202803683370190505b505b9050600062000ddd8762000fb3565b9050855b62000ded868862002a85565b8110156200095c5781518110156200095c5781818151811062000e145762000e14620029dd565b602002602001015183888362000e2b919062002a9b565b8151811062000e3e5762000e3e620029dd565b600160a060020a03909216602092830291909101909101528062000e628162002a32565b91505062000de1565b3360009081526001602081905260409091205460ff1615151462000ea65760405160e560020a62461bcd028152600401620008019062002b54565b60005b815181101562000faf5762000eda82828151811062000ecc5762000ecc620029dd565b602002602001015162002031565b62000f9a57600282828151811062000ef65762000ef6620029dd565b602090810291909101810151825460018082018555600094855292842001805473ffffffffffffffffffffffffffffffffffffffff1916600160a060020a039092169190911790558351909160039185908590811062000f5a5762000f5a620029dd565b6020026020010151600160a060020a0316600160a060020a0316815260200190815260200160002060006101000a81548160ff0219169083151502179055505b8062000fa68162002a32565b91505062000ea9565b5050565b6060600062000fc283620013ff565b67ffffffffffffffff81111562000fdd5762000fdd6200255b565b60405190808252806020026020018201604052801562001007578160200160208202803683370190505b50905060006200101662000558565b90506000805b82518110156200115657620010da620010cf848381518110620010435762001043620029dd565b6020026020010151600160a060020a031663790d15de6040518163ffffffff167c0100000000000000000000000000000000000000000000000000000000028152600401600060405180830381865afa158015620010a5573d6000803e3d6000fd5b505050506040513d6000823e601f3d908101601f1916820160405262000424919081019062002bb1565b620005278862001b0e565b156200114157828181518110620010f557620010f5620029dd565b60200260200101518483806200110b9062002a32565b945081518110620011205762001120620029dd565b6020026020010190600160a060020a03169081600160a060020a0316815250505b806200114d8162002a32565b9150506200101c565b5091949350505050565b606060006200116e62002411565b9050838111620011955760405160e560020a62461bcd028152600401620008019062002a4e565b6000620011a3848662002a85565b82116200120257620011b6858362002a9b565b67ffffffffffffffff811115620011d157620011d16200255b565b604051908082528060200260200182016040528015620011fb578160200160208202803683370190505b506200124a565b8367ffffffffffffffff8111156200121e576200121e6200255b565b60405190808252806020026020018201604052801562001248578160200160208202803683370190505b505b905060006200125862001d88565b9050855b62001268868862002a85565b811015620012e6578151811015620012e6578181815181106200128f576200128f620029dd565b6020026020010151838883620012a6919062002a9b565b81518110620012b957620012b9620029dd565b600160a060020a039092166020928302919091019091015280620012dd8162002a32565b9150506200125c565b5090925050505b92915050565b60606000620013028362001866565b67ffffffffffffffff8111156200131d576200131d6200255b565b60405190808252806020026020018201604052801562001347578160200160208202803683370190505b509050600062001356620016d4565b90506000805b8251811015620011565762001383620010cf848381518110620010435762001043620029dd565b15620013ea578281815181106200139e576200139e620029dd565b6020026020010151848380620013b49062002a32565b945081518110620013c957620013c9620029dd565b6020026020010190600160a060020a03169081600160a060020a0316815250505b80620013f68162002a32565b9150506200135c565b600080805b6004548110156200162357600160048281548110620014275762001427620029dd565b600091825260209182902001546040805160e560020a63042904f70281529051600160a060020a03909216926385209ee0926004808401938290030181865afa15801562001479573d6000803e3d6000fd5b505050506040513d601f19601f820116820180604052508101906200149f9190620029f6565b6003811115620014b357620014b3620029c4565b1480620015615750600260048281548110620014d357620014d3620029dd565b600091825260209182902001546040805160e560020a63042904f70281529051600160a060020a03909216926385209ee0926004808401938290030181865afa15801562001525573d6000803e3d6000fd5b505050506040513d601f19601f820116820180604052508101906200154b9190620029f6565b60038111156200155f576200155f620029c4565b145b8015620015f85750620015f8620015ed60048381548110620015875762001587620029dd565b6000918252602082200154604080517f790d15de0000000000000000000000000000000000000000000000000000000081529051600160a060020a039092169263790d15de926004808401938290030181865afa158015620010a5573d6000803e3d6000fd5b620005278662001b0e565b156200160e57816200160a8162002a32565b9250505b806200161a8162002a32565b91505062001404565b5092915050565b3360009081526001602081905260409091205460ff16151514620016655760405160e560020a62461bcd028152600401620008019062002b54565b60005b815181101562000faf576001600360008484815181106200168d576200168d620029dd565b602090810291909101810151600160a060020a03168252810191909152604001600020805460ff191691151591909117905580620016cb8162002a32565b91505062001668565b60606000620016e262000c04565b67ffffffffffffffff811115620016fd57620016fd6200255b565b60405190808252806020026020018201604052801562001727578160200160208202803683370190505b5090506000805b6004548110156200079857600260048281548110620017515762001751620029dd565b600091825260209182902001546040805160e560020a63042904f70281529051600160a060020a03909216926385209ee0926004808401938290030181865afa158015620017a3573d6000803e3d6000fd5b505050506040513d601f19601f82011682018060405250810190620017c99190620029f6565b6003811115620017dd57620017dd620029c4565b03620018515760048181548110620017f957620017f9620029dd565b600091825260209091200154600160a060020a031683836200181b8162002a32565b945081518110620018305762001830620029dd565b6020026020010190600160a060020a03169081600160a060020a0316815250505b806200185d8162002a32565b9150506200172e565b600080805b60045481101562001623576002600482815481106200188e576200188e620029dd565b600091825260209182902001546040805160e560020a63042904f70281529051600160a060020a03909216926385209ee0926004808401938290030181865afa158015620018e0573d6000803e3d6000fd5b505050506040513d601f19601f82011682018060405250810190620019069190620029f6565b60038111156200191a576200191a620029c4565b14801562001941575062001941620015ed60048381548110620015875762001587620029dd565b15620019575781620019538162002a32565b9250505b80620019638162002a32565b9150506200186b565b600080805b600454811015620016235783600160a060020a0316600482815481106200199c576200199c620029dd565b60009182526020918290200154604080517f8da5cb5b0000000000000000000000000000000000000000000000000000000081529051600160a060020a0390921692638da5cb5b926004808401938290030181865afa15801562001a04573d6000803e3d6000fd5b505050506040513d601f19601f8201168201806040525081019062001a2a919062002c31565b600160a060020a031614801562001ae3575060036004828154811062001a545762001a54620029dd565b600091825260209182902001546040805160e560020a63042904f70281529051600160a060020a03909216926385209ee0926004808401938290030181865afa15801562001aa6573d6000803e3d6000fd5b505050506040513d601f19601f8201168201806040525081019062001acc9190620029f6565b600381111562001ae05762001ae0620029c4565b14155b1562001af9578162001af58162002a32565b9250505b8062001b058162002a32565b91505062001971565b606060008290506000815167ffffffffffffffff81111562001b345762001b346200255b565b6040519080825280601f01601f19166020018201604052801562001b5f576020820181803683370190505b50905060005b825181101562001cc557604183828151811062001b865762001b86620029dd565b602001015160f860020a900460f860020a0260f860020a900460ff161015801562001be25750605a83828151811062001bc35762001bc3620029dd565b602001015160f860020a900460f860020a0260f860020a900460ff1611155b1562001c5c5782818151811062001bfd5762001bfd620029dd565b602001015160f860020a900460f860020a0260f860020a9004602062001c24919062002c51565b60f860020a0282828151811062001c3f5762001c3f620029dd565b6020010190600160f860020a031916908160001a90535062001cb0565b82818151811062001c715762001c71620029dd565b602001015160f860020a900460f860020a0282828151811062001c985762001c98620029dd565b6020010190600160f860020a031916908160001a9053505b8062001cbc8162002a32565b91505062001b65565b509392505050565b3360009081526001602081905260409091205460ff1615151462001d085760405160e560020a62461bcd028152600401620008019062002b54565b60005b815181101562000faf5760006003600084848151811062001d305762001d30620029dd565b602090810291909101810151600160a060020a03168252810191909152604001600020805460ff19169115159190911790558062001d6e8162002a32565b91505062001d0b565b60048181548110620007b157600080fd5b6060600062001d9662002411565b67ffffffffffffffff81111562001db15762001db16200255b565b60405190808252806020026020018201604052801562001ddb578160200160208202803683370190505b5090506000805b600454811015620007985760006004828154811062001e055762001e05620029dd565b600091825260209182902001546040805160e560020a63042904f70281529051600160a060020a03909216926385209ee0926004808401938290030181865afa15801562001e57573d6000803e3d6000fd5b505050506040513d601f19601f8201168201806040525081019062001e7d9190620029f6565b600381111562001e915762001e91620029c4565b0362001f05576004818154811062001ead5762001ead620029dd565b600091825260209091200154600160a060020a0316838362001ecf8162002a32565b94508151811062001ee45762001ee4620029dd565b6020026020010190600160a060020a03169081600160a060020a0316815250505b8062001f118162002a32565b91505062001de2565b3360009081526003602052604090205460ff16151560011462001fa95760405160e560020a62461bcd02815260206004820152603c60248201527f4f6e6c79206f6e65206f6620746865207265676973747261727320686173206160448201527f636365737320746f20746869732066756e6374696f6e616c6974792e00000000606482015260840162000801565b600160a060020a03166000908152600560205260409020805460ff19166001179055565b606060048054806020026020016040519081016040528092919081815260200182805480156200202757602002820191906000526020600020905b8154600160a060020a0316815260019091019060200180831162002008575b5050505050905090565b600160a060020a038116600090815260016020819052604082205460ff16151590036200206057506001919050565b506000919050565b606060008054806020026020016040519081016040528092919081815260200182805480156200202757602002820191906000526020600020908154600160a060020a0316815260019091019060200180831162002008575050505050905090565b60606000620020d9836200196c565b67ffffffffffffffff811115620020f457620020f46200255b565b6040519080825280602002602001820160405280156200211e578160200160208202803683370190505b5090506000805b600454811015620022705784600160a060020a031660048281548110620021505762002150620029dd565b60009182526020918290200154604080517f8da5cb5b0000000000000000000000000000000000000000000000000000000081529051600160a060020a0390921692638da5cb5b926004808401938290030181865afa158015620021b8573d6000803e3d6000fd5b505050506040513d601f19601f82011682018060405250810190620021de919062002c31565b600160a060020a0316036200225b5760048181548110620022035762002203620029dd565b600091825260209091200154600160a060020a03168383620022258162002a32565b9450815181106200223a576200223a620029dd565b6020026020010190600160a060020a03169081600160a060020a0316815250505b80620022678162002a32565b91505062002125565b50909392505050565b805182516000918391859111156200229057600080fd5b6000805b83518351620022a4919062002a9b565b81116200237757600160005b85518110156200234e57858181518110620022cf57620022cf620029dd565b602001015160f860020a900460f860020a02600160f860020a031916858285620022fa919062002a85565b815181106200230d576200230d620029dd565b602001015160f860020a900460f860020a02600160f860020a031916146200233957600091506200234e565b80620023458162002a32565b915050620022b0565b5080156200236157600192505062002377565b50806200236e8162002a32565b91505062002294565b5095945050505050565b600160a060020a03811660009081526003602052604081205460ff1615156001036200206057506001919050565b606060028054806020026020016040519081016040528092919081815260200182805480156200202757602002820191906000526020600020908154600160a060020a0316815260019091019060200180831162002008575050505050905090565b600080805b60045481101562000af557600060048281548110620024395762002439620029dd565b600091825260209182902001546040805160e560020a63042904f70281529051600160a060020a03909216926385209ee0926004808401938290030181865afa1580156200248b573d6000803e3d6000fd5b505050506040513d601f19601f82011682018060405250810190620024b19190620029f6565b6003811115620024c557620024c5620029c4565b03620024db5781620024d78162002a32565b9250505b80620024e78162002a32565b91505062002416565b6127dd8062002c6e83390190565b6020808252825182820181905260009190848201906040850190845b818110156200095c578351600160a060020a0316835292840192918401916001016200251a565b6000602082840312156200255457600080fd5b5035919050565b60e060020a634e487b7102600052604160045260246000fd5b604051601f8201601f1916810167ffffffffffffffff81118282101715620025a057620025a06200255b565b604052919050565b600067ffffffffffffffff821115620025c557620025c56200255b565b50601f01601f191660200190565b600082601f830112620025e557600080fd5b8135620025fc620025f682620025a8565b62002574565b8181528460208386010111156200261257600080fd5b816020850160208301376000918101602001919091529392505050565b6000806000606084860312156200264557600080fd5b833567ffffffffffffffff8111156200265d57600080fd5b6200266b86828701620025d3565b9660208601359650604090950135949350505050565b600160a060020a03811681146200269757600080fd5b50565b8035620026a78162002681565b919050565b6000806000806000806000806000806101408b8d031215620026cd57600080fd5b620026d88b6200269a565b995060208b013567ffffffffffffffff80821115620026f657600080fd5b620027048e838f01620025d3565b9a5060408d01359150808211156200271b57600080fd5b620027298e838f01620025d3565b995060608d01359150808211156200274057600080fd5b6200274e8e838f01620025d3565b985060808d01359150808211156200276557600080fd5b50620027748d828e01620025d3565b9a9d999c50979a96999860a0880135985060c08801359760e0810135975061010081013596506101200135945092505050565b600060208284031215620027ba57600080fd5b8135620027c78162002681565b9392505050565b60006020808385031215620027e257600080fd5b823567ffffffffffffffff80821115620027fb57600080fd5b818501915085601f8301126200281057600080fd5b8135818111156200282557620028256200255b565b83810291506200283784830162002574565b81815291830184019184810190888411156200285257600080fd5b938501935b838510156200288057843592506200286f8362002681565b828252938501939085019062002857565b98975050505050505050565b6000602082840312156200289f57600080fd5b813567ffffffffffffffff811115620028b757600080fd5b620028c584828501620025d3565b949350505050565b60008060408385031215620028e157600080fd5b50508035926020909101359150565b60005b838110156200290d578181015183820152602001620028f3565b50506000910152565b6000815180845262002930816020860160208601620028f0565b601f01601f19169290920160200192915050565b602081526000620027c7602083018462002916565b600080604083850312156200296d57600080fd5b823567ffffffffffffffff808211156200298657600080fd5b6200299486838701620025d3565b93506020850135915080821115620029ab57600080fd5b50620029ba85828601620025d3565b9150509250929050565b60e060020a634e487b7102600052602160045260246000fd5b60e060020a634e487b7102600052603260045260246000fd5b60006020828403121562002a0957600080fd5b815160048110620027c757600080fd5b60e060020a634e487b7102600052601160045260246000fd5b60006001820162002a475762002a4762002a19565b5060010190565b6020808252601f908201527f4f66667365742067726561746572207468616e206c697374206c656e67746800604082015260600190565b80820180821115620012ed57620012ed62002a19565b81810381811115620012ed57620012ed62002a19565b6000610160600160a060020a03808f168452808e1660208501525080604084015262002ae08184018d62002916565b9050828103606084015262002af6818c62002916565b9050828103608084015262002b0c818b62002916565b905082810360a084015262002b22818a62002916565b60c0840198909852505060e0810194909452610100840192909252610120830152610140909101529695505050505050565b60208082526038908201527f4f6e6c79206f6e65206f6620746865206f776e6572732068617320616363657360408201527f7320746f20746869732066756e6374696f6e616c6974792e0000000000000000606082015260800190565b60006020828403121562002bc457600080fd5b815167ffffffffffffffff81111562002bdc57600080fd5b8201601f8101841362002bee57600080fd5b805162002bff620025f682620025a8565b81815285602083850101111562002c1557600080fd5b62002c28826020830160208601620028f0565b95945050505050565b60006020828403121562002c4457600080fd5b8151620027c78162002681565b60ff8181168382160190811115620012ed57620012ed62002a1956fe60806040523480156200001157600080fd5b50604051620027dd380380620027dd833981016040819052620000349162000322565b60048054600160a060020a038d8116600160a060020a03199283161790925560058054928d16929091169190911790556000805460ff1916905560076200007c8a82620004ec565b5060086200008b8982620004ec565b5060096200009a8882620004ec565b50600a620000a98782620004ec565b50600b859055600c848155600184905560028390556003829055604080518082019091529081527f4e6f742050726f766964656400000000000000000000000000000000000000006020820152600d90620001059082620004ec565b5060408051808201909152600c81527f4e6f742050726f766964656400000000000000000000000000000000000000006020820152600e90620001499082620004ec565b5060408051808201909152600c81527f4e6f742050726f766964656400000000000000000000000000000000000000006020820152600f906200018d9082620004ec565b5060408051808201909152600c81527f4e6f742050726f766964656400000000000000000000000000000000000000006020820152601090620001d19082620004ec565b5060408051808201909152600c81527f4e6f742050726f766964656400000000000000000000000000000000000000006020820152601190620002159082620004ec565b505050505050505050505050620005be565b8051600160a060020a03811681146200023f57600080fd5b919050565b7f4e487b7100000000000000000000000000000000000000000000000000000000600052604160045260246000fd5b600082601f8301126200028557600080fd5b81516001604060020a0380821115620002a257620002a262000244565b604051601f8301601f19908116603f01168101908282118183101715620002cd57620002cd62000244565b81604052838152602092508683858801011115620002ea57600080fd5b600091505b838210156200030e5785820183015181830184015290820190620002ef565b600093810190920192909252949350505050565b60008060008060008060008060008060006101608c8e0312156200034557600080fd5b620003508c62000227565b9a506200036060208d0162000227565b995060408c01516001604060020a038111156200037c57600080fd5b6200038a8e828f0162000273565b99505060608c01516001604060020a03811115620003a757600080fd5b620003b58e828f0162000273565b98505060808c01516001604060020a03811115620003d257600080fd5b620003e08e828f0162000273565b97505060a08c01516001604060020a03811115620003fd57600080fd5b6200040b8e828f0162000273565b96505060c08c0151945060e08c015193506101008c015192506101208c015191506101408c015190509295989b509295989b9093969950565b6002810460018216806200045957607f821691505b60208210810362000493577f4e487b7100000000000000000000000000000000000000000000000000000000600052602260045260246000fd5b50919050565b601f821115620004e7576000818152602081206020601f86010481016020861015620004c25750805b6020601f860104820191505b81811015620004e357828155600101620004ce565b5050505b505050565b81516001604060020a0381111562000508576200050862000244565b620005208162000519845462000444565b8462000499565b602080601f8311600181146200055c57600084156200053f5750858301515b60028086026008870290910a6000190419821617865550620004e3565b600085815260208120601f198616915b828110156200058d578886015182559484019460019091019084016200056c565b5085821015620005ae57878501516008601f88160260020a60001904191681555b5050505050600202600101905550565b61220f80620005ce6000396000f3fe60806040526004361061014a576000357c01000000000000000000000000000000000000000000000000000000009004806385209ee0116100c857806397035a071161008c57806397035a07146106255780639dfc911714610645578063b3cbb32c14610679578063b6366d9214610699578063daca4eef146106b9578063f5cfb032146106df57600080fd5b806385209ee01461058957806385329517146105b05780638d97bee8146105d05780638da5cb5b146105f0578063953fe3cc1461061057600080fd5b80635293c8381161010f5780635293c838146104d4578063536f5c361461050457806372b501091461052757806374bdde4914610547578063790d15de1461056757600080fd5b80627dc372146103ef57806302d05d3f1461042057806312821b5e146104585780633d7a44921461049257806341fa1766146104b457600080fd5b366103ea5760006006805460ff169081111561016857610168611664565b148061018a575060036006805460ff169081111561018857610188611664565b145b6102045760405160e560020a62461bcd02815260206004820152603760248201527f546869732070726f706572747927732074656e757265207479706520646f657360448201527f206e6f7420737570706f7274206265696e6720736f6c6400000000000000000060648201526084015b60405180910390fd5b600260005460ff16600381111561021d5761021d611664565b1461026d5760405160e560020a62461bcd02815260206004820152601e60248201527f546869732070726f7065727479206973206e6f7420666f722073616c652e000060448201526064016101fb565b600360005460ff16600381111561028657610286611664565b036102a65760405160e560020a62461bcd0281526004016101fb9061167d565b6003546000906102b79060126116f3565b6102c290600a6117ed565b6002546102cf9190611800565b6001546102e490670de0b6b3a7640000611800565b6102ee919061181f565b905033318111156103445760405160e560020a62461bcd02815260206004820152601260248201527f496e73756666696369656e742066756e6473000000000000000000000000000060448201526064016101fb565b600554604051600160a060020a03909116903480156108fc02916000818181858888f1935050505015801561037d573d6000803e3d6000fd5b506000805460ff19166001179055600580543373ffffffffffffffffffffffffffffffffffffffff1990911681179091557f5e2d0375d60e0800964b84bb5119c65e3f2481448b346de13dbeb2bf5f4839a86103d76106ff565b60405190815260200160405180910390a2005b600080fd5b3480156103fb57600080fd5b5061040461074f565b6040516104179796959493929190611882565b60405180910390f35b34801561042c57600080fd5b5060045461044090600160a060020a031681565b604051600160a060020a039091168152602001610417565b34801561046457600080fd5b5060015460025460035461047792919083565b60408051938452602084019290925290820152606001610417565b34801561049e57600080fd5b506104b26104ad3660046119b6565b6109a0565b005b3480156104c057600080fd5b506104b26104cf366004611a2e565b610a4b565b3480156104e057600080fd5b506104f46104ef366004611a75565b610b1d565b6040519015158152602001610417565b34801561051057600080fd5b506105196106ff565b604051908152602001610417565b34801561053357600080fd5b506104b2610542366004611b6a565b610b78565b34801561055357600080fd5b506104b2610562366004611bab565b610cd8565b34801561057357600080fd5b5061057c610e55565b6040516104179190611c8c565b34801561059557600080fd5b506000546105a39060ff1681565b6040516104179190611cb3565b3480156105bc57600080fd5b506104b26105cb366004611cc1565b610e87565b3480156105dc57600080fd5b506104b26105eb366004611ced565b610f22565b3480156105fc57600080fd5b5060055461044090600160a060020a031681565b34801561061c57600080fd5b506104f4610fd8565b34801561063157600080fd5b506104b2610640366004611d17565b61111f565b34801561065157600080fd5b5060045460055460005460405161041793600160a060020a0390811693169160ff1690611d32565b34801561068557600080fd5b506104f46106943660046119b6565b6111e5565b3480156106a557600080fd5b506104b26106b4366004611d5f565b61124e565b3480156106c557600080fd5b506106ce6112f2565b604051610417959493929190611d78565b3480156106eb57600080fd5b506104b26106fa366004611de5565b6115bc565b60035460009081906107129060126116f3565b61071d90600a6117ed565b60025461072a9190611800565b60015461073f90670de0b6b3a7640000611800565b610749919061181f565b92915050565b600680546007805460ff909216929161076790611e00565b80601f016020809104026020016040519081016040528092919081815260200182805461079390611e00565b80156107e05780601f106107b5576101008083540402835291602001916107e0565b820191906000526020600020905b8154815290600101906020018083116107c357829003601f168201915b5050505050908060020180546107f590611e00565b80601f016020809104026020016040519081016040528092919081815260200182805461082190611e00565b801561086e5780601f106108435761010080835404028352916020019161086e565b820191906000526020600020905b81548152906001019060200180831161085157829003601f168201915b50505050509080600301805461088390611e00565b80601f01602080910402602001604051908101604052809291908181526020018280546108af90611e00565b80156108fc5780601f106108d1576101008083540402835291602001916108fc565b820191906000526020600020905b8154815290600101906020018083116108df57829003601f168201915b50505050509080600401805461091190611e00565b80601f016020809104026020016040519081016040528092919081815260200182805461093d90611e00565b801561098a5780601f1061095f5761010080835404028352916020019161098a565b820191906000526020600020905b81548152906001019060200180831161096d57829003601f168201915b5050505050908060050154908060060154905087565b6109a8610fd8565b6109c75760405160e560020a62461bcd0281526004016101fb90611e3d565b600554600160a060020a031633146109f45760405160e560020a62461bcd0281526004016101fb90611e9a565b600360005460ff166003811115610a0d57610a0d611664565b03610a2d5760405160e560020a62461bcd0281526004016101fb9061167d565b6009610a398382611f45565b50600a610a468282611f45565b505050565b610a53610fd8565b610a725760405160e560020a62461bcd0281526004016101fb90611e3d565b600554600160a060020a03163314610a9f5760405160e560020a62461bcd0281526004016101fb90611e9a565b600360005460ff166003811115610ab857610ab8611664565b03610ad85760405160e560020a62461bcd0281526004016101fb9061167d565b60018581556002859055600384905560068054849260ff19909116908383811115610b0557610b05611664565b0217905550600c5550506000805460ff191690555050565b6000805b8251811015610b6e57610b4d84848381518110610b4057610b4061200b565b60200260200101516111e5565b15610b5c576001915050610749565b80610b6681612024565b915050610b21565b5060009392505050565b600480546040517ff33c4ff90000000000000000000000000000000000000000000000000000000081523392810192909252600160a060020a03169063f33c4ff990602401602060405180830381865afa158015610bda573d6000803e3d6000fd5b505050506040513d601f19601f82011682018060405250810190610bfe919061203d565b1515600114610c225760405160e560020a62461bcd0281526004016101fb9061205f565b600554600160a060020a03163303610c4f5760405160e560020a62461bcd0281526004016101fb906120bc565b600360005460ff166003811115610c6857610c68611664565b03610c885760405160e560020a62461bcd0281526004016101fb9061167d565b6005805473ffffffffffffffffffffffffffffffffffffffff1916600160a060020a0384161790556000805482919060ff19166001836003811115610ccf57610ccf611664565b02179055505050565b600480546040517ff33c4ff90000000000000000000000000000000000000000000000000000000081523392810192909252600160a060020a03169063f33c4ff990602401602060405180830381865afa158015610d3a573d6000803e3d6000fd5b505050506040513d601f19601f82011682018060405250810190610d5e919061203d565b1515600114610d825760405160e560020a62461bcd0281526004016101fb9061205f565b600554600160a060020a03163303610daf5760405160e560020a62461bcd0281526004016101fb906120bc565b600360005460ff166003811115610dc857610dc8611664565b03610de85760405160e560020a62461bcd0281526004016101fb9061167d565b600d610df48782611f45565b50600e610e018682611f45565b50600f610e0e8582611f45565b506010610e1b8482611f45565b506011610e288382611f45565b506000805482919060ff19166001836003811115610e4857610e48611664565b0217905550505050505050565b604051606090610e7390600790600890600990600a9060200161218c565b604051602081830303815290604052905090565b610e8f610fd8565b610eae5760405160e560020a62461bcd0281526004016101fb90611e3d565b600554600160a060020a03163314610edb5760405160e560020a62461bcd0281526004016101fb90611e9a565b600360005460ff166003811115610ef457610ef4611664565b03610f145760405160e560020a62461bcd0281526004016101fb9061167d565b600192909255600255600355565b600554600160a060020a03163314610f4f5760405160e560020a62461bcd0281526004016101fb90611e9a565b610f57610fd8565b610f765760405160e560020a62461bcd0281526004016101fb90611e3d565b600360005460ff166003811115610f8f57610f8f611664565b03610faf5760405160e560020a62461bcd0281526004016101fb9061167d565b6006805483919060ff191660018383811115610fcd57610fcd611664565b0217905550600c5550565b60006110a6600d6000018054610fed90611e00565b80601f016020809104026020016040519081016040528092919081815260200182805461101990611e00565b80156110665780601f1061103b57610100808354040283529160200191611066565b820191906000526020600020905b81548152906001019060200180831161104957829003601f168201915b50505050506040518060400160405280600881526020017f50726f76696465640000000000000000000000000000000000000000000000008152506111e5565b80156110c057506110c0600d6001018054610fed90611e00565b80156110da57506110da600d6002018054610fed90611e00565b80156110f457506110f4600d6003018054610fed90611e00565b801561110e575061110e600d6004018054610fed90611e00565b156111195750600190565b50600090565b611127610fd8565b6111465760405160e560020a62461bcd0281526004016101fb90611e3d565b600554600160a060020a031633146111735760405160e560020a62461bcd0281526004016101fb90611e9a565b600360005460ff16600381111561118c5761118c611664565b036111ac5760405160e560020a62461bcd0281526004016101fb9061167d565b6006805482919060ff1916600183838111156111ca576111ca611664565b021790555060008054819060ff19166001825b021790555050565b600081518351146111f857506000610749565b8160405160200161120991906121bd565b604051602081830303815290604052805190602001208360405160200161123091906121bd565b60405160208183030381529060405280519060200120149050610749565b611256610fd8565b6112755760405160e560020a62461bcd0281526004016101fb90611e3d565b600554600160a060020a031633146112a25760405160e560020a62461bcd0281526004016101fb90611e9a565b600360005460ff1660038111156112bb576112bb611664565b036112db5760405160e560020a62461bcd0281526004016101fb9061167d565b600c81905560008054819060ff19166001826111dd565b600d8054819061130190611e00565b80601f016020809104026020016040519081016040528092919081815260200182805461132d90611e00565b801561137a5780601f1061134f5761010080835404028352916020019161137a565b820191906000526020600020905b81548152906001019060200180831161135d57829003601f168201915b50505050509080600101805461138f90611e00565b80601f01602080910402602001604051908101604052809291908181526020018280546113bb90611e00565b80156114085780601f106113dd57610100808354040283529160200191611408565b820191906000526020600020905b8154815290600101906020018083116113eb57829003601f168201915b50505050509080600201805461141d90611e00565b80601f016020809104026020016040519081016040528092919081815260200182805461144990611e00565b80156114965780601f1061146b57610100808354040283529160200191611496565b820191906000526020600020905b81548152906001019060200180831161147957829003601f168201915b5050505050908060030180546114ab90611e00565b80601f01602080910402602001604051908101604052809291908181526020018280546114d790611e00565b80156115245780601f106114f957610100808354040283529160200191611524565b820191906000526020600020905b81548152906001019060200180831161150757829003601f168201915b50505050509080600401805461153990611e00565b80601f016020809104026020016040519081016040528092919081815260200182805461156590611e00565b80156115b25780601f10611587576101008083540402835291602001916115b2565b820191906000526020600020905b81548152906001019060200180831161159557829003601f168201915b5050505050905085565b6115c4610fd8565b6115e35760405160e560020a62461bcd0281526004016101fb90611e3d565b600554600160a060020a031633146116105760405160e560020a62461bcd0281526004016101fb90611e9a565b600360005460ff16600381111561162957611629611664565b036116495760405160e560020a62461bcd0281526004016101fb9061167d565b6000805482919060ff191660018360038111156111dd576111dd5b60e060020a634e487b7102600052602160045260246000fd5b60208082526032908201527f546869732050726f7065727479205469746c6520436f6e74726163742069732060408201527f6e6f206c6f6e6765722072656c6176616e740000000000000000000000000000606082015260800190565b60e060020a634e487b7102600052601160045260246000fd5b81810381811115610749576107496116da565b600181815b80851115611743578160001904821115611727576117276116da565b8085161561173457918102915b6002909404939080029061170b565b509250929050565b60008261175a57506001610749565b8161176757506000610749565b816001811461177d5760028114611787576117a4565b6001915050610749565b60ff841115611798576117986116da565b8360020a915050610749565b5060208310610133831016604e8410600b84101617156117c7575081810a610749565b6117d18383611706565b80600019048211156117e5576117e56116da565b029392505050565b60006117f9838361174b565b9392505050565b600081600019048311821515161561181a5761181a6116da565b500290565b80820180821115610749576107496116da565b60005b8381101561184d578181015183820152602001611835565b50506000910152565b6000815180845261186e816020860160208601611832565b601f01601f19169290920160200192915050565b60006007891061189457611894611664565b88825260e060208301526118ab60e0830189611856565b82810360408401526118bd8189611856565b905082810360608401526118d18188611856565b905082810360808401526118e58187611856565b60a0840195909552505060c0015295945050505050565b60e060020a634e487b7102600052604160045260246000fd5b604051601f8201601f1916810167ffffffffffffffff8111828210171561193e5761193e6118fc565b604052919050565b600082601f83011261195757600080fd5b813567ffffffffffffffff811115611971576119716118fc565b611984601f8201601f1916602001611915565b81815284602083860101111561199957600080fd5b816020850160208301376000918101602001919091529392505050565b600080604083850312156119c957600080fd5b823567ffffffffffffffff808211156119e157600080fd5b6119ed86838701611946565b93506020850135915080821115611a0357600080fd5b50611a1085828601611946565b9150509250929050565b803560078110611a2957600080fd5b919050565b600080600080600060a08688031215611a4657600080fd5b853594506020860135935060408601359250611a6460608701611a1a565b949793965091946080013592915050565b60008060408385031215611a8857600080fd5b823567ffffffffffffffff80821115611aa057600080fd5b611aac86838701611946565b9350602091508185013581811115611ac357600080fd5b8501601f81018713611ad457600080fd5b803582811115611ae657611ae66118fc565b838102611af4858201611915565b918252828101850191858101908a841115611b0e57600080fd5b86850192505b83831015611b4a57823586811115611b2c5760008081fd5b611b3a8c8983890101611946565b8352509186019190860190611b14565b809750505050505050509250929050565b803560048110611a2957600080fd5b60008060408385031215611b7d57600080fd5b8235600160a060020a0381168114611b9457600080fd5b9150611ba260208401611b5b565b90509250929050565b60008060008060008060c08789031215611bc457600080fd5b863567ffffffffffffffff80821115611bdc57600080fd5b611be88a838b01611946565b97506020890135915080821115611bfe57600080fd5b611c0a8a838b01611946565b96506040890135915080821115611c2057600080fd5b611c2c8a838b01611946565b95506060890135915080821115611c4257600080fd5b611c4e8a838b01611946565b94506080890135915080821115611c6457600080fd5b50611c7189828a01611946565b925050611c8060a08801611b5b565b90509295509295509295565b6020815260006117f96020830184611856565b60048110611caf57611caf611664565b9052565b602081016107498284611c9f565b600080600060608486031215611cd657600080fd5b505081359360208301359350604090920135919050565b60008060408385031215611d0057600080fd5b611d0983611a1a565b946020939093013593505050565b600060208284031215611d2957600080fd5b6117f982611a1a565b600160a060020a0384811682528316602082015260608101611d576040830184611c9f565b949350505050565b600060208284031215611d7157600080fd5b5035919050565b60a081526000611d8b60a0830188611856565b8281036020840152611d9d8188611856565b90508281036040840152611db18187611856565b90508281036060840152611dc58186611856565b90508281036080840152611dd98185611856565b98975050505050505050565b600060208284031215611df757600080fd5b6117f982611b5b565b600281046001821680611e1457607f821691505b602082108103611e375760e060020a634e487b7102600052602260045260246000fd5b50919050565b60208082526024908201527f5468652070726f7065727479206973206e6f74206c6567616c6c7920616c726960408201527f6768742e00000000000000000000000000000000000000000000000000000000606082015260800190565b60208082526032908201527f4f6e6c7920746865206f776e6572206f662074686520436f6e7472616374206860408201527f61732061636365737320746f2074686973210000000000000000000000000000606082015260800190565b601f821115610a46576000818152602081206020601f86010481016020861015611f1e5750805b6020601f860104820191505b81811015611f3d57828155600101611f2a565b505050505050565b815167ffffffffffffffff811115611f5f57611f5f6118fc565b611f7381611f6d8454611e00565b84611ef7565b602080601f831160018114611fac5760008415611f905750858301515b60028086026008870290910a6000190419821617865550611f3d565b600085815260208120601f198616915b82811015611fdb57888601518255948401946001909101908401611fbc565b5085821015611ffb57878501516008601f88160260020a60001904191681555b5050505050600202600101905550565b60e060020a634e487b7102600052603260045260246000fd5b600060018201612036576120366116da565b5060010190565b60006020828403121561204f57600080fd5b815180151581146117f957600080fd5b60208082526036908201527f4f6e6c792061207265676973746572656420726567697374726172206861732060408201527f61636365737320746f207468697320616374696f6e2e00000000000000000000606082015260800190565b60208082526026908201527f596f752063616e206e6f742076616c696461746520796f7572206f776e20707260408201527f6f70657274790000000000000000000000000000000000000000000000000000606082015260800190565b6000815461212681611e00565b6001828116801561213e576001811461215357612182565b60ff1984168752821515830287019450612182565b8560005260208060002060005b858110156121795781548a820152908401908201612160565b50505082870194505b5050505092915050565b60006121b36121ad6121a76121a1858a612119565b88612119565b86612119565b84612119565b9695505050505050565b600082516121cf818460208701611832565b919091019291505056fea2646970667358221220b41e7083187d0568c92c0a654beb79f17599968e0ee8592eb78a9c1857ffa4aa64736f6c63430008100033a2646970667358221220f4514dc341431f685ee1482f80b7aa4cfcceea5c171dba6b4a37e817b17c776464736f6c63430008100033",
  "immutableReferences": {},
  "source": "//SPDX-License-Identifier: MIT\r\npragma solidity ^0.8.16;\r\n\r\nimport \"./PropertyTitle.sol\";\r\n\r\ninterface IAccessPropertyTitleMethods {\r\n    function contractState() external view returns (PropertyTitleContractState);\r\n    function getFullPropertyAddress() external view returns (string memory);\r\n    function owner() external view returns (address);\r\n}\r\n\r\ncontract TitleCreatingContract {\r\n    event NewTitleContract(\r\n        address indexed ownerAddress,\r\n        address indexed titleContractAddress\r\n    );\r\n\r\n    address[] public owners;\r\n    mapping (address => bool) public isOwner;\r\n\r\n    address[] public registrars;\r\n    mapping (address => bool) public isRegistrar;\r\n\r\n    address[] public titleContracts;\r\n    mapping (address => bool) public propertyTitleContractsValidity;\r\n\r\n    constructor(address[] memory _owners)\r\n    {\r\n        for (uint256 i = 0; i < _owners.length; i++) {\r\n            owners.push(_owners[i]);\r\n            isOwner[_owners[i]] = true;\r\n        }\r\n    }\r\n\r\n    function addRegistrars(address[] memory _registrars) public onlyOwner {\r\n        for (uint256 i = 0; i < _registrars.length; i++) {\r\n            if (!checkIfUserIsOwner(_registrars[i])) {\r\n                registrars.push(_registrars[i]);\r\n                isRegistrar[_registrars[i]] = true;\r\n            }\r\n        }\r\n    }\r\n\r\n    function removeRegistrarRole(address[] memory _registrars) public onlyOwner {\r\n        for (uint256 i = 0; i < _registrars.length; i++) {\r\n            isRegistrar[_registrars[i]] = false;\r\n        }\r\n    }\r\n\r\n    function reactivateRegistrarRole(address[] memory _registrars) public onlyOwner {\r\n        for (uint256 i = 0; i < _registrars.length; i++) {\r\n            isRegistrar[_registrars[i]] = true;\r\n        }\r\n    }\r\n\r\n    function deployNewPropertyTitle(\r\n        address _owner,\r\n        string memory _country,\r\n        string memory _city,\r\n        string memory _street,\r\n        string memory _streeNumber,\r\n        uint256 _apartmentNumber,\r\n        uint256 _squareMeters,\r\n        uint256 _sellingPriceIntegralPart,\r\n        uint256 _sellingPriceFractionalPart,\r\n        uint256  _sellingPriceFractionalPartLength\r\n    )\r\n        public\r\n    {\r\n        PropertyTitle propertyTitle = new PropertyTitle(\r\n            address(this),\r\n            _owner,\r\n            _country,\r\n            _city,\r\n            _street,\r\n            _streeNumber,\r\n            _apartmentNumber,\r\n            _squareMeters,\r\n            _sellingPriceIntegralPart,\r\n            _sellingPriceFractionalPart,\r\n            _sellingPriceFractionalPartLength\r\n        );\r\n        titleContracts.push(address(propertyTitle));\r\n        propertyTitleContractsValidity[address(propertyTitle)] = false;\r\n\r\n        emit NewTitleContract(_owner, address(propertyTitle));\r\n    }\r\n\r\n    function validatePropertyTitleContract(address _contractAddress) public onlyRegistrar {\r\n        propertyTitleContractsValidity[_contractAddress] = true;\r\n    }\r\n\r\n    function checkIfUserIsOwner(address userAddress) public view returns (bool) {\r\n        if (isOwner[userAddress] == true) {\r\n            return true;\r\n        }\r\n        return false;    \r\n    }\r\n\r\n    function checkIfUserIsRegistrar(address userAddress) public view returns (bool) {\r\n        if (isRegistrar[userAddress] == true) {\r\n            return true;\r\n        }\r\n        return false;\r\n    }\r\n\r\n    function getContractOwners() public view returns (address[] memory) {\r\n        return owners;\r\n    }\r\n\r\n    function getContractRegistrars() public view returns (address[] memory) {\r\n        return registrars;\r\n    }\r\n\r\n    function getContracts() public view returns (address[] memory) {\r\n        return titleContracts;\r\n    }\r\n\r\n    function getPendingContractsCount() public view returns (uint256) {\r\n        uint256 k = 0;\r\n        for (uint256 i = 0; i < titleContracts.length; i++) {\r\n            if (IAccessPropertyTitleMethods(titleContracts[i]).contractState() == PropertyTitleContractState.PENDING) {\r\n                k++;\r\n            } \r\n        }\r\n\r\n        return k;\r\n    }\r\n\r\n    function getPendingContracts() public view returns (address[] memory) {\r\n        address[] memory contracts = new address[](getPendingContractsCount());\r\n\r\n        uint256 k = 0;\r\n        for (uint256 i = 0; i < titleContracts.length; i++) {\r\n            if (IAccessPropertyTitleMethods(titleContracts[i]).contractState() == PropertyTitleContractState.PENDING) {\r\n                contracts[k++] = titleContracts[i];\r\n            } \r\n        }\r\n\r\n        return contracts;\r\n    }\r\n\r\n    function getPendingContractsByOffsetAndLimit(uint256 offset, uint256 limit) public view returns (address[] memory) {\r\n        uint256 pendingContractsCount = getPendingContractsCount();\r\n        require(pendingContractsCount > offset, \"Offset greater than list length\");\r\n\r\n        address[] memory contracts = pendingContractsCount > offset + limit \r\n            ? new address[](limit) \r\n            : new address[](pendingContractsCount - offset);\r\n\r\n        address[] memory pendingContracts = getPendingContracts();\r\n        for (uint256 i = offset; i < offset + limit; i++) {\r\n            if (i >= pendingContracts.length) {\r\n                break;\r\n            }\r\n            contracts[i - offset] = pendingContracts[i];\r\n        }\r\n\r\n        return contracts;\r\n    }\r\n\r\n    function getActiveContractsByAddressCount(string memory addressToSearchFor) public view returns (uint256) {\r\n        uint256 k = 0;\r\n        for (uint256 i = 0; i < titleContracts.length; i++) {\r\n            if ((IAccessPropertyTitleMethods(titleContracts[i]).contractState() == PropertyTitleContractState.OWNED ||\r\n                IAccessPropertyTitleMethods(titleContracts[i]).contractState() == PropertyTitleContractState.FOR_SALE) &&\r\n                stringContains(toLower(IAccessPropertyTitleMethods(titleContracts[i]).getFullPropertyAddress()), toLower(addressToSearchFor))) {\r\n                k++;\r\n            } \r\n        }\r\n\r\n        return k;\r\n    }\r\n\r\n    function getActiveContractsCount() public view returns (uint256) {\r\n        uint256 k = 0;\r\n        for (uint256 i = 0; i < titleContracts.length; i++) {\r\n            if (IAccessPropertyTitleMethods(titleContracts[i]).contractState() == PropertyTitleContractState.OWNED ||\r\n                IAccessPropertyTitleMethods(titleContracts[i]).contractState() == PropertyTitleContractState.FOR_SALE) {\r\n                k++;\r\n            } \r\n        }\r\n\r\n        return k;\r\n    }\r\n\r\n    function getActiveContracts() public view returns (address[] memory) {\r\n        address[] memory contracts = new address[](getActiveContractsCount());\r\n\r\n        uint256 k = 0;\r\n        for (uint256 i = 0; i < titleContracts.length; i++) {\r\n            if (IAccessPropertyTitleMethods(titleContracts[i]).contractState() == PropertyTitleContractState.OWNED ||\r\n                IAccessPropertyTitleMethods(titleContracts[i]).contractState() == PropertyTitleContractState.FOR_SALE) {\r\n                contracts[k++] = titleContracts[i];\r\n            }\r\n        }\r\n\r\n        return contracts;\r\n    }\r\n\r\n    function getActiveContractsByAddress(string memory addressToSearchFor) public view returns (address[] memory) {\r\n        address[] memory contracts = new address[](getActiveContractsByAddressCount(addressToSearchFor));\r\n\r\n        address[] memory activeContracts = getActiveContracts();\r\n        uint256 k = 0;\r\n        for (uint256 i = 0; i < activeContracts.length; i++) {\r\n            if (stringContains(toLower(IAccessPropertyTitleMethods(activeContracts[i]).getFullPropertyAddress()), toLower(addressToSearchFor))) {\r\n                contracts[k++] = activeContracts[i];\r\n            }\r\n        }\r\n\r\n        return contracts;\r\n    }\r\n\r\n    function getActiveContractsByAddressAndOffsetAndLimit(string memory addressToSearchFor, uint256 offset, uint256 limit)  public view returns (address[] memory) {\r\n        uint256 activeContractsByAddressCount = getActiveContractsByAddressCount(addressToSearchFor);\r\n        require(activeContractsByAddressCount > offset, \"Offset greater than list length\");\r\n\r\n        address[] memory contracts = activeContractsByAddressCount > offset + limit \r\n            ? new address[](limit) \r\n            : new address[](activeContractsByAddressCount - offset);\r\n\r\n        address[] memory activeContractsByAddress = getActiveContractsByAddress(addressToSearchFor);\r\n        for (uint256 i = offset; i < offset + limit; i++) {\r\n            if (i >= activeContractsByAddress.length) {\r\n                break;\r\n            }\r\n            contracts[i - offset] = activeContractsByAddress[i];\r\n\r\n        }\r\n\r\n        return contracts;\r\n    }\r\n\r\n    function getForSaleContractsByAddressCount(string memory addressToSearchFor) public view returns (uint256) {\r\n        uint256 k = 0;\r\n        for (uint256 i = 0; i < titleContracts.length; i++) {\r\n            if (IAccessPropertyTitleMethods(titleContracts[i]).contractState() == PropertyTitleContractState.FOR_SALE &&\r\n                stringContains(toLower(IAccessPropertyTitleMethods(titleContracts[i]).getFullPropertyAddress()), toLower(addressToSearchFor))) {\r\n                k++;\r\n            }\r\n        }\r\n\r\n        return k;\r\n    }\r\n\r\n    function getForSaleContractsCount() public view returns (uint256) {\r\n        uint256 k = 0;\r\n        for (uint256 i = 0; i < titleContracts.length; i++) {\r\n            if (IAccessPropertyTitleMethods(titleContracts[i]).contractState() == PropertyTitleContractState.FOR_SALE) {\r\n                k++;\r\n            } \r\n        }\r\n\r\n        return k;\r\n    }\r\n\r\n\r\n    function getForSaleContracts() public view returns (address[] memory) {\r\n        address[] memory contracts = new address[](getForSaleContractsCount());\r\n\r\n        uint256 k = 0;\r\n        for (uint256 i = 0; i < titleContracts.length; i++) {\r\n            if (IAccessPropertyTitleMethods(titleContracts[i]).contractState() == PropertyTitleContractState.FOR_SALE) {\r\n                contracts[k++] = titleContracts[i];\r\n            }\r\n        }\r\n\r\n        return contracts;\r\n    }\r\n\r\n    function getForSaleContractsByAddress(string memory addressToSearchFor) public view returns (address[] memory) {\r\n        address[] memory contracts = new address[](getForSaleContractsByAddressCount(addressToSearchFor));\r\n\r\n        address[] memory forSaleContracts = getForSaleContracts();\r\n        uint256 k = 0;\r\n        for (uint256 i = 0; i < forSaleContracts.length; i++) {\r\n            if (stringContains(toLower(IAccessPropertyTitleMethods(forSaleContracts[i]).getFullPropertyAddress()), toLower(addressToSearchFor))) {\r\n                contracts[k++] = forSaleContracts[i];\r\n            }\r\n        }\r\n\r\n        return contracts;\r\n    }\r\n\r\n    function getForSaleContractsByAddressAndOffsetAndLimit(string memory addressToSearchFor, uint256 offset, uint256 limit)  public view returns (address[] memory) {\r\n        uint256 forSaleContractsByAddressCount = getForSaleContractsByAddressCount(addressToSearchFor);\r\n        require(forSaleContractsByAddressCount > offset, \"Offset greater than list length\");\r\n\r\n        address[] memory contracts = forSaleContractsByAddressCount > offset + limit \r\n            ? new address[](limit) \r\n            : new address[](forSaleContractsByAddressCount - offset);\r\n\r\n        address[] memory forSaleContractsByAddress = getForSaleContractsByAddress(addressToSearchFor);\r\n        for (uint256 i = offset; i < offset + limit; i++) {\r\n            if (i >= forSaleContractsByAddress.length) {\r\n                break;\r\n            }\r\n            contracts[i - offset] = forSaleContractsByAddress[i];\r\n\r\n        }\r\n\r\n        return contracts;\r\n    }\r\n\r\n    function getAccountContractsCount(address account) public view returns (uint256)\r\n    {\r\n        uint256 k = 0;\r\n        for (uint256 i = 0; i < titleContracts.length; i++) {\r\n            if (IAccessPropertyTitleMethods(titleContracts[i]).owner() == account && \r\n                IAccessPropertyTitleMethods(titleContracts[i]).contractState() != PropertyTitleContractState.NO_LONGER_RELEVANT) {\r\n                k++;\r\n            }\r\n        }\r\n\r\n        return k;\r\n    }\r\n\r\n    function getAccountContracts(address account) public view returns (address[] memory)\r\n    {\r\n        address[] memory contracts = new address[](getAccountContractsCount(account));\r\n        uint256 k = 0;\r\n        for (uint256 i = 0; i < titleContracts.length; i++) {\r\n            if (IAccessPropertyTitleMethods(titleContracts[i]).owner() == account) {\r\n                contracts[k++] = titleContracts[i];\r\n            }\r\n        }\r\n\r\n        return contracts;\r\n    }\r\n\r\n    function stringContains(string memory stringToSearchIn, string memory stringToSearchFor) public pure returns (bool) {\r\n        bytes memory stringToSearchForBytes = bytes (stringToSearchFor);\r\n        bytes memory stringToSearchInBytes = bytes (stringToSearchIn);\r\n\r\n        require(stringToSearchInBytes.length >= stringToSearchForBytes.length);\r\n\r\n        bool found = false;\r\n        for (uint i = 0; i <= stringToSearchInBytes.length - stringToSearchForBytes.length; i++) {\r\n            bool flag = true;\r\n            for (uint j = 0; j < stringToSearchForBytes.length; j++)\r\n                if (stringToSearchInBytes[i + j] != stringToSearchForBytes[j]) {\r\n                    flag = false;\r\n                    break;\r\n                }\r\n            if (flag) {\r\n                found = true;\r\n                break;\r\n            }\r\n        }\r\n        \r\n        return found;\r\n    }\r\n\r\n    function toLower(string memory str) public pure returns (string memory) {\r\n        bytes memory bStr = bytes(str);\r\n        bytes memory bLower = new bytes(bStr.length);\r\n        for (uint i = 0; i < bStr.length; i++) {\r\n            if ((uint8(bStr[i]) >= 65) && (uint8(bStr[i]) <= 90)) {\r\n                bLower[i] = bytes1(uint8(bStr[i]) + 32);\r\n            } else {\r\n                bLower[i] = bStr[i];\r\n            }\r\n        }\r\n        return string(bLower);\r\n    }\r\n\r\n    modifier onlyRegistrar {\r\n        require(isRegistrar[msg.sender] == true, \"Only one of the registrars has access to this functionality.\");\r\n        _;\r\n    }\r\n\r\n    modifier onlyOwner {\r\n        require(isOwner[msg.sender] == true, \"Only one of the owners has access to this functionality.\");\r\n        _;\r\n    }\r\n}",
  "sourcePath": "D:\\Propty\\propty\\contracts\\contracts\\TitleCreatingContract.sol",
  "compiler": {
    "name": "solc",
    "version": "0.8.16+commit.07a7930e.Emscripten.clang"
  },
  "schemaVersion": "3.4.9",
  "updatedAt": "2023-02-28T20:41:06.846Z",
  "networkType": "ethereum",
  "devdoc": {
    "kind": "dev",
    "methods": {},
    "version": 1
  },
  "userdoc": {
    "kind": "user",
    "methods": {},
    "version": 1
  }
}