{
  "contractName": "TitleCreatingContract",
  "abi": [
    {
      "inputs": [
        {
          "internalType": "address[]",
          "name": "_owners",
          "type": "address[]"
        }
      ],
      "stateMutability": "nonpayable",
      "type": "constructor"
    },
    {
      "anonymous": false,
      "inputs": [
        {
          "indexed": true,
          "internalType": "address",
          "name": "ownerAddress",
          "type": "address"
        },
        {
          "indexed": true,
          "internalType": "address",
          "name": "titleContractAddress",
          "type": "address"
        },
        {
          "indexed": false,
          "internalType": "uint256",
          "name": "timestamp",
          "type": "uint256"
        }
      ],
      "name": "NewTitleContract",
      "type": "event"
    },
    {
      "inputs": [
        {
          "internalType": "address",
          "name": "",
          "type": "address"
        }
      ],
      "name": "isOwner",
      "outputs": [
        {
          "internalType": "bool",
          "name": "",
          "type": "bool"
        }
      ],
      "stateMutability": "view",
      "type": "function",
      "constant": true
    },
    {
      "inputs": [
        {
          "internalType": "address",
          "name": "",
          "type": "address"
        }
      ],
      "name": "isRegistrar",
      "outputs": [
        {
          "internalType": "bool",
          "name": "",
          "type": "bool"
        }
      ],
      "stateMutability": "view",
      "type": "function",
      "constant": true
    },
    {
      "inputs": [
        {
          "internalType": "uint256",
          "name": "",
          "type": "uint256"
        }
      ],
      "name": "owners",
      "outputs": [
        {
          "internalType": "address",
          "name": "",
          "type": "address"
        }
      ],
      "stateMutability": "view",
      "type": "function",
      "constant": true
    },
    {
      "inputs": [
        {
          "internalType": "address",
          "name": "",
          "type": "address"
        }
      ],
      "name": "propertyTitleDeployBlockNumber",
      "outputs": [
        {
          "internalType": "uint256",
          "name": "",
          "type": "uint256"
        }
      ],
      "stateMutability": "view",
      "type": "function",
      "constant": true
    },
    {
      "inputs": [
        {
          "internalType": "uint256",
          "name": "",
          "type": "uint256"
        }
      ],
      "name": "registrars",
      "outputs": [
        {
          "internalType": "address",
          "name": "",
          "type": "address"
        }
      ],
      "stateMutability": "view",
      "type": "function",
      "constant": true
    },
    {
      "inputs": [
        {
          "internalType": "uint256",
          "name": "",
          "type": "uint256"
        }
      ],
      "name": "titleContracts",
      "outputs": [
        {
          "internalType": "address",
          "name": "",
          "type": "address"
        }
      ],
      "stateMutability": "view",
      "type": "function",
      "constant": true
    },
    {
      "inputs": [
        {
          "internalType": "address[]",
          "name": "_registrars",
          "type": "address[]"
        }
      ],
      "name": "addRegistrars",
      "outputs": [],
      "stateMutability": "nonpayable",
      "type": "function"
    },
    {
      "inputs": [
        {
          "internalType": "address[]",
          "name": "_registrars",
          "type": "address[]"
        }
      ],
      "name": "removeRegistrarRole",
      "outputs": [],
      "stateMutability": "nonpayable",
      "type": "function"
    },
    {
      "inputs": [
        {
          "internalType": "address[]",
          "name": "_registrars",
          "type": "address[]"
        }
      ],
      "name": "reactivateRegistrarRole",
      "outputs": [],
      "stateMutability": "nonpayable",
      "type": "function"
    },
    {
      "inputs": [
        {
          "internalType": "address",
          "name": "_owner",
          "type": "address"
        },
        {
          "internalType": "string",
          "name": "_country",
          "type": "string"
        },
        {
          "internalType": "string",
          "name": "_city",
          "type": "string"
        },
        {
          "internalType": "string",
          "name": "_street",
          "type": "string"
        },
        {
          "internalType": "string",
          "name": "_streeNumber",
          "type": "string"
        },
        {
          "internalType": "uint256",
          "name": "_apartmentNumber",
          "type": "uint256"
        },
        {
          "internalType": "uint256",
          "name": "_squareMeters",
          "type": "uint256"
        },
        {
          "internalType": "uint256",
          "name": "_sellingPriceIntegralPart",
          "type": "uint256"
        },
        {
          "internalType": "uint256",
          "name": "_sellingPriceFractionalPart",
          "type": "uint256"
        },
        {
          "internalType": "uint256",
          "name": "_sellingPriceFractionalPartLength",
          "type": "uint256"
        }
      ],
      "name": "deployNewPropertyTitle",
      "outputs": [],
      "stateMutability": "nonpayable",
      "type": "function"
    },
    {
      "inputs": [
        {
          "internalType": "address",
          "name": "userAddress",
          "type": "address"
        }
      ],
      "name": "checkIfUserIsOwner",
      "outputs": [
        {
          "internalType": "bool",
          "name": "",
          "type": "bool"
        }
      ],
      "stateMutability": "view",
      "type": "function",
      "constant": true
    },
    {
      "inputs": [
        {
          "internalType": "address",
          "name": "userAddress",
          "type": "address"
        }
      ],
      "name": "checkIfUserIsRegistrar",
      "outputs": [
        {
          "internalType": "bool",
          "name": "",
          "type": "bool"
        }
      ],
      "stateMutability": "view",
      "type": "function",
      "constant": true
    },
    {
      "inputs": [],
      "name": "getContractOwners",
      "outputs": [
        {
          "internalType": "address[]",
          "name": "",
          "type": "address[]"
        }
      ],
      "stateMutability": "view",
      "type": "function",
      "constant": true
    },
    {
      "inputs": [],
      "name": "getContractRegistrars",
      "outputs": [
        {
          "internalType": "address[]",
          "name": "",
          "type": "address[]"
        }
      ],
      "stateMutability": "view",
      "type": "function",
      "constant": true
    },
    {
      "inputs": [],
      "name": "getContracts",
      "outputs": [
        {
          "internalType": "address[]",
          "name": "",
          "type": "address[]"
        }
      ],
      "stateMutability": "view",
      "type": "function",
      "constant": true
    },
    {
      "inputs": [],
      "name": "getPendingContractsCount",
      "outputs": [
        {
          "internalType": "uint256",
          "name": "",
          "type": "uint256"
        }
      ],
      "stateMutability": "view",
      "type": "function",
      "constant": true
    },
    {
      "inputs": [],
      "name": "getPendingContracts",
      "outputs": [
        {
          "internalType": "address[]",
          "name": "",
          "type": "address[]"
        }
      ],
      "stateMutability": "view",
      "type": "function",
      "constant": true
    },
    {
      "inputs": [
        {
          "internalType": "uint256",
          "name": "offset",
          "type": "uint256"
        },
        {
          "internalType": "uint256",
          "name": "limit",
          "type": "uint256"
        }
      ],
      "name": "getPendingContractsByOffsetAndLimit",
      "outputs": [
        {
          "internalType": "address[]",
          "name": "",
          "type": "address[]"
        }
      ],
      "stateMutability": "view",
      "type": "function",
      "constant": true
    },
    {
      "inputs": [
        {
          "internalType": "string",
          "name": "addressToSearchFor",
          "type": "string"
        }
      ],
      "name": "getActiveContractsByAddressCount",
      "outputs": [
        {
          "internalType": "uint256",
          "name": "",
          "type": "uint256"
        }
      ],
      "stateMutability": "view",
      "type": "function",
      "constant": true
    },
    {
      "inputs": [],
      "name": "getActiveContractsCount",
      "outputs": [
        {
          "internalType": "uint256",
          "name": "",
          "type": "uint256"
        }
      ],
      "stateMutability": "view",
      "type": "function",
      "constant": true
    },
    {
      "inputs": [],
      "name": "getActiveContracts",
      "outputs": [
        {
          "internalType": "address[]",
          "name": "",
          "type": "address[]"
        }
      ],
      "stateMutability": "view",
      "type": "function",
      "constant": true
    },
    {
      "inputs": [
        {
          "internalType": "string",
          "name": "addressToSearchFor",
          "type": "string"
        }
      ],
      "name": "getActiveContractsByAddress",
      "outputs": [
        {
          "internalType": "address[]",
          "name": "",
          "type": "address[]"
        }
      ],
      "stateMutability": "view",
      "type": "function",
      "constant": true
    },
    {
      "inputs": [
        {
          "internalType": "string",
          "name": "addressToSearchFor",
          "type": "string"
        },
        {
          "internalType": "uint256",
          "name": "offset",
          "type": "uint256"
        },
        {
          "internalType": "uint256",
          "name": "limit",
          "type": "uint256"
        }
      ],
      "name": "getActiveContractsByAddressAndOffsetAndLimit",
      "outputs": [
        {
          "internalType": "address[]",
          "name": "",
          "type": "address[]"
        }
      ],
      "stateMutability": "view",
      "type": "function",
      "constant": true
    },
    {
      "inputs": [
        {
          "internalType": "string",
          "name": "addressToSearchFor",
          "type": "string"
        }
      ],
      "name": "getForSaleContractsByAddressCount",
      "outputs": [
        {
          "internalType": "uint256",
          "name": "",
          "type": "uint256"
        }
      ],
      "stateMutability": "view",
      "type": "function",
      "constant": true
    },
    {
      "inputs": [],
      "name": "getForSaleContractsCount",
      "outputs": [
        {
          "internalType": "uint256",
          "name": "",
          "type": "uint256"
        }
      ],
      "stateMutability": "view",
      "type": "function",
      "constant": true
    },
    {
      "inputs": [],
      "name": "getForSaleContracts",
      "outputs": [
        {
          "internalType": "address[]",
          "name": "",
          "type": "address[]"
        }
      ],
      "stateMutability": "view",
      "type": "function",
      "constant": true
    },
    {
      "inputs": [
        {
          "internalType": "string",
          "name": "addressToSearchFor",
          "type": "string"
        }
      ],
      "name": "getForSaleContractsByAddress",
      "outputs": [
        {
          "internalType": "address[]",
          "name": "",
          "type": "address[]"
        }
      ],
      "stateMutability": "view",
      "type": "function",
      "constant": true
    },
    {
      "inputs": [
        {
          "internalType": "string",
          "name": "addressToSearchFor",
          "type": "string"
        },
        {
          "internalType": "uint256",
          "name": "offset",
          "type": "uint256"
        },
        {
          "internalType": "uint256",
          "name": "limit",
          "type": "uint256"
        }
      ],
      "name": "getForSaleContractsByAddressAndOffsetAndLimit",
      "outputs": [
        {
          "internalType": "address[]",
          "name": "",
          "type": "address[]"
        }
      ],
      "stateMutability": "view",
      "type": "function",
      "constant": true
    },
    {
      "inputs": [
        {
          "internalType": "address",
          "name": "account",
          "type": "address"
        }
      ],
      "name": "getAccountContractsCount",
      "outputs": [
        {
          "internalType": "uint256",
          "name": "",
          "type": "uint256"
        }
      ],
      "stateMutability": "view",
      "type": "function",
      "constant": true
    },
    {
      "inputs": [
        {
          "internalType": "address",
          "name": "account",
          "type": "address"
        }
      ],
      "name": "getAccountContracts",
      "outputs": [
        {
          "internalType": "address[]",
          "name": "",
          "type": "address[]"
        }
      ],
      "stateMutability": "view",
      "type": "function",
      "constant": true
    },
    {
      "inputs": [
        {
          "internalType": "string",
          "name": "stringToSearchIn",
          "type": "string"
        },
        {
          "internalType": "string",
          "name": "stringToSearchFor",
          "type": "string"
        }
      ],
      "name": "stringContains",
      "outputs": [
        {
          "internalType": "bool",
          "name": "",
          "type": "bool"
        }
      ],
      "stateMutability": "pure",
      "type": "function",
      "constant": true
    },
    {
      "inputs": [
        {
          "internalType": "string",
          "name": "str",
          "type": "string"
        }
      ],
      "name": "toLower",
      "outputs": [
        {
          "internalType": "string",
          "name": "",
          "type": "string"
        }
      ],
      "stateMutability": "pure",
      "type": "function",
      "constant": true
    }
  ],
  "bytecode": "0x60806040523480156200001157600080fd5b50604051620057a6380380620057a6833981016040819052620000349162000149565b60005b8151811015620000f55760008282815181106200005857620000586200021b565b6020908102919091018101518254600180820185556000948552928420018054600160a060020a031916600160a060020a03909216919091179055835190918291859085908110620000ae57620000ae6200021b565b602090810291909101810151600160a060020a03168252810191909152604001600020805460ff191691151591909117905580620000ec816200024a565b91505062000037565b50506200028b565b7f4e487b7100000000000000000000000000000000000000000000000000000000600052604160045260246000fd5b8051600160a060020a03811681146200014457600080fd5b919050565b600060208083850312156200015d57600080fd5b825167ffffffffffffffff808211156200017657600080fd5b818501915085601f8301126200018b57600080fd5b815181811115620001a057620001a0620000fd565b838102604051601f19603f83011681018181108582111715620001c757620001c7620000fd565b604052918252848201925083810185019188831115620001e657600080fd5b938501935b828510156200020f57620001ff856200012c565b84529385019392850192620001eb565b98975050505050505050565b7f4e487b7100000000000000000000000000000000000000000000000000000000600052603260045260246000fd5b60006001820162000284577f4e487b7100000000000000000000000000000000000000000000000000000000600052601160045260246000fd5b5060010190565b61550b806200029b6000396000f3fe60806040523480156200001157600080fd5b506004361062000236576000357c0100000000000000000000000000000000000000000000000000000000900480638ffb2f7b1162000142578063c70c17f311620000cc578063ed63455c1162000097578063ed63455c14620004f0578063f33c4ff91462000507578063f972b7ce146200051e578063fb163e69146200052857600080fd5b8063c70c17f31462000492578063d4950d9114620004a9578063d5db72eb14620004b3578063e964d4e114620004d957600080fd5b8063a210bee2116200010d578063a210bee21462000444578063ad44a5e4146200045b578063b64c0e191462000465578063c3a2a93a146200048857600080fd5b80638ffb2f7b14620003d95780639089aee314620003f05780639416b423146200040757806395cc3339146200042d57600080fd5b806333c368ed11620001c45780635e0d99a1116200018f5780635e0d99a1146200038a5780635fcf3c7714620003a15780637211899514620003b857806373b928cb14620003cf57600080fd5b806333c368ed146200032e57806333cf5ef814620003455780633ab007ed146200035c5780635a44e3b7146200037357600080fd5b806312f83832116200020557806312f8383214620002bd5780632a58812e14620002d45780632f54bf6e14620002ed57806331deb991146200032457600080fd5b8063022edd35146200023b578063025e7c27146200025d5780630acae46e146200028d5780630e47dbd914620002a4575b600080fd5b6200024562000532565b60405162000254919062002439565b60405180910390f35b620002746200026e3660046200247c565b6200077a565b604051600160a060020a03909116815260200162000254565b620002456200029e3660046200256a565b620007a5565b620002ae62000942565b60405190815260200162000254565b62000274620002ce3660046200247c565b62000ad5565b620002eb620002e5366004620025e7565b62000ae6565b005b62000313620002fe366004620026e2565b60016020526000908152604090205460ff1681565b604051901515815260200162000254565b620002ae62000bf2565b620002456200033f3660046200256a565b62000cd1565b620002eb6200035636600462002709565b62000e59565b620002456200036d366004620027c7565b62000fa1565b620002456200038436600462002808565b6200114e565b620002456200039b366004620027c7565b620012e1565b620002ae620003b2366004620027c7565b620013ed565b620002eb620003c936600462002709565b62001618565b62000245620016c2565b620002ae620003ea366004620027c7565b62001854565b620002ae62000401366004620026e2565b6200195a565b6200041e62000418366004620027c7565b62001afc565b6040516200025491906200287f565b620002eb6200043e36600462002709565b62001cbb565b62000274620004553660046200247c565b62001d65565b6200024562001d76565b620002ae62000476366004620026e2565b60056020526000908152604090205481565b6200024562001f08565b62000313620004a3366004620026e2565b62001f6c565b6200024562001fa3565b62000313620004c4366004620026e2565b60036020526000908152604090205460ff1681565b62000245620004ea366004620026e2565b62002005565b620003136200050136600462002894565b620021b4565b6200031362000518366004620026e2565b620022bc565b62000245620022ea565b620002ae6200234c565b606060006200054062000942565b67ffffffffffffffff8111156200055b576200055b62002496565b60405190808252806020026020018201604052801562000585578160200160208202803683370190505b5090506000805b6004548110156200077257600160048281548110620005af57620005af62002918565b600091825260209182902001546040805160e560020a63042904f70281529051600160a060020a03909216926385209ee0926004808401938290030181865afa15801562000601573d6000803e3d6000fd5b505050506040513d601f19601f8201168201806040525081019062000627919062002931565b60038111156200063b576200063b620028ff565b1480620006e957506002600482815481106200065b576200065b62002918565b600091825260209182902001546040805160e560020a63042904f70281529051600160a060020a03909216926385209ee0926004808401938290030181865afa158015620006ad573d6000803e3d6000fd5b505050506040513d601f19601f82011682018060405250810190620006d3919062002931565b6003811115620006e757620006e7620028ff565b145b156200075d576004818154811062000705576200070562002918565b600091825260209091200154600160a060020a0316838362000727816200296d565b9450815181106200073c576200073c62002918565b6020026020010190600160a060020a03169081600160a060020a0316815250505b8062000769816200296d565b9150506200058c565b509092915050565b600081815481106200078b57600080fd5b600091825260209091200154600160a060020a0316905081565b60606000620007b48562001854565b9050838111620007e45760405160e560020a62461bcd028152600401620007db9062002989565b60405180910390fd5b6000620007f28486620029c0565b82116200085157620008058583620029d6565b67ffffffffffffffff81111562000820576200082062002496565b6040519080825280602002602001820160405280156200084a578160200160208202803683370190505b5062000899565b8367ffffffffffffffff8111156200086d576200086d62002496565b60405190808252806020026020018201604052801562000897578160200160208202803683370190505b505b90506000620008a887620012e1565b9050855b620008b88688620029c0565b811015620009365781518110156200093657818181518110620008df57620008df62002918565b6020026020010151838883620008f69190620029d6565b8151811062000909576200090962002918565b600160a060020a0390921660209283029190910190910152806200092d816200296d565b915050620008ac565b50909695505050505050565b600080805b60045481101562000acf576001600482815481106200096a576200096a62002918565b600091825260209182902001546040805160e560020a63042904f70281529051600160a060020a03909216926385209ee0926004808401938290030181865afa158015620009bc573d6000803e3d6000fd5b505050506040513d601f19601f82011682018060405250810190620009e2919062002931565b6003811115620009f657620009f6620028ff565b148062000aa4575060026004828154811062000a165762000a1662002918565b600091825260209182902001546040805160e560020a63042904f70281529051600160a060020a03909216926385209ee0926004808401938290030181865afa15801562000a68573d6000803e3d6000fd5b505050506040513d601f19601f8201168201806040525081019062000a8e919062002931565b600381111562000aa25762000aa2620028ff565b145b1562000aba578162000ab6816200296d565b9250505b8062000ac6816200296d565b91505062000947565b50919050565b600281815481106200078b57600080fd5b6000308b8b8b8b8b8b8b8b8b8b60405162000b01906200242b565b62000b179b9a99989796959493929190620029ec565b604051809103906000f08015801562000b34573d6000803e3d6000fd5b50600480546001810182556000919091527f8a35acfbc15ff81a39ae7d344fd709f28e8600b4aa8c65c6b64bfe7fe36bd19b01805473ffffffffffffffffffffffffffffffffffffffff1916600160a060020a0383811691821790925560405142815292935091908d16907f29e6ab4db8e7f3ff67be9784f7f3b573b5a1c326121ef6a72113199486eb690a9060200160405180910390a3600160a060020a0316600090815260056020526040902043905550505050505050505050565b600080805b60045481101562000acf5760026004828154811062000c1a5762000c1a62002918565b600091825260209182902001546040805160e560020a63042904f70281529051600160a060020a03909216926385209ee0926004808401938290030181865afa15801562000c6c573d6000803e3d6000fd5b505050506040513d601f19601f8201168201806040525081019062000c92919062002931565b600381111562000ca65762000ca6620028ff565b0362000cbc578162000cb8816200296d565b9250505b8062000cc8816200296d565b91505062000bf7565b6060600062000ce085620013ed565b905083811162000d075760405160e560020a62461bcd028152600401620007db9062002989565b600062000d158486620029c0565b821162000d745762000d288583620029d6565b67ffffffffffffffff81111562000d435762000d4362002496565b60405190808252806020026020018201604052801562000d6d578160200160208202803683370190505b5062000dbc565b8367ffffffffffffffff81111562000d905762000d9062002496565b60405190808252806020026020018201604052801562000dba578160200160208202803683370190505b505b9050600062000dcb8762000fa1565b9050855b62000ddb8688620029c0565b81101562000936578151811015620009365781818151811062000e025762000e0262002918565b602002602001015183888362000e199190620029d6565b8151811062000e2c5762000e2c62002918565b600160a060020a03909216602092830291909101909101528062000e50816200296d565b91505062000dcf565b3360009081526001602081905260409091205460ff1615151462000e945760405160e560020a62461bcd028152600401620007db9062002a8f565b60005b815181101562000f9d5762000ec882828151811062000eba5762000eba62002918565b602002602001015162001f6c565b62000f8857600282828151811062000ee45762000ee462002918565b602090810291909101810151825460018082018555600094855292842001805473ffffffffffffffffffffffffffffffffffffffff1916600160a060020a039092169190911790558351909160039185908590811062000f485762000f4862002918565b6020026020010151600160a060020a0316600160a060020a0316815260200190815260200160002060006101000a81548160ff0219169083151502179055505b8062000f94816200296d565b91505062000e97565b5050565b6060600062000fb083620013ed565b67ffffffffffffffff81111562000fcb5762000fcb62002496565b60405190808252806020026020018201604052801562000ff5578160200160208202803683370190505b50905060006200100462000532565b90506000805b82518110156200114457620010c8620010bd84838151811062001031576200103162002918565b6020026020010151600160a060020a031663790d15de6040518163ffffffff167c0100000000000000000000000000000000000000000000000000000000028152600401600060405180830381865afa15801562001093573d6000803e3d6000fd5b505050506040513d6000823e601f3d908101601f1916820160405262000418919081019062002aec565b620005018862001afc565b156200112f57828181518110620010e357620010e362002918565b6020026020010151848380620010f9906200296d565b9450815181106200110e576200110e62002918565b6020026020010190600160a060020a03169081600160a060020a0316815250505b806200113b816200296d565b9150506200100a565b5091949350505050565b606060006200115c6200234c565b9050838111620011835760405160e560020a62461bcd028152600401620007db9062002989565b6000620011918486620029c0565b8211620011f057620011a48583620029d6565b67ffffffffffffffff811115620011bf57620011bf62002496565b604051908082528060200260200182016040528015620011e9578160200160208202803683370190505b5062001238565b8367ffffffffffffffff8111156200120c576200120c62002496565b60405190808252806020026020018201604052801562001236578160200160208202803683370190505b505b905060006200124662001d76565b9050855b620012568688620029c0565b811015620012d4578151811015620012d4578181815181106200127d576200127d62002918565b6020026020010151838883620012949190620029d6565b81518110620012a757620012a762002918565b600160a060020a039092166020928302919091019091015280620012cb816200296d565b9150506200124a565b5090925050505b92915050565b60606000620012f08362001854565b67ffffffffffffffff8111156200130b576200130b62002496565b60405190808252806020026020018201604052801562001335578160200160208202803683370190505b509050600062001344620016c2565b90506000805b8251811015620011445762001371620010bd84838151811062001031576200103162002918565b15620013d8578281815181106200138c576200138c62002918565b6020026020010151848380620013a2906200296d565b945081518110620013b757620013b762002918565b6020026020010190600160a060020a03169081600160a060020a0316815250505b80620013e4816200296d565b9150506200134a565b600080805b600454811015620016115760016004828154811062001415576200141562002918565b600091825260209182902001546040805160e560020a63042904f70281529051600160a060020a03909216926385209ee0926004808401938290030181865afa15801562001467573d6000803e3d6000fd5b505050506040513d601f19601f820116820180604052508101906200148d919062002931565b6003811115620014a157620014a1620028ff565b14806200154f5750600260048281548110620014c157620014c162002918565b600091825260209182902001546040805160e560020a63042904f70281529051600160a060020a03909216926385209ee0926004808401938290030181865afa15801562001513573d6000803e3d6000fd5b505050506040513d601f19601f8201168201806040525081019062001539919062002931565b60038111156200154d576200154d620028ff565b145b8015620015e65750620015e6620015db6004838154811062001575576200157562002918565b6000918252602082200154604080517f790d15de0000000000000000000000000000000000000000000000000000000081529051600160a060020a039092169263790d15de926004808401938290030181865afa15801562001093573d6000803e3d6000fd5b620005018662001afc565b15620015fc5781620015f8816200296d565b9250505b8062001608816200296d565b915050620013f2565b5092915050565b3360009081526001602081905260409091205460ff16151514620016535760405160e560020a62461bcd028152600401620007db9062002a8f565b60005b815181101562000f9d576001600360008484815181106200167b576200167b62002918565b602090810291909101810151600160a060020a03168252810191909152604001600020805460ff191691151591909117905580620016b9816200296d565b91505062001656565b60606000620016d062000bf2565b67ffffffffffffffff811115620016eb57620016eb62002496565b60405190808252806020026020018201604052801562001715578160200160208202803683370190505b5090506000805b60045481101562000772576002600482815481106200173f576200173f62002918565b600091825260209182902001546040805160e560020a63042904f70281529051600160a060020a03909216926385209ee0926004808401938290030181865afa15801562001791573d6000803e3d6000fd5b505050506040513d601f19601f82011682018060405250810190620017b7919062002931565b6003811115620017cb57620017cb620028ff565b036200183f5760048181548110620017e757620017e762002918565b600091825260209091200154600160a060020a0316838362001809816200296d565b9450815181106200181e576200181e62002918565b6020026020010190600160a060020a03169081600160a060020a0316815250505b806200184b816200296d565b9150506200171c565b600080805b60045481101562001611576002600482815481106200187c576200187c62002918565b600091825260209182902001546040805160e560020a63042904f70281529051600160a060020a03909216926385209ee0926004808401938290030181865afa158015620018ce573d6000803e3d6000fd5b505050506040513d601f19601f82011682018060405250810190620018f4919062002931565b6003811115620019085762001908620028ff565b1480156200192f57506200192f620015db6004838154811062001575576200157562002918565b1562001945578162001941816200296d565b9250505b8062001951816200296d565b91505062001859565b600080805b600454811015620016115783600160a060020a0316600482815481106200198a576200198a62002918565b60009182526020918290200154604080517f8da5cb5b0000000000000000000000000000000000000000000000000000000081529051600160a060020a0390921692638da5cb5b926004808401938290030181865afa158015620019f2573d6000803e3d6000fd5b505050506040513d601f19601f8201168201806040525081019062001a18919062002b6c565b600160a060020a031614801562001ad1575060036004828154811062001a425762001a4262002918565b600091825260209182902001546040805160e560020a63042904f70281529051600160a060020a03909216926385209ee0926004808401938290030181865afa15801562001a94573d6000803e3d6000fd5b505050506040513d601f19601f8201168201806040525081019062001aba919062002931565b600381111562001ace5762001ace620028ff565b14155b1562001ae7578162001ae3816200296d565b9250505b8062001af3816200296d565b9150506200195f565b606060008290506000815167ffffffffffffffff81111562001b225762001b2262002496565b6040519080825280601f01601f19166020018201604052801562001b4d576020820181803683370190505b50905060005b825181101562001cb357604183828151811062001b745762001b7462002918565b602001015160f860020a900460f860020a0260f860020a900460ff161015801562001bd05750605a83828151811062001bb15762001bb162002918565b602001015160f860020a900460f860020a0260f860020a900460ff1611155b1562001c4a5782818151811062001beb5762001beb62002918565b602001015160f860020a900460f860020a0260f860020a9004602062001c12919062002b8c565b60f860020a0282828151811062001c2d5762001c2d62002918565b6020010190600160f860020a031916908160001a90535062001c9e565b82818151811062001c5f5762001c5f62002918565b602001015160f860020a900460f860020a0282828151811062001c865762001c8662002918565b6020010190600160f860020a031916908160001a9053505b8062001caa816200296d565b91505062001b53565b509392505050565b3360009081526001602081905260409091205460ff1615151462001cf65760405160e560020a62461bcd028152600401620007db9062002a8f565b60005b815181101562000f9d5760006003600084848151811062001d1e5762001d1e62002918565b602090810291909101810151600160a060020a03168252810191909152604001600020805460ff19169115159190911790558062001d5c816200296d565b91505062001cf9565b600481815481106200078b57600080fd5b6060600062001d846200234c565b67ffffffffffffffff81111562001d9f5762001d9f62002496565b60405190808252806020026020018201604052801562001dc9578160200160208202803683370190505b5090506000805b600454811015620007725760006004828154811062001df35762001df362002918565b600091825260209182902001546040805160e560020a63042904f70281529051600160a060020a03909216926385209ee0926004808401938290030181865afa15801562001e45573d6000803e3d6000fd5b505050506040513d601f19601f8201168201806040525081019062001e6b919062002931565b600381111562001e7f5762001e7f620028ff565b0362001ef3576004818154811062001e9b5762001e9b62002918565b600091825260209091200154600160a060020a0316838362001ebd816200296d565b94508151811062001ed25762001ed262002918565b6020026020010190600160a060020a03169081600160a060020a0316815250505b8062001eff816200296d565b91505062001dd0565b6060600480548060200260200160405190810160405280929190818152602001828054801562001f6257602002820191906000526020600020905b8154600160a060020a0316815260019091019060200180831162001f43575b5050505050905090565b600160a060020a038116600090815260016020819052604082205460ff161515900362001f9b57506001919050565b506000919050565b6060600080548060200260200160405190810160405280929190818152602001828054801562001f6257602002820191906000526020600020908154600160a060020a0316815260019091019060200180831162001f43575050505050905090565b6060600062002014836200195a565b67ffffffffffffffff8111156200202f576200202f62002496565b60405190808252806020026020018201604052801562002059578160200160208202803683370190505b5090506000805b600454811015620021ab5784600160a060020a0316600482815481106200208b576200208b62002918565b60009182526020918290200154604080517f8da5cb5b0000000000000000000000000000000000000000000000000000000081529051600160a060020a0390921692638da5cb5b926004808401938290030181865afa158015620020f3573d6000803e3d6000fd5b505050506040513d601f19601f8201168201806040525081019062002119919062002b6c565b600160a060020a0316036200219657600481815481106200213e576200213e62002918565b600091825260209091200154600160a060020a0316838362002160816200296d565b94508151811062002175576200217562002918565b6020026020010190600160a060020a03169081600160a060020a0316815250505b80620021a2816200296d565b91505062002060565b50909392505050565b80518251600091839185911115620021cb57600080fd5b6000805b83518351620021df9190620029d6565b8111620022b257600160005b855181101562002289578581815181106200220a576200220a62002918565b602001015160f860020a900460f860020a02600160f860020a031916858285620022359190620029c0565b8151811062002248576200224862002918565b602001015160f860020a900460f860020a02600160f860020a0319161462002274576000915062002289565b8062002280816200296d565b915050620021eb565b5080156200229c576001925050620022b2565b5080620022a9816200296d565b915050620021cf565b5095945050505050565b600160a060020a03811660009081526003602052604081205460ff16151560010362001f9b57506001919050565b6060600280548060200260200160405190810160405280929190818152602001828054801562001f6257602002820191906000526020600020908154600160a060020a0316815260019091019060200180831162001f43575050505050905090565b600080805b60045481101562000acf5760006004828154811062002374576200237462002918565b600091825260209182902001546040805160e560020a63042904f70281529051600160a060020a03909216926385209ee0926004808401938290030181865afa158015620023c6573d6000803e3d6000fd5b505050506040513d601f19601f82011682018060405250810190620023ec919062002931565b6003811115620024005762002400620028ff565b0362002416578162002412816200296d565b9250505b8062002422816200296d565b91505062002351565b61292d8062002ba983390190565b6020808252825182820181905260009190848201906040850190845b8181101562000936578351600160a060020a03168352928401929184019160010162002455565b6000602082840312156200248f57600080fd5b5035919050565b60e060020a634e487b7102600052604160045260246000fd5b604051601f8201601f1916810167ffffffffffffffff81118282101715620024db57620024db62002496565b604052919050565b600067ffffffffffffffff82111562002500576200250062002496565b50601f01601f191660200190565b600082601f8301126200252057600080fd5b8135620025376200253182620024e3565b620024af565b8181528460208386010111156200254d57600080fd5b816020850160208301376000918101602001919091529392505050565b6000806000606084860312156200258057600080fd5b833567ffffffffffffffff8111156200259857600080fd5b620025a6868287016200250e565b9660208601359650604090950135949350505050565b600160a060020a0381168114620025d257600080fd5b50565b8035620025e281620025bc565b919050565b6000806000806000806000806000806101408b8d0312156200260857600080fd5b620026138b620025d5565b995060208b013567ffffffffffffffff808211156200263157600080fd5b6200263f8e838f016200250e565b9a5060408d01359150808211156200265657600080fd5b620026648e838f016200250e565b995060608d01359150808211156200267b57600080fd5b620026898e838f016200250e565b985060808d0135915080821115620026a057600080fd5b50620026af8d828e016200250e565b9a9d999c50979a96999860a0880135985060c08801359760e0810135975061010081013596506101200135945092505050565b600060208284031215620026f557600080fd5b81356200270281620025bc565b9392505050565b600060208083850312156200271d57600080fd5b823567ffffffffffffffff808211156200273657600080fd5b818501915085601f8301126200274b57600080fd5b81358181111562002760576200276062002496565b838102915062002772848301620024af565b81815291830184019184810190888411156200278d57600080fd5b938501935b83851015620027bb5784359250620027aa83620025bc565b828252938501939085019062002792565b98975050505050505050565b600060208284031215620027da57600080fd5b813567ffffffffffffffff811115620027f257600080fd5b62002800848285016200250e565b949350505050565b600080604083850312156200281c57600080fd5b50508035926020909101359150565b60005b83811015620028485781810151838201526020016200282e565b50506000910152565b600081518084526200286b8160208601602086016200282b565b601f01601f19169290920160200192915050565b60208152600062002702602083018462002851565b60008060408385031215620028a857600080fd5b823567ffffffffffffffff80821115620028c157600080fd5b620028cf868387016200250e565b93506020850135915080821115620028e657600080fd5b50620028f5858286016200250e565b9150509250929050565b60e060020a634e487b7102600052602160045260246000fd5b60e060020a634e487b7102600052603260045260246000fd5b6000602082840312156200294457600080fd5b8151600481106200270257600080fd5b60e060020a634e487b7102600052601160045260246000fd5b60006001820162002982576200298262002954565b5060010190565b6020808252601f908201527f4f66667365742067726561746572207468616e206c697374206c656e67746800604082015260600190565b80820180821115620012db57620012db62002954565b81810381811115620012db57620012db62002954565b6000610160600160a060020a03808f168452808e1660208501525080604084015262002a1b8184018d62002851565b9050828103606084015262002a31818c62002851565b9050828103608084015262002a47818b62002851565b905082810360a084015262002a5d818a62002851565b60c0840198909852505060e0810194909452610100840192909252610120830152610140909101529695505050505050565b60208082526038908201527f4f6e6c79206f6e65206f6620746865206f776e6572732068617320616363657360408201527f7320746f20746869732066756e6374696f6e616c6974792e0000000000000000606082015260800190565b60006020828403121562002aff57600080fd5b815167ffffffffffffffff81111562002b1757600080fd5b8201601f8101841362002b2957600080fd5b805162002b3a6200253182620024e3565b81815285602083850101111562002b5057600080fd5b62002b638260208301602086016200282b565b95945050505050565b60006020828403121562002b7f57600080fd5b81516200270281620025bc565b60ff8181168382160190811115620012db57620012db6200295456fe60806040523480156200001157600080fd5b506040516200292d3803806200292d833981016040819052620000349162000322565b60048054600160a060020a038d8116600160a060020a03199283161790925560058054928d16929091169190911790556000805460ff1916905560076200007c8a82620004ec565b5060086200008b8982620004ec565b5060096200009a8882620004ec565b50600a620000a98782620004ec565b50600b859055600c848155600184905560028390556003829055604080518082019091529081527f4e6f742050726f766964656400000000000000000000000000000000000000006020820152600d90620001059082620004ec565b5060408051808201909152600c81527f4e6f742050726f766964656400000000000000000000000000000000000000006020820152600e90620001499082620004ec565b5060408051808201909152600c81527f4e6f742050726f766964656400000000000000000000000000000000000000006020820152600f906200018d9082620004ec565b5060408051808201909152600c81527f4e6f742050726f766964656400000000000000000000000000000000000000006020820152601090620001d19082620004ec565b5060408051808201909152600c81527f4e6f742050726f766964656400000000000000000000000000000000000000006020820152601190620002159082620004ec565b505050505050505050505050620005be565b8051600160a060020a03811681146200023f57600080fd5b919050565b7f4e487b7100000000000000000000000000000000000000000000000000000000600052604160045260246000fd5b600082601f8301126200028557600080fd5b81516001604060020a0380821115620002a257620002a262000244565b604051601f8301601f19908116603f01168101908282118183101715620002cd57620002cd62000244565b81604052838152602092508683858801011115620002ea57600080fd5b600091505b838210156200030e5785820183015181830184015290820190620002ef565b600093810190920192909252949350505050565b60008060008060008060008060008060006101608c8e0312156200034557600080fd5b620003508c62000227565b9a506200036060208d0162000227565b995060408c01516001604060020a038111156200037c57600080fd5b6200038a8e828f0162000273565b99505060608c01516001604060020a03811115620003a757600080fd5b620003b58e828f0162000273565b98505060808c01516001604060020a03811115620003d257600080fd5b620003e08e828f0162000273565b97505060a08c01516001604060020a03811115620003fd57600080fd5b6200040b8e828f0162000273565b96505060c08c0151945060e08c015193506101008c015192506101208c015191506101408c015190509295989b509295989b9093969950565b6002810460018216806200045957607f821691505b60208210810362000493577f4e487b7100000000000000000000000000000000000000000000000000000000600052602260045260246000fd5b50919050565b601f821115620004e7576000818152602081206020601f86010481016020861015620004c25750805b6020601f860104820191505b81811015620004e357828155600101620004ce565b5050505b505050565b81516001604060020a0381111562000508576200050862000244565b620005208162000519845462000444565b8462000499565b602080601f8311600181146200055c57600084156200053f5750858301515b60028086026008870290910a6000190419821617865550620004e3565b600085815260208120601f198616915b828110156200058d578886015182559484019460019091019084016200056c565b5085821015620005ae57878501516008601f88160260020a60001904191681555b5050505050600202600101905550565b61235f80620005ce6000396000f3fe608060405260043610610160576000357c01000000000000000000000000000000000000000000000000000000009004806385209ee0116100d35780639dfc91171161008c5780639dfc9117146106b8578063b3cbb32c146106ec578063b6366d921461070c578063daca4eef1461072c578063e75a8e8b14610752578063f5cfb0321461077257600080fd5b806385209ee0146105fc57806385329517146106235780638d97bee8146106435780638da5cb5b14610663578063953fe3cc1461068357806397035a071461069857600080fd5b806341fa17661161012557806341fa1766146105275780635293c83814610547578063536f5c361461057757806372b501091461059a57806374bdde49146105ba578063790d15de146105da57600080fd5b80627dc3721461044057806302d05d3f1461047157806312821b5e146104a95780633d0df5e5146104e35780633d7a44921461050557600080fd5b3661043b5760006006805460ff169081111561017e5761017e611770565b14806101a0575060036006805460ff169081111561019e5761019e611770565b145b61021a5760405160e560020a62461bcd02815260206004820152603760248201527f546869732070726f706572747927732074656e757265207479706520646f657360448201527f206e6f7420737570706f7274206265696e6720736f6c6400000000000000000060648201526084015b60405180910390fd5b600260005460ff16600381111561023357610233611770565b146102835760405160e560020a62461bcd02815260206004820152601e60248201527f546869732070726f7065727479206973206e6f7420666f722073616c652e00006044820152606401610211565b600360005460ff16600381111561029c5761029c611770565b036102bc5760405160e560020a62461bcd02815260040161021190611789565b6003546000906102cd9060126117ff565b6102d890600a6118f9565b6002546102e5919061190c565b6001546102fa90670de0b6b3a764000061190c565b610304919061192b565b9050333181111561035a5760405160e560020a62461bcd02815260206004820152601260248201527f496e73756666696369656e742066756e647300000000000000000000000000006044820152606401610211565b600554604051600160a060020a03909116903480156108fc02916000818181858888f19350505050158015610393573d6000803e3d6000fd5b506000805460ff19166001179055337f4ee5e828d146990939dfac61f9a68e6224e50d10265079de2a9c639e0f76b10b6103cb610792565b604080519182524260208301520160405180910390a260128054600181018255600091909152437fbb8a6a4669ba250d26cd7a459eca9d215f8307e33aebe50379bc5a3617ec3444909101556005805473ffffffffffffffffffffffffffffffffffffffff191633908117909155005b600080fd5b34801561044c57600080fd5b506104556107e2565b604051610468979695949392919061198e565b60405180910390f35b34801561047d57600080fd5b5060045461049190600160a060020a031681565b604051600160a060020a039091168152602001610468565b3480156104b557600080fd5b506001546002546003546104c892919083565b60408051938452602084019290925290820152606001610468565b3480156104ef57600080fd5b506104f8610a33565b6040516104689190611a08565b34801561051157600080fd5b50610525610520366004611b06565b610a8b565b005b34801561053357600080fd5b50610525610542366004611b7e565b610b36565b34801561055357600080fd5b50610567610562366004611bc5565b610c08565b6040519015158152602001610468565b34801561058357600080fd5b5061058c610792565b604051908152602001610468565b3480156105a657600080fd5b506105256105b5366004611cba565b610c63565b3480156105c657600080fd5b506105256105d5366004611cfb565b610dc3565b3480156105e657600080fd5b506105ef610f40565b6040516104689190611ddc565b34801561060857600080fd5b506000546106169060ff1681565b6040516104689190611e03565b34801561062f57600080fd5b5061052561063e366004611e11565b610f72565b34801561064f57600080fd5b5061052561065e366004611e3d565b61100d565b34801561066f57600080fd5b5060055461049190600160a060020a031681565b34801561068f57600080fd5b506105676110c3565b3480156106a457600080fd5b506105256106b3366004611e67565b61120a565b3480156106c457600080fd5b5060045460055460005460405161046893600160a060020a0390811693169160ff1690611e82565b3480156106f857600080fd5b50610567610707366004611b06565b6112d0565b34801561071857600080fd5b50610525610727366004611eaf565b611339565b34801561073857600080fd5b506107416113dd565b604051610468959493929190611ec8565b34801561075e57600080fd5b5061058c61076d366004611eaf565b6116a7565b34801561077e57600080fd5b5061052561078d366004611f35565b6116c8565b60035460009081906107a59060126117ff565b6107b090600a6118f9565b6002546107bd919061190c565b6001546107d290670de0b6b3a764000061190c565b6107dc919061192b565b92915050565b600680546007805460ff90921692916107fa90611f50565b80601f016020809104026020016040519081016040528092919081815260200182805461082690611f50565b80156108735780601f1061084857610100808354040283529160200191610873565b820191906000526020600020905b81548152906001019060200180831161085657829003601f168201915b50505050509080600201805461088890611f50565b80601f01602080910402602001604051908101604052809291908181526020018280546108b490611f50565b80156109015780601f106108d657610100808354040283529160200191610901565b820191906000526020600020905b8154815290600101906020018083116108e457829003601f168201915b50505050509080600301805461091690611f50565b80601f016020809104026020016040519081016040528092919081815260200182805461094290611f50565b801561098f5780601f106109645761010080835404028352916020019161098f565b820191906000526020600020905b81548152906001019060200180831161097257829003601f168201915b5050505050908060040180546109a490611f50565b80601f01602080910402602001604051908101604052809291908181526020018280546109d090611f50565b8015610a1d5780601f106109f257610100808354040283529160200191610a1d565b820191906000526020600020905b815481529060010190602001808311610a0057829003601f168201915b5050505050908060050154908060060154905087565b60606012805480602002602001604051908101604052809291908181526020018280548015610a8157602002820191906000526020600020905b815481526020019060010190808311610a6d575b5050505050905090565b610a936110c3565b610ab25760405160e560020a62461bcd02815260040161021190611f8d565b600554600160a060020a03163314610adf5760405160e560020a62461bcd02815260040161021190611fea565b600360005460ff166003811115610af857610af8611770565b03610b185760405160e560020a62461bcd02815260040161021190611789565b6009610b248382612095565b50600a610b318282612095565b505050565b610b3e6110c3565b610b5d5760405160e560020a62461bcd02815260040161021190611f8d565b600554600160a060020a03163314610b8a5760405160e560020a62461bcd02815260040161021190611fea565b600360005460ff166003811115610ba357610ba3611770565b03610bc35760405160e560020a62461bcd02815260040161021190611789565b60018581556002859055600384905560068054849260ff19909116908383811115610bf057610bf0611770565b0217905550600c5550506000805460ff191690555050565b6000805b8251811015610c5957610c3884848381518110610c2b57610c2b61215b565b60200260200101516112d0565b15610c475760019150506107dc565b80610c5181612174565b915050610c0c565b5060009392505050565b600480546040517ff33c4ff90000000000000000000000000000000000000000000000000000000081523392810192909252600160a060020a03169063f33c4ff990602401602060405180830381865afa158015610cc5573d6000803e3d6000fd5b505050506040513d601f19601f82011682018060405250810190610ce9919061218d565b1515600114610d0d5760405160e560020a62461bcd028152600401610211906121af565b600554600160a060020a03163303610d3a5760405160e560020a62461bcd0281526004016102119061220c565b600360005460ff166003811115610d5357610d53611770565b03610d735760405160e560020a62461bcd02815260040161021190611789565b6005805473ffffffffffffffffffffffffffffffffffffffff1916600160a060020a0384161790556000805482919060ff19166001836003811115610dba57610dba611770565b02179055505050565b600480546040517ff33c4ff90000000000000000000000000000000000000000000000000000000081523392810192909252600160a060020a03169063f33c4ff990602401602060405180830381865afa158015610e25573d6000803e3d6000fd5b505050506040513d601f19601f82011682018060405250810190610e49919061218d565b1515600114610e6d5760405160e560020a62461bcd028152600401610211906121af565b600554600160a060020a03163303610e9a5760405160e560020a62461bcd0281526004016102119061220c565b600360005460ff166003811115610eb357610eb3611770565b03610ed35760405160e560020a62461bcd02815260040161021190611789565b600d610edf8782612095565b50600e610eec8682612095565b50600f610ef98582612095565b506010610f068482612095565b506011610f138382612095565b506000805482919060ff19166001836003811115610f3357610f33611770565b0217905550505050505050565b604051606090610f5e90600790600890600990600a906020016122dc565b604051602081830303815290604052905090565b610f7a6110c3565b610f995760405160e560020a62461bcd02815260040161021190611f8d565b600554600160a060020a03163314610fc65760405160e560020a62461bcd02815260040161021190611fea565b600360005460ff166003811115610fdf57610fdf611770565b03610fff5760405160e560020a62461bcd02815260040161021190611789565b600192909255600255600355565b600554600160a060020a0316331461103a5760405160e560020a62461bcd02815260040161021190611fea565b6110426110c3565b6110615760405160e560020a62461bcd02815260040161021190611f8d565b600360005460ff16600381111561107a5761107a611770565b0361109a5760405160e560020a62461bcd02815260040161021190611789565b6006805483919060ff1916600183838111156110b8576110b8611770565b0217905550600c5550565b6000611191600d60000180546110d890611f50565b80601f016020809104026020016040519081016040528092919081815260200182805461110490611f50565b80156111515780601f1061112657610100808354040283529160200191611151565b820191906000526020600020905b81548152906001019060200180831161113457829003601f168201915b50505050506040518060400160405280600881526020017f50726f76696465640000000000000000000000000000000000000000000000008152506112d0565b80156111ab57506111ab600d60010180546110d890611f50565b80156111c557506111c5600d60020180546110d890611f50565b80156111df57506111df600d60030180546110d890611f50565b80156111f957506111f9600d60040180546110d890611f50565b156112045750600190565b50600090565b6112126110c3565b6112315760405160e560020a62461bcd02815260040161021190611f8d565b600554600160a060020a0316331461125e5760405160e560020a62461bcd02815260040161021190611fea565b600360005460ff16600381111561127757611277611770565b036112975760405160e560020a62461bcd02815260040161021190611789565b6006805482919060ff1916600183838111156112b5576112b5611770565b021790555060008054819060ff19166001825b021790555050565b600081518351146112e3575060006107dc565b816040516020016112f4919061230d565b604051602081830303815290604052805190602001208360405160200161131b919061230d565b604051602081830303815290604052805190602001201490506107dc565b6113416110c3565b6113605760405160e560020a62461bcd02815260040161021190611f8d565b600554600160a060020a0316331461138d5760405160e560020a62461bcd02815260040161021190611fea565b600360005460ff1660038111156113a6576113a6611770565b036113c65760405160e560020a62461bcd02815260040161021190611789565b600c81905560008054819060ff19166001826112c8565b600d805481906113ec90611f50565b80601f016020809104026020016040519081016040528092919081815260200182805461141890611f50565b80156114655780601f1061143a57610100808354040283529160200191611465565b820191906000526020600020905b81548152906001019060200180831161144857829003601f168201915b50505050509080600101805461147a90611f50565b80601f01602080910402602001604051908101604052809291908181526020018280546114a690611f50565b80156114f35780601f106114c8576101008083540402835291602001916114f3565b820191906000526020600020905b8154815290600101906020018083116114d657829003601f168201915b50505050509080600201805461150890611f50565b80601f016020809104026020016040519081016040528092919081815260200182805461153490611f50565b80156115815780601f1061155657610100808354040283529160200191611581565b820191906000526020600020905b81548152906001019060200180831161156457829003601f168201915b50505050509080600301805461159690611f50565b80601f01602080910402602001604051908101604052809291908181526020018280546115c290611f50565b801561160f5780601f106115e45761010080835404028352916020019161160f565b820191906000526020600020905b8154815290600101906020018083116115f257829003601f168201915b50505050509080600401805461162490611f50565b80601f016020809104026020016040519081016040528092919081815260200182805461165090611f50565b801561169d5780601f106116725761010080835404028352916020019161169d565b820191906000526020600020905b81548152906001019060200180831161168057829003601f168201915b5050505050905085565b601281815481106116b757600080fd5b600091825260209091200154905081565b6116d06110c3565b6116ef5760405160e560020a62461bcd02815260040161021190611f8d565b600554600160a060020a0316331461171c5760405160e560020a62461bcd02815260040161021190611fea565b600360005460ff16600381111561173557611735611770565b036117555760405160e560020a62461bcd02815260040161021190611789565b6000805482919060ff191660018360038111156112c8576112c85b60e060020a634e487b7102600052602160045260246000fd5b60208082526032908201527f546869732050726f7065727479205469746c6520436f6e74726163742069732060408201527f6e6f206c6f6e6765722072656c6176616e740000000000000000000000000000606082015260800190565b60e060020a634e487b7102600052601160045260246000fd5b818103818111156107dc576107dc6117e6565b600181815b8085111561184f578160001904821115611833576118336117e6565b8085161561184057918102915b60029094049390800290611817565b509250929050565b600082611866575060016107dc565b81611873575060006107dc565b81600181146118895760028114611893576118b0565b60019150506107dc565b60ff8411156118a4576118a46117e6565b8360020a9150506107dc565b5060208310610133831016604e8410600b84101617156118d3575081810a6107dc565b6118dd8383611812565b80600019048211156118f1576118f16117e6565b029392505050565b60006119058383611857565b9392505050565b6000816000190483118215151615611926576119266117e6565b500290565b808201808211156107dc576107dc6117e6565b60005b83811015611959578181015183820152602001611941565b50506000910152565b6000815180845261197a81602086016020860161193e565b601f01601f19169290920160200192915050565b6000600789106119a0576119a0611770565b88825260e060208301526119b760e0830189611962565b82810360408401526119c98189611962565b905082810360608401526119dd8188611962565b905082810360808401526119f18187611962565b60a0840195909552505060c0015295945050505050565b6020808252825182820181905260009190848201906040850190845b81811015611a4057835183529284019291840191600101611a24565b50909695505050505050565b60e060020a634e487b7102600052604160045260246000fd5b604051601f8201601f1916810167ffffffffffffffff81118282101715611a8e57611a8e611a4c565b604052919050565b600082601f830112611aa757600080fd5b813567ffffffffffffffff811115611ac157611ac1611a4c565b611ad4601f8201601f1916602001611a65565b818152846020838601011115611ae957600080fd5b816020850160208301376000918101602001919091529392505050565b60008060408385031215611b1957600080fd5b823567ffffffffffffffff80821115611b3157600080fd5b611b3d86838701611a96565b93506020850135915080821115611b5357600080fd5b50611b6085828601611a96565b9150509250929050565b803560078110611b7957600080fd5b919050565b600080600080600060a08688031215611b9657600080fd5b853594506020860135935060408601359250611bb460608701611b6a565b949793965091946080013592915050565b60008060408385031215611bd857600080fd5b823567ffffffffffffffff80821115611bf057600080fd5b611bfc86838701611a96565b9350602091508185013581811115611c1357600080fd5b8501601f81018713611c2457600080fd5b803582811115611c3657611c36611a4c565b838102611c44858201611a65565b918252828101850191858101908a841115611c5e57600080fd5b86850192505b83831015611c9a57823586811115611c7c5760008081fd5b611c8a8c8983890101611a96565b8352509186019190860190611c64565b809750505050505050509250929050565b803560048110611b7957600080fd5b60008060408385031215611ccd57600080fd5b8235600160a060020a0381168114611ce457600080fd5b9150611cf260208401611cab565b90509250929050565b60008060008060008060c08789031215611d1457600080fd5b863567ffffffffffffffff80821115611d2c57600080fd5b611d388a838b01611a96565b97506020890135915080821115611d4e57600080fd5b611d5a8a838b01611a96565b96506040890135915080821115611d7057600080fd5b611d7c8a838b01611a96565b95506060890135915080821115611d9257600080fd5b611d9e8a838b01611a96565b94506080890135915080821115611db457600080fd5b50611dc189828a01611a96565b925050611dd060a08801611cab565b90509295509295509295565b6020815260006119056020830184611962565b60048110611dff57611dff611770565b9052565b602081016107dc8284611def565b600080600060608486031215611e2657600080fd5b505081359360208301359350604090920135919050565b60008060408385031215611e5057600080fd5b611e5983611b6a565b946020939093013593505050565b600060208284031215611e7957600080fd5b61190582611b6a565b600160a060020a0384811682528316602082015260608101611ea76040830184611def565b949350505050565b600060208284031215611ec157600080fd5b5035919050565b60a081526000611edb60a0830188611962565b8281036020840152611eed8188611962565b90508281036040840152611f018187611962565b90508281036060840152611f158186611962565b90508281036080840152611f298185611962565b98975050505050505050565b600060208284031215611f4757600080fd5b61190582611cab565b600281046001821680611f6457607f821691505b602082108103611f875760e060020a634e487b7102600052602260045260246000fd5b50919050565b60208082526024908201527f5468652070726f7065727479206973206e6f74206c6567616c6c7920616c726960408201527f6768742e00000000000000000000000000000000000000000000000000000000606082015260800190565b60208082526032908201527f4f6e6c7920746865206f776e6572206f662074686520436f6e7472616374206860408201527f61732061636365737320746f2074686973210000000000000000000000000000606082015260800190565b601f821115610b31576000818152602081206020601f8601048101602086101561206e5750805b6020601f860104820191505b8181101561208d5782815560010161207a565b505050505050565b815167ffffffffffffffff8111156120af576120af611a4c565b6120c3816120bd8454611f50565b84612047565b602080601f8311600181146120fc57600084156120e05750858301515b60028086026008870290910a600019041982161786555061208d565b600085815260208120601f198616915b8281101561212b5788860151825594840194600190910190840161210c565b508582101561214b57878501516008601f88160260020a60001904191681555b5050505050600202600101905550565b60e060020a634e487b7102600052603260045260246000fd5b600060018201612186576121866117e6565b5060010190565b60006020828403121561219f57600080fd5b8151801515811461190557600080fd5b60208082526036908201527f4f6e6c792061207265676973746572656420726567697374726172206861732060408201527f61636365737320746f207468697320616374696f6e2e00000000000000000000606082015260800190565b60208082526026908201527f596f752063616e206e6f742076616c696461746520796f7572206f776e20707260408201527f6f70657274790000000000000000000000000000000000000000000000000000606082015260800190565b6000815461227681611f50565b6001828116801561228e57600181146122a3576122d2565b60ff19841687528215158302870194506122d2565b8560005260208060002060005b858110156122c95781548a8201529084019082016122b0565b50505082870194505b5050505092915050565b60006123036122fd6122f76122f1858a612269565b88612269565b86612269565b84612269565b9695505050505050565b6000825161231f81846020870161193e565b919091019291505056fea26469706673582212200ed67486759c08e0ab3eac170a933fbc80b79be5ec1448c35c3ad725d029915b64736f6c63430008100033a26469706673582212207bc9dc318dd7575ba97b879dfc9e09ee84a5a287e83a844cb2566180929858e064736f6c63430008100033",
  "immutableReferences": {},
  "source": "//SPDX-License-Identifier: MIT\r\npragma solidity ^0.8.16;\r\n\r\nimport \"./PropertyTitle.sol\";\r\n\r\ninterface IAccessPropertyTitleMethods {\r\n    function contractState() external view returns (PropertyTitleContractState);\r\n    function getFullPropertyAddress() external view returns (string memory);\r\n    function owner() external view returns (address);\r\n}\r\n\r\ncontract TitleCreatingContract {\r\n    event NewTitleContract(\r\n        address indexed ownerAddress,\r\n        address indexed titleContractAddress,\r\n        uint256 timestamp\r\n    );\r\n\r\n    address[] public owners;\r\n    mapping (address => bool) public isOwner;\r\n\r\n    address[] public registrars;\r\n    mapping (address => bool) public isRegistrar;\r\n\r\n    address[] public titleContracts;\r\n    mapping (address => uint256) public propertyTitleDeployBlockNumber;\r\n\r\n    constructor(address[] memory _owners)\r\n    {\r\n        for (uint256 i = 0; i < _owners.length; i++) {\r\n            owners.push(_owners[i]);\r\n            isOwner[_owners[i]] = true;\r\n        }\r\n    }\r\n\r\n    function addRegistrars(address[] memory _registrars) public onlyOwner {\r\n        for (uint256 i = 0; i < _registrars.length; i++) {\r\n            if (!checkIfUserIsOwner(_registrars[i])) {\r\n                registrars.push(_registrars[i]);\r\n                isRegistrar[_registrars[i]] = true;\r\n            }\r\n        }\r\n    }\r\n\r\n    function removeRegistrarRole(address[] memory _registrars) public onlyOwner {\r\n        for (uint256 i = 0; i < _registrars.length; i++) {\r\n            isRegistrar[_registrars[i]] = false;\r\n        }\r\n    }\r\n\r\n    function reactivateRegistrarRole(address[] memory _registrars) public onlyOwner {\r\n        for (uint256 i = 0; i < _registrars.length; i++) {\r\n            isRegistrar[_registrars[i]] = true;\r\n        }\r\n    }\r\n\r\n    function deployNewPropertyTitle(\r\n        address _owner,\r\n        string memory _country,\r\n        string memory _city,\r\n        string memory _street,\r\n        string memory _streeNumber,\r\n        uint256 _apartmentNumber,\r\n        uint256 _squareMeters,\r\n        uint256 _sellingPriceIntegralPart,\r\n        uint256 _sellingPriceFractionalPart,\r\n        uint256  _sellingPriceFractionalPartLength\r\n    )\r\n        public\r\n    {\r\n        PropertyTitle propertyTitle = new PropertyTitle(\r\n            address(this),\r\n            _owner,\r\n            _country,\r\n            _city,\r\n            _street,\r\n            _streeNumber,\r\n            _apartmentNumber,\r\n            _squareMeters,\r\n            _sellingPriceIntegralPart,\r\n            _sellingPriceFractionalPart,\r\n            _sellingPriceFractionalPartLength\r\n        );\r\n        titleContracts.push(address(propertyTitle));\r\n        emit NewTitleContract(_owner, address(propertyTitle), block.timestamp);\r\n        propertyTitleDeployBlockNumber[address(propertyTitle)] = block.number;\r\n    }\r\n\r\n    function checkIfUserIsOwner(address userAddress) public view returns (bool) {\r\n        if (isOwner[userAddress] == true) {\r\n            return true;\r\n        }\r\n        return false;    \r\n    }\r\n\r\n    function checkIfUserIsRegistrar(address userAddress) public view returns (bool) {\r\n        if (isRegistrar[userAddress] == true) {\r\n            return true;\r\n        }\r\n        return false;\r\n    }\r\n\r\n    function getContractOwners() public view returns (address[] memory) {\r\n        return owners;\r\n    }\r\n\r\n    function getContractRegistrars() public view returns (address[] memory) {\r\n        return registrars;\r\n    }\r\n\r\n    function getContracts() public view returns (address[] memory) {\r\n        return titleContracts;\r\n    }\r\n\r\n    function getPendingContractsCount() public view returns (uint256) {\r\n        uint256 k = 0;\r\n        for (uint256 i = 0; i < titleContracts.length; i++) {\r\n            if (IAccessPropertyTitleMethods(titleContracts[i]).contractState() == PropertyTitleContractState.PENDING) {\r\n                k++;\r\n            } \r\n        }\r\n\r\n        return k;\r\n    }\r\n\r\n    function getPendingContracts() public view returns (address[] memory) {\r\n        address[] memory contracts = new address[](getPendingContractsCount());\r\n\r\n        uint256 k = 0;\r\n        for (uint256 i = 0; i < titleContracts.length; i++) {\r\n            if (IAccessPropertyTitleMethods(titleContracts[i]).contractState() == PropertyTitleContractState.PENDING) {\r\n                contracts[k++] = titleContracts[i];\r\n            } \r\n        }\r\n\r\n        return contracts;\r\n    }\r\n\r\n    function getPendingContractsByOffsetAndLimit(uint256 offset, uint256 limit) public view returns (address[] memory) {\r\n        uint256 pendingContractsCount = getPendingContractsCount();\r\n        require(pendingContractsCount > offset, \"Offset greater than list length\");\r\n\r\n        address[] memory contracts = pendingContractsCount > offset + limit \r\n            ? new address[](limit) \r\n            : new address[](pendingContractsCount - offset);\r\n\r\n        address[] memory pendingContracts = getPendingContracts();\r\n        for (uint256 i = offset; i < offset + limit; i++) {\r\n            if (i >= pendingContracts.length) {\r\n                break;\r\n            }\r\n            contracts[i - offset] = pendingContracts[i];\r\n        }\r\n\r\n        return contracts;\r\n    }\r\n\r\n    function getActiveContractsByAddressCount(string memory addressToSearchFor) public view returns (uint256) {\r\n        uint256 k = 0;\r\n        for (uint256 i = 0; i < titleContracts.length; i++) {\r\n            if ((IAccessPropertyTitleMethods(titleContracts[i]).contractState() == PropertyTitleContractState.OWNED ||\r\n                IAccessPropertyTitleMethods(titleContracts[i]).contractState() == PropertyTitleContractState.FOR_SALE) &&\r\n                stringContains(toLower(IAccessPropertyTitleMethods(titleContracts[i]).getFullPropertyAddress()), toLower(addressToSearchFor))) {\r\n                k++;\r\n            } \r\n        }\r\n\r\n        return k;\r\n    }\r\n\r\n    function getActiveContractsCount() public view returns (uint256) {\r\n        uint256 k = 0;\r\n        for (uint256 i = 0; i < titleContracts.length; i++) {\r\n            if (IAccessPropertyTitleMethods(titleContracts[i]).contractState() == PropertyTitleContractState.OWNED ||\r\n                IAccessPropertyTitleMethods(titleContracts[i]).contractState() == PropertyTitleContractState.FOR_SALE) {\r\n                k++;\r\n            } \r\n        }\r\n\r\n        return k;\r\n    }\r\n\r\n    function getActiveContracts() public view returns (address[] memory) {\r\n        address[] memory contracts = new address[](getActiveContractsCount());\r\n\r\n        uint256 k = 0;\r\n        for (uint256 i = 0; i < titleContracts.length; i++) {\r\n            if (IAccessPropertyTitleMethods(titleContracts[i]).contractState() == PropertyTitleContractState.OWNED ||\r\n                IAccessPropertyTitleMethods(titleContracts[i]).contractState() == PropertyTitleContractState.FOR_SALE) {\r\n                contracts[k++] = titleContracts[i];\r\n            }\r\n        }\r\n\r\n        return contracts;\r\n    }\r\n\r\n    function getActiveContractsByAddress(string memory addressToSearchFor) public view returns (address[] memory) {\r\n        address[] memory contracts = new address[](getActiveContractsByAddressCount(addressToSearchFor));\r\n\r\n        address[] memory activeContracts = getActiveContracts();\r\n        uint256 k = 0;\r\n        for (uint256 i = 0; i < activeContracts.length; i++) {\r\n            if (stringContains(toLower(IAccessPropertyTitleMethods(activeContracts[i]).getFullPropertyAddress()), toLower(addressToSearchFor))) {\r\n                contracts[k++] = activeContracts[i];\r\n            }\r\n        }\r\n\r\n        return contracts;\r\n    }\r\n\r\n    function getActiveContractsByAddressAndOffsetAndLimit(string memory addressToSearchFor, uint256 offset, uint256 limit)  public view returns (address[] memory) {\r\n        uint256 activeContractsByAddressCount = getActiveContractsByAddressCount(addressToSearchFor);\r\n        require(activeContractsByAddressCount > offset, \"Offset greater than list length\");\r\n\r\n        address[] memory contracts = activeContractsByAddressCount > offset + limit \r\n            ? new address[](limit) \r\n            : new address[](activeContractsByAddressCount - offset);\r\n\r\n        address[] memory activeContractsByAddress = getActiveContractsByAddress(addressToSearchFor);\r\n        for (uint256 i = offset; i < offset + limit; i++) {\r\n            if (i >= activeContractsByAddress.length) {\r\n                break;\r\n            }\r\n            contracts[i - offset] = activeContractsByAddress[i];\r\n\r\n        }\r\n\r\n        return contracts;\r\n    }\r\n\r\n    function getForSaleContractsByAddressCount(string memory addressToSearchFor) public view returns (uint256) {\r\n        uint256 k = 0;\r\n        for (uint256 i = 0; i < titleContracts.length; i++) {\r\n            if (IAccessPropertyTitleMethods(titleContracts[i]).contractState() == PropertyTitleContractState.FOR_SALE &&\r\n                stringContains(toLower(IAccessPropertyTitleMethods(titleContracts[i]).getFullPropertyAddress()), toLower(addressToSearchFor))) {\r\n                k++;\r\n            }\r\n        }\r\n\r\n        return k;\r\n    }\r\n\r\n    function getForSaleContractsCount() public view returns (uint256) {\r\n        uint256 k = 0;\r\n        for (uint256 i = 0; i < titleContracts.length; i++) {\r\n            if (IAccessPropertyTitleMethods(titleContracts[i]).contractState() == PropertyTitleContractState.FOR_SALE) {\r\n                k++;\r\n            } \r\n        }\r\n\r\n        return k;\r\n    }\r\n\r\n\r\n    function getForSaleContracts() public view returns (address[] memory) {\r\n        address[] memory contracts = new address[](getForSaleContractsCount());\r\n\r\n        uint256 k = 0;\r\n        for (uint256 i = 0; i < titleContracts.length; i++) {\r\n            if (IAccessPropertyTitleMethods(titleContracts[i]).contractState() == PropertyTitleContractState.FOR_SALE) {\r\n                contracts[k++] = titleContracts[i];\r\n            }\r\n        }\r\n\r\n        return contracts;\r\n    }\r\n\r\n    function getForSaleContractsByAddress(string memory addressToSearchFor) public view returns (address[] memory) {\r\n        address[] memory contracts = new address[](getForSaleContractsByAddressCount(addressToSearchFor));\r\n\r\n        address[] memory forSaleContracts = getForSaleContracts();\r\n        uint256 k = 0;\r\n        for (uint256 i = 0; i < forSaleContracts.length; i++) {\r\n            if (stringContains(toLower(IAccessPropertyTitleMethods(forSaleContracts[i]).getFullPropertyAddress()), toLower(addressToSearchFor))) {\r\n                contracts[k++] = forSaleContracts[i];\r\n            }\r\n        }\r\n\r\n        return contracts;\r\n    }\r\n\r\n    function getForSaleContractsByAddressAndOffsetAndLimit(string memory addressToSearchFor, uint256 offset, uint256 limit)  public view returns (address[] memory) {\r\n        uint256 forSaleContractsByAddressCount = getForSaleContractsByAddressCount(addressToSearchFor);\r\n        require(forSaleContractsByAddressCount > offset, \"Offset greater than list length\");\r\n\r\n        address[] memory contracts = forSaleContractsByAddressCount > offset + limit \r\n            ? new address[](limit) \r\n            : new address[](forSaleContractsByAddressCount - offset);\r\n\r\n        address[] memory forSaleContractsByAddress = getForSaleContractsByAddress(addressToSearchFor);\r\n        for (uint256 i = offset; i < offset + limit; i++) {\r\n            if (i >= forSaleContractsByAddress.length) {\r\n                break;\r\n            }\r\n            contracts[i - offset] = forSaleContractsByAddress[i];\r\n\r\n        }\r\n\r\n        return contracts;\r\n    }\r\n\r\n    function getAccountContractsCount(address account) public view returns (uint256)\r\n    {\r\n        uint256 k = 0;\r\n        for (uint256 i = 0; i < titleContracts.length; i++) {\r\n            if (IAccessPropertyTitleMethods(titleContracts[i]).owner() == account && \r\n                IAccessPropertyTitleMethods(titleContracts[i]).contractState() != PropertyTitleContractState.NO_LONGER_RELEVANT) {\r\n                k++;\r\n            }\r\n        }\r\n\r\n        return k;\r\n    }\r\n\r\n    function getAccountContracts(address account) public view returns (address[] memory)\r\n    {\r\n        address[] memory contracts = new address[](getAccountContractsCount(account));\r\n        uint256 k = 0;\r\n        for (uint256 i = 0; i < titleContracts.length; i++) {\r\n            if (IAccessPropertyTitleMethods(titleContracts[i]).owner() == account) {\r\n                contracts[k++] = titleContracts[i];\r\n            }\r\n        }\r\n\r\n        return contracts;\r\n    }\r\n\r\n    function stringContains(string memory stringToSearchIn, string memory stringToSearchFor) public pure returns (bool) {\r\n        bytes memory stringToSearchForBytes = bytes (stringToSearchFor);\r\n        bytes memory stringToSearchInBytes = bytes (stringToSearchIn);\r\n\r\n        require(stringToSearchInBytes.length >= stringToSearchForBytes.length);\r\n\r\n        bool found = false;\r\n        for (uint i = 0; i <= stringToSearchInBytes.length - stringToSearchForBytes.length; i++) {\r\n            bool flag = true;\r\n            for (uint j = 0; j < stringToSearchForBytes.length; j++)\r\n                if (stringToSearchInBytes[i + j] != stringToSearchForBytes[j]) {\r\n                    flag = false;\r\n                    break;\r\n                }\r\n            if (flag) {\r\n                found = true;\r\n                break;\r\n            }\r\n        }\r\n        \r\n        return found;\r\n    }\r\n\r\n    function toLower(string memory str) public pure returns (string memory) {\r\n        bytes memory bStr = bytes(str);\r\n        bytes memory bLower = new bytes(bStr.length);\r\n        for (uint i = 0; i < bStr.length; i++) {\r\n            if ((uint8(bStr[i]) >= 65) && (uint8(bStr[i]) <= 90)) {\r\n                bLower[i] = bytes1(uint8(bStr[i]) + 32);\r\n            } else {\r\n                bLower[i] = bStr[i];\r\n            }\r\n        }\r\n        return string(bLower);\r\n    }\r\n\r\n    modifier onlyRegistrar {\r\n        require(isRegistrar[msg.sender] == true, \"Only one of the registrars has access to this functionality.\");\r\n        _;\r\n    }\r\n\r\n    modifier onlyOwner {\r\n        require(isOwner[msg.sender] == true, \"Only one of the owners has access to this functionality.\");\r\n        _;\r\n    }\r\n}",
  "sourcePath": "D:\\Propty\\propty\\contracts\\contracts\\TitleCreatingContract.sol",
  "compiler": {
    "name": "solc",
    "version": "0.8.16+commit.07a7930e.Emscripten.clang"
  },
  "schemaVersion": "3.4.9",
  "updatedAt": "2023-03-05T12:57:26.886Z",
  "networkType": "ethereum",
  "devdoc": {
    "kind": "dev",
    "methods": {},
    "version": 1
  },
  "userdoc": {
    "kind": "user",
    "methods": {},
    "version": 1
  }
}